{
  "contractName": "EthSwap",
  "abi": [
    {
      "inputs": [
        {
          "internalType": "contract AToken",
          "name": "_aToken",
          "type": "address"
        },
        {
          "internalType": "contract BToken",
          "name": "_bToken",
          "type": "address"
        }
      ],
      "stateMutability": "nonpayable",
      "type": "constructor"
    },
    {
      "anonymous": false,
      "inputs": [
        {
          "indexed": false,
          "internalType": "address",
          "name": "accountSent",
          "type": "address"
        },
        {
          "indexed": false,
          "internalType": "address",
          "name": "accountReceived",
          "type": "address"
        },
        {
          "indexed": false,
          "internalType": "uint256",
          "name": "amount",
          "type": "uint256"
        }
      ],
      "name": "ATokensSent",
      "type": "event"
    },
    {
      "anonymous": false,
      "inputs": [
        {
          "indexed": false,
          "internalType": "address",
          "name": "account",
          "type": "address"
        },
        {
          "indexed": false,
          "internalType": "address",
          "name": "token",
          "type": "address"
        },
        {
          "indexed": false,
          "internalType": "uint256",
          "name": "amount",
          "type": "uint256"
        },
        {
          "indexed": false,
          "internalType": "uint256",
          "name": "rate",
          "type": "uint256"
        }
      ],
      "name": "ATokensSold",
      "type": "event"
    },
    {
      "anonymous": false,
      "inputs": [
        {
          "indexed": false,
          "internalType": "address",
          "name": "account",
          "type": "address"
        },
        {
          "indexed": false,
          "internalType": "address",
          "name": "token",
          "type": "address"
        },
        {
          "indexed": false,
          "internalType": "uint256",
          "name": "amount",
          "type": "uint256"
        },
        {
          "indexed": false,
          "internalType": "uint256",
          "name": "rate",
          "type": "uint256"
        }
      ],
      "name": "BTokensPurchased",
      "type": "event"
    },
    {
      "anonymous": false,
      "inputs": [
        {
          "indexed": false,
          "internalType": "address",
          "name": "accountSent",
          "type": "address"
        },
        {
          "indexed": false,
          "internalType": "address",
          "name": "accountReceived",
          "type": "address"
        },
        {
          "indexed": false,
          "internalType": "uint256",
          "name": "amount",
          "type": "uint256"
        }
      ],
      "name": "BTokensSent",
      "type": "event"
    },
    {
      "anonymous": false,
      "inputs": [
        {
          "indexed": false,
          "internalType": "address",
          "name": "account",
          "type": "address"
        },
        {
          "indexed": false,
          "internalType": "address",
          "name": "token",
          "type": "address"
        },
        {
          "indexed": false,
          "internalType": "uint256",
          "name": "amount",
          "type": "uint256"
        },
        {
          "indexed": false,
          "internalType": "uint256",
          "name": "rate",
          "type": "uint256"
        }
      ],
      "name": "BTokensSold",
      "type": "event"
    },
    {
      "anonymous": false,
      "inputs": [
        {
          "indexed": false,
          "internalType": "address",
          "name": "account",
          "type": "address"
        },
        {
          "indexed": false,
          "internalType": "address",
          "name": "token",
          "type": "address"
        },
        {
          "indexed": false,
          "internalType": "uint256",
          "name": "amount",
          "type": "uint256"
        },
        {
          "indexed": false,
          "internalType": "uint256",
          "name": "rate",
          "type": "uint256"
        }
      ],
      "name": "TokensPurchased",
      "type": "event"
    },
    {
      "inputs": [],
      "name": "aRate",
      "outputs": [
        {
          "internalType": "uint256",
          "name": "",
          "type": "uint256"
        }
      ],
      "stateMutability": "view",
      "type": "function",
      "constant": true
    },
    {
      "inputs": [],
      "name": "aToken",
      "outputs": [
        {
          "internalType": "contract AToken",
          "name": "",
          "type": "address"
        }
      ],
      "stateMutability": "view",
      "type": "function",
      "constant": true
    },
    {
      "inputs": [],
      "name": "bRate",
      "outputs": [
        {
          "internalType": "uint256",
          "name": "",
          "type": "uint256"
        }
      ],
      "stateMutability": "view",
      "type": "function",
      "constant": true
    },
    {
      "inputs": [],
      "name": "bToken",
      "outputs": [
        {
          "internalType": "contract BToken",
          "name": "",
          "type": "address"
        }
      ],
      "stateMutability": "view",
      "type": "function",
      "constant": true
    },
    {
      "inputs": [],
      "name": "name",
      "outputs": [
        {
          "internalType": "string",
          "name": "",
          "type": "string"
        }
      ],
      "stateMutability": "view",
      "type": "function",
      "constant": true
    },
    {
      "inputs": [],
      "name": "buyATokens",
      "outputs": [],
      "stateMutability": "payable",
      "type": "function",
      "payable": true
    },
    {
      "inputs": [
        {
          "internalType": "uint256",
          "name": "_amount",
          "type": "uint256"
        }
      ],
      "name": "sellATokens",
      "outputs": [],
      "stateMutability": "nonpayable",
      "type": "function"
    },
    {
      "inputs": [],
      "name": "buyBTokens",
      "outputs": [],
      "stateMutability": "payable",
      "type": "function",
      "payable": true
    },
    {
      "inputs": [
        {
          "internalType": "uint256",
          "name": "_amount",
          "type": "uint256"
        }
      ],
      "name": "sellBTokens",
      "outputs": [],
      "stateMutability": "nonpayable",
      "type": "function"
    }
  ],
  "bytecode": "0x60806040526040518060400160405280601081526020017f457468537761702045786368616e6765000000000000000000000000000000008152506001908051906020019061004f929190610137565b506103e86003556103e860055534801561006857600080fd5b50604051610e6a380380610e6a8339818101604052604081101561008b57600080fd5b810190808051906020019092919080519060200190929190505050600160008190555081600260006101000a81548173ffffffffffffffffffffffffffffffffffffffff021916908373ffffffffffffffffffffffffffffffffffffffff16021790555080600460006101000a81548173ffffffffffffffffffffffffffffffffffffffff021916908373ffffffffffffffffffffffffffffffffffffffff16021790555050506101dc565b828054600181600116156101000203166002900490600052602060002090601f016020900481019282601f1061017857805160ff19168380011785556101a6565b828001600101855582156101a6579182015b828111156101a557825182559160200191906001019061018a565b5b5090506101b391906101b7565b5090565b6101d991905b808211156101d55760008160009055506001016101bd565b5090565b90565b610c7f806101eb6000396000f3fe6080604052600436106100865760003560e01c8063a0c1f15e11610059578063a0c1f15e146101d8578063b9a541eb1461022f578063c51b43501461025a578063ce72b86014610264578063f22dda411461026e57610086565b806306fdde031461008b578063180f58421461011b5780633e2974e7146101725780636c0a9daa1461019d575b600080fd5b34801561009757600080fd5b506100a06102a9565b6040518080602001828103825283818151815260200191508051906020019080838360005b838110156100e05780820151818401526020810190506100c5565b50505050905090810190601f16801561010d5780820380516001836020036101000a031916815260200191505b509250505060405180910390f35b34801561012757600080fd5b50610130610347565b604051808273ffffffffffffffffffffffffffffffffffffffff1673ffffffffffffffffffffffffffffffffffffffff16815260200191505060405180910390f35b34801561017e57600080fd5b5061018761036d565b6040518082815260200191505060405180910390f35b3480156101a957600080fd5b506101d6600480360360208110156101c057600080fd5b8101908080359060200190929190505050610373565b005b3480156101e457600080fd5b506101ed6105f1565b604051808273ffffffffffffffffffffffffffffffffffffffff1673ffffffffffffffffffffffffffffffffffffffff16815260200191505060405180910390f35b34801561023b57600080fd5b50610244610617565b6040518082815260200191505060405180910390f35b61026261061d565b005b61026c6107f4565b005b34801561027a57600080fd5b506102a76004803603602081101561029157600080fd5b81019080803590602001909291905050506109cb565b005b60018054600181600116156101000203166002900480601f01602080910402602001604051908101604052809291908181526020018280546001816001161561010002031660029004801561033f5780601f106103145761010080835404028352916020019161033f565b820191906000526020600020905b81548152906001019060200180831161032257829003601f168201915b505050505081565b600460009054906101000a900473ffffffffffffffffffffffffffffffffffffffff1681565b60035481565b80600260009054906101000a900473ffffffffffffffffffffffffffffffffffffffff1673ffffffffffffffffffffffffffffffffffffffff166370a08231336040518263ffffffff1660e01b8152600401808273ffffffffffffffffffffffffffffffffffffffff1673ffffffffffffffffffffffffffffffffffffffff16815260200191505060206040518083038186803b15801561041357600080fd5b505afa158015610427573d6000803e3d6000fd5b505050506040513d602081101561043d57600080fd5b8101908080519060200190929190505050101561045957600080fd5b6000600354828161046657fe5b049050803073ffffffffffffffffffffffffffffffffffffffff1631101561048d57600080fd5b600260009054906101000a900473ffffffffffffffffffffffffffffffffffffffff1673ffffffffffffffffffffffffffffffffffffffff166323b872dd3330856040518463ffffffff1660e01b8152600401808473ffffffffffffffffffffffffffffffffffffffff1673ffffffffffffffffffffffffffffffffffffffff1681526020018373ffffffffffffffffffffffffffffffffffffffff1673ffffffffffffffffffffffffffffffffffffffff1681526020018281526020019350505050602060405180830381600087803b15801561056a57600080fd5b505af115801561057e573d6000803e3d6000fd5b505050506040513d602081101561059457600080fd5b8101908080519060200190929190505050503373ffffffffffffffffffffffffffffffffffffffff166108fc829081150290604051600060405180830381858888f193505050501580156105ec573d6000803e3d6000fd5b505050565b600260009054906101000a900473ffffffffffffffffffffffffffffffffffffffff1681565b60055481565b60006003543402905080600260009054906101000a900473ffffffffffffffffffffffffffffffffffffffff1673ffffffffffffffffffffffffffffffffffffffff166370a08231306040518263ffffffff1660e01b8152600401808273ffffffffffffffffffffffffffffffffffffffff1673ffffffffffffffffffffffffffffffffffffffff16815260200191505060206040518083038186803b1580156106c657600080fd5b505afa1580156106da573d6000803e3d6000fd5b505050506040513d60208110156106f057600080fd5b8101908080519060200190929190505050101561070c57600080fd5b600260009054906101000a900473ffffffffffffffffffffffffffffffffffffffff1673ffffffffffffffffffffffffffffffffffffffff1663a9059cbb33836040518363ffffffff1660e01b8152600401808373ffffffffffffffffffffffffffffffffffffffff1673ffffffffffffffffffffffffffffffffffffffff16815260200182815260200192505050602060405180830381600087803b1580156107b557600080fd5b505af11580156107c9573d6000803e3d6000fd5b505050506040513d60208110156107df57600080fd5b81019080805190602001909291905050505050565b60006005543402905080600460009054906101000a900473ffffffffffffffffffffffffffffffffffffffff1673ffffffffffffffffffffffffffffffffffffffff166370a08231306040518263ffffffff1660e01b8152600401808273ffffffffffffffffffffffffffffffffffffffff1673ffffffffffffffffffffffffffffffffffffffff16815260200191505060206040518083038186803b15801561089d57600080fd5b505afa1580156108b1573d6000803e3d6000fd5b505050506040513d60208110156108c757600080fd5b810190808051906020019092919050505010156108e357600080fd5b600460009054906101000a900473ffffffffffffffffffffffffffffffffffffffff1673ffffffffffffffffffffffffffffffffffffffff1663a9059cbb33836040518363ffffffff1660e01b8152600401808373ffffffffffffffffffffffffffffffffffffffff1673ffffffffffffffffffffffffffffffffffffffff16815260200182815260200192505050602060405180830381600087803b15801561098c57600080fd5b505af11580156109a0573d6000803e3d6000fd5b505050506040513d60208110156109b657600080fd5b81019080805190602001909291905050505050565b80600460009054906101000a900473ffffffffffffffffffffffffffffffffffffffff1673ffffffffffffffffffffffffffffffffffffffff166370a08231336040518263ffffffff1660e01b8152600401808273ffffffffffffffffffffffffffffffffffffffff1673ffffffffffffffffffffffffffffffffffffffff16815260200191505060206040518083038186803b158015610a6b57600080fd5b505afa158015610a7f573d6000803e3d6000fd5b505050506040513d6020811015610a9557600080fd5b81019080805190602001909291905050501015610ab157600080fd5b60006005548281610abe57fe5b049050803073ffffffffffffffffffffffffffffffffffffffff16311015610ae557600080fd5b600460009054906101000a900473ffffffffffffffffffffffffffffffffffffffff1673ffffffffffffffffffffffffffffffffffffffff166323b872dd3330856040518463ffffffff1660e01b8152600401808473ffffffffffffffffffffffffffffffffffffffff1673ffffffffffffffffffffffffffffffffffffffff1681526020018373ffffffffffffffffffffffffffffffffffffffff1673ffffffffffffffffffffffffffffffffffffffff1681526020018281526020019350505050602060405180830381600087803b158015610bc257600080fd5b505af1158015610bd6573d6000803e3d6000fd5b505050506040513d6020811015610bec57600080fd5b8101908080519060200190929190505050503373ffffffffffffffffffffffffffffffffffffffff166108fc829081150290604051600060405180830381858888f19350505050158015610c44573d6000803e3d6000fd5b50505056fea2646970667358221220a5faca03f14a84854bbd3286fff55f533e085b2dc5d02872e14f3352c0a44b2264736f6c63430006080033",
  "immutableReferences": {},
  "source": "// SPDX-License-Identifier: MIT\n\npragma solidity >=0.6.8;\n\nimport \"./AToken.sol\";\nimport \"./BToken.sol\";\nimport {IEthSwap} from \"./interfaces/IEthSwap.sol\";\nimport {ReentrancyGuard} from \"@openzeppelin/contracts/utils/ReentrancyGuard.sol\";\nimport {SafeMath} from \"@openzeppelin/contracts/math/SafeMath.sol\";\nimport {Math} from \"@openzeppelin/contracts/math/Math.sol\";\n\ncontract EthSwap is IEthSwap, ReentrancyGuard {\n    using SafeMath for uint256;\n    using SafeMath for uint8;\n    using Math for uint256;\n\n    string public name = \"EthSwap Exchange\";\n    AToken public aToken;\n    uint256 public aRate = 1000;\n    BToken public bToken;\n    uint256 public bRate = 1000;\n\n    constructor(AToken _aToken, BToken _bToken) public {\n        //pass the address of the Token in\n        aToken = _aToken;\n        bToken = _bToken;\n    }\n\n    function buyATokens() public payable {\n        // Calculate the number of tokens to buy\n        uint256 tokenAmount = msg.value * aRate; //msg.value = how much ether was sent\n\n        // Require that EthSwap has enough tokens\n        require(aToken.balanceOf(address(this)) >= tokenAmount);\n\n        // Transfer tokens to the user\n        aToken.transfer(msg.sender, tokenAmount);\n\n        // // emit an event\n        // emit TokensPurchased(msg.sender, address(aToken), tokenAmount, aRate);\n    }\n\n    function sellATokens(uint256 _amount) public {\n        // User can't sell more tokens than they have\n        require(aToken.balanceOf(msg.sender) >= _amount);\n\n        // Calculate the amount of Ether to redeem\n        uint256 etherAmount = _amount / aRate;\n\n        // Require that EthSwap has enough Ether\n        require(address(this).balance >= etherAmount);\n\n        // Perform sale\n        aToken.transferFrom(msg.sender, address(this), _amount);\n        msg.sender.transfer(etherAmount);\n\n        // // emit an event\n        // emit TokensSold(msg.sender, address(aToken), _amount, aRate);\n    }\n\n    function buyBTokens() public payable {\n        // Calculate the number of tokens to buy\n        uint256 tokenAmount = msg.value * bRate; //msg.value = how much ether was sent\n\n        // Require that EthSwap has enough tokens\n        require(bToken.balanceOf(address(this)) >= tokenAmount);\n\n        // Transfer tokens to the user\n        bToken.transfer(msg.sender, tokenAmount);\n\n        // // emit an event\n        // emit TokensPurchased(msg.sender, address(bToken), tokenAmount, bRate);\n    }\n\n    function sellBTokens(uint256 _amount) public {\n        // User can't sell more tokens than they have\n        require(bToken.balanceOf(msg.sender) >= _amount);\n\n        // Calculate the amount of Ether to redeem\n        uint256 etherAmount = _amount / bRate;\n\n        // Require that EthSwap has enough Ether\n        require(address(this).balance >= etherAmount);\n\n        // Perform sale\n        bToken.transferFrom(msg.sender, address(this), _amount);\n        msg.sender.transfer(etherAmount);\n\n        // // emit an event\n        // emit TokensSold(msg.sender, address(bToken), _amount, bRate);\n    }\n}\n",
  "sourcePath": "/Users/weerenteo/Desktop/Dex/Blockchain-DEX/src/contracts/EthSwap.sol",
  "compiler": {
    "name": "solc",
    "version": "0.6.8+commit.0bbfe453.Emscripten.clang"
  },
  "schemaVersion": "3.4.10",
  "updatedAt": "2022-11-05T17:34:25.077Z",
  "networkType": "ethereum",
  "devdoc": {
    "methods": {}
  },
  "userdoc": {
    "methods": {}
  }
}