{
  "contractName": "EthSwap",
  "abi": [
    {
      "inputs": [
        {
          "internalType": "contract CoolToken",
          "name": "_coolToken",
          "type": "address"
        },
        {
          "internalType": "contract SecondToken",
          "name": "_secondToken",
          "type": "address"
        }
      ],
      "stateMutability": "nonpayable",
      "type": "constructor"
    },
    {
      "anonymous": false,
      "inputs": [
        {
          "indexed": false,
          "internalType": "address",
          "name": "sender",
          "type": "address"
        },
        {
          "indexed": false,
          "internalType": "uint256",
          "name": "price",
          "type": "uint256"
        },
        {
          "indexed": false,
          "internalType": "uint256",
          "name": "amountOfBaseToken",
          "type": "uint256"
        }
      ],
      "name": "DrawToBuyBook",
      "type": "event"
    },
    {
      "anonymous": false,
      "inputs": [
        {
          "indexed": false,
          "internalType": "address",
          "name": "sender",
          "type": "address"
        },
        {
          "indexed": false,
          "internalType": "uint256",
          "name": "price",
          "type": "uint256"
        },
        {
          "indexed": false,
          "internalType": "uint256",
          "name": "amountOfTradeToken",
          "type": "uint256"
        }
      ],
      "name": "DrawToSellBook",
      "type": "event"
    },
    {
      "anonymous": false,
      "inputs": [
        {
          "indexed": false,
          "internalType": "address",
          "name": "sender",
          "type": "address"
        },
        {
          "indexed": false,
          "internalType": "uint256",
          "name": "price",
          "type": "uint256"
        },
        {
          "indexed": false,
          "internalType": "uint256",
          "name": "amountOfBaseToken",
          "type": "uint256"
        }
      ],
      "name": "PlaceBuyOrder",
      "type": "event"
    },
    {
      "anonymous": false,
      "inputs": [
        {
          "indexed": false,
          "internalType": "address",
          "name": "sender",
          "type": "address"
        },
        {
          "indexed": false,
          "internalType": "uint256",
          "name": "price",
          "type": "uint256"
        },
        {
          "indexed": false,
          "internalType": "uint256",
          "name": "amountOfTradeToken",
          "type": "uint256"
        }
      ],
      "name": "PlaceSellOrder",
      "type": "event"
    },
    {
      "anonymous": false,
      "inputs": [
        {
          "indexed": false,
          "internalType": "address",
          "name": "account",
          "type": "address"
        },
        {
          "indexed": false,
          "internalType": "address",
          "name": "token",
          "type": "address"
        },
        {
          "indexed": false,
          "internalType": "uint256",
          "name": "amount",
          "type": "uint256"
        },
        {
          "indexed": false,
          "internalType": "uint256",
          "name": "rate",
          "type": "uint256"
        }
      ],
      "name": "SecondTokensPurchased",
      "type": "event"
    },
    {
      "anonymous": false,
      "inputs": [
        {
          "indexed": false,
          "internalType": "address",
          "name": "account",
          "type": "address"
        },
        {
          "indexed": false,
          "internalType": "address",
          "name": "token",
          "type": "address"
        },
        {
          "indexed": false,
          "internalType": "uint256",
          "name": "amount",
          "type": "uint256"
        },
        {
          "indexed": false,
          "internalType": "uint256",
          "name": "rate",
          "type": "uint256"
        }
      ],
      "name": "SecondTokensSold",
      "type": "event"
    },
    {
      "anonymous": false,
      "inputs": [
        {
          "indexed": false,
          "internalType": "address",
          "name": "account",
          "type": "address"
        },
        {
          "indexed": false,
          "internalType": "address",
          "name": "token",
          "type": "address"
        },
        {
          "indexed": false,
          "internalType": "uint256",
          "name": "amount",
          "type": "uint256"
        },
        {
          "indexed": false,
          "internalType": "uint256",
          "name": "rate",
          "type": "uint256"
        }
      ],
      "name": "TokensPurchased",
      "type": "event"
    },
    {
      "anonymous": false,
      "inputs": [
        {
          "indexed": false,
          "internalType": "address",
          "name": "account",
          "type": "address"
        },
        {
          "indexed": false,
          "internalType": "address",
          "name": "token",
          "type": "address"
        },
        {
          "indexed": false,
          "internalType": "uint256",
          "name": "amount",
          "type": "uint256"
        },
        {
          "indexed": false,
          "internalType": "uint256",
          "name": "rate",
          "type": "uint256"
        }
      ],
      "name": "TokensSold",
      "type": "event"
    },
    {
      "inputs": [],
      "name": "baseToken",
      "outputs": [
        {
          "internalType": "contract IERC20",
          "name": "",
          "type": "address"
        }
      ],
      "stateMutability": "view",
      "type": "function"
    },
    {
      "inputs": [],
      "name": "buyCounter",
      "outputs": [
        {
          "internalType": "uint256",
          "name": "",
          "type": "uint256"
        }
      ],
      "stateMutability": "view",
      "type": "function"
    },
    {
      "inputs": [
        {
          "internalType": "uint256",
          "name": "",
          "type": "uint256"
        },
        {
          "internalType": "uint8",
          "name": "",
          "type": "uint8"
        }
      ],
      "name": "buyOrdersInStep",
      "outputs": [
        {
          "internalType": "address",
          "name": "maker",
          "type": "address"
        },
        {
          "internalType": "uint256",
          "name": "amount",
          "type": "uint256"
        }
      ],
      "stateMutability": "view",
      "type": "function"
    },
    {
      "inputs": [
        {
          "internalType": "uint256",
          "name": "",
          "type": "uint256"
        }
      ],
      "name": "buyOrdersInStepCounter",
      "outputs": [
        {
          "internalType": "uint8",
          "name": "",
          "type": "uint8"
        }
      ],
      "stateMutability": "view",
      "type": "function"
    },
    {
      "inputs": [
        {
          "internalType": "uint256",
          "name": "",
          "type": "uint256"
        }
      ],
      "name": "buySteps",
      "outputs": [
        {
          "internalType": "uint256",
          "name": "higherPrice",
          "type": "uint256"
        },
        {
          "internalType": "uint256",
          "name": "lowerPrice",
          "type": "uint256"
        },
        {
          "internalType": "uint256",
          "name": "amount",
          "type": "uint256"
        }
      ],
      "stateMutability": "view",
      "type": "function"
    },
    {
      "inputs": [],
      "name": "coolRate",
      "outputs": [
        {
          "internalType": "uint256",
          "name": "",
          "type": "uint256"
        }
      ],
      "stateMutability": "view",
      "type": "function"
    },
    {
      "inputs": [],
      "name": "coolToken",
      "outputs": [
        {
          "internalType": "contract CoolToken",
          "name": "",
          "type": "address"
        }
      ],
      "stateMutability": "view",
      "type": "function"
    },
    {
      "inputs": [],
      "name": "idOfBuyRate",
      "outputs": [
        {
          "internalType": "uint256",
          "name": "",
          "type": "uint256"
        }
      ],
      "stateMutability": "view",
      "type": "function"
    },
    {
      "inputs": [],
      "name": "idOfSellRate",
      "outputs": [
        {
          "internalType": "uint256",
          "name": "",
          "type": "uint256"
        }
      ],
      "stateMutability": "view",
      "type": "function"
    },
    {
      "inputs": [],
      "name": "maxBuyPrice",
      "outputs": [
        {
          "internalType": "uint256",
          "name": "",
          "type": "uint256"
        }
      ],
      "stateMutability": "view",
      "type": "function"
    },
    {
      "inputs": [],
      "name": "maxBuyRate",
      "outputs": [
        {
          "internalType": "uint256",
          "name": "",
          "type": "uint256"
        }
      ],
      "stateMutability": "view",
      "type": "function"
    },
    {
      "inputs": [],
      "name": "minSellPrice",
      "outputs": [
        {
          "internalType": "uint256",
          "name": "",
          "type": "uint256"
        }
      ],
      "stateMutability": "view",
      "type": "function"
    },
    {
      "inputs": [],
      "name": "minSellRate",
      "outputs": [
        {
          "internalType": "uint256",
          "name": "",
          "type": "uint256"
        }
      ],
      "stateMutability": "view",
      "type": "function"
    },
    {
      "inputs": [],
      "name": "name",
      "outputs": [
        {
          "internalType": "string",
          "name": "",
          "type": "string"
        }
      ],
      "stateMutability": "view",
      "type": "function"
    },
    {
      "inputs": [
        {
          "internalType": "uint256",
          "name": "",
          "type": "uint256"
        }
      ],
      "name": "newBuyOrderBook",
      "outputs": [
        {
          "internalType": "address",
          "name": "maker",
          "type": "address"
        },
        {
          "internalType": "uint256",
          "name": "amount",
          "type": "uint256"
        },
        {
          "internalType": "uint256",
          "name": "rate",
          "type": "uint256"
        }
      ],
      "stateMutability": "view",
      "type": "function"
    },
    {
      "inputs": [
        {
          "internalType": "uint256",
          "name": "",
          "type": "uint256"
        }
      ],
      "name": "newSellOrderBook",
      "outputs": [
        {
          "internalType": "address",
          "name": "maker",
          "type": "address"
        },
        {
          "internalType": "uint256",
          "name": "amount",
          "type": "uint256"
        },
        {
          "internalType": "uint256",
          "name": "rate",
          "type": "uint256"
        }
      ],
      "stateMutability": "view",
      "type": "function"
    },
    {
      "inputs": [],
      "name": "secondRate",
      "outputs": [
        {
          "internalType": "uint256",
          "name": "",
          "type": "uint256"
        }
      ],
      "stateMutability": "view",
      "type": "function"
    },
    {
      "inputs": [],
      "name": "secondToken",
      "outputs": [
        {
          "internalType": "contract SecondToken",
          "name": "",
          "type": "address"
        }
      ],
      "stateMutability": "view",
      "type": "function"
    },
    {
      "inputs": [],
      "name": "sellCounter",
      "outputs": [
        {
          "internalType": "uint256",
          "name": "",
          "type": "uint256"
        }
      ],
      "stateMutability": "view",
      "type": "function"
    },
    {
      "inputs": [
        {
          "internalType": "uint256",
          "name": "",
          "type": "uint256"
        },
        {
          "internalType": "uint8",
          "name": "",
          "type": "uint8"
        }
      ],
      "name": "sellOrdersInStep",
      "outputs": [
        {
          "internalType": "address",
          "name": "maker",
          "type": "address"
        },
        {
          "internalType": "uint256",
          "name": "amount",
          "type": "uint256"
        }
      ],
      "stateMutability": "view",
      "type": "function"
    },
    {
      "inputs": [
        {
          "internalType": "uint256",
          "name": "",
          "type": "uint256"
        }
      ],
      "name": "sellOrdersInStepCounter",
      "outputs": [
        {
          "internalType": "uint8",
          "name": "",
          "type": "uint8"
        }
      ],
      "stateMutability": "view",
      "type": "function"
    },
    {
      "inputs": [
        {
          "internalType": "uint256",
          "name": "",
          "type": "uint256"
        }
      ],
      "name": "sellSteps",
      "outputs": [
        {
          "internalType": "uint256",
          "name": "higherPrice",
          "type": "uint256"
        },
        {
          "internalType": "uint256",
          "name": "lowerPrice",
          "type": "uint256"
        },
        {
          "internalType": "uint256",
          "name": "amount",
          "type": "uint256"
        }
      ],
      "stateMutability": "view",
      "type": "function"
    },
    {
      "inputs": [],
      "name": "selltx",
      "outputs": [
        {
          "internalType": "uint256",
          "name": "",
          "type": "uint256"
        }
      ],
      "stateMutability": "view",
      "type": "function"
    },
    {
      "inputs": [],
      "name": "tradeToken",
      "outputs": [
        {
          "internalType": "contract IERC20",
          "name": "",
          "type": "address"
        }
      ],
      "stateMutability": "view",
      "type": "function"
    },
    {
      "inputs": [],
      "name": "buyCoolTokens",
      "outputs": [],
      "stateMutability": "payable",
      "type": "function"
    },
    {
      "inputs": [
        {
          "internalType": "uint256",
          "name": "_rate",
          "type": "uint256"
        }
      ],
      "name": "limitBuyCoolTokens",
      "outputs": [],
      "stateMutability": "payable",
      "type": "function"
    },
    {
      "inputs": [
        {
          "internalType": "uint256",
          "name": "_amount",
          "type": "uint256"
        }
      ],
      "name": "sellCoolTokens",
      "outputs": [],
      "stateMutability": "nonpayable",
      "type": "function"
    },
    {
      "inputs": [],
      "name": "buySecondTokens",
      "outputs": [],
      "stateMutability": "payable",
      "type": "function"
    },
    {
      "inputs": [
        {
          "internalType": "uint256",
          "name": "_amount",
          "type": "uint256"
        }
      ],
      "name": "sellSecondTokens",
      "outputs": [],
      "stateMutability": "nonpayable",
      "type": "function"
    },
    {
      "inputs": [
        {
          "internalType": "uint256",
          "name": "price",
          "type": "uint256"
        },
        {
          "internalType": "uint256",
          "name": "amountOfBaseToken",
          "type": "uint256"
        },
        {
          "internalType": "uint256",
          "name": "amount",
          "type": "uint256"
        }
      ],
      "name": "placeBuyOrder",
      "outputs": [],
      "stateMutability": "nonpayable",
      "type": "function"
    },
    {
      "inputs": [
        {
          "internalType": "uint256",
          "name": "price",
          "type": "uint256"
        },
        {
          "internalType": "uint256",
          "name": "amountOfTradeToken",
          "type": "uint256"
        },
        {
          "internalType": "uint256",
          "name": "amount",
          "type": "uint256"
        }
      ],
      "name": "placeSellOrder",
      "outputs": [],
      "stateMutability": "nonpayable",
      "type": "function"
    }
  ],
  "bytecode": "0x60806040526040518060400160405280601881526020017f4574685377617020496e7374616e742045786368616e6765000000000000000081525060039080519060200190620000519291906200014d565b506103e86005556103e86007556000601055600060145560006018553480156200007a57600080fd5b50604051620037293803806200372983398181016040526040811015620000a057600080fd5b810190808051906020019092919080519060200190929190505050600160008190555081600460006101000a81548173ffffffffffffffffffffffffffffffffffffffff021916908373ffffffffffffffffffffffffffffffffffffffff16021790555080600660006101000a81548173ffffffffffffffffffffffffffffffffffffffff021916908373ffffffffffffffffffffffffffffffffffffffff1602179055505050620001fc565b828054600181600116156101000203166002900490600052602060002090601f016020900481019282601f106200019057805160ff1916838001178555620001c1565b82800160010185558215620001c1579182015b82811115620001c0578251825591602001919060010190620001a3565b5b509050620001d09190620001d4565b5090565b620001f991905b80821115620001f5576000816000905550600101620001db565b5090565b90565b61351d806200020c6000396000f3fe6080604052600436106101d75760003560e01c80638b77bd7711610102578063c86f663911610095578063e7e8b38211610064578063e7e8b3821461095f578063eaf5a130146109b4578063f9193df0146109df578063ff1e086c14610a3c576101d7565b8063c86f663914610887578063cddfa2a4146108b2578063d83678ac146108dd578063e6a3326814610934576101d7565b806399487e88116100d157806399487e8814610751578063a4d0047d1461077c578063b2bb39ef146107a7578063c55dae6314610830576101d7565b80638b77bd771461069a5780639001c6d8146106f157806391ceedbf146106fb578063947cde3814610726576101d7565b8063433f88da1161017a5780636bc69a24116101495780636bc69a241461055c5780636caa30d9146105e55780636d9521171461062057806383c258871461064b576101d7565b8063433f88da1461043957806343e2bd02146104c857806352d49fa9146104f65780635632993b14610531576101d7565b806306fdde03116101b657806306fdde03146102ca5780632e78cd241461035a5780633bfd49da146103b75780633edec69a1461040e576101d7565b80626efa71146101dc5780630446d1c6146101e657806304ebe30814610275575b600080fd5b6101e4610a8b565b005b3480156101f257600080fd5b5061022c6004803603604081101561020957600080fd5b8101908080359060200190929190803560ff169060200190929190505050610d2d565b604051808373ffffffffffffffffffffffffffffffffffffffff1673ffffffffffffffffffffffffffffffffffffffff1681526020018281526020019250505060405180910390f35b34801561028157600080fd5b506102ae6004803603602081101561029857600080fd5b8101908080359060200190929190505050610d7e565b604051808260ff1660ff16815260200191505060405180910390f35b3480156102d657600080fd5b506102df610d9e565b6040518080602001828103825283818151815260200191508051906020019080838360005b8381101561031f578082015181840152602081019050610304565b50505050905090810190601f16801561034c5780820380516001836020036101000a031916815260200191505b509250505060405180910390f35b34801561036657600080fd5b506103936004803603602081101561037d57600080fd5b8101908080359060200190929190505050610e3c565b60405180848152602001838152602001828152602001935050505060405180910390f35b3480156103c357600080fd5b506103cc610e66565b604051808273ffffffffffffffffffffffffffffffffffffffff1673ffffffffffffffffffffffffffffffffffffffff16815260200191505060405180910390f35b34801561041a57600080fd5b50610423610e8c565b6040518082815260200191505060405180910390f35b34801561044557600080fd5b5061047f6004803603604081101561045c57600080fd5b8101908080359060200190929190803560ff169060200190929190505050610e92565b604051808373ffffffffffffffffffffffffffffffffffffffff1673ffffffffffffffffffffffffffffffffffffffff1681526020018281526020019250505060405180910390f35b6104f4600480360360208110156104de57600080fd5b8101908080359060200190929190505050610ee3565b005b34801561050257600080fd5b5061052f6004803603602081101561051957600080fd5b8101908080359060200190929190505050611205565b005b34801561053d57600080fd5b5061054661154e565b6040518082815260200191505060405180910390f35b34801561056857600080fd5b506105956004803603602081101561057f57600080fd5b8101908080359060200190929190505050611554565b604051808473ffffffffffffffffffffffffffffffffffffffff1673ffffffffffffffffffffffffffffffffffffffff168152602001838152602001828152602001935050505060405180910390f35b3480156105f157600080fd5b5061061e6004803603602081101561060857600080fd5b810190808035906020019092919050505061159e565b005b34801561062c57600080fd5b506106356118e7565b6040518082815260200191505060405180910390f35b34801561065757600080fd5b506106986004803603606081101561066e57600080fd5b810190808035906020019092919080359060200190929190803590602001909291905050506118ed565b005b3480156106a657600080fd5b506106af61215b565b604051808273ffffffffffffffffffffffffffffffffffffffff1673ffffffffffffffffffffffffffffffffffffffff16815260200191505060405180910390f35b6106f9612181565b005b34801561070757600080fd5b50610710612423565b6040518082815260200191505060405180910390f35b34801561073257600080fd5b5061073b612429565b6040518082815260200191505060405180910390f35b34801561075d57600080fd5b5061076661242f565b6040518082815260200191505060405180910390f35b34801561078857600080fd5b50610791612435565b6040518082815260200191505060405180910390f35b3480156107b357600080fd5b506107e0600480360360208110156107ca57600080fd5b810190808035906020019092919050505061243b565b604051808473ffffffffffffffffffffffffffffffffffffffff1673ffffffffffffffffffffffffffffffffffffffff168152602001838152602001828152602001935050505060405180910390f35b34801561083c57600080fd5b50610845612485565b604051808273ffffffffffffffffffffffffffffffffffffffff1673ffffffffffffffffffffffffffffffffffffffff16815260200191505060405180910390f35b34801561089357600080fd5b5061089c6124ab565b6040518082815260200191505060405180910390f35b3480156108be57600080fd5b506108c76124b1565b6040518082815260200191505060405180910390f35b3480156108e957600080fd5b506108f26124b7565b604051808273ffffffffffffffffffffffffffffffffffffffff1673ffffffffffffffffffffffffffffffffffffffff16815260200191505060405180910390f35b34801561094057600080fd5b506109496124dd565b6040518082815260200191505060405180910390f35b34801561096b57600080fd5b506109986004803603602081101561098257600080fd5b81019080803590602001909291905050506124e3565b604051808260ff1660ff16815260200191505060405180910390f35b3480156109c057600080fd5b506109c9612503565b6040518082815260200191505060405180910390f35b3480156109eb57600080fd5b50610a1860048036036020811015610a0257600080fd5b8101908080359060200190929190505050612509565b60405180848152602001838152602001828152602001935050505060405180910390f35b348015610a4857600080fd5b50610a8960048036036060811015610a5f57600080fd5b81019080803590602001909291908035906020019092919080359060200190929190505050612533565b005b60006007543402905080600660009054906101000a900473ffffffffffffffffffffffffffffffffffffffff1673ffffffffffffffffffffffffffffffffffffffff166370a08231306040518263ffffffff1660e01b8152600401808273ffffffffffffffffffffffffffffffffffffffff1673ffffffffffffffffffffffffffffffffffffffff16815260200191505060206040518083038186803b158015610b3457600080fd5b505afa158015610b48573d6000803e3d6000fd5b505050506040513d6020811015610b5e57600080fd5b81019080805190602001909291905050501015610b7a57600080fd5b600660009054906101000a900473ffffffffffffffffffffffffffffffffffffffff1673ffffffffffffffffffffffffffffffffffffffff1663a9059cbb33836040518363ffffffff1660e01b8152600401808373ffffffffffffffffffffffffffffffffffffffff1673ffffffffffffffffffffffffffffffffffffffff16815260200182815260200192505050602060405180830381600087803b158015610c2357600080fd5b505af1158015610c37573d6000803e3d6000fd5b505050506040513d6020811015610c4d57600080fd5b8101908080519060200190929190505050507f6faf93231a456e552dbc9961f58d9713ee4f2e69d15f1975b050ef0911053a7b33600660009054906101000a900473ffffffffffffffffffffffffffffffffffffffff1683600754604051808573ffffffffffffffffffffffffffffffffffffffff1673ffffffffffffffffffffffffffffffffffffffff1681526020018473ffffffffffffffffffffffffffffffffffffffff1673ffffffffffffffffffffffffffffffffffffffff16815260200183815260200182815260200194505050505060405180910390a150565b600c602052816000526040600020602052806000526040600020600091509150508060000160009054906101000a900473ffffffffffffffffffffffffffffffffffffffff16908060010154905082565b600a6020528060005260406000206000915054906101000a900460ff1681565b60038054600181600116156101000203166002900480601f016020809104026020016040519081016040528092919081815260200182805460018160011615610100020316600290048015610e345780601f10610e0957610100808354040283529160200191610e34565b820191906000526020600020905b815481529060010190602001808311610e1757829003601f168201915b505050505081565b60096020528060005260406000206000915090508060000154908060010154908060020154905083565b600660009054906101000a900473ffffffffffffffffffffffffffffffffffffffff1681565b60115481565b6008602052816000526040600020602052806000526040600020600091509150508060000160009054906101000a900473ffffffffffffffffffffffffffffffffffffffff16908060010154905082565b6000610eed612c8b565b905081811015610f65576040517f08c379a00000000000000000000000000000000000000000000000000000000081526004018080602001828103825260048152602001807f6661696c0000000000000000000000000000000000000000000000000000000081525060200191505060405180910390fd5b6000813402905080600460009054906101000a900473ffffffffffffffffffffffffffffffffffffffff1673ffffffffffffffffffffffffffffffffffffffff166370a08231306040518263ffffffff1660e01b8152600401808273ffffffffffffffffffffffffffffffffffffffff1673ffffffffffffffffffffffffffffffffffffffff16815260200191505060206040518083038186803b15801561100c57600080fd5b505afa158015611020573d6000803e3d6000fd5b505050506040513d602081101561103657600080fd5b8101908080519060200190929190505050101561105257600080fd5b600460009054906101000a900473ffffffffffffffffffffffffffffffffffffffff1673ffffffffffffffffffffffffffffffffffffffff1663a9059cbb33836040518363ffffffff1660e01b8152600401808373ffffffffffffffffffffffffffffffffffffffff1673ffffffffffffffffffffffffffffffffffffffff16815260200182815260200192505050602060405180830381600087803b1580156110fb57600080fd5b505af115801561110f573d6000803e3d6000fd5b505050506040513d602081101561112557600080fd5b8101908080519060200190929190505050507f6faf93231a456e552dbc9961f58d9713ee4f2e69d15f1975b050ef0911053a7b33600460009054906101000a900473ffffffffffffffffffffffffffffffffffffffff168385604051808573ffffffffffffffffffffffffffffffffffffffff1673ffffffffffffffffffffffffffffffffffffffff1681526020018473ffffffffffffffffffffffffffffffffffffffff1673ffffffffffffffffffffffffffffffffffffffff16815260200183815260200182815260200194505050505060405180910390a1505050565b80600660009054906101000a900473ffffffffffffffffffffffffffffffffffffffff1673ffffffffffffffffffffffffffffffffffffffff166370a08231336040518263ffffffff1660e01b8152600401808273ffffffffffffffffffffffffffffffffffffffff1673ffffffffffffffffffffffffffffffffffffffff16815260200191505060206040518083038186803b1580156112a557600080fd5b505afa1580156112b9573d6000803e3d6000fd5b505050506040513d60208110156112cf57600080fd5b810190808051906020019092919050505010156112eb57600080fd5b600060075482816112f857fe5b049050803073ffffffffffffffffffffffffffffffffffffffff1631101561131f57600080fd5b600660009054906101000a900473ffffffffffffffffffffffffffffffffffffffff1673ffffffffffffffffffffffffffffffffffffffff166323b872dd3330856040518463ffffffff1660e01b8152600401808473ffffffffffffffffffffffffffffffffffffffff1673ffffffffffffffffffffffffffffffffffffffff1681526020018373ffffffffffffffffffffffffffffffffffffffff1673ffffffffffffffffffffffffffffffffffffffff1681526020018281526020019350505050602060405180830381600087803b1580156113fc57600080fd5b505af1158015611410573d6000803e3d6000fd5b505050506040513d602081101561142657600080fd5b8101908080519060200190929190505050503373ffffffffffffffffffffffffffffffffffffffff166108fc829081150290604051600060405180830381858888f1935050505015801561147e573d6000803e3d6000fd5b507f697c42d55a5e1fed3f464ec6f38b32546a0bd368dc8068b065c67566d73f329033600660009054906101000a900473ffffffffffffffffffffffffffffffffffffffff1684600754604051808573ffffffffffffffffffffffffffffffffffffffff1673ffffffffffffffffffffffffffffffffffffffff1681526020018473ffffffffffffffffffffffffffffffffffffffff1673ffffffffffffffffffffffffffffffffffffffff16815260200183815260200182815260200194505050505060405180910390a15050565b60165481565b60156020528060005260406000206000915090508060000160009054906101000a900473ffffffffffffffffffffffffffffffffffffffff16908060010154908060020154905083565b80600460009054906101000a900473ffffffffffffffffffffffffffffffffffffffff1673ffffffffffffffffffffffffffffffffffffffff166370a08231336040518263ffffffff1660e01b8152600401808273ffffffffffffffffffffffffffffffffffffffff1673ffffffffffffffffffffffffffffffffffffffff16815260200191505060206040518083038186803b15801561163e57600080fd5b505afa158015611652573d6000803e3d6000fd5b505050506040513d602081101561166857600080fd5b8101908080519060200190929190505050101561168457600080fd5b6000600554828161169157fe5b049050803073ffffffffffffffffffffffffffffffffffffffff163110156116b857600080fd5b600460009054906101000a900473ffffffffffffffffffffffffffffffffffffffff1673ffffffffffffffffffffffffffffffffffffffff166323b872dd3330856040518463ffffffff1660e01b8152600401808473ffffffffffffffffffffffffffffffffffffffff1673ffffffffffffffffffffffffffffffffffffffff1681526020018373ffffffffffffffffffffffffffffffffffffffff1673ffffffffffffffffffffffffffffffffffffffff1681526020018281526020019350505050602060405180830381600087803b15801561179557600080fd5b505af11580156117a9573d6000803e3d6000fd5b505050506040513d60208110156117bf57600080fd5b8101908080519060200190929190505050503373ffffffffffffffffffffffffffffffffffffffff166108fc829081150290604051600060405180830381858888f19350505050158015611817573d6000803e3d6000fd5b507f697c42d55a5e1fed3f464ec6f38b32546a0bd368dc8068b065c67566d73f329033600460009054906101000a900473ffffffffffffffffffffffffffffffffffffffff1684600554604051808573ffffffffffffffffffffffffffffffffffffffff1673ffffffffffffffffffffffffffffffffffffffff1681526020018473ffffffffffffffffffffffffffffffffffffffff1673ffffffffffffffffffffffffffffffffffffffff16815260200183815260200182815260200194505050505060405180910390a15050565b600b5481565b60026000541415611966576040517f08c379a000000000000000000000000000000000000000000000000000000000815260040180806020018281038252601f8152602001807f5265656e7472616e637947756172643a207265656e7472616e742063616c6c0081525060200191505060405180910390fd5b600260008190555081600460009054906101000a900473ffffffffffffffffffffffffffffffffffffffff1673ffffffffffffffffffffffffffffffffffffffff166370a08231336040518263ffffffff1660e01b8152600401808273ffffffffffffffffffffffffffffffffffffffff1673ffffffffffffffffffffffffffffffffffffffff16815260200191505060206040518083038186803b158015611a0e57600080fd5b505afa158015611a22573d6000803e3d6000fd5b505050506040513d6020811015611a3857600080fd5b81019080805190602001909291905050501015611a5457600080fd5b600460009054906101000a900473ffffffffffffffffffffffffffffffffffffffff1673ffffffffffffffffffffffffffffffffffffffff166323b872dd3330856040518463ffffffff1660e01b8152600401808473ffffffffffffffffffffffffffffffffffffffff1673ffffffffffffffffffffffffffffffffffffffff1681526020018373ffffffffffffffffffffffffffffffffffffffff1673ffffffffffffffffffffffffffffffffffffffff1681526020018281526020019350505050602060405180830381600087803b158015611b3157600080fd5b505af1158015611b45573d6000803e3d6000fd5b505050506040513d6020811015611b5b57600080fd5b8101908080519060200190929190505050507f395c1684516ae2d9902cf8f721a9ca0a0ee575e9381b5e0e11e129ba10904579338484604051808473ffffffffffffffffffffffffffffffffffffffff1673ffffffffffffffffffffffffffffffffffffffff168152602001838152602001828152602001935050505060405180910390a16000600f54905060008390506000600f54118015611c005750600f548510155b15612138575b600081118015611c165750848211155b8015611c23575060008214155b15612137576000600190506000600d60008581526020019081526020016000206000015490505b600e600085815260200190815260200160002060009054906101000a900460ff1660ff168260ff1611158015611c805750600083115b1561212d57600c600085815260200190815260200160002060008360ff1660ff16815260200190815260200160002060010154831061206957600e600085815260200190815260200160002060009054906101000a900460ff1660ff168260ff161415611d43576000811115611d0d576000600d6000838152602001908152602001600020600101819055505b600d600085815260200190815260200160002060008082016000905560018201600090556002820160009055505080600f819055505b611d83600c600086815260200190815260200160002060008460ff1660ff1681526020019081526020016000206001015484612d1090919063ffffffff16565b9250600460009054906101000a900473ffffffffffffffffffffffffffffffffffffffff1673ffffffffffffffffffffffffffffffffffffffff1663a9059cbb600c600087815260200190815260200160002060008560ff1660ff16815260200190815260200160002060000160009054906101000a900473ffffffffffffffffffffffffffffffffffffffff16600c600088815260200190815260200160002060008660ff1660ff168152602001908152602001600020600101546040518363ffffffff1660e01b8152600401808373ffffffffffffffffffffffffffffffffffffffff1673ffffffffffffffffffffffffffffffffffffffff16815260200182815260200192505050602060405180830381600087803b158015611ea857600080fd5b505af1158015611ebc573d6000803e3d6000fd5b505050506040513d6020811015611ed257600080fd5b810190808051906020019092919050505050600c600085815260200190815260200160002060008360ff1660ff168152602001908152602001600020600080820160006101000a81549073ffffffffffffffffffffffffffffffffffffffff0219169055600182016000905550506001600e600086815260200190815260200160002060008282829054906101000a900460ff160392506101000a81548160ff021916908360ff160217905550600660009054906101000a900473ffffffffffffffffffffffffffffffffffffffff1673ffffffffffffffffffffffffffffffffffffffff1663a9059cbb33866040518363ffffffff1660e01b8152600401808373ffffffffffffffffffffffffffffffffffffffff1673ffffffffffffffffffffffffffffffffffffffff16815260200182815260200192505050602060405180830381600087803b15801561202857600080fd5b505af115801561203c573d6000803e3d6000fd5b505050506040513d602081101561205257600080fd5b810190808051906020019092919050505050612122565b61209283600d600087815260200190815260200160002060020154612d1090919063ffffffff16565b600d6000868152602001908152602001600020600201819055506120ec83600c600087815260200190815260200160002060008560ff1660ff16815260200190815260200160002060010154612d1090919063ffffffff16565b600c600086815260200190815260200160002060008460ff1660ff16815260200190815260200160002060010181905550600092505b600182019150611c4a565b8093505050611c06565b5b600081111561214c5761214b8582612d93565b5b50506001600081905550505050565b600460009054906101000a900473ffffffffffffffffffffffffffffffffffffffff1681565b60006005543402905080600460009054906101000a900473ffffffffffffffffffffffffffffffffffffffff1673ffffffffffffffffffffffffffffffffffffffff166370a08231306040518263ffffffff1660e01b8152600401808273ffffffffffffffffffffffffffffffffffffffff1673ffffffffffffffffffffffffffffffffffffffff16815260200191505060206040518083038186803b15801561222a57600080fd5b505afa15801561223e573d6000803e3d6000fd5b505050506040513d602081101561225457600080fd5b8101908080519060200190929190505050101561227057600080fd5b600460009054906101000a900473ffffffffffffffffffffffffffffffffffffffff1673ffffffffffffffffffffffffffffffffffffffff1663a9059cbb33836040518363ffffffff1660e01b8152600401808373ffffffffffffffffffffffffffffffffffffffff1673ffffffffffffffffffffffffffffffffffffffff16815260200182815260200192505050602060405180830381600087803b15801561231957600080fd5b505af115801561232d573d6000803e3d6000fd5b505050506040513d602081101561234357600080fd5b8101908080519060200190929190505050507f6faf93231a456e552dbc9961f58d9713ee4f2e69d15f1975b050ef0911053a7b33600460009054906101000a900473ffffffffffffffffffffffffffffffffffffffff1683600554604051808573ffffffffffffffffffffffffffffffffffffffff1673ffffffffffffffffffffffffffffffffffffffff1681526020018473ffffffffffffffffffffffffffffffffffffffff1673ffffffffffffffffffffffffffffffffffffffff16815260200183815260200182815260200194505050505060405180910390a150565b60105481565b60185481565b600f5481565b60145481565b60126020528060005260406000206000915090508060000160009054906101000a900473ffffffffffffffffffffffffffffffffffffffff16908060010154908060020154905083565b600260009054906101000a900473ffffffffffffffffffffffffffffffffffffffff1681565b60175481565b60135481565b600160009054906101000a900473ffffffffffffffffffffffffffffffffffffffff1681565b60075481565b600e6020528060005260406000206000915054906101000a900460ff1681565b60055481565b600d6020528060005260406000206000915090508060000154908060010154908060020154905083565b600260005414156125ac576040517f08c379a000000000000000000000000000000000000000000000000000000000815260040180806020018281038252601f8152602001807f5265656e7472616e637947756172643a207265656e7472616e742063616c6c0081525060200191505060405180910390fd5b6002600081905550600660009054906101000a900473ffffffffffffffffffffffffffffffffffffffff1673ffffffffffffffffffffffffffffffffffffffff166323b872dd3330856040518463ffffffff1660e01b8152600401808473ffffffffffffffffffffffffffffffffffffffff1673ffffffffffffffffffffffffffffffffffffffff1681526020018373ffffffffffffffffffffffffffffffffffffffff1673ffffffffffffffffffffffffffffffffffffffff1681526020018281526020019350505050602060405180830381600087803b15801561269157600080fd5b505af11580156126a5573d6000803e3d6000fd5b505050506040513d60208110156126bb57600080fd5b8101908080519060200190929190505050507fb7dbff96891782d962607d023b4273634da23cbf026a06aeffac260cd497a88b338484604051808473ffffffffffffffffffffffffffffffffffffffff1673ffffffffffffffffffffffffffffffffffffffff168152602001838152602001828152602001935050505060405180910390a16000600b54905060008390506000600b541180156127605750600b548511155b15612c68575b6000811180156127765750848210155b8015612783575060008214155b15612c67576000600190506000600960008581526020019081526020016000206001015490505b600a600085815260200190815260200160002060009054906101000a900460ff1660ff168260ff16111580156127e05750600083115b15612c5d576008600085815260200190815260200160002060008360ff1660ff168152602001908152602001600020600101548310612bb957600a600085815260200190815260200160002060009054906101000a900460ff1660ff168260ff1614156128a357600081111561286d57600060096000838152602001908152602001600020600001819055505b6009600085815260200190815260200160002060008082016000905560018201600090556002820160009055505080600b819055505b6008600085815260200190815260200160002060008360ff1660ff1681526020019081526020016000206001015483039250600660009054906101000a900473ffffffffffffffffffffffffffffffffffffffff1673ffffffffffffffffffffffffffffffffffffffff1663a9059cbb6008600087815260200190815260200160002060008560ff1660ff16815260200190815260200160002060000160009054906101000a900473ffffffffffffffffffffffffffffffffffffffff166008600088815260200190815260200160002060008660ff1660ff168152602001908152602001600020600101546040518363ffffffff1660e01b8152600401808373ffffffffffffffffffffffffffffffffffffffff1673ffffffffffffffffffffffffffffffffffffffff16815260200182815260200192505050602060405180830381600087803b1580156129f857600080fd5b505af1158015612a0c573d6000803e3d6000fd5b505050506040513d6020811015612a2257600080fd5b8101908080519060200190929190505050506008600085815260200190815260200160002060008360ff1660ff168152602001908152602001600020600080820160006101000a81549073ffffffffffffffffffffffffffffffffffffffff0219169055600182016000905550506001600a600086815260200190815260200160002060008282829054906101000a900460ff160392506101000a81548160ff021916908360ff160217905550600460009054906101000a900473ffffffffffffffffffffffffffffffffffffffff1673ffffffffffffffffffffffffffffffffffffffff1663a9059cbb33866040518363ffffffff1660e01b8152600401808373ffffffffffffffffffffffffffffffffffffffff1673ffffffffffffffffffffffffffffffffffffffff16815260200182815260200192505050602060405180830381600087803b158015612b7857600080fd5b505af1158015612b8c573d6000803e3d6000fd5b505050506040513d6020811015612ba257600080fd5b810190808051906020019092919050505050612c52565b826009600086815260200190815260200160002060020154036009600086815260200190815260200160002060020181905550826008600086815260200190815260200160002060008460ff1660ff16815260200190815260200160002060010154036008600086815260200190815260200160002060008460ff1660ff16815260200190815260200160002060010181905550600092505b6001820191506127aa565b8093505050612766565b5b6000811115612c7c57612c7b85826130fa565b5b50506001600081905550505050565b600080600a423342604051602001808481526020018373ffffffffffffffffffffffffffffffffffffffff1673ffffffffffffffffffffffffffffffffffffffff1660601b815260140182815260200193505050506040516020818303038152906040528051906020012060001c81612d0057fe5b069050605a810190508091505090565b600082821115612d88576040517f08c379a000000000000000000000000000000000000000000000000000000000815260040180806020018281038252601e8152602001807f536166654d6174683a207375627472616374696f6e206f766572666c6f77000081525060200191505060405180910390fd5b818303905092915050565b60008211612dec576040517f08c379a00000000000000000000000000000000000000000000000000000000081526004018080602001828103825260268152602001806134c26026913960400191505060405180910390fd5b6001600a600084815260200190815260200160002060008282829054906101000a900460ff160192506101000a81548160ff021916908360ff16021790555060405180604001604052803373ffffffffffffffffffffffffffffffffffffffff16815260200182815250600860008481526020019081526020016000206000600a600086815260200190815260200160002060009054906101000a900460ff1660ff1660ff16815260200190815260200160002060008201518160000160006101000a81548173ffffffffffffffffffffffffffffffffffffffff021916908373ffffffffffffffffffffffffffffffffffffffff160217905550602082015181600101559050508060096000848152602001908152602001600020600201540160096000848152602001908152602001600020600201819055507f81016ab66655ba3ad044b708d3e812b7d8d777633f2883d4bdbd346e8878edac338383604051808473ffffffffffffffffffffffffffffffffffffffff1673ffffffffffffffffffffffffffffffffffffffff168152602001838152602001828152602001935050505060405180910390a16000600b541415612fb15781600b819055506130f6565b600b54821115613001578160096000600b54815260200190815260200160002060000181905550600b54600960008481526020019081526020016000206001018190555081600b819055506130f6565b600b54821415613010576130f6565b6000600b5490505b80831161303d5760096000828152602001908152602001600020600101549050613018565b60096000828152602001908152602001600020600001548310156130f45760096000828152602001908152602001600020600001546009600085815260200190815260200160002060000181905550806009600085815260200190815260200160002060010181905550826009600060096000858152602001908152602001600020600001548152602001908152602001600020600101819055508260096000838152602001908152602001600020600001819055505b505b5050565b60008211613153576040517f08c379a00000000000000000000000000000000000000000000000000000000081526004018080602001828103825260268152602001806134c26026913960400191505060405180910390fd5b6001600e600084815260200190815260200160002060008282829054906101000a900460ff160192506101000a81548160ff021916908360ff16021790555060405180604001604052803373ffffffffffffffffffffffffffffffffffffffff16815260200182815250600c60008481526020019081526020016000206000600e600086815260200190815260200160002060009054906101000a900460ff1660ff1660ff16815260200190815260200160002060008201518160000160006101000a81548173ffffffffffffffffffffffffffffffffffffffff021916908373ffffffffffffffffffffffffffffffffffffffff1602179055506020820151816001015590505080600d6000848152602001908152602001600020600201600082825401925050819055507f081eb72a4c7e8ff00d118fa2f8d69a19b4f33a4cfd9b77f39a92a67322c9322e338383604051808473ffffffffffffffffffffffffffffffffffffffff1673ffffffffffffffffffffffffffffffffffffffff168152602001838152602001828152602001935050505060405180910390a16000600f5414156133095781600f819055506134bd565b600f548210156133595781600d6000600f54815260200190815260200160002060010181905550600f54600d60008481526020019081526020016000206000018190555081600f819055506134bd565b600f54821415613368576134bd565b6000600f5490505b80831015801561339757506000600d60008381526020019081526020016000206000015414155b156133ba57600d6000828152602001908152602001600020600001549050613370565b828110156133f95780600d60008581526020019081526020016000206001018190555082600d6000838152602001908152602001600020600001819055505b828111801561341d5750600d60008281526020019081526020016000206001015483115b156134bb57600d600082815260200190815260200160002060010154600d60008581526020019081526020016000206001018190555080600d60008581526020019081526020016000206000018190555082600d6000600d60008581526020019081526020016000206001015481526020019081526020016000206000018190555082600d6000838152602001908152602001600020600101819055505b505b505056fe43616e206e6f7420706c616365206f72646572207769746820707269636520657175616c2030a2646970667358221220601c17d44b43cdd6864e457a33c128978236dc0180a981740368582ad2882bd464736f6c63430006080033",
  "immutableReferences": {},
  "source": "pragma solidity >=0.6.8;\n\nimport \"./CoolToken.sol\";\nimport \"./SecondToken.sol\";\nimport {IOrderBook} from \"./interfaces/IOrderBook.sol\";\nimport {ReentrancyGuard} from \"@openzeppelin/contracts/utils/ReentrancyGuard.sol\";\nimport {SafeMath} from \"@openzeppelin/contracts/math/SafeMath.sol\";\nimport {Math} from \"@openzeppelin/contracts/math/Math.sol\";\nimport {SafeERC20} from \"@openzeppelin/contracts/token/ERC20/SafeERC20.sol\";\nimport {IERC20} from \"@openzeppelin/contracts/token/ERC20/IERC20.sol\";\n\ncontract EthSwap is IOrderBook, ReentrancyGuard {\n    using SafeMath for uint256;\n    using SafeMath for uint8;\n    using Math for uint256;\n    using SafeERC20 for IERC20;\n    IERC20 public tradeToken;\n    IERC20 public baseToken;\n\n    string public name = \"EthSwap Instant Exchange\";\n    CoolToken public coolToken;\n    uint256 public coolRate = 1000;\n    SecondToken public secondToken;\n    uint256 public secondRate = 1000;\n\n    ///////////////////////////\n    //mapping is a hashtable\n    mapping(uint256 => mapping(uint8 => Order)) public buyOrdersInStep;\n    mapping(uint256 => Step) public buySteps;\n    mapping(uint256 => uint8) public buyOrdersInStepCounter;\n    uint256 public maxBuyPrice;\n\n    mapping(uint256 => mapping(uint8 => Order)) public sellOrdersInStep;\n    mapping(uint256 => Step) public sellSteps;\n    mapping(uint256 => uint8) public sellOrdersInStepCounter;\n    uint256 public minSellPrice;\n    ////////////////////////////\n\n    uint256 public buyCounter = 0;\n    uint256 public minSellRate;\n    mapping(uint256=> NewOrder) public newBuyOrderBook;\n    uint256 public idOfBuyRate;\n\n    uint256 public sellCounter = 0;\n    mapping(uint256=> NewOrder) public newSellOrderBook;\n    uint256 public idOfSellRate;\n    uint256 public maxBuyRate;\n    uint256 public selltx = 0;\n    //////////////\n    event TokensPurchased(\n        address account,\n        address token,\n        uint256 amount,\n        uint256 rate\n    );\n\n    event SecondTokensPurchased(\n        address account,\n        address token,\n        uint256 amount,\n        uint256 rate\n    );\n\n    event TokensSold(\n        address account,\n        address token,\n        uint256 amount,\n        uint256 rate\n    );\n\n    event SecondTokensSold(\n        address account,\n        address token,\n        uint256 amount,\n        uint256 rate\n    );\n\n    constructor(CoolToken _coolToken, SecondToken _secondToken) public {\n        //pass the address of the Token in\n        coolToken = _coolToken;\n        secondToken = _secondToken;\n    }\n\n    function random() internal returns (uint256) {\n        uint256 randomnumber = uint256(\n            keccak256(\n                abi.encodePacked(block.timestamp, msg.sender, block.timestamp)\n            )\n        ) % 10;\n        randomnumber = randomnumber + 90;\n        return randomnumber;\n    }\n\n    function buyCoolTokens() public payable {\n        // Calculate the number of tokens to buy\n        uint256 tokenAmount = msg.value * coolRate; //msg.value = how much ether was sent\n\n        // Require that EthSwap has enough tokens\n        require(coolToken.balanceOf(address(this)) >= tokenAmount);\n\n        // Transfer tokens to the user\n        coolToken.transfer(msg.sender, tokenAmount);\n\n        // Emit an event\n        emit TokensPurchased(\n            msg.sender,\n            address(coolToken),\n            tokenAmount,\n            coolRate\n        );\n    }\n\n    function limitBuyCoolTokens(uint256 _rate) public payable {\n        uint256 testrate = random();\n\n        require(testrate >= _rate, \"fail\");\n        // Calculate the number of tokens to buy\n        uint256 tokenAmount = msg.value * testrate; //msg.value = how much ether was sent\n\n        // Require that EthSwap has enough tokens\n        require(coolToken.balanceOf(address(this)) >= tokenAmount);\n\n        // Transfer tokens to the user\n        coolToken.transfer(msg.sender, tokenAmount);\n\n        // Emit an event\n        emit TokensPurchased(\n            msg.sender,\n            address(coolToken),\n            tokenAmount,\n            testrate\n        );\n    }\n\n    function sellCoolTokens(uint256 _amount) public {\n        // User can't sell more tokens than they have\n        require(coolToken.balanceOf(msg.sender) >= _amount);\n\n        // Calculate the amount of Ether to redeem\n        uint256 etherAmount = _amount / coolRate;\n\n        // Require that EthSwap has enough Ether\n        require(address(this).balance >= etherAmount);\n\n        // Perform sale\n        coolToken.transferFrom(msg.sender, address(this), _amount);\n        msg.sender.transfer(etherAmount);\n\n        // Emit an event\n        emit TokensSold(msg.sender, address(coolToken), _amount, coolRate);\n    }\n\n    // function limitSellCoolTokens(uint256 _amount, uint256 _rate) public {\n    //     uint256 testrate = random();\n\n    //     require(testrate <= _rate, \"fail\");\n    //     // User can't sell more tokens than they have\n    //     require(coolToken.balanceOf(msg.sender) >= _amount);\n\n    //     // // Calculate the amount of Ether to redeem\n    //     uint256 etherAmount = _amount / testrate;\n\n    //     // Require that EthSwap has enough Ether\n    //     require(address(this).balance >= etherAmount);\n\n    //     // Perform sale\n    //     coolToken.transferFrom(msg.sender, address(this), _amount);\n    //     msg.sender.transfer(etherAmount);\n\n    //     // // Emit an event\n    //     emit TokensSold(msg.sender, address(coolToken), _amount, coolRate);\n    // }\n\n    // function buySecondTokensFromCool(uint256 _coolAmount) public {\n    //     // Check if there is sufficient cool token in buyer acc\n    //     require(coolToken.balanceOf(msg.sender) >= _coolAmount);\n    //     // Calculate the amount of cool token to redeem\n    //     uint256 secondAmount = _coolAmount * secondRate;\n    //     // Check that there is enough seocond Token in ethSwap\n    //     require(secondToken.balanceOf(address(this)) >= secondAmount);\n\n    //     // Perform sale (this 2 method might be the problem)\n    //     // secondToken.transferFrom(address(this), msg.sender, secondAmount);\n    //     secondToken.transfer(msg.sender, secondAmount);\n    //     coolToken.transferFrom(msg.sender, address(this), _coolAmount);\n    //     // Emit an event\n    //     emit SecondTokensPurchased(\n    //         msg.sender,\n    //         address(secondToken),\n    //         secondAmount,\n    //         secondRate\n    //     );\n    // }\n\n    // function limitBuySecondTokens(uint256 _coolAmount, uint256 _secondRate)\n    //     public\n    // {\n    //     uint256 testrate = random();\n    //     require(testrate >= _secondRate, \"fail\");\n    //     // Check if there is sufficient cool token in buyer acc\n    //     require(coolToken.balanceOf(msg.sender) >= _coolAmount);\n    //     // Calculate the amount of cool token to redeem\n    //     uint256 secondAmount = _coolAmount * testrate;\n    //     // Check that there is enough seocond Token in ethSwap\n    //     require(secondToken.balanceOf(address(this)) >= secondAmount);\n\n    //     // Perform sale (this 2 method might be the problem)\n    //     // secondToken.transferFrom(address(this), msg.sender, secondAmount);\n    //     secondToken.transfer(msg.sender, secondAmount);\n    //     coolToken.transferFrom(msg.sender, address(this), _coolAmount);\n    //     // Emit an event\n    //     emit SecondTokensPurchased(\n    //         msg.sender,\n    //         address(secondToken),\n    //         secondAmount,\n    //         testrate\n    //     );\n    // }\n\n    // function sellSecondTokensFromCool(uint256 _secondAmount) public {\n    //     // Calculate the amount of cool token to redeem\n    //     uint256 coolAmount = _secondAmount / secondRate;\n\n    //     // Check that there is enough cool Token in ethSwap\n    //     require(coolToken.balanceOf(address(this)) >= coolAmount);\n\n    //     // Check if there is sufficient second token in buyer acc\n    //     require(secondToken.balanceOf(msg.sender) >= _secondAmount);\n\n    //     // Perform sale\n    //     secondToken.transferFrom(msg.sender, address(this), _secondAmount);\n    //     coolToken.transfer(msg.sender, coolAmount);\n\n    //     // Emit an event\n    //     emit SecondTokensSold(\n    //         msg.sender,\n    //         address(secondToken),\n    //         _secondAmount,\n    //         secondRate\n    //     );\n    // }\n\n    // function limitSellSecondTokens(uint256 _secondAmount, uint256 _secondRate)\n    //     public\n    // {\n    //     uint256 testrate = random();\n    //     require(testrate <= _secondRate, \"fail\");\n    //     // Calculate the amount of cool token to redeem\n    //     uint256 coolAmount = _secondAmount / testrate;\n\n    //     // Check that there is enough cool Token in ethSwap\n    //     require(coolToken.balanceOf(address(this)) >= coolAmount);\n\n    //     // Check if there is sufficient second token in buyer acc\n    //     require(secondToken.balanceOf(msg.sender) >= _secondAmount);\n\n    //     // Perform sale\n    //     secondToken.transferFrom(msg.sender, address(this), _secondAmount);\n    //     coolToken.transfer(msg.sender, coolAmount);\n\n    //     // Emit an event\n    //     emit SecondTokensSold(\n    //         msg.sender,\n    //         address(secondToken),\n    //         _secondAmount,\n    //         testrate\n    //     );\n    // }\n\n    function buySecondTokens() public payable {\n        // Calculate the number of tokens to buy\n        uint256 tokenAmount = msg.value * secondRate; //msg.value = how much ether was sent\n\n        // Require that EthSwap has enough tokens\n        require(secondToken.balanceOf(address(this)) >= tokenAmount);\n\n        // Transfer tokens to the user\n        secondToken.transfer(msg.sender, tokenAmount);\n\n        // Emit an event\n        emit TokensPurchased(\n            msg.sender,\n            address(secondToken),\n            tokenAmount,\n            secondRate\n        );\n    }\n\n    function sellSecondTokens(uint256 _amount) public {\n        // User can't sell more tokens than they have\n        require(secondToken.balanceOf(msg.sender) >= _amount);\n\n        // Calculate the amount of Ether to redeem\n        uint256 etherAmount = _amount / secondRate;\n\n        // Require that EthSwap has enough Ether\n        require(address(this).balance >= etherAmount);\n\n        // Perform sale\n        secondToken.transferFrom(msg.sender, address(this), _amount);\n        msg.sender.transfer(etherAmount);\n\n        // Emit an event\n        emit TokensSold(msg.sender, address(secondToken), _amount, secondRate);\n    }\n\n    ///////////////////////////////////////////////////////////////////////// ORDERBOOK //////////////////////////////////////////////////////////////////////////////////////////\n    // price = number of second u want\n    // amount of baseToken = coolToken\n    // buying second using cool\n    // function newplaceBuyOrder(uint256 amountOfBuyToken, uint256 amountOfSellToken, uint256 amount) external override nonReentrant{\n    //     require(coolToken.balanceOf(msg.sender) >= amountOfSellToken);\n    //     coolToken.transferFrom(msg.sender, address(this), amountOfSellToken);\n    //     emit PlaceBuyOrder(msg.sender, amountOfBuyToken, amountOfSellToken);\n\n    //     uint256 rate = amount/amountOfBuyToken;\n    //     uint256 sellRate = minSellRate;\n    //     uint256 amountSold = amount;\n        // if (rate >= minSellRate && minSellRate > 0){\n        //     //give best order\n        //     if (newSellOrderBook[idOfSellRate].amount > amount){\n        //         uint256 newAmount = newSellOrderBook[idOfSellRate].amount - amount;\n        //         newSellOrderBook[idOfSellRate].amount = newAmount; //replace old amount with new\n        //         // transfer \n        //         coolToken.transfer(newSellOrderBook[idOfSellRate].maker, amount);\n        //         secondToken.transfer(msg.sender, amount);\n        //     }\n\n        //     if (newSellOrderBook[idOfSellRate].amount == amount){\n        //         // transfer \n        //         coolToken.transfer(newSellOrderBook[idOfSellRate].maker, amount);\n        //         secondToken.transfer(msg.sender, amount);\n        //         // update the minSellRate\n        //         delete newSellOrderBook[idOfSellRate];\n\n        //         uint8 i = 0;\n        //         uint256 nextPrice = 0;\n        //         minSellRate = \n        //         while(i < selltx){\n        //             if(newSellOrderBook[i].rate<)\n        //         }\n\n\n        //     }\n        //     if (newSellOrderBook[idOfSellRate].amount < amount){\n        //         coolToken.transfer(newSellOrderBook[idOfSellRate].maker, newSellOrderBook[idOfSellRate].amount);\n        //         secondToken.transfer(msg.sender, amount);\n        //     }\n\n\n\n\n    //     }\n    //     if (amountSold > 0){\n    //         _addToBuyBook(rate, amountSold);\n    //     }\n    // }\n\n\n    // function maxNumber(uint256 a, uint256 b) internal pure returns (uint256) {\n    //     return a >= b ? a : b;\n    // }\n    // function minNumber(uint256 a, uint256 b) internal pure returns (uint256) {\n    //     return a <= b ? a : b;\n    // }\n\n    // function _addToBuyBook(uint256 rate, uint256 amountSold) internal{\n    //     require(rate > 0);\n    //     buyCounter += 1;\n    //     maxBuyRate = maxNumber(maxBuyRate, rate);\n    //     if (maxBuyRate == rate){\n    //         idOfBuyRate = buyCounter;\n    //     }\n\n    //     newBuyOrderBook[buyCounter] = NewOrder(msg.sender, amountSold, rate);\n    //     selltx += 1;\n\n    //     emit DrawToBuyBook(msg.sender, rate, amountSold);\n\n\n    // }\n\n    // function newplaceSellOrder(uint256 amountOfBuyToken, uint256 amountOfSellToken, uint256 amount) external override nonReentrant{\n    //     require(secondToken.balanceOf(msg.sender) >= amountOfSellToken);\n    //     secondToken.transferFrom(msg.sender, address(this), amountOfSellToken);\n    //     emit PlaceSellOrder(msg.sender, amountOfBuyToken, amountOfSellToken);\n\n    //     uint256 rate = amount/amountOfBuyToken;\n    //     rate = 1/rate;\n    //     uint256 sellRate = minSellRate;\n    //     uint256 amountSold = amount;\n    //     if (rate <= maxBuyRate && maxBuyRate>0){\n            \n    //         if (newSellOrderBook[idOfSellRate].amount > amount){\n    //             uint256 newAmount = newSellOrderBook[idOfSellRate].amount - amount;\n    //             newSellOrderBook[idOfSellRate].amount = newAmount; //replace old amount with new\n    //             // transfer \n    //             coolToken.transfer(newSellOrderBook[idOfSellRate].maker, amount);\n    //             secondToken.transfer(msg.sender, amount);\n    //         }\n\n    //         if (newSellOrderBook[idOfSellRate].amount == amount){\n    //             // transfer \n    //             coolToken.transfer(newSellOrderBook[idOfSellRate].maker, amount);\n    //             secondToken.transfer(msg.sender, amount);\n    //             // update the minSellRate\n    //             delete newSellOrderBook[idOfSellRate];\n\n    //             uint8 i = 0;\n    //             uint256 nextPrice = 0;\n    //             // minSellRate = \n    //             // while(i < selltx){\n    //             //     if(newSellOrderBook[i].rate<)\n    //             // }\n\n\n    //         }\n    //         if (newSellOrderBook[idOfSellRate].amount < amount){\n    //             coolToken.transfer(newSellOrderBook[idOfSellRate].maker, newSellOrderBook[idOfSellRate].amount);\n    //             secondToken.transfer(msg.sender, amount);\n    //         }\n    //     }\n    //     if (amountSold > 0){\n    //         _addToSellBook(rate, amountSold);\n    //     }\n    // }\n\n    // function _addToSellBook(uint256 rate, uint256 amountSold) internal{\n    //     require(rate > 0);\n    //     sellCounter += 1;\n    //     minSellRate = minNumber(minSellRate, rate);\n    //     if (minSellRate == rate){\n    //         idOfSellRate = sellCounter;\n    //     }\n\n    //     newSellOrderBook[sellCounter] = NewOrder(msg.sender, amountSold, rate);\n    //     emit DrawToSellBook(msg.sender, rate, amountSold);\n\n\n    // }\n\n\n\n\n    function placeBuyOrder(\n        uint256 price,\n        uint256 amountOfBaseToken,\n        uint256 amount\n    ) external override nonReentrant {\n        require(coolToken.balanceOf(msg.sender) >= amountOfBaseToken);\n\n        coolToken.transferFrom(msg.sender, address(this), amountOfBaseToken);\n        emit PlaceBuyOrder(msg.sender, price, amountOfBaseToken);\n\n        /**\n         * @notice if has order in sell book, and price >= min sell price\n         */\n        //minSellPrice\n        //\n        uint256 sellPricePointer = minSellPrice;\n        uint256 amountReflect = amountOfBaseToken;\n        if (minSellPrice > 0 && price >= minSellPrice) {\n            while (\n                amountReflect > 0 &&\n                sellPricePointer <= price &&\n                sellPricePointer != 0\n            ) {\n                uint8 i = 1;\n                uint256 higherPrice = sellSteps[sellPricePointer].higherPrice;\n                while (\n                    i <= sellOrdersInStepCounter[sellPricePointer] &&\n                    amountReflect > 0\n                ) {\n                    if (\n                        amountReflect >=\n                        sellOrdersInStep[sellPricePointer][i].amount\n                    ) {\n                        //if the last order has been matched, delete the step\n                        if (i == sellOrdersInStepCounter[sellPricePointer]) {\n                            if (higherPrice > 0)\n                                sellSteps[higherPrice].lowerPrice = 0;\n                            delete sellSteps[sellPricePointer];\n                            minSellPrice = higherPrice;\n                        }\n\n                        amountReflect = amountReflect.sub(\n                            sellOrdersInStep[sellPricePointer][i].amount\n                        );\n                        //send before delete order\n\n                        coolToken.transfer(\n                            sellOrdersInStep[sellPricePointer][i].maker,\n                            sellOrdersInStep[sellPricePointer][i].amount\n                        );\n                        // delete order from storage\n                        delete sellOrdersInStep[sellPricePointer][i];\n                        sellOrdersInStepCounter[sellPricePointer] -= 1;\n                        ///////////////////////////////\n                        secondToken.transfer(msg.sender, sellPricePointer);\n\n                        //token.transferFrom(ethswap to other party)\n                    } else {\n                        sellSteps[sellPricePointer].amount = sellSteps[\n                            sellPricePointer\n                        ].amount.sub(amountReflect);\n                        sellOrdersInStep[sellPricePointer][i]\n                            .amount = sellOrdersInStep[sellPricePointer][i]\n                            .amount\n                            .sub(amountReflect);\n                        amountReflect = 0;\n                    }\n                    i += 1;\n                }\n                sellPricePointer = higherPrice;\n            }\n        }\n        /**\n         * @notice draw to buy book the rest\n         */\n        if (amountReflect > 0) {\n            _drawToBuyBook(price, amountReflect);\n        }\n    }\n\n    /**\n     * @notice Place buy order.\n     */\n    function placeSellOrder(\n        uint256 price,\n        uint256 amountOfTradeToken,\n        uint256 amount\n    ) external override nonReentrant {\n        secondToken.transferFrom(msg.sender, address(this), amountOfTradeToken);\n        emit PlaceSellOrder(msg.sender, price, amountOfTradeToken);\n\n        /**\n         * @notice if has order in buy book, and price <= max buy price\n         */\n        uint256 buyPricePointer = maxBuyPrice;\n        uint256 amountReflect = amountOfTradeToken;\n        if (maxBuyPrice > 0 && price <= maxBuyPrice) {\n            while (\n                amountReflect > 0 &&\n                buyPricePointer >= price &&\n                buyPricePointer != 0\n            ) {\n                uint8 i = 1;\n                uint256 lowerPrice = buySteps[buyPricePointer].lowerPrice;\n                while (\n                    i <= buyOrdersInStepCounter[buyPricePointer] &&\n                    amountReflect > 0\n                ) {\n                    if (\n                        amountReflect >=\n                        buyOrdersInStep[buyPricePointer][i].amount\n                    ) {\n                        //if the last order has been matched, delete the step\n                        if (i == buyOrdersInStepCounter[buyPricePointer]) {\n                            if (lowerPrice > 0)\n                                buySteps[lowerPrice].higherPrice = 0;\n                            delete buySteps[buyPricePointer];\n                            maxBuyPrice = lowerPrice;\n                        }\n\n                        amountReflect =\n                            amountReflect -\n                            (buyOrdersInStep[buyPricePointer][i].amount);\n                        //send before delete order\n                        secondToken.transfer(\n                            buyOrdersInStep[buyPricePointer][i].maker,\n                            buyOrdersInStep[buyPricePointer][i].amount\n                        );\n                        // delete order from storage\n\n                        delete buyOrdersInStep[buyPricePointer][i];\n                        buyOrdersInStepCounter[buyPricePointer] -= 1;\n\n                        ///////\n                        coolToken.transfer(msg.sender, buyPricePointer);\n                    } else {\n                        buySteps[buyPricePointer].amount =\n                            buySteps[buyPricePointer].amount -\n                            (amountReflect);\n                        buyOrdersInStep[buyPricePointer][i].amount =\n                            buyOrdersInStep[buyPricePointer][i].amount -\n                            (amountReflect);\n                        amountReflect = 0;\n                    }\n                    i += 1;\n                }\n                buyPricePointer = lowerPrice;\n            }\n        }\n        /**\n         * @notice draw to buy book the rest\n         */\n        if (amountReflect > 0) {\n            _drawToSellBook(price, amountReflect);\n        }\n    }\n\n    /**\n     * @notice draw buy order.\n     */\n    function _drawToBuyBook(uint256 price, uint256 amount) internal {\n        require(price > 0, \"Can not place order with price equal 0\");\n\n        buyOrdersInStepCounter[price] += 1;\n        // order creation here\n        buyOrdersInStep[price][buyOrdersInStepCounter[price]] = Order(\n            msg.sender,\n            amount\n        );\n        buySteps[price].amount = buySteps[price].amount + (amount);\n        emit DrawToBuyBook(msg.sender, price, amount);\n\n        if (maxBuyPrice == 0) {\n            maxBuyPrice = price;\n            return;\n        }\n\n        if (price > maxBuyPrice) {\n            buySteps[maxBuyPrice].higherPrice = price;\n            buySteps[price].lowerPrice = maxBuyPrice;\n            maxBuyPrice = price;\n            return;\n        }\n\n        if (price == maxBuyPrice) {\n            return;\n        }\n\n        uint256 buyPricePointer = maxBuyPrice;\n        while (price <= buyPricePointer) {\n            buyPricePointer = buySteps[buyPricePointer].lowerPrice;\n        }\n\n        if (price < buySteps[buyPricePointer].higherPrice) {\n            buySteps[price].higherPrice = buySteps[buyPricePointer].higherPrice;\n            buySteps[price].lowerPrice = buyPricePointer;\n\n            buySteps[buySteps[buyPricePointer].higherPrice].lowerPrice = price;\n            buySteps[buyPricePointer].higherPrice = price;\n        }\n    }\n\n    /**\n     * @notice draw sell order.\n     */\n    function _drawToSellBook(uint256 price, uint256 amount) internal {\n        require(price > 0, \"Can not place order with price equal 0\");\n\n        sellOrdersInStepCounter[price] += 1;\n        sellOrdersInStep[price][sellOrdersInStepCounter[price]] = Order(\n            msg.sender,\n            amount\n        );\n        sellSteps[price].amount += amount;\n        emit DrawToSellBook(msg.sender, price, amount);\n\n        if (minSellPrice == 0) {\n            minSellPrice = price;\n            return;\n        }\n\n        if (price < minSellPrice) {\n            sellSteps[minSellPrice].lowerPrice = price;\n            sellSteps[price].higherPrice = minSellPrice;\n            minSellPrice = price;\n            return;\n        }\n\n        if (price == minSellPrice) {\n            return;\n        }\n\n        uint256 sellPricePointer = minSellPrice;\n        while (\n            price >= sellPricePointer &&\n            sellSteps[sellPricePointer].higherPrice != 0\n        ) {\n            sellPricePointer = sellSteps[sellPricePointer].higherPrice;\n        }\n\n        if (sellPricePointer < price) {\n            sellSteps[price].lowerPrice = sellPricePointer;\n            sellSteps[sellPricePointer].higherPrice = price;\n        }\n\n        if (\n            sellPricePointer > price &&\n            price > sellSteps[sellPricePointer].lowerPrice\n        ) {\n            sellSteps[price].lowerPrice = sellSteps[sellPricePointer]\n                .lowerPrice;\n            sellSteps[price].higherPrice = sellPricePointer;\n\n            sellSteps[sellSteps[sellPricePointer].lowerPrice]\n                .higherPrice = price;\n            sellSteps[sellPricePointer].lowerPrice = price;\n        }\n    }\n}\n",
  "sourcePath": "/Users/yiheng/Documents/NTU/Y4S2/CZ4153 Blockchain/crypto_exchange/Blockchain-DEX/src/contracts/EthSwap.sol",
  "compiler": {
    "name": "solc",
    "version": "0.6.8+commit.0bbfe453.Emscripten.clang"
  },
  "schemaVersion": "3.4.10",
  "updatedAt": "2022-11-03T13:25:19.052Z",
  "devdoc": {
    "methods": {}
  },
  "userdoc": {
    "methods": {
      "placeBuyOrder(uint256,uint256,uint256)": {
        "notice": "////////////////////////////////////////////////////////////////////// ORDERBOOK //////////////////////////////////////////////////////////////////////////////////////////"
      },
      "placeSellOrder(uint256,uint256,uint256)": {
        "notice": "Place buy order."
      }
    }
  }
}