{
  "contractName": "EthSwap",
  "abi": [
    {
      "inputs": [
        {
          "internalType": "contract CoolToken",
          "name": "_coolToken",
          "type": "address"
        },
        {
          "internalType": "contract SecondToken",
          "name": "_secondToken",
          "type": "address"
        }
      ],
      "payable": false,
      "stateMutability": "nonpayable",
      "type": "constructor"
    },
    {
      "anonymous": false,
      "inputs": [
        {
          "indexed": false,
          "internalType": "address",
          "name": "account",
          "type": "address"
        },
        {
          "indexed": false,
          "internalType": "address",
          "name": "token",
          "type": "address"
        },
        {
          "indexed": false,
          "internalType": "uint256",
          "name": "amount",
          "type": "uint256"
        },
        {
          "indexed": false,
          "internalType": "uint256",
          "name": "rate",
          "type": "uint256"
        }
      ],
      "name": "SecondTokensPurchased",
      "type": "event"
    },
    {
      "anonymous": false,
      "inputs": [
        {
          "indexed": false,
          "internalType": "address",
          "name": "account",
          "type": "address"
        },
        {
          "indexed": false,
          "internalType": "address",
          "name": "token",
          "type": "address"
        },
        {
          "indexed": false,
          "internalType": "uint256",
          "name": "amount",
          "type": "uint256"
        },
        {
          "indexed": false,
          "internalType": "uint256",
          "name": "rate",
          "type": "uint256"
        }
      ],
      "name": "SecondTokensSold",
      "type": "event"
    },
    {
      "anonymous": false,
      "inputs": [
        {
          "indexed": false,
          "internalType": "address",
          "name": "account",
          "type": "address"
        },
        {
          "indexed": false,
          "internalType": "address",
          "name": "token",
          "type": "address"
        },
        {
          "indexed": false,
          "internalType": "uint256",
          "name": "amount",
          "type": "uint256"
        },
        {
          "indexed": false,
          "internalType": "uint256",
          "name": "rate",
          "type": "uint256"
        }
      ],
      "name": "TokensPurchased",
      "type": "event"
    },
    {
      "anonymous": false,
      "inputs": [
        {
          "indexed": false,
          "internalType": "address",
          "name": "account",
          "type": "address"
        },
        {
          "indexed": false,
          "internalType": "address",
          "name": "token",
          "type": "address"
        },
        {
          "indexed": false,
          "internalType": "uint256",
          "name": "amount",
          "type": "uint256"
        },
        {
          "indexed": false,
          "internalType": "uint256",
          "name": "rate",
          "type": "uint256"
        }
      ],
      "name": "TokensSold",
      "type": "event"
    },
    {
      "constant": true,
      "inputs": [],
      "name": "coolRate",
      "outputs": [
        {
          "internalType": "uint256",
          "name": "",
          "type": "uint256"
        }
      ],
      "payable": false,
      "stateMutability": "view",
      "type": "function"
    },
    {
      "constant": true,
      "inputs": [],
      "name": "coolToken",
      "outputs": [
        {
          "internalType": "contract CoolToken",
          "name": "",
          "type": "address"
        }
      ],
      "payable": false,
      "stateMutability": "view",
      "type": "function"
    },
    {
      "constant": true,
      "inputs": [],
      "name": "name",
      "outputs": [
        {
          "internalType": "string",
          "name": "",
          "type": "string"
        }
      ],
      "payable": false,
      "stateMutability": "view",
      "type": "function"
    },
    {
      "constant": true,
      "inputs": [],
      "name": "secondRate",
      "outputs": [
        {
          "internalType": "uint256",
          "name": "",
          "type": "uint256"
        }
      ],
      "payable": false,
      "stateMutability": "view",
      "type": "function"
    },
    {
      "constant": true,
      "inputs": [],
      "name": "secondToken",
      "outputs": [
        {
          "internalType": "contract SecondToken",
          "name": "",
          "type": "address"
        }
      ],
      "payable": false,
      "stateMutability": "view",
      "type": "function"
    },
    {
      "constant": false,
      "inputs": [],
      "name": "buyCoolTokens",
      "outputs": [],
      "payable": true,
      "stateMutability": "payable",
      "type": "function"
    },
    {
      "constant": false,
      "inputs": [
        {
          "internalType": "uint256",
          "name": "_rate",
          "type": "uint256"
        }
      ],
      "name": "limitBuyCoolTokens",
      "outputs": [],
      "payable": true,
      "stateMutability": "payable",
      "type": "function"
    },
    {
      "constant": false,
      "inputs": [
        {
          "internalType": "uint256",
          "name": "_amount",
          "type": "uint256"
        }
      ],
      "name": "sellCoolTokens",
      "outputs": [],
      "payable": false,
      "stateMutability": "nonpayable",
      "type": "function"
    },
    {
      "constant": false,
      "inputs": [
        {
          "internalType": "uint256",
          "name": "_amount",
          "type": "uint256"
        },
        {
          "internalType": "uint256",
          "name": "_rate",
          "type": "uint256"
        }
      ],
      "name": "limitSellCoolTokens",
      "outputs": [],
      "payable": false,
      "stateMutability": "nonpayable",
      "type": "function"
    },
    {
      "constant": false,
      "inputs": [
        {
          "internalType": "uint256",
          "name": "_coolAmount",
          "type": "uint256"
        }
      ],
      "name": "buySecondTokens",
      "outputs": [],
      "payable": false,
      "stateMutability": "nonpayable",
      "type": "function"
    },
    {
      "constant": false,
      "inputs": [
        {
          "internalType": "uint256",
          "name": "_coolAmount",
          "type": "uint256"
        },
        {
          "internalType": "uint256",
          "name": "_secondRate",
          "type": "uint256"
        }
      ],
      "name": "limitBuySecondTokens",
      "outputs": [],
      "payable": false,
      "stateMutability": "nonpayable",
      "type": "function"
    },
    {
      "constant": false,
      "inputs": [
        {
          "internalType": "uint256",
          "name": "_secondAmount",
          "type": "uint256"
        }
      ],
      "name": "sellSecondTokens",
      "outputs": [],
      "payable": false,
      "stateMutability": "nonpayable",
      "type": "function"
    },
    {
      "constant": false,
      "inputs": [
        {
          "internalType": "uint256",
          "name": "_secondAmount",
          "type": "uint256"
        },
        {
          "internalType": "uint256",
          "name": "_secondRate",
          "type": "uint256"
        }
      ],
      "name": "limitSellSecondTokens",
      "outputs": [],
      "payable": false,
      "stateMutability": "nonpayable",
      "type": "function"
    }
  ],
  "bytecode": "0x60806040526040518060400160405280601881526020017f4574685377617020496e7374616e742045786368616e67650000000000000000815250600090805190602001906200005192919062000134565b50606460025560056004553480156200006957600080fd5b506040516200282438038062002824833981810160405260408110156200008f57600080fd5b81019080805190602001909291908051906020019092919050505081600160006101000a81548173ffffffffffffffffffffffffffffffffffffffff021916908373ffffffffffffffffffffffffffffffffffffffff16021790555080600360006101000a81548173ffffffffffffffffffffffffffffffffffffffff021916908373ffffffffffffffffffffffffffffffffffffffff1602179055505050620001e3565b828054600181600116156101000203166002900490600052602060002090601f016020900481019282601f106200017757805160ff1916838001178555620001a8565b82800160010185558215620001a8579182015b82811115620001a75782518255916020019190600101906200018a565b5b509050620001b79190620001bb565b5090565b620001e091905b80821115620001dc576000816000905550600101620001c2565b5090565b90565b61263180620001f36000396000f3fe6080604052600436106100c25760003560e01c80639001c6d81161007f578063eaf5a13011610059578063eaf5a13014610323578063efa915861461034e578063f499a74a14610389578063f50e4928146103ce576100c2565b80639001c6d8146102a9578063906ec48b146102b3578063e6a33268146102f8576100c2565b806306fdde03146100c75780633bfd49da1461015757806343e2bd02146101ae57806352d49fa9146101dc5780636caa30d9146102175780638b77bd7714610252575b600080fd5b3480156100d357600080fd5b506100dc610413565b6040518080602001828103825283818151815260200191508051906020019080838360005b8381101561011c578082015181840152602081019050610101565b50505050905090810190601f1680156101495780820380516001836020036101000a031916815260200191505b509250505060405180910390f35b34801561016357600080fd5b5061016c6104b1565b604051808273ffffffffffffffffffffffffffffffffffffffff1673ffffffffffffffffffffffffffffffffffffffff16815260200191505060405180910390f35b6101da600480360360208110156101c457600080fd5b81019080803590602001909291905050506104d7565b005b3480156101e857600080fd5b50610215600480360360208110156101ff57600080fd5b81019080803590602001909291905050506107f9565b005b34801561022357600080fd5b506102506004803603602081101561023a57600080fd5b8101908080359060200190929190505050610ca2565b005b34801561025e57600080fd5b50610267610feb565b604051808273ffffffffffffffffffffffffffffffffffffffff1673ffffffffffffffffffffffffffffffffffffffff16815260200191505060405180910390f35b6102b1611011565b005b3480156102bf57600080fd5b506102f6600480360360408110156102d657600080fd5b8101908080359060200190929190803590602001909291905050506112b3565b005b34801561030457600080fd5b5061030d6117d5565b6040518082815260200191505060405180910390f35b34801561032f57600080fd5b506103386117db565b6040518082815260200191505060405180910390f35b34801561035a57600080fd5b506103876004803603602081101561037157600080fd5b81019080803590602001909291905050506117e1565b005b34801561039557600080fd5b506103cc600480360360408110156103ac57600080fd5b810190808035906020019092919080359060200190929190505050611c83565b005b3480156103da57600080fd5b50610411600480360360408110156103f157600080fd5b81019080803590602001909291908035906020019092919050505061204e565b005b60008054600181600116156101000203166002900480601f0160208091040260200160405190810160405280929190818152602001828054600181600116156101000203166002900480156104a95780601f1061047e576101008083540402835291602001916104a9565b820191906000526020600020905b81548152906001019060200180831161048c57829003601f168201915b505050505081565b600360009054906101000a900473ffffffffffffffffffffffffffffffffffffffff1681565b60006104e1612577565b905081811015610559576040517f08c379a00000000000000000000000000000000000000000000000000000000081526004018080602001828103825260048152602001807f6661696c0000000000000000000000000000000000000000000000000000000081525060200191505060405180910390fd5b6000813402905080600160009054906101000a900473ffffffffffffffffffffffffffffffffffffffff1673ffffffffffffffffffffffffffffffffffffffff166370a08231306040518263ffffffff1660e01b8152600401808273ffffffffffffffffffffffffffffffffffffffff1673ffffffffffffffffffffffffffffffffffffffff16815260200191505060206040518083038186803b15801561060057600080fd5b505afa158015610614573d6000803e3d6000fd5b505050506040513d602081101561062a57600080fd5b8101908080519060200190929190505050101561064657600080fd5b600160009054906101000a900473ffffffffffffffffffffffffffffffffffffffff1673ffffffffffffffffffffffffffffffffffffffff1663a9059cbb33836040518363ffffffff1660e01b8152600401808373ffffffffffffffffffffffffffffffffffffffff1673ffffffffffffffffffffffffffffffffffffffff16815260200182815260200192505050602060405180830381600087803b1580156106ef57600080fd5b505af1158015610703573d6000803e3d6000fd5b505050506040513d602081101561071957600080fd5b8101908080519060200190929190505050507f6faf93231a456e552dbc9961f58d9713ee4f2e69d15f1975b050ef0911053a7b33600160009054906101000a900473ffffffffffffffffffffffffffffffffffffffff168385604051808573ffffffffffffffffffffffffffffffffffffffff1673ffffffffffffffffffffffffffffffffffffffff1681526020018473ffffffffffffffffffffffffffffffffffffffff1673ffffffffffffffffffffffffffffffffffffffff16815260200183815260200182815260200194505050505060405180910390a1505050565b6000600454828161080657fe5b04905080600160009054906101000a900473ffffffffffffffffffffffffffffffffffffffff1673ffffffffffffffffffffffffffffffffffffffff166370a08231306040518263ffffffff1660e01b8152600401808273ffffffffffffffffffffffffffffffffffffffff1673ffffffffffffffffffffffffffffffffffffffff16815260200191505060206040518083038186803b1580156108a957600080fd5b505afa1580156108bd573d6000803e3d6000fd5b505050506040513d60208110156108d357600080fd5b810190808051906020019092919050505010156108ef57600080fd5b81600360009054906101000a900473ffffffffffffffffffffffffffffffffffffffff1673ffffffffffffffffffffffffffffffffffffffff166370a08231336040518263ffffffff1660e01b8152600401808273ffffffffffffffffffffffffffffffffffffffff1673ffffffffffffffffffffffffffffffffffffffff16815260200191505060206040518083038186803b15801561098f57600080fd5b505afa1580156109a3573d6000803e3d6000fd5b505050506040513d60208110156109b957600080fd5b810190808051906020019092919050505010156109d557600080fd5b600360009054906101000a900473ffffffffffffffffffffffffffffffffffffffff1673ffffffffffffffffffffffffffffffffffffffff166323b872dd3330856040518463ffffffff1660e01b8152600401808473ffffffffffffffffffffffffffffffffffffffff1673ffffffffffffffffffffffffffffffffffffffff1681526020018373ffffffffffffffffffffffffffffffffffffffff1673ffffffffffffffffffffffffffffffffffffffff1681526020018281526020019350505050602060405180830381600087803b158015610ab257600080fd5b505af1158015610ac6573d6000803e3d6000fd5b505050506040513d6020811015610adc57600080fd5b810190808051906020019092919050505050600160009054906101000a900473ffffffffffffffffffffffffffffffffffffffff1673ffffffffffffffffffffffffffffffffffffffff1663a9059cbb33836040518363ffffffff1660e01b8152600401808373ffffffffffffffffffffffffffffffffffffffff1673ffffffffffffffffffffffffffffffffffffffff16815260200182815260200192505050602060405180830381600087803b158015610b9757600080fd5b505af1158015610bab573d6000803e3d6000fd5b505050506040513d6020811015610bc157600080fd5b8101908080519060200190929190505050507f587eb660c49126e1f0a78ee8c9700e2fa814bf2a3c1d29bb62ab66895ae49e4433600360009054906101000a900473ffffffffffffffffffffffffffffffffffffffff1684600454604051808573ffffffffffffffffffffffffffffffffffffffff1673ffffffffffffffffffffffffffffffffffffffff1681526020018473ffffffffffffffffffffffffffffffffffffffff1673ffffffffffffffffffffffffffffffffffffffff16815260200183815260200182815260200194505050505060405180910390a15050565b80600160009054906101000a900473ffffffffffffffffffffffffffffffffffffffff1673ffffffffffffffffffffffffffffffffffffffff166370a08231336040518263ffffffff1660e01b8152600401808273ffffffffffffffffffffffffffffffffffffffff1673ffffffffffffffffffffffffffffffffffffffff16815260200191505060206040518083038186803b158015610d4257600080fd5b505afa158015610d56573d6000803e3d6000fd5b505050506040513d6020811015610d6c57600080fd5b81019080805190602001909291905050501015610d8857600080fd5b60006002548281610d9557fe5b049050803073ffffffffffffffffffffffffffffffffffffffff16311015610dbc57600080fd5b600160009054906101000a900473ffffffffffffffffffffffffffffffffffffffff1673ffffffffffffffffffffffffffffffffffffffff166323b872dd3330856040518463ffffffff1660e01b8152600401808473ffffffffffffffffffffffffffffffffffffffff1673ffffffffffffffffffffffffffffffffffffffff1681526020018373ffffffffffffffffffffffffffffffffffffffff1673ffffffffffffffffffffffffffffffffffffffff1681526020018281526020019350505050602060405180830381600087803b158015610e9957600080fd5b505af1158015610ead573d6000803e3d6000fd5b505050506040513d6020811015610ec357600080fd5b8101908080519060200190929190505050503373ffffffffffffffffffffffffffffffffffffffff166108fc829081150290604051600060405180830381858888f19350505050158015610f1b573d6000803e3d6000fd5b507f697c42d55a5e1fed3f464ec6f38b32546a0bd368dc8068b065c67566d73f329033600160009054906101000a900473ffffffffffffffffffffffffffffffffffffffff1684600254604051808573ffffffffffffffffffffffffffffffffffffffff1673ffffffffffffffffffffffffffffffffffffffff1681526020018473ffffffffffffffffffffffffffffffffffffffff1673ffffffffffffffffffffffffffffffffffffffff16815260200183815260200182815260200194505050505060405180910390a15050565b600160009054906101000a900473ffffffffffffffffffffffffffffffffffffffff1681565b60006002543402905080600160009054906101000a900473ffffffffffffffffffffffffffffffffffffffff1673ffffffffffffffffffffffffffffffffffffffff166370a08231306040518263ffffffff1660e01b8152600401808273ffffffffffffffffffffffffffffffffffffffff1673ffffffffffffffffffffffffffffffffffffffff16815260200191505060206040518083038186803b1580156110ba57600080fd5b505afa1580156110ce573d6000803e3d6000fd5b505050506040513d60208110156110e457600080fd5b8101908080519060200190929190505050101561110057600080fd5b600160009054906101000a900473ffffffffffffffffffffffffffffffffffffffff1673ffffffffffffffffffffffffffffffffffffffff1663a9059cbb33836040518363ffffffff1660e01b8152600401808373ffffffffffffffffffffffffffffffffffffffff1673ffffffffffffffffffffffffffffffffffffffff16815260200182815260200192505050602060405180830381600087803b1580156111a957600080fd5b505af11580156111bd573d6000803e3d6000fd5b505050506040513d60208110156111d357600080fd5b8101908080519060200190929190505050507f6faf93231a456e552dbc9961f58d9713ee4f2e69d15f1975b050ef0911053a7b33600160009054906101000a900473ffffffffffffffffffffffffffffffffffffffff1683600254604051808573ffffffffffffffffffffffffffffffffffffffff1673ffffffffffffffffffffffffffffffffffffffff1681526020018473ffffffffffffffffffffffffffffffffffffffff1673ffffffffffffffffffffffffffffffffffffffff16815260200183815260200182815260200194505050505060405180910390a150565b60006112bd612577565b905081811015611335576040517f08c379a00000000000000000000000000000000000000000000000000000000081526004018080602001828103825260048152602001807f6661696c0000000000000000000000000000000000000000000000000000000081525060200191505060405180910390fd5b82600160009054906101000a900473ffffffffffffffffffffffffffffffffffffffff1673ffffffffffffffffffffffffffffffffffffffff166370a08231336040518263ffffffff1660e01b8152600401808273ffffffffffffffffffffffffffffffffffffffff1673ffffffffffffffffffffffffffffffffffffffff16815260200191505060206040518083038186803b1580156113d557600080fd5b505afa1580156113e9573d6000803e3d6000fd5b505050506040513d60208110156113ff57600080fd5b8101908080519060200190929190505050101561141b57600080fd5b6000818402905080600360009054906101000a900473ffffffffffffffffffffffffffffffffffffffff1673ffffffffffffffffffffffffffffffffffffffff166370a08231306040518263ffffffff1660e01b8152600401808273ffffffffffffffffffffffffffffffffffffffff1673ffffffffffffffffffffffffffffffffffffffff16815260200191505060206040518083038186803b1580156114c257600080fd5b505afa1580156114d6573d6000803e3d6000fd5b505050506040513d60208110156114ec57600080fd5b8101908080519060200190929190505050101561150857600080fd5b600360009054906101000a900473ffffffffffffffffffffffffffffffffffffffff1673ffffffffffffffffffffffffffffffffffffffff1663a9059cbb33836040518363ffffffff1660e01b8152600401808373ffffffffffffffffffffffffffffffffffffffff1673ffffffffffffffffffffffffffffffffffffffff16815260200182815260200192505050602060405180830381600087803b1580156115b157600080fd5b505af11580156115c5573d6000803e3d6000fd5b505050506040513d60208110156115db57600080fd5b810190808051906020019092919050505050600160009054906101000a900473ffffffffffffffffffffffffffffffffffffffff1673ffffffffffffffffffffffffffffffffffffffff166323b872dd3330876040518463ffffffff1660e01b8152600401808473ffffffffffffffffffffffffffffffffffffffff1673ffffffffffffffffffffffffffffffffffffffff1681526020018373ffffffffffffffffffffffffffffffffffffffff1673ffffffffffffffffffffffffffffffffffffffff1681526020018281526020019350505050602060405180830381600087803b1580156116ca57600080fd5b505af11580156116de573d6000803e3d6000fd5b505050506040513d60208110156116f457600080fd5b8101908080519060200190929190505050507f152ea40eda7e0eb8ad8a1995fb1b292a3823d40f7d3c3863661ca7df3866e7eb33600360009054906101000a900473ffffffffffffffffffffffffffffffffffffffff168385604051808573ffffffffffffffffffffffffffffffffffffffff1673ffffffffffffffffffffffffffffffffffffffff1681526020018473ffffffffffffffffffffffffffffffffffffffff1673ffffffffffffffffffffffffffffffffffffffff16815260200183815260200182815260200194505050505060405180910390a150505050565b60045481565b60025481565b80600160009054906101000a900473ffffffffffffffffffffffffffffffffffffffff1673ffffffffffffffffffffffffffffffffffffffff166370a08231336040518263ffffffff1660e01b8152600401808273ffffffffffffffffffffffffffffffffffffffff1673ffffffffffffffffffffffffffffffffffffffff16815260200191505060206040518083038186803b15801561188157600080fd5b505afa158015611895573d6000803e3d6000fd5b505050506040513d60208110156118ab57600080fd5b810190808051906020019092919050505010156118c757600080fd5b60006004548202905080600360009054906101000a900473ffffffffffffffffffffffffffffffffffffffff1673ffffffffffffffffffffffffffffffffffffffff166370a08231306040518263ffffffff1660e01b8152600401808273ffffffffffffffffffffffffffffffffffffffff1673ffffffffffffffffffffffffffffffffffffffff16815260200191505060206040518083038186803b15801561197057600080fd5b505afa158015611984573d6000803e3d6000fd5b505050506040513d602081101561199a57600080fd5b810190808051906020019092919050505010156119b657600080fd5b600360009054906101000a900473ffffffffffffffffffffffffffffffffffffffff1673ffffffffffffffffffffffffffffffffffffffff1663a9059cbb33836040518363ffffffff1660e01b8152600401808373ffffffffffffffffffffffffffffffffffffffff1673ffffffffffffffffffffffffffffffffffffffff16815260200182815260200192505050602060405180830381600087803b158015611a5f57600080fd5b505af1158015611a73573d6000803e3d6000fd5b505050506040513d6020811015611a8957600080fd5b810190808051906020019092919050505050600160009054906101000a900473ffffffffffffffffffffffffffffffffffffffff1673ffffffffffffffffffffffffffffffffffffffff166323b872dd3330856040518463ffffffff1660e01b8152600401808473ffffffffffffffffffffffffffffffffffffffff1673ffffffffffffffffffffffffffffffffffffffff1681526020018373ffffffffffffffffffffffffffffffffffffffff1673ffffffffffffffffffffffffffffffffffffffff1681526020018281526020019350505050602060405180830381600087803b158015611b7857600080fd5b505af1158015611b8c573d6000803e3d6000fd5b505050506040513d6020811015611ba257600080fd5b8101908080519060200190929190505050507f152ea40eda7e0eb8ad8a1995fb1b292a3823d40f7d3c3863661ca7df3866e7eb33600360009054906101000a900473ffffffffffffffffffffffffffffffffffffffff1683600454604051808573ffffffffffffffffffffffffffffffffffffffff1673ffffffffffffffffffffffffffffffffffffffff1681526020018473ffffffffffffffffffffffffffffffffffffffff1673ffffffffffffffffffffffffffffffffffffffff16815260200183815260200182815260200194505050505060405180910390a15050565b6000611c8d612577565b905081811115611d05576040517f08c379a00000000000000000000000000000000000000000000000000000000081526004018080602001828103825260048152602001807f6661696c0000000000000000000000000000000000000000000000000000000081525060200191505060405180910390fd5b82600160009054906101000a900473ffffffffffffffffffffffffffffffffffffffff1673ffffffffffffffffffffffffffffffffffffffff166370a08231336040518263ffffffff1660e01b8152600401808273ffffffffffffffffffffffffffffffffffffffff1673ffffffffffffffffffffffffffffffffffffffff16815260200191505060206040518083038186803b158015611da557600080fd5b505afa158015611db9573d6000803e3d6000fd5b505050506040513d6020811015611dcf57600080fd5b81019080805190602001909291905050501015611deb57600080fd5b6000818481611df657fe5b049050803073ffffffffffffffffffffffffffffffffffffffff16311015611e1d57600080fd5b600160009054906101000a900473ffffffffffffffffffffffffffffffffffffffff1673ffffffffffffffffffffffffffffffffffffffff166323b872dd3330876040518463ffffffff1660e01b8152600401808473ffffffffffffffffffffffffffffffffffffffff1673ffffffffffffffffffffffffffffffffffffffff1681526020018373ffffffffffffffffffffffffffffffffffffffff1673ffffffffffffffffffffffffffffffffffffffff1681526020018281526020019350505050602060405180830381600087803b158015611efa57600080fd5b505af1158015611f0e573d6000803e3d6000fd5b505050506040513d6020811015611f2457600080fd5b8101908080519060200190929190505050503373ffffffffffffffffffffffffffffffffffffffff166108fc829081150290604051600060405180830381858888f19350505050158015611f7c573d6000803e3d6000fd5b507f697c42d55a5e1fed3f464ec6f38b32546a0bd368dc8068b065c67566d73f329033600160009054906101000a900473ffffffffffffffffffffffffffffffffffffffff1686600254604051808573ffffffffffffffffffffffffffffffffffffffff1673ffffffffffffffffffffffffffffffffffffffff1681526020018473ffffffffffffffffffffffffffffffffffffffff1673ffffffffffffffffffffffffffffffffffffffff16815260200183815260200182815260200194505050505060405180910390a150505050565b6000612058612577565b9050818111156120d0576040517f08c379a00000000000000000000000000000000000000000000000000000000081526004018080602001828103825260048152602001807f6661696c0000000000000000000000000000000000000000000000000000000081525060200191505060405180910390fd5b60008184816120db57fe5b04905080600160009054906101000a900473ffffffffffffffffffffffffffffffffffffffff1673ffffffffffffffffffffffffffffffffffffffff166370a08231306040518263ffffffff1660e01b8152600401808273ffffffffffffffffffffffffffffffffffffffff1673ffffffffffffffffffffffffffffffffffffffff16815260200191505060206040518083038186803b15801561217e57600080fd5b505afa158015612192573d6000803e3d6000fd5b505050506040513d60208110156121a857600080fd5b810190808051906020019092919050505010156121c457600080fd5b83600360009054906101000a900473ffffffffffffffffffffffffffffffffffffffff1673ffffffffffffffffffffffffffffffffffffffff166370a08231336040518263ffffffff1660e01b8152600401808273ffffffffffffffffffffffffffffffffffffffff1673ffffffffffffffffffffffffffffffffffffffff16815260200191505060206040518083038186803b15801561226457600080fd5b505afa158015612278573d6000803e3d6000fd5b505050506040513d602081101561228e57600080fd5b810190808051906020019092919050505010156122aa57600080fd5b600360009054906101000a900473ffffffffffffffffffffffffffffffffffffffff1673ffffffffffffffffffffffffffffffffffffffff166323b872dd3330876040518463ffffffff1660e01b8152600401808473ffffffffffffffffffffffffffffffffffffffff1673ffffffffffffffffffffffffffffffffffffffff1681526020018373ffffffffffffffffffffffffffffffffffffffff1673ffffffffffffffffffffffffffffffffffffffff1681526020018281526020019350505050602060405180830381600087803b15801561238757600080fd5b505af115801561239b573d6000803e3d6000fd5b505050506040513d60208110156123b157600080fd5b810190808051906020019092919050505050600160009054906101000a900473ffffffffffffffffffffffffffffffffffffffff1673ffffffffffffffffffffffffffffffffffffffff1663a9059cbb33836040518363ffffffff1660e01b8152600401808373ffffffffffffffffffffffffffffffffffffffff1673ffffffffffffffffffffffffffffffffffffffff16815260200182815260200192505050602060405180830381600087803b15801561246c57600080fd5b505af1158015612480573d6000803e3d6000fd5b505050506040513d602081101561249657600080fd5b8101908080519060200190929190505050507f587eb660c49126e1f0a78ee8c9700e2fa814bf2a3c1d29bb62ab66895ae49e4433600360009054906101000a900473ffffffffffffffffffffffffffffffffffffffff168685604051808573ffffffffffffffffffffffffffffffffffffffff1673ffffffffffffffffffffffffffffffffffffffff1681526020018473ffffffffffffffffffffffffffffffffffffffff1673ffffffffffffffffffffffffffffffffffffffff16815260200183815260200182815260200194505050505060405180910390a150505050565b600080600a423342604051602001808481526020018373ffffffffffffffffffffffffffffffffffffffff1673ffffffffffffffffffffffffffffffffffffffff1660601b815260140182815260200193505050506040516020818303038152906040528051906020012060001c816125ec57fe5b069050605a81019050809150509056fea265627a7a7231582041c37716befcf4468cb2dcb05ab6957723da1f7a84a065584f2f9b210a160f9364736f6c63430005100032",
  "source": "pragma solidity ^0.5.0;\n\nimport \"./CoolToken.sol\";\nimport \"./SecondToken.sol\";\n\ncontract EthSwap {\n    string public name = \"EthSwap Instant Exchange\";\n    CoolToken public coolToken; // variable that represents token smart contract.\n    uint256 public coolRate = 100; //uint means unsigned, no decimal and positive\n\n    // This is just the code, does not tell us where the smart contract is.\n    // It requires constructor\n    SecondToken public secondToken;\n    uint256 public secondRate = 5; //uint means unsigned, no decimal and positive\n\n    event TokensPurchased(\n        address account,\n        address token,\n        uint256 amount,\n        uint256 rate\n    );\n\n    event SecondTokensPurchased(\n        address account,\n        address token,\n        uint256 amount,\n        uint256 rate\n    );\n\n    event TokensSold(\n        address account,\n        address token,\n        uint256 amount,\n        uint256 rate\n    );\n\n    event SecondTokensSold(\n        address account,\n        address token,\n        uint256 amount,\n        uint256 rate\n    );\n\n    constructor(CoolToken _coolToken, SecondToken _secondToken) public {\n        //pass the address of the Token in\n        coolToken = _coolToken;\n        secondToken = _secondToken;\n    }\n\n    function random() internal returns (uint256) {\n        uint256 randomnumber = uint256(\n            keccak256(abi.encodePacked(now, msg.sender, now))\n        ) % 10;\n        randomnumber = randomnumber + 90;\n        return randomnumber;\n    }\n\n    function buyCoolTokens() public payable {\n        // Calculate the number of tokens to buy\n        uint256 tokenAmount = msg.value * coolRate; //msg.value = how much ether was sent\n\n        // Require that EthSwap has enough tokens\n        require(coolToken.balanceOf(address(this)) >= tokenAmount);\n\n        // Transfer tokens to the user\n        coolToken.transfer(msg.sender, tokenAmount);\n\n        // Emit an event\n        emit TokensPurchased(\n            msg.sender,\n            address(coolToken),\n            tokenAmount,\n            coolRate\n        );\n    }\n\n    function limitBuyCoolTokens(uint256 _rate) public payable {\n        uint256 testrate = random();\n\n        require(testrate >= _rate, \"fail\");\n        // Calculate the number of tokens to buy\n        uint256 tokenAmount = msg.value * testrate; //msg.value = how much ether was sent\n\n        // Require that EthSwap has enough tokens\n        require(coolToken.balanceOf(address(this)) >= tokenAmount);\n\n        // Transfer tokens to the user\n        coolToken.transfer(msg.sender, tokenAmount);\n\n        // Emit an event\n        emit TokensPurchased(\n            msg.sender,\n            address(coolToken),\n            tokenAmount,\n            testrate\n        );\n    }\n\n    function sellCoolTokens(uint256 _amount) public {\n        // User can't sell more tokens than they have\n        require(coolToken.balanceOf(msg.sender) >= _amount);\n\n        // Calculate the amount of Ether to redeem\n        uint256 etherAmount = _amount / coolRate;\n\n        // Require that EthSwap has enough Ether\n        require(address(this).balance >= etherAmount);\n\n        // Perform sale\n        coolToken.transferFrom(msg.sender, address(this), _amount);\n        msg.sender.transfer(etherAmount);\n\n        // Emit an event\n        emit TokensSold(msg.sender, address(coolToken), _amount, coolRate);\n    }\n\n    function limitSellCoolTokens(uint256 _amount, uint256 _rate) public {\n        uint256 testrate = random();\n\n        require(testrate <= _rate, \"fail\");\n        // User can't sell more tokens than they have\n        require(coolToken.balanceOf(msg.sender) >= _amount);\n\n        // // Calculate the amount of Ether to redeem\n        uint256 etherAmount = _amount / testrate;\n\n        // Require that EthSwap has enough Ether\n        require(address(this).balance >= etherAmount);\n\n        // Perform sale\n        coolToken.transferFrom(msg.sender, address(this), _amount);\n        msg.sender.transfer(etherAmount);\n\n        // // Emit an event\n        emit TokensSold(msg.sender, address(coolToken), _amount, coolRate);\n    }\n\n    function buySecondTokens(uint256 _coolAmount) public {\n        // Check if there is sufficient cool token in buyer acc\n        require(coolToken.balanceOf(msg.sender) >= _coolAmount);\n        // Calculate the amount of cool token to redeem\n        uint256 secondAmount = _coolAmount * secondRate;\n        // Check that there is enough seocond Token in ethSwap\n        require(secondToken.balanceOf(address(this)) >= secondAmount);\n\n        // Perform sale (this 2 method might be the problem)\n        // secondToken.transferFrom(address(this), msg.sender, secondAmount);\n        secondToken.transfer(msg.sender, secondAmount);\n        coolToken.transferFrom(msg.sender, address(this), _coolAmount);\n        // Emit an event\n        emit SecondTokensPurchased(\n            msg.sender,\n            address(secondToken),\n            secondAmount,\n            secondRate\n        );\n    }\n\n    function limitBuySecondTokens(uint256 _coolAmount, uint256 _secondRate)\n        public\n    {\n        uint256 testrate = random();\n        require(testrate >= _secondRate, \"fail\");\n        // Check if there is sufficient cool token in buyer acc\n        require(coolToken.balanceOf(msg.sender) >= _coolAmount);\n        // Calculate the amount of cool token to redeem\n        uint256 secondAmount = _coolAmount * testrate;\n        // Check that there is enough seocond Token in ethSwap\n        require(secondToken.balanceOf(address(this)) >= secondAmount);\n\n        // Perform sale (this 2 method might be the problem)\n        // secondToken.transferFrom(address(this), msg.sender, secondAmount);\n        secondToken.transfer(msg.sender, secondAmount);\n        coolToken.transferFrom(msg.sender, address(this), _coolAmount);\n        // Emit an event\n        emit SecondTokensPurchased(\n            msg.sender,\n            address(secondToken),\n            secondAmount,\n            testrate\n        );\n    }\n\n    function sellSecondTokens(uint256 _secondAmount) public {\n        // Calculate the amount of cool token to redeem\n        uint256 coolAmount = _secondAmount / secondRate;\n\n        // Check that there is enough cool Token in ethSwap\n        require(coolToken.balanceOf(address(this)) >= coolAmount);\n\n        // Check if there is sufficient second token in buyer acc\n        require(secondToken.balanceOf(msg.sender) >= _secondAmount);\n\n        // Perform sale\n        secondToken.transferFrom(msg.sender, address(this), _secondAmount);\n        coolToken.transfer(msg.sender, coolAmount);\n\n        // Emit an event\n        emit SecondTokensSold(\n            msg.sender,\n            address(secondToken),\n            _secondAmount,\n            secondRate\n        );\n    }\n\n    function limitSellSecondTokens(uint256 _secondAmount, uint256 _secondRate)\n        public\n    {\n        uint256 testrate = random();\n        require(testrate <= _secondRate, \"fail\");\n        // Calculate the amount of cool token to redeem\n        uint256 coolAmount = _secondAmount / testrate;\n\n        // Check that there is enough cool Token in ethSwap\n        require(coolToken.balanceOf(address(this)) >= coolAmount);\n\n        // Check if there is sufficient second token in buyer acc\n        require(secondToken.balanceOf(msg.sender) >= _secondAmount);\n\n        // Perform sale\n        secondToken.transferFrom(msg.sender, address(this), _secondAmount);\n        coolToken.transfer(msg.sender, coolAmount);\n\n        // Emit an event\n        emit SecondTokensSold(\n            msg.sender,\n            address(secondToken),\n            _secondAmount,\n            testrate\n        );\n    }\n}\n",
  "sourcePath": "/Users/weerenteo/Documents/Year 4 Sem 2/CZ4153 Blockchain Technology/Project/Blockchain-DEX/src/contracts/EthSwap.sol",
  "compiler": {
    "name": "solc",
    "version": "0.5.16+commit.9c3226ce.Emscripten.clang"
  },
  "schemaVersion": "3.4.10",
  "updatedAt": "2022-10-28T15:34:09.775Z",
  "networkType": "ethereum",
  "devdoc": {
    "methods": {}
  },
  "userdoc": {
    "methods": {}
  }
}