{
  "contractName": "EthSwap",
  "abi": [
    {
      "inputs": [
        {
          "internalType": "contract CoolToken",
          "name": "_coolToken",
          "type": "address"
        },
        {
          "internalType": "contract SecondToken",
          "name": "_secondToken",
          "type": "address"
        }
      ],
      "stateMutability": "nonpayable",
      "type": "constructor"
    },
    {
      "anonymous": false,
      "inputs": [
        {
          "indexed": false,
          "internalType": "address",
          "name": "sender",
          "type": "address"
        },
        {
          "indexed": false,
          "internalType": "uint256",
          "name": "price",
          "type": "uint256"
        },
        {
          "indexed": false,
          "internalType": "uint256",
          "name": "amountOfBaseToken",
          "type": "uint256"
        }
      ],
      "name": "DrawToBuyBook",
      "type": "event"
    },
    {
      "anonymous": false,
      "inputs": [
        {
          "indexed": false,
          "internalType": "address",
          "name": "sender",
          "type": "address"
        },
        {
          "indexed": false,
          "internalType": "uint256",
          "name": "price",
          "type": "uint256"
        },
        {
          "indexed": false,
          "internalType": "uint256",
          "name": "amountOfTradeToken",
          "type": "uint256"
        }
      ],
      "name": "DrawToSellBook",
      "type": "event"
    },
    {
      "anonymous": false,
      "inputs": [
        {
          "indexed": false,
          "internalType": "address",
          "name": "sender",
          "type": "address"
        },
        {
          "indexed": false,
          "internalType": "uint256",
          "name": "price",
          "type": "uint256"
        },
        {
          "indexed": false,
          "internalType": "uint256",
          "name": "amountOfBaseToken",
          "type": "uint256"
        }
      ],
      "name": "PlaceBuyOrder",
      "type": "event"
    },
    {
      "anonymous": false,
      "inputs": [
        {
          "indexed": false,
          "internalType": "address",
          "name": "sender",
          "type": "address"
        },
        {
          "indexed": false,
          "internalType": "uint256",
          "name": "price",
          "type": "uint256"
        },
        {
          "indexed": false,
          "internalType": "uint256",
          "name": "amountOfTradeToken",
          "type": "uint256"
        }
      ],
      "name": "PlaceSellOrder",
      "type": "event"
    },
    {
      "anonymous": false,
      "inputs": [
        {
          "indexed": false,
          "internalType": "address",
          "name": "account",
          "type": "address"
        },
        {
          "indexed": false,
          "internalType": "address",
          "name": "token",
          "type": "address"
        },
        {
          "indexed": false,
          "internalType": "uint256",
          "name": "amount",
          "type": "uint256"
        },
        {
          "indexed": false,
          "internalType": "uint256",
          "name": "rate",
          "type": "uint256"
        }
      ],
      "name": "SecondTokensPurchased",
      "type": "event"
    },
    {
      "anonymous": false,
      "inputs": [
        {
          "indexed": false,
          "internalType": "address",
          "name": "account",
          "type": "address"
        },
        {
          "indexed": false,
          "internalType": "address",
          "name": "token",
          "type": "address"
        },
        {
          "indexed": false,
          "internalType": "uint256",
          "name": "amount",
          "type": "uint256"
        },
        {
          "indexed": false,
          "internalType": "uint256",
          "name": "rate",
          "type": "uint256"
        }
      ],
      "name": "SecondTokensSold",
      "type": "event"
    },
    {
      "anonymous": false,
      "inputs": [
        {
          "indexed": false,
          "internalType": "address",
          "name": "account",
          "type": "address"
        },
        {
          "indexed": false,
          "internalType": "address",
          "name": "token",
          "type": "address"
        },
        {
          "indexed": false,
          "internalType": "uint256",
          "name": "amount",
          "type": "uint256"
        },
        {
          "indexed": false,
          "internalType": "uint256",
          "name": "rate",
          "type": "uint256"
        }
      ],
      "name": "TokensPurchased",
      "type": "event"
    },
    {
      "anonymous": false,
      "inputs": [
        {
          "indexed": false,
          "internalType": "address",
          "name": "account",
          "type": "address"
        },
        {
          "indexed": false,
          "internalType": "address",
          "name": "token",
          "type": "address"
        },
        {
          "indexed": false,
          "internalType": "uint256",
          "name": "amount",
          "type": "uint256"
        },
        {
          "indexed": false,
          "internalType": "uint256",
          "name": "rate",
          "type": "uint256"
        }
      ],
      "name": "TokensSold",
      "type": "event"
    },
    {
      "inputs": [],
      "name": "baseToken",
      "outputs": [
        {
          "internalType": "contract IERC20",
          "name": "",
          "type": "address"
        }
      ],
      "stateMutability": "view",
      "type": "function",
      "constant": true
    },
    {
      "inputs": [
        {
          "internalType": "uint256",
          "name": "",
          "type": "uint256"
        },
        {
          "internalType": "uint8",
          "name": "",
          "type": "uint8"
        }
      ],
      "name": "buyOrdersInStep",
      "outputs": [
        {
          "internalType": "address",
          "name": "maker",
          "type": "address"
        },
        {
          "internalType": "uint256",
          "name": "amount",
          "type": "uint256"
        }
      ],
      "stateMutability": "view",
      "type": "function",
      "constant": true
    },
    {
      "inputs": [
        {
          "internalType": "uint256",
          "name": "",
          "type": "uint256"
        }
      ],
      "name": "buyOrdersInStepCounter",
      "outputs": [
        {
          "internalType": "uint8",
          "name": "",
          "type": "uint8"
        }
      ],
      "stateMutability": "view",
      "type": "function",
      "constant": true
    },
    {
      "inputs": [
        {
          "internalType": "uint256",
          "name": "",
          "type": "uint256"
        }
      ],
      "name": "buySteps",
      "outputs": [
        {
          "internalType": "uint256",
          "name": "higherPrice",
          "type": "uint256"
        },
        {
          "internalType": "uint256",
          "name": "lowerPrice",
          "type": "uint256"
        },
        {
          "internalType": "uint256",
          "name": "amount",
          "type": "uint256"
        }
      ],
      "stateMutability": "view",
      "type": "function",
      "constant": true
    },
    {
      "inputs": [],
      "name": "coolRate",
      "outputs": [
        {
          "internalType": "uint256",
          "name": "",
          "type": "uint256"
        }
      ],
      "stateMutability": "view",
      "type": "function",
      "constant": true
    },
    {
      "inputs": [],
      "name": "coolToken",
      "outputs": [
        {
          "internalType": "contract CoolToken",
          "name": "",
          "type": "address"
        }
      ],
      "stateMutability": "view",
      "type": "function",
      "constant": true
    },
    {
      "inputs": [],
      "name": "maxBuyPrice",
      "outputs": [
        {
          "internalType": "uint256",
          "name": "",
          "type": "uint256"
        }
      ],
      "stateMutability": "view",
      "type": "function",
      "constant": true
    },
    {
      "inputs": [],
      "name": "minSellPrice",
      "outputs": [
        {
          "internalType": "uint256",
          "name": "",
          "type": "uint256"
        }
      ],
      "stateMutability": "view",
      "type": "function",
      "constant": true
    },
    {
      "inputs": [],
      "name": "name",
      "outputs": [
        {
          "internalType": "string",
          "name": "",
          "type": "string"
        }
      ],
      "stateMutability": "view",
      "type": "function",
      "constant": true
    },
    {
      "inputs": [],
      "name": "secondRate",
      "outputs": [
        {
          "internalType": "uint256",
          "name": "",
          "type": "uint256"
        }
      ],
      "stateMutability": "view",
      "type": "function",
      "constant": true
    },
    {
      "inputs": [],
      "name": "secondToken",
      "outputs": [
        {
          "internalType": "contract SecondToken",
          "name": "",
          "type": "address"
        }
      ],
      "stateMutability": "view",
      "type": "function",
      "constant": true
    },
    {
      "inputs": [
        {
          "internalType": "uint256",
          "name": "",
          "type": "uint256"
        },
        {
          "internalType": "uint8",
          "name": "",
          "type": "uint8"
        }
      ],
      "name": "sellOrdersInStep",
      "outputs": [
        {
          "internalType": "address",
          "name": "maker",
          "type": "address"
        },
        {
          "internalType": "uint256",
          "name": "amount",
          "type": "uint256"
        }
      ],
      "stateMutability": "view",
      "type": "function",
      "constant": true
    },
    {
      "inputs": [
        {
          "internalType": "uint256",
          "name": "",
          "type": "uint256"
        }
      ],
      "name": "sellOrdersInStepCounter",
      "outputs": [
        {
          "internalType": "uint8",
          "name": "",
          "type": "uint8"
        }
      ],
      "stateMutability": "view",
      "type": "function",
      "constant": true
    },
    {
      "inputs": [
        {
          "internalType": "uint256",
          "name": "",
          "type": "uint256"
        }
      ],
      "name": "sellSteps",
      "outputs": [
        {
          "internalType": "uint256",
          "name": "higherPrice",
          "type": "uint256"
        },
        {
          "internalType": "uint256",
          "name": "lowerPrice",
          "type": "uint256"
        },
        {
          "internalType": "uint256",
          "name": "amount",
          "type": "uint256"
        }
      ],
      "stateMutability": "view",
      "type": "function",
      "constant": true
    },
    {
      "inputs": [],
      "name": "tradeToken",
      "outputs": [
        {
          "internalType": "contract IERC20",
          "name": "",
          "type": "address"
        }
      ],
      "stateMutability": "view",
      "type": "function",
      "constant": true
    },
    {
      "inputs": [],
      "name": "buyCoolTokens",
      "outputs": [],
      "stateMutability": "payable",
      "type": "function",
      "payable": true
    },
    {
      "inputs": [
        {
          "internalType": "uint256",
          "name": "_rate",
          "type": "uint256"
        }
      ],
      "name": "limitBuyCoolTokens",
      "outputs": [],
      "stateMutability": "payable",
      "type": "function",
      "payable": true
    },
    {
      "inputs": [
        {
          "internalType": "uint256",
          "name": "_amount",
          "type": "uint256"
        }
      ],
      "name": "sellCoolTokens",
      "outputs": [],
      "stateMutability": "nonpayable",
      "type": "function"
    },
    {
      "inputs": [
        {
          "internalType": "uint256",
          "name": "_amount",
          "type": "uint256"
        },
        {
          "internalType": "uint256",
          "name": "_rate",
          "type": "uint256"
        }
      ],
      "name": "limitSellCoolTokens",
      "outputs": [],
      "stateMutability": "nonpayable",
      "type": "function"
    },
    {
      "inputs": [
        {
          "internalType": "uint256",
          "name": "_coolAmount",
          "type": "uint256"
        }
      ],
      "name": "buySecondTokensFromCool",
      "outputs": [],
      "stateMutability": "nonpayable",
      "type": "function"
    },
    {
      "inputs": [
        {
          "internalType": "uint256",
          "name": "_coolAmount",
          "type": "uint256"
        },
        {
          "internalType": "uint256",
          "name": "_secondRate",
          "type": "uint256"
        }
      ],
      "name": "limitBuySecondTokens",
      "outputs": [],
      "stateMutability": "nonpayable",
      "type": "function"
    },
    {
      "inputs": [
        {
          "internalType": "uint256",
          "name": "_secondAmount",
          "type": "uint256"
        }
      ],
      "name": "sellSecondTokensFromCool",
      "outputs": [],
      "stateMutability": "nonpayable",
      "type": "function"
    },
    {
      "inputs": [
        {
          "internalType": "uint256",
          "name": "_secondAmount",
          "type": "uint256"
        },
        {
          "internalType": "uint256",
          "name": "_secondRate",
          "type": "uint256"
        }
      ],
      "name": "limitSellSecondTokens",
      "outputs": [],
      "stateMutability": "nonpayable",
      "type": "function"
    },
    {
      "inputs": [],
      "name": "buySecondTokens",
      "outputs": [],
      "stateMutability": "payable",
      "type": "function",
      "payable": true
    },
    {
      "inputs": [
        {
          "internalType": "uint256",
          "name": "_amount",
          "type": "uint256"
        }
      ],
      "name": "sellSecondTokens",
      "outputs": [],
      "stateMutability": "nonpayable",
      "type": "function"
    },
    {
      "inputs": [
        {
          "internalType": "uint256",
          "name": "price",
          "type": "uint256"
        },
        {
          "internalType": "uint256",
          "name": "amountOfBaseToken",
          "type": "uint256"
        }
      ],
      "name": "placeBuyOrder",
      "outputs": [],
      "stateMutability": "nonpayable",
      "type": "function"
    },
    {
      "inputs": [
        {
          "internalType": "uint256",
          "name": "price",
          "type": "uint256"
        },
        {
          "internalType": "uint256",
          "name": "amountOfTradeToken",
          "type": "uint256"
        }
      ],
      "name": "placeSellOrder",
      "outputs": [],
      "stateMutability": "nonpayable",
      "type": "function"
    }
  ],
  "bytecode": "0x60806040526040518060400160405280601881526020017f4574685377617020496e7374616e742045786368616e6765000000000000000081525060039080519060200190620000519291906200013c565b50606460055560056007553480156200006957600080fd5b50604051620048cb380380620048cb833981810160405260408110156200008f57600080fd5b810190808051906020019092919080519060200190929190505050600160008190555081600460006101000a81548173ffffffffffffffffffffffffffffffffffffffff021916908373ffffffffffffffffffffffffffffffffffffffff16021790555080600660006101000a81548173ffffffffffffffffffffffffffffffffffffffff021916908373ffffffffffffffffffffffffffffffffffffffff1602179055505050620001eb565b828054600181600116156101000203166002900490600052602060002090601f016020900481019282601f106200017f57805160ff1916838001178555620001b0565b82800160010185558215620001b0579182015b82811115620001af57825182559160200191906001019062000192565b5b509050620001bf9190620001c3565b5090565b620001e891905b80821115620001e4576000816000905550600101620001ca565b5090565b90565b6146d080620001fb6000396000f3fe60806040526004361061019b5760003560e01c8063906ec48b116100ec578063e6a332681161008a578063ee36d4ab11610064578063ee36d4ab14610815578063f499a74a1461085a578063f50e49281461089f578063f9193df0146108e45761019b565b8063e6a332681461076a578063e7e8b38214610795578063eaf5a130146107ea5761019b565b8063c3111075116100c6578063c311107514610646578063c55dae6314610681578063d83678ac146106d8578063dd3e32c61461072f5761019b565b8063906ec48b1461059157806399487e88146105d6578063a4406bcd146106015761019b565b8063433f88da116101595780636caa30d9116101335780636caa30d9146104ca5780636d952117146105055780638b77bd77146105305780639001c6d8146105875761019b565b8063433f88da146103d257806343e2bd021461046157806352d49fa91461048f5761019b565b80626efa71146101a05780630446d1c6146101aa57806304ebe3081461023957806306fdde031461028e5780632e78cd241461031e5780633bfd49da1461037b575b600080fd5b6101a8610941565b005b3480156101b657600080fd5b506101f0600480360360408110156101cd57600080fd5b8101908080359060200190929190803560ff169060200190929190505050610be3565b604051808373ffffffffffffffffffffffffffffffffffffffff1673ffffffffffffffffffffffffffffffffffffffff1681526020018281526020019250505060405180910390f35b34801561024557600080fd5b506102726004803603602081101561025c57600080fd5b8101908080359060200190929190505050610c34565b604051808260ff1660ff16815260200191505060405180910390f35b34801561029a57600080fd5b506102a3610c54565b6040518080602001828103825283818151815260200191508051906020019080838360005b838110156102e35780820151818401526020810190506102c8565b50505050905090810190601f1680156103105780820380516001836020036101000a031916815260200191505b509250505060405180910390f35b34801561032a57600080fd5b506103576004803603602081101561034157600080fd5b8101908080359060200190929190505050610cf2565b60405180848152602001838152602001828152602001935050505060405180910390f35b34801561038757600080fd5b50610390610d1c565b604051808273ffffffffffffffffffffffffffffffffffffffff1673ffffffffffffffffffffffffffffffffffffffff16815260200191505060405180910390f35b3480156103de57600080fd5b50610418600480360360408110156103f557600080fd5b8101908080359060200190929190803560ff169060200190929190505050610d42565b604051808373ffffffffffffffffffffffffffffffffffffffff1673ffffffffffffffffffffffffffffffffffffffff1681526020018281526020019250505060405180910390f35b61048d6004803603602081101561047757600080fd5b8101908080359060200190929190505050610d93565b005b34801561049b57600080fd5b506104c8600480360360208110156104b257600080fd5b81019080803590602001909291905050506110b5565b005b3480156104d657600080fd5b50610503600480360360208110156104ed57600080fd5b81019080803590602001909291905050506113fe565b005b34801561051157600080fd5b5061051a611747565b6040518082815260200191505060405180910390f35b34801561053c57600080fd5b5061054561174d565b604051808273ffffffffffffffffffffffffffffffffffffffff1673ffffffffffffffffffffffffffffffffffffffff16815260200191505060405180910390f35b61058f611773565b005b34801561059d57600080fd5b506105d4600480360360408110156105b457600080fd5b810190808035906020019092919080359060200190929190505050611a15565b005b3480156105e257600080fd5b506105eb611f37565b6040518082815260200191505060405180910390f35b34801561060d57600080fd5b506106446004803603604081101561062457600080fd5b810190808035906020019092919080359060200190929190505050611f3d565b005b34801561065257600080fd5b5061067f6004803603602081101561066957600080fd5b8101908080359060200190929190505050612535565b005b34801561068d57600080fd5b506106966129d7565b604051808273ffffffffffffffffffffffffffffffffffffffff1673ffffffffffffffffffffffffffffffffffffffff16815260200191505060405180910390f35b3480156106e457600080fd5b506106ed6129fd565b604051808273ffffffffffffffffffffffffffffffffffffffff1673ffffffffffffffffffffffffffffffffffffffff16815260200191505060405180910390f35b34801561073b57600080fd5b506107686004803603602081101561075257600080fd5b8101908080359060200190929190505050612a23565b005b34801561077657600080fd5b5061077f612ecc565b6040518082815260200191505060405180910390f35b3480156107a157600080fd5b506107ce600480360360208110156107b857600080fd5b8101908080359060200190929190505050612ed2565b604051808260ff1660ff16815260200191505060405180910390f35b3480156107f657600080fd5b506107ff612ef2565b6040518082815260200191505060405180910390f35b34801561082157600080fd5b506108586004803603604081101561083857600080fd5b810190808035906020019092919080359060200190929190505050612ef8565b005b34801561086657600080fd5b5061089d6004803603604081101561087d57600080fd5b810190808035906020019092919080359060200190929190505050613520565b005b3480156108ab57600080fd5b506108e2600480360360408110156108c257600080fd5b8101908080359060200190929190803590602001909291905050506138eb565b005b3480156108f057600080fd5b5061091d6004803603602081101561090757600080fd5b8101908080359060200190929190505050613e14565b60405180848152602001838152602001828152602001935050505060405180910390f35b60006007543402905080600660009054906101000a900473ffffffffffffffffffffffffffffffffffffffff1673ffffffffffffffffffffffffffffffffffffffff166370a08231306040518263ffffffff1660e01b8152600401808273ffffffffffffffffffffffffffffffffffffffff1673ffffffffffffffffffffffffffffffffffffffff16815260200191505060206040518083038186803b1580156109ea57600080fd5b505afa1580156109fe573d6000803e3d6000fd5b505050506040513d6020811015610a1457600080fd5b81019080805190602001909291905050501015610a3057600080fd5b600660009054906101000a900473ffffffffffffffffffffffffffffffffffffffff1673ffffffffffffffffffffffffffffffffffffffff1663a9059cbb33836040518363ffffffff1660e01b8152600401808373ffffffffffffffffffffffffffffffffffffffff1673ffffffffffffffffffffffffffffffffffffffff16815260200182815260200192505050602060405180830381600087803b158015610ad957600080fd5b505af1158015610aed573d6000803e3d6000fd5b505050506040513d6020811015610b0357600080fd5b8101908080519060200190929190505050507f6faf93231a456e552dbc9961f58d9713ee4f2e69d15f1975b050ef0911053a7b33600660009054906101000a900473ffffffffffffffffffffffffffffffffffffffff1683600754604051808573ffffffffffffffffffffffffffffffffffffffff1673ffffffffffffffffffffffffffffffffffffffff1681526020018473ffffffffffffffffffffffffffffffffffffffff1673ffffffffffffffffffffffffffffffffffffffff16815260200183815260200182815260200194505050505060405180910390a150565b600c602052816000526040600020602052806000526040600020600091509150508060000160009054906101000a900473ffffffffffffffffffffffffffffffffffffffff16908060010154905082565b600a6020528060005260406000206000915054906101000a900460ff1681565b60038054600181600116156101000203166002900480601f016020809104026020016040519081016040528092919081815260200182805460018160011615610100020316600290048015610cea5780601f10610cbf57610100808354040283529160200191610cea565b820191906000526020600020905b815481529060010190602001808311610ccd57829003601f168201915b505050505081565b60096020528060005260406000206000915090508060000154908060010154908060020154905083565b600660009054906101000a900473ffffffffffffffffffffffffffffffffffffffff1681565b6008602052816000526040600020602052806000526040600020600091509150508060000160009054906101000a900473ffffffffffffffffffffffffffffffffffffffff16908060010154905082565b6000610d9d613e3e565b905081811015610e15576040517f08c379a00000000000000000000000000000000000000000000000000000000081526004018080602001828103825260048152602001807f6661696c0000000000000000000000000000000000000000000000000000000081525060200191505060405180910390fd5b6000813402905080600460009054906101000a900473ffffffffffffffffffffffffffffffffffffffff1673ffffffffffffffffffffffffffffffffffffffff166370a08231306040518263ffffffff1660e01b8152600401808273ffffffffffffffffffffffffffffffffffffffff1673ffffffffffffffffffffffffffffffffffffffff16815260200191505060206040518083038186803b158015610ebc57600080fd5b505afa158015610ed0573d6000803e3d6000fd5b505050506040513d6020811015610ee657600080fd5b81019080805190602001909291905050501015610f0257600080fd5b600460009054906101000a900473ffffffffffffffffffffffffffffffffffffffff1673ffffffffffffffffffffffffffffffffffffffff1663a9059cbb33836040518363ffffffff1660e01b8152600401808373ffffffffffffffffffffffffffffffffffffffff1673ffffffffffffffffffffffffffffffffffffffff16815260200182815260200192505050602060405180830381600087803b158015610fab57600080fd5b505af1158015610fbf573d6000803e3d6000fd5b505050506040513d6020811015610fd557600080fd5b8101908080519060200190929190505050507f6faf93231a456e552dbc9961f58d9713ee4f2e69d15f1975b050ef0911053a7b33600460009054906101000a900473ffffffffffffffffffffffffffffffffffffffff168385604051808573ffffffffffffffffffffffffffffffffffffffff1673ffffffffffffffffffffffffffffffffffffffff1681526020018473ffffffffffffffffffffffffffffffffffffffff1673ffffffffffffffffffffffffffffffffffffffff16815260200183815260200182815260200194505050505060405180910390a1505050565b80600660009054906101000a900473ffffffffffffffffffffffffffffffffffffffff1673ffffffffffffffffffffffffffffffffffffffff166370a08231336040518263ffffffff1660e01b8152600401808273ffffffffffffffffffffffffffffffffffffffff1673ffffffffffffffffffffffffffffffffffffffff16815260200191505060206040518083038186803b15801561115557600080fd5b505afa158015611169573d6000803e3d6000fd5b505050506040513d602081101561117f57600080fd5b8101908080519060200190929190505050101561119b57600080fd5b600060075482816111a857fe5b049050803073ffffffffffffffffffffffffffffffffffffffff163110156111cf57600080fd5b600660009054906101000a900473ffffffffffffffffffffffffffffffffffffffff1673ffffffffffffffffffffffffffffffffffffffff166323b872dd3330856040518463ffffffff1660e01b8152600401808473ffffffffffffffffffffffffffffffffffffffff1673ffffffffffffffffffffffffffffffffffffffff1681526020018373ffffffffffffffffffffffffffffffffffffffff1673ffffffffffffffffffffffffffffffffffffffff1681526020018281526020019350505050602060405180830381600087803b1580156112ac57600080fd5b505af11580156112c0573d6000803e3d6000fd5b505050506040513d60208110156112d657600080fd5b8101908080519060200190929190505050503373ffffffffffffffffffffffffffffffffffffffff166108fc829081150290604051600060405180830381858888f1935050505015801561132e573d6000803e3d6000fd5b507f697c42d55a5e1fed3f464ec6f38b32546a0bd368dc8068b065c67566d73f329033600660009054906101000a900473ffffffffffffffffffffffffffffffffffffffff1684600754604051808573ffffffffffffffffffffffffffffffffffffffff1673ffffffffffffffffffffffffffffffffffffffff1681526020018473ffffffffffffffffffffffffffffffffffffffff1673ffffffffffffffffffffffffffffffffffffffff16815260200183815260200182815260200194505050505060405180910390a15050565b80600460009054906101000a900473ffffffffffffffffffffffffffffffffffffffff1673ffffffffffffffffffffffffffffffffffffffff166370a08231336040518263ffffffff1660e01b8152600401808273ffffffffffffffffffffffffffffffffffffffff1673ffffffffffffffffffffffffffffffffffffffff16815260200191505060206040518083038186803b15801561149e57600080fd5b505afa1580156114b2573d6000803e3d6000fd5b505050506040513d60208110156114c857600080fd5b810190808051906020019092919050505010156114e457600080fd5b600060055482816114f157fe5b049050803073ffffffffffffffffffffffffffffffffffffffff1631101561151857600080fd5b600460009054906101000a900473ffffffffffffffffffffffffffffffffffffffff1673ffffffffffffffffffffffffffffffffffffffff166323b872dd3330856040518463ffffffff1660e01b8152600401808473ffffffffffffffffffffffffffffffffffffffff1673ffffffffffffffffffffffffffffffffffffffff1681526020018373ffffffffffffffffffffffffffffffffffffffff1673ffffffffffffffffffffffffffffffffffffffff1681526020018281526020019350505050602060405180830381600087803b1580156115f557600080fd5b505af1158015611609573d6000803e3d6000fd5b505050506040513d602081101561161f57600080fd5b8101908080519060200190929190505050503373ffffffffffffffffffffffffffffffffffffffff166108fc829081150290604051600060405180830381858888f19350505050158015611677573d6000803e3d6000fd5b507f697c42d55a5e1fed3f464ec6f38b32546a0bd368dc8068b065c67566d73f329033600460009054906101000a900473ffffffffffffffffffffffffffffffffffffffff1684600554604051808573ffffffffffffffffffffffffffffffffffffffff1673ffffffffffffffffffffffffffffffffffffffff1681526020018473ffffffffffffffffffffffffffffffffffffffff1673ffffffffffffffffffffffffffffffffffffffff16815260200183815260200182815260200194505050505060405180910390a15050565b600b5481565b600460009054906101000a900473ffffffffffffffffffffffffffffffffffffffff1681565b60006005543402905080600460009054906101000a900473ffffffffffffffffffffffffffffffffffffffff1673ffffffffffffffffffffffffffffffffffffffff166370a08231306040518263ffffffff1660e01b8152600401808273ffffffffffffffffffffffffffffffffffffffff1673ffffffffffffffffffffffffffffffffffffffff16815260200191505060206040518083038186803b15801561181c57600080fd5b505afa158015611830573d6000803e3d6000fd5b505050506040513d602081101561184657600080fd5b8101908080519060200190929190505050101561186257600080fd5b600460009054906101000a900473ffffffffffffffffffffffffffffffffffffffff1673ffffffffffffffffffffffffffffffffffffffff1663a9059cbb33836040518363ffffffff1660e01b8152600401808373ffffffffffffffffffffffffffffffffffffffff1673ffffffffffffffffffffffffffffffffffffffff16815260200182815260200192505050602060405180830381600087803b15801561190b57600080fd5b505af115801561191f573d6000803e3d6000fd5b505050506040513d602081101561193557600080fd5b8101908080519060200190929190505050507f6faf93231a456e552dbc9961f58d9713ee4f2e69d15f1975b050ef0911053a7b33600460009054906101000a900473ffffffffffffffffffffffffffffffffffffffff1683600554604051808573ffffffffffffffffffffffffffffffffffffffff1673ffffffffffffffffffffffffffffffffffffffff1681526020018473ffffffffffffffffffffffffffffffffffffffff1673ffffffffffffffffffffffffffffffffffffffff16815260200183815260200182815260200194505050505060405180910390a150565b6000611a1f613e3e565b905081811015611a97576040517f08c379a00000000000000000000000000000000000000000000000000000000081526004018080602001828103825260048152602001807f6661696c0000000000000000000000000000000000000000000000000000000081525060200191505060405180910390fd5b82600460009054906101000a900473ffffffffffffffffffffffffffffffffffffffff1673ffffffffffffffffffffffffffffffffffffffff166370a08231336040518263ffffffff1660e01b8152600401808273ffffffffffffffffffffffffffffffffffffffff1673ffffffffffffffffffffffffffffffffffffffff16815260200191505060206040518083038186803b158015611b3757600080fd5b505afa158015611b4b573d6000803e3d6000fd5b505050506040513d6020811015611b6157600080fd5b81019080805190602001909291905050501015611b7d57600080fd5b6000818402905080600660009054906101000a900473ffffffffffffffffffffffffffffffffffffffff1673ffffffffffffffffffffffffffffffffffffffff166370a08231306040518263ffffffff1660e01b8152600401808273ffffffffffffffffffffffffffffffffffffffff1673ffffffffffffffffffffffffffffffffffffffff16815260200191505060206040518083038186803b158015611c2457600080fd5b505afa158015611c38573d6000803e3d6000fd5b505050506040513d6020811015611c4e57600080fd5b81019080805190602001909291905050501015611c6a57600080fd5b600660009054906101000a900473ffffffffffffffffffffffffffffffffffffffff1673ffffffffffffffffffffffffffffffffffffffff1663a9059cbb33836040518363ffffffff1660e01b8152600401808373ffffffffffffffffffffffffffffffffffffffff1673ffffffffffffffffffffffffffffffffffffffff16815260200182815260200192505050602060405180830381600087803b158015611d1357600080fd5b505af1158015611d27573d6000803e3d6000fd5b505050506040513d6020811015611d3d57600080fd5b810190808051906020019092919050505050600460009054906101000a900473ffffffffffffffffffffffffffffffffffffffff1673ffffffffffffffffffffffffffffffffffffffff166323b872dd3330876040518463ffffffff1660e01b8152600401808473ffffffffffffffffffffffffffffffffffffffff1673ffffffffffffffffffffffffffffffffffffffff1681526020018373ffffffffffffffffffffffffffffffffffffffff1673ffffffffffffffffffffffffffffffffffffffff1681526020018281526020019350505050602060405180830381600087803b158015611e2c57600080fd5b505af1158015611e40573d6000803e3d6000fd5b505050506040513d6020811015611e5657600080fd5b8101908080519060200190929190505050507f152ea40eda7e0eb8ad8a1995fb1b292a3823d40f7d3c3863661ca7df3866e7eb33600660009054906101000a900473ffffffffffffffffffffffffffffffffffffffff168385604051808573ffffffffffffffffffffffffffffffffffffffff1673ffffffffffffffffffffffffffffffffffffffff1681526020018473ffffffffffffffffffffffffffffffffffffffff1673ffffffffffffffffffffffffffffffffffffffff16815260200183815260200182815260200194505050505060405180910390a150505050565b600f5481565b60026000541415611fb6576040517f08c379a000000000000000000000000000000000000000000000000000000000815260040180806020018281038252601f8152602001807f5265656e7472616e637947756172643a207265656e7472616e742063616c6c0081525060200191505060405180910390fd5b6002600081905550600660009054906101000a900473ffffffffffffffffffffffffffffffffffffffff1673ffffffffffffffffffffffffffffffffffffffff166323b872dd3330846040518463ffffffff1660e01b8152600401808473ffffffffffffffffffffffffffffffffffffffff1673ffffffffffffffffffffffffffffffffffffffff1681526020018373ffffffffffffffffffffffffffffffffffffffff1673ffffffffffffffffffffffffffffffffffffffff1681526020018281526020019350505050602060405180830381600087803b15801561209b57600080fd5b505af11580156120af573d6000803e3d6000fd5b505050506040513d60208110156120c557600080fd5b8101908080519060200190929190505050507fb7dbff96891782d962607d023b4273634da23cbf026a06aeffac260cd497a88b338383604051808473ffffffffffffffffffffffffffffffffffffffff1673ffffffffffffffffffffffffffffffffffffffff168152602001838152602001828152602001935050505060405180910390a16000600b54905060008290506000600b5411801561216a5750600b548411155b15612513575b6000811180156121805750838210155b801561218d575060008214155b15612512576000600190506000600960008581526020019081526020016000206001015490505b600a600085815260200190815260200160002060009054906101000a900460ff1660ff168260ff16111580156121ea5750600083115b15612508576008600085815260200190815260200160002060008360ff1660ff16815260200190815260200160002060010154831061246457600a600085815260200190815260200160002060009054906101000a900460ff1660ff168260ff1614156122ad57600081111561227757600060096000838152602001908152602001600020600001819055505b6009600085815260200190815260200160002060008082016000905560018201600090556002820160009055505080600b819055505b6008600085815260200190815260200160002060008360ff1660ff16815260200190815260200160002060010154830392506008600085815260200190815260200160002060008360ff1660ff168152602001908152602001600020600080820160006101000a81549073ffffffffffffffffffffffffffffffffffffffff0219169055600182016000905550506001600a600086815260200190815260200160002060008282829054906101000a900460ff160392506101000a81548160ff021916908360ff160217905550600460009054906101000a900473ffffffffffffffffffffffffffffffffffffffff1673ffffffffffffffffffffffffffffffffffffffff1663a9059cbb33876040518363ffffffff1660e01b8152600401808373ffffffffffffffffffffffffffffffffffffffff1673ffffffffffffffffffffffffffffffffffffffff16815260200182815260200192505050602060405180830381600087803b15801561242357600080fd5b505af1158015612437573d6000803e3d6000fd5b505050506040513d602081101561244d57600080fd5b8101908080519060200190929190505050506124fd565b826009600086815260200190815260200160002060020154036009600086815260200190815260200160002060020181905550826008600086815260200190815260200160002060008460ff1660ff16815260200190815260200160002060010154036008600086815260200190815260200160002060008460ff1660ff16815260200190815260200160002060010181905550600092505b6001820191506121b4565b8093505050612170565b5b6000811115612527576125268482613ec3565b5b505060016000819055505050565b80600460009054906101000a900473ffffffffffffffffffffffffffffffffffffffff1673ffffffffffffffffffffffffffffffffffffffff166370a08231336040518263ffffffff1660e01b8152600401808273ffffffffffffffffffffffffffffffffffffffff1673ffffffffffffffffffffffffffffffffffffffff16815260200191505060206040518083038186803b1580156125d557600080fd5b505afa1580156125e9573d6000803e3d6000fd5b505050506040513d60208110156125ff57600080fd5b8101908080519060200190929190505050101561261b57600080fd5b60006007548202905080600660009054906101000a900473ffffffffffffffffffffffffffffffffffffffff1673ffffffffffffffffffffffffffffffffffffffff166370a08231306040518263ffffffff1660e01b8152600401808273ffffffffffffffffffffffffffffffffffffffff1673ffffffffffffffffffffffffffffffffffffffff16815260200191505060206040518083038186803b1580156126c457600080fd5b505afa1580156126d8573d6000803e3d6000fd5b505050506040513d60208110156126ee57600080fd5b8101908080519060200190929190505050101561270a57600080fd5b600660009054906101000a900473ffffffffffffffffffffffffffffffffffffffff1673ffffffffffffffffffffffffffffffffffffffff1663a9059cbb33836040518363ffffffff1660e01b8152600401808373ffffffffffffffffffffffffffffffffffffffff1673ffffffffffffffffffffffffffffffffffffffff16815260200182815260200192505050602060405180830381600087803b1580156127b357600080fd5b505af11580156127c7573d6000803e3d6000fd5b505050506040513d60208110156127dd57600080fd5b810190808051906020019092919050505050600460009054906101000a900473ffffffffffffffffffffffffffffffffffffffff1673ffffffffffffffffffffffffffffffffffffffff166323b872dd3330856040518463ffffffff1660e01b8152600401808473ffffffffffffffffffffffffffffffffffffffff1673ffffffffffffffffffffffffffffffffffffffff1681526020018373ffffffffffffffffffffffffffffffffffffffff1673ffffffffffffffffffffffffffffffffffffffff1681526020018281526020019350505050602060405180830381600087803b1580156128cc57600080fd5b505af11580156128e0573d6000803e3d6000fd5b505050506040513d60208110156128f657600080fd5b8101908080519060200190929190505050507f152ea40eda7e0eb8ad8a1995fb1b292a3823d40f7d3c3863661ca7df3866e7eb33600660009054906101000a900473ffffffffffffffffffffffffffffffffffffffff1683600754604051808573ffffffffffffffffffffffffffffffffffffffff1673ffffffffffffffffffffffffffffffffffffffff1681526020018473ffffffffffffffffffffffffffffffffffffffff1673ffffffffffffffffffffffffffffffffffffffff16815260200183815260200182815260200194505050505060405180910390a15050565b600260009054906101000a900473ffffffffffffffffffffffffffffffffffffffff1681565b600160009054906101000a900473ffffffffffffffffffffffffffffffffffffffff1681565b60006007548281612a3057fe5b04905080600460009054906101000a900473ffffffffffffffffffffffffffffffffffffffff1673ffffffffffffffffffffffffffffffffffffffff166370a08231306040518263ffffffff1660e01b8152600401808273ffffffffffffffffffffffffffffffffffffffff1673ffffffffffffffffffffffffffffffffffffffff16815260200191505060206040518083038186803b158015612ad357600080fd5b505afa158015612ae7573d6000803e3d6000fd5b505050506040513d6020811015612afd57600080fd5b81019080805190602001909291905050501015612b1957600080fd5b81600660009054906101000a900473ffffffffffffffffffffffffffffffffffffffff1673ffffffffffffffffffffffffffffffffffffffff166370a08231336040518263ffffffff1660e01b8152600401808273ffffffffffffffffffffffffffffffffffffffff1673ffffffffffffffffffffffffffffffffffffffff16815260200191505060206040518083038186803b158015612bb957600080fd5b505afa158015612bcd573d6000803e3d6000fd5b505050506040513d6020811015612be357600080fd5b81019080805190602001909291905050501015612bff57600080fd5b600660009054906101000a900473ffffffffffffffffffffffffffffffffffffffff1673ffffffffffffffffffffffffffffffffffffffff166323b872dd3330856040518463ffffffff1660e01b8152600401808473ffffffffffffffffffffffffffffffffffffffff1673ffffffffffffffffffffffffffffffffffffffff1681526020018373ffffffffffffffffffffffffffffffffffffffff1673ffffffffffffffffffffffffffffffffffffffff1681526020018281526020019350505050602060405180830381600087803b158015612cdc57600080fd5b505af1158015612cf0573d6000803e3d6000fd5b505050506040513d6020811015612d0657600080fd5b810190808051906020019092919050505050600460009054906101000a900473ffffffffffffffffffffffffffffffffffffffff1673ffffffffffffffffffffffffffffffffffffffff1663a9059cbb33836040518363ffffffff1660e01b8152600401808373ffffffffffffffffffffffffffffffffffffffff1673ffffffffffffffffffffffffffffffffffffffff16815260200182815260200192505050602060405180830381600087803b158015612dc157600080fd5b505af1158015612dd5573d6000803e3d6000fd5b505050506040513d6020811015612deb57600080fd5b8101908080519060200190929190505050507f587eb660c49126e1f0a78ee8c9700e2fa814bf2a3c1d29bb62ab66895ae49e4433600660009054906101000a900473ffffffffffffffffffffffffffffffffffffffff1684600754604051808573ffffffffffffffffffffffffffffffffffffffff1673ffffffffffffffffffffffffffffffffffffffff1681526020018473ffffffffffffffffffffffffffffffffffffffff1673ffffffffffffffffffffffffffffffffffffffff16815260200183815260200182815260200194505050505060405180910390a15050565b60075481565b600e6020528060005260406000206000915054906101000a900460ff1681565b60055481565b60026000541415612f71576040517f08c379a000000000000000000000000000000000000000000000000000000000815260040180806020018281038252601f8152602001807f5265656e7472616e637947756172643a207265656e7472616e742063616c6c0081525060200191505060405180910390fd5b6002600081905550600460009054906101000a900473ffffffffffffffffffffffffffffffffffffffff1673ffffffffffffffffffffffffffffffffffffffff166323b872dd3330846040518463ffffffff1660e01b8152600401808473ffffffffffffffffffffffffffffffffffffffff1673ffffffffffffffffffffffffffffffffffffffff1681526020018373ffffffffffffffffffffffffffffffffffffffff1673ffffffffffffffffffffffffffffffffffffffff1681526020018281526020019350505050602060405180830381600087803b15801561305657600080fd5b505af115801561306a573d6000803e3d6000fd5b505050506040513d602081101561308057600080fd5b8101908080519060200190929190505050507f395c1684516ae2d9902cf8f721a9ca0a0ee575e9381b5e0e11e129ba10904579338383604051808473ffffffffffffffffffffffffffffffffffffffff1673ffffffffffffffffffffffffffffffffffffffff168152602001838152602001828152602001935050505060405180910390a16000600f54905060008290506000600f541180156131255750600f548410155b156134fe575b60008111801561313b5750838211155b8015613148575060008214155b156134fd576000600190506000600d60008581526020019081526020016000206000015490505b600e600085815260200190815260200160002060009054906101000a900460ff1660ff168260ff16111580156131a55750600083115b156134f357600c600085815260200190815260200160002060008360ff1660ff16815260200190815260200160002060010154831061342f57600e600085815260200190815260200160002060009054906101000a900460ff1660ff168260ff161415613268576000811115613232576000600d6000838152602001908152602001600020600101819055505b600d600085815260200190815260200160002060008082016000905560018201600090556002820160009055505080600f819055505b6132a8600c600086815260200190815260200160002060008460ff1660ff168152602001908152602001600020600101548461428a90919063ffffffff16565b9250600c600085815260200190815260200160002060008360ff1660ff168152602001908152602001600020600080820160006101000a81549073ffffffffffffffffffffffffffffffffffffffff0219169055600182016000905550506001600e600086815260200190815260200160002060008282829054906101000a900460ff160392506101000a81548160ff021916908360ff160217905550600660009054906101000a900473ffffffffffffffffffffffffffffffffffffffff1673ffffffffffffffffffffffffffffffffffffffff1663a9059cbb33876040518363ffffffff1660e01b8152600401808373ffffffffffffffffffffffffffffffffffffffff1673ffffffffffffffffffffffffffffffffffffffff16815260200182815260200192505050602060405180830381600087803b1580156133ee57600080fd5b505af1158015613402573d6000803e3d6000fd5b505050506040513d602081101561341857600080fd5b8101908080519060200190929190505050506134e8565b61345883600d60008781526020019081526020016000206002015461428a90919063ffffffff16565b600d6000868152602001908152602001600020600201819055506134b283600c600087815260200190815260200160002060008560ff1660ff1681526020019081526020016000206001015461428a90919063ffffffff16565b600c600086815260200190815260200160002060008460ff1660ff16815260200190815260200160002060010181905550600092505b60018201915061316f565b809350505061312b565b5b600081111561351257613511848261430d565b5b505060016000819055505050565b600061352a613e3e565b9050818111156135a2576040517f08c379a00000000000000000000000000000000000000000000000000000000081526004018080602001828103825260048152602001807f6661696c0000000000000000000000000000000000000000000000000000000081525060200191505060405180910390fd5b82600460009054906101000a900473ffffffffffffffffffffffffffffffffffffffff1673ffffffffffffffffffffffffffffffffffffffff166370a08231336040518263ffffffff1660e01b8152600401808273ffffffffffffffffffffffffffffffffffffffff1673ffffffffffffffffffffffffffffffffffffffff16815260200191505060206040518083038186803b15801561364257600080fd5b505afa158015613656573d6000803e3d6000fd5b505050506040513d602081101561366c57600080fd5b8101908080519060200190929190505050101561368857600080fd5b600081848161369357fe5b049050803073ffffffffffffffffffffffffffffffffffffffff163110156136ba57600080fd5b600460009054906101000a900473ffffffffffffffffffffffffffffffffffffffff1673ffffffffffffffffffffffffffffffffffffffff166323b872dd3330876040518463ffffffff1660e01b8152600401808473ffffffffffffffffffffffffffffffffffffffff1673ffffffffffffffffffffffffffffffffffffffff1681526020018373ffffffffffffffffffffffffffffffffffffffff1673ffffffffffffffffffffffffffffffffffffffff1681526020018281526020019350505050602060405180830381600087803b15801561379757600080fd5b505af11580156137ab573d6000803e3d6000fd5b505050506040513d60208110156137c157600080fd5b8101908080519060200190929190505050503373ffffffffffffffffffffffffffffffffffffffff166108fc829081150290604051600060405180830381858888f19350505050158015613819573d6000803e3d6000fd5b507f697c42d55a5e1fed3f464ec6f38b32546a0bd368dc8068b065c67566d73f329033600460009054906101000a900473ffffffffffffffffffffffffffffffffffffffff1686600554604051808573ffffffffffffffffffffffffffffffffffffffff1673ffffffffffffffffffffffffffffffffffffffff1681526020018473ffffffffffffffffffffffffffffffffffffffff1673ffffffffffffffffffffffffffffffffffffffff16815260200183815260200182815260200194505050505060405180910390a150505050565b60006138f5613e3e565b90508181111561396d576040517f08c379a00000000000000000000000000000000000000000000000000000000081526004018080602001828103825260048152602001807f6661696c0000000000000000000000000000000000000000000000000000000081525060200191505060405180910390fd5b600081848161397857fe5b04905080600460009054906101000a900473ffffffffffffffffffffffffffffffffffffffff1673ffffffffffffffffffffffffffffffffffffffff166370a08231306040518263ffffffff1660e01b8152600401808273ffffffffffffffffffffffffffffffffffffffff1673ffffffffffffffffffffffffffffffffffffffff16815260200191505060206040518083038186803b158015613a1b57600080fd5b505afa158015613a2f573d6000803e3d6000fd5b505050506040513d6020811015613a4557600080fd5b81019080805190602001909291905050501015613a6157600080fd5b83600660009054906101000a900473ffffffffffffffffffffffffffffffffffffffff1673ffffffffffffffffffffffffffffffffffffffff166370a08231336040518263ffffffff1660e01b8152600401808273ffffffffffffffffffffffffffffffffffffffff1673ffffffffffffffffffffffffffffffffffffffff16815260200191505060206040518083038186803b158015613b0157600080fd5b505afa158015613b15573d6000803e3d6000fd5b505050506040513d6020811015613b2b57600080fd5b81019080805190602001909291905050501015613b4757600080fd5b600660009054906101000a900473ffffffffffffffffffffffffffffffffffffffff1673ffffffffffffffffffffffffffffffffffffffff166323b872dd3330876040518463ffffffff1660e01b8152600401808473ffffffffffffffffffffffffffffffffffffffff1673ffffffffffffffffffffffffffffffffffffffff1681526020018373ffffffffffffffffffffffffffffffffffffffff1673ffffffffffffffffffffffffffffffffffffffff1681526020018281526020019350505050602060405180830381600087803b158015613c2457600080fd5b505af1158015613c38573d6000803e3d6000fd5b505050506040513d6020811015613c4e57600080fd5b810190808051906020019092919050505050600460009054906101000a900473ffffffffffffffffffffffffffffffffffffffff1673ffffffffffffffffffffffffffffffffffffffff1663a9059cbb33836040518363ffffffff1660e01b8152600401808373ffffffffffffffffffffffffffffffffffffffff1673ffffffffffffffffffffffffffffffffffffffff16815260200182815260200192505050602060405180830381600087803b158015613d0957600080fd5b505af1158015613d1d573d6000803e3d6000fd5b505050506040513d6020811015613d3357600080fd5b8101908080519060200190929190505050507f587eb660c49126e1f0a78ee8c9700e2fa814bf2a3c1d29bb62ab66895ae49e4433600660009054906101000a900473ffffffffffffffffffffffffffffffffffffffff168685604051808573ffffffffffffffffffffffffffffffffffffffff1673ffffffffffffffffffffffffffffffffffffffff1681526020018473ffffffffffffffffffffffffffffffffffffffff1673ffffffffffffffffffffffffffffffffffffffff16815260200183815260200182815260200194505050505060405180910390a150505050565b600d6020528060005260406000206000915090508060000154908060010154908060020154905083565b600080600a423342604051602001808481526020018373ffffffffffffffffffffffffffffffffffffffff1673ffffffffffffffffffffffffffffffffffffffff1660601b815260140182815260200193505050506040516020818303038152906040528051906020012060001c81613eb357fe5b069050605a810190508091505090565b60008211613f1c576040517f08c379a00000000000000000000000000000000000000000000000000000000081526004018080602001828103825260268152602001806146756026913960400191505060405180910390fd5b6001600e600084815260200190815260200160002060008282829054906101000a900460ff160192506101000a81548160ff021916908360ff16021790555060405180604001604052803373ffffffffffffffffffffffffffffffffffffffff16815260200182815250600c60008481526020019081526020016000206000600e600086815260200190815260200160002060009054906101000a900460ff1660ff1660ff16815260200190815260200160002060008201518160000160006101000a81548173ffffffffffffffffffffffffffffffffffffffff021916908373ffffffffffffffffffffffffffffffffffffffff1602179055506020820151816001015590505080600d6000848152602001908152602001600020600201600082825401925050819055507f081eb72a4c7e8ff00d118fa2f8d69a19b4f33a4cfd9b77f39a92a67322c9322e338383604051808473ffffffffffffffffffffffffffffffffffffffff1673ffffffffffffffffffffffffffffffffffffffff168152602001838152602001828152602001935050505060405180910390a16000600f5414156140d25781600f81905550614286565b600f548210156141225781600d6000600f54815260200190815260200160002060010181905550600f54600d60008481526020019081526020016000206000018190555081600f81905550614286565b600f5482141561413157614286565b6000600f5490505b80831015801561416057506000600d60008381526020019081526020016000206000015414155b1561418357600d6000828152602001908152602001600020600001549050614139565b828110156141c25780600d60008581526020019081526020016000206001018190555082600d6000838152602001908152602001600020600001819055505b82811180156141e65750600d60008281526020019081526020016000206001015483115b1561428457600d600082815260200190815260200160002060010154600d60008581526020019081526020016000206001018190555080600d60008581526020019081526020016000206000018190555082600d6000600d60008581526020019081526020016000206001015481526020019081526020016000206000018190555082600d6000838152602001908152602001600020600101819055505b505b5050565b600082821115614302576040517f08c379a000000000000000000000000000000000000000000000000000000000815260040180806020018281038252601e8152602001807f536166654d6174683a207375627472616374696f6e206f766572666c6f77000081525060200191505060405180910390fd5b818303905092915050565b60008211614366576040517f08c379a00000000000000000000000000000000000000000000000000000000081526004018080602001828103825260268152602001806146756026913960400191505060405180910390fd5b6001600a600084815260200190815260200160002060008282829054906101000a900460ff160192506101000a81548160ff021916908360ff16021790555060405180604001604052803373ffffffffffffffffffffffffffffffffffffffff16815260200182815250600860008481526020019081526020016000206000600a600086815260200190815260200160002060009054906101000a900460ff1660ff1660ff16815260200190815260200160002060008201518160000160006101000a81548173ffffffffffffffffffffffffffffffffffffffff021916908373ffffffffffffffffffffffffffffffffffffffff160217905550602082015181600101559050508060096000848152602001908152602001600020600201540160096000848152602001908152602001600020600201819055507f81016ab66655ba3ad044b708d3e812b7d8d777633f2883d4bdbd346e8878edac338383604051808473ffffffffffffffffffffffffffffffffffffffff1673ffffffffffffffffffffffffffffffffffffffff168152602001838152602001828152602001935050505060405180910390a16000600b54141561452b5781600b81905550614670565b600b5482111561457b578160096000600b54815260200190815260200160002060000181905550600b54600960008481526020019081526020016000206001018190555081600b81905550614670565b600b5482141561458a57614670565b6000600b5490505b8083116145b75760096000828152602001908152602001600020600101549050614592565b600960008281526020019081526020016000206000015483101561466e5760096000828152602001908152602001600020600001546009600085815260200190815260200160002060000181905550806009600085815260200190815260200160002060010181905550826009600060096000858152602001908152602001600020600001548152602001908152602001600020600101819055508260096000838152602001908152602001600020600001819055505b505b505056fe43616e206e6f7420706c616365206f72646572207769746820707269636520657175616c2030a26469706673582212200f17bf56c4f61979d57f0325c135e509d44f07f87a1bdd022ec8fb0889328dcd64736f6c63430006080033",
  "immutableReferences": {},
  "source": "pragma solidity >=0.6.8;\n\nimport \"./CoolToken.sol\";\nimport \"./SecondToken.sol\";\nimport {IOrderBook} from \"./interfaces/IOrderBook.sol\";\nimport {ReentrancyGuard} from \"@openzeppelin/contracts/utils/ReentrancyGuard.sol\";\nimport {SafeMath} from \"@openzeppelin/contracts/math/SafeMath.sol\";\nimport {Math} from \"@openzeppelin/contracts/math/Math.sol\";\nimport {SafeERC20} from \"@openzeppelin/contracts/token/ERC20/SafeERC20.sol\";\nimport {IERC20} from \"@openzeppelin/contracts/token/ERC20/IERC20.sol\";\n\ncontract EthSwap is IOrderBook, ReentrancyGuard {\n    using SafeMath for uint256;\n    using SafeMath for uint8;\n    using Math for uint256;\n    using SafeERC20 for IERC20;\n    IERC20 public tradeToken;\n    IERC20 public baseToken;\n\n    string public name = \"EthSwap Instant Exchange\";\n    CoolToken public coolToken; // variable that represents token smart contract.\n    uint256 public coolRate = 100; //uint means unsigned, no decimal and positive\n\n    // This is just the code, does not tell us where the smart contract is.\n    // It requires constructor\n    SecondToken public secondToken;\n    uint256 public secondRate = 5; //uint means unsigned, no decimal and positive\n\n    ///////////////////////////\n    mapping(uint256 => mapping(uint8 => Order)) public buyOrdersInStep;\n    mapping(uint256 => Step) public buySteps;\n    mapping(uint256 => uint8) public buyOrdersInStepCounter;\n    uint256 public maxBuyPrice;\n\n    mapping(uint256 => mapping(uint8 => Order)) public sellOrdersInStep;\n    mapping(uint256 => Step) public sellSteps;\n    mapping(uint256 => uint8) public sellOrdersInStepCounter;\n    uint256 public minSellPrice;\n    ////////////////////////////\n\n    event TokensPurchased(\n        address account,\n        address token,\n        uint256 amount,\n        uint256 rate\n    );\n\n    event SecondTokensPurchased(\n        address account,\n        address token,\n        uint256 amount,\n        uint256 rate\n    );\n\n    event TokensSold(\n        address account,\n        address token,\n        uint256 amount,\n        uint256 rate\n    );\n\n    event SecondTokensSold(\n        address account,\n        address token,\n        uint256 amount,\n        uint256 rate\n    );\n\n    constructor(CoolToken _coolToken, SecondToken _secondToken) public {\n        //pass the address of the Token in\n        coolToken = _coolToken;\n        secondToken = _secondToken;\n    }\n\n    function random() internal returns (uint256) {\n        uint256 randomnumber = uint256(\n            keccak256(\n                abi.encodePacked(block.timestamp, msg.sender, block.timestamp)\n            )\n        ) % 10;\n        randomnumber = randomnumber + 90;\n        return randomnumber;\n    }\n\n    function buyCoolTokens() public payable {\n        // Calculate the number of tokens to buy\n        uint256 tokenAmount = msg.value * coolRate; //msg.value = how much ether was sent\n\n        // Require that EthSwap has enough tokens\n        require(coolToken.balanceOf(address(this)) >= tokenAmount);\n\n        // Transfer tokens to the user\n        coolToken.transfer(msg.sender, tokenAmount);\n\n        // Emit an event\n        emit TokensPurchased(\n            msg.sender,\n            address(coolToken),\n            tokenAmount,\n            coolRate\n        );\n    }\n\n    function limitBuyCoolTokens(uint256 _rate) public payable {\n        uint256 testrate = random();\n\n        require(testrate >= _rate, \"fail\");\n        // Calculate the number of tokens to buy\n        uint256 tokenAmount = msg.value * testrate; //msg.value = how much ether was sent\n\n        // Require that EthSwap has enough tokens\n        require(coolToken.balanceOf(address(this)) >= tokenAmount);\n\n        // Transfer tokens to the user\n        coolToken.transfer(msg.sender, tokenAmount);\n\n        // Emit an event\n        emit TokensPurchased(\n            msg.sender,\n            address(coolToken),\n            tokenAmount,\n            testrate\n        );\n    }\n\n    function sellCoolTokens(uint256 _amount) public {\n        // User can't sell more tokens than they have\n        require(coolToken.balanceOf(msg.sender) >= _amount);\n\n        // Calculate the amount of Ether to redeem\n        uint256 etherAmount = _amount / coolRate;\n\n        // Require that EthSwap has enough Ether\n        require(address(this).balance >= etherAmount);\n\n        // Perform sale\n        coolToken.transferFrom(msg.sender, address(this), _amount);\n        msg.sender.transfer(etherAmount);\n\n        // Emit an event\n        emit TokensSold(msg.sender, address(coolToken), _amount, coolRate);\n    }\n\n    function limitSellCoolTokens(uint256 _amount, uint256 _rate) public {\n        uint256 testrate = random();\n\n        require(testrate <= _rate, \"fail\");\n        // User can't sell more tokens than they have\n        require(coolToken.balanceOf(msg.sender) >= _amount);\n\n        // // Calculate the amount of Ether to redeem\n        uint256 etherAmount = _amount / testrate;\n\n        // Require that EthSwap has enough Ether\n        require(address(this).balance >= etherAmount);\n\n        // Perform sale\n        coolToken.transferFrom(msg.sender, address(this), _amount);\n        msg.sender.transfer(etherAmount);\n\n        // // Emit an event\n        emit TokensSold(msg.sender, address(coolToken), _amount, coolRate);\n    }\n\n    function buySecondTokensFromCool(uint256 _coolAmount) public {\n        // Check if there is sufficient cool token in buyer acc\n        require(coolToken.balanceOf(msg.sender) >= _coolAmount);\n        // Calculate the amount of cool token to redeem\n        uint256 secondAmount = _coolAmount * secondRate;\n        // Check that there is enough seocond Token in ethSwap\n        require(secondToken.balanceOf(address(this)) >= secondAmount);\n\n        // Perform sale (this 2 method might be the problem)\n        // secondToken.transferFrom(address(this), msg.sender, secondAmount);\n        secondToken.transfer(msg.sender, secondAmount);\n        coolToken.transferFrom(msg.sender, address(this), _coolAmount);\n        // Emit an event\n        emit SecondTokensPurchased(\n            msg.sender,\n            address(secondToken),\n            secondAmount,\n            secondRate\n        );\n    }\n\n    function limitBuySecondTokens(uint256 _coolAmount, uint256 _secondRate)\n        public\n    {\n        uint256 testrate = random();\n        require(testrate >= _secondRate, \"fail\");\n        // Check if there is sufficient cool token in buyer acc\n        require(coolToken.balanceOf(msg.sender) >= _coolAmount);\n        // Calculate the amount of cool token to redeem\n        uint256 secondAmount = _coolAmount * testrate;\n        // Check that there is enough seocond Token in ethSwap\n        require(secondToken.balanceOf(address(this)) >= secondAmount);\n\n        // Perform sale (this 2 method might be the problem)\n        // secondToken.transferFrom(address(this), msg.sender, secondAmount);\n        secondToken.transfer(msg.sender, secondAmount);\n        coolToken.transferFrom(msg.sender, address(this), _coolAmount);\n        // Emit an event\n        emit SecondTokensPurchased(\n            msg.sender,\n            address(secondToken),\n            secondAmount,\n            testrate\n        );\n    }\n\n    function sellSecondTokensFromCool(uint256 _secondAmount) public {\n        // Calculate the amount of cool token to redeem\n        uint256 coolAmount = _secondAmount / secondRate;\n\n        // Check that there is enough cool Token in ethSwap\n        require(coolToken.balanceOf(address(this)) >= coolAmount);\n\n        // Check if there is sufficient second token in buyer acc\n        require(secondToken.balanceOf(msg.sender) >= _secondAmount);\n\n        // Perform sale\n        secondToken.transferFrom(msg.sender, address(this), _secondAmount);\n        coolToken.transfer(msg.sender, coolAmount);\n\n        // Emit an event\n        emit SecondTokensSold(\n            msg.sender,\n            address(secondToken),\n            _secondAmount,\n            secondRate\n        );\n    }\n\n    function limitSellSecondTokens(uint256 _secondAmount, uint256 _secondRate)\n        public\n    {\n        uint256 testrate = random();\n        require(testrate <= _secondRate, \"fail\");\n        // Calculate the amount of cool token to redeem\n        uint256 coolAmount = _secondAmount / testrate;\n\n        // Check that there is enough cool Token in ethSwap\n        require(coolToken.balanceOf(address(this)) >= coolAmount);\n\n        // Check if there is sufficient second token in buyer acc\n        require(secondToken.balanceOf(msg.sender) >= _secondAmount);\n\n        // Perform sale\n        secondToken.transferFrom(msg.sender, address(this), _secondAmount);\n        coolToken.transfer(msg.sender, coolAmount);\n\n        // Emit an event\n        emit SecondTokensSold(\n            msg.sender,\n            address(secondToken),\n            _secondAmount,\n            testrate\n        );\n    }\n\n    function buySecondTokens() public payable {\n        // Calculate the number of tokens to buy\n        uint256 tokenAmount = msg.value * secondRate; //msg.value = how much ether was sent\n\n        // Require that EthSwap has enough tokens\n        require(secondToken.balanceOf(address(this)) >= tokenAmount);\n\n        // Transfer tokens to the user\n        secondToken.transfer(msg.sender, tokenAmount);\n\n        // Emit an event\n        emit TokensPurchased(\n            msg.sender,\n            address(secondToken),\n            tokenAmount,\n            secondRate\n        );\n    }\n\n    function sellSecondTokens(uint256 _amount) public {\n        // User can't sell more tokens than they have\n        require(secondToken.balanceOf(msg.sender) >= _amount);\n\n        // Calculate the amount of Ether to redeem\n        uint256 etherAmount = _amount / secondRate;\n\n        // Require that EthSwap has enough Ether\n        require(address(this).balance >= etherAmount);\n\n        // Perform sale\n        secondToken.transferFrom(msg.sender, address(this), _amount);\n        msg.sender.transfer(etherAmount);\n\n        // Emit an event\n        emit TokensSold(msg.sender, address(secondToken), _amount, secondRate);\n    }\n\n    ///////////////////////////////////////////////////////////////////////// ORDERBOOK //////////////////////////////////////////////////////////////////////////////////////////\n\n    function placeBuyOrder(uint256 price, uint256 amountOfBaseToken)\n        external\n        override\n        nonReentrant\n    {\n        coolToken.transferFrom(msg.sender, address(this), amountOfBaseToken);\n        emit PlaceBuyOrder(msg.sender, price, amountOfBaseToken);\n\n        /**\n         * @notice if has order in sell book, and price >= min sell price\n         */\n        uint256 sellPricePointer = minSellPrice;\n        uint256 amountReflect = amountOfBaseToken;\n        if (minSellPrice > 0 && price >= minSellPrice) {\n            while (\n                amountReflect > 0 &&\n                sellPricePointer <= price &&\n                sellPricePointer != 0\n            ) {\n                uint8 i = 1;\n                uint256 higherPrice = sellSteps[sellPricePointer].higherPrice;\n                while (\n                    i <= sellOrdersInStepCounter[sellPricePointer] &&\n                    amountReflect > 0\n                ) {\n                    if (\n                        amountReflect >=\n                        sellOrdersInStep[sellPricePointer][i].amount\n                    ) {\n                        //if the last order has been matched, delete the step\n                        if (i == sellOrdersInStepCounter[sellPricePointer]) {\n                            if (higherPrice > 0)\n                                sellSteps[higherPrice].lowerPrice = 0;\n                            delete sellSteps[sellPricePointer];\n                            minSellPrice = higherPrice;\n                        }\n\n                        amountReflect = amountReflect.sub(\n                            sellOrdersInStep[sellPricePointer][i].amount\n                        );\n\n                        // delete order from storage\n                        delete sellOrdersInStep[sellPricePointer][i];\n                        sellOrdersInStepCounter[sellPricePointer] -= 1;\n                        secondToken.transfer(msg.sender, amountOfBaseToken);\n                    } else {\n                        sellSteps[sellPricePointer].amount = sellSteps[\n                            sellPricePointer\n                        ].amount.sub(amountReflect);\n                        sellOrdersInStep[sellPricePointer][i]\n                            .amount = sellOrdersInStep[sellPricePointer][i]\n                            .amount\n                            .sub(amountReflect);\n                        amountReflect = 0;\n                    }\n                    i += 1;\n                }\n                sellPricePointer = higherPrice;\n            }\n        }\n        /**\n         * @notice draw to buy book the rest\n         */\n        if (amountReflect > 0) {\n            _drawToBuyBook(price, amountReflect);\n        }\n    }\n\n    /**\n     * @notice Place buy order.\n     */\n    function placeSellOrder(uint256 price, uint256 amountOfTradeToken)\n        external\n        override\n        nonReentrant\n    {\n        secondToken.transferFrom(msg.sender, address(this), amountOfTradeToken);\n        emit PlaceSellOrder(msg.sender, price, amountOfTradeToken);\n\n        /**\n         * @notice if has order in buy book, and price <= max buy price\n         */\n        uint256 buyPricePointer = maxBuyPrice;\n        uint256 amountReflect = amountOfTradeToken;\n        if (maxBuyPrice > 0 && price <= maxBuyPrice) {\n            while (\n                amountReflect > 0 &&\n                buyPricePointer >= price &&\n                buyPricePointer != 0\n            ) {\n                uint8 i = 1;\n                uint256 lowerPrice = buySteps[buyPricePointer].lowerPrice;\n                while (\n                    i <= buyOrdersInStepCounter[buyPricePointer] &&\n                    amountReflect > 0\n                ) {\n                    if (\n                        amountReflect >=\n                        buyOrdersInStep[buyPricePointer][i].amount\n                    ) {\n                        //if the last order has been matched, delete the step\n                        if (i == buyOrdersInStepCounter[buyPricePointer]) {\n                            if (lowerPrice > 0)\n                                buySteps[lowerPrice].higherPrice = 0;\n                            delete buySteps[buyPricePointer];\n                            maxBuyPrice = lowerPrice;\n                        }\n\n                        amountReflect =\n                            amountReflect -\n                            (buyOrdersInStep[buyPricePointer][i].amount);\n\n                        // delete order from storage\n                        delete buyOrdersInStep[buyPricePointer][i];\n                        buyOrdersInStepCounter[buyPricePointer] -= 1;\n                        coolToken.transfer(msg.sender, amountOfTradeToken);\n                    } else {\n                        buySteps[buyPricePointer].amount =\n                            buySteps[buyPricePointer].amount -\n                            (amountReflect);\n                        buyOrdersInStep[buyPricePointer][i].amount =\n                            buyOrdersInStep[buyPricePointer][i].amount -\n                            (amountReflect);\n                        amountReflect = 0;\n                    }\n                    i += 1;\n                }\n                buyPricePointer = lowerPrice;\n            }\n        }\n        /**\n         * @notice draw to buy book the rest\n         */\n        if (amountReflect > 0) {\n            _drawToSellBook(price, amountReflect);\n        }\n    }\n\n    /**\n     * @notice draw buy order.\n     */\n    function _drawToBuyBook(uint256 price, uint256 amount) internal {\n        require(price > 0, \"Can not place order with price equal 0\");\n\n        buyOrdersInStepCounter[price] += 1;\n        buyOrdersInStep[price][buyOrdersInStepCounter[price]] = Order(\n            msg.sender,\n            amount\n        );\n        buySteps[price].amount = buySteps[price].amount + (amount);\n        emit DrawToBuyBook(msg.sender, price, amount);\n\n        if (maxBuyPrice == 0) {\n            maxBuyPrice = price;\n            return;\n        }\n\n        if (price > maxBuyPrice) {\n            buySteps[maxBuyPrice].higherPrice = price;\n            buySteps[price].lowerPrice = maxBuyPrice;\n            maxBuyPrice = price;\n            return;\n        }\n\n        if (price == maxBuyPrice) {\n            return;\n        }\n\n        uint256 buyPricePointer = maxBuyPrice;\n        while (price <= buyPricePointer) {\n            buyPricePointer = buySteps[buyPricePointer].lowerPrice;\n        }\n\n        if (price < buySteps[buyPricePointer].higherPrice) {\n            buySteps[price].higherPrice = buySteps[buyPricePointer].higherPrice;\n            buySteps[price].lowerPrice = buyPricePointer;\n\n            buySteps[buySteps[buyPricePointer].higherPrice].lowerPrice = price;\n            buySteps[buyPricePointer].higherPrice = price;\n        }\n    }\n\n    /**\n     * @notice draw sell order.\n     */\n    function _drawToSellBook(uint256 price, uint256 amount) internal {\n        require(price > 0, \"Can not place order with price equal 0\");\n\n        sellOrdersInStepCounter[price] += 1;\n        sellOrdersInStep[price][sellOrdersInStepCounter[price]] = Order(\n            msg.sender,\n            amount\n        );\n        sellSteps[price].amount += amount;\n        emit DrawToSellBook(msg.sender, price, amount);\n\n        if (minSellPrice == 0) {\n            minSellPrice = price;\n            return;\n        }\n\n        if (price < minSellPrice) {\n            sellSteps[minSellPrice].lowerPrice = price;\n            sellSteps[price].higherPrice = minSellPrice;\n            minSellPrice = price;\n            return;\n        }\n\n        if (price == minSellPrice) {\n            return;\n        }\n\n        uint256 sellPricePointer = minSellPrice;\n        while (\n            price >= sellPricePointer &&\n            sellSteps[sellPricePointer].higherPrice != 0\n        ) {\n            sellPricePointer = sellSteps[sellPricePointer].higherPrice;\n        }\n\n        if (sellPricePointer < price) {\n            sellSteps[price].lowerPrice = sellPricePointer;\n            sellSteps[sellPricePointer].higherPrice = price;\n        }\n\n        if (\n            sellPricePointer > price &&\n            price > sellSteps[sellPricePointer].lowerPrice\n        ) {\n            sellSteps[price].lowerPrice = sellSteps[sellPricePointer]\n                .lowerPrice;\n            sellSteps[price].higherPrice = sellPricePointer;\n\n            sellSteps[sellSteps[sellPricePointer].lowerPrice]\n                .higherPrice = price;\n            sellSteps[sellPricePointer].lowerPrice = price;\n        }\n    }\n}\n",
  "sourcePath": "/Users/weerenteo/Documents/Year 4 Sem 2/CZ4153 Blockchain Technology/Project/Blockchain-DEX/src/contracts/EthSwap.sol",
  "compiler": {
    "name": "solc",
    "version": "0.6.8+commit.0bbfe453.Emscripten.clang"
  },
  "schemaVersion": "3.4.10",
  "updatedAt": "2022-11-02T07:17:14.350Z",
  "networkType": "ethereum",
  "devdoc": {
    "methods": {}
  },
  "userdoc": {
    "methods": {
      "placeBuyOrder(uint256,uint256)": {
        "notice": "////////////////////////////////////////////////////////////////////// ORDERBOOK //////////////////////////////////////////////////////////////////////////////////////////"
      },
      "placeSellOrder(uint256,uint256)": {
        "notice": "Place buy order."
      }
    }
  }
}