{
  "contractName": "EthSwap",
  "abi": [
    {
      "inputs": [
        {
          "internalType": "contract Token",
          "name": "_token",
          "type": "address"
        },
        {
          "internalType": "contract SecondToken",
          "name": "_secondToken",
          "type": "address"
        }
      ],
      "payable": false,
      "stateMutability": "nonpayable",
      "type": "constructor"
    },
    {
      "anonymous": false,
      "inputs": [
        {
          "indexed": false,
          "internalType": "address",
          "name": "account",
          "type": "address"
        },
        {
          "indexed": false,
          "internalType": "address",
          "name": "token",
          "type": "address"
        },
        {
          "indexed": false,
          "internalType": "uint256",
          "name": "amount",
          "type": "uint256"
        },
        {
          "indexed": false,
          "internalType": "uint256",
          "name": "rate",
          "type": "uint256"
        }
      ],
      "name": "SecondTokensPurchased",
      "type": "event"
    },
    {
      "anonymous": false,
      "inputs": [
        {
          "indexed": false,
          "internalType": "address",
          "name": "account",
          "type": "address"
        },
        {
          "indexed": false,
          "internalType": "address",
          "name": "token",
          "type": "address"
        },
        {
          "indexed": false,
          "internalType": "uint256",
          "name": "amount",
          "type": "uint256"
        },
        {
          "indexed": false,
          "internalType": "uint256",
          "name": "rate",
          "type": "uint256"
        }
      ],
      "name": "SecondTokensSold",
      "type": "event"
    },
    {
      "anonymous": false,
      "inputs": [
        {
          "indexed": false,
          "internalType": "address",
          "name": "account",
          "type": "address"
        },
        {
          "indexed": false,
          "internalType": "address",
          "name": "token",
          "type": "address"
        },
        {
          "indexed": false,
          "internalType": "uint256",
          "name": "amount",
          "type": "uint256"
        },
        {
          "indexed": false,
          "internalType": "uint256",
          "name": "rate",
          "type": "uint256"
        }
      ],
      "name": "TokensPurchased",
      "type": "event"
    },
    {
      "anonymous": false,
      "inputs": [
        {
          "indexed": false,
          "internalType": "address",
          "name": "account",
          "type": "address"
        },
        {
          "indexed": false,
          "internalType": "address",
          "name": "token",
          "type": "address"
        },
        {
          "indexed": false,
          "internalType": "uint256",
          "name": "amount",
          "type": "uint256"
        },
        {
          "indexed": false,
          "internalType": "uint256",
          "name": "rate",
          "type": "uint256"
        }
      ],
      "name": "TokensSold",
      "type": "event"
    },
    {
      "constant": true,
      "inputs": [],
      "name": "name",
      "outputs": [
        {
          "internalType": "string",
          "name": "",
          "type": "string"
        }
      ],
      "payable": false,
      "stateMutability": "view",
      "type": "function"
    },
    {
      "constant": true,
      "inputs": [],
      "name": "rate",
      "outputs": [
        {
          "internalType": "uint256",
          "name": "",
          "type": "uint256"
        }
      ],
      "payable": false,
      "stateMutability": "view",
      "type": "function"
    },
    {
      "constant": true,
      "inputs": [],
      "name": "secondRate",
      "outputs": [
        {
          "internalType": "uint256",
          "name": "",
          "type": "uint256"
        }
      ],
      "payable": false,
      "stateMutability": "view",
      "type": "function"
    },
    {
      "constant": true,
      "inputs": [],
      "name": "secondToken",
      "outputs": [
        {
          "internalType": "contract SecondToken",
          "name": "",
          "type": "address"
        }
      ],
      "payable": false,
      "stateMutability": "view",
      "type": "function"
    },
    {
      "constant": true,
      "inputs": [],
      "name": "token",
      "outputs": [
        {
          "internalType": "contract Token",
          "name": "",
          "type": "address"
        }
      ],
      "payable": false,
      "stateMutability": "view",
      "type": "function"
    },
    {
      "constant": false,
      "inputs": [
        {
          "internalType": "uint256",
          "name": "_rate",
          "type": "uint256"
        }
      ],
      "name": "buyTokens",
      "outputs": [],
      "payable": true,
      "stateMutability": "payable",
      "type": "function"
    },
    {
      "constant": false,
      "inputs": [
        {
          "internalType": "uint256",
          "name": "_amount",
          "type": "uint256"
        },
        {
          "internalType": "uint256",
          "name": "_rate",
          "type": "uint256"
        }
      ],
      "name": "sellTokens",
      "outputs": [],
      "payable": false,
      "stateMutability": "nonpayable",
      "type": "function"
    },
    {
      "constant": false,
      "inputs": [
        {
          "internalType": "uint256",
          "name": "_coolAmount",
          "type": "uint256"
        },
        {
          "internalType": "uint256",
          "name": "_secondRate",
          "type": "uint256"
        }
      ],
      "name": "buySecondTokens",
      "outputs": [],
      "payable": false,
      "stateMutability": "nonpayable",
      "type": "function"
    },
    {
      "constant": false,
      "inputs": [
        {
          "internalType": "uint256",
          "name": "_secondAmount",
          "type": "uint256"
        },
        {
          "internalType": "uint256",
          "name": "_secondRate",
          "type": "uint256"
        }
      ],
      "name": "sellSecondTokens",
      "outputs": [],
      "payable": false,
      "stateMutability": "nonpayable",
      "type": "function"
    }
  ],
  "bytecode": "0x60806040526040518060400160405280601881526020017f4574685377617020496e7374616e742045786368616e67650000000000000000815250600090805190602001906200005192919062000134565b50606460025560056004553480156200006957600080fd5b506040516200175438038062001754833981810160405260408110156200008f57600080fd5b81019080805190602001909291908051906020019092919050505081600160006101000a81548173ffffffffffffffffffffffffffffffffffffffff021916908373ffffffffffffffffffffffffffffffffffffffff16021790555080600360006101000a81548173ffffffffffffffffffffffffffffffffffffffff021916908373ffffffffffffffffffffffffffffffffffffffff1602179055505050620001e3565b828054600181600116156101000203166002900490600052602060002090601f016020900481019282601f106200017757805160ff1916838001178555620001a8565b82800160010185558215620001a8579182015b82811115620001a75782518255916020019190600101906200018a565b5b509050620001b79190620001bb565b5090565b620001e091905b80821115620001dc576000816000905550600101620001c2565b5090565b90565b61156180620001f36000396000f3fe6080604052600436106100865760003560e01c80633610724e116100595780633610724e146101d05780633bfd49da146101fe578063e6a3326814610255578063ed9772b614610280578063fc0c546a146102c557610086565b806306fdde031461008b5780632c4e722e1461011b5780632e7512301461014657806332eb56a71461018b575b600080fd5b34801561009757600080fd5b506100a061031c565b6040518080602001828103825283818151815260200191508051906020019080838360005b838110156100e05780820151818401526020810190506100c5565b50505050905090810190601f16801561010d5780820380516001836020036101000a031916815260200191505b509250505060405180910390f35b34801561012757600080fd5b506101306103ba565b6040518082815260200191505060405180910390f35b34801561015257600080fd5b506101896004803603604081101561016957600080fd5b8101908080359060200190929190803590602001909291905050506103c0565b005b34801561019757600080fd5b506101ce600480360360408110156101ae57600080fd5b8101908080359060200190929190803590602001909291905050506108db565b005b6101fc600480360360208110156101e657600080fd5b8101908080359060200190929190505050610dfd565b005b34801561020a57600080fd5b50610213611118565b604051808273ffffffffffffffffffffffffffffffffffffffff1673ffffffffffffffffffffffffffffffffffffffff16815260200191505060405180910390f35b34801561026157600080fd5b5061026a61113e565b6040518082815260200191505060405180910390f35b34801561028c57600080fd5b506102c3600480360360408110156102a357600080fd5b810190808035906020019092919080359060200190929190505050611144565b005b3480156102d157600080fd5b506102da611506565b604051808273ffffffffffffffffffffffffffffffffffffffff1673ffffffffffffffffffffffffffffffffffffffff16815260200191505060405180910390f35b60008054600181600116156101000203166002900480601f0160208091040260200160405190810160405280929190818152602001828054600181600116156101000203166002900480156103b25780601f10610387576101008083540402835291602001916103b2565b820191906000526020600020905b81548152906001019060200180831161039557829003601f168201915b505050505081565b60025481565b806004541015610438576040517f08c379a00000000000000000000000000000000000000000000000000000000081526004018080602001828103825260048152602001807f6661696c0000000000000000000000000000000000000000000000000000000081525060200191505060405180910390fd5b81600160009054906101000a900473ffffffffffffffffffffffffffffffffffffffff1673ffffffffffffffffffffffffffffffffffffffff166370a08231336040518263ffffffff1660e01b8152600401808273ffffffffffffffffffffffffffffffffffffffff1673ffffffffffffffffffffffffffffffffffffffff16815260200191505060206040518083038186803b1580156104d857600080fd5b505afa1580156104ec573d6000803e3d6000fd5b505050506040513d602081101561050257600080fd5b8101908080519060200190929190505050101561051e57600080fd5b60006004548302905080600360009054906101000a900473ffffffffffffffffffffffffffffffffffffffff1673ffffffffffffffffffffffffffffffffffffffff166370a08231306040518263ffffffff1660e01b8152600401808273ffffffffffffffffffffffffffffffffffffffff1673ffffffffffffffffffffffffffffffffffffffff16815260200191505060206040518083038186803b1580156105c757600080fd5b505afa1580156105db573d6000803e3d6000fd5b505050506040513d60208110156105f157600080fd5b8101908080519060200190929190505050101561060d57600080fd5b600360009054906101000a900473ffffffffffffffffffffffffffffffffffffffff1673ffffffffffffffffffffffffffffffffffffffff1663a9059cbb33836040518363ffffffff1660e01b8152600401808373ffffffffffffffffffffffffffffffffffffffff1673ffffffffffffffffffffffffffffffffffffffff16815260200182815260200192505050602060405180830381600087803b1580156106b657600080fd5b505af11580156106ca573d6000803e3d6000fd5b505050506040513d60208110156106e057600080fd5b810190808051906020019092919050505050600160009054906101000a900473ffffffffffffffffffffffffffffffffffffffff1673ffffffffffffffffffffffffffffffffffffffff166323b872dd3330866040518463ffffffff1660e01b8152600401808473ffffffffffffffffffffffffffffffffffffffff1673ffffffffffffffffffffffffffffffffffffffff1681526020018373ffffffffffffffffffffffffffffffffffffffff1673ffffffffffffffffffffffffffffffffffffffff1681526020018281526020019350505050602060405180830381600087803b1580156107cf57600080fd5b505af11580156107e3573d6000803e3d6000fd5b505050506040513d60208110156107f957600080fd5b8101908080519060200190929190505050507f152ea40eda7e0eb8ad8a1995fb1b292a3823d40f7d3c3863661ca7df3866e7eb33600360009054906101000a900473ffffffffffffffffffffffffffffffffffffffff1683600454604051808573ffffffffffffffffffffffffffffffffffffffff1673ffffffffffffffffffffffffffffffffffffffff1681526020018473ffffffffffffffffffffffffffffffffffffffff1673ffffffffffffffffffffffffffffffffffffffff16815260200183815260200182815260200194505050505060405180910390a1505050565b806004541115610953576040517f08c379a00000000000000000000000000000000000000000000000000000000081526004018080602001828103825260048152602001807f6661696c0000000000000000000000000000000000000000000000000000000081525060200191505060405180910390fd5b6000600454838161096057fe5b04905080600160009054906101000a900473ffffffffffffffffffffffffffffffffffffffff1673ffffffffffffffffffffffffffffffffffffffff166370a08231306040518263ffffffff1660e01b8152600401808273ffffffffffffffffffffffffffffffffffffffff1673ffffffffffffffffffffffffffffffffffffffff16815260200191505060206040518083038186803b158015610a0357600080fd5b505afa158015610a17573d6000803e3d6000fd5b505050506040513d6020811015610a2d57600080fd5b81019080805190602001909291905050501015610a4957600080fd5b82600360009054906101000a900473ffffffffffffffffffffffffffffffffffffffff1673ffffffffffffffffffffffffffffffffffffffff166370a08231336040518263ffffffff1660e01b8152600401808273ffffffffffffffffffffffffffffffffffffffff1673ffffffffffffffffffffffffffffffffffffffff16815260200191505060206040518083038186803b158015610ae957600080fd5b505afa158015610afd573d6000803e3d6000fd5b505050506040513d6020811015610b1357600080fd5b81019080805190602001909291905050501015610b2f57600080fd5b600360009054906101000a900473ffffffffffffffffffffffffffffffffffffffff1673ffffffffffffffffffffffffffffffffffffffff166323b872dd3330866040518463ffffffff1660e01b8152600401808473ffffffffffffffffffffffffffffffffffffffff1673ffffffffffffffffffffffffffffffffffffffff1681526020018373ffffffffffffffffffffffffffffffffffffffff1673ffffffffffffffffffffffffffffffffffffffff1681526020018281526020019350505050602060405180830381600087803b158015610c0c57600080fd5b505af1158015610c20573d6000803e3d6000fd5b505050506040513d6020811015610c3657600080fd5b810190808051906020019092919050505050600160009054906101000a900473ffffffffffffffffffffffffffffffffffffffff1673ffffffffffffffffffffffffffffffffffffffff1663a9059cbb33836040518363ffffffff1660e01b8152600401808373ffffffffffffffffffffffffffffffffffffffff1673ffffffffffffffffffffffffffffffffffffffff16815260200182815260200192505050602060405180830381600087803b158015610cf157600080fd5b505af1158015610d05573d6000803e3d6000fd5b505050506040513d6020811015610d1b57600080fd5b8101908080519060200190929190505050507f587eb660c49126e1f0a78ee8c9700e2fa814bf2a3c1d29bb62ab66895ae49e4433600360009054906101000a900473ffffffffffffffffffffffffffffffffffffffff1685600454604051808573ffffffffffffffffffffffffffffffffffffffff1673ffffffffffffffffffffffffffffffffffffffff1681526020018473ffffffffffffffffffffffffffffffffffffffff1673ffffffffffffffffffffffffffffffffffffffff16815260200183815260200182815260200194505050505060405180910390a1505050565b806002541015610e75576040517f08c379a00000000000000000000000000000000000000000000000000000000081526004018080602001828103825260048152602001807f6661696c0000000000000000000000000000000000000000000000000000000081525060200191505060405180910390fd5b60006002543402905080600160009054906101000a900473ffffffffffffffffffffffffffffffffffffffff1673ffffffffffffffffffffffffffffffffffffffff166370a08231306040518263ffffffff1660e01b8152600401808273ffffffffffffffffffffffffffffffffffffffff1673ffffffffffffffffffffffffffffffffffffffff16815260200191505060206040518083038186803b158015610f1e57600080fd5b505afa158015610f32573d6000803e3d6000fd5b505050506040513d6020811015610f4857600080fd5b81019080805190602001909291905050501015610f6457600080fd5b600160009054906101000a900473ffffffffffffffffffffffffffffffffffffffff1673ffffffffffffffffffffffffffffffffffffffff1663a9059cbb33836040518363ffffffff1660e01b8152600401808373ffffffffffffffffffffffffffffffffffffffff1673ffffffffffffffffffffffffffffffffffffffff16815260200182815260200192505050602060405180830381600087803b15801561100d57600080fd5b505af1158015611021573d6000803e3d6000fd5b505050506040513d602081101561103757600080fd5b8101908080519060200190929190505050507f6faf93231a456e552dbc9961f58d9713ee4f2e69d15f1975b050ef0911053a7b33600160009054906101000a900473ffffffffffffffffffffffffffffffffffffffff1683600254604051808573ffffffffffffffffffffffffffffffffffffffff1673ffffffffffffffffffffffffffffffffffffffff1681526020018473ffffffffffffffffffffffffffffffffffffffff1673ffffffffffffffffffffffffffffffffffffffff16815260200183815260200182815260200194505050505060405180910390a15050565b600360009054906101000a900473ffffffffffffffffffffffffffffffffffffffff1681565b60045481565b8060025411156111bc576040517f08c379a00000000000000000000000000000000000000000000000000000000081526004018080602001828103825260048152602001807f6661696c0000000000000000000000000000000000000000000000000000000081525060200191505060405180910390fd5b81600160009054906101000a900473ffffffffffffffffffffffffffffffffffffffff1673ffffffffffffffffffffffffffffffffffffffff166370a08231336040518263ffffffff1660e01b8152600401808273ffffffffffffffffffffffffffffffffffffffff1673ffffffffffffffffffffffffffffffffffffffff16815260200191505060206040518083038186803b15801561125c57600080fd5b505afa158015611270573d6000803e3d6000fd5b505050506040513d602081101561128657600080fd5b810190808051906020019092919050505010156112a257600080fd5b600060025483816112af57fe5b049050803073ffffffffffffffffffffffffffffffffffffffff163110156112d657600080fd5b600160009054906101000a900473ffffffffffffffffffffffffffffffffffffffff1673ffffffffffffffffffffffffffffffffffffffff166323b872dd3330866040518463ffffffff1660e01b8152600401808473ffffffffffffffffffffffffffffffffffffffff1673ffffffffffffffffffffffffffffffffffffffff1681526020018373ffffffffffffffffffffffffffffffffffffffff1673ffffffffffffffffffffffffffffffffffffffff1681526020018281526020019350505050602060405180830381600087803b1580156113b357600080fd5b505af11580156113c7573d6000803e3d6000fd5b505050506040513d60208110156113dd57600080fd5b8101908080519060200190929190505050503373ffffffffffffffffffffffffffffffffffffffff166108fc829081150290604051600060405180830381858888f19350505050158015611435573d6000803e3d6000fd5b507f697c42d55a5e1fed3f464ec6f38b32546a0bd368dc8068b065c67566d73f329033600160009054906101000a900473ffffffffffffffffffffffffffffffffffffffff1685600254604051808573ffffffffffffffffffffffffffffffffffffffff1673ffffffffffffffffffffffffffffffffffffffff1681526020018473ffffffffffffffffffffffffffffffffffffffff1673ffffffffffffffffffffffffffffffffffffffff16815260200183815260200182815260200194505050505060405180910390a1505050565b600160009054906101000a900473ffffffffffffffffffffffffffffffffffffffff168156fea265627a7a72315820eb468cd85e00e12a413b11437092b24d9358b1b8741060bc4d154ecac14d514864736f6c63430005100032",
  "source": "pragma solidity ^0.5.0;\n\nimport \"./Token.sol\";\nimport \"./SecondToken.sol\";\n\ncontract EthSwap {\n    string public name = \"EthSwap Instant Exchange\";\n    Token public token; // variable that represents token smart contract.\n    uint256 public rate = 100; //uint means unsigned, no decimal and positive\n\n    // This is just the code, does not tell us where the smart contract is.\n    // It requires constructor\n    SecondToken public secondToken;\n    uint256 public secondRate = 5; //uint means unsigned, no decimal and positive\n\n    event TokensPurchased(\n        address account,\n        address token,\n        uint256 amount,\n        uint256 rate\n    );\n\n    event SecondTokensPurchased(\n        address account,\n        address token,\n        uint256 amount,\n        uint256 rate\n    );\n\n    event TokensSold(\n        address account,\n        address token,\n        uint256 amount,\n        uint256 rate\n    );\n\n    event SecondTokensSold(\n        address account,\n        address token,\n        uint256 amount,\n        uint256 rate\n    );\n\n    constructor(Token _token, SecondToken _secondToken) public {\n        //pass the address of the Token in\n        token = _token;\n        secondToken = _secondToken;\n    }\n\n    function buyTokens(uint256 _rate) public payable {\n        require(rate >= _rate, \"fail\");\n        // Calculate the number of tokens to buy\n        uint256 tokenAmount = msg.value * rate; //msg.value = how much ether was sent\n\n        // Require that EthSwap has enough tokens\n        require(token.balanceOf(address(this)) >= tokenAmount);\n\n        // Transfer tokens to the user\n        token.transfer(msg.sender, tokenAmount);\n\n        // Emit an event\n        emit TokensPurchased(msg.sender, address(token), tokenAmount, rate);\n    }\n\n    function sellTokens(uint256 _amount, uint256 _rate) public {\n        require(rate <= _rate, \"fail\");\n        // User can't sell more tokens than they have\n        require(token.balanceOf(msg.sender) >= _amount);\n\n        // Calculate the amount of Ether to redeem\n        uint256 etherAmount = _amount / rate;\n\n        // Require that EthSwap has enough Ether\n        require(address(this).balance >= etherAmount);\n\n        // Perform sale\n        token.transferFrom(msg.sender, address(this), _amount);\n        msg.sender.transfer(etherAmount);\n\n        // Emit an event\n        emit TokensSold(msg.sender, address(token), _amount, rate);\n    }\n\n    function buySecondTokens(uint256 _coolAmount, uint256 _secondRate) public {\n        require(secondRate >= _secondRate, \"fail\");\n        // Check if there is sufficient cool token in buyer acc\n        require(token.balanceOf(msg.sender) >= _coolAmount);\n        // Calculate the amount of cool token to redeem\n        uint256 secondAmount = _coolAmount * secondRate;\n        // Check that there is enough seocond Token in ethSwap\n        require(secondToken.balanceOf(address(this)) >= secondAmount);\n\n        // Perform sale (this 2 method might be the problem)\n        // secondToken.transferFrom(address(this), msg.sender, secondAmount);\n        secondToken.transfer(msg.sender, secondAmount);\n        token.transferFrom(msg.sender, address(this), _coolAmount);\n        // Emit an event\n        emit SecondTokensPurchased(\n            msg.sender,\n            address(secondToken),\n            secondAmount,\n            secondRate\n        );\n    }\n\n    function sellSecondTokens(uint256 _secondAmount, uint256 _secondRate)\n        public\n    {\n        require(secondRate <= _secondRate, \"fail\");\n        // Calculate the amount of cool token to redeem\n        uint256 coolAmount = _secondAmount / secondRate;\n\n        // Check that there is enough cool Token in ethSwap\n        require(token.balanceOf(address(this)) >= coolAmount);\n\n        // Check if there is sufficient second token in buyer acc\n        require(secondToken.balanceOf(msg.sender) >= _secondAmount);\n\n        // Perform sale\n        secondToken.transferFrom(msg.sender, address(this), _secondAmount);\n        token.transfer(msg.sender, coolAmount);\n\n        // Emit an event\n        emit SecondTokensSold(\n            msg.sender,\n            address(secondToken),\n            _secondAmount,\n            secondRate\n        );\n    }\n}\n",
  "sourcePath": "/Users/weerenteo/Documents/Year 4 Sem 2/CZ4153 Blockchain Technology/Project/Blockchain-DEX/src/contracts/EthSwap.sol",
  "compiler": {
    "name": "solc",
    "version": "0.5.16+commit.9c3226ce.Emscripten.clang"
  },
  "schemaVersion": "3.4.10",
  "updatedAt": "2022-10-28T06:59:53.017Z",
  "networkType": "ethereum",
  "devdoc": {
    "methods": {}
  },
  "userdoc": {
    "methods": {}
  }
}