{
  "contractName": "EthSwap",
  "abi": [
    {
      "inputs": [
        {
          "internalType": "contract CoolToken",
          "name": "_coolToken",
          "type": "address"
        },
        {
          "internalType": "contract SecondToken",
          "name": "_secondToken",
          "type": "address"
        }
      ],
      "stateMutability": "nonpayable",
      "type": "constructor"
    },
    {
      "anonymous": false,
      "inputs": [
        {
          "indexed": false,
          "internalType": "address",
          "name": "sender",
          "type": "address"
        },
        {
          "indexed": false,
          "internalType": "uint256",
          "name": "price",
          "type": "uint256"
        },
        {
          "indexed": false,
          "internalType": "uint256",
          "name": "amountOfBaseToken",
          "type": "uint256"
        }
      ],
      "name": "DrawToBuyBook",
      "type": "event"
    },
    {
      "anonymous": false,
      "inputs": [
        {
          "indexed": false,
          "internalType": "address",
          "name": "sender",
          "type": "address"
        },
        {
          "indexed": false,
          "internalType": "uint256",
          "name": "price",
          "type": "uint256"
        },
        {
          "indexed": false,
          "internalType": "uint256",
          "name": "amountOfTradeToken",
          "type": "uint256"
        }
      ],
      "name": "DrawToSellBook",
      "type": "event"
    },
    {
      "anonymous": false,
      "inputs": [
        {
          "indexed": false,
          "internalType": "address",
          "name": "sender",
          "type": "address"
        },
        {
          "indexed": false,
          "internalType": "uint256",
          "name": "price",
          "type": "uint256"
        },
        {
          "indexed": false,
          "internalType": "uint256",
          "name": "amountOfBaseToken",
          "type": "uint256"
        }
      ],
      "name": "PlaceBuyOrder",
      "type": "event"
    },
    {
      "anonymous": false,
      "inputs": [
        {
          "indexed": false,
          "internalType": "address",
          "name": "sender",
          "type": "address"
        },
        {
          "indexed": false,
          "internalType": "uint256",
          "name": "price",
          "type": "uint256"
        },
        {
          "indexed": false,
          "internalType": "uint256",
          "name": "amountOfTradeToken",
          "type": "uint256"
        }
      ],
      "name": "PlaceSellOrder",
      "type": "event"
    },
    {
      "anonymous": false,
      "inputs": [
        {
          "indexed": false,
          "internalType": "address",
          "name": "account",
          "type": "address"
        },
        {
          "indexed": false,
          "internalType": "address",
          "name": "token",
          "type": "address"
        },
        {
          "indexed": false,
          "internalType": "uint256",
          "name": "amount",
          "type": "uint256"
        },
        {
          "indexed": false,
          "internalType": "uint256",
          "name": "rate",
          "type": "uint256"
        }
      ],
      "name": "SecondTokensPurchased",
      "type": "event"
    },
    {
      "anonymous": false,
      "inputs": [
        {
          "indexed": false,
          "internalType": "address",
          "name": "account",
          "type": "address"
        },
        {
          "indexed": false,
          "internalType": "address",
          "name": "token",
          "type": "address"
        },
        {
          "indexed": false,
          "internalType": "uint256",
          "name": "amount",
          "type": "uint256"
        },
        {
          "indexed": false,
          "internalType": "uint256",
          "name": "rate",
          "type": "uint256"
        }
      ],
      "name": "SecondTokensSold",
      "type": "event"
    },
    {
      "anonymous": false,
      "inputs": [
        {
          "indexed": false,
          "internalType": "address",
          "name": "account",
          "type": "address"
        },
        {
          "indexed": false,
          "internalType": "address",
          "name": "token",
          "type": "address"
        },
        {
          "indexed": false,
          "internalType": "uint256",
          "name": "amount",
          "type": "uint256"
        },
        {
          "indexed": false,
          "internalType": "uint256",
          "name": "rate",
          "type": "uint256"
        }
      ],
      "name": "TokensPurchased",
      "type": "event"
    },
    {
      "anonymous": false,
      "inputs": [
        {
          "indexed": false,
          "internalType": "address",
          "name": "account",
          "type": "address"
        },
        {
          "indexed": false,
          "internalType": "address",
          "name": "token",
          "type": "address"
        },
        {
          "indexed": false,
          "internalType": "uint256",
          "name": "amount",
          "type": "uint256"
        },
        {
          "indexed": false,
          "internalType": "uint256",
          "name": "rate",
          "type": "uint256"
        }
      ],
      "name": "TokensSold",
      "type": "event"
    },
    {
      "inputs": [
        {
          "internalType": "uint256",
          "name": "",
          "type": "uint256"
        }
      ],
      "name": "amountbuy",
      "outputs": [
        {
          "internalType": "uint256",
          "name": "",
          "type": "uint256"
        }
      ],
      "stateMutability": "view",
      "type": "function",
      "constant": true
    },
    {
      "inputs": [
        {
          "internalType": "uint256",
          "name": "",
          "type": "uint256"
        }
      ],
      "name": "amountsell",
      "outputs": [
        {
          "internalType": "uint256",
          "name": "",
          "type": "uint256"
        }
      ],
      "stateMutability": "view",
      "type": "function",
      "constant": true
    },
    {
      "inputs": [],
      "name": "baseToken",
      "outputs": [
        {
          "internalType": "contract IERC20",
          "name": "",
          "type": "address"
        }
      ],
      "stateMutability": "view",
      "type": "function",
      "constant": true
    },
    {
      "inputs": [],
      "name": "buyCounter",
      "outputs": [
        {
          "internalType": "uint256",
          "name": "",
          "type": "uint256"
        }
      ],
      "stateMutability": "view",
      "type": "function",
      "constant": true
    },
    {
      "inputs": [
        {
          "internalType": "uint256",
          "name": "",
          "type": "uint256"
        },
        {
          "internalType": "uint8",
          "name": "",
          "type": "uint8"
        }
      ],
      "name": "buyOrdersInStep",
      "outputs": [
        {
          "internalType": "address",
          "name": "maker",
          "type": "address"
        },
        {
          "internalType": "uint256",
          "name": "amount",
          "type": "uint256"
        }
      ],
      "stateMutability": "view",
      "type": "function",
      "constant": true
    },
    {
      "inputs": [
        {
          "internalType": "uint256",
          "name": "",
          "type": "uint256"
        }
      ],
      "name": "buyOrdersInStepCounter",
      "outputs": [
        {
          "internalType": "uint8",
          "name": "",
          "type": "uint8"
        }
      ],
      "stateMutability": "view",
      "type": "function",
      "constant": true
    },
    {
      "inputs": [
        {
          "internalType": "uint256",
          "name": "",
          "type": "uint256"
        }
      ],
      "name": "buySteps",
      "outputs": [
        {
          "internalType": "uint256",
          "name": "higherPrice",
          "type": "uint256"
        },
        {
          "internalType": "uint256",
          "name": "lowerPrice",
          "type": "uint256"
        },
        {
          "internalType": "uint256",
          "name": "amount",
          "type": "uint256"
        }
      ],
      "stateMutability": "view",
      "type": "function",
      "constant": true
    },
    {
      "inputs": [
        {
          "internalType": "uint256",
          "name": "",
          "type": "uint256"
        }
      ],
      "name": "buyrateid",
      "outputs": [
        {
          "internalType": "uint256",
          "name": "",
          "type": "uint256"
        }
      ],
      "stateMutability": "view",
      "type": "function",
      "constant": true
    },
    {
      "inputs": [],
      "name": "coolRate",
      "outputs": [
        {
          "internalType": "uint256",
          "name": "",
          "type": "uint256"
        }
      ],
      "stateMutability": "view",
      "type": "function",
      "constant": true
    },
    {
      "inputs": [],
      "name": "coolToken",
      "outputs": [
        {
          "internalType": "contract CoolToken",
          "name": "",
          "type": "address"
        }
      ],
      "stateMutability": "view",
      "type": "function",
      "constant": true
    },
    {
      "inputs": [],
      "name": "idOfBuyRate",
      "outputs": [
        {
          "internalType": "uint256",
          "name": "",
          "type": "uint256"
        }
      ],
      "stateMutability": "view",
      "type": "function",
      "constant": true
    },
    {
      "inputs": [],
      "name": "idOfSellRate",
      "outputs": [
        {
          "internalType": "uint256",
          "name": "",
          "type": "uint256"
        }
      ],
      "stateMutability": "view",
      "type": "function",
      "constant": true
    },
    {
      "inputs": [],
      "name": "maxBuyPrice",
      "outputs": [
        {
          "internalType": "uint256",
          "name": "",
          "type": "uint256"
        }
      ],
      "stateMutability": "view",
      "type": "function",
      "constant": true
    },
    {
      "inputs": [],
      "name": "maxBuyRate",
      "outputs": [
        {
          "internalType": "uint256",
          "name": "",
          "type": "uint256"
        }
      ],
      "stateMutability": "view",
      "type": "function",
      "constant": true
    },
    {
      "inputs": [],
      "name": "minSellPrice",
      "outputs": [
        {
          "internalType": "uint256",
          "name": "",
          "type": "uint256"
        }
      ],
      "stateMutability": "view",
      "type": "function",
      "constant": true
    },
    {
      "inputs": [],
      "name": "minSellRate",
      "outputs": [
        {
          "internalType": "uint256",
          "name": "",
          "type": "uint256"
        }
      ],
      "stateMutability": "view",
      "type": "function",
      "constant": true
    },
    {
      "inputs": [],
      "name": "name",
      "outputs": [
        {
          "internalType": "string",
          "name": "",
          "type": "string"
        }
      ],
      "stateMutability": "view",
      "type": "function",
      "constant": true
    },
    {
      "inputs": [
        {
          "internalType": "uint256",
          "name": "",
          "type": "uint256"
        }
      ],
      "name": "newBuyOrderBook",
      "outputs": [
        {
          "internalType": "address",
          "name": "maker",
          "type": "address"
        },
        {
          "internalType": "uint256",
          "name": "amount",
          "type": "uint256"
        },
        {
          "internalType": "uint256",
          "name": "rate",
          "type": "uint256"
        }
      ],
      "stateMutability": "view",
      "type": "function",
      "constant": true
    },
    {
      "inputs": [
        {
          "internalType": "uint256",
          "name": "",
          "type": "uint256"
        }
      ],
      "name": "newSellOrderBook",
      "outputs": [
        {
          "internalType": "address",
          "name": "maker",
          "type": "address"
        },
        {
          "internalType": "uint256",
          "name": "amount",
          "type": "uint256"
        },
        {
          "internalType": "uint256",
          "name": "rate",
          "type": "uint256"
        }
      ],
      "stateMutability": "view",
      "type": "function",
      "constant": true
    },
    {
      "inputs": [],
      "name": "secondRate",
      "outputs": [
        {
          "internalType": "uint256",
          "name": "",
          "type": "uint256"
        }
      ],
      "stateMutability": "view",
      "type": "function",
      "constant": true
    },
    {
      "inputs": [],
      "name": "secondToken",
      "outputs": [
        {
          "internalType": "contract SecondToken",
          "name": "",
          "type": "address"
        }
      ],
      "stateMutability": "view",
      "type": "function",
      "constant": true
    },
    {
      "inputs": [],
      "name": "sellCounter",
      "outputs": [
        {
          "internalType": "uint256",
          "name": "",
          "type": "uint256"
        }
      ],
      "stateMutability": "view",
      "type": "function",
      "constant": true
    },
    {
      "inputs": [
        {
          "internalType": "uint256",
          "name": "",
          "type": "uint256"
        },
        {
          "internalType": "uint8",
          "name": "",
          "type": "uint8"
        }
      ],
      "name": "sellOrdersInStep",
      "outputs": [
        {
          "internalType": "address",
          "name": "maker",
          "type": "address"
        },
        {
          "internalType": "uint256",
          "name": "amount",
          "type": "uint256"
        }
      ],
      "stateMutability": "view",
      "type": "function",
      "constant": true
    },
    {
      "inputs": [
        {
          "internalType": "uint256",
          "name": "",
          "type": "uint256"
        }
      ],
      "name": "sellOrdersInStepCounter",
      "outputs": [
        {
          "internalType": "uint8",
          "name": "",
          "type": "uint8"
        }
      ],
      "stateMutability": "view",
      "type": "function",
      "constant": true
    },
    {
      "inputs": [
        {
          "internalType": "uint256",
          "name": "",
          "type": "uint256"
        }
      ],
      "name": "sellSteps",
      "outputs": [
        {
          "internalType": "uint256",
          "name": "higherPrice",
          "type": "uint256"
        },
        {
          "internalType": "uint256",
          "name": "lowerPrice",
          "type": "uint256"
        },
        {
          "internalType": "uint256",
          "name": "amount",
          "type": "uint256"
        }
      ],
      "stateMutability": "view",
      "type": "function",
      "constant": true
    },
    {
      "inputs": [
        {
          "internalType": "uint256",
          "name": "",
          "type": "uint256"
        }
      ],
      "name": "sellrateid",
      "outputs": [
        {
          "internalType": "uint256",
          "name": "",
          "type": "uint256"
        }
      ],
      "stateMutability": "view",
      "type": "function",
      "constant": true
    },
    {
      "inputs": [],
      "name": "selltx",
      "outputs": [
        {
          "internalType": "uint256",
          "name": "",
          "type": "uint256"
        }
      ],
      "stateMutability": "view",
      "type": "function",
      "constant": true
    },
    {
      "inputs": [],
      "name": "tradeToken",
      "outputs": [
        {
          "internalType": "contract IERC20",
          "name": "",
          "type": "address"
        }
      ],
      "stateMutability": "view",
      "type": "function",
      "constant": true
    },
    {
      "inputs": [],
      "name": "buyCoolTokens",
      "outputs": [],
      "stateMutability": "payable",
      "type": "function",
      "payable": true
    },
    {
      "inputs": [
        {
          "internalType": "uint256",
          "name": "_rate",
          "type": "uint256"
        }
      ],
      "name": "limitBuyCoolTokens",
      "outputs": [],
      "stateMutability": "payable",
      "type": "function",
      "payable": true
    },
    {
      "inputs": [
        {
          "internalType": "uint256",
          "name": "_amount",
          "type": "uint256"
        }
      ],
      "name": "sellCoolTokens",
      "outputs": [],
      "stateMutability": "nonpayable",
      "type": "function"
    },
    {
      "inputs": [],
      "name": "buySecondTokens",
      "outputs": [],
      "stateMutability": "payable",
      "type": "function",
      "payable": true
    },
    {
      "inputs": [
        {
          "internalType": "uint256",
          "name": "_amount",
          "type": "uint256"
        }
      ],
      "name": "sellSecondTokens",
      "outputs": [],
      "stateMutability": "nonpayable",
      "type": "function"
    },
    {
      "inputs": [],
      "name": "getbuyrate",
      "outputs": [
        {
          "internalType": "uint256[]",
          "name": "",
          "type": "uint256[]"
        }
      ],
      "stateMutability": "nonpayable",
      "type": "function"
    },
    {
      "inputs": [],
      "name": "getsellrate",
      "outputs": [
        {
          "internalType": "uint256[]",
          "name": "",
          "type": "uint256[]"
        }
      ],
      "stateMutability": "nonpayable",
      "type": "function"
    },
    {
      "inputs": [],
      "name": "getamountbuy",
      "outputs": [
        {
          "internalType": "uint256[]",
          "name": "",
          "type": "uint256[]"
        }
      ],
      "stateMutability": "nonpayable",
      "type": "function"
    },
    {
      "inputs": [
        {
          "internalType": "uint256",
          "name": "b",
          "type": "uint256"
        },
        {
          "internalType": "uint256",
          "name": "a",
          "type": "uint256"
        }
      ],
      "name": "atob",
      "outputs": [],
      "stateMutability": "nonpayable",
      "type": "function"
    },
    {
      "inputs": [
        {
          "internalType": "uint256",
          "name": "a",
          "type": "uint256"
        },
        {
          "internalType": "uint256",
          "name": "b",
          "type": "uint256"
        }
      ],
      "name": "btoa",
      "outputs": [],
      "stateMutability": "nonpayable",
      "type": "function"
    },
    {
      "inputs": [
        {
          "internalType": "uint256",
          "name": "price",
          "type": "uint256"
        },
        {
          "internalType": "uint256",
          "name": "amountOfBaseToken",
          "type": "uint256"
        },
        {
          "internalType": "uint256",
          "name": "amount",
          "type": "uint256"
        }
      ],
      "name": "placeBuyOrder",
      "outputs": [],
      "stateMutability": "nonpayable",
      "type": "function"
    },
    {
      "inputs": [
        {
          "internalType": "uint256",
          "name": "price",
          "type": "uint256"
        },
        {
          "internalType": "uint256",
          "name": "amountOfTradeToken",
          "type": "uint256"
        },
        {
          "internalType": "uint256",
          "name": "amount",
          "type": "uint256"
        }
      ],
      "name": "placeSellOrder",
      "outputs": [],
      "stateMutability": "nonpayable",
      "type": "function"
    }
  ],
  "bytecode": "0x60806040526040518060400160405280601881526020017f4574685377617020496e7374616e742045786368616e6765000000000000000081525060039080519060200190620000519291906200014d565b506103e86005556103e86007556000601055600060145560006018553480156200007a57600080fd5b50604051620057ae380380620057ae83398181016040526040811015620000a057600080fd5b810190808051906020019092919080519060200190929190505050600160008190555081600460006101000a81548173ffffffffffffffffffffffffffffffffffffffff021916908373ffffffffffffffffffffffffffffffffffffffff16021790555080600660006101000a81548173ffffffffffffffffffffffffffffffffffffffff021916908373ffffffffffffffffffffffffffffffffffffffff1602179055505050620001fc565b828054600181600116156101000203166002900490600052602060002090601f016020900481019282601f106200019057805160ff1916838001178555620001c1565b82800160010185558215620001c1579182015b82811115620001c0578251825591602001919060010190620001a3565b5b509050620001d09190620001d4565b5090565b620001f991905b80821115620001f5576000816000905550600101620001db565b5090565b90565b6155a2806200020c6000396000f3fe60806040526004361061023a5760003560e01c80638544a5ec1161012e578063cddfa2a4116100ab578063eaf5a1301161006f578063eaf5a13014610c66578063ec4763b614610c91578063f36c758d14610ce0578063f9193df014610d4c578063ff1e086c14610da95761023a565b8063cddfa2a414610b15578063d83678ac14610b40578063dd7f4e4014610b97578063e6a3326814610be6578063e7e8b38214610c115761023a565b806399487e88116100f257806399487e88146109b4578063a4d0047d146109df578063b2bb39ef14610a0a578063c55dae6314610a93578063c86f663914610aea5761023a565b80638544a5ec146108b85780638b77bd77146108fd5780639001c6d81461095457806391ceedbf1461095e578063947cde38146109895761023a565b806350e3d808116101bc5780636caa30d9116101805780636caa30d9146107485780636d952117146107835780636e94422c146107ae57806376a4202e1461081a57806383c25887146108695761023a565b806350e3d8081461059e57806352d49fa91461060a578063540cecb3146106455780635632993b146106945780636bc69a24146106bf5761023a565b806333f393ee1161020357806333f393ee1461041a5780633bfd49da1461045f5780633edec69a146104b6578063433f88da146104e157806343e2bd02146105705761023a565b80626efa711461023f5780630446d1c61461024957806304ebe308146102d857806306fdde031461032d5780632e78cd24146103bd575b600080fd5b610247610df8565b005b34801561025557600080fd5b5061028f6004803603604081101561026c57600080fd5b8101908080359060200190929190803560ff16906020019092919050505061109a565b604051808373ffffffffffffffffffffffffffffffffffffffff1673ffffffffffffffffffffffffffffffffffffffff1681526020018281526020019250505060405180910390f35b3480156102e457600080fd5b50610311600480360360208110156102fb57600080fd5b81019080803590602001909291905050506110eb565b604051808260ff1660ff16815260200191505060405180910390f35b34801561033957600080fd5b5061034261110b565b6040518080602001828103825283818151815260200191508051906020019080838360005b83811015610382578082015181840152602081019050610367565b50505050905090810190601f1680156103af5780820380516001836020036101000a031916815260200191505b509250505060405180910390f35b3480156103c957600080fd5b506103f6600480360360208110156103e057600080fd5b81019080803590602001909291905050506111a9565b60405180848152602001838152602001828152602001935050505060405180910390f35b34801561042657600080fd5b5061045d6004803603604081101561043d57600080fd5b8101908080359060200190929190803590602001909291905050506111d3565b005b34801561046b57600080fd5b50610474611f1c565b604051808273ffffffffffffffffffffffffffffffffffffffff1673ffffffffffffffffffffffffffffffffffffffff16815260200191505060405180910390f35b3480156104c257600080fd5b506104cb611f42565b6040518082815260200191505060405180910390f35b3480156104ed57600080fd5b506105276004803603604081101561050457600080fd5b8101908080359060200190929190803560ff169060200190929190505050611f48565b604051808373ffffffffffffffffffffffffffffffffffffffff1673ffffffffffffffffffffffffffffffffffffffff1681526020018281526020019250505060405180910390f35b61059c6004803603602081101561058657600080fd5b8101908080359060200190929190505050611f99565b005b3480156105aa57600080fd5b506105b36122bb565b6040518080602001828103825283818151815260200191508051906020019060200280838360005b838110156105f65780820151818401526020810190506105db565b505050509050019250505060405180910390f35b34801561061657600080fd5b506106436004803603602081101561062d57600080fd5b8101908080359060200190929190505050612313565b005b34801561065157600080fd5b5061067e6004803603602081101561066857600080fd5b810190808035906020019092919050505061265c565b6040518082815260200191505060405180910390f35b3480156106a057600080fd5b506106a961267d565b6040518082815260200191505060405180910390f35b3480156106cb57600080fd5b506106f8600480360360208110156106e257600080fd5b8101908080359060200190929190505050612683565b604051808473ffffffffffffffffffffffffffffffffffffffff1673ffffffffffffffffffffffffffffffffffffffff168152602001838152602001828152602001935050505060405180910390f35b34801561075457600080fd5b506107816004803603602081101561076b57600080fd5b81019080803590602001909291905050506126cd565b005b34801561078f57600080fd5b50610798612a16565b6040518082815260200191505060405180910390f35b3480156107ba57600080fd5b506107c3612a1c565b6040518080602001828103825283818151815260200191508051906020019060200280838360005b838110156108065780820151818401526020810190506107eb565b505050509050019250505060405180910390f35b34801561082657600080fd5b506108536004803603602081101561083d57600080fd5b8101908080359060200190929190505050612a74565b6040518082815260200191505060405180910390f35b34801561087557600080fd5b506108b66004803603606081101561088c57600080fd5b81019080803590602001909291908035906020019092919080359060200190929190505050612a95565b005b3480156108c457600080fd5b506108fb600480360360408110156108db57600080fd5b810190808035906020019092919080359060200190929190505050613303565b005b34801561090957600080fd5b50610912613f64565b604051808273ffffffffffffffffffffffffffffffffffffffff1673ffffffffffffffffffffffffffffffffffffffff16815260200191505060405180910390f35b61095c613f8a565b005b34801561096a57600080fd5b5061097361422c565b6040518082815260200191505060405180910390f35b34801561099557600080fd5b5061099e614232565b6040518082815260200191505060405180910390f35b3480156109c057600080fd5b506109c9614238565b6040518082815260200191505060405180910390f35b3480156109eb57600080fd5b506109f461423e565b6040518082815260200191505060405180910390f35b348015610a1657600080fd5b50610a4360048036036020811015610a2d57600080fd5b8101908080359060200190929190505050614244565b604051808473ffffffffffffffffffffffffffffffffffffffff1673ffffffffffffffffffffffffffffffffffffffff168152602001838152602001828152602001935050505060405180910390f35b348015610a9f57600080fd5b50610aa861428e565b604051808273ffffffffffffffffffffffffffffffffffffffff1673ffffffffffffffffffffffffffffffffffffffff16815260200191505060405180910390f35b348015610af657600080fd5b50610aff6142b4565b6040518082815260200191505060405180910390f35b348015610b2157600080fd5b50610b2a6142ba565b6040518082815260200191505060405180910390f35b348015610b4c57600080fd5b50610b556142c0565b604051808273ffffffffffffffffffffffffffffffffffffffff1673ffffffffffffffffffffffffffffffffffffffff16815260200191505060405180910390f35b348015610ba357600080fd5b50610bd060048036036020811015610bba57600080fd5b81019080803590602001909291905050506142e6565b6040518082815260200191505060405180910390f35b348015610bf257600080fd5b50610bfb614307565b6040518082815260200191505060405180910390f35b348015610c1d57600080fd5b50610c4a60048036036020811015610c3457600080fd5b810190808035906020019092919050505061430d565b604051808260ff1660ff16815260200191505060405180910390f35b348015610c7257600080fd5b50610c7b61432d565b6040518082815260200191505060405180910390f35b348015610c9d57600080fd5b50610cca60048036036020811015610cb457600080fd5b8101908080359060200190929190505050614333565b6040518082815260200191505060405180910390f35b348015610cec57600080fd5b50610cf5614354565b6040518080602001828103825283818151815260200191508051906020019060200280838360005b83811015610d38578082015181840152602081019050610d1d565b505050509050019250505060405180910390f35b348015610d5857600080fd5b50610d8560048036036020811015610d6f57600080fd5b81019080803590602001909291905050506143ac565b60405180848152602001838152602001828152602001935050505060405180910390f35b348015610db557600080fd5b50610df660048036036060811015610dcc57600080fd5b810190808035906020019092919080359060200190929190803590602001909291905050506143d6565b005b60006007543402905080600660009054906101000a900473ffffffffffffffffffffffffffffffffffffffff1673ffffffffffffffffffffffffffffffffffffffff166370a08231306040518263ffffffff1660e01b8152600401808273ffffffffffffffffffffffffffffffffffffffff1673ffffffffffffffffffffffffffffffffffffffff16815260200191505060206040518083038186803b158015610ea157600080fd5b505afa158015610eb5573d6000803e3d6000fd5b505050506040513d6020811015610ecb57600080fd5b81019080805190602001909291905050501015610ee757600080fd5b600660009054906101000a900473ffffffffffffffffffffffffffffffffffffffff1673ffffffffffffffffffffffffffffffffffffffff1663a9059cbb33836040518363ffffffff1660e01b8152600401808373ffffffffffffffffffffffffffffffffffffffff1673ffffffffffffffffffffffffffffffffffffffff16815260200182815260200192505050602060405180830381600087803b158015610f9057600080fd5b505af1158015610fa4573d6000803e3d6000fd5b505050506040513d6020811015610fba57600080fd5b8101908080519060200190929190505050507f6faf93231a456e552dbc9961f58d9713ee4f2e69d15f1975b050ef0911053a7b33600660009054906101000a900473ffffffffffffffffffffffffffffffffffffffff1683600754604051808573ffffffffffffffffffffffffffffffffffffffff1673ffffffffffffffffffffffffffffffffffffffff1681526020018473ffffffffffffffffffffffffffffffffffffffff1673ffffffffffffffffffffffffffffffffffffffff16815260200183815260200182815260200194505050505060405180910390a150565b600c602052816000526040600020602052806000526040600020600091509150508060000160009054906101000a900473ffffffffffffffffffffffffffffffffffffffff16908060010154905082565b600a6020528060005260406000206000915054906101000a900460ff1681565b60038054600181600116156101000203166002900480601f0160208091040260200160405190810160405280929190818152602001828054600181600116156101000203166002900480156111a15780601f10611176576101008083540402835291602001916111a1565b820191906000526020600020905b81548152906001019060200180831161118457829003601f168201915b505050505081565b60096020528060005260406000206000915090508060000154908060010154908060020154905083565b6002600054141561124c576040517f08c379a000000000000000000000000000000000000000000000000000000000815260040180806020018281038252601f8152602001807f5265656e7472616e637947756172643a207265656e7472616e742063616c6c0081525060200191505060405180910390fd5b600260008190555080600660009054906101000a900473ffffffffffffffffffffffffffffffffffffffff1673ffffffffffffffffffffffffffffffffffffffff166370a08231336040518263ffffffff1660e01b8152600401808273ffffffffffffffffffffffffffffffffffffffff1673ffffffffffffffffffffffffffffffffffffffff16815260200191505060206040518083038186803b1580156112f457600080fd5b505afa158015611308573d6000803e3d6000fd5b505050506040513d602081101561131e57600080fd5b810190808051906020019092919050505010156113a3576040517f08c379a00000000000000000000000000000000000000000000000000000000081526004018080602001828103825260158152602001807f48656c6c6f206572726f7220686572652062746f61000000000000000000000081525060200191505060405180910390fd5b601c819080600181540180825580915050600190039060005260206000200160009091909190915055601c829080600181540180825580915050600190039060005260206000200160009091909190915055600660009054906101000a900473ffffffffffffffffffffffffffffffffffffffff1673ffffffffffffffffffffffffffffffffffffffff166323b872dd3330846040518463ffffffff1660e01b8152600401808473ffffffffffffffffffffffffffffffffffffffff1673ffffffffffffffffffffffffffffffffffffffff1681526020018373ffffffffffffffffffffffffffffffffffffffff1673ffffffffffffffffffffffffffffffffffffffff1681526020018281526020019350505050602060405180830381600087803b1580156114d257600080fd5b505af11580156114e6573d6000803e3d6000fd5b505050506040513d60208110156114fc57600080fd5b810190808051906020019092919050505050600081838161151957fe5b04905060006001905060008090505b601a80549050811015611ef057601a818154811061154257fe5b906000526020600020015460138190555060126000601354815260200190815260200160002060020154601781905550601754831115801561158657506000601754115b15611ee35760009150846012600060135481526020019081526020016000206001015411156118a257601c601260006013548152602001908152602001600020600101549080600181540180825580915050600190039060005260206000200160009091909190915055601c849080600181540180825580915050600190039060005260206000200160009091909190915055600085601260006013548152602001908152602001600020600101540390508060126000601354815260200190815260200160002060010181905550601c601260006013548152602001908152602001600020600101549080600181540180825580915050600190039060005260206000200160009091909190915055600660009054906101000a900473ffffffffffffffffffffffffffffffffffffffff1673ffffffffffffffffffffffffffffffffffffffff1663a9059cbb60126000601354815260200190815260200160002060000160009054906101000a900473ffffffffffffffffffffffffffffffffffffffff16876040518363ffffffff1660e01b8152600401808373ffffffffffffffffffffffffffffffffffffffff1673ffffffffffffffffffffffffffffffffffffffff16815260200182815260200192505050602060405180830381600087803b15801561177757600080fd5b505af115801561178b573d6000803e3d6000fd5b505050506040513d60208110156117a157600080fd5b810190808051906020019092919050505050600460009054906101000a900473ffffffffffffffffffffffffffffffffffffffff1673ffffffffffffffffffffffffffffffffffffffff1663a9059cbb3360175488026040518363ffffffff1660e01b8152600401808373ffffffffffffffffffffffffffffffffffffffff1673ffffffffffffffffffffffffffffffffffffffff16815260200182815260200192505050602060405180830381600087803b15801561186057600080fd5b505af1158015611874573d6000803e3d6000fd5b505050506040513d602081101561188a57600080fd5b81019080805190602001909291905050505050611ede565b84601260006013548152602001908152602001600020600101541415611b9757600660009054906101000a900473ffffffffffffffffffffffffffffffffffffffff1673ffffffffffffffffffffffffffffffffffffffff1663a9059cbb60126000601354815260200190815260200160002060000160009054906101000a900473ffffffffffffffffffffffffffffffffffffffff16866040518363ffffffff1660e01b8152600401808373ffffffffffffffffffffffffffffffffffffffff1673ffffffffffffffffffffffffffffffffffffffff16815260200182815260200192505050602060405180830381600087803b1580156119a357600080fd5b505af11580156119b7573d6000803e3d6000fd5b505050506040513d60208110156119cd57600080fd5b810190808051906020019092919050505050600460009054906101000a900473ffffffffffffffffffffffffffffffffffffffff1673ffffffffffffffffffffffffffffffffffffffff1663a9059cbb3360175487026040518363ffffffff1660e01b8152600401808373ffffffffffffffffffffffffffffffffffffffff1673ffffffffffffffffffffffffffffffffffffffff16815260200182815260200192505050602060405180830381600087803b158015611a8c57600080fd5b505af1158015611aa0573d6000803e3d6000fd5b505050506040513d6020811015611ab657600080fd5b810190808051906020019092919050505050601260006013548152602001908152602001600020600080820160006101000a81549073ffffffffffffffffffffffffffffffffffffffff021916905560018201600090556002820160009055505060008190505b6001601a8054905003811015611b7057601a6001820181548110611b3d57fe5b9060005260206000200154601a8281548110611b5557fe5b90600052602060002001819055508080600101915050611b1d565b50601a805480611b7c57fe5b60019003818190600052602060002001600090559055611edd565b84601260006013548152602001908152602001600020600101541015611edc57600660009054906101000a900473ffffffffffffffffffffffffffffffffffffffff1673ffffffffffffffffffffffffffffffffffffffff1663a9059cbb60126000601354815260200190815260200160002060000160009054906101000a900473ffffffffffffffffffffffffffffffffffffffff16601260006013548152602001908152602001600020600101546040518363ffffffff1660e01b8152600401808373ffffffffffffffffffffffffffffffffffffffff1673ffffffffffffffffffffffffffffffffffffffff16815260200182815260200192505050602060405180830381600087803b158015611cb057600080fd5b505af1158015611cc4573d6000803e3d6000fd5b505050506040513d6020811015611cda57600080fd5b810190808051906020019092919050505050600460009054906101000a900473ffffffffffffffffffffffffffffffffffffffff1673ffffffffffffffffffffffffffffffffffffffff1663a9059cbb3360175460126000601354815260200190815260200160002060010154026040518363ffffffff1660e01b8152600401808373ffffffffffffffffffffffffffffffffffffffff1673ffffffffffffffffffffffffffffffffffffffff16815260200182815260200192505050602060405180830381600087803b158015611db157600080fd5b505af1158015611dc5573d6000803e3d6000fd5b505050506040513d6020811015611ddb57600080fd5b810190808051906020019092919050505050601260006013548152602001908152602001600020600080820160006101000a81549073ffffffffffffffffffffffffffffffffffffffff021916905560018201600090556002820160009055505060008190505b6001601a8054905003811015611e9557601a6001820181548110611e6257fe5b9060005260206000200154601a8281548110611e7a57fe5b90600052602060002001819055508080600101915050611e42565b50601a805480611ea157fe5b60019003818190600052602060002001600090559055611edb83601260006013548152602001908152602001600020600101548603614b2e565b5b5b5b611ef0565b8080600101915050611528565b50600083118015611efe5750805b15611f0e57611f0d8284614b2e565b5b505060016000819055505050565b600660009054906101000a900473ffffffffffffffffffffffffffffffffffffffff1681565b60115481565b6008602052816000526040600020602052806000526040600020600091509150508060000160009054906101000a900473ffffffffffffffffffffffffffffffffffffffff16908060010154905082565b6000611fa3614c1f565b90508181101561201b576040517f08c379a00000000000000000000000000000000000000000000000000000000081526004018080602001828103825260048152602001807f6661696c0000000000000000000000000000000000000000000000000000000081525060200191505060405180910390fd5b6000813402905080600460009054906101000a900473ffffffffffffffffffffffffffffffffffffffff1673ffffffffffffffffffffffffffffffffffffffff166370a08231306040518263ffffffff1660e01b8152600401808273ffffffffffffffffffffffffffffffffffffffff1673ffffffffffffffffffffffffffffffffffffffff16815260200191505060206040518083038186803b1580156120c257600080fd5b505afa1580156120d6573d6000803e3d6000fd5b505050506040513d60208110156120ec57600080fd5b8101908080519060200190929190505050101561210857600080fd5b600460009054906101000a900473ffffffffffffffffffffffffffffffffffffffff1673ffffffffffffffffffffffffffffffffffffffff1663a9059cbb33836040518363ffffffff1660e01b8152600401808373ffffffffffffffffffffffffffffffffffffffff1673ffffffffffffffffffffffffffffffffffffffff16815260200182815260200192505050602060405180830381600087803b1580156121b157600080fd5b505af11580156121c5573d6000803e3d6000fd5b505050506040513d60208110156121db57600080fd5b8101908080519060200190929190505050507f6faf93231a456e552dbc9961f58d9713ee4f2e69d15f1975b050ef0911053a7b33600460009054906101000a900473ffffffffffffffffffffffffffffffffffffffff168385604051808573ffffffffffffffffffffffffffffffffffffffff1673ffffffffffffffffffffffffffffffffffffffff1681526020018473ffffffffffffffffffffffffffffffffffffffff1673ffffffffffffffffffffffffffffffffffffffff16815260200183815260200182815260200194505050505060405180910390a1505050565b6060601980548060200260200160405190810160405280929190818152602001828054801561230957602002820191906000526020600020905b8154815260200190600101908083116122f5575b5050505050905090565b80600660009054906101000a900473ffffffffffffffffffffffffffffffffffffffff1673ffffffffffffffffffffffffffffffffffffffff166370a08231336040518263ffffffff1660e01b8152600401808273ffffffffffffffffffffffffffffffffffffffff1673ffffffffffffffffffffffffffffffffffffffff16815260200191505060206040518083038186803b1580156123b357600080fd5b505afa1580156123c7573d6000803e3d6000fd5b505050506040513d60208110156123dd57600080fd5b810190808051906020019092919050505010156123f957600080fd5b6000600754828161240657fe5b049050803073ffffffffffffffffffffffffffffffffffffffff1631101561242d57600080fd5b600660009054906101000a900473ffffffffffffffffffffffffffffffffffffffff1673ffffffffffffffffffffffffffffffffffffffff166323b872dd3330856040518463ffffffff1660e01b8152600401808473ffffffffffffffffffffffffffffffffffffffff1673ffffffffffffffffffffffffffffffffffffffff1681526020018373ffffffffffffffffffffffffffffffffffffffff1673ffffffffffffffffffffffffffffffffffffffff1681526020018281526020019350505050602060405180830381600087803b15801561250a57600080fd5b505af115801561251e573d6000803e3d6000fd5b505050506040513d602081101561253457600080fd5b8101908080519060200190929190505050503373ffffffffffffffffffffffffffffffffffffffff166108fc829081150290604051600060405180830381858888f1935050505015801561258c573d6000803e3d6000fd5b507f697c42d55a5e1fed3f464ec6f38b32546a0bd368dc8068b065c67566d73f329033600660009054906101000a900473ffffffffffffffffffffffffffffffffffffffff1684600754604051808573ffffffffffffffffffffffffffffffffffffffff1673ffffffffffffffffffffffffffffffffffffffff1681526020018473ffffffffffffffffffffffffffffffffffffffff1673ffffffffffffffffffffffffffffffffffffffff16815260200183815260200182815260200194505050505060405180910390a15050565b601b818154811061266957fe5b906000526020600020016000915090505481565b60165481565b60156020528060005260406000206000915090508060000160009054906101000a900473ffffffffffffffffffffffffffffffffffffffff16908060010154908060020154905083565b80600460009054906101000a900473ffffffffffffffffffffffffffffffffffffffff1673ffffffffffffffffffffffffffffffffffffffff166370a08231336040518263ffffffff1660e01b8152600401808273ffffffffffffffffffffffffffffffffffffffff1673ffffffffffffffffffffffffffffffffffffffff16815260200191505060206040518083038186803b15801561276d57600080fd5b505afa158015612781573d6000803e3d6000fd5b505050506040513d602081101561279757600080fd5b810190808051906020019092919050505010156127b357600080fd5b600060055482816127c057fe5b049050803073ffffffffffffffffffffffffffffffffffffffff163110156127e757600080fd5b600460009054906101000a900473ffffffffffffffffffffffffffffffffffffffff1673ffffffffffffffffffffffffffffffffffffffff166323b872dd3330856040518463ffffffff1660e01b8152600401808473ffffffffffffffffffffffffffffffffffffffff1673ffffffffffffffffffffffffffffffffffffffff1681526020018373ffffffffffffffffffffffffffffffffffffffff1673ffffffffffffffffffffffffffffffffffffffff1681526020018281526020019350505050602060405180830381600087803b1580156128c457600080fd5b505af11580156128d8573d6000803e3d6000fd5b505050506040513d60208110156128ee57600080fd5b8101908080519060200190929190505050503373ffffffffffffffffffffffffffffffffffffffff166108fc829081150290604051600060405180830381858888f19350505050158015612946573d6000803e3d6000fd5b507f697c42d55a5e1fed3f464ec6f38b32546a0bd368dc8068b065c67566d73f329033600460009054906101000a900473ffffffffffffffffffffffffffffffffffffffff1684600554604051808573ffffffffffffffffffffffffffffffffffffffff1673ffffffffffffffffffffffffffffffffffffffff1681526020018473ffffffffffffffffffffffffffffffffffffffff1673ffffffffffffffffffffffffffffffffffffffff16815260200183815260200182815260200194505050505060405180910390a15050565b600b5481565b6060601a805480602002602001604051908101604052809291908181526020018280548015612a6a57602002820191906000526020600020905b815481526020019060010190808311612a56575b5050505050905090565b601c8181548110612a8157fe5b906000526020600020016000915090505481565b60026000541415612b0e576040517f08c379a000000000000000000000000000000000000000000000000000000000815260040180806020018281038252601f8152602001807f5265656e7472616e637947756172643a207265656e7472616e742063616c6c0081525060200191505060405180910390fd5b600260008190555081600460009054906101000a900473ffffffffffffffffffffffffffffffffffffffff1673ffffffffffffffffffffffffffffffffffffffff166370a08231336040518263ffffffff1660e01b8152600401808273ffffffffffffffffffffffffffffffffffffffff1673ffffffffffffffffffffffffffffffffffffffff16815260200191505060206040518083038186803b158015612bb657600080fd5b505afa158015612bca573d6000803e3d6000fd5b505050506040513d6020811015612be057600080fd5b81019080805190602001909291905050501015612bfc57600080fd5b600460009054906101000a900473ffffffffffffffffffffffffffffffffffffffff1673ffffffffffffffffffffffffffffffffffffffff166323b872dd3330856040518463ffffffff1660e01b8152600401808473ffffffffffffffffffffffffffffffffffffffff1673ffffffffffffffffffffffffffffffffffffffff1681526020018373ffffffffffffffffffffffffffffffffffffffff1673ffffffffffffffffffffffffffffffffffffffff1681526020018281526020019350505050602060405180830381600087803b158015612cd957600080fd5b505af1158015612ced573d6000803e3d6000fd5b505050506040513d6020811015612d0357600080fd5b8101908080519060200190929190505050507f395c1684516ae2d9902cf8f721a9ca0a0ee575e9381b5e0e11e129ba10904579338484604051808473ffffffffffffffffffffffffffffffffffffffff1673ffffffffffffffffffffffffffffffffffffffff168152602001838152602001828152602001935050505060405180910390a16000600f54905060008390506000600f54118015612da85750600f548510155b156132e0575b600081118015612dbe5750848211155b8015612dcb575060008214155b156132df576000600190506000600d60008581526020019081526020016000206000015490505b600e600085815260200190815260200160002060009054906101000a900460ff1660ff168260ff1611158015612e285750600083115b156132d557600c600085815260200190815260200160002060008360ff1660ff16815260200190815260200160002060010154831061321157600e600085815260200190815260200160002060009054906101000a900460ff1660ff168260ff161415612eeb576000811115612eb5576000600d6000838152602001908152602001600020600101819055505b600d600085815260200190815260200160002060008082016000905560018201600090556002820160009055505080600f819055505b612f2b600c600086815260200190815260200160002060008460ff1660ff1681526020019081526020016000206001015484614ca490919063ffffffff16565b9250600460009054906101000a900473ffffffffffffffffffffffffffffffffffffffff1673ffffffffffffffffffffffffffffffffffffffff1663a9059cbb600c600087815260200190815260200160002060008560ff1660ff16815260200190815260200160002060000160009054906101000a900473ffffffffffffffffffffffffffffffffffffffff16600c600088815260200190815260200160002060008660ff1660ff168152602001908152602001600020600101546040518363ffffffff1660e01b8152600401808373ffffffffffffffffffffffffffffffffffffffff1673ffffffffffffffffffffffffffffffffffffffff16815260200182815260200192505050602060405180830381600087803b15801561305057600080fd5b505af1158015613064573d6000803e3d6000fd5b505050506040513d602081101561307a57600080fd5b810190808051906020019092919050505050600c600085815260200190815260200160002060008360ff1660ff168152602001908152602001600020600080820160006101000a81549073ffffffffffffffffffffffffffffffffffffffff0219169055600182016000905550506001600e600086815260200190815260200160002060008282829054906101000a900460ff160392506101000a81548160ff021916908360ff160217905550600660009054906101000a900473ffffffffffffffffffffffffffffffffffffffff1673ffffffffffffffffffffffffffffffffffffffff1663a9059cbb33866040518363ffffffff1660e01b8152600401808373ffffffffffffffffffffffffffffffffffffffff1673ffffffffffffffffffffffffffffffffffffffff16815260200182815260200192505050602060405180830381600087803b1580156131d057600080fd5b505af11580156131e4573d6000803e3d6000fd5b505050506040513d60208110156131fa57600080fd5b8101908080519060200190929190505050506132ca565b61323a83600d600087815260200190815260200160002060020154614ca490919063ffffffff16565b600d60008681526020019081526020016000206002018190555061329483600c600087815260200190815260200160002060008560ff1660ff16815260200190815260200160002060010154614ca490919063ffffffff16565b600c600086815260200190815260200160002060008460ff1660ff16815260200190815260200160002060010181905550600092505b600182019150612df2565b8093505050612dae565b5b60008111156132f4576132f38582614d27565b5b50506001600081905550505050565b6002600054141561337c576040517f08c379a000000000000000000000000000000000000000000000000000000000815260040180806020018281038252601f8152602001807f5265656e7472616e637947756172643a207265656e7472616e742063616c6c0081525060200191505060405180910390fd5b600260008190555080600460009054906101000a900473ffffffffffffffffffffffffffffffffffffffff1673ffffffffffffffffffffffffffffffffffffffff166370a08231336040518263ffffffff1660e01b8152600401808273ffffffffffffffffffffffffffffffffffffffff1673ffffffffffffffffffffffffffffffffffffffff16815260200191505060206040518083038186803b15801561342457600080fd5b505afa158015613438573d6000803e3d6000fd5b505050506040513d602081101561344e57600080fd5b810190808051906020019092919050505010156134d3576040517f08c379a00000000000000000000000000000000000000000000000000000000081526004018080602001828103825260158152602001807f68656c6c6f206572726f7220686572652061746f62000000000000000000000081525060200191505060405180910390fd5b600460009054906101000a900473ffffffffffffffffffffffffffffffffffffffff1673ffffffffffffffffffffffffffffffffffffffff166323b872dd3330846040518463ffffffff1660e01b8152600401808473ffffffffffffffffffffffffffffffffffffffff1673ffffffffffffffffffffffffffffffffffffffff1681526020018373ffffffffffffffffffffffffffffffffffffffff1673ffffffffffffffffffffffffffffffffffffffff1681526020018281526020019350505050602060405180830381600087803b1580156135b057600080fd5b505af11580156135c4573d6000803e3d6000fd5b505050506040513d60208110156135da57600080fd5b81019080805190602001909291905050505060008282816135f757fe5b04905060006001905060008090505b601980549050811015613f38576019818154811061362057fe5b906000526020600020015460168190555060156000601654815260200190815260200160002060020154601181905550601154831015801561366457506000601154115b15613f2b5760009150836015600060165481526020019081526020016000206001015411156138dc57600084601560006016548152602001908152602001600020600101540390508060156000601654815260200190815260200160002060010181905550600460009054906101000a900473ffffffffffffffffffffffffffffffffffffffff1673ffffffffffffffffffffffffffffffffffffffff1663a9059cbb60156000601654815260200190815260200160002060000160009054906101000a900473ffffffffffffffffffffffffffffffffffffffff16876040518363ffffffff1660e01b8152600401808373ffffffffffffffffffffffffffffffffffffffff1673ffffffffffffffffffffffffffffffffffffffff16815260200182815260200192505050602060405180830381600087803b1580156137aa57600080fd5b505af11580156137be573d6000803e3d6000fd5b505050506040513d60208110156137d457600080fd5b810190808051906020019092919050505050600660009054906101000a900473ffffffffffffffffffffffffffffffffffffffff1673ffffffffffffffffffffffffffffffffffffffff1663a9059cbb33601154888161383057fe5b046040518363ffffffff1660e01b8152600401808373ffffffffffffffffffffffffffffffffffffffff1673ffffffffffffffffffffffffffffffffffffffff16815260200182815260200192505050602060405180830381600087803b15801561389a57600080fd5b505af11580156138ae573d6000803e3d6000fd5b505050506040513d60208110156138c457600080fd5b81019080805190602001909291905050505050613f26565b83601560006016548152602001908152602001600020600101541415613bd857600460009054906101000a900473ffffffffffffffffffffffffffffffffffffffff1673ffffffffffffffffffffffffffffffffffffffff1663a9059cbb60156000601654815260200190815260200160002060000160009054906101000a900473ffffffffffffffffffffffffffffffffffffffff16866040518363ffffffff1660e01b8152600401808373ffffffffffffffffffffffffffffffffffffffff1673ffffffffffffffffffffffffffffffffffffffff16815260200182815260200192505050602060405180830381600087803b1580156139dd57600080fd5b505af11580156139f1573d6000803e3d6000fd5b505050506040513d6020811015613a0757600080fd5b810190808051906020019092919050505050600660009054906101000a900473ffffffffffffffffffffffffffffffffffffffff1673ffffffffffffffffffffffffffffffffffffffff1663a9059cbb336011548781613a6357fe5b046040518363ffffffff1660e01b8152600401808373ffffffffffffffffffffffffffffffffffffffff1673ffffffffffffffffffffffffffffffffffffffff16815260200182815260200192505050602060405180830381600087803b158015613acd57600080fd5b505af1158015613ae1573d6000803e3d6000fd5b505050506040513d6020811015613af757600080fd5b810190808051906020019092919050505050601560006016548152602001908152602001600020600080820160006101000a81549073ffffffffffffffffffffffffffffffffffffffff021916905560018201600090556002820160009055505060008190505b600160198054905003811015613bb15760196001820181548110613b7e57fe5b906000526020600020015460198281548110613b9657fe5b90600052602060002001819055508080600101915050613b5e565b506019805480613bbd57fe5b60019003818190600052602060002001600090559055613f25565b83601560006016548152602001908152602001600020600101541015613f2457600460009054906101000a900473ffffffffffffffffffffffffffffffffffffffff1673ffffffffffffffffffffffffffffffffffffffff1663a9059cbb60156000601654815260200190815260200160002060000160009054906101000a900473ffffffffffffffffffffffffffffffffffffffff16601560006016548152602001908152602001600020600101546040518363ffffffff1660e01b8152600401808373ffffffffffffffffffffffffffffffffffffffff1673ffffffffffffffffffffffffffffffffffffffff16815260200182815260200192505050602060405180830381600087803b158015613cf157600080fd5b505af1158015613d05573d6000803e3d6000fd5b505050506040513d6020811015613d1b57600080fd5b810190808051906020019092919050505050600660009054906101000a900473ffffffffffffffffffffffffffffffffffffffff1673ffffffffffffffffffffffffffffffffffffffff1663a9059cbb336011546015600060165481526020019081526020016000206001015481613d8f57fe5b046040518363ffffffff1660e01b8152600401808373ffffffffffffffffffffffffffffffffffffffff1673ffffffffffffffffffffffffffffffffffffffff16815260200182815260200192505050602060405180830381600087803b158015613df957600080fd5b505af1158015613e0d573d6000803e3d6000fd5b505050506040513d6020811015613e2357600080fd5b810190808051906020019092919050505050601560006016548152602001908152602001600020600080820160006101000a81549073ffffffffffffffffffffffffffffffffffffffff021916905560018201600090556002820160009055505060008190505b600160198054905003811015613edd5760196001820181548110613eaa57fe5b906000526020600020015460198281548110613ec257fe5b90600052602060002001819055508080600101915050613e8a565b506019805480613ee957fe5b60019003818190600052602060002001600090559055613f238360156000601654815260200190815260200160002060010154860361508e565b5b5b5b613f38565b8080600101915050613606565b50600083118015613f465750805b15613f5657613f55828461508e565b5b505060016000819055505050565b600460009054906101000a900473ffffffffffffffffffffffffffffffffffffffff1681565b60006005543402905080600460009054906101000a900473ffffffffffffffffffffffffffffffffffffffff1673ffffffffffffffffffffffffffffffffffffffff166370a08231306040518263ffffffff1660e01b8152600401808273ffffffffffffffffffffffffffffffffffffffff1673ffffffffffffffffffffffffffffffffffffffff16815260200191505060206040518083038186803b15801561403357600080fd5b505afa158015614047573d6000803e3d6000fd5b505050506040513d602081101561405d57600080fd5b8101908080519060200190929190505050101561407957600080fd5b600460009054906101000a900473ffffffffffffffffffffffffffffffffffffffff1673ffffffffffffffffffffffffffffffffffffffff1663a9059cbb33836040518363ffffffff1660e01b8152600401808373ffffffffffffffffffffffffffffffffffffffff1673ffffffffffffffffffffffffffffffffffffffff16815260200182815260200192505050602060405180830381600087803b15801561412257600080fd5b505af1158015614136573d6000803e3d6000fd5b505050506040513d602081101561414c57600080fd5b8101908080519060200190929190505050507f6faf93231a456e552dbc9961f58d9713ee4f2e69d15f1975b050ef0911053a7b33600460009054906101000a900473ffffffffffffffffffffffffffffffffffffffff1683600554604051808573ffffffffffffffffffffffffffffffffffffffff1673ffffffffffffffffffffffffffffffffffffffff1681526020018473ffffffffffffffffffffffffffffffffffffffff1673ffffffffffffffffffffffffffffffffffffffff16815260200183815260200182815260200194505050505060405180910390a150565b60105481565b60185481565b600f5481565b60145481565b60126020528060005260406000206000915090508060000160009054906101000a900473ffffffffffffffffffffffffffffffffffffffff16908060010154908060020154905083565b600260009054906101000a900473ffffffffffffffffffffffffffffffffffffffff1681565b60175481565b60135481565b600160009054906101000a900473ffffffffffffffffffffffffffffffffffffffff1681565b601a81815481106142f357fe5b906000526020600020016000915090505481565b60075481565b600e6020528060005260406000206000915054906101000a900460ff1681565b60055481565b6019818154811061434057fe5b906000526020600020016000915090505481565b6060601c8054806020026020016040519081016040528092919081815260200182805480156143a257602002820191906000526020600020905b81548152602001906001019080831161438e575b5050505050905090565b600d6020528060005260406000206000915090508060000154908060010154908060020154905083565b6002600054141561444f576040517f08c379a000000000000000000000000000000000000000000000000000000000815260040180806020018281038252601f8152602001807f5265656e7472616e637947756172643a207265656e7472616e742063616c6c0081525060200191505060405180910390fd5b6002600081905550600660009054906101000a900473ffffffffffffffffffffffffffffffffffffffff1673ffffffffffffffffffffffffffffffffffffffff166323b872dd3330856040518463ffffffff1660e01b8152600401808473ffffffffffffffffffffffffffffffffffffffff1673ffffffffffffffffffffffffffffffffffffffff1681526020018373ffffffffffffffffffffffffffffffffffffffff1673ffffffffffffffffffffffffffffffffffffffff1681526020018281526020019350505050602060405180830381600087803b15801561453457600080fd5b505af1158015614548573d6000803e3d6000fd5b505050506040513d602081101561455e57600080fd5b8101908080519060200190929190505050507fb7dbff96891782d962607d023b4273634da23cbf026a06aeffac260cd497a88b338484604051808473ffffffffffffffffffffffffffffffffffffffff1673ffffffffffffffffffffffffffffffffffffffff168152602001838152602001828152602001935050505060405180910390a16000600b54905060008390506000600b541180156146035750600b548511155b15614b0b575b6000811180156146195750848210155b8015614626575060008214155b15614b0a576000600190506000600960008581526020019081526020016000206001015490505b600a600085815260200190815260200160002060009054906101000a900460ff1660ff168260ff16111580156146835750600083115b15614b00576008600085815260200190815260200160002060008360ff1660ff168152602001908152602001600020600101548310614a5c57600a600085815260200190815260200160002060009054906101000a900460ff1660ff168260ff16141561474657600081111561471057600060096000838152602001908152602001600020600001819055505b6009600085815260200190815260200160002060008082016000905560018201600090556002820160009055505080600b819055505b6008600085815260200190815260200160002060008360ff1660ff1681526020019081526020016000206001015483039250600660009054906101000a900473ffffffffffffffffffffffffffffffffffffffff1673ffffffffffffffffffffffffffffffffffffffff1663a9059cbb6008600087815260200190815260200160002060008560ff1660ff16815260200190815260200160002060000160009054906101000a900473ffffffffffffffffffffffffffffffffffffffff166008600088815260200190815260200160002060008660ff1660ff168152602001908152602001600020600101546040518363ffffffff1660e01b8152600401808373ffffffffffffffffffffffffffffffffffffffff1673ffffffffffffffffffffffffffffffffffffffff16815260200182815260200192505050602060405180830381600087803b15801561489b57600080fd5b505af11580156148af573d6000803e3d6000fd5b505050506040513d60208110156148c557600080fd5b8101908080519060200190929190505050506008600085815260200190815260200160002060008360ff1660ff168152602001908152602001600020600080820160006101000a81549073ffffffffffffffffffffffffffffffffffffffff0219169055600182016000905550506001600a600086815260200190815260200160002060008282829054906101000a900460ff160392506101000a81548160ff021916908360ff160217905550600460009054906101000a900473ffffffffffffffffffffffffffffffffffffffff1673ffffffffffffffffffffffffffffffffffffffff1663a9059cbb33866040518363ffffffff1660e01b8152600401808373ffffffffffffffffffffffffffffffffffffffff1673ffffffffffffffffffffffffffffffffffffffff16815260200182815260200192505050602060405180830381600087803b158015614a1b57600080fd5b505af1158015614a2f573d6000803e3d6000fd5b505050506040513d6020811015614a4557600080fd5b810190808051906020019092919050505050614af5565b826009600086815260200190815260200160002060020154036009600086815260200190815260200160002060020181905550826008600086815260200190815260200160002060008460ff1660ff16815260200190815260200160002060010154036008600086815260200190815260200160002060008460ff1660ff16815260200190815260200160002060010181905550600092505b60018201915061464d565b8093505050614609565b5b6000811115614b1f57614b1e858261517f565b5b50506001600081905550505050565b60008211614b3b57600080fd5b60016014600082825401925050819055506019601454908060018154018082558091505060019003906000526020600020016000909190919091505560405180606001604052803373ffffffffffffffffffffffffffffffffffffffff1681526020018281526020018381525060156000601454815260200190815260200160002060008201518160000160006101000a81548173ffffffffffffffffffffffffffffffffffffffff021916908373ffffffffffffffffffffffffffffffffffffffff16021790555060208201518160010155604082015181600201559050505050565b600080600a423342604051602001808481526020018373ffffffffffffffffffffffffffffffffffffffff1673ffffffffffffffffffffffffffffffffffffffff1660601b815260140182815260200193505050506040516020818303038152906040528051906020012060001c81614c9457fe5b069050605a810190508091505090565b600082821115614d1c576040517f08c379a000000000000000000000000000000000000000000000000000000000815260040180806020018281038252601e8152602001807f536166654d6174683a207375627472616374696f6e206f766572666c6f77000081525060200191505060405180910390fd5b818303905092915050565b60008211614d80576040517f08c379a00000000000000000000000000000000000000000000000000000000081526004018080602001828103825260268152602001806155476026913960400191505060405180910390fd5b6001600a600084815260200190815260200160002060008282829054906101000a900460ff160192506101000a81548160ff021916908360ff16021790555060405180604001604052803373ffffffffffffffffffffffffffffffffffffffff16815260200182815250600860008481526020019081526020016000206000600a600086815260200190815260200160002060009054906101000a900460ff1660ff1660ff16815260200190815260200160002060008201518160000160006101000a81548173ffffffffffffffffffffffffffffffffffffffff021916908373ffffffffffffffffffffffffffffffffffffffff160217905550602082015181600101559050508060096000848152602001908152602001600020600201540160096000848152602001908152602001600020600201819055507f81016ab66655ba3ad044b708d3e812b7d8d777633f2883d4bdbd346e8878edac338383604051808473ffffffffffffffffffffffffffffffffffffffff1673ffffffffffffffffffffffffffffffffffffffff168152602001838152602001828152602001935050505060405180910390a16000600b541415614f455781600b8190555061508a565b600b54821115614f95578160096000600b54815260200190815260200160002060000181905550600b54600960008481526020019081526020016000206001018190555081600b8190555061508a565b600b54821415614fa45761508a565b6000600b5490505b808311614fd15760096000828152602001908152602001600020600101549050614fac565b60096000828152602001908152602001600020600001548310156150885760096000828152602001908152602001600020600001546009600085815260200190815260200160002060000181905550806009600085815260200190815260200160002060010181905550826009600060096000858152602001908152602001600020600001548152602001908152602001600020600101819055508260096000838152602001908152602001600020600001819055505b505b5050565b6000821161509b57600080fd5b6001601060008282540192505081905550601a601054908060018154018082558091505060019003906000526020600020016000909190919091505560405180606001604052803373ffffffffffffffffffffffffffffffffffffffff1681526020018281526020018381525060126000601054815260200190815260200160002060008201518160000160006101000a81548173ffffffffffffffffffffffffffffffffffffffff021916908373ffffffffffffffffffffffffffffffffffffffff16021790555060208201518160010155604082015181600201559050505050565b600082116151d8576040517f08c379a00000000000000000000000000000000000000000000000000000000081526004018080602001828103825260268152602001806155476026913960400191505060405180910390fd5b6001600e600084815260200190815260200160002060008282829054906101000a900460ff160192506101000a81548160ff021916908360ff16021790555060405180604001604052803373ffffffffffffffffffffffffffffffffffffffff16815260200182815250600c60008481526020019081526020016000206000600e600086815260200190815260200160002060009054906101000a900460ff1660ff1660ff16815260200190815260200160002060008201518160000160006101000a81548173ffffffffffffffffffffffffffffffffffffffff021916908373ffffffffffffffffffffffffffffffffffffffff1602179055506020820151816001015590505080600d6000848152602001908152602001600020600201600082825401925050819055507f081eb72a4c7e8ff00d118fa2f8d69a19b4f33a4cfd9b77f39a92a67322c9322e338383604051808473ffffffffffffffffffffffffffffffffffffffff1673ffffffffffffffffffffffffffffffffffffffff168152602001838152602001828152602001935050505060405180910390a16000600f54141561538e5781600f81905550615542565b600f548210156153de5781600d6000600f54815260200190815260200160002060010181905550600f54600d60008481526020019081526020016000206000018190555081600f81905550615542565b600f548214156153ed57615542565b6000600f5490505b80831015801561541c57506000600d60008381526020019081526020016000206000015414155b1561543f57600d60008281526020019081526020016000206000015490506153f5565b8281101561547e5780600d60008581526020019081526020016000206001018190555082600d6000838152602001908152602001600020600001819055505b82811180156154a25750600d60008281526020019081526020016000206001015483115b1561554057600d600082815260200190815260200160002060010154600d60008581526020019081526020016000206001018190555080600d60008581526020019081526020016000206000018190555082600d6000600d60008581526020019081526020016000206001015481526020019081526020016000206000018190555082600d6000838152602001908152602001600020600101819055505b505b505056fe43616e206e6f7420706c616365206f72646572207769746820707269636520657175616c2030a264697066735822122063de3d4a252100e87514ca99862673b63490b93e1aa8e473f3ad700cbd21fed064736f6c63430006080033",
  "immutableReferences": {},
  "source": "pragma solidity >=0.6.8;\n\nimport \"./CoolToken.sol\";\nimport \"./SecondToken.sol\";\nimport {IOrderBook} from \"./interfaces/IOrderBook.sol\";\nimport {ReentrancyGuard} from \"@openzeppelin/contracts/utils/ReentrancyGuard.sol\";\nimport {SafeMath} from \"@openzeppelin/contracts/math/SafeMath.sol\";\nimport {Math} from \"@openzeppelin/contracts/math/Math.sol\";\nimport {SafeERC20} from \"@openzeppelin/contracts/token/ERC20/SafeERC20.sol\";\nimport {IERC20} from \"@openzeppelin/contracts/token/ERC20/IERC20.sol\";\n\ncontract EthSwap is IOrderBook, ReentrancyGuard {\n    using SafeMath for uint256;\n    using SafeMath for uint8;\n    using Math for uint256;\n    using SafeERC20 for IERC20;\n    IERC20 public tradeToken;\n    IERC20 public baseToken;\n\n    string public name = \"EthSwap Instant Exchange\";\n    CoolToken public coolToken;\n    uint256 public coolRate = 1000;\n    SecondToken public secondToken;\n    uint256 public secondRate = 1000;\n\n    ///////////////////////////\n    //mapping is a hashtable\n    mapping(uint256 => mapping(uint8 => Order)) public buyOrdersInStep;\n    mapping(uint256 => Step) public buySteps;\n    mapping(uint256 => uint8) public buyOrdersInStepCounter;\n    uint256 public maxBuyPrice;\n\n    mapping(uint256 => mapping(uint8 => Order)) public sellOrdersInStep;\n    mapping(uint256 => Step) public sellSteps;\n    mapping(uint256 => uint8) public sellOrdersInStepCounter;\n    uint256 public minSellPrice;\n    ////////////////////////////\n\n    uint256 public buyCounter = 0;\n    uint256 public minSellRate;\n    mapping(uint256 => NewOrder) public newBuyOrderBook;\n    uint256 public idOfBuyRate;\n\n    uint256 public sellCounter = 0;\n    mapping(uint256 => NewOrder) public newSellOrderBook;\n    uint256 public idOfSellRate;\n    uint256 public maxBuyRate;\n    uint256 public selltx = 0;\n    //////////////\n    event TokensPurchased(\n        address account,\n        address token,\n        uint256 amount,\n        uint256 rate\n    );\n\n    event SecondTokensPurchased(\n        address account,\n        address token,\n        uint256 amount,\n        uint256 rate\n    );\n\n    event TokensSold(\n        address account,\n        address token,\n        uint256 amount,\n        uint256 rate\n    );\n\n    event SecondTokensSold(\n        address account,\n        address token,\n        uint256 amount,\n        uint256 rate\n    );\n\n    constructor(CoolToken _coolToken, SecondToken _secondToken) public {\n        //pass the address of the Token in\n        coolToken = _coolToken;\n        secondToken = _secondToken;\n    }\n\n    function random() internal returns (uint256) {\n        uint256 randomnumber = uint256(\n            keccak256(\n                abi.encodePacked(block.timestamp, msg.sender, block.timestamp)\n            )\n        ) % 10;\n        randomnumber = randomnumber + 90;\n        return randomnumber;\n    }\n\n    function buyCoolTokens() public payable {\n        // Calculate the number of tokens to buy\n        uint256 tokenAmount = msg.value * coolRate; //msg.value = how much ether was sent\n\n        // Require that EthSwap has enough tokens\n        require(coolToken.balanceOf(address(this)) >= tokenAmount);\n\n        // Transfer tokens to the user\n        coolToken.transfer(msg.sender, tokenAmount);\n\n        // Emit an event\n        emit TokensPurchased(\n            msg.sender,\n            address(coolToken),\n            tokenAmount,\n            coolRate\n        );\n    }\n\n    function limitBuyCoolTokens(uint256 _rate) public payable {\n        uint256 testrate = random();\n\n        require(testrate >= _rate, \"fail\");\n        // Calculate the number of tokens to buy\n        uint256 tokenAmount = msg.value * testrate; //msg.value = how much ether was sent\n\n        // Require that EthSwap has enough tokens\n        require(coolToken.balanceOf(address(this)) >= tokenAmount);\n\n        // Transfer tokens to the user\n        coolToken.transfer(msg.sender, tokenAmount);\n\n        // Emit an event\n        emit TokensPurchased(\n            msg.sender,\n            address(coolToken),\n            tokenAmount,\n            testrate\n        );\n    }\n\n    function sellCoolTokens(uint256 _amount) public {\n        // User can't sell more tokens than they have\n        require(coolToken.balanceOf(msg.sender) >= _amount);\n\n        // Calculate the amount of Ether to redeem\n        uint256 etherAmount = _amount / coolRate;\n\n        // Require that EthSwap has enough Ether\n        require(address(this).balance >= etherAmount);\n\n        // Perform sale\n        coolToken.transferFrom(msg.sender, address(this), _amount);\n        msg.sender.transfer(etherAmount);\n\n        // Emit an event\n        emit TokensSold(msg.sender, address(coolToken), _amount, coolRate);\n    }\n\n    // function limitSellCoolTokens(uint256 _amount, uint256 _rate) public {\n    //     uint256 testrate = random();\n\n    //     require(testrate <= _rate, \"fail\");\n    //     // User can't sell more tokens than they have\n    //     require(coolToken.balanceOf(msg.sender) >= _amount);\n\n    //     // // Calculate the amount of Ether to redeem\n    //     uint256 etherAmount = _amount / testrate;\n\n    //     // Require that EthSwap has enough Ether\n    //     require(address(this).balance >= etherAmount);\n\n    //     // Perform sale\n    //     coolToken.transferFrom(msg.sender, address(this), _amount);\n    //     msg.sender.transfer(etherAmount);\n\n    //     // // Emit an event\n    //     emit TokensSold(msg.sender, address(coolToken), _amount, coolRate);\n    // }\n\n    // function buySecondTokensFromCool(uint256 _coolAmount) public {\n    //     // Check if there is sufficient cool token in buyer acc\n    //     require(coolToken.balanceOf(msg.sender) >= _coolAmount);\n    //     // Calculate the amount of cool token to redeem\n    //     uint256 secondAmount = _coolAmount * secondRate;\n    //     // Check that there is enough seocond Token in ethSwap\n    //     require(secondToken.balanceOf(address(this)) >= secondAmount);\n\n    //     // Perform sale (this 2 method might be the problem)\n    //     // secondToken.transferFrom(address(this), msg.sender, secondAmount);\n    //     secondToken.transfer(msg.sender, secondAmount);\n    //     coolToken.transferFrom(msg.sender, address(this), _coolAmount);\n    //     // Emit an event\n    //     emit SecondTokensPurchased(\n    //         msg.sender,\n    //         address(secondToken),\n    //         secondAmount,\n    //         secondRate\n    //     );\n    // }\n\n    // function limitBuySecondTokens(uint256 _coolAmount, uint256 _secondRate)\n    //     public\n    // {\n    //     uint256 testrate = random();\n    //     require(testrate >= _secondRate, \"fail\");\n    //     // Check if there is sufficient cool token in buyer acc\n    //     require(coolToken.balanceOf(msg.sender) >= _coolAmount);\n    //     // Calculate the amount of cool token to redeem\n    //     uint256 secondAmount = _coolAmount * testrate;\n    //     // Check that there is enough seocond Token in ethSwap\n    //     require(secondToken.balanceOf(address(this)) >= secondAmount);\n\n    //     // Perform sale (this 2 method might be the problem)\n    //     // secondToken.transferFrom(address(this), msg.sender, secondAmount);\n    //     secondToken.transfer(msg.sender, secondAmount);\n    //     coolToken.transferFrom(msg.sender, address(this), _coolAmount);\n    //     // Emit an event\n    //     emit SecondTokensPurchased(\n    //         msg.sender,\n    //         address(secondToken),\n    //         secondAmount,\n    //         testrate\n    //     );\n    // }\n\n    // function sellSecondTokensFromCool(uint256 _secondAmount) public {\n    //     // Calculate the amount of cool token to redeem\n    //     uint256 coolAmount = _secondAmount / secondRate;\n\n    //     // Check that there is enough cool Token in ethSwap\n    //     require(coolToken.balanceOf(address(this)) >= coolAmount);\n\n    //     // Check if there is sufficient second token in buyer acc\n    //     require(secondToken.balanceOf(msg.sender) >= _secondAmount);\n\n    //     // Perform sale\n    //     secondToken.transferFrom(msg.sender, address(this), _secondAmount);\n    //     coolToken.transfer(msg.sender, coolAmount);\n\n    //     // Emit an event\n    //     emit SecondTokensSold(\n    //         msg.sender,\n    //         address(secondToken),\n    //         _secondAmount,\n    //         secondRate\n    //     );\n    // }\n\n    // function limitSellSecondTokens(uint256 _secondAmount, uint256 _secondRate)\n    //     public\n    // {\n    //     uint256 testrate = random();\n    //     require(testrate <= _secondRate, \"fail\");\n    //     // Calculate the amount of cool token to redeem\n    //     uint256 coolAmount = _secondAmount / testrate;\n\n    //     // Check that there is enough cool Token in ethSwap\n    //     require(coolToken.balanceOf(address(this)) >= coolAmount);\n\n    //     // Check if there is sufficient second token in buyer acc\n    //     require(secondToken.balanceOf(msg.sender) >= _secondAmount);\n\n    //     // Perform sale\n    //     secondToken.transferFrom(msg.sender, address(this), _secondAmount);\n    //     coolToken.transfer(msg.sender, coolAmount);\n\n    //     // Emit an event\n    //     emit SecondTokensSold(\n    //         msg.sender,\n    //         address(secondToken),\n    //         _secondAmount,\n    //         testrate\n    //     );\n    // }\n\n    function buySecondTokens() public payable {\n        // Calculate the number of tokens to buy\n        uint256 tokenAmount = msg.value * secondRate; //msg.value = how much ether was sent\n\n        // Require that EthSwap has enough tokens\n        require(secondToken.balanceOf(address(this)) >= tokenAmount);\n\n        // Transfer tokens to the user\n        secondToken.transfer(msg.sender, tokenAmount);\n\n        // Emit an event\n        emit TokensPurchased(\n            msg.sender,\n            address(secondToken),\n            tokenAmount,\n            secondRate\n        );\n    }\n\n    function sellSecondTokens(uint256 _amount) public {\n        // User can't sell more tokens than they have\n        require(secondToken.balanceOf(msg.sender) >= _amount);\n\n        // Calculate the amount of Ether to redeem\n        uint256 etherAmount = _amount / secondRate;\n\n        // Require that EthSwap has enough Ether\n        require(address(this).balance >= etherAmount);\n\n        // Perform sale\n        secondToken.transferFrom(msg.sender, address(this), _amount);\n        msg.sender.transfer(etherAmount);\n\n        // Emit an event\n        emit TokensSold(msg.sender, address(secondToken), _amount, secondRate);\n    }\n\n    ///////////////////////////////////////////////////////////////////////// ORDERBOOK //////////////////////////////////////////////////////////////////////////////////////////\n    // price = number of second u want\n    // amount of baseToken = coolToken\n    // buying second using cool\n\n    // dont gwei in frontend\n    // use price * 1 ether\n\n    //b = cool\n    //a = second\n    uint256[] public sellrateid;\n    uint256[] public buyrateid;\n\n    uint256[] public amountsell;\n    uint256[] public amountbuy;\n\n    function getbuyrate() public returns (uint256[] memory) {\n        return buyrateid;\n    }\n\n    function getsellrate() public returns (uint256[] memory) {\n        return sellrateid;\n    }\n\n    function getamountbuy() public returns (uint256[] memory) {\n        return amountbuy;\n    }\n\n    //buy B using A\n    function atob(uint256 b, uint256 a) external override nonReentrant {\n        require(coolToken.balanceOf(msg.sender) >= a, \"hello error here atob\");\n\n        coolToken.transferFrom(msg.sender, address(this), a);\n        // emit PlaceBuyOrder(msg.sender, amountOfBuyToken, amountOfSellToken);\n        // b = b * 1 ether;\n        // a = a * 1 ether;\n        uint256 rate = a / b;\n        bool toAdd = true;\n\n        for (uint256 i = 0; i < sellrateid.length; i++) {\n            idOfSellRate = sellrateid[i];\n            minSellRate = newSellOrderBook[idOfSellRate].rate;\n\n            if (rate >= minSellRate && minSellRate > 0) {\n                //give best order\n                toAdd = false;\n                if (newSellOrderBook[idOfSellRate].amount > a) {\n                    uint256 newAmount = newSellOrderBook[idOfSellRate].amount -\n                        a;\n                    newSellOrderBook[idOfSellRate].amount = newAmount; //replace old amount with new\n                    // transfer\n                    coolToken.transfer(newSellOrderBook[idOfSellRate].maker, a);\n                    secondToken.transfer(msg.sender, a / minSellRate);\n                } else if (newSellOrderBook[idOfSellRate].amount == a) {\n                    // transfer\n                    coolToken.transfer(newSellOrderBook[idOfSellRate].maker, a);\n                    secondToken.transfer(msg.sender, a / minSellRate);\n                    // update the minSellRate\n                    delete newSellOrderBook[idOfSellRate];\n                    for (uint256 j = i; j < sellrateid.length - 1; j++) {\n                        sellrateid[j] = sellrateid[j + 1];\n                    }\n                    sellrateid.pop();\n                } else if (newSellOrderBook[idOfSellRate].amount < a) {\n                    coolToken.transfer(\n                        newSellOrderBook[idOfSellRate].maker,\n                        newSellOrderBook[idOfSellRate].amount\n                    );\n                    secondToken.transfer(\n                        msg.sender,\n                        newSellOrderBook[idOfSellRate].amount / minSellRate\n                    );\n                    delete newSellOrderBook[idOfSellRate];\n                    for (uint256 j = i; j < sellrateid.length - 1; j++) {\n                        sellrateid[j] = sellrateid[j + 1];\n                    }\n                    sellrateid.pop();\n                    _atobBook(rate, a - newSellOrderBook[idOfSellRate].amount);\n                }\n                break;\n            }\n        }\n\n        if (a > 0 && toAdd) {\n            _atobBook(rate, a);\n        }\n    }\n\n    function maxNumber(uint256 a, uint256 b) internal pure returns (uint256) {\n        return a >= b ? a : b;\n    }\n\n    function minNumber(uint256 a, uint256 b) internal pure returns (uint256) {\n        return a <= b ? a : b;\n    }\n\n    function _atobBook(uint256 rate, uint256 a) internal {\n        require(rate > 0);\n        buyCounter += 1;\n        buyrateid.push(buyCounter);\n        newBuyOrderBook[buyCounter] = NewOrder(msg.sender, a, rate);\n    }\n\n    // buy A using b\n    function btoa(uint256 a, uint256 b) external override nonReentrant {\n        require(\n            secondToken.balanceOf(msg.sender) >= b,\n            \"Hello error here btoa\"\n        );\n        amountbuy.push(b);\n        amountbuy.push(a);\n        secondToken.transferFrom(msg.sender, address(this), b);\n        // emit PlaceSellOrder(msg.sender, amountOfBuyToken, amountOfSellToken);\n\n        uint256 rate = a / b;\n        bool toAdd = true;\n        // b = b * 1 ether;\n        // a = a * 1 ether;\n        for (uint256 i = 0; i < buyrateid.length; i++) {\n            idOfBuyRate = buyrateid[i];\n            maxBuyRate = newBuyOrderBook[idOfBuyRate].rate;\n\n            if (rate <= maxBuyRate && maxBuyRate > 0) {\n                toAdd = false;\n                if (newBuyOrderBook[idOfBuyRate].amount > a) {\n                    amountbuy.push(newBuyOrderBook[idOfBuyRate].amount);\n                    amountbuy.push(b);\n                    uint256 newAmount = newBuyOrderBook[idOfBuyRate].amount - a;\n                    newBuyOrderBook[idOfBuyRate].amount = newAmount; //replace old amount with new\n                    amountbuy.push(newBuyOrderBook[idOfBuyRate].amount);\n                    // transfer\n                    secondToken.transfer(newBuyOrderBook[idOfBuyRate].maker, b);\n                    coolToken.transfer(msg.sender, b * maxBuyRate);\n                } else if (newBuyOrderBook[idOfBuyRate].amount == a) {\n                    // transfer\n                    secondToken.transfer(newBuyOrderBook[idOfBuyRate].maker, b);\n                    coolToken.transfer(msg.sender, b * maxBuyRate);\n                    // update the minSellRate\n                    delete newBuyOrderBook[idOfBuyRate];\n                    for (uint256 j = i; j < buyrateid.length - 1; j++) {\n                        buyrateid[j] = buyrateid[j + 1];\n                    }\n                    buyrateid.pop();\n                } else if (newBuyOrderBook[idOfBuyRate].amount < a) {\n                    secondToken.transfer(\n                        newBuyOrderBook[idOfBuyRate].maker,\n                        newBuyOrderBook[idOfBuyRate].amount\n                    );\n                    coolToken.transfer(\n                        msg.sender,\n                        newBuyOrderBook[idOfBuyRate].amount * maxBuyRate\n                    );\n                    delete newBuyOrderBook[idOfBuyRate];\n                    for (uint256 j = i; j < buyrateid.length - 1; j++) {\n                        buyrateid[j] = buyrateid[j + 1];\n                    }\n                    buyrateid.pop();\n                    _btoaBook(rate, b - newBuyOrderBook[idOfBuyRate].amount);\n                }\n                break;\n            }\n        }\n\n        if (b > 0 && toAdd) {\n            _btoaBook(rate, b);\n        }\n    }\n\n    function _btoaBook(uint256 rate, uint256 b) internal {\n        require(rate > 0);\n        sellCounter += 1;\n        sellrateid.push(sellCounter);\n\n        newSellOrderBook[sellCounter] = NewOrder(msg.sender, b, rate);\n        // emit DrawToSellBook(msg.sender, rate, amountSold);\n    }\n\n    function placeBuyOrder(\n        uint256 price,\n        uint256 amountOfBaseToken,\n        uint256 amount\n    ) external override nonReentrant {\n        require(coolToken.balanceOf(msg.sender) >= amountOfBaseToken);\n\n        coolToken.transferFrom(msg.sender, address(this), amountOfBaseToken);\n        emit PlaceBuyOrder(msg.sender, price, amountOfBaseToken);\n\n        /**\n         * @notice if has order in sell book, and price >= min sell price\n         */\n        //minSellPrice\n        //\n        uint256 sellPricePointer = minSellPrice;\n        uint256 amountReflect = amountOfBaseToken;\n        if (minSellPrice > 0 && price >= minSellPrice) {\n            while (\n                amountReflect > 0 &&\n                sellPricePointer <= price &&\n                sellPricePointer != 0\n            ) {\n                uint8 i = 1;\n                uint256 higherPrice = sellSteps[sellPricePointer].higherPrice;\n                while (\n                    i <= sellOrdersInStepCounter[sellPricePointer] &&\n                    amountReflect > 0\n                ) {\n                    if (\n                        amountReflect >=\n                        sellOrdersInStep[sellPricePointer][i].amount\n                    ) {\n                        //if the last order has been matched, delete the step\n                        if (i == sellOrdersInStepCounter[sellPricePointer]) {\n                            if (higherPrice > 0)\n                                sellSteps[higherPrice].lowerPrice = 0;\n                            delete sellSteps[sellPricePointer];\n                            minSellPrice = higherPrice;\n                        }\n\n                        amountReflect = amountReflect.sub(\n                            sellOrdersInStep[sellPricePointer][i].amount\n                        );\n                        //send before delete order\n\n                        coolToken.transfer(\n                            sellOrdersInStep[sellPricePointer][i].maker,\n                            sellOrdersInStep[sellPricePointer][i].amount\n                        );\n                        // delete order from storage\n                        delete sellOrdersInStep[sellPricePointer][i];\n                        sellOrdersInStepCounter[sellPricePointer] -= 1;\n                        ///////////////////////////////\n                        secondToken.transfer(msg.sender, sellPricePointer);\n\n                        //token.transferFrom(ethswap to other party)\n                    } else {\n                        sellSteps[sellPricePointer].amount = sellSteps[\n                            sellPricePointer\n                        ].amount.sub(amountReflect);\n                        sellOrdersInStep[sellPricePointer][i]\n                            .amount = sellOrdersInStep[sellPricePointer][i]\n                            .amount\n                            .sub(amountReflect);\n                        amountReflect = 0;\n                    }\n                    i += 1;\n                }\n                sellPricePointer = higherPrice;\n            }\n        }\n        /**\n         * @notice draw to buy book the rest\n         */\n        if (amountReflect > 0) {\n            _drawToBuyBook(price, amountReflect);\n        }\n    }\n\n    /**\n     * @notice Place buy order.\n     */\n    function placeSellOrder(\n        uint256 price,\n        uint256 amountOfTradeToken,\n        uint256 amount\n    ) external override nonReentrant {\n        secondToken.transferFrom(msg.sender, address(this), amountOfTradeToken);\n        emit PlaceSellOrder(msg.sender, price, amountOfTradeToken);\n\n        /**\n         * @notice if has order in buy book, and price <= max buy price\n         */\n        uint256 buyPricePointer = maxBuyPrice;\n        uint256 amountReflect = amountOfTradeToken;\n        if (maxBuyPrice > 0 && price <= maxBuyPrice) {\n            while (\n                amountReflect > 0 &&\n                buyPricePointer >= price &&\n                buyPricePointer != 0\n            ) {\n                uint8 i = 1;\n                uint256 lowerPrice = buySteps[buyPricePointer].lowerPrice;\n                while (\n                    i <= buyOrdersInStepCounter[buyPricePointer] &&\n                    amountReflect > 0\n                ) {\n                    if (\n                        amountReflect >=\n                        buyOrdersInStep[buyPricePointer][i].amount\n                    ) {\n                        //if the last order has been matched, delete the step\n                        if (i == buyOrdersInStepCounter[buyPricePointer]) {\n                            if (lowerPrice > 0)\n                                buySteps[lowerPrice].higherPrice = 0;\n                            delete buySteps[buyPricePointer];\n                            maxBuyPrice = lowerPrice;\n                        }\n\n                        amountReflect =\n                            amountReflect -\n                            (buyOrdersInStep[buyPricePointer][i].amount);\n                        //send before delete order\n                        secondToken.transfer(\n                            buyOrdersInStep[buyPricePointer][i].maker,\n                            buyOrdersInStep[buyPricePointer][i].amount\n                        );\n                        // delete order from storage\n\n                        delete buyOrdersInStep[buyPricePointer][i];\n                        buyOrdersInStepCounter[buyPricePointer] -= 1;\n\n                        ///////\n                        coolToken.transfer(msg.sender, buyPricePointer);\n                    } else {\n                        buySteps[buyPricePointer].amount =\n                            buySteps[buyPricePointer].amount -\n                            (amountReflect);\n                        buyOrdersInStep[buyPricePointer][i].amount =\n                            buyOrdersInStep[buyPricePointer][i].amount -\n                            (amountReflect);\n                        amountReflect = 0;\n                    }\n                    i += 1;\n                }\n                buyPricePointer = lowerPrice;\n            }\n        }\n        /**\n         * @notice draw to buy book the rest\n         */\n        if (amountReflect > 0) {\n            _drawToSellBook(price, amountReflect);\n        }\n    }\n\n    /**\n     * @notice draw buy order.\n     */\n    function _drawToBuyBook(uint256 price, uint256 amount) internal {\n        require(price > 0, \"Can not place order with price equal 0\");\n\n        buyOrdersInStepCounter[price] += 1;\n        // order creation here\n        buyOrdersInStep[price][buyOrdersInStepCounter[price]] = Order(\n            msg.sender,\n            amount\n        );\n        buySteps[price].amount = buySteps[price].amount + (amount);\n        emit DrawToBuyBook(msg.sender, price, amount);\n\n        if (maxBuyPrice == 0) {\n            maxBuyPrice = price;\n            return;\n        }\n\n        if (price > maxBuyPrice) {\n            buySteps[maxBuyPrice].higherPrice = price;\n            buySteps[price].lowerPrice = maxBuyPrice;\n            maxBuyPrice = price;\n            return;\n        }\n\n        if (price == maxBuyPrice) {\n            return;\n        }\n\n        uint256 buyPricePointer = maxBuyPrice;\n        while (price <= buyPricePointer) {\n            buyPricePointer = buySteps[buyPricePointer].lowerPrice;\n        }\n\n        if (price < buySteps[buyPricePointer].higherPrice) {\n            buySteps[price].higherPrice = buySteps[buyPricePointer].higherPrice;\n            buySteps[price].lowerPrice = buyPricePointer;\n\n            buySteps[buySteps[buyPricePointer].higherPrice].lowerPrice = price;\n            buySteps[buyPricePointer].higherPrice = price;\n        }\n    }\n\n    /**\n     * @notice draw sell order.\n     */\n    function _drawToSellBook(uint256 price, uint256 amount) internal {\n        require(price > 0, \"Can not place order with price equal 0\");\n\n        sellOrdersInStepCounter[price] += 1;\n        sellOrdersInStep[price][sellOrdersInStepCounter[price]] = Order(\n            msg.sender,\n            amount\n        );\n        sellSteps[price].amount += amount;\n        emit DrawToSellBook(msg.sender, price, amount);\n\n        if (minSellPrice == 0) {\n            minSellPrice = price;\n            return;\n        }\n\n        if (price < minSellPrice) {\n            sellSteps[minSellPrice].lowerPrice = price;\n            sellSteps[price].higherPrice = minSellPrice;\n            minSellPrice = price;\n            return;\n        }\n\n        if (price == minSellPrice) {\n            return;\n        }\n\n        uint256 sellPricePointer = minSellPrice;\n        while (\n            price >= sellPricePointer &&\n            sellSteps[sellPricePointer].higherPrice != 0\n        ) {\n            sellPricePointer = sellSteps[sellPricePointer].higherPrice;\n        }\n\n        if (sellPricePointer < price) {\n            sellSteps[price].lowerPrice = sellPricePointer;\n            sellSteps[sellPricePointer].higherPrice = price;\n        }\n\n        if (\n            sellPricePointer > price &&\n            price > sellSteps[sellPricePointer].lowerPrice\n        ) {\n            sellSteps[price].lowerPrice = sellSteps[sellPricePointer]\n                .lowerPrice;\n            sellSteps[price].higherPrice = sellPricePointer;\n\n            sellSteps[sellSteps[sellPricePointer].lowerPrice]\n                .higherPrice = price;\n            sellSteps[sellPricePointer].lowerPrice = price;\n        }\n    }\n}\n",
  "sourcePath": "/Users/weerenteo/Documents/Year 4 Sem 2/CZ4153 Blockchain Technology/Project/Blockchain-DEX/src/contracts/EthSwap.sol",
  "compiler": {
    "name": "solc",
    "version": "0.6.8+commit.0bbfe453.Emscripten.clang"
  },
  "schemaVersion": "3.4.10",
  "updatedAt": "2022-11-03T19:01:35.097Z",
  "networkType": "ethereum",
  "devdoc": {
    "methods": {}
  },
  "userdoc": {
    "methods": {
      "placeSellOrder(uint256,uint256,uint256)": {
        "notice": "Place buy order."
      }
    }
  }
}