{
  "contractName": "EthSwap",
  "abi": [
    {
      "inputs": [
        {
          "internalType": "contract CoolToken",
          "name": "_coolToken",
          "type": "address"
        },
        {
          "internalType": "contract SecondToken",
          "name": "_secondToken",
          "type": "address"
        }
      ],
      "stateMutability": "nonpayable",
      "type": "constructor"
    },
    {
      "anonymous": false,
      "inputs": [
        {
          "indexed": false,
          "internalType": "address",
          "name": "sender",
          "type": "address"
        },
        {
          "indexed": false,
          "internalType": "uint256",
          "name": "price",
          "type": "uint256"
        },
        {
          "indexed": false,
          "internalType": "uint256",
          "name": "amountOfBaseToken",
          "type": "uint256"
        }
      ],
      "name": "DrawToBuyBook",
      "type": "event"
    },
    {
      "anonymous": false,
      "inputs": [
        {
          "indexed": false,
          "internalType": "address",
          "name": "sender",
          "type": "address"
        },
        {
          "indexed": false,
          "internalType": "uint256",
          "name": "price",
          "type": "uint256"
        },
        {
          "indexed": false,
          "internalType": "uint256",
          "name": "amountOfTradeToken",
          "type": "uint256"
        }
      ],
      "name": "DrawToSellBook",
      "type": "event"
    },
    {
      "anonymous": false,
      "inputs": [
        {
          "indexed": false,
          "internalType": "address",
          "name": "sender",
          "type": "address"
        },
        {
          "indexed": false,
          "internalType": "uint256",
          "name": "price",
          "type": "uint256"
        },
        {
          "indexed": false,
          "internalType": "uint256",
          "name": "amountOfBaseToken",
          "type": "uint256"
        }
      ],
      "name": "PlaceBuyOrder",
      "type": "event"
    },
    {
      "anonymous": false,
      "inputs": [
        {
          "indexed": false,
          "internalType": "address",
          "name": "sender",
          "type": "address"
        },
        {
          "indexed": false,
          "internalType": "uint256",
          "name": "price",
          "type": "uint256"
        },
        {
          "indexed": false,
          "internalType": "uint256",
          "name": "amountOfTradeToken",
          "type": "uint256"
        }
      ],
      "name": "PlaceSellOrder",
      "type": "event"
    },
    {
      "anonymous": false,
      "inputs": [
        {
          "indexed": false,
          "internalType": "address",
          "name": "account",
          "type": "address"
        },
        {
          "indexed": false,
          "internalType": "address",
          "name": "token",
          "type": "address"
        },
        {
          "indexed": false,
          "internalType": "uint256",
          "name": "amount",
          "type": "uint256"
        },
        {
          "indexed": false,
          "internalType": "uint256",
          "name": "rate",
          "type": "uint256"
        }
      ],
      "name": "SecondTokensPurchased",
      "type": "event"
    },
    {
      "anonymous": false,
      "inputs": [
        {
          "indexed": false,
          "internalType": "address",
          "name": "account",
          "type": "address"
        },
        {
          "indexed": false,
          "internalType": "address",
          "name": "token",
          "type": "address"
        },
        {
          "indexed": false,
          "internalType": "uint256",
          "name": "amount",
          "type": "uint256"
        },
        {
          "indexed": false,
          "internalType": "uint256",
          "name": "rate",
          "type": "uint256"
        }
      ],
      "name": "SecondTokensSold",
      "type": "event"
    },
    {
      "anonymous": false,
      "inputs": [
        {
          "indexed": false,
          "internalType": "address",
          "name": "account",
          "type": "address"
        },
        {
          "indexed": false,
          "internalType": "address",
          "name": "token",
          "type": "address"
        },
        {
          "indexed": false,
          "internalType": "uint256",
          "name": "amount",
          "type": "uint256"
        },
        {
          "indexed": false,
          "internalType": "uint256",
          "name": "rate",
          "type": "uint256"
        }
      ],
      "name": "TokensPurchased",
      "type": "event"
    },
    {
      "anonymous": false,
      "inputs": [
        {
          "indexed": false,
          "internalType": "address",
          "name": "account",
          "type": "address"
        },
        {
          "indexed": false,
          "internalType": "address",
          "name": "token",
          "type": "address"
        },
        {
          "indexed": false,
          "internalType": "uint256",
          "name": "amount",
          "type": "uint256"
        },
        {
          "indexed": false,
          "internalType": "uint256",
          "name": "rate",
          "type": "uint256"
        }
      ],
      "name": "TokensSold",
      "type": "event"
    },
    {
      "inputs": [],
      "name": "baseToken",
      "outputs": [
        {
          "internalType": "contract IERC20",
          "name": "",
          "type": "address"
        }
      ],
      "stateMutability": "view",
      "type": "function",
      "constant": true
    },
    {
      "inputs": [],
      "name": "buyCounter",
      "outputs": [
        {
          "internalType": "uint256",
          "name": "",
          "type": "uint256"
        }
      ],
      "stateMutability": "view",
      "type": "function",
      "constant": true
    },
    {
      "inputs": [
        {
          "internalType": "uint256",
          "name": "",
          "type": "uint256"
        },
        {
          "internalType": "uint8",
          "name": "",
          "type": "uint8"
        }
      ],
      "name": "buyOrdersInStep",
      "outputs": [
        {
          "internalType": "address",
          "name": "maker",
          "type": "address"
        },
        {
          "internalType": "uint256",
          "name": "amount",
          "type": "uint256"
        }
      ],
      "stateMutability": "view",
      "type": "function",
      "constant": true
    },
    {
      "inputs": [
        {
          "internalType": "uint256",
          "name": "",
          "type": "uint256"
        }
      ],
      "name": "buyOrdersInStepCounter",
      "outputs": [
        {
          "internalType": "uint8",
          "name": "",
          "type": "uint8"
        }
      ],
      "stateMutability": "view",
      "type": "function",
      "constant": true
    },
    {
      "inputs": [
        {
          "internalType": "uint256",
          "name": "",
          "type": "uint256"
        }
      ],
      "name": "buySteps",
      "outputs": [
        {
          "internalType": "uint256",
          "name": "higherPrice",
          "type": "uint256"
        },
        {
          "internalType": "uint256",
          "name": "lowerPrice",
          "type": "uint256"
        },
        {
          "internalType": "uint256",
          "name": "amount",
          "type": "uint256"
        }
      ],
      "stateMutability": "view",
      "type": "function",
      "constant": true
    },
    {
      "inputs": [
        {
          "internalType": "uint256",
          "name": "",
          "type": "uint256"
        }
      ],
      "name": "buyrateid",
      "outputs": [
        {
          "internalType": "uint256",
          "name": "",
          "type": "uint256"
        }
      ],
      "stateMutability": "view",
      "type": "function",
      "constant": true
    },
    {
      "inputs": [],
      "name": "coolRate",
      "outputs": [
        {
          "internalType": "uint256",
          "name": "",
          "type": "uint256"
        }
      ],
      "stateMutability": "view",
      "type": "function",
      "constant": true
    },
    {
      "inputs": [],
      "name": "coolToken",
      "outputs": [
        {
          "internalType": "contract CoolToken",
          "name": "",
          "type": "address"
        }
      ],
      "stateMutability": "view",
      "type": "function",
      "constant": true
    },
    {
      "inputs": [],
      "name": "idOfBuyRate",
      "outputs": [
        {
          "internalType": "uint256",
          "name": "",
          "type": "uint256"
        }
      ],
      "stateMutability": "view",
      "type": "function",
      "constant": true
    },
    {
      "inputs": [],
      "name": "idOfSellRate",
      "outputs": [
        {
          "internalType": "uint256",
          "name": "",
          "type": "uint256"
        }
      ],
      "stateMutability": "view",
      "type": "function",
      "constant": true
    },
    {
      "inputs": [],
      "name": "maxBuyPrice",
      "outputs": [
        {
          "internalType": "uint256",
          "name": "",
          "type": "uint256"
        }
      ],
      "stateMutability": "view",
      "type": "function",
      "constant": true
    },
    {
      "inputs": [],
      "name": "maxBuyRate",
      "outputs": [
        {
          "internalType": "uint256",
          "name": "",
          "type": "uint256"
        }
      ],
      "stateMutability": "view",
      "type": "function",
      "constant": true
    },
    {
      "inputs": [],
      "name": "minSellPrice",
      "outputs": [
        {
          "internalType": "uint256",
          "name": "",
          "type": "uint256"
        }
      ],
      "stateMutability": "view",
      "type": "function",
      "constant": true
    },
    {
      "inputs": [],
      "name": "minSellRate",
      "outputs": [
        {
          "internalType": "uint256",
          "name": "",
          "type": "uint256"
        }
      ],
      "stateMutability": "view",
      "type": "function",
      "constant": true
    },
    {
      "inputs": [],
      "name": "name",
      "outputs": [
        {
          "internalType": "string",
          "name": "",
          "type": "string"
        }
      ],
      "stateMutability": "view",
      "type": "function",
      "constant": true
    },
    {
      "inputs": [
        {
          "internalType": "uint256",
          "name": "",
          "type": "uint256"
        }
      ],
      "name": "newBuyOrderBook",
      "outputs": [
        {
          "internalType": "address",
          "name": "maker",
          "type": "address"
        },
        {
          "internalType": "uint256",
          "name": "amount",
          "type": "uint256"
        },
        {
          "internalType": "uint256",
          "name": "rate",
          "type": "uint256"
        }
      ],
      "stateMutability": "view",
      "type": "function",
      "constant": true
    },
    {
      "inputs": [
        {
          "internalType": "uint256",
          "name": "",
          "type": "uint256"
        }
      ],
      "name": "newSellOrderBook",
      "outputs": [
        {
          "internalType": "address",
          "name": "maker",
          "type": "address"
        },
        {
          "internalType": "uint256",
          "name": "amount",
          "type": "uint256"
        },
        {
          "internalType": "uint256",
          "name": "rate",
          "type": "uint256"
        }
      ],
      "stateMutability": "view",
      "type": "function",
      "constant": true
    },
    {
      "inputs": [],
      "name": "secondRate",
      "outputs": [
        {
          "internalType": "uint256",
          "name": "",
          "type": "uint256"
        }
      ],
      "stateMutability": "view",
      "type": "function",
      "constant": true
    },
    {
      "inputs": [],
      "name": "secondToken",
      "outputs": [
        {
          "internalType": "contract SecondToken",
          "name": "",
          "type": "address"
        }
      ],
      "stateMutability": "view",
      "type": "function",
      "constant": true
    },
    {
      "inputs": [],
      "name": "sellCounter",
      "outputs": [
        {
          "internalType": "uint256",
          "name": "",
          "type": "uint256"
        }
      ],
      "stateMutability": "view",
      "type": "function",
      "constant": true
    },
    {
      "inputs": [
        {
          "internalType": "uint256",
          "name": "",
          "type": "uint256"
        },
        {
          "internalType": "uint8",
          "name": "",
          "type": "uint8"
        }
      ],
      "name": "sellOrdersInStep",
      "outputs": [
        {
          "internalType": "address",
          "name": "maker",
          "type": "address"
        },
        {
          "internalType": "uint256",
          "name": "amount",
          "type": "uint256"
        }
      ],
      "stateMutability": "view",
      "type": "function",
      "constant": true
    },
    {
      "inputs": [
        {
          "internalType": "uint256",
          "name": "",
          "type": "uint256"
        }
      ],
      "name": "sellOrdersInStepCounter",
      "outputs": [
        {
          "internalType": "uint8",
          "name": "",
          "type": "uint8"
        }
      ],
      "stateMutability": "view",
      "type": "function",
      "constant": true
    },
    {
      "inputs": [
        {
          "internalType": "uint256",
          "name": "",
          "type": "uint256"
        }
      ],
      "name": "sellSteps",
      "outputs": [
        {
          "internalType": "uint256",
          "name": "higherPrice",
          "type": "uint256"
        },
        {
          "internalType": "uint256",
          "name": "lowerPrice",
          "type": "uint256"
        },
        {
          "internalType": "uint256",
          "name": "amount",
          "type": "uint256"
        }
      ],
      "stateMutability": "view",
      "type": "function",
      "constant": true
    },
    {
      "inputs": [
        {
          "internalType": "uint256",
          "name": "",
          "type": "uint256"
        }
      ],
      "name": "sellrateid",
      "outputs": [
        {
          "internalType": "uint256",
          "name": "",
          "type": "uint256"
        }
      ],
      "stateMutability": "view",
      "type": "function",
      "constant": true
    },
    {
      "inputs": [],
      "name": "selltx",
      "outputs": [
        {
          "internalType": "uint256",
          "name": "",
          "type": "uint256"
        }
      ],
      "stateMutability": "view",
      "type": "function",
      "constant": true
    },
    {
      "inputs": [],
      "name": "tradeToken",
      "outputs": [
        {
          "internalType": "contract IERC20",
          "name": "",
          "type": "address"
        }
      ],
      "stateMutability": "view",
      "type": "function",
      "constant": true
    },
    {
      "inputs": [],
      "name": "buyCoolTokens",
      "outputs": [],
      "stateMutability": "payable",
      "type": "function",
      "payable": true
    },
    {
      "inputs": [
        {
          "internalType": "uint256",
          "name": "_rate",
          "type": "uint256"
        }
      ],
      "name": "limitBuyCoolTokens",
      "outputs": [],
      "stateMutability": "payable",
      "type": "function",
      "payable": true
    },
    {
      "inputs": [
        {
          "internalType": "uint256",
          "name": "_amount",
          "type": "uint256"
        }
      ],
      "name": "sellCoolTokens",
      "outputs": [],
      "stateMutability": "nonpayable",
      "type": "function"
    },
    {
      "inputs": [],
      "name": "buySecondTokens",
      "outputs": [],
      "stateMutability": "payable",
      "type": "function",
      "payable": true
    },
    {
      "inputs": [
        {
          "internalType": "uint256",
          "name": "_amount",
          "type": "uint256"
        }
      ],
      "name": "sellSecondTokens",
      "outputs": [],
      "stateMutability": "nonpayable",
      "type": "function"
    },
    {
      "inputs": [
        {
          "internalType": "uint256",
          "name": "b",
          "type": "uint256"
        },
        {
          "internalType": "uint256",
          "name": "a",
          "type": "uint256"
        }
      ],
      "name": "atob",
      "outputs": [],
      "stateMutability": "nonpayable",
      "type": "function"
    },
    {
      "inputs": [
        {
          "internalType": "uint256",
          "name": "b",
          "type": "uint256"
        },
        {
          "internalType": "uint256",
          "name": "a",
          "type": "uint256"
        }
      ],
      "name": "btoa",
      "outputs": [],
      "stateMutability": "nonpayable",
      "type": "function"
    },
    {
      "inputs": [
        {
          "internalType": "uint256",
          "name": "price",
          "type": "uint256"
        },
        {
          "internalType": "uint256",
          "name": "amountOfBaseToken",
          "type": "uint256"
        },
        {
          "internalType": "uint256",
          "name": "amount",
          "type": "uint256"
        }
      ],
      "name": "placeBuyOrder",
      "outputs": [],
      "stateMutability": "nonpayable",
      "type": "function"
    },
    {
      "inputs": [
        {
          "internalType": "uint256",
          "name": "price",
          "type": "uint256"
        },
        {
          "internalType": "uint256",
          "name": "amountOfTradeToken",
          "type": "uint256"
        },
        {
          "internalType": "uint256",
          "name": "amount",
          "type": "uint256"
        }
      ],
      "name": "placeSellOrder",
      "outputs": [],
      "stateMutability": "nonpayable",
      "type": "function"
    }
  ],
  "bytecode": "0x60806040526040518060400160405280601881526020017f4574685377617020496e7374616e742045786368616e6765000000000000000081525060039080519060200190620000519291906200014d565b506103e86005556103e86007556000601055600060145560006018553480156200007a57600080fd5b50604051620050763803806200507683398181016040526040811015620000a057600080fd5b810190808051906020019092919080519060200190929190505050600160008190555081600460006101000a81548173ffffffffffffffffffffffffffffffffffffffff021916908373ffffffffffffffffffffffffffffffffffffffff16021790555080600660006101000a81548173ffffffffffffffffffffffffffffffffffffffff021916908373ffffffffffffffffffffffffffffffffffffffff1602179055505050620001fc565b828054600181600116156101000203166002900490600052602060002090601f016020900481019282601f106200019057805160ff1916838001178555620001c1565b82800160010185558215620001c1579182015b82811115620001c0578251825591602001919060010190620001a3565b5b509050620001d09190620001d4565b5090565b620001f991905b80821115620001f5576000816000905550600101620001db565b5090565b90565b614e6a806200020c6000396000f3fe6080604052600436106102035760003560e01c80638b77bd7711610118578063cddfa2a4116100a0578063e7e8b3821161006f578063e7e8b38214610a64578063eaf5a13014610ab9578063ec4763b614610ae4578063f9193df014610b33578063ff1e086c14610b9057610203565b8063cddfa2a414610968578063d83678ac14610993578063dd7f4e40146109ea578063e6a3326814610a3957610203565b806399487e88116100e757806399487e8814610807578063a4d0047d14610832578063b2bb39ef1461085d578063c55dae63146108e6578063c86f66391461093d57610203565b80638b77bd77146107505780639001c6d8146107a757806391ceedbf146107b1578063947cde38146107dc57610203565b8063433f88da1161019b5780636bc69a241161016a5780636bc69a24146105cd5780636caa30d9146106565780636d9521171461069157806383c25887146106bc5780638544a5ec1461070b57610203565b8063433f88da146104aa57806343e2bd021461053957806352d49fa9146105675780635632993b146105a257610203565b80632e78cd24116101d75780632e78cd241461038657806333f393ee146103e35780633bfd49da146104285780633edec69a1461047f57610203565b80626efa71146102085780630446d1c61461021257806304ebe308146102a157806306fdde03146102f6575b600080fd5b610210610bdf565b005b34801561021e57600080fd5b506102586004803603604081101561023557600080fd5b8101908080359060200190929190803560ff169060200190929190505050610e81565b604051808373ffffffffffffffffffffffffffffffffffffffff1673ffffffffffffffffffffffffffffffffffffffff1681526020018281526020019250505060405180910390f35b3480156102ad57600080fd5b506102da600480360360208110156102c457600080fd5b8101908080359060200190929190505050610ed2565b604051808260ff1660ff16815260200191505060405180910390f35b34801561030257600080fd5b5061030b610ef2565b6040518080602001828103825283818151815260200191508051906020019080838360005b8381101561034b578082015181840152602081019050610330565b50505050905090810190601f1680156103785780820380516001836020036101000a031916815260200191505b509250505060405180910390f35b34801561039257600080fd5b506103bf600480360360208110156103a957600080fd5b8101908080359060200190929190505050610f90565b60405180848152602001838152602001828152602001935050505060405180910390f35b3480156103ef57600080fd5b506104266004803603604081101561040657600080fd5b810190808035906020019092919080359060200190929190505050610fba565b005b34801561043457600080fd5b5061043d611a97565b604051808273ffffffffffffffffffffffffffffffffffffffff1673ffffffffffffffffffffffffffffffffffffffff16815260200191505060405180910390f35b34801561048b57600080fd5b50610494611abd565b6040518082815260200191505060405180910390f35b3480156104b657600080fd5b506104f0600480360360408110156104cd57600080fd5b8101908080359060200190929190803560ff169060200190929190505050611ac3565b604051808373ffffffffffffffffffffffffffffffffffffffff1673ffffffffffffffffffffffffffffffffffffffff1681526020018281526020019250505060405180910390f35b6105656004803603602081101561054f57600080fd5b8101908080359060200190929190505050611b14565b005b34801561057357600080fd5b506105a06004803603602081101561058a57600080fd5b8101908080359060200190929190505050611e36565b005b3480156105ae57600080fd5b506105b761217f565b6040518082815260200191505060405180910390f35b3480156105d957600080fd5b50610606600480360360208110156105f057600080fd5b8101908080359060200190929190505050612185565b604051808473ffffffffffffffffffffffffffffffffffffffff1673ffffffffffffffffffffffffffffffffffffffff168152602001838152602001828152602001935050505060405180910390f35b34801561066257600080fd5b5061068f6004803603602081101561067957600080fd5b81019080803590602001909291905050506121cf565b005b34801561069d57600080fd5b506106a6612518565b6040518082815260200191505060405180910390f35b3480156106c857600080fd5b50610709600480360360608110156106df57600080fd5b8101908080359060200190929190803590602001909291908035906020019092919050505061251e565b005b34801561071757600080fd5b5061074e6004803603604081101561072e57600080fd5b810190808035906020019092919080359060200190929190505050612d8c565b005b34801561075c57600080fd5b50610765613884565b604051808273ffffffffffffffffffffffffffffffffffffffff1673ffffffffffffffffffffffffffffffffffffffff16815260200191505060405180910390f35b6107af6138aa565b005b3480156107bd57600080fd5b506107c6613b4c565b6040518082815260200191505060405180910390f35b3480156107e857600080fd5b506107f1613b52565b6040518082815260200191505060405180910390f35b34801561081357600080fd5b5061081c613b58565b6040518082815260200191505060405180910390f35b34801561083e57600080fd5b50610847613b5e565b6040518082815260200191505060405180910390f35b34801561086957600080fd5b506108966004803603602081101561088057600080fd5b8101908080359060200190929190505050613b64565b604051808473ffffffffffffffffffffffffffffffffffffffff1673ffffffffffffffffffffffffffffffffffffffff168152602001838152602001828152602001935050505060405180910390f35b3480156108f257600080fd5b506108fb613bae565b604051808273ffffffffffffffffffffffffffffffffffffffff1673ffffffffffffffffffffffffffffffffffffffff16815260200191505060405180910390f35b34801561094957600080fd5b50610952613bd4565b6040518082815260200191505060405180910390f35b34801561097457600080fd5b5061097d613bda565b6040518082815260200191505060405180910390f35b34801561099f57600080fd5b506109a8613be0565b604051808273ffffffffffffffffffffffffffffffffffffffff1673ffffffffffffffffffffffffffffffffffffffff16815260200191505060405180910390f35b3480156109f657600080fd5b50610a2360048036036020811015610a0d57600080fd5b8101908080359060200190929190505050613c06565b6040518082815260200191505060405180910390f35b348015610a4557600080fd5b50610a4e613c27565b6040518082815260200191505060405180910390f35b348015610a7057600080fd5b50610a9d60048036036020811015610a8757600080fd5b8101908080359060200190929190505050613c2d565b604051808260ff1660ff16815260200191505060405180910390f35b348015610ac557600080fd5b50610ace613c4d565b6040518082815260200191505060405180910390f35b348015610af057600080fd5b50610b1d60048036036020811015610b0757600080fd5b8101908080359060200190929190505050613c53565b6040518082815260200191505060405180910390f35b348015610b3f57600080fd5b50610b6c60048036036020811015610b5657600080fd5b8101908080359060200190929190505050613c74565b60405180848152602001838152602001828152602001935050505060405180910390f35b348015610b9c57600080fd5b50610bdd60048036036060811015610bb357600080fd5b81019080803590602001909291908035906020019092919080359060200190929190505050613c9e565b005b60006007543402905080600660009054906101000a900473ffffffffffffffffffffffffffffffffffffffff1673ffffffffffffffffffffffffffffffffffffffff166370a08231306040518263ffffffff1660e01b8152600401808273ffffffffffffffffffffffffffffffffffffffff1673ffffffffffffffffffffffffffffffffffffffff16815260200191505060206040518083038186803b158015610c8857600080fd5b505afa158015610c9c573d6000803e3d6000fd5b505050506040513d6020811015610cb257600080fd5b81019080805190602001909291905050501015610cce57600080fd5b600660009054906101000a900473ffffffffffffffffffffffffffffffffffffffff1673ffffffffffffffffffffffffffffffffffffffff1663a9059cbb33836040518363ffffffff1660e01b8152600401808373ffffffffffffffffffffffffffffffffffffffff1673ffffffffffffffffffffffffffffffffffffffff16815260200182815260200192505050602060405180830381600087803b158015610d7757600080fd5b505af1158015610d8b573d6000803e3d6000fd5b505050506040513d6020811015610da157600080fd5b8101908080519060200190929190505050507f6faf93231a456e552dbc9961f58d9713ee4f2e69d15f1975b050ef0911053a7b33600660009054906101000a900473ffffffffffffffffffffffffffffffffffffffff1683600754604051808573ffffffffffffffffffffffffffffffffffffffff1673ffffffffffffffffffffffffffffffffffffffff1681526020018473ffffffffffffffffffffffffffffffffffffffff1673ffffffffffffffffffffffffffffffffffffffff16815260200183815260200182815260200194505050505060405180910390a150565b600c602052816000526040600020602052806000526040600020600091509150508060000160009054906101000a900473ffffffffffffffffffffffffffffffffffffffff16908060010154905082565b600a6020528060005260406000206000915054906101000a900460ff1681565b60038054600181600116156101000203166002900480601f016020809104026020016040519081016040528092919081815260200182805460018160011615610100020316600290048015610f885780601f10610f5d57610100808354040283529160200191610f88565b820191906000526020600020905b815481529060010190602001808311610f6b57829003601f168201915b505050505081565b60096020528060005260406000206000915090508060000154908060010154908060020154905083565b60026000541415611033576040517f08c379a000000000000000000000000000000000000000000000000000000000815260040180806020018281038252601f8152602001807f5265656e7472616e637947756172643a207265656e7472616e742063616c6c0081525060200191505060405180910390fd5b600260008190555081600660009054906101000a900473ffffffffffffffffffffffffffffffffffffffff1673ffffffffffffffffffffffffffffffffffffffff166370a08231336040518263ffffffff1660e01b8152600401808273ffffffffffffffffffffffffffffffffffffffff1673ffffffffffffffffffffffffffffffffffffffff16815260200191505060206040518083038186803b1580156110db57600080fd5b505afa1580156110ef573d6000803e3d6000fd5b505050506040513d602081101561110557600080fd5b8101908080519060200190929190505050101561118a576040517f08c379a00000000000000000000000000000000000000000000000000000000081526004018080602001828103825260158152602001807f48656c6c6f206572726f7220686572652062746f61000000000000000000000081525060200191505060405180910390fd5b600660009054906101000a900473ffffffffffffffffffffffffffffffffffffffff1673ffffffffffffffffffffffffffffffffffffffff166323b872dd3330856040518463ffffffff1660e01b8152600401808473ffffffffffffffffffffffffffffffffffffffff1673ffffffffffffffffffffffffffffffffffffffff1681526020018373ffffffffffffffffffffffffffffffffffffffff1673ffffffffffffffffffffffffffffffffffffffff1681526020018281526020019350505050602060405180830381600087803b15801561126757600080fd5b505af115801561127b573d6000803e3d6000fd5b505050506040513d602081101561129157600080fd5b81019080805190602001909291905050505060008282816112ae57fe5b049050600060115490506000849050600060019050670de0b6b3a764000086029550670de0b6b3a76400008502945060008090505b601a80549050811015611a6957601a81815481106112fd57fe5b906000526020600020015460138190555060126000601354815260200190815260200160002060020154601781905550601754851115801561134157506000601754115b15611a5c5760009150866012600060135481526020019081526020016000206001015411156115aa57600087601260006013548152602001908152602001600020600101540390508060126000601354815260200190815260200160002060010181905550600460009054906101000a900473ffffffffffffffffffffffffffffffffffffffff1673ffffffffffffffffffffffffffffffffffffffff1663a9059cbb60126000601354815260200190815260200160002060000160009054906101000a900473ffffffffffffffffffffffffffffffffffffffff168a6040518363ffffffff1660e01b8152600401808373ffffffffffffffffffffffffffffffffffffffff1673ffffffffffffffffffffffffffffffffffffffff16815260200182815260200192505050602060405180830381600087803b15801561148757600080fd5b505af115801561149b573d6000803e3d6000fd5b505050506040513d60208110156114b157600080fd5b810190808051906020019092919050505050600660009054906101000a900473ffffffffffffffffffffffffffffffffffffffff1673ffffffffffffffffffffffffffffffffffffffff1663a9059cbb338a6040518363ffffffff1660e01b8152600401808373ffffffffffffffffffffffffffffffffffffffff1673ffffffffffffffffffffffffffffffffffffffff16815260200182815260200192505050602060405180830381600087803b15801561156c57600080fd5b505af1158015611580573d6000803e3d6000fd5b505050506040513d602081101561159657600080fd5b810190808051906020019092919050505050505b8660126000601354815260200190815260200160002060010154141561181c57600460009054906101000a900473ffffffffffffffffffffffffffffffffffffffff1673ffffffffffffffffffffffffffffffffffffffff1663a9059cbb60126000601354815260200190815260200160002060000160009054906101000a900473ffffffffffffffffffffffffffffffffffffffff16896040518363ffffffff1660e01b8152600401808373ffffffffffffffffffffffffffffffffffffffff1673ffffffffffffffffffffffffffffffffffffffff16815260200182815260200192505050602060405180830381600087803b1580156116ab57600080fd5b505af11580156116bf573d6000803e3d6000fd5b505050506040513d60208110156116d557600080fd5b810190808051906020019092919050505050600660009054906101000a900473ffffffffffffffffffffffffffffffffffffffff1673ffffffffffffffffffffffffffffffffffffffff1663a9059cbb33896040518363ffffffff1660e01b8152600401808373ffffffffffffffffffffffffffffffffffffffff1673ffffffffffffffffffffffffffffffffffffffff16815260200182815260200192505050602060405180830381600087803b15801561179057600080fd5b505af11580156117a4573d6000803e3d6000fd5b505050506040513d60208110156117ba57600080fd5b810190808051906020019092919050505050601260006013548152602001908152602001600020600080820160006101000a81549073ffffffffffffffffffffffffffffffffffffffff02191690556001820160009055600282016000905550505b86601260006013548152602001908152602001600020600101541015611a5757600460009054906101000a900473ffffffffffffffffffffffffffffffffffffffff1673ffffffffffffffffffffffffffffffffffffffff1663a9059cbb60126000601354815260200190815260200160002060000160009054906101000a900473ffffffffffffffffffffffffffffffffffffffff16601260006013548152602001908152602001600020600101546040518363ffffffff1660e01b8152600401808373ffffffffffffffffffffffffffffffffffffffff1673ffffffffffffffffffffffffffffffffffffffff16815260200182815260200192505050602060405180830381600087803b15801561193557600080fd5b505af1158015611949573d6000803e3d6000fd5b505050506040513d602081101561195f57600080fd5b810190808051906020019092919050505050600660009054906101000a900473ffffffffffffffffffffffffffffffffffffffff1673ffffffffffffffffffffffffffffffffffffffff1663a9059cbb33896040518363ffffffff1660e01b8152600401808373ffffffffffffffffffffffffffffffffffffffff1673ffffffffffffffffffffffffffffffffffffffff16815260200182815260200192505050602060405180830381600087803b158015611a1a57600080fd5b505af1158015611a2e573d6000803e3d6000fd5b505050506040513d6020811015611a4457600080fd5b8101908080519060200190929190505050505b611a69565b80806001019150506112e3565b50600086118015611a775750805b15611a8757611a8684876143f6565b5b5050505060016000819055505050565b600660009054906101000a900473ffffffffffffffffffffffffffffffffffffffff1681565b60115481565b6008602052816000526040600020602052806000526040600020600091509150508060000160009054906101000a900473ffffffffffffffffffffffffffffffffffffffff16908060010154905082565b6000611b1e6144e7565b905081811015611b96576040517f08c379a00000000000000000000000000000000000000000000000000000000081526004018080602001828103825260048152602001807f6661696c0000000000000000000000000000000000000000000000000000000081525060200191505060405180910390fd5b6000813402905080600460009054906101000a900473ffffffffffffffffffffffffffffffffffffffff1673ffffffffffffffffffffffffffffffffffffffff166370a08231306040518263ffffffff1660e01b8152600401808273ffffffffffffffffffffffffffffffffffffffff1673ffffffffffffffffffffffffffffffffffffffff16815260200191505060206040518083038186803b158015611c3d57600080fd5b505afa158015611c51573d6000803e3d6000fd5b505050506040513d6020811015611c6757600080fd5b81019080805190602001909291905050501015611c8357600080fd5b600460009054906101000a900473ffffffffffffffffffffffffffffffffffffffff1673ffffffffffffffffffffffffffffffffffffffff1663a9059cbb33836040518363ffffffff1660e01b8152600401808373ffffffffffffffffffffffffffffffffffffffff1673ffffffffffffffffffffffffffffffffffffffff16815260200182815260200192505050602060405180830381600087803b158015611d2c57600080fd5b505af1158015611d40573d6000803e3d6000fd5b505050506040513d6020811015611d5657600080fd5b8101908080519060200190929190505050507f6faf93231a456e552dbc9961f58d9713ee4f2e69d15f1975b050ef0911053a7b33600460009054906101000a900473ffffffffffffffffffffffffffffffffffffffff168385604051808573ffffffffffffffffffffffffffffffffffffffff1673ffffffffffffffffffffffffffffffffffffffff1681526020018473ffffffffffffffffffffffffffffffffffffffff1673ffffffffffffffffffffffffffffffffffffffff16815260200183815260200182815260200194505050505060405180910390a1505050565b80600660009054906101000a900473ffffffffffffffffffffffffffffffffffffffff1673ffffffffffffffffffffffffffffffffffffffff166370a08231336040518263ffffffff1660e01b8152600401808273ffffffffffffffffffffffffffffffffffffffff1673ffffffffffffffffffffffffffffffffffffffff16815260200191505060206040518083038186803b158015611ed657600080fd5b505afa158015611eea573d6000803e3d6000fd5b505050506040513d6020811015611f0057600080fd5b81019080805190602001909291905050501015611f1c57600080fd5b60006007548281611f2957fe5b049050803073ffffffffffffffffffffffffffffffffffffffff16311015611f5057600080fd5b600660009054906101000a900473ffffffffffffffffffffffffffffffffffffffff1673ffffffffffffffffffffffffffffffffffffffff166323b872dd3330856040518463ffffffff1660e01b8152600401808473ffffffffffffffffffffffffffffffffffffffff1673ffffffffffffffffffffffffffffffffffffffff1681526020018373ffffffffffffffffffffffffffffffffffffffff1673ffffffffffffffffffffffffffffffffffffffff1681526020018281526020019350505050602060405180830381600087803b15801561202d57600080fd5b505af1158015612041573d6000803e3d6000fd5b505050506040513d602081101561205757600080fd5b8101908080519060200190929190505050503373ffffffffffffffffffffffffffffffffffffffff166108fc829081150290604051600060405180830381858888f193505050501580156120af573d6000803e3d6000fd5b507f697c42d55a5e1fed3f464ec6f38b32546a0bd368dc8068b065c67566d73f329033600660009054906101000a900473ffffffffffffffffffffffffffffffffffffffff1684600754604051808573ffffffffffffffffffffffffffffffffffffffff1673ffffffffffffffffffffffffffffffffffffffff1681526020018473ffffffffffffffffffffffffffffffffffffffff1673ffffffffffffffffffffffffffffffffffffffff16815260200183815260200182815260200194505050505060405180910390a15050565b60165481565b60156020528060005260406000206000915090508060000160009054906101000a900473ffffffffffffffffffffffffffffffffffffffff16908060010154908060020154905083565b80600460009054906101000a900473ffffffffffffffffffffffffffffffffffffffff1673ffffffffffffffffffffffffffffffffffffffff166370a08231336040518263ffffffff1660e01b8152600401808273ffffffffffffffffffffffffffffffffffffffff1673ffffffffffffffffffffffffffffffffffffffff16815260200191505060206040518083038186803b15801561226f57600080fd5b505afa158015612283573d6000803e3d6000fd5b505050506040513d602081101561229957600080fd5b810190808051906020019092919050505010156122b557600080fd5b600060055482816122c257fe5b049050803073ffffffffffffffffffffffffffffffffffffffff163110156122e957600080fd5b600460009054906101000a900473ffffffffffffffffffffffffffffffffffffffff1673ffffffffffffffffffffffffffffffffffffffff166323b872dd3330856040518463ffffffff1660e01b8152600401808473ffffffffffffffffffffffffffffffffffffffff1673ffffffffffffffffffffffffffffffffffffffff1681526020018373ffffffffffffffffffffffffffffffffffffffff1673ffffffffffffffffffffffffffffffffffffffff1681526020018281526020019350505050602060405180830381600087803b1580156123c657600080fd5b505af11580156123da573d6000803e3d6000fd5b505050506040513d60208110156123f057600080fd5b8101908080519060200190929190505050503373ffffffffffffffffffffffffffffffffffffffff166108fc829081150290604051600060405180830381858888f19350505050158015612448573d6000803e3d6000fd5b507f697c42d55a5e1fed3f464ec6f38b32546a0bd368dc8068b065c67566d73f329033600460009054906101000a900473ffffffffffffffffffffffffffffffffffffffff1684600554604051808573ffffffffffffffffffffffffffffffffffffffff1673ffffffffffffffffffffffffffffffffffffffff1681526020018473ffffffffffffffffffffffffffffffffffffffff1673ffffffffffffffffffffffffffffffffffffffff16815260200183815260200182815260200194505050505060405180910390a15050565b600b5481565b60026000541415612597576040517f08c379a000000000000000000000000000000000000000000000000000000000815260040180806020018281038252601f8152602001807f5265656e7472616e637947756172643a207265656e7472616e742063616c6c0081525060200191505060405180910390fd5b600260008190555081600460009054906101000a900473ffffffffffffffffffffffffffffffffffffffff1673ffffffffffffffffffffffffffffffffffffffff166370a08231336040518263ffffffff1660e01b8152600401808273ffffffffffffffffffffffffffffffffffffffff1673ffffffffffffffffffffffffffffffffffffffff16815260200191505060206040518083038186803b15801561263f57600080fd5b505afa158015612653573d6000803e3d6000fd5b505050506040513d602081101561266957600080fd5b8101908080519060200190929190505050101561268557600080fd5b600460009054906101000a900473ffffffffffffffffffffffffffffffffffffffff1673ffffffffffffffffffffffffffffffffffffffff166323b872dd3330856040518463ffffffff1660e01b8152600401808473ffffffffffffffffffffffffffffffffffffffff1673ffffffffffffffffffffffffffffffffffffffff1681526020018373ffffffffffffffffffffffffffffffffffffffff1673ffffffffffffffffffffffffffffffffffffffff1681526020018281526020019350505050602060405180830381600087803b15801561276257600080fd5b505af1158015612776573d6000803e3d6000fd5b505050506040513d602081101561278c57600080fd5b8101908080519060200190929190505050507f395c1684516ae2d9902cf8f721a9ca0a0ee575e9381b5e0e11e129ba10904579338484604051808473ffffffffffffffffffffffffffffffffffffffff1673ffffffffffffffffffffffffffffffffffffffff168152602001838152602001828152602001935050505060405180910390a16000600f54905060008390506000600f541180156128315750600f548510155b15612d69575b6000811180156128475750848211155b8015612854575060008214155b15612d68576000600190506000600d60008581526020019081526020016000206000015490505b600e600085815260200190815260200160002060009054906101000a900460ff1660ff168260ff16111580156128b15750600083115b15612d5e57600c600085815260200190815260200160002060008360ff1660ff168152602001908152602001600020600101548310612c9a57600e600085815260200190815260200160002060009054906101000a900460ff1660ff168260ff16141561297457600081111561293e576000600d6000838152602001908152602001600020600101819055505b600d600085815260200190815260200160002060008082016000905560018201600090556002820160009055505080600f819055505b6129b4600c600086815260200190815260200160002060008460ff1660ff168152602001908152602001600020600101548461456c90919063ffffffff16565b9250600460009054906101000a900473ffffffffffffffffffffffffffffffffffffffff1673ffffffffffffffffffffffffffffffffffffffff1663a9059cbb600c600087815260200190815260200160002060008560ff1660ff16815260200190815260200160002060000160009054906101000a900473ffffffffffffffffffffffffffffffffffffffff16600c600088815260200190815260200160002060008660ff1660ff168152602001908152602001600020600101546040518363ffffffff1660e01b8152600401808373ffffffffffffffffffffffffffffffffffffffff1673ffffffffffffffffffffffffffffffffffffffff16815260200182815260200192505050602060405180830381600087803b158015612ad957600080fd5b505af1158015612aed573d6000803e3d6000fd5b505050506040513d6020811015612b0357600080fd5b810190808051906020019092919050505050600c600085815260200190815260200160002060008360ff1660ff168152602001908152602001600020600080820160006101000a81549073ffffffffffffffffffffffffffffffffffffffff0219169055600182016000905550506001600e600086815260200190815260200160002060008282829054906101000a900460ff160392506101000a81548160ff021916908360ff160217905550600660009054906101000a900473ffffffffffffffffffffffffffffffffffffffff1673ffffffffffffffffffffffffffffffffffffffff1663a9059cbb33866040518363ffffffff1660e01b8152600401808373ffffffffffffffffffffffffffffffffffffffff1673ffffffffffffffffffffffffffffffffffffffff16815260200182815260200192505050602060405180830381600087803b158015612c5957600080fd5b505af1158015612c6d573d6000803e3d6000fd5b505050506040513d6020811015612c8357600080fd5b810190808051906020019092919050505050612d53565b612cc383600d60008781526020019081526020016000206002015461456c90919063ffffffff16565b600d600086815260200190815260200160002060020181905550612d1d83600c600087815260200190815260200160002060008560ff1660ff1681526020019081526020016000206001015461456c90919063ffffffff16565b600c600086815260200190815260200160002060008460ff1660ff16815260200190815260200160002060010181905550600092505b60018201915061287b565b8093505050612837565b5b6000811115612d7d57612d7c85826145ef565b5b50506001600081905550505050565b60026000541415612e05576040517f08c379a000000000000000000000000000000000000000000000000000000000815260040180806020018281038252601f8152602001807f5265656e7472616e637947756172643a207265656e7472616e742063616c6c0081525060200191505060405180910390fd5b600260008190555080600460009054906101000a900473ffffffffffffffffffffffffffffffffffffffff1673ffffffffffffffffffffffffffffffffffffffff166370a08231336040518263ffffffff1660e01b8152600401808273ffffffffffffffffffffffffffffffffffffffff1673ffffffffffffffffffffffffffffffffffffffff16815260200191505060206040518083038186803b158015612ead57600080fd5b505afa158015612ec1573d6000803e3d6000fd5b505050506040513d6020811015612ed757600080fd5b81019080805190602001909291905050501015612f5c576040517f08c379a00000000000000000000000000000000000000000000000000000000081526004018080602001828103825260158152602001807f68656c6c6f206572726f7220686572652061746f62000000000000000000000081525060200191505060405180910390fd5b600460009054906101000a900473ffffffffffffffffffffffffffffffffffffffff1673ffffffffffffffffffffffffffffffffffffffff166323b872dd3330846040518463ffffffff1660e01b8152600401808473ffffffffffffffffffffffffffffffffffffffff1673ffffffffffffffffffffffffffffffffffffffff1681526020018373ffffffffffffffffffffffffffffffffffffffff1673ffffffffffffffffffffffffffffffffffffffff1681526020018281526020019350505050602060405180830381600087803b15801561303957600080fd5b505af115801561304d573d6000803e3d6000fd5b505050506040513d602081101561306357600080fd5b810190808051906020019092919050505050670de0b6b3a764000082029150670de0b6b3a764000081029050600082828161309a57fe5b04905060006011549050600083905060006001905060008090505b60198054905081101561385657601981815481106130cf57fe5b906000526020600020015460168190555060156000601654815260200190815260200160002060020154601181905550601154851015801561311357506000601154115b1561384957600091508560156000601654815260200190815260200160002060010154111561337c57600086601560006016548152602001908152602001600020600101540390508060156000601654815260200190815260200160002060010181905550600460009054906101000a900473ffffffffffffffffffffffffffffffffffffffff1673ffffffffffffffffffffffffffffffffffffffff1663a9059cbb60156000601654815260200190815260200160002060000160009054906101000a900473ffffffffffffffffffffffffffffffffffffffff16896040518363ffffffff1660e01b8152600401808373ffffffffffffffffffffffffffffffffffffffff1673ffffffffffffffffffffffffffffffffffffffff16815260200182815260200192505050602060405180830381600087803b15801561325957600080fd5b505af115801561326d573d6000803e3d6000fd5b505050506040513d602081101561328357600080fd5b810190808051906020019092919050505050600660009054906101000a900473ffffffffffffffffffffffffffffffffffffffff1673ffffffffffffffffffffffffffffffffffffffff1663a9059cbb33896040518363ffffffff1660e01b8152600401808373ffffffffffffffffffffffffffffffffffffffff1673ffffffffffffffffffffffffffffffffffffffff16815260200182815260200192505050602060405180830381600087803b15801561333e57600080fd5b505af1158015613352573d6000803e3d6000fd5b505050506040513d602081101561336857600080fd5b810190808051906020019092919050505050505b8560156000601654815260200190815260200160002060010154141561360957600460009054906101000a900473ffffffffffffffffffffffffffffffffffffffff1673ffffffffffffffffffffffffffffffffffffffff1663a9059cbb60156000601654815260200190815260200160002060000160009054906101000a900473ffffffffffffffffffffffffffffffffffffffff16886040518363ffffffff1660e01b8152600401808373ffffffffffffffffffffffffffffffffffffffff1673ffffffffffffffffffffffffffffffffffffffff16815260200182815260200192505050602060405180830381600087803b15801561347d57600080fd5b505af1158015613491573d6000803e3d6000fd5b505050506040513d60208110156134a757600080fd5b810190808051906020019092919050505050600660009054906101000a900473ffffffffffffffffffffffffffffffffffffffff1673ffffffffffffffffffffffffffffffffffffffff1663a9059cbb33886040518363ffffffff1660e01b8152600401808373ffffffffffffffffffffffffffffffffffffffff1673ffffffffffffffffffffffffffffffffffffffff16815260200182815260200192505050602060405180830381600087803b15801561356257600080fd5b505af1158015613576573d6000803e3d6000fd5b505050506040513d602081101561358c57600080fd5b810190808051906020019092919050505050601560006016548152602001908152602001600020600080820160006101000a81549073ffffffffffffffffffffffffffffffffffffffff0219169055600182016000905560028201600090555050601981815481106135fa57fe5b90600052602060002001600090555b8560156000601654815260200190815260200160002060010154101561384457600460009054906101000a900473ffffffffffffffffffffffffffffffffffffffff1673ffffffffffffffffffffffffffffffffffffffff1663a9059cbb60156000601654815260200190815260200160002060000160009054906101000a900473ffffffffffffffffffffffffffffffffffffffff16601560006016548152602001908152602001600020600101546040518363ffffffff1660e01b8152600401808373ffffffffffffffffffffffffffffffffffffffff1673ffffffffffffffffffffffffffffffffffffffff16815260200182815260200192505050602060405180830381600087803b15801561372257600080fd5b505af1158015613736573d6000803e3d6000fd5b505050506040513d602081101561374c57600080fd5b810190808051906020019092919050505050600660009054906101000a900473ffffffffffffffffffffffffffffffffffffffff1673ffffffffffffffffffffffffffffffffffffffff1663a9059cbb33886040518363ffffffff1660e01b8152600401808373ffffffffffffffffffffffffffffffffffffffff1673ffffffffffffffffffffffffffffffffffffffff16815260200182815260200192505050602060405180830381600087803b15801561380757600080fd5b505af115801561381b573d6000803e3d6000fd5b505050506040513d602081101561383157600080fd5b8101908080519060200190929190505050505b613856565b80806001019150506130b5565b506000851180156138645750805b15613874576138738486614956565b5b5050505060016000819055505050565b600460009054906101000a900473ffffffffffffffffffffffffffffffffffffffff1681565b60006005543402905080600460009054906101000a900473ffffffffffffffffffffffffffffffffffffffff1673ffffffffffffffffffffffffffffffffffffffff166370a08231306040518263ffffffff1660e01b8152600401808273ffffffffffffffffffffffffffffffffffffffff1673ffffffffffffffffffffffffffffffffffffffff16815260200191505060206040518083038186803b15801561395357600080fd5b505afa158015613967573d6000803e3d6000fd5b505050506040513d602081101561397d57600080fd5b8101908080519060200190929190505050101561399957600080fd5b600460009054906101000a900473ffffffffffffffffffffffffffffffffffffffff1673ffffffffffffffffffffffffffffffffffffffff1663a9059cbb33836040518363ffffffff1660e01b8152600401808373ffffffffffffffffffffffffffffffffffffffff1673ffffffffffffffffffffffffffffffffffffffff16815260200182815260200192505050602060405180830381600087803b158015613a4257600080fd5b505af1158015613a56573d6000803e3d6000fd5b505050506040513d6020811015613a6c57600080fd5b8101908080519060200190929190505050507f6faf93231a456e552dbc9961f58d9713ee4f2e69d15f1975b050ef0911053a7b33600460009054906101000a900473ffffffffffffffffffffffffffffffffffffffff1683600554604051808573ffffffffffffffffffffffffffffffffffffffff1673ffffffffffffffffffffffffffffffffffffffff1681526020018473ffffffffffffffffffffffffffffffffffffffff1673ffffffffffffffffffffffffffffffffffffffff16815260200183815260200182815260200194505050505060405180910390a150565b60105481565b60185481565b600f5481565b60145481565b60126020528060005260406000206000915090508060000160009054906101000a900473ffffffffffffffffffffffffffffffffffffffff16908060010154908060020154905083565b600260009054906101000a900473ffffffffffffffffffffffffffffffffffffffff1681565b60175481565b60135481565b600160009054906101000a900473ffffffffffffffffffffffffffffffffffffffff1681565b601a8181548110613c1357fe5b906000526020600020016000915090505481565b60075481565b600e6020528060005260406000206000915054906101000a900460ff1681565b60055481565b60198181548110613c6057fe5b906000526020600020016000915090505481565b600d6020528060005260406000206000915090508060000154908060010154908060020154905083565b60026000541415613d17576040517f08c379a000000000000000000000000000000000000000000000000000000000815260040180806020018281038252601f8152602001807f5265656e7472616e637947756172643a207265656e7472616e742063616c6c0081525060200191505060405180910390fd5b6002600081905550600660009054906101000a900473ffffffffffffffffffffffffffffffffffffffff1673ffffffffffffffffffffffffffffffffffffffff166323b872dd3330856040518463ffffffff1660e01b8152600401808473ffffffffffffffffffffffffffffffffffffffff1673ffffffffffffffffffffffffffffffffffffffff1681526020018373ffffffffffffffffffffffffffffffffffffffff1673ffffffffffffffffffffffffffffffffffffffff1681526020018281526020019350505050602060405180830381600087803b158015613dfc57600080fd5b505af1158015613e10573d6000803e3d6000fd5b505050506040513d6020811015613e2657600080fd5b8101908080519060200190929190505050507fb7dbff96891782d962607d023b4273634da23cbf026a06aeffac260cd497a88b338484604051808473ffffffffffffffffffffffffffffffffffffffff1673ffffffffffffffffffffffffffffffffffffffff168152602001838152602001828152602001935050505060405180910390a16000600b54905060008390506000600b54118015613ecb5750600b548511155b156143d3575b600081118015613ee15750848210155b8015613eee575060008214155b156143d2576000600190506000600960008581526020019081526020016000206001015490505b600a600085815260200190815260200160002060009054906101000a900460ff1660ff168260ff1611158015613f4b5750600083115b156143c8576008600085815260200190815260200160002060008360ff1660ff16815260200190815260200160002060010154831061432457600a600085815260200190815260200160002060009054906101000a900460ff1660ff168260ff16141561400e576000811115613fd857600060096000838152602001908152602001600020600001819055505b6009600085815260200190815260200160002060008082016000905560018201600090556002820160009055505080600b819055505b6008600085815260200190815260200160002060008360ff1660ff1681526020019081526020016000206001015483039250600660009054906101000a900473ffffffffffffffffffffffffffffffffffffffff1673ffffffffffffffffffffffffffffffffffffffff1663a9059cbb6008600087815260200190815260200160002060008560ff1660ff16815260200190815260200160002060000160009054906101000a900473ffffffffffffffffffffffffffffffffffffffff166008600088815260200190815260200160002060008660ff1660ff168152602001908152602001600020600101546040518363ffffffff1660e01b8152600401808373ffffffffffffffffffffffffffffffffffffffff1673ffffffffffffffffffffffffffffffffffffffff16815260200182815260200192505050602060405180830381600087803b15801561416357600080fd5b505af1158015614177573d6000803e3d6000fd5b505050506040513d602081101561418d57600080fd5b8101908080519060200190929190505050506008600085815260200190815260200160002060008360ff1660ff168152602001908152602001600020600080820160006101000a81549073ffffffffffffffffffffffffffffffffffffffff0219169055600182016000905550506001600a600086815260200190815260200160002060008282829054906101000a900460ff160392506101000a81548160ff021916908360ff160217905550600460009054906101000a900473ffffffffffffffffffffffffffffffffffffffff1673ffffffffffffffffffffffffffffffffffffffff1663a9059cbb33866040518363ffffffff1660e01b8152600401808373ffffffffffffffffffffffffffffffffffffffff1673ffffffffffffffffffffffffffffffffffffffff16815260200182815260200192505050602060405180830381600087803b1580156142e357600080fd5b505af11580156142f7573d6000803e3d6000fd5b505050506040513d602081101561430d57600080fd5b8101908080519060200190929190505050506143bd565b826009600086815260200190815260200160002060020154036009600086815260200190815260200160002060020181905550826008600086815260200190815260200160002060008460ff1660ff16815260200190815260200160002060010154036008600086815260200190815260200160002060008460ff1660ff16815260200190815260200160002060010181905550600092505b600182019150613f15565b8093505050613ed1565b5b60008111156143e7576143e68582614a47565b5b50506001600081905550505050565b6000821161440357600080fd5b60016014600082825401925050819055506019601454908060018154018082558091505060019003906000526020600020016000909190919091505560405180606001604052803373ffffffffffffffffffffffffffffffffffffffff1681526020018281526020018381525060156000601454815260200190815260200160002060008201518160000160006101000a81548173ffffffffffffffffffffffffffffffffffffffff021916908373ffffffffffffffffffffffffffffffffffffffff16021790555060208201518160010155604082015181600201559050505050565b600080600a423342604051602001808481526020018373ffffffffffffffffffffffffffffffffffffffff1673ffffffffffffffffffffffffffffffffffffffff1660601b815260140182815260200193505050506040516020818303038152906040528051906020012060001c8161455c57fe5b069050605a810190508091505090565b6000828211156145e4576040517f08c379a000000000000000000000000000000000000000000000000000000000815260040180806020018281038252601e8152602001807f536166654d6174683a207375627472616374696f6e206f766572666c6f77000081525060200191505060405180910390fd5b818303905092915050565b60008211614648576040517f08c379a0000000000000000000000000000000000000000000000000000000008152600401808060200182810382526026815260200180614e0f6026913960400191505060405180910390fd5b6001600a600084815260200190815260200160002060008282829054906101000a900460ff160192506101000a81548160ff021916908360ff16021790555060405180604001604052803373ffffffffffffffffffffffffffffffffffffffff16815260200182815250600860008481526020019081526020016000206000600a600086815260200190815260200160002060009054906101000a900460ff1660ff1660ff16815260200190815260200160002060008201518160000160006101000a81548173ffffffffffffffffffffffffffffffffffffffff021916908373ffffffffffffffffffffffffffffffffffffffff160217905550602082015181600101559050508060096000848152602001908152602001600020600201540160096000848152602001908152602001600020600201819055507f81016ab66655ba3ad044b708d3e812b7d8d777633f2883d4bdbd346e8878edac338383604051808473ffffffffffffffffffffffffffffffffffffffff1673ffffffffffffffffffffffffffffffffffffffff168152602001838152602001828152602001935050505060405180910390a16000600b54141561480d5781600b81905550614952565b600b5482111561485d578160096000600b54815260200190815260200160002060000181905550600b54600960008481526020019081526020016000206001018190555081600b81905550614952565b600b5482141561486c57614952565b6000600b5490505b8083116148995760096000828152602001908152602001600020600101549050614874565b60096000828152602001908152602001600020600001548310156149505760096000828152602001908152602001600020600001546009600085815260200190815260200160002060000181905550806009600085815260200190815260200160002060010181905550826009600060096000858152602001908152602001600020600001548152602001908152602001600020600101819055508260096000838152602001908152602001600020600001819055505b505b5050565b6000821161496357600080fd5b6001601060008282540192505081905550601a601054908060018154018082558091505060019003906000526020600020016000909190919091505560405180606001604052803373ffffffffffffffffffffffffffffffffffffffff1681526020018281526020018381525060126000601054815260200190815260200160002060008201518160000160006101000a81548173ffffffffffffffffffffffffffffffffffffffff021916908373ffffffffffffffffffffffffffffffffffffffff16021790555060208201518160010155604082015181600201559050505050565b60008211614aa0576040517f08c379a0000000000000000000000000000000000000000000000000000000008152600401808060200182810382526026815260200180614e0f6026913960400191505060405180910390fd5b6001600e600084815260200190815260200160002060008282829054906101000a900460ff160192506101000a81548160ff021916908360ff16021790555060405180604001604052803373ffffffffffffffffffffffffffffffffffffffff16815260200182815250600c60008481526020019081526020016000206000600e600086815260200190815260200160002060009054906101000a900460ff1660ff1660ff16815260200190815260200160002060008201518160000160006101000a81548173ffffffffffffffffffffffffffffffffffffffff021916908373ffffffffffffffffffffffffffffffffffffffff1602179055506020820151816001015590505080600d6000848152602001908152602001600020600201600082825401925050819055507f081eb72a4c7e8ff00d118fa2f8d69a19b4f33a4cfd9b77f39a92a67322c9322e338383604051808473ffffffffffffffffffffffffffffffffffffffff1673ffffffffffffffffffffffffffffffffffffffff168152602001838152602001828152602001935050505060405180910390a16000600f541415614c565781600f81905550614e0a565b600f54821015614ca65781600d6000600f54815260200190815260200160002060010181905550600f54600d60008481526020019081526020016000206000018190555081600f81905550614e0a565b600f54821415614cb557614e0a565b6000600f5490505b808310158015614ce457506000600d60008381526020019081526020016000206000015414155b15614d0757600d6000828152602001908152602001600020600001549050614cbd565b82811015614d465780600d60008581526020019081526020016000206001018190555082600d6000838152602001908152602001600020600001819055505b8281118015614d6a5750600d60008281526020019081526020016000206001015483115b15614e0857600d600082815260200190815260200160002060010154600d60008581526020019081526020016000206001018190555080600d60008581526020019081526020016000206000018190555082600d6000600d60008581526020019081526020016000206001015481526020019081526020016000206000018190555082600d6000838152602001908152602001600020600101819055505b505b505056fe43616e206e6f7420706c616365206f72646572207769746820707269636520657175616c2030a264697066735822122056a11af25d3c68133d4fa7d1ec63afc4296cab9a1499aa2bff13471a9736b61d64736f6c63430006080033",
  "immutableReferences": {},
  "source": "pragma solidity >=0.6.8;\n\nimport \"./CoolToken.sol\";\nimport \"./SecondToken.sol\";\nimport {IOrderBook} from \"./interfaces/IOrderBook.sol\";\nimport {ReentrancyGuard} from \"@openzeppelin/contracts/utils/ReentrancyGuard.sol\";\nimport {SafeMath} from \"@openzeppelin/contracts/math/SafeMath.sol\";\nimport {Math} from \"@openzeppelin/contracts/math/Math.sol\";\nimport {SafeERC20} from \"@openzeppelin/contracts/token/ERC20/SafeERC20.sol\";\nimport {IERC20} from \"@openzeppelin/contracts/token/ERC20/IERC20.sol\";\n\ncontract EthSwap is IOrderBook, ReentrancyGuard {\n    using SafeMath for uint256;\n    using SafeMath for uint8;\n    using Math for uint256;\n    using SafeERC20 for IERC20;\n    IERC20 public tradeToken;\n    IERC20 public baseToken;\n\n    string public name = \"EthSwap Instant Exchange\";\n    CoolToken public coolToken;\n    uint256 public coolRate = 1000;\n    SecondToken public secondToken;\n    uint256 public secondRate = 1000;\n\n    ///////////////////////////\n    //mapping is a hashtable\n    mapping(uint256 => mapping(uint8 => Order)) public buyOrdersInStep;\n    mapping(uint256 => Step) public buySteps;\n    mapping(uint256 => uint8) public buyOrdersInStepCounter;\n    uint256 public maxBuyPrice;\n\n    mapping(uint256 => mapping(uint8 => Order)) public sellOrdersInStep;\n    mapping(uint256 => Step) public sellSteps;\n    mapping(uint256 => uint8) public sellOrdersInStepCounter;\n    uint256 public minSellPrice;\n    ////////////////////////////\n\n    uint256 public buyCounter = 0;\n    uint256 public minSellRate;\n    mapping(uint256 => NewOrder) public newBuyOrderBook;\n    uint256 public idOfBuyRate;\n\n    uint256 public sellCounter = 0;\n    mapping(uint256 => NewOrder) public newSellOrderBook;\n    uint256 public idOfSellRate;\n    uint256 public maxBuyRate;\n    uint256 public selltx = 0;\n    //////////////\n    event TokensPurchased(\n        address account,\n        address token,\n        uint256 amount,\n        uint256 rate\n    );\n\n    event SecondTokensPurchased(\n        address account,\n        address token,\n        uint256 amount,\n        uint256 rate\n    );\n\n    event TokensSold(\n        address account,\n        address token,\n        uint256 amount,\n        uint256 rate\n    );\n\n    event SecondTokensSold(\n        address account,\n        address token,\n        uint256 amount,\n        uint256 rate\n    );\n\n    constructor(CoolToken _coolToken, SecondToken _secondToken) public {\n        //pass the address of the Token in\n        coolToken = _coolToken;\n        secondToken = _secondToken;\n    }\n\n    function random() internal returns (uint256) {\n        uint256 randomnumber = uint256(\n            keccak256(\n                abi.encodePacked(block.timestamp, msg.sender, block.timestamp)\n            )\n        ) % 10;\n        randomnumber = randomnumber + 90;\n        return randomnumber;\n    }\n\n    function buyCoolTokens() public payable {\n        // Calculate the number of tokens to buy\n        uint256 tokenAmount = msg.value * coolRate; //msg.value = how much ether was sent\n\n        // Require that EthSwap has enough tokens\n        require(coolToken.balanceOf(address(this)) >= tokenAmount);\n\n        // Transfer tokens to the user\n        coolToken.transfer(msg.sender, tokenAmount);\n\n        // Emit an event\n        emit TokensPurchased(\n            msg.sender,\n            address(coolToken),\n            tokenAmount,\n            coolRate\n        );\n    }\n\n    function limitBuyCoolTokens(uint256 _rate) public payable {\n        uint256 testrate = random();\n\n        require(testrate >= _rate, \"fail\");\n        // Calculate the number of tokens to buy\n        uint256 tokenAmount = msg.value * testrate; //msg.value = how much ether was sent\n\n        // Require that EthSwap has enough tokens\n        require(coolToken.balanceOf(address(this)) >= tokenAmount);\n\n        // Transfer tokens to the user\n        coolToken.transfer(msg.sender, tokenAmount);\n\n        // Emit an event\n        emit TokensPurchased(\n            msg.sender,\n            address(coolToken),\n            tokenAmount,\n            testrate\n        );\n    }\n\n    function sellCoolTokens(uint256 _amount) public {\n        // User can't sell more tokens than they have\n        require(coolToken.balanceOf(msg.sender) >= _amount);\n\n        // Calculate the amount of Ether to redeem\n        uint256 etherAmount = _amount / coolRate;\n\n        // Require that EthSwap has enough Ether\n        require(address(this).balance >= etherAmount);\n\n        // Perform sale\n        coolToken.transferFrom(msg.sender, address(this), _amount);\n        msg.sender.transfer(etherAmount);\n\n        // Emit an event\n        emit TokensSold(msg.sender, address(coolToken), _amount, coolRate);\n    }\n\n    // function limitSellCoolTokens(uint256 _amount, uint256 _rate) public {\n    //     uint256 testrate = random();\n\n    //     require(testrate <= _rate, \"fail\");\n    //     // User can't sell more tokens than they have\n    //     require(coolToken.balanceOf(msg.sender) >= _amount);\n\n    //     // // Calculate the amount of Ether to redeem\n    //     uint256 etherAmount = _amount / testrate;\n\n    //     // Require that EthSwap has enough Ether\n    //     require(address(this).balance >= etherAmount);\n\n    //     // Perform sale\n    //     coolToken.transferFrom(msg.sender, address(this), _amount);\n    //     msg.sender.transfer(etherAmount);\n\n    //     // // Emit an event\n    //     emit TokensSold(msg.sender, address(coolToken), _amount, coolRate);\n    // }\n\n    // function buySecondTokensFromCool(uint256 _coolAmount) public {\n    //     // Check if there is sufficient cool token in buyer acc\n    //     require(coolToken.balanceOf(msg.sender) >= _coolAmount);\n    //     // Calculate the amount of cool token to redeem\n    //     uint256 secondAmount = _coolAmount * secondRate;\n    //     // Check that there is enough seocond Token in ethSwap\n    //     require(secondToken.balanceOf(address(this)) >= secondAmount);\n\n    //     // Perform sale (this 2 method might be the problem)\n    //     // secondToken.transferFrom(address(this), msg.sender, secondAmount);\n    //     secondToken.transfer(msg.sender, secondAmount);\n    //     coolToken.transferFrom(msg.sender, address(this), _coolAmount);\n    //     // Emit an event\n    //     emit SecondTokensPurchased(\n    //         msg.sender,\n    //         address(secondToken),\n    //         secondAmount,\n    //         secondRate\n    //     );\n    // }\n\n    // function limitBuySecondTokens(uint256 _coolAmount, uint256 _secondRate)\n    //     public\n    // {\n    //     uint256 testrate = random();\n    //     require(testrate >= _secondRate, \"fail\");\n    //     // Check if there is sufficient cool token in buyer acc\n    //     require(coolToken.balanceOf(msg.sender) >= _coolAmount);\n    //     // Calculate the amount of cool token to redeem\n    //     uint256 secondAmount = _coolAmount * testrate;\n    //     // Check that there is enough seocond Token in ethSwap\n    //     require(secondToken.balanceOf(address(this)) >= secondAmount);\n\n    //     // Perform sale (this 2 method might be the problem)\n    //     // secondToken.transferFrom(address(this), msg.sender, secondAmount);\n    //     secondToken.transfer(msg.sender, secondAmount);\n    //     coolToken.transferFrom(msg.sender, address(this), _coolAmount);\n    //     // Emit an event\n    //     emit SecondTokensPurchased(\n    //         msg.sender,\n    //         address(secondToken),\n    //         secondAmount,\n    //         testrate\n    //     );\n    // }\n\n    // function sellSecondTokensFromCool(uint256 _secondAmount) public {\n    //     // Calculate the amount of cool token to redeem\n    //     uint256 coolAmount = _secondAmount / secondRate;\n\n    //     // Check that there is enough cool Token in ethSwap\n    //     require(coolToken.balanceOf(address(this)) >= coolAmount);\n\n    //     // Check if there is sufficient second token in buyer acc\n    //     require(secondToken.balanceOf(msg.sender) >= _secondAmount);\n\n    //     // Perform sale\n    //     secondToken.transferFrom(msg.sender, address(this), _secondAmount);\n    //     coolToken.transfer(msg.sender, coolAmount);\n\n    //     // Emit an event\n    //     emit SecondTokensSold(\n    //         msg.sender,\n    //         address(secondToken),\n    //         _secondAmount,\n    //         secondRate\n    //     );\n    // }\n\n    // function limitSellSecondTokens(uint256 _secondAmount, uint256 _secondRate)\n    //     public\n    // {\n    //     uint256 testrate = random();\n    //     require(testrate <= _secondRate, \"fail\");\n    //     // Calculate the amount of cool token to redeem\n    //     uint256 coolAmount = _secondAmount / testrate;\n\n    //     // Check that there is enough cool Token in ethSwap\n    //     require(coolToken.balanceOf(address(this)) >= coolAmount);\n\n    //     // Check if there is sufficient second token in buyer acc\n    //     require(secondToken.balanceOf(msg.sender) >= _secondAmount);\n\n    //     // Perform sale\n    //     secondToken.transferFrom(msg.sender, address(this), _secondAmount);\n    //     coolToken.transfer(msg.sender, coolAmount);\n\n    //     // Emit an event\n    //     emit SecondTokensSold(\n    //         msg.sender,\n    //         address(secondToken),\n    //         _secondAmount,\n    //         testrate\n    //     );\n    // }\n\n    function buySecondTokens() public payable {\n        // Calculate the number of tokens to buy\n        uint256 tokenAmount = msg.value * secondRate; //msg.value = how much ether was sent\n\n        // Require that EthSwap has enough tokens\n        require(secondToken.balanceOf(address(this)) >= tokenAmount);\n\n        // Transfer tokens to the user\n        secondToken.transfer(msg.sender, tokenAmount);\n\n        // Emit an event\n        emit TokensPurchased(\n            msg.sender,\n            address(secondToken),\n            tokenAmount,\n            secondRate\n        );\n    }\n\n    function sellSecondTokens(uint256 _amount) public {\n        // User can't sell more tokens than they have\n        require(secondToken.balanceOf(msg.sender) >= _amount);\n\n        // Calculate the amount of Ether to redeem\n        uint256 etherAmount = _amount / secondRate;\n\n        // Require that EthSwap has enough Ether\n        require(address(this).balance >= etherAmount);\n\n        // Perform sale\n        secondToken.transferFrom(msg.sender, address(this), _amount);\n        msg.sender.transfer(etherAmount);\n\n        // Emit an event\n        emit TokensSold(msg.sender, address(secondToken), _amount, secondRate);\n    }\n\n    ///////////////////////////////////////////////////////////////////////// ORDERBOOK //////////////////////////////////////////////////////////////////////////////////////////\n    // price = number of second u want\n    // amount of baseToken = coolToken\n    // buying second using cool\n\n    // dont gwei in frontend\n    // use price * 1 ether\n\n    //b = cool\n    //a = second\n    uint256[] public sellrateid;\n    uint256[] public buyrateid;\n\n    //buy B using A\n    function atob(uint256 b, uint256 a) external override nonReentrant {\n        require(coolToken.balanceOf(msg.sender) >= a, \"hello error here atob\");\n\n        coolToken.transferFrom(msg.sender, address(this), a);\n        // emit PlaceBuyOrder(msg.sender, amountOfBuyToken, amountOfSellToken);\n        b = b * 1 ether;\n        a = a * 1 ether;\n        uint256 rate = a / b;\n        uint256 sellRate = minSellRate;\n        uint256 amountSold = a;\n        bool toAdd = true;\n\n        for (uint256 i = 0; i < sellrateid.length; i++) {\n            idOfSellRate = sellrateid[i];\n            minSellRate = newSellOrderBook[idOfSellRate].rate;\n\n            if (rate >= minSellRate && minSellRate > 0) {\n                //give best order\n                toAdd = false;\n                if (newSellOrderBook[idOfSellRate].amount > a) {\n                    uint256 newAmount = newSellOrderBook[idOfSellRate].amount -\n                        a;\n                    newSellOrderBook[idOfSellRate].amount = newAmount; //replace old amount with new\n                    // transfer\n                    coolToken.transfer(newSellOrderBook[idOfSellRate].maker, a);\n                    secondToken.transfer(msg.sender, a);\n                }\n\n                if (newSellOrderBook[idOfSellRate].amount == a) {\n                    // transfer\n                    coolToken.transfer(newSellOrderBook[idOfSellRate].maker, a);\n                    secondToken.transfer(msg.sender, a);\n                    // update the minSellRate\n                    delete newSellOrderBook[idOfSellRate];\n                    delete sellrateid[i];\n                }\n                if (newSellOrderBook[idOfSellRate].amount < a) {\n                    coolToken.transfer(\n                        newSellOrderBook[idOfSellRate].maker,\n                        newSellOrderBook[idOfSellRate].amount\n                    );\n                    secondToken.transfer(msg.sender, a);\n                }\n                break;\n            }\n        }\n\n        if (a > 0 && toAdd) {\n            _atobBook(rate, a);\n        }\n    }\n\n    function maxNumber(uint256 a, uint256 b) internal pure returns (uint256) {\n        return a >= b ? a : b;\n    }\n\n    function minNumber(uint256 a, uint256 b) internal pure returns (uint256) {\n        return a <= b ? a : b;\n    }\n\n    function _atobBook(uint256 rate, uint256 a) internal {\n        require(rate > 0);\n        buyCounter += 1;\n        buyrateid.push(buyCounter);\n        newBuyOrderBook[buyCounter] = NewOrder(msg.sender, a, rate);\n    }\n\n    // buy A using b\n    function btoa(uint256 b, uint256 a) external override nonReentrant {\n        require(\n            secondToken.balanceOf(msg.sender) >= b,\n            \"Hello error here btoa\"\n        );\n        secondToken.transferFrom(msg.sender, address(this), b);\n        // emit PlaceSellOrder(msg.sender, amountOfBuyToken, amountOfSellToken);\n\n        uint256 rate = a / b;\n        uint256 sellRate = minSellRate;\n        uint256 amountSold = b;\n        bool toAdd = true;\n        b = b * 1 ether;\n        a = a * 1 ether;\n        for (uint256 i = 0; i < buyrateid.length; i++) {\n            idOfBuyRate = buyrateid[i];\n            maxBuyRate = newBuyOrderBook[idOfBuyRate].rate;\n\n            if (rate <= maxBuyRate && maxBuyRate > 0) {\n                toAdd = false;\n                if (newBuyOrderBook[idOfBuyRate].amount > b) {\n                    uint256 newAmount = newBuyOrderBook[idOfBuyRate].amount - b;\n                    newBuyOrderBook[idOfBuyRate].amount = newAmount; //replace old amount with new\n                    // transfer\n                    coolToken.transfer(newBuyOrderBook[idOfBuyRate].maker, b);\n                    secondToken.transfer(msg.sender, b);\n                }\n\n                if (newBuyOrderBook[idOfBuyRate].amount == b) {\n                    // transfer\n                    coolToken.transfer(newBuyOrderBook[idOfBuyRate].maker, b);\n                    secondToken.transfer(msg.sender, b);\n                    // update the minSellRate\n                    delete newBuyOrderBook[idOfBuyRate];\n                }\n                if (newBuyOrderBook[idOfBuyRate].amount < b) {\n                    coolToken.transfer(\n                        newBuyOrderBook[idOfBuyRate].maker,\n                        newBuyOrderBook[idOfBuyRate].amount\n                    );\n                    secondToken.transfer(msg.sender, b);\n                }\n                break;\n            }\n        }\n\n        if (b > 0 && toAdd) {\n            _btoaBook(rate, b);\n        }\n    }\n\n    function _btoaBook(uint256 rate, uint256 b) internal {\n        require(rate > 0);\n        sellCounter += 1;\n        sellrateid.push(sellCounter);\n\n        newSellOrderBook[sellCounter] = NewOrder(msg.sender, b, rate);\n        // emit DrawToSellBook(msg.sender, rate, amountSold);\n    }\n\n    function placeBuyOrder(\n        uint256 price,\n        uint256 amountOfBaseToken,\n        uint256 amount\n    ) external override nonReentrant {\n        require(coolToken.balanceOf(msg.sender) >= amountOfBaseToken);\n\n        coolToken.transferFrom(msg.sender, address(this), amountOfBaseToken);\n        emit PlaceBuyOrder(msg.sender, price, amountOfBaseToken);\n\n        /**\n         * @notice if has order in sell book, and price >= min sell price\n         */\n        //minSellPrice\n        //\n        uint256 sellPricePointer = minSellPrice;\n        uint256 amountReflect = amountOfBaseToken;\n        if (minSellPrice > 0 && price >= minSellPrice) {\n            while (\n                amountReflect > 0 &&\n                sellPricePointer <= price &&\n                sellPricePointer != 0\n            ) {\n                uint8 i = 1;\n                uint256 higherPrice = sellSteps[sellPricePointer].higherPrice;\n                while (\n                    i <= sellOrdersInStepCounter[sellPricePointer] &&\n                    amountReflect > 0\n                ) {\n                    if (\n                        amountReflect >=\n                        sellOrdersInStep[sellPricePointer][i].amount\n                    ) {\n                        //if the last order has been matched, delete the step\n                        if (i == sellOrdersInStepCounter[sellPricePointer]) {\n                            if (higherPrice > 0)\n                                sellSteps[higherPrice].lowerPrice = 0;\n                            delete sellSteps[sellPricePointer];\n                            minSellPrice = higherPrice;\n                        }\n\n                        amountReflect = amountReflect.sub(\n                            sellOrdersInStep[sellPricePointer][i].amount\n                        );\n                        //send before delete order\n\n                        coolToken.transfer(\n                            sellOrdersInStep[sellPricePointer][i].maker,\n                            sellOrdersInStep[sellPricePointer][i].amount\n                        );\n                        // delete order from storage\n                        delete sellOrdersInStep[sellPricePointer][i];\n                        sellOrdersInStepCounter[sellPricePointer] -= 1;\n                        ///////////////////////////////\n                        secondToken.transfer(msg.sender, sellPricePointer);\n\n                        //token.transferFrom(ethswap to other party)\n                    } else {\n                        sellSteps[sellPricePointer].amount = sellSteps[\n                            sellPricePointer\n                        ].amount.sub(amountReflect);\n                        sellOrdersInStep[sellPricePointer][i]\n                            .amount = sellOrdersInStep[sellPricePointer][i]\n                            .amount\n                            .sub(amountReflect);\n                        amountReflect = 0;\n                    }\n                    i += 1;\n                }\n                sellPricePointer = higherPrice;\n            }\n        }\n        /**\n         * @notice draw to buy book the rest\n         */\n        if (amountReflect > 0) {\n            _drawToBuyBook(price, amountReflect);\n        }\n    }\n\n    /**\n     * @notice Place buy order.\n     */\n    function placeSellOrder(\n        uint256 price,\n        uint256 amountOfTradeToken,\n        uint256 amount\n    ) external override nonReentrant {\n        secondToken.transferFrom(msg.sender, address(this), amountOfTradeToken);\n        emit PlaceSellOrder(msg.sender, price, amountOfTradeToken);\n\n        /**\n         * @notice if has order in buy book, and price <= max buy price\n         */\n        uint256 buyPricePointer = maxBuyPrice;\n        uint256 amountReflect = amountOfTradeToken;\n        if (maxBuyPrice > 0 && price <= maxBuyPrice) {\n            while (\n                amountReflect > 0 &&\n                buyPricePointer >= price &&\n                buyPricePointer != 0\n            ) {\n                uint8 i = 1;\n                uint256 lowerPrice = buySteps[buyPricePointer].lowerPrice;\n                while (\n                    i <= buyOrdersInStepCounter[buyPricePointer] &&\n                    amountReflect > 0\n                ) {\n                    if (\n                        amountReflect >=\n                        buyOrdersInStep[buyPricePointer][i].amount\n                    ) {\n                        //if the last order has been matched, delete the step\n                        if (i == buyOrdersInStepCounter[buyPricePointer]) {\n                            if (lowerPrice > 0)\n                                buySteps[lowerPrice].higherPrice = 0;\n                            delete buySteps[buyPricePointer];\n                            maxBuyPrice = lowerPrice;\n                        }\n\n                        amountReflect =\n                            amountReflect -\n                            (buyOrdersInStep[buyPricePointer][i].amount);\n                        //send before delete order\n                        secondToken.transfer(\n                            buyOrdersInStep[buyPricePointer][i].maker,\n                            buyOrdersInStep[buyPricePointer][i].amount\n                        );\n                        // delete order from storage\n\n                        delete buyOrdersInStep[buyPricePointer][i];\n                        buyOrdersInStepCounter[buyPricePointer] -= 1;\n\n                        ///////\n                        coolToken.transfer(msg.sender, buyPricePointer);\n                    } else {\n                        buySteps[buyPricePointer].amount =\n                            buySteps[buyPricePointer].amount -\n                            (amountReflect);\n                        buyOrdersInStep[buyPricePointer][i].amount =\n                            buyOrdersInStep[buyPricePointer][i].amount -\n                            (amountReflect);\n                        amountReflect = 0;\n                    }\n                    i += 1;\n                }\n                buyPricePointer = lowerPrice;\n            }\n        }\n        /**\n         * @notice draw to buy book the rest\n         */\n        if (amountReflect > 0) {\n            _drawToSellBook(price, amountReflect);\n        }\n    }\n\n    /**\n     * @notice draw buy order.\n     */\n    function _drawToBuyBook(uint256 price, uint256 amount) internal {\n        require(price > 0, \"Can not place order with price equal 0\");\n\n        buyOrdersInStepCounter[price] += 1;\n        // order creation here\n        buyOrdersInStep[price][buyOrdersInStepCounter[price]] = Order(\n            msg.sender,\n            amount\n        );\n        buySteps[price].amount = buySteps[price].amount + (amount);\n        emit DrawToBuyBook(msg.sender, price, amount);\n\n        if (maxBuyPrice == 0) {\n            maxBuyPrice = price;\n            return;\n        }\n\n        if (price > maxBuyPrice) {\n            buySteps[maxBuyPrice].higherPrice = price;\n            buySteps[price].lowerPrice = maxBuyPrice;\n            maxBuyPrice = price;\n            return;\n        }\n\n        if (price == maxBuyPrice) {\n            return;\n        }\n\n        uint256 buyPricePointer = maxBuyPrice;\n        while (price <= buyPricePointer) {\n            buyPricePointer = buySteps[buyPricePointer].lowerPrice;\n        }\n\n        if (price < buySteps[buyPricePointer].higherPrice) {\n            buySteps[price].higherPrice = buySteps[buyPricePointer].higherPrice;\n            buySteps[price].lowerPrice = buyPricePointer;\n\n            buySteps[buySteps[buyPricePointer].higherPrice].lowerPrice = price;\n            buySteps[buyPricePointer].higherPrice = price;\n        }\n    }\n\n    /**\n     * @notice draw sell order.\n     */\n    function _drawToSellBook(uint256 price, uint256 amount) internal {\n        require(price > 0, \"Can not place order with price equal 0\");\n\n        sellOrdersInStepCounter[price] += 1;\n        sellOrdersInStep[price][sellOrdersInStepCounter[price]] = Order(\n            msg.sender,\n            amount\n        );\n        sellSteps[price].amount += amount;\n        emit DrawToSellBook(msg.sender, price, amount);\n\n        if (minSellPrice == 0) {\n            minSellPrice = price;\n            return;\n        }\n\n        if (price < minSellPrice) {\n            sellSteps[minSellPrice].lowerPrice = price;\n            sellSteps[price].higherPrice = minSellPrice;\n            minSellPrice = price;\n            return;\n        }\n\n        if (price == minSellPrice) {\n            return;\n        }\n\n        uint256 sellPricePointer = minSellPrice;\n        while (\n            price >= sellPricePointer &&\n            sellSteps[sellPricePointer].higherPrice != 0\n        ) {\n            sellPricePointer = sellSteps[sellPricePointer].higherPrice;\n        }\n\n        if (sellPricePointer < price) {\n            sellSteps[price].lowerPrice = sellPricePointer;\n            sellSteps[sellPricePointer].higherPrice = price;\n        }\n\n        if (\n            sellPricePointer > price &&\n            price > sellSteps[sellPricePointer].lowerPrice\n        ) {\n            sellSteps[price].lowerPrice = sellSteps[sellPricePointer]\n                .lowerPrice;\n            sellSteps[price].higherPrice = sellPricePointer;\n\n            sellSteps[sellSteps[sellPricePointer].lowerPrice]\n                .higherPrice = price;\n            sellSteps[sellPricePointer].lowerPrice = price;\n        }\n    }\n}\n",
  "sourcePath": "/Users/weerenteo/Documents/Year 4 Sem 2/CZ4153 Blockchain Technology/Project/Blockchain-DEX/src/contracts/EthSwap.sol",
  "compiler": {
    "name": "solc",
    "version": "0.6.8+commit.0bbfe453.Emscripten.clang"
  },
  "schemaVersion": "3.4.10",
  "updatedAt": "2022-11-03T16:01:13.855Z",
  "networkType": "ethereum",
  "devdoc": {
    "methods": {}
  },
  "userdoc": {
    "methods": {
      "placeSellOrder(uint256,uint256,uint256)": {
        "notice": "Place buy order."
      }
    }
  }
}