{
  "contractName": "TokenSwap",
  "abi": [
    {
      "inputs": [
        {
          "internalType": "contract AToken",
          "name": "_aToken",
          "type": "address"
        },
        {
          "internalType": "contract BToken",
          "name": "_bToken",
          "type": "address"
        }
      ],
      "stateMutability": "nonpayable",
      "type": "constructor"
    },
    {
      "anonymous": false,
      "inputs": [
        {
          "indexed": false,
          "internalType": "address",
          "name": "accountSent",
          "type": "address"
        },
        {
          "indexed": false,
          "internalType": "address",
          "name": "accountReceived",
          "type": "address"
        },
        {
          "indexed": false,
          "internalType": "uint256",
          "name": "amount",
          "type": "uint256"
        }
      ],
      "name": "ATokensSent",
      "type": "event"
    },
    {
      "anonymous": false,
      "inputs": [
        {
          "indexed": false,
          "internalType": "address",
          "name": "account",
          "type": "address"
        },
        {
          "indexed": false,
          "internalType": "address",
          "name": "token",
          "type": "address"
        },
        {
          "indexed": false,
          "internalType": "uint256",
          "name": "amount",
          "type": "uint256"
        },
        {
          "indexed": false,
          "internalType": "uint256",
          "name": "rate",
          "type": "uint256"
        }
      ],
      "name": "BTokensPurchased",
      "type": "event"
    },
    {
      "anonymous": false,
      "inputs": [
        {
          "indexed": false,
          "internalType": "address",
          "name": "accountSent",
          "type": "address"
        },
        {
          "indexed": false,
          "internalType": "address",
          "name": "accountReceived",
          "type": "address"
        },
        {
          "indexed": false,
          "internalType": "uint256",
          "name": "amount",
          "type": "uint256"
        }
      ],
      "name": "BTokensSent",
      "type": "event"
    },
    {
      "anonymous": false,
      "inputs": [
        {
          "indexed": false,
          "internalType": "address",
          "name": "account",
          "type": "address"
        },
        {
          "indexed": false,
          "internalType": "address",
          "name": "token",
          "type": "address"
        },
        {
          "indexed": false,
          "internalType": "uint256",
          "name": "amount",
          "type": "uint256"
        },
        {
          "indexed": false,
          "internalType": "uint256",
          "name": "rate",
          "type": "uint256"
        }
      ],
      "name": "BTokensSold",
      "type": "event"
    },
    {
      "anonymous": false,
      "inputs": [
        {
          "indexed": false,
          "internalType": "address",
          "name": "account",
          "type": "address"
        },
        {
          "indexed": false,
          "internalType": "address",
          "name": "token",
          "type": "address"
        },
        {
          "indexed": false,
          "internalType": "uint256",
          "name": "amount",
          "type": "uint256"
        },
        {
          "indexed": false,
          "internalType": "uint256",
          "name": "rate",
          "type": "uint256"
        }
      ],
      "name": "TokensPurchased",
      "type": "event"
    },
    {
      "anonymous": false,
      "inputs": [
        {
          "indexed": false,
          "internalType": "address",
          "name": "account",
          "type": "address"
        },
        {
          "indexed": false,
          "internalType": "address",
          "name": "token",
          "type": "address"
        },
        {
          "indexed": false,
          "internalType": "uint256",
          "name": "amount",
          "type": "uint256"
        },
        {
          "indexed": false,
          "internalType": "uint256",
          "name": "rate",
          "type": "uint256"
        }
      ],
      "name": "TokensSold",
      "type": "event"
    },
    {
      "inputs": [],
      "name": "aToken",
      "outputs": [
        {
          "internalType": "contract AToken",
          "name": "",
          "type": "address"
        }
      ],
      "stateMutability": "view",
      "type": "function",
      "constant": true
    },
    {
      "inputs": [
        {
          "internalType": "uint256",
          "name": "",
          "type": "uint256"
        }
      ],
      "name": "amountbuy",
      "outputs": [
        {
          "internalType": "uint256",
          "name": "",
          "type": "uint256"
        }
      ],
      "stateMutability": "view",
      "type": "function",
      "constant": true
    },
    {
      "inputs": [
        {
          "internalType": "uint256",
          "name": "",
          "type": "uint256"
        }
      ],
      "name": "amountsell",
      "outputs": [
        {
          "internalType": "uint256",
          "name": "",
          "type": "uint256"
        }
      ],
      "stateMutability": "view",
      "type": "function",
      "constant": true
    },
    {
      "inputs": [],
      "name": "bToken",
      "outputs": [
        {
          "internalType": "contract BToken",
          "name": "",
          "type": "address"
        }
      ],
      "stateMutability": "view",
      "type": "function",
      "constant": true
    },
    {
      "inputs": [],
      "name": "buyCounter",
      "outputs": [
        {
          "internalType": "uint256",
          "name": "",
          "type": "uint256"
        }
      ],
      "stateMutability": "view",
      "type": "function",
      "constant": true
    },
    {
      "inputs": [],
      "name": "buyCounterInv",
      "outputs": [
        {
          "internalType": "uint256",
          "name": "",
          "type": "uint256"
        }
      ],
      "stateMutability": "view",
      "type": "function",
      "constant": true
    },
    {
      "inputs": [
        {
          "internalType": "uint256",
          "name": "",
          "type": "uint256"
        }
      ],
      "name": "buyrateid",
      "outputs": [
        {
          "internalType": "uint256",
          "name": "",
          "type": "uint256"
        }
      ],
      "stateMutability": "view",
      "type": "function",
      "constant": true
    },
    {
      "inputs": [
        {
          "internalType": "uint256",
          "name": "",
          "type": "uint256"
        }
      ],
      "name": "buyrateidInv",
      "outputs": [
        {
          "internalType": "uint256",
          "name": "",
          "type": "uint256"
        }
      ],
      "stateMutability": "view",
      "type": "function",
      "constant": true
    },
    {
      "inputs": [],
      "name": "idOfBuyRate",
      "outputs": [
        {
          "internalType": "uint256",
          "name": "",
          "type": "uint256"
        }
      ],
      "stateMutability": "view",
      "type": "function",
      "constant": true
    },
    {
      "inputs": [],
      "name": "idOfBuyRateInv",
      "outputs": [
        {
          "internalType": "uint256",
          "name": "",
          "type": "uint256"
        }
      ],
      "stateMutability": "view",
      "type": "function",
      "constant": true
    },
    {
      "inputs": [],
      "name": "idOfSellRate",
      "outputs": [
        {
          "internalType": "uint256",
          "name": "",
          "type": "uint256"
        }
      ],
      "stateMutability": "view",
      "type": "function",
      "constant": true
    },
    {
      "inputs": [],
      "name": "idOfSellRateInv",
      "outputs": [
        {
          "internalType": "uint256",
          "name": "",
          "type": "uint256"
        }
      ],
      "stateMutability": "view",
      "type": "function",
      "constant": true
    },
    {
      "inputs": [],
      "name": "maxBuyRate",
      "outputs": [
        {
          "internalType": "uint256",
          "name": "",
          "type": "uint256"
        }
      ],
      "stateMutability": "view",
      "type": "function",
      "constant": true
    },
    {
      "inputs": [],
      "name": "maxSellRate",
      "outputs": [
        {
          "internalType": "uint256",
          "name": "",
          "type": "uint256"
        }
      ],
      "stateMutability": "view",
      "type": "function",
      "constant": true
    },
    {
      "inputs": [],
      "name": "minBuyRate",
      "outputs": [
        {
          "internalType": "uint256",
          "name": "",
          "type": "uint256"
        }
      ],
      "stateMutability": "view",
      "type": "function",
      "constant": true
    },
    {
      "inputs": [],
      "name": "minSellRate",
      "outputs": [
        {
          "internalType": "uint256",
          "name": "",
          "type": "uint256"
        }
      ],
      "stateMutability": "view",
      "type": "function",
      "constant": true
    },
    {
      "inputs": [],
      "name": "name",
      "outputs": [
        {
          "internalType": "string",
          "name": "",
          "type": "string"
        }
      ],
      "stateMutability": "view",
      "type": "function",
      "constant": true
    },
    {
      "inputs": [
        {
          "internalType": "uint256",
          "name": "",
          "type": "uint256"
        }
      ],
      "name": "newBuyOrderBook",
      "outputs": [
        {
          "internalType": "address",
          "name": "maker",
          "type": "address"
        },
        {
          "internalType": "uint256",
          "name": "amount",
          "type": "uint256"
        },
        {
          "internalType": "uint256",
          "name": "rate",
          "type": "uint256"
        }
      ],
      "stateMutability": "view",
      "type": "function",
      "constant": true
    },
    {
      "inputs": [
        {
          "internalType": "uint256",
          "name": "",
          "type": "uint256"
        }
      ],
      "name": "newBuyOrderBookInv",
      "outputs": [
        {
          "internalType": "address",
          "name": "maker",
          "type": "address"
        },
        {
          "internalType": "uint256",
          "name": "amount",
          "type": "uint256"
        },
        {
          "internalType": "uint256",
          "name": "rate",
          "type": "uint256"
        }
      ],
      "stateMutability": "view",
      "type": "function",
      "constant": true
    },
    {
      "inputs": [
        {
          "internalType": "uint256",
          "name": "",
          "type": "uint256"
        }
      ],
      "name": "newSellOrderBook",
      "outputs": [
        {
          "internalType": "address",
          "name": "maker",
          "type": "address"
        },
        {
          "internalType": "uint256",
          "name": "amount",
          "type": "uint256"
        },
        {
          "internalType": "uint256",
          "name": "rate",
          "type": "uint256"
        }
      ],
      "stateMutability": "view",
      "type": "function",
      "constant": true
    },
    {
      "inputs": [
        {
          "internalType": "uint256",
          "name": "",
          "type": "uint256"
        }
      ],
      "name": "newSellOrderBookInv",
      "outputs": [
        {
          "internalType": "address",
          "name": "maker",
          "type": "address"
        },
        {
          "internalType": "uint256",
          "name": "amount",
          "type": "uint256"
        },
        {
          "internalType": "uint256",
          "name": "rate",
          "type": "uint256"
        }
      ],
      "stateMutability": "view",
      "type": "function",
      "constant": true
    },
    {
      "inputs": [],
      "name": "sellCounter",
      "outputs": [
        {
          "internalType": "uint256",
          "name": "",
          "type": "uint256"
        }
      ],
      "stateMutability": "view",
      "type": "function",
      "constant": true
    },
    {
      "inputs": [],
      "name": "sellCounterInv",
      "outputs": [
        {
          "internalType": "uint256",
          "name": "",
          "type": "uint256"
        }
      ],
      "stateMutability": "view",
      "type": "function",
      "constant": true
    },
    {
      "inputs": [
        {
          "internalType": "uint256",
          "name": "",
          "type": "uint256"
        }
      ],
      "name": "sellrateid",
      "outputs": [
        {
          "internalType": "uint256",
          "name": "",
          "type": "uint256"
        }
      ],
      "stateMutability": "view",
      "type": "function",
      "constant": true
    },
    {
      "inputs": [
        {
          "internalType": "uint256",
          "name": "",
          "type": "uint256"
        }
      ],
      "name": "sellrateidInv",
      "outputs": [
        {
          "internalType": "uint256",
          "name": "",
          "type": "uint256"
        }
      ],
      "stateMutability": "view",
      "type": "function",
      "constant": true
    },
    {
      "inputs": [],
      "name": "getbuyrate",
      "outputs": [
        {
          "internalType": "uint256[]",
          "name": "",
          "type": "uint256[]"
        }
      ],
      "stateMutability": "nonpayable",
      "type": "function"
    },
    {
      "inputs": [],
      "name": "getsellrate",
      "outputs": [
        {
          "internalType": "uint256[]",
          "name": "",
          "type": "uint256[]"
        }
      ],
      "stateMutability": "nonpayable",
      "type": "function"
    },
    {
      "inputs": [],
      "name": "getbuyrateInv",
      "outputs": [
        {
          "internalType": "uint256[]",
          "name": "",
          "type": "uint256[]"
        }
      ],
      "stateMutability": "nonpayable",
      "type": "function"
    },
    {
      "inputs": [],
      "name": "getsellrateInv",
      "outputs": [
        {
          "internalType": "uint256[]",
          "name": "",
          "type": "uint256[]"
        }
      ],
      "stateMutability": "nonpayable",
      "type": "function"
    },
    {
      "inputs": [
        {
          "internalType": "uint256",
          "name": "b",
          "type": "uint256"
        },
        {
          "internalType": "uint256",
          "name": "a",
          "type": "uint256"
        }
      ],
      "name": "atob",
      "outputs": [],
      "stateMutability": "nonpayable",
      "type": "function"
    },
    {
      "inputs": [
        {
          "internalType": "uint256",
          "name": "b",
          "type": "uint256"
        },
        {
          "internalType": "uint256",
          "name": "a",
          "type": "uint256"
        }
      ],
      "name": "atobInverseRate",
      "outputs": [],
      "stateMutability": "nonpayable",
      "type": "function"
    },
    {
      "inputs": [
        {
          "internalType": "uint256",
          "name": "a",
          "type": "uint256"
        },
        {
          "internalType": "uint256",
          "name": "b",
          "type": "uint256"
        }
      ],
      "name": "btoa",
      "outputs": [],
      "stateMutability": "nonpayable",
      "type": "function"
    },
    {
      "inputs": [
        {
          "internalType": "uint256",
          "name": "a",
          "type": "uint256"
        },
        {
          "internalType": "uint256",
          "name": "b",
          "type": "uint256"
        }
      ],
      "name": "btoaInverseRate",
      "outputs": [],
      "stateMutability": "nonpayable",
      "type": "function"
    },
    {
      "inputs": [],
      "name": "deleteBuyOrders",
      "outputs": [],
      "stateMutability": "nonpayable",
      "type": "function"
    },
    {
      "inputs": [],
      "name": "deleteSellOrders",
      "outputs": [],
      "stateMutability": "nonpayable",
      "type": "function"
    },
    {
      "inputs": [
        {
          "internalType": "address",
          "name": "account",
          "type": "address"
        }
      ],
      "name": "getBuyOrderBook",
      "outputs": [
        {
          "internalType": "uint256[]",
          "name": "",
          "type": "uint256[]"
        }
      ],
      "stateMutability": "nonpayable",
      "type": "function"
    },
    {
      "inputs": [
        {
          "internalType": "address",
          "name": "account",
          "type": "address"
        }
      ],
      "name": "getSellOrderBook",
      "outputs": [
        {
          "internalType": "uint256[]",
          "name": "",
          "type": "uint256[]"
        }
      ],
      "stateMutability": "nonpayable",
      "type": "function"
    }
  ],
  "bytecode": "0x60806040526040518060400160405280601281526020017f546f6b656e537761702045786368616e67650000000000000000000000000000815250600190805190602001906200005192919062000146565b5060006004556000600855600060165560006019553480156200007357600080fd5b50604051620060c2380380620060c2833981810160405260408110156200009957600080fd5b810190808051906020019092919080519060200190929190505050600160008190555081600260006101000a81548173ffffffffffffffffffffffffffffffffffffffff021916908373ffffffffffffffffffffffffffffffffffffffff16021790555080600360006101000a81548173ffffffffffffffffffffffffffffffffffffffff021916908373ffffffffffffffffffffffffffffffffffffffff1602179055505050620001f5565b828054600181600116156101000203166002900490600052602060002090601f016020900481019282601f106200018957805160ff1916838001178555620001ba565b82800160010185558215620001ba579182015b82811115620001b95782518255916020019190600101906200019c565b5b509050620001c99190620001cd565b5090565b620001f291905b80821115620001ee576000816000905550600101620001d4565b5090565b90565b615ebd80620002056000396000f3fe608060405234801561001057600080fd5b50600436106102275760003560e01c80638447eee611610130578063c98ceaf4116100b8578063de7215861161007c578063de72158614610ad1578063df85924714610aef578063eb09692414610b31578063ec4763b614610b69578063f32b137b14610bab57610227565b8063c98ceaf41461093e578063cddfa2a4146109ba578063d6bd0ca6146109d8578063dcb8e106146109f6578063dd7f4e4014610a8f57610227565b8063a0c1f15e116100ff578063a0c1f15e1461081e578063a4d0047d14610868578063b2bb39ef14610886578063c86f663914610902578063c907290c1461092057610227565b80638447eee6146107255780638544a5ec146107be57806391ceedbf146107f65780639237b46c1461081457610227565b80633edec69a116101b35780635632993b116101825780635632993b146105e057806361834641146105fe5780636bc69a24146106085780636e94422c1461068457806376a4202e146106e357610227565b80633edec69a146105035780634fb01c791461052157806350e3d8081461053f578063540cecb31461059e57610227565b8063180f5842116101fa578063180f5842146103645780632373ce13146103ae57806323ad22481461040d578063307a429d1461048957806333f393ee146104cb57610227565b806306fdde031461022c57806310fea546146102af57806311d7e6891461030e57806317aabc5514610346575b600080fd5b610234610bc9565b6040518080602001828103825283818151815260200191508051906020019080838360005b83811015610274578082015181840152602081019050610259565b50505050905090810190601f1680156102a15780820380516001836020036101000a031916815260200191505b509250505060405180910390f35b6102b7610c67565b6040518080602001828103825283818151815260200191508051906020019060200280838360005b838110156102fa5780820151818401526020810190506102df565b505050509050019250505060405180910390f35b6103446004803603604081101561032457600080fd5b810190808035906020019092919080359060200190929190505050610cbf565b005b61034e61190b565b6040518082815260200191505060405180910390f35b61036c611911565b604051808273ffffffffffffffffffffffffffffffffffffffff1673ffffffffffffffffffffffffffffffffffffffff16815260200191505060405180910390f35b6103b6611937565b6040518080602001828103825283818151815260200191508051906020019060200280838360005b838110156103f95780820151818401526020810190506103de565b505050509050019250505060405180910390f35b6104396004803603602081101561042357600080fd5b810190808035906020019092919050505061198f565b604051808473ffffffffffffffffffffffffffffffffffffffff1673ffffffffffffffffffffffffffffffffffffffff168152602001838152602001828152602001935050505060405180910390f35b6104b56004803603602081101561049f57600080fd5b81019080803590602001909291905050506119d9565b6040518082815260200191505060405180910390f35b610501600480360360408110156104e157600080fd5b8101908080359060200190929190803590602001909291905050506119fa565b005b61050b612f75565b6040518082815260200191505060405180910390f35b610529612f7b565b6040518082815260200191505060405180910390f35b610547612f81565b6040518080602001828103825283818151815260200191508051906020019060200280838360005b8381101561058a57808201518184015260208101905061056f565b505050509050019250505060405180910390f35b6105ca600480360360208110156105b457600080fd5b8101908080359060200190929190505050612fd9565b6040518082815260200191505060405180910390f35b6105e8612ffa565b6040518082815260200191505060405180910390f35b610606613000565b005b6106346004803603602081101561061e57600080fd5b81019080803590602001909291905050506134ec565b604051808473ffffffffffffffffffffffffffffffffffffffff1673ffffffffffffffffffffffffffffffffffffffff168152602001838152602001828152602001935050505060405180910390f35b61068c613536565b6040518080602001828103825283818151815260200191508051906020019060200280838360005b838110156106cf5780820151818401526020810190506106b4565b505050509050019250505060405180910390f35b61070f600480360360208110156106f957600080fd5b810190808035906020019092919050505061358e565b6040518082815260200191505060405180910390f35b6107676004803603602081101561073b57600080fd5b81019080803573ffffffffffffffffffffffffffffffffffffffff1690602001909291905050506135af565b6040518080602001828103825283818151815260200191508051906020019060200280838360005b838110156107aa57808201518184015260208101905061078f565b505050509050019250505060405180910390f35b6107f4600480360360408110156107d457600080fd5b81019080803590602001909291908035906020019092919050505061386e565b005b6107fe614466565b6040518082815260200191505060405180910390f35b61081c61446c565b005b610826614958565b604051808273ffffffffffffffffffffffffffffffffffffffff1673ffffffffffffffffffffffffffffffffffffffff16815260200191505060405180910390f35b61087061497e565b6040518082815260200191505060405180910390f35b6108b26004803603602081101561089c57600080fd5b8101908080359060200190929190505050614984565b604051808473ffffffffffffffffffffffffffffffffffffffff1673ffffffffffffffffffffffffffffffffffffffff168152602001838152602001828152602001935050505060405180910390f35b61090a6149ce565b6040518082815260200191505060405180910390f35b6109286149d4565b6040518082815260200191505060405180910390f35b61096a6004803603602081101561095457600080fd5b81019080803590602001909291905050506149da565b604051808473ffffffffffffffffffffffffffffffffffffffff1673ffffffffffffffffffffffffffffffffffffffff168152602001838152602001828152602001935050505060405180910390f35b6109c2614a24565b6040518082815260200191505060405180910390f35b6109e0614a2a565b6040518082815260200191505060405180910390f35b610a3860048036036020811015610a0c57600080fd5b81019080803573ffffffffffffffffffffffffffffffffffffffff169060200190929190505050614a30565b6040518080602001828103825283818151815260200191508051906020019060200280838360005b83811015610a7b578082015181840152602081019050610a60565b505050509050019250505060405180910390f35b610abb60048036036020811015610aa557600080fd5b8101908080359060200190929190505050614cef565b6040518082815260200191505060405180910390f35b610ad9614d10565b6040518082815260200191505060405180910390f35b610b1b60048036036020811015610b0557600080fd5b8101908080359060200190929190505050614d16565b6040518082815260200191505060405180910390f35b610b6760048036036040811015610b4757600080fd5b810190808035906020019092919080359060200190929190505050614d37565b005b610b9560048036036020811015610b7f57600080fd5b8101908080359060200190929190505050615a2a565b6040518082815260200191505060405180910390f35b610bb3615a4b565b6040518082815260200191505060405180910390f35b60018054600181600116156101000203166002900480601f016020809104026020016040519081016040528092919081815260200182805460018160011615610100020316600290048015610c5f5780601f10610c3457610100808354040283529160200191610c5f565b820191906000526020600020905b815481529060010190602001808311610c4257829003601f168201915b505050505081565b60606013805480602002602001604051908101604052809291908181526020018280548015610cb557602002820191906000526020600020905b815481526020019060010190808311610ca1575b5050505050905090565b60026000541415610d38576040517f08c379a000000000000000000000000000000000000000000000000000000000815260040180806020018281038252601f8152602001807f5265656e7472616e637947756172643a207265656e7472616e742063616c6c0081525060200191505060405180910390fd5b600260008190555080600260009054906101000a900473ffffffffffffffffffffffffffffffffffffffff1673ffffffffffffffffffffffffffffffffffffffff166370a08231336040518263ffffffff1660e01b8152600401808273ffffffffffffffffffffffffffffffffffffffff1673ffffffffffffffffffffffffffffffffffffffff16815260200191505060206040518083038186803b158015610de057600080fd5b505afa158015610df4573d6000803e3d6000fd5b505050506040513d6020811015610e0a57600080fd5b81019080805190602001909291905050501015610e8f576040517f08c379a00000000000000000000000000000000000000000000000000000000081526004018080602001828103825260158152602001807f68656c6c6f206572726f7220686572652061746f62000000000000000000000081525060200191505060405180910390fd5b600260009054906101000a900473ffffffffffffffffffffffffffffffffffffffff1673ffffffffffffffffffffffffffffffffffffffff166323b872dd3330846040518463ffffffff1660e01b8152600401808473ffffffffffffffffffffffffffffffffffffffff1673ffffffffffffffffffffffffffffffffffffffff1681526020018373ffffffffffffffffffffffffffffffffffffffff1673ffffffffffffffffffffffffffffffffffffffff1681526020018281526020019350505050602060405180830381600087803b158015610f6c57600080fd5b505af1158015610f80573d6000803e3d6000fd5b505050506040513d6020811015610f9657600080fd5b8101908080519060200190929190505050506000818381610fb357fe5b04905060006001905060008090505b6012805490508110156118df5760128181548110610fdc57fe5b9060005260206000200154600a81905550601a6000600a54815260200190815260200160002060020154601781905550601754831015801561102057506000601754115b156118d2576000915084601a6000600a54815260200190815260200160002060010154111561129157600085601a6000600a5481526020019081526020016000206001015403905080601a6000600a54815260200190815260200160002060010181905550600260009054906101000a900473ffffffffffffffffffffffffffffffffffffffff1673ffffffffffffffffffffffffffffffffffffffff1663a9059cbb601a6000600a54815260200190815260200160002060000160009054906101000a900473ffffffffffffffffffffffffffffffffffffffff16876040518363ffffffff1660e01b8152600401808373ffffffffffffffffffffffffffffffffffffffff1673ffffffffffffffffffffffffffffffffffffffff16815260200182815260200192505050602060405180830381600087803b15801561116657600080fd5b505af115801561117a573d6000803e3d6000fd5b505050506040513d602081101561119057600080fd5b810190808051906020019092919050505050600360009054906101000a900473ffffffffffffffffffffffffffffffffffffffff1673ffffffffffffffffffffffffffffffffffffffff1663a9059cbb3360175488026040518363ffffffff1660e01b8152600401808373ffffffffffffffffffffffffffffffffffffffff1673ffffffffffffffffffffffffffffffffffffffff16815260200182815260200192505050602060405180830381600087803b15801561124f57600080fd5b505af1158015611263573d6000803e3d6000fd5b505050506040513d602081101561127957600080fd5b810190808051906020019092919050505050506118cd565b84601a6000600a54815260200190815260200160002060010154141561158657600260009054906101000a900473ffffffffffffffffffffffffffffffffffffffff1673ffffffffffffffffffffffffffffffffffffffff1663a9059cbb601a6000600a54815260200190815260200160002060000160009054906101000a900473ffffffffffffffffffffffffffffffffffffffff16866040518363ffffffff1660e01b8152600401808373ffffffffffffffffffffffffffffffffffffffff1673ffffffffffffffffffffffffffffffffffffffff16815260200182815260200192505050602060405180830381600087803b15801561139257600080fd5b505af11580156113a6573d6000803e3d6000fd5b505050506040513d60208110156113bc57600080fd5b810190808051906020019092919050505050600360009054906101000a900473ffffffffffffffffffffffffffffffffffffffff1673ffffffffffffffffffffffffffffffffffffffff1663a9059cbb3360175487026040518363ffffffff1660e01b8152600401808373ffffffffffffffffffffffffffffffffffffffff1673ffffffffffffffffffffffffffffffffffffffff16815260200182815260200192505050602060405180830381600087803b15801561147b57600080fd5b505af115801561148f573d6000803e3d6000fd5b505050506040513d60208110156114a557600080fd5b810190808051906020019092919050505050601a6000600a548152602001908152602001600020600080820160006101000a81549073ffffffffffffffffffffffffffffffffffffffff021916905560018201600090556002820160009055505060008190505b60016012805490500381101561155f576012600182018154811061152c57fe5b90600052602060002001546012828154811061154457fe5b9060005260206000200181905550808060010191505061150c565b50601280548061156b57fe5b600190038181906000526020600020016000905590556118cc565b84601a6000600a5481526020019081526020016000206001015410156118cb57600260009054906101000a900473ffffffffffffffffffffffffffffffffffffffff1673ffffffffffffffffffffffffffffffffffffffff1663a9059cbb601a6000600a54815260200190815260200160002060000160009054906101000a900473ffffffffffffffffffffffffffffffffffffffff16601a6000600a548152602001908152602001600020600101546040518363ffffffff1660e01b8152600401808373ffffffffffffffffffffffffffffffffffffffff1673ffffffffffffffffffffffffffffffffffffffff16815260200182815260200192505050602060405180830381600087803b15801561169f57600080fd5b505af11580156116b3573d6000803e3d6000fd5b505050506040513d60208110156116c957600080fd5b810190808051906020019092919050505050600360009054906101000a900473ffffffffffffffffffffffffffffffffffffffff1673ffffffffffffffffffffffffffffffffffffffff1663a9059cbb33601754601a6000600a54815260200190815260200160002060010154026040518363ffffffff1660e01b8152600401808373ffffffffffffffffffffffffffffffffffffffff1673ffffffffffffffffffffffffffffffffffffffff16815260200182815260200192505050602060405180830381600087803b1580156117a057600080fd5b505af11580156117b4573d6000803e3d6000fd5b505050506040513d60208110156117ca57600080fd5b810190808051906020019092919050505050601a6000600a548152602001908152602001600020600080820160006101000a81549073ffffffffffffffffffffffffffffffffffffffff021916905560018201600090556002820160009055505060008190505b600160128054905003811015611884576012600182018154811061185157fe5b90600052602060002001546012828154811061186957fe5b90600052602060002001819055508080600101915050611831565b50601280548061189057fe5b600190038181906000526020600020016000905590556118ca83601a6000600a548152602001908152602001600020600101548603615a51565b5b5b5b6118df565b8080600101915050610fc2565b506000831180156118ed5750805b156118fd576118fc8284615a51565b5b505060016000819055505050565b60145481565b600360009054906101000a900473ffffffffffffffffffffffffffffffffffffffff1681565b6060601280548060200260200160405190810160405280929190818152602001828054801561198557602002820191906000526020600020905b815481526020019060010190808311611971575b5050505050905090565b601a6020528060005260406000206000915090508060000160009054906101000a900473ffffffffffffffffffffffffffffffffffffffff16908060010154908060020154905083565b601381815481106119e657fe5b906000526020600020016000915090505481565b60026000541415611a73576040517f08c379a000000000000000000000000000000000000000000000000000000000815260040180806020018281038252601f8152602001807f5265656e7472616e637947756172643a207265656e7472616e742063616c6c0081525060200191505060405180910390fd5b600260008190555080600360009054906101000a900473ffffffffffffffffffffffffffffffffffffffff1673ffffffffffffffffffffffffffffffffffffffff166370a08231336040518263ffffffff1660e01b8152600401808273ffffffffffffffffffffffffffffffffffffffff1673ffffffffffffffffffffffffffffffffffffffff16815260200191505060206040518083038186803b158015611b1b57600080fd5b505afa158015611b2f573d6000803e3d6000fd5b505050506040513d6020811015611b4557600080fd5b81019080805190602001909291905050501015611b6157600080fd5b600f819080600181540180825580915050600190039060005260206000200160009091909190915055600f829080600181540180825580915050600190039060005260206000200160009091909190915055600360009054906101000a900473ffffffffffffffffffffffffffffffffffffffff1673ffffffffffffffffffffffffffffffffffffffff166323b872dd3330846040518463ffffffff1660e01b8152600401808473ffffffffffffffffffffffffffffffffffffffff1673ffffffffffffffffffffffffffffffffffffffff1681526020018373ffffffffffffffffffffffffffffffffffffffff1673ffffffffffffffffffffffffffffffffffffffff1681526020018281526020019350505050602060405180830381600087803b158015611c9057600080fd5b505af1158015611ca4573d6000803e3d6000fd5b505050506040513d6020811015611cba57600080fd5b8101908080519060200190929190505050506000818381611cd757fe5b04905060006001905060008090505b600d80549050811015612f4957600d8181548110611d0057fe5b906000526020600020015460078190555060066000600754815260200190815260200160002060020154600b81905550600b548311158015611d4457506000600b54115b15612f3c5760009150846006600060075481526020019081526020016000206001015411156125c0576000600660006007548152602001908152602001600020600201546006600060075481526020019081526020016000206001015481611da857fe5b0490508481101561209457600360009054906101000a900473ffffffffffffffffffffffffffffffffffffffff1673ffffffffffffffffffffffffffffffffffffffff1663a9059cbb60066000600754815260200190815260200160002060000160009054906101000a900473ffffffffffffffffffffffffffffffffffffffff16836040518363ffffffff1660e01b8152600401808373ffffffffffffffffffffffffffffffffffffffff1673ffffffffffffffffffffffffffffffffffffffff16815260200182815260200192505050602060405180830381600087803b158015611e9457600080fd5b505af1158015611ea8573d6000803e3d6000fd5b505050506040513d6020811015611ebe57600080fd5b810190808051906020019092919050505050600260009054906101000a900473ffffffffffffffffffffffffffffffffffffffff1673ffffffffffffffffffffffffffffffffffffffff1663a9059cbb33600b5484026040518363ffffffff1660e01b8152600401808373ffffffffffffffffffffffffffffffffffffffff1673ffffffffffffffffffffffffffffffffffffffff16815260200182815260200192505050602060405180830381600087803b158015611f7d57600080fd5b505af1158015611f91573d6000803e3d6000fd5b505050506040513d6020811015611fa757600080fd5b810190808051906020019092919050505050600660006007548152602001908152602001600020600080820160006101000a81549073ffffffffffffffffffffffffffffffffffffffff021916905560018201600090556002820160009055505060008290505b6001600d805490500381101561206157600d600182018154811061202e57fe5b9060005260206000200154600d828154811061204657fe5b9060005260206000200181905550808060010191505061200e565b50600d80548061206d57fe5b6001900381819060005260206000200160009055905561208f84828703615b42565b6125ba565b848111156122e857600360009054906101000a900473ffffffffffffffffffffffffffffffffffffffff1673ffffffffffffffffffffffffffffffffffffffff1663a9059cbb60066000600754815260200190815260200160002060000160009054906101000a900473ffffffffffffffffffffffffffffffffffffffff16876040518363ffffffff1660e01b8152600401808373ffffffffffffffffffffffffffffffffffffffff1673ffffffffffffffffffffffffffffffffffffffff16815260200182815260200192505050602060405180830381600087803b15801561217d57600080fd5b505af1158015612191573d6000803e3d6000fd5b505050506040513d60208110156121a757600080fd5b810190808051906020019092919050505050600260009054906101000a900473ffffffffffffffffffffffffffffffffffffffff1673ffffffffffffffffffffffffffffffffffffffff1663a9059cbb33600b5488026040518363ffffffff1660e01b8152600401808373ffffffffffffffffffffffffffffffffffffffff1673ffffffffffffffffffffffffffffffffffffffff16815260200182815260200192505050602060405180830381600087803b15801561226657600080fd5b505af115801561227a573d6000803e3d6000fd5b505050506040513d602081101561229057600080fd5b8101908080519060200190929190505050506000600b548602600660006007548152602001908152602001600020600101540390508060066000600754815260200190815260200160002060010181905550506125b9565b600360009054906101000a900473ffffffffffffffffffffffffffffffffffffffff1673ffffffffffffffffffffffffffffffffffffffff1663a9059cbb60066000600754815260200190815260200160002060000160009054906101000a900473ffffffffffffffffffffffffffffffffffffffff16876040518363ffffffff1660e01b8152600401808373ffffffffffffffffffffffffffffffffffffffff1673ffffffffffffffffffffffffffffffffffffffff16815260200182815260200192505050602060405180830381600087803b1580156123c957600080fd5b505af11580156123dd573d6000803e3d6000fd5b505050506040513d60208110156123f357600080fd5b810190808051906020019092919050505050600260009054906101000a900473ffffffffffffffffffffffffffffffffffffffff1673ffffffffffffffffffffffffffffffffffffffff1663a9059cbb33600b5488026040518363ffffffff1660e01b8152600401808373ffffffffffffffffffffffffffffffffffffffff1673ffffffffffffffffffffffffffffffffffffffff16815260200182815260200192505050602060405180830381600087803b1580156124b257600080fd5b505af11580156124c6573d6000803e3d6000fd5b505050506040513d60208110156124dc57600080fd5b810190808051906020019092919050505050600660006007548152602001908152602001600020600080820160006101000a81549073ffffffffffffffffffffffffffffffffffffffff021916905560018201600090556002820160009055505060008290505b6001600d805490500381101561259657600d600182018154811061256357fe5b9060005260206000200154600d828154811061257b57fe5b90600052602060002001819055508080600101915050612543565b50600d8054806125a257fe5b600190038181906000526020600020016000905590555b5b50612f37565b84600660006007548152602001908152602001600020600101541415612be757600060066000600754815260200190815260200160002060020154600660006007548152602001908152602001600020600101548161261b57fe5b0490508481101561290757600360009054906101000a900473ffffffffffffffffffffffffffffffffffffffff1673ffffffffffffffffffffffffffffffffffffffff1663a9059cbb60066000600754815260200190815260200160002060000160009054906101000a900473ffffffffffffffffffffffffffffffffffffffff16836040518363ffffffff1660e01b8152600401808373ffffffffffffffffffffffffffffffffffffffff1673ffffffffffffffffffffffffffffffffffffffff16815260200182815260200192505050602060405180830381600087803b15801561270757600080fd5b505af115801561271b573d6000803e3d6000fd5b505050506040513d602081101561273157600080fd5b810190808051906020019092919050505050600260009054906101000a900473ffffffffffffffffffffffffffffffffffffffff1673ffffffffffffffffffffffffffffffffffffffff1663a9059cbb33600b5484026040518363ffffffff1660e01b8152600401808373ffffffffffffffffffffffffffffffffffffffff1673ffffffffffffffffffffffffffffffffffffffff16815260200182815260200192505050602060405180830381600087803b1580156127f057600080fd5b505af1158015612804573d6000803e3d6000fd5b505050506040513d602081101561281a57600080fd5b81019080805190602001909291905050505061283884828703615b42565b600660006007548152602001908152602001600020600080820160006101000a81549073ffffffffffffffffffffffffffffffffffffffff021916905560018201600090556002820160009055505060008290505b6001600d80549050038110156128e057600d60018201815481106128ad57fe5b9060005260206000200154600d82815481106128c557fe5b9060005260206000200181905550808060010191505061288d565b50600d8054806128ec57fe5b60019003818190600052602060002001600090559055612be1565b80851415612be057600360009054906101000a900473ffffffffffffffffffffffffffffffffffffffff1673ffffffffffffffffffffffffffffffffffffffff1663a9059cbb60066000600754815260200190815260200160002060000160009054906101000a900473ffffffffffffffffffffffffffffffffffffffff16876040518363ffffffff1660e01b8152600401808373ffffffffffffffffffffffffffffffffffffffff1673ffffffffffffffffffffffffffffffffffffffff16815260200182815260200192505050602060405180830381600087803b1580156129f057600080fd5b505af1158015612a04573d6000803e3d6000fd5b505050506040513d6020811015612a1a57600080fd5b810190808051906020019092919050505050600260009054906101000a900473ffffffffffffffffffffffffffffffffffffffff1673ffffffffffffffffffffffffffffffffffffffff1663a9059cbb33600b5488026040518363ffffffff1660e01b8152600401808373ffffffffffffffffffffffffffffffffffffffff1673ffffffffffffffffffffffffffffffffffffffff16815260200182815260200192505050602060405180830381600087803b158015612ad957600080fd5b505af1158015612aed573d6000803e3d6000fd5b505050506040513d6020811015612b0357600080fd5b810190808051906020019092919050505050600660006007548152602001908152602001600020600080820160006101000a81549073ffffffffffffffffffffffffffffffffffffffff021916905560018201600090556002820160009055505060008290505b6001600d8054905003811015612bbd57600d6001820181548110612b8a57fe5b9060005260206000200154600d8281548110612ba257fe5b90600052602060002001819055508080600101915050612b6a565b50600d805480612bc957fe5b600190038181906000526020600020016000905590555b5b50612f36565b84600660006007548152602001908152602001600020600101541015612f35576000600660006007548152602001908152602001600020600201546006600060075481526020019081526020016000206001015481612c4257fe5b04905084811015612f335784811015612f3257600360009054906101000a900473ffffffffffffffffffffffffffffffffffffffff1673ffffffffffffffffffffffffffffffffffffffff1663a9059cbb60066000600754815260200190815260200160002060000160009054906101000a900473ffffffffffffffffffffffffffffffffffffffff16836040518363ffffffff1660e01b8152600401808373ffffffffffffffffffffffffffffffffffffffff1673ffffffffffffffffffffffffffffffffffffffff16815260200182815260200192505050602060405180830381600087803b158015612d3657600080fd5b505af1158015612d4a573d6000803e3d6000fd5b505050506040513d6020811015612d6057600080fd5b810190808051906020019092919050505050600260009054906101000a900473ffffffffffffffffffffffffffffffffffffffff1673ffffffffffffffffffffffffffffffffffffffff1663a9059cbb33600b5484026040518363ffffffff1660e01b8152600401808373ffffffffffffffffffffffffffffffffffffffff1673ffffffffffffffffffffffffffffffffffffffff16815260200182815260200192505050602060405180830381600087803b158015612e1f57600080fd5b505af1158015612e33573d6000803e3d6000fd5b505050506040513d6020811015612e4957600080fd5b810190808051906020019092919050505050612e6784828703615b42565b600660006007548152602001908152602001600020600080820160006101000a81549073ffffffffffffffffffffffffffffffffffffffff021916905560018201600090556002820160009055505060008290505b6001600d8054905003811015612f0f57600d6001820181548110612edc57fe5b9060005260206000200154600d8281548110612ef457fe5b90600052602060002001819055508080600101915050612ebc565b50600d805480612f1b57fe5b600190038181906000526020600020016000905590555b5b505b5b5b612f49565b8080600101915050611ce6565b50600083118015612f575750805b15612f6757612f668284615b42565b5b505060016000819055505050565b60055481565b60165481565b6060600c805480602002602001604051908101604052809291908181526020018280548015612fcf57602002820191906000526020600020905b815481526020019060010190808311612fbb575b5050505050905090565b600e8181548110612fe657fe5b906000526020600020016000915090505481565b600a5481565b60008090505b600d80549050811015613274576000600d828154811061302257fe5b906000526020600020015490506006600082815260200190815260200160002060000160009054906101000a900473ffffffffffffffffffffffffffffffffffffffff1673ffffffffffffffffffffffffffffffffffffffff163373ffffffffffffffffffffffffffffffffffffffff16141561326657600260009054906101000a900473ffffffffffffffffffffffffffffffffffffffff1673ffffffffffffffffffffffffffffffffffffffff1663a9059cbb3360066000858152602001908152602001600020600101546040518363ffffffff1660e01b8152600401808373ffffffffffffffffffffffffffffffffffffffff1673ffffffffffffffffffffffffffffffffffffffff16815260200182815260200192505050602060405180830381600087803b15801561315857600080fd5b505af115801561316c573d6000803e3d6000fd5b505050506040513d602081101561318257600080fd5b81019080805190602001909291905050505060066000828152602001908152602001600020600080820160006101000a81549073ffffffffffffffffffffffffffffffffffffffff021916905560018201600090556002820160009055505060008290505b6001600d805490500381101561323a57600d600182018154811061320757fe5b9060005260206000200154600d828154811061321f57fe5b906000526020600020018190555080806001019150506131e7565b50600d80548061324657fe5b600190038181906000526020600020016000905590558180600190039250505b508080600101915050613006565b5060008090505b6013805490508110156134e95760006013828154811061329757fe5b906000526020600020015490506018600082815260200190815260200160002060000160009054906101000a900473ffffffffffffffffffffffffffffffffffffffff1673ffffffffffffffffffffffffffffffffffffffff163373ffffffffffffffffffffffffffffffffffffffff1614156134db57600260009054906101000a900473ffffffffffffffffffffffffffffffffffffffff1673ffffffffffffffffffffffffffffffffffffffff1663a9059cbb3360186000858152602001908152602001600020600101546040518363ffffffff1660e01b8152600401808373ffffffffffffffffffffffffffffffffffffffff1673ffffffffffffffffffffffffffffffffffffffff16815260200182815260200192505050602060405180830381600087803b1580156133cd57600080fd5b505af11580156133e1573d6000803e3d6000fd5b505050506040513d60208110156133f757600080fd5b81019080805190602001909291905050505060186000828152602001908152602001600020600080820160006101000a81549073ffffffffffffffffffffffffffffffffffffffff021916905560018201600090556002820160009055505060008290505b6001601380549050038110156134af576013600182018154811061347c57fe5b90600052602060002001546013828154811061349457fe5b9060005260206000200181905550808060010191505061345c565b5060138054806134bb57fe5b600190038181906000526020600020016000905590558180600190039250505b50808060010191505061327b565b50565b60096020528060005260406000206000915090508060000160009054906101000a900473ffffffffffffffffffffffffffffffffffffffff16908060010154908060020154905083565b6060600d80548060200260200160405190810160405280929190818152602001828054801561358457602002820191906000526020600020905b815481526020019060010190808311613570575b5050505050905090565b600f818154811061359b57fe5b906000526020600020016000915090505481565b6060600067ffffffffffffffff811180156135c957600080fd5b506040519080825280602002602001820160405280156135f85781602001602082028036833780820191505090505b506011908051906020019061360e929190615e15565b5060008090505b600c8054905081101561370e576000600c828154811061363157fe5b906000526020600020015490506009600082815260200190815260200160002060000160009054906101000a900473ffffffffffffffffffffffffffffffffffffffff1673ffffffffffffffffffffffffffffffffffffffff168473ffffffffffffffffffffffffffffffffffffffff161415613700576011600960008381526020019081526020016000206002015460096000848152602001908152602001600020600101540290806001815401808255809150506001900390600052602060002001600090919091909150555b508080600101915050613615565b5060008090505b6012805490508110156138155760006012828154811061373157fe5b90600052602060002001549050601a600082815260200190815260200160002060000160009054906101000a900473ffffffffffffffffffffffffffffffffffffffff1673ffffffffffffffffffffffffffffffffffffffff168473ffffffffffffffffffffffffffffffffffffffff161415613807576011601a600083815260200190815260200160002060020154601a600084815260200190815260200160002060010154816137df57fe5b0490806001815401808255809150506001900390600052602060002001600090919091909150555b508080600101915050613715565b50601180548060200260200160405190810160405280929190818152602001828054801561386257602002820191906000526020600020905b81548152602001906001019080831161384e575b50505050509050919050565b600260005414156138e7576040517f08c379a000000000000000000000000000000000000000000000000000000000815260040180806020018281038252601f8152602001807f5265656e7472616e637947756172643a207265656e7472616e742063616c6c0081525060200191505060405180910390fd5b600260008190555080600260009054906101000a900473ffffffffffffffffffffffffffffffffffffffff1673ffffffffffffffffffffffffffffffffffffffff166370a08231336040518263ffffffff1660e01b8152600401808273ffffffffffffffffffffffffffffffffffffffff1673ffffffffffffffffffffffffffffffffffffffff16815260200191505060206040518083038186803b15801561398f57600080fd5b505afa1580156139a3573d6000803e3d6000fd5b505050506040513d60208110156139b957600080fd5b810190808051906020019092919050505010156139d557600080fd5b600260009054906101000a900473ffffffffffffffffffffffffffffffffffffffff1673ffffffffffffffffffffffffffffffffffffffff166323b872dd3330846040518463ffffffff1660e01b8152600401808473ffffffffffffffffffffffffffffffffffffffff1673ffffffffffffffffffffffffffffffffffffffff1681526020018373ffffffffffffffffffffffffffffffffffffffff1673ffffffffffffffffffffffffffffffffffffffff1681526020018281526020019350505050602060405180830381600087803b158015613ab257600080fd5b505af1158015613ac6573d6000803e3d6000fd5b505050506040513d6020811015613adc57600080fd5b8101908080519060200190929190505050506000828281613af957fe5b04905060006001905060008090505b600c8054905081101561443a57600c8181548110613b2257fe5b9060005260206000200154600a8190555060096000600a548152602001908152602001600020600201546005819055506005548310158015613b6657506000600554115b1561442d57600091508460096000600a548152602001908152602001600020600101541115613dde5760008560096000600a548152602001908152602001600020600101540390508060096000600a54815260200190815260200160002060010181905550600260009054906101000a900473ffffffffffffffffffffffffffffffffffffffff1673ffffffffffffffffffffffffffffffffffffffff1663a9059cbb60096000600a54815260200190815260200160002060000160009054906101000a900473ffffffffffffffffffffffffffffffffffffffff16876040518363ffffffff1660e01b8152600401808373ffffffffffffffffffffffffffffffffffffffff1673ffffffffffffffffffffffffffffffffffffffff16815260200182815260200192505050602060405180830381600087803b158015613cac57600080fd5b505af1158015613cc0573d6000803e3d6000fd5b505050506040513d6020811015613cd657600080fd5b810190808051906020019092919050505050600360009054906101000a900473ffffffffffffffffffffffffffffffffffffffff1673ffffffffffffffffffffffffffffffffffffffff1663a9059cbb336005548881613d3257fe5b046040518363ffffffff1660e01b8152600401808373ffffffffffffffffffffffffffffffffffffffff1673ffffffffffffffffffffffffffffffffffffffff16815260200182815260200192505050602060405180830381600087803b158015613d9c57600080fd5b505af1158015613db0573d6000803e3d6000fd5b505050506040513d6020811015613dc657600080fd5b81019080805190602001909291905050505050614428565b8460096000600a5481526020019081526020016000206001015414156140da57600260009054906101000a900473ffffffffffffffffffffffffffffffffffffffff1673ffffffffffffffffffffffffffffffffffffffff1663a9059cbb60096000600a54815260200190815260200160002060000160009054906101000a900473ffffffffffffffffffffffffffffffffffffffff16866040518363ffffffff1660e01b8152600401808373ffffffffffffffffffffffffffffffffffffffff1673ffffffffffffffffffffffffffffffffffffffff16815260200182815260200192505050602060405180830381600087803b158015613edf57600080fd5b505af1158015613ef3573d6000803e3d6000fd5b505050506040513d6020811015613f0957600080fd5b810190808051906020019092919050505050600360009054906101000a900473ffffffffffffffffffffffffffffffffffffffff1673ffffffffffffffffffffffffffffffffffffffff1663a9059cbb336005548781613f6557fe5b046040518363ffffffff1660e01b8152600401808373ffffffffffffffffffffffffffffffffffffffff1673ffffffffffffffffffffffffffffffffffffffff16815260200182815260200192505050602060405180830381600087803b158015613fcf57600080fd5b505af1158015613fe3573d6000803e3d6000fd5b505050506040513d6020811015613ff957600080fd5b81019080805190602001909291905050505060096000600a548152602001908152602001600020600080820160006101000a81549073ffffffffffffffffffffffffffffffffffffffff021916905560018201600090556002820160009055505060008190505b6001600c80549050038110156140b357600c600182018154811061408057fe5b9060005260206000200154600c828154811061409857fe5b90600052602060002001819055508080600101915050614060565b50600c8054806140bf57fe5b60019003818190600052602060002001600090559055614427565b8460096000600a54815260200190815260200160002060010154101561442657600260009054906101000a900473ffffffffffffffffffffffffffffffffffffffff1673ffffffffffffffffffffffffffffffffffffffff1663a9059cbb60096000600a54815260200190815260200160002060000160009054906101000a900473ffffffffffffffffffffffffffffffffffffffff1660096000600a548152602001908152602001600020600101546040518363ffffffff1660e01b8152600401808373ffffffffffffffffffffffffffffffffffffffff1673ffffffffffffffffffffffffffffffffffffffff16815260200182815260200192505050602060405180830381600087803b1580156141f357600080fd5b505af1158015614207573d6000803e3d6000fd5b505050506040513d602081101561421d57600080fd5b810190808051906020019092919050505050600360009054906101000a900473ffffffffffffffffffffffffffffffffffffffff1673ffffffffffffffffffffffffffffffffffffffff1663a9059cbb3360055460096000600a548152602001908152602001600020600101548161429157fe5b046040518363ffffffff1660e01b8152600401808373ffffffffffffffffffffffffffffffffffffffff1673ffffffffffffffffffffffffffffffffffffffff16815260200182815260200192505050602060405180830381600087803b1580156142fb57600080fd5b505af115801561430f573d6000803e3d6000fd5b505050506040513d602081101561432557600080fd5b81019080805190602001909291905050505060096000600a548152602001908152602001600020600080820160006101000a81549073ffffffffffffffffffffffffffffffffffffffff021916905560018201600090556002820160009055505060008190505b6001600c80549050038110156143df57600c60018201815481106143ac57fe5b9060005260206000200154600c82815481106143c457fe5b9060005260206000200181905550808060010191505061438c565b50600c8054806143eb57fe5b600190038181906000526020600020016000905590556144258360096000600a548152602001908152602001600020600101548603615c33565b5b5b5b61443a565b8080600101915050613b08565b506000831180156144485750805b15614458576144578284615c33565b5b505060016000819055505050565b60045481565b60008090505b600c805490508110156146e0576000600c828154811061448e57fe5b906000526020600020015490506009600082815260200190815260200160002060000160009054906101000a900473ffffffffffffffffffffffffffffffffffffffff1673ffffffffffffffffffffffffffffffffffffffff163373ffffffffffffffffffffffffffffffffffffffff1614156146d257600360009054906101000a900473ffffffffffffffffffffffffffffffffffffffff1673ffffffffffffffffffffffffffffffffffffffff1663a9059cbb3360096000858152602001908152602001600020600101546040518363ffffffff1660e01b8152600401808373ffffffffffffffffffffffffffffffffffffffff1673ffffffffffffffffffffffffffffffffffffffff16815260200182815260200192505050602060405180830381600087803b1580156145c457600080fd5b505af11580156145d8573d6000803e3d6000fd5b505050506040513d60208110156145ee57600080fd5b81019080805190602001909291905050505060096000828152602001908152602001600020600080820160006101000a81549073ffffffffffffffffffffffffffffffffffffffff021916905560018201600090556002820160009055505060008290505b6001600c80549050038110156146a657600c600182018154811061467357fe5b9060005260206000200154600c828154811061468b57fe5b90600052602060002001819055508080600101915050614653565b50600c8054806146b257fe5b600190038181906000526020600020016000905590558180600190039250505b508080600101915050614472565b5060008090505b6012805490508110156149555760006012828154811061470357fe5b90600052602060002001549050601a600082815260200190815260200160002060000160009054906101000a900473ffffffffffffffffffffffffffffffffffffffff1673ffffffffffffffffffffffffffffffffffffffff163373ffffffffffffffffffffffffffffffffffffffff16141561494757600360009054906101000a900473ffffffffffffffffffffffffffffffffffffffff1673ffffffffffffffffffffffffffffffffffffffff1663a9059cbb33601a6000858152602001908152602001600020600101546040518363ffffffff1660e01b8152600401808373ffffffffffffffffffffffffffffffffffffffff1673ffffffffffffffffffffffffffffffffffffffff16815260200182815260200192505050602060405180830381600087803b15801561483957600080fd5b505af115801561484d573d6000803e3d6000fd5b505050506040513d602081101561486357600080fd5b810190808051906020019092919050505050601a6000828152602001908152602001600020600080820160006101000a81549073ffffffffffffffffffffffffffffffffffffffff021916905560018201600090556002820160009055505060008290505b60016012805490500381101561491b57601260018201815481106148e857fe5b90600052602060002001546012828154811061490057fe5b906000526020600020018190555080806001019150506148c8565b50601280548061492757fe5b600190038181906000526020600020016000905590558180600190039250505b5080806001019150506146e7565b50565b600260009054906101000a900473ffffffffffffffffffffffffffffffffffffffff1681565b60085481565b60066020528060005260406000206000915090508060000160009054906101000a900473ffffffffffffffffffffffffffffffffffffffff16908060010154908060020154905083565b600b5481565b60155481565b60186020528060005260406000206000915090508060000160009054906101000a900473ffffffffffffffffffffffffffffffffffffffff16908060010154908060020154905083565b60075481565b60175481565b6060600067ffffffffffffffff81118015614a4a57600080fd5b50604051908082528060200260200182016040528015614a795781602001602082028036833780820191505090505b5060109080519060200190614a8f929190615e15565b5060008090505b600d80549050811015614b96576000600d8281548110614ab257fe5b906000526020600020015490506006600082815260200190815260200160002060000160009054906101000a900473ffffffffffffffffffffffffffffffffffffffff1673ffffffffffffffffffffffffffffffffffffffff168473ffffffffffffffffffffffffffffffffffffffff161415614b885760106006600083815260200190815260200160002060020154600660008481526020019081526020016000206001015481614b6057fe5b0490806001815401808255809150506001900390600052602060002001600090919091909150555b508080600101915050614a96565b5060008090505b601380549050811015614c9657600060138281548110614bb957fe5b906000526020600020015490506018600082815260200190815260200160002060000160009054906101000a900473ffffffffffffffffffffffffffffffffffffffff1673ffffffffffffffffffffffffffffffffffffffff168473ffffffffffffffffffffffffffffffffffffffff161415614c88576010601860008381526020019081526020016000206002015460186000848152602001908152602001600020600101540290806001815401808255809150506001900390600052602060002001600090919091909150555b508080600101915050614b9d565b506010805480602002602001604051908101604052809291908181526020018280548015614ce357602002820191906000526020600020905b815481526020019060010190808311614ccf575b50505050509050919050565b600d8181548110614cfc57fe5b906000526020600020016000915090505481565b601b5481565b60128181548110614d2357fe5b906000526020600020016000915090505481565b60026000541415614db0576040517f08c379a000000000000000000000000000000000000000000000000000000000815260040180806020018281038252601f8152602001807f5265656e7472616e637947756172643a207265656e7472616e742063616c6c0081525060200191505060405180910390fd5b600260008190555080600360009054906101000a900473ffffffffffffffffffffffffffffffffffffffff1673ffffffffffffffffffffffffffffffffffffffff166370a08231336040518263ffffffff1660e01b8152600401808273ffffffffffffffffffffffffffffffffffffffff1673ffffffffffffffffffffffffffffffffffffffff16815260200191505060206040518083038186803b158015614e5857600080fd5b505afa158015614e6c573d6000803e3d6000fd5b505050506040513d6020811015614e8257600080fd5b81019080805190602001909291905050501015614e9e57600080fd5b600f819080600181540180825580915050600190039060005260206000200160009091909190915055600f829080600181540180825580915050600190039060005260206000200160009091909190915055600360009054906101000a900473ffffffffffffffffffffffffffffffffffffffff1673ffffffffffffffffffffffffffffffffffffffff166323b872dd3330846040518463ffffffff1660e01b8152600401808473ffffffffffffffffffffffffffffffffffffffff1673ffffffffffffffffffffffffffffffffffffffff1681526020018373ffffffffffffffffffffffffffffffffffffffff1673ffffffffffffffffffffffffffffffffffffffff1681526020018281526020019350505050602060405180830381600087803b158015614fcd57600080fd5b505af1158015614fe1573d6000803e3d6000fd5b505050506040513d6020811015614ff757600080fd5b810190808051906020019092919050505050600082828161501457fe5b04905060006001905060008090505b6013805490508110156159fe576013818154811061503d57fe5b906000526020600020015460078190555060186000600754815260200190815260200160002060020154601b81905550601b54831115801561508157506000601b54115b156159f15760009150846018600060075481526020019081526020016000206001015411156153a457600f601860006007548152602001908152602001600020600101549080600181540180825580915050600190039060005260206000200160009091909190915055600f849080600181540180825580915050600190039060005260206000200160009091909190915055600085601860006007548152602001908152602001600020600101540390508060186000600754815260200190815260200160002060010181905550600f601860006007548152602001908152602001600020600101549080600181540180825580915050600190039060005260206000200160009091909190915055600360009054906101000a900473ffffffffffffffffffffffffffffffffffffffff1673ffffffffffffffffffffffffffffffffffffffff1663a9059cbb60186000600754815260200190815260200160002060000160009054906101000a900473ffffffffffffffffffffffffffffffffffffffff16876040518363ffffffff1660e01b8152600401808373ffffffffffffffffffffffffffffffffffffffff1673ffffffffffffffffffffffffffffffffffffffff16815260200182815260200192505050602060405180830381600087803b15801561527257600080fd5b505af1158015615286573d6000803e3d6000fd5b505050506040513d602081101561529c57600080fd5b810190808051906020019092919050505050600260009054906101000a900473ffffffffffffffffffffffffffffffffffffffff1673ffffffffffffffffffffffffffffffffffffffff1663a9059cbb33601b5488816152f857fe5b046040518363ffffffff1660e01b8152600401808373ffffffffffffffffffffffffffffffffffffffff1673ffffffffffffffffffffffffffffffffffffffff16815260200182815260200192505050602060405180830381600087803b15801561536257600080fd5b505af1158015615376573d6000803e3d6000fd5b505050506040513d602081101561538c57600080fd5b810190808051906020019092919050505050506159ec565b846018600060075481526020019081526020016000206001015414156156a057600360009054906101000a900473ffffffffffffffffffffffffffffffffffffffff1673ffffffffffffffffffffffffffffffffffffffff1663a9059cbb60186000600754815260200190815260200160002060000160009054906101000a900473ffffffffffffffffffffffffffffffffffffffff16866040518363ffffffff1660e01b8152600401808373ffffffffffffffffffffffffffffffffffffffff1673ffffffffffffffffffffffffffffffffffffffff16815260200182815260200192505050602060405180830381600087803b1580156154a557600080fd5b505af11580156154b9573d6000803e3d6000fd5b505050506040513d60208110156154cf57600080fd5b810190808051906020019092919050505050600260009054906101000a900473ffffffffffffffffffffffffffffffffffffffff1673ffffffffffffffffffffffffffffffffffffffff1663a9059cbb33601b54878161552b57fe5b046040518363ffffffff1660e01b8152600401808373ffffffffffffffffffffffffffffffffffffffff1673ffffffffffffffffffffffffffffffffffffffff16815260200182815260200192505050602060405180830381600087803b15801561559557600080fd5b505af11580156155a9573d6000803e3d6000fd5b505050506040513d60208110156155bf57600080fd5b810190808051906020019092919050505050601860006007548152602001908152602001600020600080820160006101000a81549073ffffffffffffffffffffffffffffffffffffffff021916905560018201600090556002820160009055505060008190505b600160138054905003811015615679576013600182018154811061564657fe5b90600052602060002001546013828154811061565e57fe5b90600052602060002001819055508080600101915050615626565b50601380548061568557fe5b600190038181906000526020600020016000905590556159eb565b846018600060075481526020019081526020016000206001015410156159ea57600360009054906101000a900473ffffffffffffffffffffffffffffffffffffffff1673ffffffffffffffffffffffffffffffffffffffff1663a9059cbb60186000600754815260200190815260200160002060000160009054906101000a900473ffffffffffffffffffffffffffffffffffffffff16601860006007548152602001908152602001600020600101546040518363ffffffff1660e01b8152600401808373ffffffffffffffffffffffffffffffffffffffff1673ffffffffffffffffffffffffffffffffffffffff16815260200182815260200192505050602060405180830381600087803b1580156157b957600080fd5b505af11580156157cd573d6000803e3d6000fd5b505050506040513d60208110156157e357600080fd5b810190808051906020019092919050505050600260009054906101000a900473ffffffffffffffffffffffffffffffffffffffff1673ffffffffffffffffffffffffffffffffffffffff1663a9059cbb33601b54601860006007548152602001908152602001600020600101548161585757fe5b046040518363ffffffff1660e01b8152600401808373ffffffffffffffffffffffffffffffffffffffff1673ffffffffffffffffffffffffffffffffffffffff16815260200182815260200192505050602060405180830381600087803b1580156158c157600080fd5b505af11580156158d5573d6000803e3d6000fd5b505050506040513d60208110156158eb57600080fd5b810190808051906020019092919050505050601860006007548152602001908152602001600020600080820160006101000a81549073ffffffffffffffffffffffffffffffffffffffff021916905560018201600090556002820160009055505060008190505b6001601380549050038110156159a5576013600182018154811061597257fe5b90600052602060002001546013828154811061598a57fe5b90600052602060002001819055508080600101915050615952565b5060138054806159b157fe5b600190038181906000526020600020016000905590556159d18385615d24565b8260186000600754815260200190815260200160002050505b5b5b6159fe565b8080600101915050615023565b50600083118015615a0c5750805b15615a1c57615a1b8284615d24565b5b505060016000819055505050565b600c8181548110615a3757fe5b906000526020600020016000915090505481565b60195481565b60008211615a5e57600080fd5b60016016600082825401925050819055506013601654908060018154018082558091505060019003906000526020600020016000909190919091505560405180606001604052803373ffffffffffffffffffffffffffffffffffffffff1681526020018281526020018381525060186000601654815260200190815260200160002060008201518160000160006101000a81548173ffffffffffffffffffffffffffffffffffffffff021916908373ffffffffffffffffffffffffffffffffffffffff16021790555060208201518160010155604082015181600201559050505050565b60008211615b4f57600080fd5b6001600860008282540192505081905550600c600854908060018154018082558091505060019003906000526020600020016000909190919091505560405180606001604052803373ffffffffffffffffffffffffffffffffffffffff1681526020018281526020018381525060096000600854815260200190815260200160002060008201518160000160006101000a81548173ffffffffffffffffffffffffffffffffffffffff021916908373ffffffffffffffffffffffffffffffffffffffff16021790555060208201518160010155604082015181600201559050505050565b60008211615c4057600080fd5b6001600460008282540192505081905550600d600454908060018154018082558091505060019003906000526020600020016000909190919091505560405180606001604052803373ffffffffffffffffffffffffffffffffffffffff1681526020018281526020018381525060066000600454815260200190815260200160002060008201518160000160006101000a81548173ffffffffffffffffffffffffffffffffffffffff021916908373ffffffffffffffffffffffffffffffffffffffff16021790555060208201518160010155604082015181600201559050505050565b60008211615d3157600080fd5b60016019600082825401925050819055506012601954908060018154018082558091505060019003906000526020600020016000909190919091505560405180606001604052803373ffffffffffffffffffffffffffffffffffffffff16815260200182815260200183815250601a6000601954815260200190815260200160002060008201518160000160006101000a81548173ffffffffffffffffffffffffffffffffffffffff021916908373ffffffffffffffffffffffffffffffffffffffff16021790555060208201518160010155604082015181600201559050505050565b828054828255906000526020600020908101928215615e51579160200282015b82811115615e50578251825591602001919060010190615e35565b5b509050615e5e9190615e62565b5090565b615e8491905b80821115615e80576000816000905550600101615e68565b5090565b9056fea264697066735822122021fda7e90f3702cab8d423270ec57a07d31488bd3af8a3b559b826f5f913db0464736f6c63430006080033",
  "immutableReferences": {},
  "source": "// SPDX-License-Identifier: MIT\n\npragma solidity >=0.6.8;\n\nimport \"./AToken.sol\";\nimport \"./BToken.sol\";\nimport {ITokenSwap} from \"./interfaces/ITokenSwap.sol\";\nimport {ReentrancyGuard} from \"@openzeppelin/contracts/utils/ReentrancyGuard.sol\";\nimport {SafeMath} from \"@openzeppelin/contracts/math/SafeMath.sol\";\nimport {Math} from \"@openzeppelin/contracts/math/Math.sol\";\n\ncontract TokenSwap is ITokenSwap, ReentrancyGuard {\n    using SafeMath for uint256;\n    using SafeMath for uint8;\n    using Math for uint256;\n\n    string public name = \"TokenSwap Exchange\";\n    AToken public aToken;\n    // uint256 public aRate = 1000;\n    BToken public bToken;\n\n    // uint256 public bRate = 1000;\n\n    constructor(AToken _aToken, BToken _bToken) public {\n        //pass the address of the Token in\n        aToken = _aToken;\n        bToken = _bToken;\n    }\n\n    // function buyATokens() public payable {\n    //     // Calculate the number of tokens to buy\n    //     uint256 tokenAmount = msg.value * aRate; //msg.value = how much ether was sent\n\n    //     // Require that TokenSwap has enough tokens\n    //     require(aToken.balanceOf(address(this)) >= tokenAmount);\n\n    //     // Transfer tokens to the user\n    //     aToken.transfer(msg.sender, tokenAmount);\n\n    //     // // emit an event\n    //     // emit TokensPurchased(msg.sender, address(aToken), tokenAmount, aRate);\n    // }\n\n    // function sellATokens(uint256 _amount) public {\n    //     // User can't sell more tokens than they have\n    //     require(aToken.balanceOf(msg.sender) >= _amount);\n\n    //     // Calculate the amount of Ether to redeem\n    //     uint256 etherAmount = _amount / aRate;\n\n    //     // Require that TokenSwap has enough Ether\n    //     require(address(this).balance >= etherAmount);\n\n    //     // Perform sale\n    //     aToken.transferFrom(msg.sender, address(this), _amount);\n    //     msg.sender.transfer(etherAmount);\n\n    //     // // emit an event\n    //     // emit TokensSold(msg.sender, address(aToken), _amount, aRate);\n    // }\n\n    // function buyBTokens() public payable {\n    //     // Calculate the number of tokens to buy\n    //     uint256 tokenAmount = msg.value * bRate; //msg.value = how much ether was sent\n\n    //     // Require that TokenSwap has enough tokens\n    //     require(bToken.balanceOf(address(this)) >= tokenAmount);\n\n    //     // Transfer tokens to the user\n    //     bToken.transfer(msg.sender, tokenAmount);\n\n    //     // // emit an event\n    //     // emit TokensPurchased(msg.sender, address(bToken), tokenAmount, bRate);\n    // }\n\n    // function sellBTokens(uint256 _amount) public {\n    //     // User can't sell more tokens than they have\n    //     require(bToken.balanceOf(msg.sender) >= _amount);\n\n    //     // Calculate the amount of Ether to redeem\n    //     uint256 etherAmount = _amount / bRate;\n\n    //     // Require that TokenSwap has enough Ether\n    //     require(address(this).balance >= etherAmount);\n\n    //     // Perform sale\n    //     bToken.transferFrom(msg.sender, address(this), _amount);\n    //     msg.sender.transfer(etherAmount);\n\n    //     // // emit an event\n    //     // emit TokensSold(msg.sender, address(bToken), _amount, bRate);\n    // }\n\n    ///////////////////////////////////////////////////////////////////////// ORDERBOOK //////////////////////////////////////////////////////////////////////////////////////////\n\n    uint256 public buyCounter = 0;\n    uint256 public minSellRate;\n    mapping(uint256 => NewOrder) public newBuyOrderBook;\n    uint256 public idOfBuyRate;\n\n    uint256 public sellCounter = 0;\n    mapping(uint256 => NewOrder) public newSellOrderBook;\n    uint256 public idOfSellRate;\n    uint256 public maxBuyRate;\n\n    uint256[] public sellrateid;\n    uint256[] public buyrateid;\n\n    uint256[] public amountsell;\n    uint256[] public amountbuy;\n\n    uint256[] buyorderbookArray;\n    uint256[] sellorderbookArray;\n\n    ////////////////////////////////////\n    uint256[] public sellrateidInv;\n    uint256[] public buyrateidInv;\n\n    uint256 public idOfBuyRateInv;\n    uint256 public idOfSellRateInv;\n\n    uint256 public buyCounterInv = 0;\n    uint256 public maxSellRate;\n    mapping(uint256 => NewOrder) public newBuyOrderBookInv;\n\n    uint256 public sellCounterInv = 0;\n    mapping(uint256 => NewOrder) public newSellOrderBookInv;\n    uint256 public minBuyRate;\n\n    ////////////////////////////////////\n\n    function getbuyrate() public returns (uint256[] memory) {\n        return buyrateid;\n    }\n\n    function getsellrate() public returns (uint256[] memory) {\n        return sellrateid;\n    }\n\n    function getbuyrateInv() public returns (uint256[] memory) {\n        return buyrateidInv;\n    }\n\n    function getsellrateInv() public returns (uint256[] memory) {\n        return sellrateidInv;\n    }\n\n    //buy B using A\n    function atob(uint256 b, uint256 a) external override nonReentrant {\n        require(aToken.balanceOf(msg.sender) >= a);\n\n        aToken.transferFrom(msg.sender, address(this), a);\n        // emit ATokensSent(msg.sender, address(this),a);\n        uint256 rate = a / b;\n        bool toAdd = true;\n\n        for (uint256 i = 0; i < sellrateid.length; i++) {\n            idOfSellRate = sellrateid[i];\n            minSellRate = newSellOrderBook[idOfSellRate].rate;\n\n            if (rate >= minSellRate && minSellRate > 0) {\n                //give best order\n                toAdd = false;\n                if (newSellOrderBook[idOfSellRate].amount > b) {\n                    uint256 newAmount = newSellOrderBook[idOfSellRate].amount -\n                        b;\n                    newSellOrderBook[idOfSellRate].amount = newAmount; //replace old amount with new\n                    // transfer\n                    aToken.transfer(newSellOrderBook[idOfSellRate].maker, a);\n                    bToken.transfer(msg.sender, a / minSellRate);\n                    // emit ATokensSent( address(this), newSellOrderBook[idOfSellRate].maker, a);\n                    // emit BTokensSent( address(this), msg.sender,a / minSellRate);\n                } else if (newSellOrderBook[idOfSellRate].amount == b) {\n                    // transfer\n                    aToken.transfer(newSellOrderBook[idOfSellRate].maker, a);\n                    bToken.transfer(msg.sender, a / minSellRate);\n                    // emit ATokensSent( address(this), newSellOrderBook[idOfSellRate].maker, a);\n                    // emit BTokensSent( address(this), msg.sender,a / minSellRate);\n                    // update the minSellRate\n                    delete newSellOrderBook[idOfSellRate];\n                    for (uint256 j = i; j < sellrateid.length - 1; j++) {\n                        sellrateid[j] = sellrateid[j + 1];\n                    }\n                    sellrateid.pop();\n                } else if (newSellOrderBook[idOfSellRate].amount < b) {\n                    aToken.transfer(\n                        newSellOrderBook[idOfSellRate].maker,\n                        newSellOrderBook[idOfSellRate].amount\n                    );\n                    bToken.transfer(\n                        msg.sender,\n                        newSellOrderBook[idOfSellRate].amount / minSellRate\n                    );\n                    // emit ATokensSent( address(this), newSellOrderBook[idOfSellRate].maker, newSellOrderBook[idOfSellRate].amount);\n                    // emit BTokensSent( address(this), msg.sender,newSellOrderBook[idOfSellRate].amount / minSellRate);\n\n                    delete newSellOrderBook[idOfSellRate];\n                    for (uint256 j = i; j < sellrateid.length - 1; j++) {\n                        sellrateid[j] = sellrateid[j + 1];\n                    }\n                    sellrateid.pop();\n                    _atobBook(rate, a - newSellOrderBook[idOfSellRate].amount);\n                }\n                break;\n            }\n        }\n\n        if (a > 0 && toAdd) {\n            _atobBook(rate, a);\n        }\n    }\n\n    function atobInverseRate(uint256 b, uint256 a)\n        external\n        override\n        nonReentrant\n    {\n        require(aToken.balanceOf(msg.sender) >= a, \"hello error here atob\");\n\n        aToken.transferFrom(msg.sender, address(this), a);\n        // emit ATokensSent(msg.sender, address(this),a);\n\n        uint256 rate = b / a;\n        bool toAdd = true;\n\n        for (uint256 i = 0; i < sellrateidInv.length; i++) {\n            idOfSellRate = sellrateidInv[i];\n            maxSellRate = newSellOrderBookInv[idOfSellRate].rate;\n\n            if (rate >= maxSellRate && maxSellRate > 0) {\n                //give best order\n                toAdd = false;\n                if (newSellOrderBookInv[idOfSellRate].amount > b) {\n                    uint256 newAmount = newSellOrderBookInv[idOfSellRate]\n                        .amount - b;\n                    newSellOrderBookInv[idOfSellRate].amount = newAmount; //replace old amount with new\n                    // transfer\n                    aToken.transfer(newSellOrderBookInv[idOfSellRate].maker, a);\n                    bToken.transfer(msg.sender, a * maxSellRate);\n                    // emit ATokensSent( address(this), newSellOrderBookInv[idOfSellRate].maker, a);\n                    // emit BTokensSent( address(this), msg.sender,a / maxSellRate);\n                } else if (newSellOrderBookInv[idOfSellRate].amount == b) {\n                    // transfer\n                    aToken.transfer(newSellOrderBookInv[idOfSellRate].maker, a);\n                    bToken.transfer(msg.sender, a * maxSellRate);\n                    // emit ATokensSent( address(this), newSellOrderBookInv[idOfSellRate].maker, a);\n                    // emit BTokensSent( address(this), msg.sender,a / maxSellRate);\n\n                    delete newSellOrderBookInv[idOfSellRate];\n                    for (uint256 j = i; j < sellrateidInv.length - 1; j++) {\n                        sellrateidInv[j] = sellrateidInv[j + 1];\n                    }\n                    sellrateidInv.pop();\n                } else if (newSellOrderBookInv[idOfSellRate].amount < b) {\n                    aToken.transfer(\n                        newSellOrderBookInv[idOfSellRate].maker,\n                        newSellOrderBookInv[idOfSellRate].amount\n                    );\n                    bToken.transfer(\n                        msg.sender,\n                        newSellOrderBookInv[idOfSellRate].amount * maxSellRate\n                    );\n                    // emit ATokensSent( address(this), newSellOrderBookInv[idOfSellRate].maker, newSellOrderBookInv[idOfSellRate].amount);\n                    // emit BTokensSent( address(this), msg.sender,newSellOrderBookInv[idOfSellRate].amount / maxSellRate);\n\n                    delete newSellOrderBookInv[idOfSellRate];\n                    for (uint256 j = i; j < sellrateidInv.length - 1; j++) {\n                        sellrateidInv[j] = sellrateidInv[j + 1];\n                    }\n                    sellrateidInv.pop();\n                    _atobBookInv(\n                        rate,\n                        a - newSellOrderBookInv[idOfSellRate].amount\n                    );\n                }\n                break;\n            }\n        }\n\n        if (a > 0 && toAdd) {\n            _atobBookInv(rate, a);\n        }\n    }\n\n    function _atobBook(uint256 rate, uint256 a) internal {\n        require(rate > 0);\n        buyCounter += 1;\n        buyrateid.push(buyCounter);\n        newBuyOrderBook[buyCounter] = NewOrder(msg.sender, a, rate);\n    }\n\n    function _atobBookInv(uint256 rate, uint256 a) internal {\n        require(rate > 0);\n        buyCounterInv += 1;\n        buyrateidInv.push(buyCounterInv);\n        newBuyOrderBookInv[buyCounterInv] = NewOrder(msg.sender, a, rate);\n    }\n\n    // buy A using b\n    function btoa(uint256 a, uint256 b) external override nonReentrant {\n        require(bToken.balanceOf(msg.sender) >= b);\n        amountbuy.push(b);\n        amountbuy.push(a);\n        bToken.transferFrom(msg.sender, address(this), b);\n        // emit BTokensSent(msg.sender, address(this),b);\n\n        uint256 rate = a / b;\n        bool toAdd = true;\n\n        for (uint256 i = 0; i < buyrateid.length; i++) {\n            idOfBuyRate = buyrateid[i];\n            maxBuyRate = newBuyOrderBook[idOfBuyRate].rate;\n            if (rate <= maxBuyRate && maxBuyRate > 0) {\n                toAdd = false;\n                if (newBuyOrderBook[idOfBuyRate].amount > a) {\n                    //calculate new b amount\n                    uint256 brequired = newBuyOrderBook[idOfBuyRate].amount /\n                        newBuyOrderBook[idOfBuyRate].rate;\n                    if (brequired < b) {\n                        bToken.transfer(\n                            newBuyOrderBook[idOfBuyRate].maker,\n                            brequired\n                        );\n                        aToken.transfer(msg.sender, brequired * maxBuyRate);\n                        delete newBuyOrderBook[idOfBuyRate];\n                        for (uint256 j = i; j < buyrateid.length - 1; j++) {\n                            buyrateid[j] = buyrateid[j + 1];\n                        }\n                        buyrateid.pop();\n                        _btoaBook(rate, b - brequired);\n                    } else if (brequired > b) {\n                        bToken.transfer(newBuyOrderBook[idOfBuyRate].maker, b);\n                        aToken.transfer(msg.sender, b * maxBuyRate);\n                        //calculate new a amount\n                        uint256 newAmount = newBuyOrderBook[idOfBuyRate]\n                            .amount - b * maxBuyRate;\n                        newBuyOrderBook[idOfBuyRate].amount = newAmount; //replace old amount with new\n                    } else {\n                        bToken.transfer(newBuyOrderBook[idOfBuyRate].maker, b);\n                        aToken.transfer(msg.sender, b * maxBuyRate);\n\n                        delete newBuyOrderBook[idOfBuyRate];\n                        for (uint256 j = i; j < buyrateid.length - 1; j++) {\n                            buyrateid[j] = buyrateid[j + 1];\n                        }\n                        buyrateid.pop();\n                    }\n                } else if (newBuyOrderBook[idOfBuyRate].amount == a) {\n                    uint256 brequired = newBuyOrderBook[idOfBuyRate].amount /\n                        newBuyOrderBook[idOfBuyRate].rate;\n\n                    if (brequired < b) {\n                        bToken.transfer(\n                            newBuyOrderBook[idOfBuyRate].maker,\n                            brequired\n                        );\n                        aToken.transfer(msg.sender, brequired * maxBuyRate);\n                        _btoaBook(rate, b - brequired);\n                        delete newBuyOrderBook[idOfBuyRate];\n                        for (uint256 j = i; j < buyrateid.length - 1; j++) {\n                            buyrateid[j] = buyrateid[j + 1];\n                        }\n                        buyrateid.pop();\n                    } else if (b == brequired) {\n                        bToken.transfer(newBuyOrderBook[idOfBuyRate].maker, b);\n                        aToken.transfer(msg.sender, b * maxBuyRate);\n\n                        delete newBuyOrderBook[idOfBuyRate];\n                        for (uint256 j = i; j < buyrateid.length - 1; j++) {\n                            buyrateid[j] = buyrateid[j + 1];\n                        }\n                        buyrateid.pop();\n                    }\n                } else if (newBuyOrderBook[idOfBuyRate].amount < a) {\n                    uint256 brequired = newBuyOrderBook[idOfBuyRate].amount /\n                        newBuyOrderBook[idOfBuyRate].rate;\n\n                    if (brequired < b) {\n                        if (brequired < b) {\n                            bToken.transfer(\n                                newBuyOrderBook[idOfBuyRate].maker,\n                                brequired\n                            );\n                            aToken.transfer(msg.sender, brequired * maxBuyRate);\n                            _btoaBook(rate, b - brequired);\n                            delete newBuyOrderBook[idOfBuyRate];\n                            for (uint256 j = i; j < buyrateid.length - 1; j++) {\n                                buyrateid[j] = buyrateid[j + 1];\n                            }\n                            buyrateid.pop();\n                        }\n                    }\n                }\n                break;\n            }\n        }\n\n        if (b > 0 && toAdd) {\n            _btoaBook(rate, b);\n        }\n    }\n\n    function btoaInverseRate(uint256 a, uint256 b)\n        external\n        override\n        nonReentrant\n    {\n        require(bToken.balanceOf(msg.sender) >= b);\n        amountbuy.push(b);\n        amountbuy.push(a);\n        bToken.transferFrom(msg.sender, address(this), b);\n        // emit BTokensSent(msg.sender, address(this),b);\n\n        uint256 rate = b / a;\n        bool toAdd = true;\n\n        for (uint256 i = 0; i < buyrateidInv.length; i++) {\n            idOfBuyRate = buyrateidInv[i];\n            minBuyRate = newBuyOrderBookInv[idOfBuyRate].rate;\n\n            if (rate <= minBuyRate && minBuyRate > 0) {\n                toAdd = false;\n                if (newBuyOrderBookInv[idOfBuyRate].amount > a) {\n                    amountbuy.push(newBuyOrderBookInv[idOfBuyRate].amount);\n                    amountbuy.push(b);\n                    uint256 newAmount = newBuyOrderBookInv[idOfBuyRate].amount -\n                        a;\n                    newBuyOrderBookInv[idOfBuyRate].amount = newAmount; //replace old amount with new\n                    amountbuy.push(newBuyOrderBookInv[idOfBuyRate].amount);\n                    // transfer\n                    bToken.transfer(newBuyOrderBookInv[idOfBuyRate].maker, b);\n                    aToken.transfer(msg.sender, b / minBuyRate);\n\n                    // emit BTokensSent( address(this), newBuyOrderBookInv[idOfBuyRate].maker,b);\n                    // emit ATokensSent( address(this), msg.sender,b * maxBuyRate);\n                } else if (newBuyOrderBookInv[idOfBuyRate].amount == a) {\n                    // transfer\n                    bToken.transfer(newBuyOrderBookInv[idOfBuyRate].maker, b);\n                    aToken.transfer(msg.sender, b / minBuyRate);\n\n                    // emit BTokensSent( address(this), newBuyOrderBookInv[idOfBuyRate].maker,b);\n                    // emit ATokensSent( address(this), msg.sender,b * maxBuyRate);\n                    // update the minSellRate\n                    delete newBuyOrderBookInv[idOfBuyRate];\n                    for (uint256 j = i; j < buyrateidInv.length - 1; j++) {\n                        buyrateidInv[j] = buyrateidInv[j + 1];\n                    }\n                    buyrateidInv.pop();\n                } else if (newBuyOrderBookInv[idOfBuyRate].amount < a) {\n                    bToken.transfer(\n                        newBuyOrderBookInv[idOfBuyRate].maker,\n                        newBuyOrderBookInv[idOfBuyRate].amount\n                    );\n                    aToken.transfer(\n                        msg.sender,\n                        newBuyOrderBookInv[idOfBuyRate].amount / minBuyRate\n                    );\n                    // emit BTokensSent( address(this), newBuyOrderBookInv[idOfBuyRate].maker, newBuyOrderBookInv[idOfBuyRate].amount);\n                    // emit ATokensSent( address(this), msg.sender,newBuyOrderBookInv[idOfBuyRate].amount * maxBuyRate);\n\n                    delete newBuyOrderBookInv[idOfBuyRate];\n                    for (uint256 j = i; j < buyrateidInv.length - 1; j++) {\n                        buyrateidInv[j] = buyrateidInv[j + 1];\n                    }\n                    buyrateidInv.pop();\n                    _btoaBookInv(rate, b);\n                    (rate, b - newBuyOrderBookInv[idOfBuyRate].amount);\n                }\n                break;\n            }\n        }\n\n        if (b > 0 && toAdd) {\n            _btoaBookInv(rate, b);\n        }\n    }\n\n    function _btoaBookInv(uint256 rate, uint256 b) internal {\n        require(rate > 0);\n        sellCounterInv += 1;\n        sellrateidInv.push(sellCounterInv);\n        newSellOrderBookInv[sellCounterInv] = NewOrder(msg.sender, b, rate);\n        // // emit DrawToSellBook(msg.sender, rate, amountSold);\n    }\n\n    function _btoaBook(uint256 rate, uint256 b) internal {\n        require(rate > 0);\n        sellCounter += 1;\n        sellrateid.push(sellCounter);\n        newSellOrderBook[sellCounter] = NewOrder(msg.sender, b, rate);\n        // // emit DrawToSellBook(msg.sender, rate, amountSold);\n    }\n\n    ////////////////////////////////////////////////////////////////////////////////////////////// delete orders  ///////////////////////////////////////////////////////////////////////////////////////////////\n\n    function deleteBuyOrders() public {\n        for (uint256 i = 0; i < buyrateid.length; i++) {\n            uint256 key = buyrateid[i];\n            if (msg.sender == newBuyOrderBook[key].maker) {\n                aToken.transfer(msg.sender, newBuyOrderBook[key].amount);\n                delete newBuyOrderBook[key];\n                for (uint256 j = i; j < buyrateid.length - 1; j++) {\n                    buyrateid[j] = buyrateid[j + 1];\n                }\n                buyrateid.pop();\n                i--;\n            }\n        }\n\n        for (uint256 i = 0; i < buyrateidInv.length; i++) {\n            uint256 key = buyrateidInv[i];\n            if (msg.sender == newBuyOrderBookInv[key].maker) {\n                aToken.transfer(msg.sender, newBuyOrderBookInv[key].amount);\n                delete newBuyOrderBookInv[key];\n                for (uint256 j = i; j < buyrateidInv.length - 1; j++) {\n                    buyrateidInv[j] = buyrateidInv[j + 1];\n                }\n                buyrateidInv.pop();\n                i--;\n            }\n        }\n    }\n\n    function deleteSellOrders() public {\n        for (uint256 i = 0; i < sellrateid.length; i++) {\n            uint256 key = sellrateid[i];\n            if (msg.sender == newSellOrderBook[key].maker) {\n                bToken.transfer(msg.sender, newSellOrderBook[key].amount);\n                delete newSellOrderBook[key];\n                for (uint256 j = i; j < sellrateid.length - 1; j++) {\n                    sellrateid[j] = sellrateid[j + 1];\n                }\n                sellrateid.pop();\n                i--;\n            }\n        }\n\n        for (uint256 i = 0; i < sellrateidInv.length; i++) {\n            uint256 key = sellrateidInv[i];\n            if (msg.sender == newSellOrderBookInv[key].maker) {\n                bToken.transfer(msg.sender, newSellOrderBookInv[key].amount);\n                delete newSellOrderBookInv[key];\n                for (uint256 j = i; j < sellrateidInv.length - 1; j++) {\n                    sellrateidInv[j] = sellrateidInv[j + 1];\n                }\n                sellrateidInv.pop();\n                i--;\n            }\n        }\n    }\n\n    ////////////////////////////////////////////////////////////////////////////////////////////// display orderbooks ///////////////////////////////////////////////////////////////////////////////////////////////\n    function getBuyOrderBook(address account)\n        public\n        returns (uint256[] memory)\n    {\n        buyorderbookArray = new uint256[](0);\n        for (uint256 i = 0; i < buyrateid.length; i++) {\n            uint256 key = buyrateid[i];\n            if (account == newBuyOrderBook[key].maker) {\n                buyorderbookArray.push(\n                    newBuyOrderBook[key].amount / newBuyOrderBook[key].rate\n                );\n            }\n        }\n\n        for (uint256 j = 0; j < buyrateidInv.length; j++) {\n            uint256 key = buyrateidInv[j];\n            if (account == newBuyOrderBookInv[key].maker) {\n                buyorderbookArray.push(\n                    newBuyOrderBookInv[key].amount *\n                        newBuyOrderBookInv[key].rate\n                );\n            }\n        }\n\n        return buyorderbookArray;\n    }\n\n    function getSellOrderBook(address account)\n        public\n        returns (uint256[] memory)\n    {\n        sellorderbookArray = new uint256[](0);\n        for (uint256 i = 0; i < sellrateid.length; i++) {\n            uint256 key = sellrateid[i];\n            if (account == newSellOrderBook[key].maker) {\n                sellorderbookArray.push(\n                    newSellOrderBook[key].amount * newSellOrderBook[key].rate\n                );\n            }\n        }\n\n        for (uint256 i = 0; i < sellrateidInv.length; i++) {\n            uint256 key = sellrateidInv[i];\n            if (account == newSellOrderBookInv[key].maker) {\n                sellorderbookArray.push(\n                    newSellOrderBookInv[key].amount /\n                        newSellOrderBookInv[key].rate\n                );\n            }\n        }\n\n        return sellorderbookArray;\n    }\n}\n",
  "sourcePath": "/Users/weerenteo/Desktop/Dex/Blockchain-DEX/src/contracts/TokenSwap.sol",
  "compiler": {
    "name": "solc",
    "version": "0.6.8+commit.0bbfe453.Emscripten.clang"
  },
  "schemaVersion": "3.4.10",
  "updatedAt": "2022-11-05T10:26:15.195Z",
  "networkType": "ethereum",
  "devdoc": {
    "methods": {}
  },
  "userdoc": {
    "methods": {
      "deleteBuyOrders()": {
        "notice": "/////////////////////////////////////////////////////////////////////////////////////////// delete orders  ///////////////////////////////////////////////////////////////////////////////////////////////"
      },
      "getBuyOrderBook(address)": {
        "notice": "/////////////////////////////////////////////////////////////////////////////////////////// display orderbooks ///////////////////////////////////////////////////////////////////////////////////////////////"
      },
      "getbuyrate()": {
        "notice": "/////////////////////////////////"
      }
    }
  }
}