{
  "contractName": "TokenSwap",
  "abi": [
    {
      "inputs": [
        {
          "internalType": "contract AToken",
          "name": "_aToken",
          "type": "address"
        },
        {
          "internalType": "contract BToken",
          "name": "_bToken",
          "type": "address"
        }
      ],
      "stateMutability": "nonpayable",
      "type": "constructor"
    },
    {
      "anonymous": false,
      "inputs": [
        {
          "indexed": false,
          "internalType": "address",
          "name": "accountSent",
          "type": "address"
        },
        {
          "indexed": false,
          "internalType": "address",
          "name": "accountReceived",
          "type": "address"
        },
        {
          "indexed": false,
          "internalType": "uint256",
          "name": "amount",
          "type": "uint256"
        }
      ],
      "name": "ATokensSent",
      "type": "event"
    },
    {
      "anonymous": false,
      "inputs": [
        {
          "indexed": false,
          "internalType": "address",
          "name": "account",
          "type": "address"
        },
        {
          "indexed": false,
          "internalType": "address",
          "name": "token",
          "type": "address"
        },
        {
          "indexed": false,
          "internalType": "uint256",
          "name": "amount",
          "type": "uint256"
        },
        {
          "indexed": false,
          "internalType": "uint256",
          "name": "rate",
          "type": "uint256"
        }
      ],
      "name": "BTokensPurchased",
      "type": "event"
    },
    {
      "anonymous": false,
      "inputs": [
        {
          "indexed": false,
          "internalType": "address",
          "name": "accountSent",
          "type": "address"
        },
        {
          "indexed": false,
          "internalType": "address",
          "name": "accountReceived",
          "type": "address"
        },
        {
          "indexed": false,
          "internalType": "uint256",
          "name": "amount",
          "type": "uint256"
        }
      ],
      "name": "BTokensSent",
      "type": "event"
    },
    {
      "anonymous": false,
      "inputs": [
        {
          "indexed": false,
          "internalType": "address",
          "name": "account",
          "type": "address"
        },
        {
          "indexed": false,
          "internalType": "address",
          "name": "token",
          "type": "address"
        },
        {
          "indexed": false,
          "internalType": "uint256",
          "name": "amount",
          "type": "uint256"
        },
        {
          "indexed": false,
          "internalType": "uint256",
          "name": "rate",
          "type": "uint256"
        }
      ],
      "name": "BTokensSold",
      "type": "event"
    },
    {
      "anonymous": false,
      "inputs": [
        {
          "indexed": false,
          "internalType": "address",
          "name": "account",
          "type": "address"
        },
        {
          "indexed": false,
          "internalType": "address",
          "name": "token",
          "type": "address"
        },
        {
          "indexed": false,
          "internalType": "uint256",
          "name": "amount",
          "type": "uint256"
        },
        {
          "indexed": false,
          "internalType": "uint256",
          "name": "rate",
          "type": "uint256"
        }
      ],
      "name": "TokensPurchased",
      "type": "event"
    },
    {
      "anonymous": false,
      "inputs": [
        {
          "indexed": false,
          "internalType": "address",
          "name": "account",
          "type": "address"
        },
        {
          "indexed": false,
          "internalType": "address",
          "name": "token",
          "type": "address"
        },
        {
          "indexed": false,
          "internalType": "uint256",
          "name": "amount",
          "type": "uint256"
        },
        {
          "indexed": false,
          "internalType": "uint256",
          "name": "rate",
          "type": "uint256"
        }
      ],
      "name": "TokensSold",
      "type": "event"
    },
    {
      "inputs": [],
      "name": "aRate",
      "outputs": [
        {
          "internalType": "uint256",
          "name": "",
          "type": "uint256"
        }
      ],
      "stateMutability": "view",
      "type": "function",
      "constant": true
    },
    {
      "inputs": [],
      "name": "aToken",
      "outputs": [
        {
          "internalType": "contract AToken",
          "name": "",
          "type": "address"
        }
      ],
      "stateMutability": "view",
      "type": "function",
      "constant": true
    },
    {
      "inputs": [
        {
          "internalType": "uint256",
          "name": "",
          "type": "uint256"
        }
      ],
      "name": "amountbuy",
      "outputs": [
        {
          "internalType": "uint256",
          "name": "",
          "type": "uint256"
        }
      ],
      "stateMutability": "view",
      "type": "function",
      "constant": true
    },
    {
      "inputs": [
        {
          "internalType": "uint256",
          "name": "",
          "type": "uint256"
        }
      ],
      "name": "amountsell",
      "outputs": [
        {
          "internalType": "uint256",
          "name": "",
          "type": "uint256"
        }
      ],
      "stateMutability": "view",
      "type": "function",
      "constant": true
    },
    {
      "inputs": [],
      "name": "bRate",
      "outputs": [
        {
          "internalType": "uint256",
          "name": "",
          "type": "uint256"
        }
      ],
      "stateMutability": "view",
      "type": "function",
      "constant": true
    },
    {
      "inputs": [],
      "name": "bToken",
      "outputs": [
        {
          "internalType": "contract BToken",
          "name": "",
          "type": "address"
        }
      ],
      "stateMutability": "view",
      "type": "function",
      "constant": true
    },
    {
      "inputs": [],
      "name": "buyCounter",
      "outputs": [
        {
          "internalType": "uint256",
          "name": "",
          "type": "uint256"
        }
      ],
      "stateMutability": "view",
      "type": "function",
      "constant": true
    },
    {
      "inputs": [
        {
          "internalType": "uint256",
          "name": "",
          "type": "uint256"
        }
      ],
      "name": "buyrateid",
      "outputs": [
        {
          "internalType": "uint256",
          "name": "",
          "type": "uint256"
        }
      ],
      "stateMutability": "view",
      "type": "function",
      "constant": true
    },
    {
      "inputs": [],
      "name": "idOfBuyRate",
      "outputs": [
        {
          "internalType": "uint256",
          "name": "",
          "type": "uint256"
        }
      ],
      "stateMutability": "view",
      "type": "function",
      "constant": true
    },
    {
      "inputs": [],
      "name": "idOfSellRate",
      "outputs": [
        {
          "internalType": "uint256",
          "name": "",
          "type": "uint256"
        }
      ],
      "stateMutability": "view",
      "type": "function",
      "constant": true
    },
    {
      "inputs": [],
      "name": "maxBuyRate",
      "outputs": [
        {
          "internalType": "uint256",
          "name": "",
          "type": "uint256"
        }
      ],
      "stateMutability": "view",
      "type": "function",
      "constant": true
    },
    {
      "inputs": [],
      "name": "minSellRate",
      "outputs": [
        {
          "internalType": "uint256",
          "name": "",
          "type": "uint256"
        }
      ],
      "stateMutability": "view",
      "type": "function",
      "constant": true
    },
    {
      "inputs": [],
      "name": "name",
      "outputs": [
        {
          "internalType": "string",
          "name": "",
          "type": "string"
        }
      ],
      "stateMutability": "view",
      "type": "function",
      "constant": true
    },
    {
      "inputs": [
        {
          "internalType": "uint256",
          "name": "",
          "type": "uint256"
        }
      ],
      "name": "newBuyOrderBook",
      "outputs": [
        {
          "internalType": "address",
          "name": "maker",
          "type": "address"
        },
        {
          "internalType": "uint256",
          "name": "amount",
          "type": "uint256"
        },
        {
          "internalType": "uint256",
          "name": "rate",
          "type": "uint256"
        }
      ],
      "stateMutability": "view",
      "type": "function",
      "constant": true
    },
    {
      "inputs": [
        {
          "internalType": "uint256",
          "name": "",
          "type": "uint256"
        }
      ],
      "name": "newSellOrderBook",
      "outputs": [
        {
          "internalType": "address",
          "name": "maker",
          "type": "address"
        },
        {
          "internalType": "uint256",
          "name": "amount",
          "type": "uint256"
        },
        {
          "internalType": "uint256",
          "name": "rate",
          "type": "uint256"
        }
      ],
      "stateMutability": "view",
      "type": "function",
      "constant": true
    },
    {
      "inputs": [],
      "name": "sellCounter",
      "outputs": [
        {
          "internalType": "uint256",
          "name": "",
          "type": "uint256"
        }
      ],
      "stateMutability": "view",
      "type": "function",
      "constant": true
    },
    {
      "inputs": [
        {
          "internalType": "uint256",
          "name": "",
          "type": "uint256"
        }
      ],
      "name": "sellrateid",
      "outputs": [
        {
          "internalType": "uint256",
          "name": "",
          "type": "uint256"
        }
      ],
      "stateMutability": "view",
      "type": "function",
      "constant": true
    },
    {
      "inputs": [],
      "name": "buyATokens",
      "outputs": [],
      "stateMutability": "payable",
      "type": "function",
      "payable": true
    },
    {
      "inputs": [
        {
          "internalType": "uint256",
          "name": "_amount",
          "type": "uint256"
        }
      ],
      "name": "sellATokens",
      "outputs": [],
      "stateMutability": "nonpayable",
      "type": "function"
    },
    {
      "inputs": [],
      "name": "buyBTokens",
      "outputs": [],
      "stateMutability": "payable",
      "type": "function",
      "payable": true
    },
    {
      "inputs": [
        {
          "internalType": "uint256",
          "name": "_amount",
          "type": "uint256"
        }
      ],
      "name": "sellBTokens",
      "outputs": [],
      "stateMutability": "nonpayable",
      "type": "function"
    },
    {
      "inputs": [],
      "name": "getbuyrate",
      "outputs": [
        {
          "internalType": "uint256[]",
          "name": "",
          "type": "uint256[]"
        }
      ],
      "stateMutability": "nonpayable",
      "type": "function"
    },
    {
      "inputs": [],
      "name": "getsellrate",
      "outputs": [
        {
          "internalType": "uint256[]",
          "name": "",
          "type": "uint256[]"
        }
      ],
      "stateMutability": "nonpayable",
      "type": "function"
    },
    {
      "inputs": [
        {
          "internalType": "uint256",
          "name": "b",
          "type": "uint256"
        },
        {
          "internalType": "uint256",
          "name": "a",
          "type": "uint256"
        }
      ],
      "name": "atob",
      "outputs": [],
      "stateMutability": "nonpayable",
      "type": "function"
    },
    {
      "inputs": [
        {
          "internalType": "uint256",
          "name": "b",
          "type": "uint256"
        },
        {
          "internalType": "uint256",
          "name": "a",
          "type": "uint256"
        }
      ],
      "name": "atobInverseRate",
      "outputs": [],
      "stateMutability": "nonpayable",
      "type": "function"
    },
    {
      "inputs": [
        {
          "internalType": "uint256",
          "name": "a",
          "type": "uint256"
        },
        {
          "internalType": "uint256",
          "name": "b",
          "type": "uint256"
        }
      ],
      "name": "btoa",
      "outputs": [],
      "stateMutability": "nonpayable",
      "type": "function"
    },
    {
      "inputs": [
        {
          "internalType": "uint256",
          "name": "a",
          "type": "uint256"
        },
        {
          "internalType": "uint256",
          "name": "b",
          "type": "uint256"
        }
      ],
      "name": "btoaInverseRate",
      "outputs": [],
      "stateMutability": "nonpayable",
      "type": "function"
    },
    {
      "inputs": [],
      "name": "deleteBuyOrders",
      "outputs": [],
      "stateMutability": "nonpayable",
      "type": "function"
    },
    {
      "inputs": [],
      "name": "deleteSellOrders",
      "outputs": [],
      "stateMutability": "nonpayable",
      "type": "function"
    },
    {
      "inputs": [
        {
          "internalType": "address",
          "name": "account",
          "type": "address"
        }
      ],
      "name": "getBuyOrderBook",
      "outputs": [
        {
          "internalType": "uint256[]",
          "name": "",
          "type": "uint256[]"
        }
      ],
      "stateMutability": "nonpayable",
      "type": "function"
    },
    {
      "inputs": [
        {
          "internalType": "address",
          "name": "account",
          "type": "address"
        }
      ],
      "name": "getSellOrderBook",
      "outputs": [
        {
          "internalType": "uint256[]",
          "name": "",
          "type": "uint256[]"
        }
      ],
      "stateMutability": "nonpayable",
      "type": "function"
    }
  ],
  "bytecode": "0x60806040526040518060400160405280601a81526020017f546f6b656e5377617020496e7374616e742045786368616e6765000000000000815250600190805190602001906200005192919062000148565b506103e86003556103e860055560006006556000600a553480156200007557600080fd5b506040516200541e3803806200541e833981810160405260408110156200009b57600080fd5b810190808051906020019092919080519060200190929190505050600160008190555081600260006101000a81548173ffffffffffffffffffffffffffffffffffffffff021916908373ffffffffffffffffffffffffffffffffffffffff16021790555080600460006101000a81548173ffffffffffffffffffffffffffffffffffffffff021916908373ffffffffffffffffffffffffffffffffffffffff1602179055505050620001f7565b828054600181600116156101000203166002900490600052602060002090601f016020900481019282601f106200018b57805160ff1916838001178555620001bc565b82800160010185558215620001bc579182015b82811115620001bb5782518255916020019190600101906200019e565b5b509050620001cb9190620001cf565b5090565b620001f491905b80821115620001f0576000816000905550600101620001d6565b5090565b90565b61521780620002076000396000f3fe6080604052600436106101d85760003560e01c80638544a5ec11610102578063c86f663911610095578063dd7f4e4011610064578063dd7f4e4014610993578063eb096924146109e2578063ec4763b614610a27578063f22dda4114610a76576101d8565b8063c86f66391461088d578063cddfa2a4146108b8578063ce72b860146108e3578063dcb8e106146108ed576101d8565b8063a4d0047d116100d1578063a4d0047d146107a4578063b2bb39ef146107cf578063b9a541eb14610858578063c51b435014610883576101d8565b80638544a5ec146106c657806391ceedbf1461070b5780639237b46c14610736578063a0c1f15e1461074d576101d8565b8063540cecb31161017a5780636c0a9daa116101495780636c0a9daa1461052a5780636e94422c1461056557806376a4202e146105d15780638447eee614610620576101d8565b8063540cecb3146104105780635632993b1461045f578063618346411461048a5780636bc69a24146104a1576101d8565b806333f393ee116101b657806333f393ee146103095780633e2974e71461034e5780633edec69a1461037957806350e3d808146103a4576101d8565b806306fdde03146101dd57806311d7e6891461026d578063180f5842146102b2575b600080fd5b3480156101e957600080fd5b506101f2610ab1565b6040518080602001828103825283818151815260200191508051906020019080838360005b83811015610232578082015181840152602081019050610217565b50505050905090810190601f16801561025f5780820380516001836020036101000a031916815260200191505b509250505060405180910390f35b34801561027957600080fd5b506102b06004803603604081101561029057600080fd5b810190808035906020019092919080359060200190929190505050610b4f565b005b3480156102be57600080fd5b506102c76117b0565b604051808273ffffffffffffffffffffffffffffffffffffffff1673ffffffffffffffffffffffffffffffffffffffff16815260200191505060405180910390f35b34801561031557600080fd5b5061034c6004803603604081101561032c57600080fd5b8101908080359060200190929190803590602001909291905050506117d6565b005b34801561035a57600080fd5b506103636124b6565b6040518082815260200191505060405180910390f35b34801561038557600080fd5b5061038e6124bc565b6040518082815260200191505060405180910390f35b3480156103b057600080fd5b506103b96124c2565b6040518080602001828103825283818151815260200191508051906020019060200280838360005b838110156103fc5780820151818401526020810190506103e1565b505050509050019250505060405180910390f35b34801561041c57600080fd5b506104496004803603602081101561043357600080fd5b810190808035906020019092919050505061251a565b6040518082815260200191505060405180910390f35b34801561046b57600080fd5b5061047461253b565b6040518082815260200191505060405180910390f35b34801561049657600080fd5b5061049f612541565b005b3480156104ad57600080fd5b506104da600480360360208110156104c457600080fd5b81019080803590602001909291905050506127b8565b604051808473ffffffffffffffffffffffffffffffffffffffff1673ffffffffffffffffffffffffffffffffffffffff168152602001838152602001828152602001935050505060405180910390f35b34801561053657600080fd5b506105636004803603602081101561054d57600080fd5b8101908080359060200190929190505050612802565b005b34801561057157600080fd5b5061057a612a80565b6040518080602001828103825283818151815260200191508051906020019060200280838360005b838110156105bd5780820151818401526020810190506105a2565b505050509050019250505060405180910390f35b3480156105dd57600080fd5b5061060a600480360360208110156105f457600080fd5b8101908080359060200190929190505050612ad8565b6040518082815260200191505060405180910390f35b34801561062c57600080fd5b5061066f6004803603602081101561064357600080fd5b81019080803573ffffffffffffffffffffffffffffffffffffffff169060200190929190505050612af9565b6040518080602001828103825283818151815260200191508051906020019060200280838360005b838110156106b2578082015181840152602081019050610697565b505050509050019250505060405180910390f35b3480156106d257600080fd5b50610709600480360360408110156106e957600080fd5b810190808035906020019092919080359060200190929190505050612c53565b005b34801561071757600080fd5b5061072061384b565b6040518082815260200191505060405180910390f35b34801561074257600080fd5b5061074b613851565b005b34801561075957600080fd5b50610762613ac8565b604051808273ffffffffffffffffffffffffffffffffffffffff1673ffffffffffffffffffffffffffffffffffffffff16815260200191505060405180910390f35b3480156107b057600080fd5b506107b9613aee565b6040518082815260200191505060405180910390f35b3480156107db57600080fd5b50610808600480360360208110156107f257600080fd5b8101908080359060200190929190505050613af4565b604051808473ffffffffffffffffffffffffffffffffffffffff1673ffffffffffffffffffffffffffffffffffffffff168152602001838152602001828152602001935050505060405180910390f35b34801561086457600080fd5b5061086d613b3e565b6040518082815260200191505060405180910390f35b61088b613b44565b005b34801561089957600080fd5b506108a2613d1b565b6040518082815260200191505060405180910390f35b3480156108c457600080fd5b506108cd613d21565b6040518082815260200191505060405180910390f35b6108eb613d27565b005b3480156108f957600080fd5b5061093c6004803603602081101561091057600080fd5b81019080803573ffffffffffffffffffffffffffffffffffffffff169060200190929190505050613efe565b6040518080602001828103825283818151815260200191508051906020019060200280838360005b8381101561097f578082015181840152602081019050610964565b505050509050019250505060405180910390f35b34801561099f57600080fd5b506109cc600480360360208110156109b657600080fd5b810190808035906020019092919050505061405f565b6040518082815260200191505060405180910390f35b3480156109ee57600080fd5b50610a2560048036036040811015610a0557600080fd5b810190808035906020019092919080359060200190929190505050614080565b005b348015610a3357600080fd5b50610a6060048036036020811015610a4a57600080fd5b8101908080359060200190929190505050614d60565b6040518082815260200191505060405180910390f35b348015610a8257600080fd5b50610aaf60048036036020811015610a9957600080fd5b8101908080359060200190929190505050614d81565b005b60018054600181600116156101000203166002900480601f016020809104026020016040519081016040528092919081815260200182805460018160011615610100020316600290048015610b475780601f10610b1c57610100808354040283529160200191610b47565b820191906000526020600020905b815481529060010190602001808311610b2a57829003601f168201915b505050505081565b60026000541415610bc8576040517f08c379a000000000000000000000000000000000000000000000000000000000815260040180806020018281038252601f8152602001807f5265656e7472616e637947756172643a207265656e7472616e742063616c6c0081525060200191505060405180910390fd5b600260008190555080600260009054906101000a900473ffffffffffffffffffffffffffffffffffffffff1673ffffffffffffffffffffffffffffffffffffffff166370a08231336040518263ffffffff1660e01b8152600401808273ffffffffffffffffffffffffffffffffffffffff1673ffffffffffffffffffffffffffffffffffffffff16815260200191505060206040518083038186803b158015610c7057600080fd5b505afa158015610c84573d6000803e3d6000fd5b505050506040513d6020811015610c9a57600080fd5b81019080805190602001909291905050501015610d1f576040517f08c379a00000000000000000000000000000000000000000000000000000000081526004018080602001828103825260158152602001807f68656c6c6f206572726f7220686572652061746f62000000000000000000000081525060200191505060405180910390fd5b600260009054906101000a900473ffffffffffffffffffffffffffffffffffffffff1673ffffffffffffffffffffffffffffffffffffffff166323b872dd3330846040518463ffffffff1660e01b8152600401808473ffffffffffffffffffffffffffffffffffffffff1673ffffffffffffffffffffffffffffffffffffffff1681526020018373ffffffffffffffffffffffffffffffffffffffff1673ffffffffffffffffffffffffffffffffffffffff1681526020018281526020019350505050602060405180830381600087803b158015610dfc57600080fd5b505af1158015610e10573d6000803e3d6000fd5b505050506040513d6020811015610e2657600080fd5b8101908080519060200190929190505050506000818381610e4357fe5b04905060006001905060008090505b600e8054905081101561178457600e8181548110610e6c57fe5b9060005260206000200154600c81905550600b6000600c548152602001908152602001600020600201546007819055506007548310158015610eb057506000600754115b15611777576000915084600b6000600c54815260200190815260200160002060010154111561112857600085600b6000600c5481526020019081526020016000206001015403905080600b6000600c54815260200190815260200160002060010181905550600260009054906101000a900473ffffffffffffffffffffffffffffffffffffffff1673ffffffffffffffffffffffffffffffffffffffff1663a9059cbb600b6000600c54815260200190815260200160002060000160009054906101000a900473ffffffffffffffffffffffffffffffffffffffff16876040518363ffffffff1660e01b8152600401808373ffffffffffffffffffffffffffffffffffffffff1673ffffffffffffffffffffffffffffffffffffffff16815260200182815260200192505050602060405180830381600087803b158015610ff657600080fd5b505af115801561100a573d6000803e3d6000fd5b505050506040513d602081101561102057600080fd5b810190808051906020019092919050505050600460009054906101000a900473ffffffffffffffffffffffffffffffffffffffff1673ffffffffffffffffffffffffffffffffffffffff1663a9059cbb33600754888161107c57fe5b046040518363ffffffff1660e01b8152600401808373ffffffffffffffffffffffffffffffffffffffff1673ffffffffffffffffffffffffffffffffffffffff16815260200182815260200192505050602060405180830381600087803b1580156110e657600080fd5b505af11580156110fa573d6000803e3d6000fd5b505050506040513d602081101561111057600080fd5b81019080805190602001909291905050505050611772565b84600b6000600c54815260200190815260200160002060010154141561142457600260009054906101000a900473ffffffffffffffffffffffffffffffffffffffff1673ffffffffffffffffffffffffffffffffffffffff1663a9059cbb600b6000600c54815260200190815260200160002060000160009054906101000a900473ffffffffffffffffffffffffffffffffffffffff16866040518363ffffffff1660e01b8152600401808373ffffffffffffffffffffffffffffffffffffffff1673ffffffffffffffffffffffffffffffffffffffff16815260200182815260200192505050602060405180830381600087803b15801561122957600080fd5b505af115801561123d573d6000803e3d6000fd5b505050506040513d602081101561125357600080fd5b810190808051906020019092919050505050600460009054906101000a900473ffffffffffffffffffffffffffffffffffffffff1673ffffffffffffffffffffffffffffffffffffffff1663a9059cbb3360075487816112af57fe5b046040518363ffffffff1660e01b8152600401808373ffffffffffffffffffffffffffffffffffffffff1673ffffffffffffffffffffffffffffffffffffffff16815260200182815260200192505050602060405180830381600087803b15801561131957600080fd5b505af115801561132d573d6000803e3d6000fd5b505050506040513d602081101561134357600080fd5b810190808051906020019092919050505050600b6000600c548152602001908152602001600020600080820160006101000a81549073ffffffffffffffffffffffffffffffffffffffff021916905560018201600090556002820160009055505060008190505b6001600e80549050038110156113fd57600e60018201815481106113ca57fe5b9060005260206000200154600e82815481106113e257fe5b906000526020600020018190555080806001019150506113aa565b50600e80548061140957fe5b60019003818190600052602060002001600090559055611771565b84600b6000600c54815260200190815260200160002060010154101561177057600260009054906101000a900473ffffffffffffffffffffffffffffffffffffffff1673ffffffffffffffffffffffffffffffffffffffff1663a9059cbb600b6000600c54815260200190815260200160002060000160009054906101000a900473ffffffffffffffffffffffffffffffffffffffff16600b6000600c548152602001908152602001600020600101546040518363ffffffff1660e01b8152600401808373ffffffffffffffffffffffffffffffffffffffff1673ffffffffffffffffffffffffffffffffffffffff16815260200182815260200192505050602060405180830381600087803b15801561153d57600080fd5b505af1158015611551573d6000803e3d6000fd5b505050506040513d602081101561156757600080fd5b810190808051906020019092919050505050600460009054906101000a900473ffffffffffffffffffffffffffffffffffffffff1673ffffffffffffffffffffffffffffffffffffffff1663a9059cbb33600754600b6000600c54815260200190815260200160002060010154816115db57fe5b046040518363ffffffff1660e01b8152600401808373ffffffffffffffffffffffffffffffffffffffff1673ffffffffffffffffffffffffffffffffffffffff16815260200182815260200192505050602060405180830381600087803b15801561164557600080fd5b505af1158015611659573d6000803e3d6000fd5b505050506040513d602081101561166f57600080fd5b810190808051906020019092919050505050600b6000600c548152602001908152602001600020600080820160006101000a81549073ffffffffffffffffffffffffffffffffffffffff021916905560018201600090556002820160009055505060008190505b6001600e805490500381101561172957600e60018201815481106116f657fe5b9060005260206000200154600e828154811061170e57fe5b906000526020600020018190555080806001019150506116d6565b50600e80548061173557fe5b6001900381819060005260206000200160009055905561176f83600b6000600c548152602001908152602001600020600101548603614fff565b5b5b5b611784565b8080600101915050610e52565b506000831180156117925750805b156117a2576117a18284614fff565b5b505060016000819055505050565b600460009054906101000a900473ffffffffffffffffffffffffffffffffffffffff1681565b6002600054141561184f576040517f08c379a000000000000000000000000000000000000000000000000000000000815260040180806020018281038252601f8152602001807f5265656e7472616e637947756172643a207265656e7472616e742063616c6c0081525060200191505060405180910390fd5b600260008190555080600460009054906101000a900473ffffffffffffffffffffffffffffffffffffffff1673ffffffffffffffffffffffffffffffffffffffff166370a08231336040518263ffffffff1660e01b8152600401808273ffffffffffffffffffffffffffffffffffffffff1673ffffffffffffffffffffffffffffffffffffffff16815260200191505060206040518083038186803b1580156118f757600080fd5b505afa15801561190b573d6000803e3d6000fd5b505050506040513d602081101561192157600080fd5b8101908080519060200190929190505050101561193d57600080fd5b60118190806001815401808255809150506001900390600052602060002001600090919091909150556011829080600181540180825580915050600190039060005260206000200160009091909190915055600460009054906101000a900473ffffffffffffffffffffffffffffffffffffffff1673ffffffffffffffffffffffffffffffffffffffff166323b872dd3330846040518463ffffffff1660e01b8152600401808473ffffffffffffffffffffffffffffffffffffffff1673ffffffffffffffffffffffffffffffffffffffff1681526020018373ffffffffffffffffffffffffffffffffffffffff1673ffffffffffffffffffffffffffffffffffffffff1681526020018281526020019350505050602060405180830381600087803b158015611a6c57600080fd5b505af1158015611a80573d6000803e3d6000fd5b505050506040513d6020811015611a9657600080fd5b8101908080519060200190929190505050506000818381611ab357fe5b04905060006001905060008090505b600f8054905081101561248a57600f8181548110611adc57fe5b906000526020600020015460098190555060086000600954815260200190815260200160002060020154600d81905550600d548311158015611b2057506000600d54115b1561247d576000915084600860006009548152602001908152602001600020600101541115611e3c57601160086000600954815260200190815260200160002060010154908060018154018082558091505060019003906000526020600020016000909190919091505560118490806001815401808255809150506001900390600052602060002001600090919091909150556000856008600060095481526020019081526020016000206001015403905080600860006009548152602001908152602001600020600101819055506011600860006009548152602001908152602001600020600101549080600181540180825580915050600190039060005260206000200160009091909190915055600460009054906101000a900473ffffffffffffffffffffffffffffffffffffffff1673ffffffffffffffffffffffffffffffffffffffff1663a9059cbb60086000600954815260200190815260200160002060000160009054906101000a900473ffffffffffffffffffffffffffffffffffffffff16876040518363ffffffff1660e01b8152600401808373ffffffffffffffffffffffffffffffffffffffff1673ffffffffffffffffffffffffffffffffffffffff16815260200182815260200192505050602060405180830381600087803b158015611d1157600080fd5b505af1158015611d25573d6000803e3d6000fd5b505050506040513d6020811015611d3b57600080fd5b810190808051906020019092919050505050600260009054906101000a900473ffffffffffffffffffffffffffffffffffffffff1673ffffffffffffffffffffffffffffffffffffffff1663a9059cbb33600d5488026040518363ffffffff1660e01b8152600401808373ffffffffffffffffffffffffffffffffffffffff1673ffffffffffffffffffffffffffffffffffffffff16815260200182815260200192505050602060405180830381600087803b158015611dfa57600080fd5b505af1158015611e0e573d6000803e3d6000fd5b505050506040513d6020811015611e2457600080fd5b81019080805190602001909291905050505050612478565b8460086000600954815260200190815260200160002060010154141561213157600460009054906101000a900473ffffffffffffffffffffffffffffffffffffffff1673ffffffffffffffffffffffffffffffffffffffff1663a9059cbb60086000600954815260200190815260200160002060000160009054906101000a900473ffffffffffffffffffffffffffffffffffffffff16866040518363ffffffff1660e01b8152600401808373ffffffffffffffffffffffffffffffffffffffff1673ffffffffffffffffffffffffffffffffffffffff16815260200182815260200192505050602060405180830381600087803b158015611f3d57600080fd5b505af1158015611f51573d6000803e3d6000fd5b505050506040513d6020811015611f6757600080fd5b810190808051906020019092919050505050600260009054906101000a900473ffffffffffffffffffffffffffffffffffffffff1673ffffffffffffffffffffffffffffffffffffffff1663a9059cbb33600d5487026040518363ffffffff1660e01b8152600401808373ffffffffffffffffffffffffffffffffffffffff1673ffffffffffffffffffffffffffffffffffffffff16815260200182815260200192505050602060405180830381600087803b15801561202657600080fd5b505af115801561203a573d6000803e3d6000fd5b505050506040513d602081101561205057600080fd5b810190808051906020019092919050505050600860006009548152602001908152602001600020600080820160006101000a81549073ffffffffffffffffffffffffffffffffffffffff021916905560018201600090556002820160009055505060008190505b6001600f805490500381101561210a57600f60018201815481106120d757fe5b9060005260206000200154600f82815481106120ef57fe5b906000526020600020018190555080806001019150506120b7565b50600f80548061211657fe5b60019003818190600052602060002001600090559055612477565b8460086000600954815260200190815260200160002060010154101561247657600460009054906101000a900473ffffffffffffffffffffffffffffffffffffffff1673ffffffffffffffffffffffffffffffffffffffff1663a9059cbb60086000600954815260200190815260200160002060000160009054906101000a900473ffffffffffffffffffffffffffffffffffffffff16600860006009548152602001908152602001600020600101546040518363ffffffff1660e01b8152600401808373ffffffffffffffffffffffffffffffffffffffff1673ffffffffffffffffffffffffffffffffffffffff16815260200182815260200192505050602060405180830381600087803b15801561224a57600080fd5b505af115801561225e573d6000803e3d6000fd5b505050506040513d602081101561227457600080fd5b810190808051906020019092919050505050600260009054906101000a900473ffffffffffffffffffffffffffffffffffffffff1673ffffffffffffffffffffffffffffffffffffffff1663a9059cbb33600d5460086000600954815260200190815260200160002060010154026040518363ffffffff1660e01b8152600401808373ffffffffffffffffffffffffffffffffffffffff1673ffffffffffffffffffffffffffffffffffffffff16815260200182815260200192505050602060405180830381600087803b15801561234b57600080fd5b505af115801561235f573d6000803e3d6000fd5b505050506040513d602081101561237557600080fd5b810190808051906020019092919050505050600860006009548152602001908152602001600020600080820160006101000a81549073ffffffffffffffffffffffffffffffffffffffff021916905560018201600090556002820160009055505060008190505b6001600f805490500381101561242f57600f60018201815481106123fc57fe5b9060005260206000200154600f828154811061241457fe5b906000526020600020018190555080806001019150506123dc565b50600f80548061243b57fe5b60019003818190600052602060002001600090559055612475836008600060095481526020019081526020016000206001015486036150f0565b5b5b5b61248a565b8080600101915050611ac2565b506000831180156124985750805b156124a8576124a782846150f0565b5b505060016000819055505050565b60035481565b60075481565b6060600e80548060200260200160405190810160405280929190818152602001828054801561251057602002820191906000526020600020905b8154815260200190600101908083116124fc575b5050505050905090565b6010818154811061252757fe5b906000526020600020016000915090505481565b600c5481565b60008090505b600f805490508110156127b5576000600f828154811061256357fe5b906000526020600020015490506008600082815260200190815260200160002060000160009054906101000a900473ffffffffffffffffffffffffffffffffffffffff1673ffffffffffffffffffffffffffffffffffffffff163373ffffffffffffffffffffffffffffffffffffffff1614156127a757600260009054906101000a900473ffffffffffffffffffffffffffffffffffffffff1673ffffffffffffffffffffffffffffffffffffffff1663a9059cbb3360086000858152602001908152602001600020600101546040518363ffffffff1660e01b8152600401808373ffffffffffffffffffffffffffffffffffffffff1673ffffffffffffffffffffffffffffffffffffffff16815260200182815260200192505050602060405180830381600087803b15801561269957600080fd5b505af11580156126ad573d6000803e3d6000fd5b505050506040513d60208110156126c357600080fd5b81019080805190602001909291905050505060086000828152602001908152602001600020600080820160006101000a81549073ffffffffffffffffffffffffffffffffffffffff021916905560018201600090556002820160009055505060008290505b6001600f805490500381101561277b57600f600182018154811061274857fe5b9060005260206000200154600f828154811061276057fe5b90600052602060002001819055508080600101915050612728565b50600f80548061278757fe5b600190038181906000526020600020016000905590558180600190039250505b508080600101915050612547565b50565b600b6020528060005260406000206000915090508060000160009054906101000a900473ffffffffffffffffffffffffffffffffffffffff16908060010154908060020154905083565b80600260009054906101000a900473ffffffffffffffffffffffffffffffffffffffff1673ffffffffffffffffffffffffffffffffffffffff166370a08231336040518263ffffffff1660e01b8152600401808273ffffffffffffffffffffffffffffffffffffffff1673ffffffffffffffffffffffffffffffffffffffff16815260200191505060206040518083038186803b1580156128a257600080fd5b505afa1580156128b6573d6000803e3d6000fd5b505050506040513d60208110156128cc57600080fd5b810190808051906020019092919050505010156128e857600080fd5b600060035482816128f557fe5b049050803073ffffffffffffffffffffffffffffffffffffffff1631101561291c57600080fd5b600260009054906101000a900473ffffffffffffffffffffffffffffffffffffffff1673ffffffffffffffffffffffffffffffffffffffff166323b872dd3330856040518463ffffffff1660e01b8152600401808473ffffffffffffffffffffffffffffffffffffffff1673ffffffffffffffffffffffffffffffffffffffff1681526020018373ffffffffffffffffffffffffffffffffffffffff1673ffffffffffffffffffffffffffffffffffffffff1681526020018281526020019350505050602060405180830381600087803b1580156129f957600080fd5b505af1158015612a0d573d6000803e3d6000fd5b505050506040513d6020811015612a2357600080fd5b8101908080519060200190929190505050503373ffffffffffffffffffffffffffffffffffffffff166108fc829081150290604051600060405180830381858888f19350505050158015612a7b573d6000803e3d6000fd5b505050565b6060600f805480602002602001604051908101604052809291908181526020018280548015612ace57602002820191906000526020600020905b815481526020019060010190808311612aba575b5050505050905090565b60118181548110612ae557fe5b906000526020600020016000915090505481565b606060008090505b600e80549050811015612bfa576000600e8281548110612b1d57fe5b90600052602060002001549050600b600082815260200190815260200160002060000160009054906101000a900473ffffffffffffffffffffffffffffffffffffffff1673ffffffffffffffffffffffffffffffffffffffff168473ffffffffffffffffffffffffffffffffffffffff161415612bec576013600b600083815260200190815260200160002060020154600b6000848152602001908152602001600020600101540290806001815401808255809150506001900390600052602060002001600090919091909150555b508080600101915050612b01565b506013805480602002602001604051908101604052809291908181526020018280548015612c4757602002820191906000526020600020905b815481526020019060010190808311612c33575b50505050509050919050565b60026000541415612ccc576040517f08c379a000000000000000000000000000000000000000000000000000000000815260040180806020018281038252601f8152602001807f5265656e7472616e637947756172643a207265656e7472616e742063616c6c0081525060200191505060405180910390fd5b600260008190555080600260009054906101000a900473ffffffffffffffffffffffffffffffffffffffff1673ffffffffffffffffffffffffffffffffffffffff166370a08231336040518263ffffffff1660e01b8152600401808273ffffffffffffffffffffffffffffffffffffffff1673ffffffffffffffffffffffffffffffffffffffff16815260200191505060206040518083038186803b158015612d7457600080fd5b505afa158015612d88573d6000803e3d6000fd5b505050506040513d6020811015612d9e57600080fd5b81019080805190602001909291905050501015612dba57600080fd5b600260009054906101000a900473ffffffffffffffffffffffffffffffffffffffff1673ffffffffffffffffffffffffffffffffffffffff166323b872dd3330846040518463ffffffff1660e01b8152600401808473ffffffffffffffffffffffffffffffffffffffff1673ffffffffffffffffffffffffffffffffffffffff1681526020018373ffffffffffffffffffffffffffffffffffffffff1673ffffffffffffffffffffffffffffffffffffffff1681526020018281526020019350505050602060405180830381600087803b158015612e9757600080fd5b505af1158015612eab573d6000803e3d6000fd5b505050506040513d6020811015612ec157600080fd5b8101908080519060200190929190505050506000828281612ede57fe5b04905060006001905060008090505b600e8054905081101561381f57600e8181548110612f0757fe5b9060005260206000200154600c81905550600b6000600c548152602001908152602001600020600201546007819055506007548310158015612f4b57506000600754115b15613812576000915084600b6000600c5481526020019081526020016000206001015411156131c357600085600b6000600c5481526020019081526020016000206001015403905080600b6000600c54815260200190815260200160002060010181905550600260009054906101000a900473ffffffffffffffffffffffffffffffffffffffff1673ffffffffffffffffffffffffffffffffffffffff1663a9059cbb600b6000600c54815260200190815260200160002060000160009054906101000a900473ffffffffffffffffffffffffffffffffffffffff16876040518363ffffffff1660e01b8152600401808373ffffffffffffffffffffffffffffffffffffffff1673ffffffffffffffffffffffffffffffffffffffff16815260200182815260200192505050602060405180830381600087803b15801561309157600080fd5b505af11580156130a5573d6000803e3d6000fd5b505050506040513d60208110156130bb57600080fd5b810190808051906020019092919050505050600460009054906101000a900473ffffffffffffffffffffffffffffffffffffffff1673ffffffffffffffffffffffffffffffffffffffff1663a9059cbb33600754888161311757fe5b046040518363ffffffff1660e01b8152600401808373ffffffffffffffffffffffffffffffffffffffff1673ffffffffffffffffffffffffffffffffffffffff16815260200182815260200192505050602060405180830381600087803b15801561318157600080fd5b505af1158015613195573d6000803e3d6000fd5b505050506040513d60208110156131ab57600080fd5b8101908080519060200190929190505050505061380d565b84600b6000600c5481526020019081526020016000206001015414156134bf57600260009054906101000a900473ffffffffffffffffffffffffffffffffffffffff1673ffffffffffffffffffffffffffffffffffffffff1663a9059cbb600b6000600c54815260200190815260200160002060000160009054906101000a900473ffffffffffffffffffffffffffffffffffffffff16866040518363ffffffff1660e01b8152600401808373ffffffffffffffffffffffffffffffffffffffff1673ffffffffffffffffffffffffffffffffffffffff16815260200182815260200192505050602060405180830381600087803b1580156132c457600080fd5b505af11580156132d8573d6000803e3d6000fd5b505050506040513d60208110156132ee57600080fd5b810190808051906020019092919050505050600460009054906101000a900473ffffffffffffffffffffffffffffffffffffffff1673ffffffffffffffffffffffffffffffffffffffff1663a9059cbb33600754878161334a57fe5b046040518363ffffffff1660e01b8152600401808373ffffffffffffffffffffffffffffffffffffffff1673ffffffffffffffffffffffffffffffffffffffff16815260200182815260200192505050602060405180830381600087803b1580156133b457600080fd5b505af11580156133c8573d6000803e3d6000fd5b505050506040513d60208110156133de57600080fd5b810190808051906020019092919050505050600b6000600c548152602001908152602001600020600080820160006101000a81549073ffffffffffffffffffffffffffffffffffffffff021916905560018201600090556002820160009055505060008190505b6001600e805490500381101561349857600e600182018154811061346557fe5b9060005260206000200154600e828154811061347d57fe5b90600052602060002001819055508080600101915050613445565b50600e8054806134a457fe5b6001900381819060005260206000200160009055905561380c565b84600b6000600c54815260200190815260200160002060010154101561380b57600260009054906101000a900473ffffffffffffffffffffffffffffffffffffffff1673ffffffffffffffffffffffffffffffffffffffff1663a9059cbb600b6000600c54815260200190815260200160002060000160009054906101000a900473ffffffffffffffffffffffffffffffffffffffff16600b6000600c548152602001908152602001600020600101546040518363ffffffff1660e01b8152600401808373ffffffffffffffffffffffffffffffffffffffff1673ffffffffffffffffffffffffffffffffffffffff16815260200182815260200192505050602060405180830381600087803b1580156135d857600080fd5b505af11580156135ec573d6000803e3d6000fd5b505050506040513d602081101561360257600080fd5b810190808051906020019092919050505050600460009054906101000a900473ffffffffffffffffffffffffffffffffffffffff1673ffffffffffffffffffffffffffffffffffffffff1663a9059cbb33600754600b6000600c548152602001908152602001600020600101548161367657fe5b046040518363ffffffff1660e01b8152600401808373ffffffffffffffffffffffffffffffffffffffff1673ffffffffffffffffffffffffffffffffffffffff16815260200182815260200192505050602060405180830381600087803b1580156136e057600080fd5b505af11580156136f4573d6000803e3d6000fd5b505050506040513d602081101561370a57600080fd5b810190808051906020019092919050505050600b6000600c548152602001908152602001600020600080820160006101000a81549073ffffffffffffffffffffffffffffffffffffffff021916905560018201600090556002820160009055505060008190505b6001600e80549050038110156137c457600e600182018154811061379157fe5b9060005260206000200154600e82815481106137a957fe5b90600052602060002001819055508080600101915050613771565b50600e8054806137d057fe5b6001900381819060005260206000200160009055905561380a83600b6000600c548152602001908152602001600020600101548603614fff565b5b5b5b61381f565b8080600101915050612eed565b5060008311801561382d5750805b1561383d5761383c8284614fff565b5b505060016000819055505050565b60065481565b60008090505b600e80549050811015613ac5576000600e828154811061387357fe5b90600052602060002001549050600b600082815260200190815260200160002060000160009054906101000a900473ffffffffffffffffffffffffffffffffffffffff1673ffffffffffffffffffffffffffffffffffffffff163373ffffffffffffffffffffffffffffffffffffffff161415613ab757600460009054906101000a900473ffffffffffffffffffffffffffffffffffffffff1673ffffffffffffffffffffffffffffffffffffffff1663a9059cbb33600b6000858152602001908152602001600020600101546040518363ffffffff1660e01b8152600401808373ffffffffffffffffffffffffffffffffffffffff1673ffffffffffffffffffffffffffffffffffffffff16815260200182815260200192505050602060405180830381600087803b1580156139a957600080fd5b505af11580156139bd573d6000803e3d6000fd5b505050506040513d60208110156139d357600080fd5b810190808051906020019092919050505050600b6000828152602001908152602001600020600080820160006101000a81549073ffffffffffffffffffffffffffffffffffffffff021916905560018201600090556002820160009055505060008290505b6001600e8054905003811015613a8b57600e6001820181548110613a5857fe5b9060005260206000200154600e8281548110613a7057fe5b90600052602060002001819055508080600101915050613a38565b50600e805480613a9757fe5b600190038181906000526020600020016000905590558180600190039250505b508080600101915050613857565b50565b600260009054906101000a900473ffffffffffffffffffffffffffffffffffffffff1681565b600a5481565b60086020528060005260406000206000915090508060000160009054906101000a900473ffffffffffffffffffffffffffffffffffffffff16908060010154908060020154905083565b60055481565b60006003543402905080600260009054906101000a900473ffffffffffffffffffffffffffffffffffffffff1673ffffffffffffffffffffffffffffffffffffffff166370a08231306040518263ffffffff1660e01b8152600401808273ffffffffffffffffffffffffffffffffffffffff1673ffffffffffffffffffffffffffffffffffffffff16815260200191505060206040518083038186803b158015613bed57600080fd5b505afa158015613c01573d6000803e3d6000fd5b505050506040513d6020811015613c1757600080fd5b81019080805190602001909291905050501015613c3357600080fd5b600260009054906101000a900473ffffffffffffffffffffffffffffffffffffffff1673ffffffffffffffffffffffffffffffffffffffff1663a9059cbb33836040518363ffffffff1660e01b8152600401808373ffffffffffffffffffffffffffffffffffffffff1673ffffffffffffffffffffffffffffffffffffffff16815260200182815260200192505050602060405180830381600087803b158015613cdc57600080fd5b505af1158015613cf0573d6000803e3d6000fd5b505050506040513d6020811015613d0657600080fd5b81019080805190602001909291905050505050565b600d5481565b60095481565b60006005543402905080600460009054906101000a900473ffffffffffffffffffffffffffffffffffffffff1673ffffffffffffffffffffffffffffffffffffffff166370a08231306040518263ffffffff1660e01b8152600401808273ffffffffffffffffffffffffffffffffffffffff1673ffffffffffffffffffffffffffffffffffffffff16815260200191505060206040518083038186803b158015613dd057600080fd5b505afa158015613de4573d6000803e3d6000fd5b505050506040513d6020811015613dfa57600080fd5b81019080805190602001909291905050501015613e1657600080fd5b600460009054906101000a900473ffffffffffffffffffffffffffffffffffffffff1673ffffffffffffffffffffffffffffffffffffffff1663a9059cbb33836040518363ffffffff1660e01b8152600401808373ffffffffffffffffffffffffffffffffffffffff1673ffffffffffffffffffffffffffffffffffffffff16815260200182815260200192505050602060405180830381600087803b158015613ebf57600080fd5b505af1158015613ed3573d6000803e3d6000fd5b505050506040513d6020811015613ee957600080fd5b81019080805190602001909291905050505050565b606060008090505b600f80549050811015614006576000600f8281548110613f2257fe5b906000526020600020015490506008600082815260200190815260200160002060000160009054906101000a900473ffffffffffffffffffffffffffffffffffffffff1673ffffffffffffffffffffffffffffffffffffffff168473ffffffffffffffffffffffffffffffffffffffff161415613ff85760126008600083815260200190815260200160002060020154600860008481526020019081526020016000206001015481613fd057fe5b0490806001815401808255809150506001900390600052602060002001600090919091909150555b508080600101915050613f06565b50601280548060200260200160405190810160405280929190818152602001828054801561405357602002820191906000526020600020905b81548152602001906001019080831161403f575b50505050509050919050565b600f818154811061406c57fe5b906000526020600020016000915090505481565b600260005414156140f9576040517f08c379a000000000000000000000000000000000000000000000000000000000815260040180806020018281038252601f8152602001807f5265656e7472616e637947756172643a207265656e7472616e742063616c6c0081525060200191505060405180910390fd5b600260008190555080600460009054906101000a900473ffffffffffffffffffffffffffffffffffffffff1673ffffffffffffffffffffffffffffffffffffffff166370a08231336040518263ffffffff1660e01b8152600401808273ffffffffffffffffffffffffffffffffffffffff1673ffffffffffffffffffffffffffffffffffffffff16815260200191505060206040518083038186803b1580156141a157600080fd5b505afa1580156141b5573d6000803e3d6000fd5b505050506040513d60208110156141cb57600080fd5b810190808051906020019092919050505010156141e757600080fd5b60118190806001815401808255809150506001900390600052602060002001600090919091909150556011829080600181540180825580915050600190039060005260206000200160009091909190915055600460009054906101000a900473ffffffffffffffffffffffffffffffffffffffff1673ffffffffffffffffffffffffffffffffffffffff166323b872dd3330846040518463ffffffff1660e01b8152600401808473ffffffffffffffffffffffffffffffffffffffff1673ffffffffffffffffffffffffffffffffffffffff1681526020018373ffffffffffffffffffffffffffffffffffffffff1673ffffffffffffffffffffffffffffffffffffffff1681526020018281526020019350505050602060405180830381600087803b15801561431657600080fd5b505af115801561432a573d6000803e3d6000fd5b505050506040513d602081101561434057600080fd5b810190808051906020019092919050505050600082828161435d57fe5b04905060006001905060008090505b600f80549050811015614d3457600f818154811061438657fe5b906000526020600020015460098190555060086000600954815260200190815260200160002060020154600d81905550600d5483111580156143ca57506000600d54115b15614d275760009150846008600060095481526020019081526020016000206001015411156146e657601160086000600954815260200190815260200160002060010154908060018154018082558091505060019003906000526020600020016000909190919091505560118490806001815401808255809150506001900390600052602060002001600090919091909150556000856008600060095481526020019081526020016000206001015403905080600860006009548152602001908152602001600020600101819055506011600860006009548152602001908152602001600020600101549080600181540180825580915050600190039060005260206000200160009091909190915055600460009054906101000a900473ffffffffffffffffffffffffffffffffffffffff1673ffffffffffffffffffffffffffffffffffffffff1663a9059cbb60086000600954815260200190815260200160002060000160009054906101000a900473ffffffffffffffffffffffffffffffffffffffff16876040518363ffffffff1660e01b8152600401808373ffffffffffffffffffffffffffffffffffffffff1673ffffffffffffffffffffffffffffffffffffffff16815260200182815260200192505050602060405180830381600087803b1580156145bb57600080fd5b505af11580156145cf573d6000803e3d6000fd5b505050506040513d60208110156145e557600080fd5b810190808051906020019092919050505050600260009054906101000a900473ffffffffffffffffffffffffffffffffffffffff1673ffffffffffffffffffffffffffffffffffffffff1663a9059cbb33600d5488026040518363ffffffff1660e01b8152600401808373ffffffffffffffffffffffffffffffffffffffff1673ffffffffffffffffffffffffffffffffffffffff16815260200182815260200192505050602060405180830381600087803b1580156146a457600080fd5b505af11580156146b8573d6000803e3d6000fd5b505050506040513d60208110156146ce57600080fd5b81019080805190602001909291905050505050614d22565b846008600060095481526020019081526020016000206001015414156149db57600460009054906101000a900473ffffffffffffffffffffffffffffffffffffffff1673ffffffffffffffffffffffffffffffffffffffff1663a9059cbb60086000600954815260200190815260200160002060000160009054906101000a900473ffffffffffffffffffffffffffffffffffffffff16866040518363ffffffff1660e01b8152600401808373ffffffffffffffffffffffffffffffffffffffff1673ffffffffffffffffffffffffffffffffffffffff16815260200182815260200192505050602060405180830381600087803b1580156147e757600080fd5b505af11580156147fb573d6000803e3d6000fd5b505050506040513d602081101561481157600080fd5b810190808051906020019092919050505050600260009054906101000a900473ffffffffffffffffffffffffffffffffffffffff1673ffffffffffffffffffffffffffffffffffffffff1663a9059cbb33600d5487026040518363ffffffff1660e01b8152600401808373ffffffffffffffffffffffffffffffffffffffff1673ffffffffffffffffffffffffffffffffffffffff16815260200182815260200192505050602060405180830381600087803b1580156148d057600080fd5b505af11580156148e4573d6000803e3d6000fd5b505050506040513d60208110156148fa57600080fd5b810190808051906020019092919050505050600860006009548152602001908152602001600020600080820160006101000a81549073ffffffffffffffffffffffffffffffffffffffff021916905560018201600090556002820160009055505060008190505b6001600f80549050038110156149b457600f600182018154811061498157fe5b9060005260206000200154600f828154811061499957fe5b90600052602060002001819055508080600101915050614961565b50600f8054806149c057fe5b60019003818190600052602060002001600090559055614d21565b84600860006009548152602001908152602001600020600101541015614d2057600460009054906101000a900473ffffffffffffffffffffffffffffffffffffffff1673ffffffffffffffffffffffffffffffffffffffff1663a9059cbb60086000600954815260200190815260200160002060000160009054906101000a900473ffffffffffffffffffffffffffffffffffffffff16600860006009548152602001908152602001600020600101546040518363ffffffff1660e01b8152600401808373ffffffffffffffffffffffffffffffffffffffff1673ffffffffffffffffffffffffffffffffffffffff16815260200182815260200192505050602060405180830381600087803b158015614af457600080fd5b505af1158015614b08573d6000803e3d6000fd5b505050506040513d6020811015614b1e57600080fd5b810190808051906020019092919050505050600260009054906101000a900473ffffffffffffffffffffffffffffffffffffffff1673ffffffffffffffffffffffffffffffffffffffff1663a9059cbb33600d5460086000600954815260200190815260200160002060010154026040518363ffffffff1660e01b8152600401808373ffffffffffffffffffffffffffffffffffffffff1673ffffffffffffffffffffffffffffffffffffffff16815260200182815260200192505050602060405180830381600087803b158015614bf557600080fd5b505af1158015614c09573d6000803e3d6000fd5b505050506040513d6020811015614c1f57600080fd5b810190808051906020019092919050505050600860006009548152602001908152602001600020600080820160006101000a81549073ffffffffffffffffffffffffffffffffffffffff021916905560018201600090556002820160009055505060008190505b6001600f8054905003811015614cd957600f6001820181548110614ca657fe5b9060005260206000200154600f8281548110614cbe57fe5b90600052602060002001819055508080600101915050614c86565b50600f805480614ce557fe5b60019003818190600052602060002001600090559055614d1f836008600060095481526020019081526020016000206001015486036150f0565b5b5b5b614d34565b808060010191505061436c565b50600083118015614d425750805b15614d5257614d5182846150f0565b5b505060016000819055505050565b600e8181548110614d6d57fe5b906000526020600020016000915090505481565b80600460009054906101000a900473ffffffffffffffffffffffffffffffffffffffff1673ffffffffffffffffffffffffffffffffffffffff166370a08231336040518263ffffffff1660e01b8152600401808273ffffffffffffffffffffffffffffffffffffffff1673ffffffffffffffffffffffffffffffffffffffff16815260200191505060206040518083038186803b158015614e2157600080fd5b505afa158015614e35573d6000803e3d6000fd5b505050506040513d6020811015614e4b57600080fd5b81019080805190602001909291905050501015614e6757600080fd5b60006005548281614e7457fe5b049050803073ffffffffffffffffffffffffffffffffffffffff16311015614e9b57600080fd5b600460009054906101000a900473ffffffffffffffffffffffffffffffffffffffff1673ffffffffffffffffffffffffffffffffffffffff166323b872dd3330856040518463ffffffff1660e01b8152600401808473ffffffffffffffffffffffffffffffffffffffff1673ffffffffffffffffffffffffffffffffffffffff1681526020018373ffffffffffffffffffffffffffffffffffffffff1673ffffffffffffffffffffffffffffffffffffffff1681526020018281526020019350505050602060405180830381600087803b158015614f7857600080fd5b505af1158015614f8c573d6000803e3d6000fd5b505050506040513d6020811015614fa257600080fd5b8101908080519060200190929190505050503373ffffffffffffffffffffffffffffffffffffffff166108fc829081150290604051600060405180830381858888f19350505050158015614ffa573d6000803e3d6000fd5b505050565b6000821161500c57600080fd5b6001600660008282540192505081905550600f600654908060018154018082558091505060019003906000526020600020016000909190919091505560405180606001604052803373ffffffffffffffffffffffffffffffffffffffff1681526020018281526020018381525060086000600654815260200190815260200160002060008201518160000160006101000a81548173ffffffffffffffffffffffffffffffffffffffff021916908373ffffffffffffffffffffffffffffffffffffffff16021790555060208201518160010155604082015181600201559050505050565b600082116150fd57600080fd5b6001600a60008282540192505081905550600e600a54908060018154018082558091505060019003906000526020600020016000909190919091505560405180606001604052803373ffffffffffffffffffffffffffffffffffffffff16815260200182815260200183815250600b6000600a54815260200190815260200160002060008201518160000160006101000a81548173ffffffffffffffffffffffffffffffffffffffff021916908373ffffffffffffffffffffffffffffffffffffffff1602179055506020820151816001015560408201518160020155905050505056fea26469706673582212205747024cd2a11937b55a7ee27f462a8dba26042ed682d7b992fc464958c3335064736f6c63430006080033",
  "immutableReferences": {},
  "source": "pragma solidity >=0.6.8;\n\nimport \"./AToken.sol\";\nimport \"./BToken.sol\";\nimport {ITokenSwap} from \"./interfaces/ITokenSwap.sol\";\nimport {ReentrancyGuard} from \"@openzeppelin/contracts/utils/ReentrancyGuard.sol\";\nimport {SafeMath} from \"@openzeppelin/contracts/math/SafeMath.sol\";\nimport {Math} from \"@openzeppelin/contracts/math/Math.sol\";\nimport {SafeERC20} from \"@openzeppelin/contracts/token/ERC20/SafeERC20.sol\";\nimport {IERC20} from \"@openzeppelin/contracts/token/ERC20/IERC20.sol\";\n\ncontract TokenSwap is ITokenSwap, ReentrancyGuard {\n    using SafeMath for uint256;\n    using SafeMath for uint8;\n    using Math for uint256;\n\n    string public name = \"TokenSwap Instant Exchange\";\n    AToken public aToken;\n    uint256 public aRate = 1000;\n    BToken public bToken;\n    uint256 public bRate = 1000;\n\n    constructor(AToken _aToken, BToken _bToken) public {\n        //pass the address of the Token in\n        aToken = _aToken;\n        bToken = _bToken;\n    }\n\n    function buyATokens() public payable {\n        // Calculate the number of tokens to buy\n        uint256 tokenAmount = msg.value * aRate; //msg.value = how much ether was sent\n\n        // Require that TokenSwap has enough tokens\n        require(aToken.balanceOf(address(this)) >= tokenAmount);\n\n        // Transfer tokens to the user\n        aToken.transfer(msg.sender, tokenAmount);\n\n        // // emit an event\n        // emit TokensPurchased(msg.sender, address(aToken), tokenAmount, aRate);\n    }\n\n    function sellATokens(uint256 _amount) public {\n        // User can't sell more tokens than they have\n        require(aToken.balanceOf(msg.sender) >= _amount);\n\n        // Calculate the amount of Ether to redeem\n        uint256 etherAmount = _amount / aRate;\n\n        // Require that TokenSwap has enough Ether\n        require(address(this).balance >= etherAmount);\n\n        // Perform sale\n        aToken.transferFrom(msg.sender, address(this), _amount);\n        msg.sender.transfer(etherAmount);\n\n        // // emit an event\n        // emit TokensSold(msg.sender, address(aToken), _amount, aRate);\n    }\n\n    function buyBTokens() public payable {\n        // Calculate the number of tokens to buy\n        uint256 tokenAmount = msg.value * bRate; //msg.value = how much ether was sent\n\n        // Require that TokenSwap has enough tokens\n        require(bToken.balanceOf(address(this)) >= tokenAmount);\n\n        // Transfer tokens to the user\n        bToken.transfer(msg.sender, tokenAmount);\n\n        // // emit an event\n        // emit TokensPurchased(msg.sender, address(bToken), tokenAmount, bRate);\n    }\n\n    function sellBTokens(uint256 _amount) public {\n        // User can't sell more tokens than they have\n        require(bToken.balanceOf(msg.sender) >= _amount);\n\n        // Calculate the amount of Ether to redeem\n        uint256 etherAmount = _amount / bRate;\n\n        // Require that TokenSwap has enough Ether\n        require(address(this).balance >= etherAmount);\n\n        // Perform sale\n        bToken.transferFrom(msg.sender, address(this), _amount);\n        msg.sender.transfer(etherAmount);\n\n        // // emit an event\n        // emit TokensSold(msg.sender, address(bToken), _amount, bRate);\n    }\n\n    ///////////////////////////////////////////////////////////////////////// ORDERBOOK //////////////////////////////////////////////////////////////////////////////////////////\n\n    uint256 public buyCounter = 0;\n    uint256 public minSellRate;\n    mapping(uint256 => NewOrder) public newBuyOrderBook;\n    uint256 public idOfBuyRate;\n\n    uint256 public sellCounter = 0;\n    mapping(uint256 => NewOrder) public newSellOrderBook;\n    uint256 public idOfSellRate;\n    uint256 public maxBuyRate;\n\n    uint256[] public sellrateid;\n    uint256[] public buyrateid;\n\n    uint256[] public amountsell;\n    uint256[] public amountbuy;\n\n    uint256[] buyorderbookArrary;\n    uint256[] sellorderbookArrary;\n\n    function getbuyrate() public returns (uint256[] memory) {\n        return buyrateid;\n    }\n\n    function getsellrate() public returns (uint256[] memory) {\n        return sellrateid;\n    }\n\n\n    //buy B using A\n    function atob(uint256 b, uint256 a) external override nonReentrant {\n        require(aToken.balanceOf(msg.sender) >= a);\n\n        aToken.transferFrom(msg.sender, address(this), a);\n        // emit ATokensSent(msg.sender, address(this),a);\n        uint256 rate = a / b;\n        bool toAdd = true;\n\n        for (uint256 i = 0; i < sellrateid.length; i++) {\n            idOfSellRate = sellrateid[i];\n            minSellRate = newSellOrderBook[idOfSellRate].rate;\n\n            if (rate >= minSellRate && minSellRate > 0) {\n                //give best order\n                toAdd = false;\n                if (newSellOrderBook[idOfSellRate].amount > b) {\n                    uint256 newAmount = newSellOrderBook[idOfSellRate].amount -\n                        b;\n                    newSellOrderBook[idOfSellRate].amount = newAmount; //replace old amount with new\n                    // transfer\n                    aToken.transfer(newSellOrderBook[idOfSellRate].maker, a);\n                    bToken.transfer(msg.sender, a / minSellRate);\n                    // emit ATokensSent( address(this), newSellOrderBook[idOfSellRate].maker, a);\n                    // emit BTokensSent( address(this), msg.sender,a / minSellRate);\n                } else if (newSellOrderBook[idOfSellRate].amount == b) {\n                    // transfer\n                    aToken.transfer(newSellOrderBook[idOfSellRate].maker, a);\n                    bToken.transfer(msg.sender, a / minSellRate);\n                    // emit ATokensSent( address(this), newSellOrderBook[idOfSellRate].maker, a);\n                    // emit BTokensSent( address(this), msg.sender,a / minSellRate);                    \n                    // update the minSellRate\n                    delete newSellOrderBook[idOfSellRate];\n                    for (uint256 j = i; j < sellrateid.length - 1; j++) {\n                        sellrateid[j] = sellrateid[j + 1];\n                    }\n                    sellrateid.pop();\n                } else if (newSellOrderBook[idOfSellRate].amount < b) {\n                    aToken.transfer(\n                        newSellOrderBook[idOfSellRate].maker,\n                        newSellOrderBook[idOfSellRate].amount\n                    );\n                    bToken.transfer(\n                        msg.sender,\n                        newSellOrderBook[idOfSellRate].amount / minSellRate\n                    );\n                    // emit ATokensSent( address(this), newSellOrderBook[idOfSellRate].maker, newSellOrderBook[idOfSellRate].amount);\n                    // emit BTokensSent( address(this), msg.sender,newSellOrderBook[idOfSellRate].amount / minSellRate);\n\n                    delete newSellOrderBook[idOfSellRate];\n                    for (uint256 j = i; j < sellrateid.length - 1; j++) {\n                        sellrateid[j] = sellrateid[j + 1];\n                    }\n                    sellrateid.pop();\n                    _atobBook(rate, a - newSellOrderBook[idOfSellRate].amount);\n                }\n                break;\n            }\n        }\n\n        if (a > 0 && toAdd) {\n            _atobBook(rate, a);\n        }\n    }\n\n function atobInverseRate(uint256 b, uint256 a) external override nonReentrant {\n        require(aToken.balanceOf(msg.sender) >= a, \"hello error here atob\");\n\n        aToken.transferFrom(msg.sender, address(this), a);\n        // emit ATokensSent(msg.sender, address(this),a);\n\n        uint256 rate = b / a;\n        bool toAdd = true;\n\n        for (uint256 i = 0; i < sellrateid.length; i++) {\n            idOfSellRate = sellrateid[i];\n            minSellRate = newSellOrderBook[idOfSellRate].rate;\n\n            if (rate >= minSellRate && minSellRate > 0) {\n                //give best order\n                toAdd = false;\n                if (newSellOrderBook[idOfSellRate].amount > b) {\n                    uint256 newAmount = newSellOrderBook[idOfSellRate].amount -\n                        b;\n                    newSellOrderBook[idOfSellRate].amount = newAmount; //replace old amount with new\n                    // transfer\n                    aToken.transfer(newSellOrderBook[idOfSellRate].maker, a);\n                    bToken.transfer(msg.sender, a / minSellRate);\n                    // emit ATokensSent( address(this), newSellOrderBook[idOfSellRate].maker, a);\n                    // emit BTokensSent( address(this), msg.sender,a / minSellRate);\n                } else if (newSellOrderBook[idOfSellRate].amount == b) {\n                    // transfer\n                    aToken.transfer(newSellOrderBook[idOfSellRate].maker, a);\n                    bToken.transfer(msg.sender, a / minSellRate);\n                    // emit ATokensSent( address(this), newSellOrderBook[idOfSellRate].maker, a);\n                    // emit BTokensSent( address(this), msg.sender,a / minSellRate);\n\n                    delete newSellOrderBook[idOfSellRate];\n                    for (uint256 j = i; j < sellrateid.length - 1; j++) {\n                        sellrateid[j] = sellrateid[j + 1];\n                    }\n                    sellrateid.pop();\n                } else if (newSellOrderBook[idOfSellRate].amount < b) {\n                    aToken.transfer(\n                        newSellOrderBook[idOfSellRate].maker,\n                        newSellOrderBook[idOfSellRate].amount\n                    );\n                    bToken.transfer(\n                        msg.sender,\n                        newSellOrderBook[idOfSellRate].amount / minSellRate\n                    );\n                    // emit ATokensSent( address(this), newSellOrderBook[idOfSellRate].maker, newSellOrderBook[idOfSellRate].amount);\n                    // emit BTokensSent( address(this), msg.sender,newSellOrderBook[idOfSellRate].amount / minSellRate);\n\n                    delete newSellOrderBook[idOfSellRate];\n                    for (uint256 j = i; j < sellrateid.length - 1; j++) {\n                        sellrateid[j] = sellrateid[j + 1];\n                    }\n                    sellrateid.pop();\n                    _atobBook(rate, a - newSellOrderBook[idOfSellRate].amount);\n                }\n                break;\n            }\n        }\n\n        if (a > 0 && toAdd) {\n            _atobBook(rate, a);\n        }\n    }\n\n\n    function maxNumber(uint256 a, uint256 b) internal pure returns (uint256) {\n        return a >= b ? a : b;\n    }\n\n    function minNumber(uint256 a, uint256 b) internal pure returns (uint256) {\n        return a <= b ? a : b;\n    }\n\n    function _atobBook(uint256 rate, uint256 a) internal {\n        require(rate > 0);\n        buyCounter += 1;\n        buyrateid.push(buyCounter);\n        newBuyOrderBook[buyCounter] = NewOrder(msg.sender, a, rate);\n    }\n\n    // buy A using b\n    function btoa(uint256 a, uint256 b) external override nonReentrant {\n        require(bToken.balanceOf(msg.sender) >= b);\n        amountbuy.push(b);\n        amountbuy.push(a);\n        bToken.transferFrom(msg.sender, address(this), b);\n        // emit BTokensSent(msg.sender, address(this),b);\n\n        uint256 rate = a / b;\n        bool toAdd = true;\n\n        for (uint256 i = 0; i < buyrateid.length; i++) {\n            idOfBuyRate = buyrateid[i];\n            maxBuyRate = newBuyOrderBook[idOfBuyRate].rate;\n\n            if (rate <= maxBuyRate && maxBuyRate > 0) {\n                toAdd = false;\n                if (newBuyOrderBook[idOfBuyRate].amount > a) {\n                    amountbuy.push(newBuyOrderBook[idOfBuyRate].amount);\n                    amountbuy.push(b);\n                    uint256 newAmount = newBuyOrderBook[idOfBuyRate].amount - a;\n                    newBuyOrderBook[idOfBuyRate].amount = newAmount; //replace old amount with new\n                    amountbuy.push(newBuyOrderBook[idOfBuyRate].amount);\n                    // transfer\n                    bToken.transfer(newBuyOrderBook[idOfBuyRate].maker, b);\n                    aToken.transfer(msg.sender, b * maxBuyRate);\n                    // emit BTokensSent( address(this), newBuyOrderBook[idOfBuyRate].maker,b);\n                    // emit ATokensSent( address(this), msg.sender,b * maxBuyRate);\n\n\n                } else if (newBuyOrderBook[idOfBuyRate].amount == a) {\n                    // transfer\n                    bToken.transfer(newBuyOrderBook[idOfBuyRate].maker, b);\n                    aToken.transfer(msg.sender, b * maxBuyRate);\n                    // emit BTokensSent( address(this), newBuyOrderBook[idOfBuyRate].maker,b);\n                    // emit ATokensSent( address(this), msg.sender,b * maxBuyRate);\n                    // update the minSellRate\n                    delete newBuyOrderBook[idOfBuyRate];\n                    for (uint256 j = i; j < buyrateid.length - 1; j++) {\n                        buyrateid[j] = buyrateid[j + 1];\n                    }\n                    buyrateid.pop();\n                } else if (newBuyOrderBook[idOfBuyRate].amount < a) {\n                    bToken.transfer(\n                        newBuyOrderBook[idOfBuyRate].maker,\n                        newBuyOrderBook[idOfBuyRate].amount\n                    );\n                    aToken.transfer(\n                        msg.sender,\n                        newBuyOrderBook[idOfBuyRate].amount * maxBuyRate\n                    );\n                    // emit BTokensSent( address(this), newBuyOrderBook[idOfBuyRate].maker, newBuyOrderBook[idOfBuyRate].amount);\n                    // emit ATokensSent( address(this), msg.sender,newBuyOrderBook[idOfBuyRate].amount * maxBuyRate);\n                    delete newBuyOrderBook[idOfBuyRate];\n                    for (uint256 j = i; j < buyrateid.length - 1; j++) {\n                        buyrateid[j] = buyrateid[j + 1];\n                    }\n                    buyrateid.pop();\n                    _btoaBook(rate, b - newBuyOrderBook[idOfBuyRate].amount);\n                }\n                break;\n            }\n        }\n\n        if (b > 0 && toAdd) {\n            _btoaBook(rate, b);\n        }\n    }\n    function btoaInverseRate(uint256 a, uint256 b) external override nonReentrant {\n        require(bToken.balanceOf(msg.sender) >= b);\n        amountbuy.push(b);\n        amountbuy.push(a);\n        bToken.transferFrom(msg.sender, address(this), b);\n        // emit BTokensSent(msg.sender, address(this),b);\n\n        uint256 rate = b / a;\n        bool toAdd = true;\n\n        for (uint256 i = 0; i < buyrateid.length; i++) {\n            idOfBuyRate = buyrateid[i];\n            maxBuyRate = newBuyOrderBook[idOfBuyRate].rate;\n\n            if (rate <= maxBuyRate && maxBuyRate > 0) {\n                toAdd = false;\n                if (newBuyOrderBook[idOfBuyRate].amount > a) {\n                    amountbuy.push(newBuyOrderBook[idOfBuyRate].amount);\n                    amountbuy.push(b);\n                    uint256 newAmount = newBuyOrderBook[idOfBuyRate].amount - a;\n                    newBuyOrderBook[idOfBuyRate].amount = newAmount; //replace old amount with new\n                    amountbuy.push(newBuyOrderBook[idOfBuyRate].amount);\n                    // transfer\n                    bToken.transfer(newBuyOrderBook[idOfBuyRate].maker, b);\n                    aToken.transfer(msg.sender, b * maxBuyRate);\n\n                    // emit BTokensSent( address(this), newBuyOrderBook[idOfBuyRate].maker,b);\n                    // emit ATokensSent( address(this), msg.sender,b * maxBuyRate);\n\n                } else if (newBuyOrderBook[idOfBuyRate].amount == a) {\n                    // transfer\n                    bToken.transfer(newBuyOrderBook[idOfBuyRate].maker, b);\n                    aToken.transfer(msg.sender, b * maxBuyRate);\n\n                    // emit BTokensSent( address(this), newBuyOrderBook[idOfBuyRate].maker,b);\n                    // emit ATokensSent( address(this), msg.sender,b * maxBuyRate);\n                    // update the minSellRate\n                    delete newBuyOrderBook[idOfBuyRate];\n                    for (uint256 j = i; j < buyrateid.length - 1; j++) {\n                        buyrateid[j] = buyrateid[j + 1];\n                    }\n                    buyrateid.pop();\n                } else if (newBuyOrderBook[idOfBuyRate].amount < a) {\n                    bToken.transfer(\n                        newBuyOrderBook[idOfBuyRate].maker,\n                        newBuyOrderBook[idOfBuyRate].amount\n                    );\n                    aToken.transfer(\n                        msg.sender,\n                        newBuyOrderBook[idOfBuyRate].amount * maxBuyRate\n                    );\n                    // emit BTokensSent( address(this), newBuyOrderBook[idOfBuyRate].maker, newBuyOrderBook[idOfBuyRate].amount);\n                    // emit ATokensSent( address(this), msg.sender,newBuyOrderBook[idOfBuyRate].amount * maxBuyRate);\n\n                    delete newBuyOrderBook[idOfBuyRate];\n                    for (uint256 j = i; j < buyrateid.length - 1; j++) {\n                        buyrateid[j] = buyrateid[j + 1];\n                    }\n                    buyrateid.pop();\n                    _btoaBook(rate, b - newBuyOrderBook[idOfBuyRate].amount);\n                }\n                break;\n            }\n        }\n\n        if (b > 0 && toAdd) {\n            _btoaBook(rate, b);\n        }\n    }\n\n    function _btoaBook(uint256 rate, uint256 b) internal {\n        require(rate > 0);\n        sellCounter += 1;\n        sellrateid.push(sellCounter);\n\n        newSellOrderBook[sellCounter] = NewOrder(msg.sender, b, rate);\n        // // emit DrawToSellBook(msg.sender, rate, amountSold);\n    }\n\n    function deleteBuyOrders() public {\n        for (uint256 i = 0; i < buyrateid.length; i++) {\n            uint256 key = buyrateid[i];\n            if (msg.sender == newBuyOrderBook[key].maker) {\n                aToken.transfer(msg.sender, newBuyOrderBook[key].amount);\n                delete newBuyOrderBook[key];\n                for (uint256 j = i; j < buyrateid.length - 1; j++) {\n                    buyrateid[j] = buyrateid[j + 1];\n                }\n                buyrateid.pop();\n                i--;\n            }\n        }\n    }\n\n    function deleteSellOrders() public {\n        for (uint256 i = 0; i < sellrateid.length; i++) {\n            uint256 key = sellrateid[i];\n            if (msg.sender == newSellOrderBook[key].maker) {\n                bToken.transfer(msg.sender, newSellOrderBook[key].amount);\n                delete newSellOrderBook[key];\n                for (uint256 j = i; j < sellrateid.length - 1; j++) {\n                    sellrateid[j] = sellrateid[j + 1];\n                }\n                sellrateid.pop();\n                i--;\n            }\n        }\n    }\n\n    function getBuyOrderBook(address account)\n        public\n        returns (uint256[] memory)\n    {\n        for (uint256 i = 0; i < buyrateid.length; i++) {\n            uint256 key = buyrateid[i];\n            if (account == newBuyOrderBook[key].maker) {\n                buyorderbookArrary.push(\n                    newBuyOrderBook[key].amount / newBuyOrderBook[key].rate\n                );\n            }\n        }\n\n        return buyorderbookArrary;\n    }\n\n    function getSellOrderBook(address account)\n        public\n        returns (uint256[] memory)\n    {\n        for (uint256 i = 0; i < sellrateid.length; i++) {\n            uint256 key = sellrateid[i];\n            if (account == newSellOrderBook[key].maker) {\n                sellorderbookArrary.push(\n                    newSellOrderBook[key].amount * newSellOrderBook[key].rate\n                );\n            }\n        }\n\n        return sellorderbookArrary;\n    }\n\n \n}\n",
  "sourcePath": "/Users/yiheng/Documents/NTU/Y4S2/CZ4153 Blockchain/crypto_exchange/Blockchain-DEX/src/contracts/TokenSwap.sol",
  "compiler": {
    "name": "solc",
    "version": "0.6.8+commit.0bbfe453.Emscripten.clang"
  },
  "schemaVersion": "3.4.10",
  "updatedAt": "2022-11-04T08:10:52.745Z",
  "networkType": "ethereum",
  "devdoc": {
    "methods": {}
  },
  "userdoc": {
    "methods": {}
  }
}