{
  "contractName": "TokenSwap",
  "abi": [
    {
      "inputs": [
        {
          "internalType": "contract AToken",
          "name": "_aToken",
          "type": "address"
        },
        {
          "internalType": "contract BToken",
          "name": "_bToken",
          "type": "address"
        }
      ],
      "stateMutability": "nonpayable",
      "type": "constructor"
    },
    {
      "anonymous": false,
      "inputs": [
        {
          "indexed": false,
          "internalType": "address",
          "name": "account",
          "type": "address"
        },
        {
          "indexed": false,
          "internalType": "address",
          "name": "token",
          "type": "address"
        },
        {
          "indexed": false,
          "internalType": "uint256",
          "name": "amount",
          "type": "uint256"
        },
        {
          "indexed": false,
          "internalType": "uint256",
          "name": "rate",
          "type": "uint256"
        }
      ],
      "name": "BTokensPurchased",
      "type": "event"
    },
    {
      "anonymous": false,
      "inputs": [
        {
          "indexed": false,
          "internalType": "address",
          "name": "account",
          "type": "address"
        },
        {
          "indexed": false,
          "internalType": "address",
          "name": "token",
          "type": "address"
        },
        {
          "indexed": false,
          "internalType": "uint256",
          "name": "amount",
          "type": "uint256"
        },
        {
          "indexed": false,
          "internalType": "uint256",
          "name": "rate",
          "type": "uint256"
        }
      ],
      "name": "BTokensSold",
      "type": "event"
    },
    {
      "anonymous": false,
      "inputs": [
        {
          "indexed": false,
          "internalType": "address",
          "name": "sender",
          "type": "address"
        },
        {
          "indexed": false,
          "internalType": "uint256",
          "name": "price",
          "type": "uint256"
        },
        {
          "indexed": false,
          "internalType": "uint256",
          "name": "amountOfBaseToken",
          "type": "uint256"
        }
      ],
      "name": "DrawToBuyBook",
      "type": "event"
    },
    {
      "anonymous": false,
      "inputs": [
        {
          "indexed": false,
          "internalType": "address",
          "name": "sender",
          "type": "address"
        },
        {
          "indexed": false,
          "internalType": "uint256",
          "name": "price",
          "type": "uint256"
        },
        {
          "indexed": false,
          "internalType": "uint256",
          "name": "amountOfTradeToken",
          "type": "uint256"
        }
      ],
      "name": "DrawToSellBook",
      "type": "event"
    },
    {
      "anonymous": false,
      "inputs": [
        {
          "indexed": false,
          "internalType": "address",
          "name": "sender",
          "type": "address"
        },
        {
          "indexed": false,
          "internalType": "uint256",
          "name": "price",
          "type": "uint256"
        },
        {
          "indexed": false,
          "internalType": "uint256",
          "name": "amountOfBaseToken",
          "type": "uint256"
        }
      ],
      "name": "PlaceBuyOrder",
      "type": "event"
    },
    {
      "anonymous": false,
      "inputs": [
        {
          "indexed": false,
          "internalType": "address",
          "name": "sender",
          "type": "address"
        },
        {
          "indexed": false,
          "internalType": "uint256",
          "name": "price",
          "type": "uint256"
        },
        {
          "indexed": false,
          "internalType": "uint256",
          "name": "amountOfTradeToken",
          "type": "uint256"
        }
      ],
      "name": "PlaceSellOrder",
      "type": "event"
    },
    {
      "anonymous": false,
      "inputs": [
        {
          "indexed": false,
          "internalType": "address",
          "name": "account",
          "type": "address"
        },
        {
          "indexed": false,
          "internalType": "address",
          "name": "token",
          "type": "address"
        },
        {
          "indexed": false,
          "internalType": "uint256",
          "name": "amount",
          "type": "uint256"
        },
        {
          "indexed": false,
          "internalType": "uint256",
          "name": "rate",
          "type": "uint256"
        }
      ],
      "name": "TokensPurchased",
      "type": "event"
    },
    {
      "anonymous": false,
      "inputs": [
        {
          "indexed": false,
          "internalType": "address",
          "name": "account",
          "type": "address"
        },
        {
          "indexed": false,
          "internalType": "address",
          "name": "token",
          "type": "address"
        },
        {
          "indexed": false,
          "internalType": "uint256",
          "name": "amount",
          "type": "uint256"
        },
        {
          "indexed": false,
          "internalType": "uint256",
          "name": "rate",
          "type": "uint256"
        }
      ],
      "name": "TokensSold",
      "type": "event"
    },
    {
      "inputs": [],
      "name": "aRate",
      "outputs": [
        {
          "internalType": "uint256",
          "name": "",
          "type": "uint256"
        }
      ],
      "stateMutability": "view",
      "type": "function",
      "constant": true
    },
    {
      "inputs": [],
      "name": "aToken",
      "outputs": [
        {
          "internalType": "contract AToken",
          "name": "",
          "type": "address"
        }
      ],
      "stateMutability": "view",
      "type": "function",
      "constant": true
    },
    {
      "inputs": [
        {
          "internalType": "uint256",
          "name": "",
          "type": "uint256"
        }
      ],
      "name": "amountbuy",
      "outputs": [
        {
          "internalType": "uint256",
          "name": "",
          "type": "uint256"
        }
      ],
      "stateMutability": "view",
      "type": "function",
      "constant": true
    },
    {
      "inputs": [
        {
          "internalType": "uint256",
          "name": "",
          "type": "uint256"
        }
      ],
      "name": "amountsell",
      "outputs": [
        {
          "internalType": "uint256",
          "name": "",
          "type": "uint256"
        }
      ],
      "stateMutability": "view",
      "type": "function",
      "constant": true
    },
    {
      "inputs": [],
      "name": "bRate",
      "outputs": [
        {
          "internalType": "uint256",
          "name": "",
          "type": "uint256"
        }
      ],
      "stateMutability": "view",
      "type": "function",
      "constant": true
    },
    {
      "inputs": [],
      "name": "bToken",
      "outputs": [
        {
          "internalType": "contract BToken",
          "name": "",
          "type": "address"
        }
      ],
      "stateMutability": "view",
      "type": "function",
      "constant": true
    },
    {
      "inputs": [],
      "name": "baseToken",
      "outputs": [
        {
          "internalType": "contract IERC20",
          "name": "",
          "type": "address"
        }
      ],
      "stateMutability": "view",
      "type": "function",
      "constant": true
    },
    {
      "inputs": [],
      "name": "buyCounter",
      "outputs": [
        {
          "internalType": "uint256",
          "name": "",
          "type": "uint256"
        }
      ],
      "stateMutability": "view",
      "type": "function",
      "constant": true
    },
    {
      "inputs": [
        {
          "internalType": "uint256",
          "name": "",
          "type": "uint256"
        },
        {
          "internalType": "uint8",
          "name": "",
          "type": "uint8"
        }
      ],
      "name": "buyOrdersInStep",
      "outputs": [
        {
          "internalType": "address",
          "name": "maker",
          "type": "address"
        },
        {
          "internalType": "uint256",
          "name": "amount",
          "type": "uint256"
        }
      ],
      "stateMutability": "view",
      "type": "function",
      "constant": true
    },
    {
      "inputs": [
        {
          "internalType": "uint256",
          "name": "",
          "type": "uint256"
        }
      ],
      "name": "buyOrdersInStepCounter",
      "outputs": [
        {
          "internalType": "uint8",
          "name": "",
          "type": "uint8"
        }
      ],
      "stateMutability": "view",
      "type": "function",
      "constant": true
    },
    {
      "inputs": [
        {
          "internalType": "uint256",
          "name": "",
          "type": "uint256"
        }
      ],
      "name": "buySteps",
      "outputs": [
        {
          "internalType": "uint256",
          "name": "higherPrice",
          "type": "uint256"
        },
        {
          "internalType": "uint256",
          "name": "lowerPrice",
          "type": "uint256"
        },
        {
          "internalType": "uint256",
          "name": "amount",
          "type": "uint256"
        }
      ],
      "stateMutability": "view",
      "type": "function",
      "constant": true
    },
    {
      "inputs": [
        {
          "internalType": "uint256",
          "name": "",
          "type": "uint256"
        }
      ],
      "name": "buyrateid",
      "outputs": [
        {
          "internalType": "uint256",
          "name": "",
          "type": "uint256"
        }
      ],
      "stateMutability": "view",
      "type": "function",
      "constant": true
    },
    {
      "inputs": [],
      "name": "idOfBuyRate",
      "outputs": [
        {
          "internalType": "uint256",
          "name": "",
          "type": "uint256"
        }
      ],
      "stateMutability": "view",
      "type": "function",
      "constant": true
    },
    {
      "inputs": [],
      "name": "idOfSellRate",
      "outputs": [
        {
          "internalType": "uint256",
          "name": "",
          "type": "uint256"
        }
      ],
      "stateMutability": "view",
      "type": "function",
      "constant": true
    },
    {
      "inputs": [],
      "name": "maxBuyPrice",
      "outputs": [
        {
          "internalType": "uint256",
          "name": "",
          "type": "uint256"
        }
      ],
      "stateMutability": "view",
      "type": "function",
      "constant": true
    },
    {
      "inputs": [],
      "name": "maxBuyRate",
      "outputs": [
        {
          "internalType": "uint256",
          "name": "",
          "type": "uint256"
        }
      ],
      "stateMutability": "view",
      "type": "function",
      "constant": true
    },
    {
      "inputs": [],
      "name": "minSellPrice",
      "outputs": [
        {
          "internalType": "uint256",
          "name": "",
          "type": "uint256"
        }
      ],
      "stateMutability": "view",
      "type": "function",
      "constant": true
    },
    {
      "inputs": [],
      "name": "minSellRate",
      "outputs": [
        {
          "internalType": "uint256",
          "name": "",
          "type": "uint256"
        }
      ],
      "stateMutability": "view",
      "type": "function",
      "constant": true
    },
    {
      "inputs": [],
      "name": "name",
      "outputs": [
        {
          "internalType": "string",
          "name": "",
          "type": "string"
        }
      ],
      "stateMutability": "view",
      "type": "function",
      "constant": true
    },
    {
      "inputs": [
        {
          "internalType": "uint256",
          "name": "",
          "type": "uint256"
        }
      ],
      "name": "newBuyOrderBook",
      "outputs": [
        {
          "internalType": "address",
          "name": "maker",
          "type": "address"
        },
        {
          "internalType": "uint256",
          "name": "amount",
          "type": "uint256"
        },
        {
          "internalType": "uint256",
          "name": "rate",
          "type": "uint256"
        }
      ],
      "stateMutability": "view",
      "type": "function",
      "constant": true
    },
    {
      "inputs": [
        {
          "internalType": "uint256",
          "name": "",
          "type": "uint256"
        }
      ],
      "name": "newSellOrderBook",
      "outputs": [
        {
          "internalType": "address",
          "name": "maker",
          "type": "address"
        },
        {
          "internalType": "uint256",
          "name": "amount",
          "type": "uint256"
        },
        {
          "internalType": "uint256",
          "name": "rate",
          "type": "uint256"
        }
      ],
      "stateMutability": "view",
      "type": "function",
      "constant": true
    },
    {
      "inputs": [],
      "name": "sellCounter",
      "outputs": [
        {
          "internalType": "uint256",
          "name": "",
          "type": "uint256"
        }
      ],
      "stateMutability": "view",
      "type": "function",
      "constant": true
    },
    {
      "inputs": [
        {
          "internalType": "uint256",
          "name": "",
          "type": "uint256"
        },
        {
          "internalType": "uint8",
          "name": "",
          "type": "uint8"
        }
      ],
      "name": "sellOrdersInStep",
      "outputs": [
        {
          "internalType": "address",
          "name": "maker",
          "type": "address"
        },
        {
          "internalType": "uint256",
          "name": "amount",
          "type": "uint256"
        }
      ],
      "stateMutability": "view",
      "type": "function",
      "constant": true
    },
    {
      "inputs": [
        {
          "internalType": "uint256",
          "name": "",
          "type": "uint256"
        }
      ],
      "name": "sellOrdersInStepCounter",
      "outputs": [
        {
          "internalType": "uint8",
          "name": "",
          "type": "uint8"
        }
      ],
      "stateMutability": "view",
      "type": "function",
      "constant": true
    },
    {
      "inputs": [
        {
          "internalType": "uint256",
          "name": "",
          "type": "uint256"
        }
      ],
      "name": "sellSteps",
      "outputs": [
        {
          "internalType": "uint256",
          "name": "higherPrice",
          "type": "uint256"
        },
        {
          "internalType": "uint256",
          "name": "lowerPrice",
          "type": "uint256"
        },
        {
          "internalType": "uint256",
          "name": "amount",
          "type": "uint256"
        }
      ],
      "stateMutability": "view",
      "type": "function",
      "constant": true
    },
    {
      "inputs": [
        {
          "internalType": "uint256",
          "name": "",
          "type": "uint256"
        }
      ],
      "name": "sellrateid",
      "outputs": [
        {
          "internalType": "uint256",
          "name": "",
          "type": "uint256"
        }
      ],
      "stateMutability": "view",
      "type": "function",
      "constant": true
    },
    {
      "inputs": [],
      "name": "selltx",
      "outputs": [
        {
          "internalType": "uint256",
          "name": "",
          "type": "uint256"
        }
      ],
      "stateMutability": "view",
      "type": "function",
      "constant": true
    },
    {
      "inputs": [],
      "name": "tradeToken",
      "outputs": [
        {
          "internalType": "contract IERC20",
          "name": "",
          "type": "address"
        }
      ],
      "stateMutability": "view",
      "type": "function",
      "constant": true
    },
    {
      "inputs": [],
      "name": "buyATokens",
      "outputs": [],
      "stateMutability": "payable",
      "type": "function",
      "payable": true
    },
    {
      "inputs": [
        {
          "internalType": "uint256",
          "name": "_amount",
          "type": "uint256"
        }
      ],
      "name": "sellATokens",
      "outputs": [],
      "stateMutability": "nonpayable",
      "type": "function"
    },
    {
      "inputs": [],
      "name": "buyBTokens",
      "outputs": [],
      "stateMutability": "payable",
      "type": "function",
      "payable": true
    },
    {
      "inputs": [
        {
          "internalType": "uint256",
          "name": "_amount",
          "type": "uint256"
        }
      ],
      "name": "sellBTokens",
      "outputs": [],
      "stateMutability": "nonpayable",
      "type": "function"
    },
    {
      "inputs": [],
      "name": "getbuyrate",
      "outputs": [
        {
          "internalType": "uint256[]",
          "name": "",
          "type": "uint256[]"
        }
      ],
      "stateMutability": "nonpayable",
      "type": "function"
    },
    {
      "inputs": [],
      "name": "getsellrate",
      "outputs": [
        {
          "internalType": "uint256[]",
          "name": "",
          "type": "uint256[]"
        }
      ],
      "stateMutability": "nonpayable",
      "type": "function"
    },
    {
      "inputs": [],
      "name": "getamountbuy",
      "outputs": [
        {
          "internalType": "uint256[]",
          "name": "",
          "type": "uint256[]"
        }
      ],
      "stateMutability": "nonpayable",
      "type": "function"
    },
    {
      "inputs": [
        {
          "internalType": "uint256",
          "name": "b",
          "type": "uint256"
        },
        {
          "internalType": "uint256",
          "name": "a",
          "type": "uint256"
        }
      ],
      "name": "atob",
      "outputs": [],
      "stateMutability": "nonpayable",
      "type": "function"
    },
    {
      "inputs": [
        {
          "internalType": "uint256",
          "name": "a",
          "type": "uint256"
        },
        {
          "internalType": "uint256",
          "name": "b",
          "type": "uint256"
        }
      ],
      "name": "btoa",
      "outputs": [],
      "stateMutability": "nonpayable",
      "type": "function"
    },
    {
      "inputs": [],
      "name": "deleteBuyOrders",
      "outputs": [],
      "stateMutability": "nonpayable",
      "type": "function"
    },
    {
      "inputs": [],
      "name": "deleteSellOrders",
      "outputs": [],
      "stateMutability": "nonpayable",
      "type": "function"
    },
    {
      "inputs": [
        {
          "internalType": "address",
          "name": "account",
          "type": "address"
        }
      ],
      "name": "getBuyOrderBook",
      "outputs": [
        {
          "internalType": "uint256[]",
          "name": "",
          "type": "uint256[]"
        }
      ],
      "stateMutability": "nonpayable",
      "type": "function"
    },
    {
      "inputs": [
        {
          "internalType": "address",
          "name": "account",
          "type": "address"
        }
      ],
      "name": "getSellOrderBook",
      "outputs": [
        {
          "internalType": "uint256[]",
          "name": "",
          "type": "uint256[]"
        }
      ],
      "stateMutability": "nonpayable",
      "type": "function"
    }
  ],
  "bytecode": "0x60806040526040518060400160405280601a81526020017f546f6b656e5377617020496e7374616e742045786368616e676500000000000081525060039080519060200190620000519291906200014d565b506103e86005556103e86007556000601055600060145560006018553480156200007a57600080fd5b50604051620044cd380380620044cd83398181016040526040811015620000a057600080fd5b810190808051906020019092919080519060200190929190505050600160008190555081600460006101000a81548173ffffffffffffffffffffffffffffffffffffffff021916908373ffffffffffffffffffffffffffffffffffffffff16021790555080600660006101000a81548173ffffffffffffffffffffffffffffffffffffffff021916908373ffffffffffffffffffffffffffffffffffffffff1602179055505050620001fc565b828054600181600116156101000203166002900490600052602060002090601f016020900481019282601f106200019057805160ff1916838001178555620001c1565b82800160010185558215620001c1579182015b82811115620001c0578251825591602001919060010190620001a3565b5b509050620001d09190620001d4565b5090565b620001f991905b80821115620001f5576000816000905550600101620001db565b5090565b90565b6142c1806200020c6000396000f3fe6080604052600436106102465760003560e01c806391ceedbf11610139578063c86f6639116100b6578063dd7f4e401161007a578063dd7f4e4014610cbb578063e7e8b38214610d0a578063ec4763b614610d5f578063f22dda4114610dae578063f36c758d14610de9578063f9193df014610e5557610246565b8063c86f663914610b5e578063cddfa2a414610b89578063ce72b86014610bb4578063d83678ac14610bbe578063dcb8e10614610c1557610246565b8063a4d0047d116100fd578063a4d0047d14610a1e578063b2bb39ef14610a49578063b9a541eb14610ad2578063c51b435014610afd578063c55dae6314610b0757610246565b806391ceedbf1461092f5780639237b46c1461095a578063947cde381461097157806399487e881461099c578063a0c1f15e146109c757610246565b8063540cecb3116101c75780636d9521171161018b5780636d9521171461075e5780636e94422c1461078957806376a4202e146107f55780638447eee6146108445780638544a5ec146108ea57610246565b8063540cecb3146106095780635632993b1461065857806361834641146106835780636bc69a241461069a5780636c0a9daa1461072357610246565b806333f393ee1161020e57806333f393ee146104735780633e2974e7146104b85780633edec69a146104e3578063433f88da1461050e57806350e3d8081461059d57610246565b80630446d1c61461024b57806304ebe308146102da57806306fdde031461032f578063180f5842146103bf5780632e78cd2414610416575b600080fd5b34801561025757600080fd5b506102916004803603604081101561026e57600080fd5b8101908080359060200190929190803560ff169060200190929190505050610eb2565b604051808373ffffffffffffffffffffffffffffffffffffffff1673ffffffffffffffffffffffffffffffffffffffff1681526020018281526020019250505060405180910390f35b3480156102e657600080fd5b50610313600480360360208110156102fd57600080fd5b8101908080359060200190929190505050610f03565b604051808260ff1660ff16815260200191505060405180910390f35b34801561033b57600080fd5b50610344610f23565b6040518080602001828103825283818151815260200191508051906020019080838360005b83811015610384578082015181840152602081019050610369565b50505050905090810190601f1680156103b15780820380516001836020036101000a031916815260200191505b509250505060405180910390f35b3480156103cb57600080fd5b506103d4610fc1565b604051808273ffffffffffffffffffffffffffffffffffffffff1673ffffffffffffffffffffffffffffffffffffffff16815260200191505060405180910390f35b34801561042257600080fd5b5061044f6004803603602081101561043957600080fd5b8101908080359060200190929190505050610fe7565b60405180848152602001838152602001828152602001935050505060405180910390f35b34801561047f57600080fd5b506104b66004803603604081101561049657600080fd5b810190808035906020019092919080359060200190929190505050611011565b005b3480156104c457600080fd5b506104cd611d5a565b6040518082815260200191505060405180910390f35b3480156104ef57600080fd5b506104f8611d60565b6040518082815260200191505060405180910390f35b34801561051a57600080fd5b506105546004803603604081101561053157600080fd5b8101908080359060200190929190803560ff169060200190929190505050611d66565b604051808373ffffffffffffffffffffffffffffffffffffffff1673ffffffffffffffffffffffffffffffffffffffff1681526020018281526020019250505060405180910390f35b3480156105a957600080fd5b506105b2611db7565b6040518080602001828103825283818151815260200191508051906020019060200280838360005b838110156105f55780820151818401526020810190506105da565b505050509050019250505060405180910390f35b34801561061557600080fd5b506106426004803603602081101561062c57600080fd5b8101908080359060200190929190505050611e0f565b6040518082815260200191505060405180910390f35b34801561066457600080fd5b5061066d611e30565b6040518082815260200191505060405180910390f35b34801561068f57600080fd5b50610698611e36565b005b3480156106a657600080fd5b506106d3600480360360208110156106bd57600080fd5b81019080803590602001909291905050506120ad565b604051808473ffffffffffffffffffffffffffffffffffffffff1673ffffffffffffffffffffffffffffffffffffffff168152602001838152602001828152602001935050505060405180910390f35b34801561072f57600080fd5b5061075c6004803603602081101561074657600080fd5b81019080803590602001909291905050506120f7565b005b34801561076a57600080fd5b50610773612440565b6040518082815260200191505060405180910390f35b34801561079557600080fd5b5061079e612446565b6040518080602001828103825283818151815260200191508051906020019060200280838360005b838110156107e15780820151818401526020810190506107c6565b505050509050019250505060405180910390f35b34801561080157600080fd5b5061082e6004803603602081101561081857600080fd5b810190808035906020019092919050505061249e565b6040518082815260200191505060405180910390f35b34801561085057600080fd5b506108936004803603602081101561086757600080fd5b81019080803573ffffffffffffffffffffffffffffffffffffffff1690602001909291905050506124bf565b6040518080602001828103825283818151815260200191508051906020019060200280838360005b838110156108d65780820151818401526020810190506108bb565b505050509050019250505060405180910390f35b3480156108f657600080fd5b5061092d6004803603604081101561090d57600080fd5b810190808035906020019092919080359060200190929190505050612619565b005b34801561093b57600080fd5b5061094461327a565b6040518082815260200191505060405180910390f35b34801561096657600080fd5b5061096f613280565b005b34801561097d57600080fd5b506109866134f7565b6040518082815260200191505060405180910390f35b3480156109a857600080fd5b506109b16134fd565b6040518082815260200191505060405180910390f35b3480156109d357600080fd5b506109dc613503565b604051808273ffffffffffffffffffffffffffffffffffffffff1673ffffffffffffffffffffffffffffffffffffffff16815260200191505060405180910390f35b348015610a2a57600080fd5b50610a33613529565b6040518082815260200191505060405180910390f35b348015610a5557600080fd5b50610a8260048036036020811015610a6c57600080fd5b810190808035906020019092919050505061352f565b604051808473ffffffffffffffffffffffffffffffffffffffff1673ffffffffffffffffffffffffffffffffffffffff168152602001838152602001828152602001935050505060405180910390f35b348015610ade57600080fd5b50610ae7613579565b6040518082815260200191505060405180910390f35b610b0561357f565b005b348015610b1357600080fd5b50610b1c613821565b604051808273ffffffffffffffffffffffffffffffffffffffff1673ffffffffffffffffffffffffffffffffffffffff16815260200191505060405180910390f35b348015610b6a57600080fd5b50610b73613847565b6040518082815260200191505060405180910390f35b348015610b9557600080fd5b50610b9e61384d565b6040518082815260200191505060405180910390f35b610bbc613853565b005b348015610bca57600080fd5b50610bd3613af5565b604051808273ffffffffffffffffffffffffffffffffffffffff1673ffffffffffffffffffffffffffffffffffffffff16815260200191505060405180910390f35b348015610c2157600080fd5b50610c6460048036036020811015610c3857600080fd5b81019080803573ffffffffffffffffffffffffffffffffffffffff169060200190929190505050613b1b565b6040518080602001828103825283818151815260200191508051906020019060200280838360005b83811015610ca7578082015181840152602081019050610c8c565b505050509050019250505060405180910390f35b348015610cc757600080fd5b50610cf460048036036020811015610cde57600080fd5b8101908080359060200190929190505050613c7c565b6040518082815260200191505060405180910390f35b348015610d1657600080fd5b50610d4360048036036020811015610d2d57600080fd5b8101908080359060200190929190505050613c9d565b604051808260ff1660ff16815260200191505060405180910390f35b348015610d6b57600080fd5b50610d9860048036036020811015610d8257600080fd5b8101908080359060200190929190505050613cbd565b6040518082815260200191505060405180910390f35b348015610dba57600080fd5b50610de760048036036020811015610dd157600080fd5b8101908080359060200190929190505050613cde565b005b348015610df557600080fd5b50610dfe614027565b6040518080602001828103825283818151815260200191508051906020019060200280838360005b83811015610e41578082015181840152602081019050610e26565b505050509050019250505060405180910390f35b348015610e6157600080fd5b50610e8e60048036036020811015610e7857600080fd5b810190808035906020019092919050505061407f565b60405180848152602001838152602001828152602001935050505060405180910390f35b600c602052816000526040600020602052806000526040600020600091509150508060000160009054906101000a900473ffffffffffffffffffffffffffffffffffffffff16908060010154905082565b600a6020528060005260406000206000915054906101000a900460ff1681565b60038054600181600116156101000203166002900480601f016020809104026020016040519081016040528092919081815260200182805460018160011615610100020316600290048015610fb95780601f10610f8e57610100808354040283529160200191610fb9565b820191906000526020600020905b815481529060010190602001808311610f9c57829003601f168201915b505050505081565b600660009054906101000a900473ffffffffffffffffffffffffffffffffffffffff1681565b60096020528060005260406000206000915090508060000154908060010154908060020154905083565b6002600054141561108a576040517f08c379a000000000000000000000000000000000000000000000000000000000815260040180806020018281038252601f8152602001807f5265656e7472616e637947756172643a207265656e7472616e742063616c6c0081525060200191505060405180910390fd5b600260008190555080600660009054906101000a900473ffffffffffffffffffffffffffffffffffffffff1673ffffffffffffffffffffffffffffffffffffffff166370a08231336040518263ffffffff1660e01b8152600401808273ffffffffffffffffffffffffffffffffffffffff1673ffffffffffffffffffffffffffffffffffffffff16815260200191505060206040518083038186803b15801561113257600080fd5b505afa158015611146573d6000803e3d6000fd5b505050506040513d602081101561115c57600080fd5b810190808051906020019092919050505010156111e1576040517f08c379a00000000000000000000000000000000000000000000000000000000081526004018080602001828103825260158152602001807f48656c6c6f206572726f7220686572652062746f61000000000000000000000081525060200191505060405180910390fd5b601c819080600181540180825580915050600190039060005260206000200160009091909190915055601c829080600181540180825580915050600190039060005260206000200160009091909190915055600660009054906101000a900473ffffffffffffffffffffffffffffffffffffffff1673ffffffffffffffffffffffffffffffffffffffff166323b872dd3330846040518463ffffffff1660e01b8152600401808473ffffffffffffffffffffffffffffffffffffffff1673ffffffffffffffffffffffffffffffffffffffff1681526020018373ffffffffffffffffffffffffffffffffffffffff1673ffffffffffffffffffffffffffffffffffffffff1681526020018281526020019350505050602060405180830381600087803b15801561131057600080fd5b505af1158015611324573d6000803e3d6000fd5b505050506040513d602081101561133a57600080fd5b810190808051906020019092919050505050600081838161135757fe5b04905060006001905060008090505b601a80549050811015611d2e57601a818154811061138057fe5b90600052602060002001546013819055506012600060135481526020019081526020016000206002015460178190555060175483111580156113c457506000601754115b15611d215760009150846012600060135481526020019081526020016000206001015411156116e057601c601260006013548152602001908152602001600020600101549080600181540180825580915050600190039060005260206000200160009091909190915055601c849080600181540180825580915050600190039060005260206000200160009091909190915055600085601260006013548152602001908152602001600020600101540390508060126000601354815260200190815260200160002060010181905550601c601260006013548152602001908152602001600020600101549080600181540180825580915050600190039060005260206000200160009091909190915055600660009054906101000a900473ffffffffffffffffffffffffffffffffffffffff1673ffffffffffffffffffffffffffffffffffffffff1663a9059cbb60126000601354815260200190815260200160002060000160009054906101000a900473ffffffffffffffffffffffffffffffffffffffff16876040518363ffffffff1660e01b8152600401808373ffffffffffffffffffffffffffffffffffffffff1673ffffffffffffffffffffffffffffffffffffffff16815260200182815260200192505050602060405180830381600087803b1580156115b557600080fd5b505af11580156115c9573d6000803e3d6000fd5b505050506040513d60208110156115df57600080fd5b810190808051906020019092919050505050600460009054906101000a900473ffffffffffffffffffffffffffffffffffffffff1673ffffffffffffffffffffffffffffffffffffffff1663a9059cbb3360175488026040518363ffffffff1660e01b8152600401808373ffffffffffffffffffffffffffffffffffffffff1673ffffffffffffffffffffffffffffffffffffffff16815260200182815260200192505050602060405180830381600087803b15801561169e57600080fd5b505af11580156116b2573d6000803e3d6000fd5b505050506040513d60208110156116c857600080fd5b81019080805190602001909291905050505050611d1c565b846012600060135481526020019081526020016000206001015414156119d557600660009054906101000a900473ffffffffffffffffffffffffffffffffffffffff1673ffffffffffffffffffffffffffffffffffffffff1663a9059cbb60126000601354815260200190815260200160002060000160009054906101000a900473ffffffffffffffffffffffffffffffffffffffff16866040518363ffffffff1660e01b8152600401808373ffffffffffffffffffffffffffffffffffffffff1673ffffffffffffffffffffffffffffffffffffffff16815260200182815260200192505050602060405180830381600087803b1580156117e157600080fd5b505af11580156117f5573d6000803e3d6000fd5b505050506040513d602081101561180b57600080fd5b810190808051906020019092919050505050600460009054906101000a900473ffffffffffffffffffffffffffffffffffffffff1673ffffffffffffffffffffffffffffffffffffffff1663a9059cbb3360175487026040518363ffffffff1660e01b8152600401808373ffffffffffffffffffffffffffffffffffffffff1673ffffffffffffffffffffffffffffffffffffffff16815260200182815260200192505050602060405180830381600087803b1580156118ca57600080fd5b505af11580156118de573d6000803e3d6000fd5b505050506040513d60208110156118f457600080fd5b810190808051906020019092919050505050601260006013548152602001908152602001600020600080820160006101000a81549073ffffffffffffffffffffffffffffffffffffffff021916905560018201600090556002820160009055505060008190505b6001601a80549050038110156119ae57601a600182018154811061197b57fe5b9060005260206000200154601a828154811061199357fe5b9060005260206000200181905550808060010191505061195b565b50601a8054806119ba57fe5b60019003818190600052602060002001600090559055611d1b565b84601260006013548152602001908152602001600020600101541015611d1a57600660009054906101000a900473ffffffffffffffffffffffffffffffffffffffff1673ffffffffffffffffffffffffffffffffffffffff1663a9059cbb60126000601354815260200190815260200160002060000160009054906101000a900473ffffffffffffffffffffffffffffffffffffffff16601260006013548152602001908152602001600020600101546040518363ffffffff1660e01b8152600401808373ffffffffffffffffffffffffffffffffffffffff1673ffffffffffffffffffffffffffffffffffffffff16815260200182815260200192505050602060405180830381600087803b158015611aee57600080fd5b505af1158015611b02573d6000803e3d6000fd5b505050506040513d6020811015611b1857600080fd5b810190808051906020019092919050505050600460009054906101000a900473ffffffffffffffffffffffffffffffffffffffff1673ffffffffffffffffffffffffffffffffffffffff1663a9059cbb3360175460126000601354815260200190815260200160002060010154026040518363ffffffff1660e01b8152600401808373ffffffffffffffffffffffffffffffffffffffff1673ffffffffffffffffffffffffffffffffffffffff16815260200182815260200192505050602060405180830381600087803b158015611bef57600080fd5b505af1158015611c03573d6000803e3d6000fd5b505050506040513d6020811015611c1957600080fd5b810190808051906020019092919050505050601260006013548152602001908152602001600020600080820160006101000a81549073ffffffffffffffffffffffffffffffffffffffff021916905560018201600090556002820160009055505060008190505b6001601a8054905003811015611cd357601a6001820181548110611ca057fe5b9060005260206000200154601a8281548110611cb857fe5b90600052602060002001819055508080600101915050611c80565b50601a805480611cdf57fe5b60019003818190600052602060002001600090559055611d19836012600060135481526020019081526020016000206001015486036140a9565b5b5b5b611d2e565b8080600101915050611366565b50600083118015611d3c5750805b15611d4c57611d4b82846140a9565b5b505060016000819055505050565b60055481565b60115481565b6008602052816000526040600020602052806000526040600020600091509150508060000160009054906101000a900473ffffffffffffffffffffffffffffffffffffffff16908060010154905082565b60606019805480602002602001604051908101604052809291908181526020018280548015611e0557602002820191906000526020600020905b815481526020019060010190808311611df1575b5050505050905090565b601b8181548110611e1c57fe5b906000526020600020016000915090505481565b60165481565b60008090505b601a805490508110156120aa576000601a8281548110611e5857fe5b906000526020600020015490506012600082815260200190815260200160002060000160009054906101000a900473ffffffffffffffffffffffffffffffffffffffff1673ffffffffffffffffffffffffffffffffffffffff163373ffffffffffffffffffffffffffffffffffffffff16141561209c57600460009054906101000a900473ffffffffffffffffffffffffffffffffffffffff1673ffffffffffffffffffffffffffffffffffffffff1663a9059cbb3360126000858152602001908152602001600020600101546040518363ffffffff1660e01b8152600401808373ffffffffffffffffffffffffffffffffffffffff1673ffffffffffffffffffffffffffffffffffffffff16815260200182815260200192505050602060405180830381600087803b158015611f8e57600080fd5b505af1158015611fa2573d6000803e3d6000fd5b505050506040513d6020811015611fb857600080fd5b81019080805190602001909291905050505060126000828152602001908152602001600020600080820160006101000a81549073ffffffffffffffffffffffffffffffffffffffff021916905560018201600090556002820160009055505060008290505b6001601a805490500381101561207057601a600182018154811061203d57fe5b9060005260206000200154601a828154811061205557fe5b9060005260206000200181905550808060010191505061201d565b50601a80548061207c57fe5b600190038181906000526020600020016000905590558180600190039250505b508080600101915050611e3c565b50565b60156020528060005260406000206000915090508060000160009054906101000a900473ffffffffffffffffffffffffffffffffffffffff16908060010154908060020154905083565b80600460009054906101000a900473ffffffffffffffffffffffffffffffffffffffff1673ffffffffffffffffffffffffffffffffffffffff166370a08231336040518263ffffffff1660e01b8152600401808273ffffffffffffffffffffffffffffffffffffffff1673ffffffffffffffffffffffffffffffffffffffff16815260200191505060206040518083038186803b15801561219757600080fd5b505afa1580156121ab573d6000803e3d6000fd5b505050506040513d60208110156121c157600080fd5b810190808051906020019092919050505010156121dd57600080fd5b600060055482816121ea57fe5b049050803073ffffffffffffffffffffffffffffffffffffffff1631101561221157600080fd5b600460009054906101000a900473ffffffffffffffffffffffffffffffffffffffff1673ffffffffffffffffffffffffffffffffffffffff166323b872dd3330856040518463ffffffff1660e01b8152600401808473ffffffffffffffffffffffffffffffffffffffff1673ffffffffffffffffffffffffffffffffffffffff1681526020018373ffffffffffffffffffffffffffffffffffffffff1673ffffffffffffffffffffffffffffffffffffffff1681526020018281526020019350505050602060405180830381600087803b1580156122ee57600080fd5b505af1158015612302573d6000803e3d6000fd5b505050506040513d602081101561231857600080fd5b8101908080519060200190929190505050503373ffffffffffffffffffffffffffffffffffffffff166108fc829081150290604051600060405180830381858888f19350505050158015612370573d6000803e3d6000fd5b507f697c42d55a5e1fed3f464ec6f38b32546a0bd368dc8068b065c67566d73f329033600460009054906101000a900473ffffffffffffffffffffffffffffffffffffffff1684600554604051808573ffffffffffffffffffffffffffffffffffffffff1673ffffffffffffffffffffffffffffffffffffffff1681526020018473ffffffffffffffffffffffffffffffffffffffff1673ffffffffffffffffffffffffffffffffffffffff16815260200183815260200182815260200194505050505060405180910390a15050565b600b5481565b6060601a80548060200260200160405190810160405280929190818152602001828054801561249457602002820191906000526020600020905b815481526020019060010190808311612480575b5050505050905090565b601c81815481106124ab57fe5b906000526020600020016000915090505481565b606060008090505b6019805490508110156125c0576000601982815481106124e357fe5b906000526020600020015490506015600082815260200190815260200160002060000160009054906101000a900473ffffffffffffffffffffffffffffffffffffffff1673ffffffffffffffffffffffffffffffffffffffff168473ffffffffffffffffffffffffffffffffffffffff1614156125b257601e601560008381526020019081526020016000206002015460156000848152602001908152602001600020600101540290806001815401808255809150506001900390600052602060002001600090919091909150555b5080806001019150506124c7565b50601e80548060200260200160405190810160405280929190818152602001828054801561260d57602002820191906000526020600020905b8154815260200190600101908083116125f9575b50505050509050919050565b60026000541415612692576040517f08c379a000000000000000000000000000000000000000000000000000000000815260040180806020018281038252601f8152602001807f5265656e7472616e637947756172643a207265656e7472616e742063616c6c0081525060200191505060405180910390fd5b600260008190555080600460009054906101000a900473ffffffffffffffffffffffffffffffffffffffff1673ffffffffffffffffffffffffffffffffffffffff166370a08231336040518263ffffffff1660e01b8152600401808273ffffffffffffffffffffffffffffffffffffffff1673ffffffffffffffffffffffffffffffffffffffff16815260200191505060206040518083038186803b15801561273a57600080fd5b505afa15801561274e573d6000803e3d6000fd5b505050506040513d602081101561276457600080fd5b810190808051906020019092919050505010156127e9576040517f08c379a00000000000000000000000000000000000000000000000000000000081526004018080602001828103825260158152602001807f68656c6c6f206572726f7220686572652061746f62000000000000000000000081525060200191505060405180910390fd5b600460009054906101000a900473ffffffffffffffffffffffffffffffffffffffff1673ffffffffffffffffffffffffffffffffffffffff166323b872dd3330846040518463ffffffff1660e01b8152600401808473ffffffffffffffffffffffffffffffffffffffff1673ffffffffffffffffffffffffffffffffffffffff1681526020018373ffffffffffffffffffffffffffffffffffffffff1673ffffffffffffffffffffffffffffffffffffffff1681526020018281526020019350505050602060405180830381600087803b1580156128c657600080fd5b505af11580156128da573d6000803e3d6000fd5b505050506040513d60208110156128f057600080fd5b810190808051906020019092919050505050600082828161290d57fe5b04905060006001905060008090505b60198054905081101561324e576019818154811061293657fe5b906000526020600020015460168190555060156000601654815260200190815260200160002060020154601181905550601154831015801561297a57506000601154115b15613241576000915084601560006016548152602001908152602001600020600101541115612bf257600085601560006016548152602001908152602001600020600101540390508060156000601654815260200190815260200160002060010181905550600460009054906101000a900473ffffffffffffffffffffffffffffffffffffffff1673ffffffffffffffffffffffffffffffffffffffff1663a9059cbb60156000601654815260200190815260200160002060000160009054906101000a900473ffffffffffffffffffffffffffffffffffffffff16876040518363ffffffff1660e01b8152600401808373ffffffffffffffffffffffffffffffffffffffff1673ffffffffffffffffffffffffffffffffffffffff16815260200182815260200192505050602060405180830381600087803b158015612ac057600080fd5b505af1158015612ad4573d6000803e3d6000fd5b505050506040513d6020811015612aea57600080fd5b810190808051906020019092919050505050600660009054906101000a900473ffffffffffffffffffffffffffffffffffffffff1673ffffffffffffffffffffffffffffffffffffffff1663a9059cbb336011548881612b4657fe5b046040518363ffffffff1660e01b8152600401808373ffffffffffffffffffffffffffffffffffffffff1673ffffffffffffffffffffffffffffffffffffffff16815260200182815260200192505050602060405180830381600087803b158015612bb057600080fd5b505af1158015612bc4573d6000803e3d6000fd5b505050506040513d6020811015612bda57600080fd5b8101908080519060200190929190505050505061323c565b84601560006016548152602001908152602001600020600101541415612eee57600460009054906101000a900473ffffffffffffffffffffffffffffffffffffffff1673ffffffffffffffffffffffffffffffffffffffff1663a9059cbb60156000601654815260200190815260200160002060000160009054906101000a900473ffffffffffffffffffffffffffffffffffffffff16866040518363ffffffff1660e01b8152600401808373ffffffffffffffffffffffffffffffffffffffff1673ffffffffffffffffffffffffffffffffffffffff16815260200182815260200192505050602060405180830381600087803b158015612cf357600080fd5b505af1158015612d07573d6000803e3d6000fd5b505050506040513d6020811015612d1d57600080fd5b810190808051906020019092919050505050600660009054906101000a900473ffffffffffffffffffffffffffffffffffffffff1673ffffffffffffffffffffffffffffffffffffffff1663a9059cbb336011548781612d7957fe5b046040518363ffffffff1660e01b8152600401808373ffffffffffffffffffffffffffffffffffffffff1673ffffffffffffffffffffffffffffffffffffffff16815260200182815260200192505050602060405180830381600087803b158015612de357600080fd5b505af1158015612df7573d6000803e3d6000fd5b505050506040513d6020811015612e0d57600080fd5b810190808051906020019092919050505050601560006016548152602001908152602001600020600080820160006101000a81549073ffffffffffffffffffffffffffffffffffffffff021916905560018201600090556002820160009055505060008190505b600160198054905003811015612ec75760196001820181548110612e9457fe5b906000526020600020015460198281548110612eac57fe5b90600052602060002001819055508080600101915050612e74565b506019805480612ed357fe5b6001900381819060005260206000200160009055905561323b565b8460156000601654815260200190815260200160002060010154101561323a57600460009054906101000a900473ffffffffffffffffffffffffffffffffffffffff1673ffffffffffffffffffffffffffffffffffffffff1663a9059cbb60156000601654815260200190815260200160002060000160009054906101000a900473ffffffffffffffffffffffffffffffffffffffff16601560006016548152602001908152602001600020600101546040518363ffffffff1660e01b8152600401808373ffffffffffffffffffffffffffffffffffffffff1673ffffffffffffffffffffffffffffffffffffffff16815260200182815260200192505050602060405180830381600087803b15801561300757600080fd5b505af115801561301b573d6000803e3d6000fd5b505050506040513d602081101561303157600080fd5b810190808051906020019092919050505050600660009054906101000a900473ffffffffffffffffffffffffffffffffffffffff1673ffffffffffffffffffffffffffffffffffffffff1663a9059cbb3360115460156000601654815260200190815260200160002060010154816130a557fe5b046040518363ffffffff1660e01b8152600401808373ffffffffffffffffffffffffffffffffffffffff1673ffffffffffffffffffffffffffffffffffffffff16815260200182815260200192505050602060405180830381600087803b15801561310f57600080fd5b505af1158015613123573d6000803e3d6000fd5b505050506040513d602081101561313957600080fd5b810190808051906020019092919050505050601560006016548152602001908152602001600020600080820160006101000a81549073ffffffffffffffffffffffffffffffffffffffff021916905560018201600090556002820160009055505060008190505b6001601980549050038110156131f357601960018201815481106131c057fe5b9060005260206000200154601982815481106131d857fe5b906000526020600020018190555080806001019150506131a0565b5060198054806131ff57fe5b600190038181906000526020600020016000905590556132398360156000601654815260200190815260200160002060010154860361419a565b5b5b5b61324e565b808060010191505061291c565b5060008311801561325c5750805b1561326c5761326b828461419a565b5b505060016000819055505050565b60105481565b60008090505b6019805490508110156134f4576000601982815481106132a257fe5b906000526020600020015490506015600082815260200190815260200160002060000160009054906101000a900473ffffffffffffffffffffffffffffffffffffffff1673ffffffffffffffffffffffffffffffffffffffff163373ffffffffffffffffffffffffffffffffffffffff1614156134e657600660009054906101000a900473ffffffffffffffffffffffffffffffffffffffff1673ffffffffffffffffffffffffffffffffffffffff1663a9059cbb3360156000858152602001908152602001600020600101546040518363ffffffff1660e01b8152600401808373ffffffffffffffffffffffffffffffffffffffff1673ffffffffffffffffffffffffffffffffffffffff16815260200182815260200192505050602060405180830381600087803b1580156133d857600080fd5b505af11580156133ec573d6000803e3d6000fd5b505050506040513d602081101561340257600080fd5b81019080805190602001909291905050505060156000828152602001908152602001600020600080820160006101000a81549073ffffffffffffffffffffffffffffffffffffffff021916905560018201600090556002820160009055505060008290505b6001601980549050038110156134ba576019600182018154811061348757fe5b90600052602060002001546019828154811061349f57fe5b90600052602060002001819055508080600101915050613467565b5060198054806134c657fe5b600190038181906000526020600020016000905590558180600190039250505b508080600101915050613286565b50565b60185481565b600f5481565b600460009054906101000a900473ffffffffffffffffffffffffffffffffffffffff1681565b60145481565b60126020528060005260406000206000915090508060000160009054906101000a900473ffffffffffffffffffffffffffffffffffffffff16908060010154908060020154905083565b60075481565b60006005543402905080600460009054906101000a900473ffffffffffffffffffffffffffffffffffffffff1673ffffffffffffffffffffffffffffffffffffffff166370a08231306040518263ffffffff1660e01b8152600401808273ffffffffffffffffffffffffffffffffffffffff1673ffffffffffffffffffffffffffffffffffffffff16815260200191505060206040518083038186803b15801561362857600080fd5b505afa15801561363c573d6000803e3d6000fd5b505050506040513d602081101561365257600080fd5b8101908080519060200190929190505050101561366e57600080fd5b600460009054906101000a900473ffffffffffffffffffffffffffffffffffffffff1673ffffffffffffffffffffffffffffffffffffffff1663a9059cbb33836040518363ffffffff1660e01b8152600401808373ffffffffffffffffffffffffffffffffffffffff1673ffffffffffffffffffffffffffffffffffffffff16815260200182815260200192505050602060405180830381600087803b15801561371757600080fd5b505af115801561372b573d6000803e3d6000fd5b505050506040513d602081101561374157600080fd5b8101908080519060200190929190505050507f6faf93231a456e552dbc9961f58d9713ee4f2e69d15f1975b050ef0911053a7b33600460009054906101000a900473ffffffffffffffffffffffffffffffffffffffff1683600554604051808573ffffffffffffffffffffffffffffffffffffffff1673ffffffffffffffffffffffffffffffffffffffff1681526020018473ffffffffffffffffffffffffffffffffffffffff1673ffffffffffffffffffffffffffffffffffffffff16815260200183815260200182815260200194505050505060405180910390a150565b600260009054906101000a900473ffffffffffffffffffffffffffffffffffffffff1681565b60175481565b60135481565b60006007543402905080600660009054906101000a900473ffffffffffffffffffffffffffffffffffffffff1673ffffffffffffffffffffffffffffffffffffffff166370a08231306040518263ffffffff1660e01b8152600401808273ffffffffffffffffffffffffffffffffffffffff1673ffffffffffffffffffffffffffffffffffffffff16815260200191505060206040518083038186803b1580156138fc57600080fd5b505afa158015613910573d6000803e3d6000fd5b505050506040513d602081101561392657600080fd5b8101908080519060200190929190505050101561394257600080fd5b600660009054906101000a900473ffffffffffffffffffffffffffffffffffffffff1673ffffffffffffffffffffffffffffffffffffffff1663a9059cbb33836040518363ffffffff1660e01b8152600401808373ffffffffffffffffffffffffffffffffffffffff1673ffffffffffffffffffffffffffffffffffffffff16815260200182815260200192505050602060405180830381600087803b1580156139eb57600080fd5b505af11580156139ff573d6000803e3d6000fd5b505050506040513d6020811015613a1557600080fd5b8101908080519060200190929190505050507f6faf93231a456e552dbc9961f58d9713ee4f2e69d15f1975b050ef0911053a7b33600660009054906101000a900473ffffffffffffffffffffffffffffffffffffffff1683600754604051808573ffffffffffffffffffffffffffffffffffffffff1673ffffffffffffffffffffffffffffffffffffffff1681526020018473ffffffffffffffffffffffffffffffffffffffff1673ffffffffffffffffffffffffffffffffffffffff16815260200183815260200182815260200194505050505060405180910390a150565b600160009054906101000a900473ffffffffffffffffffffffffffffffffffffffff1681565b606060008090505b601a80549050811015613c23576000601a8281548110613b3f57fe5b906000526020600020015490506012600082815260200190815260200160002060000160009054906101000a900473ffffffffffffffffffffffffffffffffffffffff1673ffffffffffffffffffffffffffffffffffffffff168473ffffffffffffffffffffffffffffffffffffffff161415613c1557601d6012600083815260200190815260200160002060020154601260008481526020019081526020016000206001015481613bed57fe5b0490806001815401808255809150506001900390600052602060002001600090919091909150555b508080600101915050613b23565b50601d805480602002602001604051908101604052809291908181526020018280548015613c7057602002820191906000526020600020905b815481526020019060010190808311613c5c575b50505050509050919050565b601a8181548110613c8957fe5b906000526020600020016000915090505481565b600e6020528060005260406000206000915054906101000a900460ff1681565b60198181548110613cca57fe5b906000526020600020016000915090505481565b80600660009054906101000a900473ffffffffffffffffffffffffffffffffffffffff1673ffffffffffffffffffffffffffffffffffffffff166370a08231336040518263ffffffff1660e01b8152600401808273ffffffffffffffffffffffffffffffffffffffff1673ffffffffffffffffffffffffffffffffffffffff16815260200191505060206040518083038186803b158015613d7e57600080fd5b505afa158015613d92573d6000803e3d6000fd5b505050506040513d6020811015613da857600080fd5b81019080805190602001909291905050501015613dc457600080fd5b60006007548281613dd157fe5b049050803073ffffffffffffffffffffffffffffffffffffffff16311015613df857600080fd5b600660009054906101000a900473ffffffffffffffffffffffffffffffffffffffff1673ffffffffffffffffffffffffffffffffffffffff166323b872dd3330856040518463ffffffff1660e01b8152600401808473ffffffffffffffffffffffffffffffffffffffff1673ffffffffffffffffffffffffffffffffffffffff1681526020018373ffffffffffffffffffffffffffffffffffffffff1673ffffffffffffffffffffffffffffffffffffffff1681526020018281526020019350505050602060405180830381600087803b158015613ed557600080fd5b505af1158015613ee9573d6000803e3d6000fd5b505050506040513d6020811015613eff57600080fd5b8101908080519060200190929190505050503373ffffffffffffffffffffffffffffffffffffffff166108fc829081150290604051600060405180830381858888f19350505050158015613f57573d6000803e3d6000fd5b507f697c42d55a5e1fed3f464ec6f38b32546a0bd368dc8068b065c67566d73f329033600660009054906101000a900473ffffffffffffffffffffffffffffffffffffffff1684600754604051808573ffffffffffffffffffffffffffffffffffffffff1673ffffffffffffffffffffffffffffffffffffffff1681526020018473ffffffffffffffffffffffffffffffffffffffff1673ffffffffffffffffffffffffffffffffffffffff16815260200183815260200182815260200194505050505060405180910390a15050565b6060601c80548060200260200160405190810160405280929190818152602001828054801561407557602002820191906000526020600020905b815481526020019060010190808311614061575b5050505050905090565b600d6020528060005260406000206000915090508060000154908060010154908060020154905083565b600082116140b657600080fd5b60016014600082825401925050819055506019601454908060018154018082558091505060019003906000526020600020016000909190919091505560405180606001604052803373ffffffffffffffffffffffffffffffffffffffff1681526020018281526020018381525060156000601454815260200190815260200160002060008201518160000160006101000a81548173ffffffffffffffffffffffffffffffffffffffff021916908373ffffffffffffffffffffffffffffffffffffffff16021790555060208201518160010155604082015181600201559050505050565b600082116141a757600080fd5b6001601060008282540192505081905550601a601054908060018154018082558091505060019003906000526020600020016000909190919091505560405180606001604052803373ffffffffffffffffffffffffffffffffffffffff1681526020018281526020018381525060126000601054815260200190815260200160002060008201518160000160006101000a81548173ffffffffffffffffffffffffffffffffffffffff021916908373ffffffffffffffffffffffffffffffffffffffff1602179055506020820151816001015560408201518160020155905050505056fea26469706673582212203a837058181ae2cbe92d020f78ad7f8a3ac76ab32a4db386929cb4ee6ed2397e64736f6c63430006080033",
  "immutableReferences": {},
  "source": "pragma solidity >=0.6.8;\n\nimport \"./AToken.sol\";\nimport \"./BToken.sol\";\nimport {IOrderBook} from \"./interfaces/IOrderBook.sol\";\nimport {ReentrancyGuard} from \"@openzeppelin/contracts/utils/ReentrancyGuard.sol\";\nimport {SafeMath} from \"@openzeppelin/contracts/math/SafeMath.sol\";\nimport {Math} from \"@openzeppelin/contracts/math/Math.sol\";\nimport {SafeERC20} from \"@openzeppelin/contracts/token/ERC20/SafeERC20.sol\";\nimport {IERC20} from \"@openzeppelin/contracts/token/ERC20/IERC20.sol\";\n\ncontract TokenSwap is IOrderBook, ReentrancyGuard {\n    using SafeMath for uint256;\n    using SafeMath for uint8;\n    using Math for uint256;\n    using SafeERC20 for IERC20;\n    IERC20 public tradeToken;\n    IERC20 public baseToken;\n\n    string public name = \"TokenSwap Instant Exchange\";\n    AToken public aToken;\n    uint256 public aRate = 1000;\n    BToken public bToken;\n    uint256 public bRate = 1000;\n\n    ///////////////////////////\n    //mapping is a hashtable\n    mapping(uint256 => mapping(uint8 => Order)) public buyOrdersInStep;\n    mapping(uint256 => Step) public buySteps;\n    mapping(uint256 => uint8) public buyOrdersInStepCounter;\n    uint256 public maxBuyPrice;\n\n    mapping(uint256 => mapping(uint8 => Order)) public sellOrdersInStep;\n    mapping(uint256 => Step) public sellSteps;\n    mapping(uint256 => uint8) public sellOrdersInStepCounter;\n    uint256 public minSellPrice;\n    ////////////////////////////\n\n    uint256 public buyCounter = 0;\n    uint256 public minSellRate;\n    mapping(uint256 => NewOrder) public newBuyOrderBook;\n    uint256 public idOfBuyRate;\n\n    uint256 public sellCounter = 0;\n    mapping(uint256 => NewOrder) public newSellOrderBook;\n    uint256 public idOfSellRate;\n    uint256 public maxBuyRate;\n    uint256 public selltx = 0;\n    //////////////\n    event TokensPurchased(\n        address account,\n        address token,\n        uint256 amount,\n        uint256 rate\n    );\n\n    event BTokensPurchased(\n        address account,\n        address token,\n        uint256 amount,\n        uint256 rate\n    );\n\n    event TokensSold(\n        address account,\n        address token,\n        uint256 amount,\n        uint256 rate\n    );\n\n    event BTokensSold(\n        address account,\n        address token,\n        uint256 amount,\n        uint256 rate\n    );\n\n    constructor(AToken _aToken, BToken _bToken) public {\n        //pass the address of the Token in\n        aToken = _aToken;\n        bToken = _bToken;\n    }\n\n    function random() internal returns (uint256) {\n        uint256 randomnumber = uint256(\n            keccak256(\n                abi.encodePacked(block.timestamp, msg.sender, block.timestamp)\n            )\n        ) % 10;\n        randomnumber = randomnumber + 90;\n        return randomnumber;\n    }\n\n    function buyATokens() public payable {\n        // Calculate the number of tokens to buy\n        uint256 tokenAmount = msg.value * aRate; //msg.value = how much ether was sent\n\n        // Require that TokenSwap has enough tokens\n        require(aToken.balanceOf(address(this)) >= tokenAmount);\n\n        // Transfer tokens to the user\n        aToken.transfer(msg.sender, tokenAmount);\n\n        // Emit an event\n        emit TokensPurchased(msg.sender, address(aToken), tokenAmount, aRate);\n    }\n\n    function sellATokens(uint256 _amount) public {\n        // User can't sell more tokens than they have\n        require(aToken.balanceOf(msg.sender) >= _amount);\n\n        // Calculate the amount of Ether to redeem\n        uint256 etherAmount = _amount / aRate;\n\n        // Require that TokenSwap has enough Ether\n        require(address(this).balance >= etherAmount);\n\n        // Perform sale\n        aToken.transferFrom(msg.sender, address(this), _amount);\n        msg.sender.transfer(etherAmount);\n\n        // Emit an event\n        emit TokensSold(msg.sender, address(aToken), _amount, aRate);\n    }\n\n    function buyBTokens() public payable {\n        // Calculate the number of tokens to buy\n        uint256 tokenAmount = msg.value * bRate; //msg.value = how much ether was sent\n\n        // Require that TokenSwap has enough tokens\n        require(bToken.balanceOf(address(this)) >= tokenAmount);\n\n        // Transfer tokens to the user\n        bToken.transfer(msg.sender, tokenAmount);\n\n        // Emit an event\n        emit TokensPurchased(msg.sender, address(bToken), tokenAmount, bRate);\n    }\n\n    function sellBTokens(uint256 _amount) public {\n        // User can't sell more tokens than they have\n        require(bToken.balanceOf(msg.sender) >= _amount);\n\n        // Calculate the amount of Ether to redeem\n        uint256 etherAmount = _amount / bRate;\n\n        // Require that TokenSwap has enough Ether\n        require(address(this).balance >= etherAmount);\n\n        // Perform sale\n        bToken.transferFrom(msg.sender, address(this), _amount);\n        msg.sender.transfer(etherAmount);\n\n        // Emit an event\n        emit TokensSold(msg.sender, address(bToken), _amount, bRate);\n    }\n\n    ///////////////////////////////////////////////////////////////////////// ORDERBOOK //////////////////////////////////////////////////////////////////////////////////////////\n\n    uint256[] public sellrateid;\n    uint256[] public buyrateid;\n\n    uint256[] public amountsell;\n    uint256[] public amountbuy;\n\n    uint256[] buyorderbookArrary;\n    uint256[] sellorderbookArrary;\n\n    function getbuyrate() public returns (uint256[] memory) {\n        return buyrateid;\n    }\n\n    function getsellrate() public returns (uint256[] memory) {\n        return sellrateid;\n    }\n\n    function getamountbuy() public returns (uint256[] memory) {\n        return amountbuy;\n    }\n\n    //buy B using A\n    function atob(uint256 b, uint256 a) external override nonReentrant {\n        require(aToken.balanceOf(msg.sender) >= a, \"hello error here atob\");\n\n        aToken.transferFrom(msg.sender, address(this), a);\n        // emit PlaceBuyOrder(msg.sender, amountOfBuyToken, amountOfSellToken);\n        // b = b * 1 ether;\n        // a = a * 1 ether;\n        uint256 rate = a / b;\n        bool toAdd = true;\n\n        for (uint256 i = 0; i < sellrateid.length; i++) {\n            idOfSellRate = sellrateid[i];\n            minSellRate = newSellOrderBook[idOfSellRate].rate;\n\n            if (rate >= minSellRate && minSellRate > 0) {\n                //give best order\n                toAdd = false;\n                if (newSellOrderBook[idOfSellRate].amount > b) {\n                    uint256 newAmount = newSellOrderBook[idOfSellRate].amount -\n                        b;\n                    newSellOrderBook[idOfSellRate].amount = newAmount; //replace old amount with new\n                    // transfer\n                    aToken.transfer(newSellOrderBook[idOfSellRate].maker, a);\n                    bToken.transfer(msg.sender, a / minSellRate);\n                } else if (newSellOrderBook[idOfSellRate].amount == b) {\n                    // transfer\n                    aToken.transfer(newSellOrderBook[idOfSellRate].maker, a);\n                    bToken.transfer(msg.sender, a / minSellRate);\n                    // update the minSellRate\n                    delete newSellOrderBook[idOfSellRate];\n                    for (uint256 j = i; j < sellrateid.length - 1; j++) {\n                        sellrateid[j] = sellrateid[j + 1];\n                    }\n                    sellrateid.pop();\n                } else if (newSellOrderBook[idOfSellRate].amount < b) {\n                    aToken.transfer(\n                        newSellOrderBook[idOfSellRate].maker,\n                        newSellOrderBook[idOfSellRate].amount\n                    );\n                    bToken.transfer(\n                        msg.sender,\n                        newSellOrderBook[idOfSellRate].amount / minSellRate\n                    );\n                    delete newSellOrderBook[idOfSellRate];\n                    for (uint256 j = i; j < sellrateid.length - 1; j++) {\n                        sellrateid[j] = sellrateid[j + 1];\n                    }\n                    sellrateid.pop();\n                    _atobBook(rate, a - newSellOrderBook[idOfSellRate].amount);\n                }\n                break;\n            }\n        }\n\n        if (a > 0 && toAdd) {\n            _atobBook(rate, a);\n        }\n    }\n\n    function maxNumber(uint256 a, uint256 b) internal pure returns (uint256) {\n        return a >= b ? a : b;\n    }\n\n    function minNumber(uint256 a, uint256 b) internal pure returns (uint256) {\n        return a <= b ? a : b;\n    }\n\n    function _atobBook(uint256 rate, uint256 a) internal {\n        require(rate > 0);\n        buyCounter += 1;\n        buyrateid.push(buyCounter);\n        newBuyOrderBook[buyCounter] = NewOrder(msg.sender, a, rate);\n    }\n\n    // buy A using b\n    function btoa(uint256 a, uint256 b) external override nonReentrant {\n        require(bToken.balanceOf(msg.sender) >= b, \"Hello error here btoa\");\n        amountbuy.push(b);\n        amountbuy.push(a);\n        bToken.transferFrom(msg.sender, address(this), b);\n\n        uint256 rate = a / b;\n        bool toAdd = true;\n\n        for (uint256 i = 0; i < buyrateid.length; i++) {\n            idOfBuyRate = buyrateid[i];\n            maxBuyRate = newBuyOrderBook[idOfBuyRate].rate;\n\n            if (rate <= maxBuyRate && maxBuyRate > 0) {\n                toAdd = false;\n                if (newBuyOrderBook[idOfBuyRate].amount > a) {\n                    amountbuy.push(newBuyOrderBook[idOfBuyRate].amount);\n                    amountbuy.push(b);\n                    uint256 newAmount = newBuyOrderBook[idOfBuyRate].amount - a;\n                    newBuyOrderBook[idOfBuyRate].amount = newAmount; //replace old amount with new\n                    amountbuy.push(newBuyOrderBook[idOfBuyRate].amount);\n                    // transfer\n                    bToken.transfer(newBuyOrderBook[idOfBuyRate].maker, b);\n                    aToken.transfer(msg.sender, b * maxBuyRate);\n                } else if (newBuyOrderBook[idOfBuyRate].amount == a) {\n                    // transfer\n                    bToken.transfer(newBuyOrderBook[idOfBuyRate].maker, b);\n                    aToken.transfer(msg.sender, b * maxBuyRate);\n                    // update the minSellRate\n                    delete newBuyOrderBook[idOfBuyRate];\n                    for (uint256 j = i; j < buyrateid.length - 1; j++) {\n                        buyrateid[j] = buyrateid[j + 1];\n                    }\n                    buyrateid.pop();\n                } else if (newBuyOrderBook[idOfBuyRate].amount < a) {\n                    bToken.transfer(\n                        newBuyOrderBook[idOfBuyRate].maker,\n                        newBuyOrderBook[idOfBuyRate].amount\n                    );\n                    aToken.transfer(\n                        msg.sender,\n                        newBuyOrderBook[idOfBuyRate].amount * maxBuyRate\n                    );\n                    delete newBuyOrderBook[idOfBuyRate];\n                    for (uint256 j = i; j < buyrateid.length - 1; j++) {\n                        buyrateid[j] = buyrateid[j + 1];\n                    }\n                    buyrateid.pop();\n                    _btoaBook(rate, b - newBuyOrderBook[idOfBuyRate].amount);\n                }\n                break;\n            }\n        }\n\n        if (b > 0 && toAdd) {\n            _btoaBook(rate, b);\n        }\n    }\n\n    function _btoaBook(uint256 rate, uint256 b) internal {\n        require(rate > 0);\n        sellCounter += 1;\n        sellrateid.push(sellCounter);\n\n        newSellOrderBook[sellCounter] = NewOrder(msg.sender, b, rate);\n        // emit DrawToSellBook(msg.sender, rate, amountSold);\n    }\n\n    function deleteBuyOrders() public {\n        for (uint256 i = 0; i < buyrateid.length; i++) {\n            uint256 key = buyrateid[i];\n            if (msg.sender == newBuyOrderBook[key].maker) {\n                aToken.transfer(msg.sender, newBuyOrderBook[key].amount);\n                delete newBuyOrderBook[key];\n                for (uint256 j = i; j < buyrateid.length - 1; j++) {\n                    buyrateid[j] = buyrateid[j + 1];\n                }\n                buyrateid.pop();\n                i--;\n            }\n        }\n    }\n\n    function deleteSellOrders() public {\n        for (uint256 i = 0; i < sellrateid.length; i++) {\n            uint256 key = sellrateid[i];\n            if (msg.sender == newSellOrderBook[key].maker) {\n                bToken.transfer(msg.sender, newSellOrderBook[key].amount);\n                delete newSellOrderBook[key];\n                for (uint256 j = i; j < sellrateid.length - 1; j++) {\n                    sellrateid[j] = sellrateid[j + 1];\n                }\n                sellrateid.pop();\n                i--;\n            }\n        }\n    }\n\n    function getBuyOrderBook(address account)\n        public\n        returns (uint256[] memory)\n    {\n        for (uint256 i = 0; i < buyrateid.length; i++) {\n            uint256 key = buyrateid[i];\n            if (account == newBuyOrderBook[key].maker) {\n                buyorderbookArrary.push(\n                    newBuyOrderBook[key].amount / newBuyOrderBook[key].rate\n                );\n            }\n        }\n\n        return buyorderbookArrary;\n    }\n\n    function getSellOrderBook(address account)\n        public\n        returns (uint256[] memory)\n    {\n        for (uint256 i = 0; i < sellrateid.length; i++) {\n            uint256 key = sellrateid[i];\n            if (account == newSellOrderBook[key].maker) {\n                sellorderbookArrary.push(\n                    newSellOrderBook[key].amount * newSellOrderBook[key].rate\n                );\n            }\n        }\n\n        return sellorderbookArrary;\n    }\n\n    // function placeBuyOrder(\n    //     uint256 price,\n    //     uint256 amountOfBaseToken,\n    //     uint256 amount\n    // ) external override nonReentrant {\n    //     require(aToken.balanceOf(msg.sender) >= amountOfBaseToken);\n\n    //     aToken.transferFrom(msg.sender, address(this), amountOfBaseToken);\n    //     emit PlaceBuyOrder(msg.sender, price, amountOfBaseToken);\n\n    //     /**\n    //      * @notice if has order in sell book, and price >= min sell price\n    //      */\n    //     //minSellPrice\n    //     //\n    //     uint256 sellPricePointer = minSellPrice;\n    //     uint256 amountReflect = amountOfBaseToken;\n    //     if (minSellPrice > 0 && price >= minSellPrice) {\n    //         while (\n    //             amountReflect > 0 &&\n    //             sellPricePointer <= price &&\n    //             sellPricePointer != 0\n    //         ) {\n    //             uint8 i = 1;\n    //             uint256 higherPrice = sellSteps[sellPricePointer].higherPrice;\n    //             while (\n    //                 i <= sellOrdersInStepCounter[sellPricePointer] &&\n    //                 amountReflect > 0\n    //             ) {\n    //                 if (\n    //                     amountReflect >=\n    //                     sellOrdersInStep[sellPricePointer][i].amount\n    //                 ) {\n    //                     //if the last order has been matched, delete the step\n    //                     if (i == sellOrdersInStepCounter[sellPricePointer]) {\n    //                         if (higherPrice > 0)\n    //                             sellSteps[higherPrice].lowerPrice = 0;\n    //                         delete sellSteps[sellPricePointer];\n    //                         minSellPrice = higherPrice;\n    //                     }\n\n    //                     amountReflect = amountReflect.sub(\n    //                         sellOrdersInStep[sellPricePointer][i].amount\n    //                     );\n    //                     //send before delete order\n\n    //                     aToken.transfer(\n    //                         sellOrdersInStep[sellPricePointer][i].maker,\n    //                         sellOrdersInStep[sellPricePointer][i].amount\n    //                     );\n    //                     // delete order from storage\n    //                     delete sellOrdersInStep[sellPricePointer][i];\n    //                     sellOrdersInStepCounter[sellPricePointer] -= 1;\n    //                     ///////////////////////////////\n    //                     bToken.transfer(msg.sender, sellPricePointer);\n\n    //                     //token.transferFrom(ethswap to other party)\n    //                 } else {\n    //                     sellSteps[sellPricePointer].amount = sellSteps[\n    //                         sellPricePointer\n    //                     ].amount.sub(amountReflect);\n    //                     sellOrdersInStep[sellPricePointer][i]\n    //                         .amount = sellOrdersInStep[sellPricePointer][i]\n    //                         .amount\n    //                         .sub(amountReflect);\n    //                     amountReflect = 0;\n    //                 }\n    //                 i += 1;\n    //             }\n    //             sellPricePointer = higherPrice;\n    //         }\n    //     }\n    //     /**\n    //      * @notice draw to buy book the rest\n    //      */\n    //     if (amountReflect > 0) {\n    //         _drawToBuyBook(price, amountReflect);\n    //     }\n    // }\n\n    // /**\n    //  * @notice Place buy order.\n    //  */\n    // function placeSellOrder(\n    //     uint256 price,\n    //     uint256 amountOfTradeToken,\n    //     uint256 amount\n    // ) external override nonReentrant {\n    //     bToken.transferFrom(msg.sender, address(this), amountOfTradeToken);\n    //     emit PlaceSellOrder(msg.sender, price, amountOfTradeToken);\n\n    //     /**\n    //      * @notice if has order in buy book, and price <= max buy price\n    //      */\n    //     uint256 buyPricePointer = maxBuyPrice;\n    //     uint256 amountReflect = amountOfTradeToken;\n    //     if (maxBuyPrice > 0 && price <= maxBuyPrice) {\n    //         while (\n    //             amountReflect > 0 &&\n    //             buyPricePointer >= price &&\n    //             buyPricePointer != 0\n    //         ) {\n    //             uint8 i = 1;\n    //             uint256 lowerPrice = buySteps[buyPricePointer].lowerPrice;\n    //             while (\n    //                 i <= buyOrdersInStepCounter[buyPricePointer] &&\n    //                 amountReflect > 0\n    //             ) {\n    //                 if (\n    //                     amountReflect >=\n    //                     buyOrdersInStep[buyPricePointer][i].amount\n    //                 ) {\n    //                     //if the last order has been matched, delete the step\n    //                     if (i == buyOrdersInStepCounter[buyPricePointer]) {\n    //                         if (lowerPrice > 0)\n    //                             buySteps[lowerPrice].higherPrice = 0;\n    //                         delete buySteps[buyPricePointer];\n    //                         maxBuyPrice = lowerPrice;\n    //                     }\n\n    //                     amountReflect =\n    //                         amountReflect -\n    //                         (buyOrdersInStep[buyPricePointer][i].amount);\n    //                     //send before delete order\n    //                     bToken.transfer(\n    //                         buyOrdersInStep[buyPricePointer][i].maker,\n    //                         buyOrdersInStep[buyPricePointer][i].amount\n    //                     );\n    //                     // delete order from storage\n\n    //                     delete buyOrdersInStep[buyPricePointer][i];\n    //                     buyOrdersInStepCounter[buyPricePointer] -= 1;\n\n    //                     ///////\n    //                     aToken.transfer(msg.sender, buyPricePointer);\n    //                 } else {\n    //                     buySteps[buyPricePointer].amount =\n    //                         buySteps[buyPricePointer].amount -\n    //                         (amountReflect);\n    //                     buyOrdersInStep[buyPricePointer][i].amount =\n    //                         buyOrdersInStep[buyPricePointer][i].amount -\n    //                         (amountReflect);\n    //                     amountReflect = 0;\n    //                 }\n    //                 i += 1;\n    //             }\n    //             buyPricePointer = lowerPrice;\n    //         }\n    //     }\n    //     /**\n    //      * @notice draw to buy book the rest\n    //      */\n    //     if (amountReflect > 0) {\n    //         _drawToSellBook(price, amountReflect);\n    //     }\n    // }\n\n    // /**\n    //  * @notice draw buy order.\n    //  */\n    // function _drawToBuyBook(uint256 price, uint256 amount) internal {\n    //     require(price > 0, \"Can not place order with price equal 0\");\n\n    //     buyOrdersInStepCounter[price] += 1;\n    //     // order creation here\n    //     buyOrdersInStep[price][buyOrdersInStepCounter[price]] = Order(\n    //         msg.sender,\n    //         amount\n    //     );\n    //     buySteps[price].amount = buySteps[price].amount + (amount);\n    //     emit DrawToBuyBook(msg.sender, price, amount);\n\n    //     if (maxBuyPrice == 0) {\n    //         maxBuyPrice = price;\n    //         return;\n    //     }\n\n    //     if (price > maxBuyPrice) {\n    //         buySteps[maxBuyPrice].higherPrice = price;\n    //         buySteps[price].lowerPrice = maxBuyPrice;\n    //         maxBuyPrice = price;\n    //         return;\n    //     }\n\n    //     if (price == maxBuyPrice) {\n    //         return;\n    //     }\n\n    //     uint256 buyPricePointer = maxBuyPrice;\n    //     while (price <= buyPricePointer) {\n    //         buyPricePointer = buySteps[buyPricePointer].lowerPrice;\n    //     }\n\n    //     if (price < buySteps[buyPricePointer].higherPrice) {\n    //         buySteps[price].higherPrice = buySteps[buyPricePointer].higherPrice;\n    //         buySteps[price].lowerPrice = buyPricePointer;\n\n    //         buySteps[buySteps[buyPricePointer].higherPrice].lowerPrice = price;\n    //         buySteps[buyPricePointer].higherPrice = price;\n    //     }\n    // }\n\n    // /**\n    //  * @notice draw sell order.\n    //  */\n    // function _drawToSellBook(uint256 price, uint256 amount) internal {\n    //     require(price > 0, \"Can not place order with price equal 0\");\n\n    //     sellOrdersInStepCounter[price] += 1;\n    //     sellOrdersInStep[price][sellOrdersInStepCounter[price]] = Order(\n    //         msg.sender,\n    //         amount\n    //     );\n    //     sellSteps[price].amount += amount;\n    //     emit DrawToSellBook(msg.sender, price, amount);\n\n    //     if (minSellPrice == 0) {\n    //         minSellPrice = price;\n    //         return;\n    //     }\n\n    //     if (price < minSellPrice) {\n    //         sellSteps[minSellPrice].lowerPrice = price;\n    //         sellSteps[price].higherPrice = minSellPrice;\n    //         minSellPrice = price;\n    //         return;\n    //     }\n\n    //     if (price == minSellPrice) {\n    //         return;\n    //     }\n\n    //     uint256 sellPricePointer = minSellPrice;\n    //     while (\n    //         price >= sellPricePointer &&\n    //         sellSteps[sellPricePointer].higherPrice != 0\n    //     ) {\n    //         sellPricePointer = sellSteps[sellPricePointer].higherPrice;\n    //     }\n\n    //     if (sellPricePointer < price) {\n    //         sellSteps[price].lowerPrice = sellPricePointer;\n    //         sellSteps[sellPricePointer].higherPrice = price;\n    //     }\n\n    //     if (\n    //         sellPricePointer > price &&\n    //         price > sellSteps[sellPricePointer].lowerPrice\n    //     ) {\n    //         sellSteps[price].lowerPrice = sellSteps[sellPricePointer]\n    //             .lowerPrice;\n    //         sellSteps[price].higherPrice = sellPricePointer;\n\n    //         sellSteps[sellSteps[sellPricePointer].lowerPrice]\n    //             .higherPrice = price;\n    //         sellSteps[sellPricePointer].lowerPrice = price;\n    //     }\n    // }\n}\n",
  "sourcePath": "/Users/weerenteo/Desktop/foruse/Blockchain-DEX/src/contracts/TokenSwap.sol",
  "compiler": {
    "name": "solc",
    "version": "0.6.8+commit.0bbfe453.Emscripten.clang"
  },
  "schemaVersion": "3.4.10",
  "updatedAt": "2022-11-04T07:47:51.994Z",
  "networkType": "ethereum",
  "devdoc": {
    "methods": {}
  },
  "userdoc": {
    "methods": {}
  }
}