{
  "contractName": "TokenSwap",
  "abi": [
    {
      "inputs": [
        {
          "internalType": "contract AToken",
          "name": "_aToken",
          "type": "address"
        },
        {
          "internalType": "contract BToken",
          "name": "_bToken",
          "type": "address"
        }
      ],
      "stateMutability": "nonpayable",
      "type": "constructor"
    },
    {
      "anonymous": false,
      "inputs": [
        {
          "indexed": false,
          "internalType": "address",
          "name": "accountSent",
          "type": "address"
        },
        {
          "indexed": false,
          "internalType": "address",
          "name": "accountReceived",
          "type": "address"
        },
        {
          "indexed": false,
          "internalType": "uint256",
          "name": "amount",
          "type": "uint256"
        }
      ],
      "name": "ATokensSent",
      "type": "event"
    },
    {
      "anonymous": false,
      "inputs": [
        {
          "indexed": false,
          "internalType": "address",
          "name": "account",
          "type": "address"
        },
        {
          "indexed": false,
          "internalType": "address",
          "name": "token",
          "type": "address"
        },
        {
          "indexed": false,
          "internalType": "uint256",
          "name": "amount",
          "type": "uint256"
        },
        {
          "indexed": false,
          "internalType": "uint256",
          "name": "rate",
          "type": "uint256"
        }
      ],
      "name": "BTokensPurchased",
      "type": "event"
    },
    {
      "anonymous": false,
      "inputs": [
        {
          "indexed": false,
          "internalType": "address",
          "name": "accountSent",
          "type": "address"
        },
        {
          "indexed": false,
          "internalType": "address",
          "name": "accountReceived",
          "type": "address"
        },
        {
          "indexed": false,
          "internalType": "uint256",
          "name": "amount",
          "type": "uint256"
        }
      ],
      "name": "BTokensSent",
      "type": "event"
    },
    {
      "anonymous": false,
      "inputs": [
        {
          "indexed": false,
          "internalType": "address",
          "name": "account",
          "type": "address"
        },
        {
          "indexed": false,
          "internalType": "address",
          "name": "token",
          "type": "address"
        },
        {
          "indexed": false,
          "internalType": "uint256",
          "name": "amount",
          "type": "uint256"
        },
        {
          "indexed": false,
          "internalType": "uint256",
          "name": "rate",
          "type": "uint256"
        }
      ],
      "name": "BTokensSold",
      "type": "event"
    },
    {
      "anonymous": false,
      "inputs": [
        {
          "indexed": false,
          "internalType": "address",
          "name": "account",
          "type": "address"
        },
        {
          "indexed": false,
          "internalType": "address",
          "name": "token",
          "type": "address"
        },
        {
          "indexed": false,
          "internalType": "uint256",
          "name": "amount",
          "type": "uint256"
        },
        {
          "indexed": false,
          "internalType": "uint256",
          "name": "rate",
          "type": "uint256"
        }
      ],
      "name": "TokensPurchased",
      "type": "event"
    },
    {
      "anonymous": false,
      "inputs": [
        {
          "indexed": false,
          "internalType": "address",
          "name": "account",
          "type": "address"
        },
        {
          "indexed": false,
          "internalType": "address",
          "name": "token",
          "type": "address"
        },
        {
          "indexed": false,
          "internalType": "uint256",
          "name": "amount",
          "type": "uint256"
        },
        {
          "indexed": false,
          "internalType": "uint256",
          "name": "rate",
          "type": "uint256"
        }
      ],
      "name": "TokensSold",
      "type": "event"
    },
    {
      "inputs": [],
      "name": "aToken",
      "outputs": [
        {
          "internalType": "contract AToken",
          "name": "",
          "type": "address"
        }
      ],
      "stateMutability": "view",
      "type": "function",
      "constant": true
    },
    {
      "inputs": [
        {
          "internalType": "uint256",
          "name": "",
          "type": "uint256"
        }
      ],
      "name": "amountbuy",
      "outputs": [
        {
          "internalType": "uint256",
          "name": "",
          "type": "uint256"
        }
      ],
      "stateMutability": "view",
      "type": "function",
      "constant": true
    },
    {
      "inputs": [
        {
          "internalType": "uint256",
          "name": "",
          "type": "uint256"
        }
      ],
      "name": "amountsell",
      "outputs": [
        {
          "internalType": "uint256",
          "name": "",
          "type": "uint256"
        }
      ],
      "stateMutability": "view",
      "type": "function",
      "constant": true
    },
    {
      "inputs": [],
      "name": "bToken",
      "outputs": [
        {
          "internalType": "contract BToken",
          "name": "",
          "type": "address"
        }
      ],
      "stateMutability": "view",
      "type": "function",
      "constant": true
    },
    {
      "inputs": [],
      "name": "buyCounter",
      "outputs": [
        {
          "internalType": "uint256",
          "name": "",
          "type": "uint256"
        }
      ],
      "stateMutability": "view",
      "type": "function",
      "constant": true
    },
    {
      "inputs": [
        {
          "internalType": "uint256",
          "name": "",
          "type": "uint256"
        }
      ],
      "name": "buyrateid",
      "outputs": [
        {
          "internalType": "uint256",
          "name": "",
          "type": "uint256"
        }
      ],
      "stateMutability": "view",
      "type": "function",
      "constant": true
    },
    {
      "inputs": [],
      "name": "idOfBuyRate",
      "outputs": [
        {
          "internalType": "uint256",
          "name": "",
          "type": "uint256"
        }
      ],
      "stateMutability": "view",
      "type": "function",
      "constant": true
    },
    {
      "inputs": [],
      "name": "idOfSellRate",
      "outputs": [
        {
          "internalType": "uint256",
          "name": "",
          "type": "uint256"
        }
      ],
      "stateMutability": "view",
      "type": "function",
      "constant": true
    },
    {
      "inputs": [],
      "name": "maxBuyRate",
      "outputs": [
        {
          "internalType": "uint256",
          "name": "",
          "type": "uint256"
        }
      ],
      "stateMutability": "view",
      "type": "function",
      "constant": true
    },
    {
      "inputs": [],
      "name": "minSellRate",
      "outputs": [
        {
          "internalType": "uint256",
          "name": "",
          "type": "uint256"
        }
      ],
      "stateMutability": "view",
      "type": "function",
      "constant": true
    },
    {
      "inputs": [],
      "name": "name",
      "outputs": [
        {
          "internalType": "string",
          "name": "",
          "type": "string"
        }
      ],
      "stateMutability": "view",
      "type": "function",
      "constant": true
    },
    {
      "inputs": [
        {
          "internalType": "uint256",
          "name": "",
          "type": "uint256"
        }
      ],
      "name": "newBuyOrderBook",
      "outputs": [
        {
          "internalType": "address",
          "name": "maker",
          "type": "address"
        },
        {
          "internalType": "uint256",
          "name": "amount",
          "type": "uint256"
        },
        {
          "internalType": "uint256",
          "name": "rate",
          "type": "uint256"
        }
      ],
      "stateMutability": "view",
      "type": "function",
      "constant": true
    },
    {
      "inputs": [
        {
          "internalType": "uint256",
          "name": "",
          "type": "uint256"
        }
      ],
      "name": "newSellOrderBook",
      "outputs": [
        {
          "internalType": "address",
          "name": "maker",
          "type": "address"
        },
        {
          "internalType": "uint256",
          "name": "amount",
          "type": "uint256"
        },
        {
          "internalType": "uint256",
          "name": "rate",
          "type": "uint256"
        }
      ],
      "stateMutability": "view",
      "type": "function",
      "constant": true
    },
    {
      "inputs": [],
      "name": "sellCounter",
      "outputs": [
        {
          "internalType": "uint256",
          "name": "",
          "type": "uint256"
        }
      ],
      "stateMutability": "view",
      "type": "function",
      "constant": true
    },
    {
      "inputs": [
        {
          "internalType": "uint256",
          "name": "",
          "type": "uint256"
        }
      ],
      "name": "sellrateid",
      "outputs": [
        {
          "internalType": "uint256",
          "name": "",
          "type": "uint256"
        }
      ],
      "stateMutability": "view",
      "type": "function",
      "constant": true
    },
    {
      "inputs": [],
      "name": "getbuyrate",
      "outputs": [
        {
          "internalType": "uint256[]",
          "name": "",
          "type": "uint256[]"
        }
      ],
      "stateMutability": "nonpayable",
      "type": "function"
    },
    {
      "inputs": [],
      "name": "getsellrate",
      "outputs": [
        {
          "internalType": "uint256[]",
          "name": "",
          "type": "uint256[]"
        }
      ],
      "stateMutability": "nonpayable",
      "type": "function"
    },
    {
      "inputs": [
        {
          "internalType": "uint256",
          "name": "b",
          "type": "uint256"
        },
        {
          "internalType": "uint256",
          "name": "a",
          "type": "uint256"
        }
      ],
      "name": "atob",
      "outputs": [],
      "stateMutability": "nonpayable",
      "type": "function"
    },
    {
      "inputs": [
        {
          "internalType": "uint256",
          "name": "a",
          "type": "uint256"
        },
        {
          "internalType": "uint256",
          "name": "b",
          "type": "uint256"
        }
      ],
      "name": "btoa",
      "outputs": [],
      "stateMutability": "nonpayable",
      "type": "function"
    },
    {
      "inputs": [],
      "name": "deleteBuyOrders",
      "outputs": [],
      "stateMutability": "nonpayable",
      "type": "function"
    },
    {
      "inputs": [],
      "name": "deleteSellOrders",
      "outputs": [],
      "stateMutability": "nonpayable",
      "type": "function"
    },
    {
      "inputs": [
        {
          "internalType": "address",
          "name": "account",
          "type": "address"
        }
      ],
      "name": "getBuyOrderBook",
      "outputs": [
        {
          "internalType": "uint256[]",
          "name": "",
          "type": "uint256[]"
        }
      ],
      "stateMutability": "nonpayable",
      "type": "function"
    },
    {
      "inputs": [
        {
          "internalType": "address",
          "name": "account",
          "type": "address"
        }
      ],
      "name": "getSellOrderBook",
      "outputs": [
        {
          "internalType": "uint256[]",
          "name": "",
          "type": "uint256[]"
        }
      ],
      "stateMutability": "nonpayable",
      "type": "function"
    }
  ],
  "bytecode": "0x60806040526040518060400160405280601281526020017f546f6b656e537761702045786368616e6765000000000000000000000000000081525060019080519060200190620000519291906200013c565b50600060045560006008553480156200006957600080fd5b50604051620041c6380380620041c6833981810160405260408110156200008f57600080fd5b810190808051906020019092919080519060200190929190505050600160008190555081600260006101000a81548173ffffffffffffffffffffffffffffffffffffffff021916908373ffffffffffffffffffffffffffffffffffffffff16021790555080600360006101000a81548173ffffffffffffffffffffffffffffffffffffffff021916908373ffffffffffffffffffffffffffffffffffffffff1602179055505050620001eb565b828054600181600116156101000203166002900490600052602060002090601f016020900481019282601f106200017f57805160ff1916838001178555620001b0565b82800160010185558215620001b0579182015b82811115620001af57825182559160200191906001019062000192565b5b509050620001bf9190620001c3565b5090565b620001e891905b80821115620001e4576000816000905550600101620001ca565b5090565b90565b613fcb80620001fb6000396000f3fe608060405234801561001057600080fd5b506004361061014d5760003560e01c80638447eee6116100c3578063b2bb39ef1161007c578063b2bb39ef146105bc578063c86f663914610638578063cddfa2a414610656578063dcb8e10614610674578063dd7f4e401461070d578063ec4763b61461074f5761014d565b80638447eee61461045b5780638544a5ec146104f457806391ceedbf1461052c5780639237b46c1461054a578063a0c1f15e14610554578063a4d0047d1461059e5761014d565b8063540cecb311610115578063540cecb3146102d45780635632993b1461031657806361834641146103345780636bc69a241461033e5780636e94422c146103ba57806376a4202e146104195761014d565b806306fdde0314610152578063180f5842146101d557806333f393ee1461021f5780633edec69a1461025757806350e3d80814610275575b600080fd5b61015a610791565b6040518080602001828103825283818151815260200191508051906020019080838360005b8381101561019a57808201518184015260208101905061017f565b50505050905090810190601f1680156101c75780820380516001836020036101000a031916815260200191505b509250505060405180910390f35b6101dd61082f565b604051808273ffffffffffffffffffffffffffffffffffffffff1673ffffffffffffffffffffffffffffffffffffffff16815260200191505060405180910390f35b6102556004803603604081101561023557600080fd5b810190808035906020019092919080359060200190929190505050610855565b005b61025f611dc7565b6040518082815260200191505060405180910390f35b61027d611dcd565b6040518080602001828103825283818151815260200191508051906020019060200280838360005b838110156102c05780820151818401526020810190506102a5565b505050509050019250505060405180910390f35b610300600480360360208110156102ea57600080fd5b8101908080359060200190929190505050611e25565b6040518082815260200191505060405180910390f35b61031e611e46565b6040518082815260200191505060405180910390f35b61033c611e4c565b005b61036a6004803603602081101561035457600080fd5b81019080803590602001909291905050506120c3565b604051808473ffffffffffffffffffffffffffffffffffffffff1673ffffffffffffffffffffffffffffffffffffffff168152602001838152602001828152602001935050505060405180910390f35b6103c261210d565b6040518080602001828103825283818151815260200191508051906020019060200280838360005b838110156104055780820151818401526020810190506103ea565b505050509050019250505060405180910390f35b6104456004803603602081101561042f57600080fd5b8101908080359060200190929190505050612165565b6040518082815260200191505060405180910390f35b61049d6004803603602081101561047157600080fd5b81019080803573ffffffffffffffffffffffffffffffffffffffff169060200190929190505050612186565b6040518080602001828103825283818151815260200191508051906020019060200280838360005b838110156104e05780820151818401526020810190506104c5565b505050509050019250505060405180910390f35b61052a6004803603604081101561050a57600080fd5b81019080803590602001909291908035906020019092919050505061233e565b005b610534613841565b6040518082815260200191505060405180910390f35b610552613847565b005b61055c613abe565b604051808273ffffffffffffffffffffffffffffffffffffffff1673ffffffffffffffffffffffffffffffffffffffff16815260200191505060405180910390f35b6105a6613ae4565b6040518082815260200191505060405180910390f35b6105e8600480360360208110156105d257600080fd5b8101908080359060200190929190505050613aea565b604051808473ffffffffffffffffffffffffffffffffffffffff1673ffffffffffffffffffffffffffffffffffffffff168152602001838152602001828152602001935050505060405180910390f35b610640613b34565b6040518082815260200191505060405180910390f35b61065e613b3a565b6040518082815260200191505060405180910390f35b6106b66004803603602081101561068a57600080fd5b81019080803573ffffffffffffffffffffffffffffffffffffffff169060200190929190505050613b40565b6040518080602001828103825283818151815260200191508051906020019060200280838360005b838110156106f95780820151818401526020810190506106de565b505050509050019250505060405180910390f35b6107396004803603602081101561072357600080fd5b8101908080359060200190929190505050613cff565b6040518082815260200191505060405180910390f35b61077b6004803603602081101561076557600080fd5b8101908080359060200190929190505050613d20565b6040518082815260200191505060405180910390f35b60018054600181600116156101000203166002900480601f0160208091040260200160405190810160405280929190818152602001828054600181600116156101000203166002900480156108275780601f106107fc57610100808354040283529160200191610827565b820191906000526020600020905b81548152906001019060200180831161080a57829003601f168201915b505050505081565b600360009054906101000a900473ffffffffffffffffffffffffffffffffffffffff1681565b600260005414156108ce576040517f08c379a000000000000000000000000000000000000000000000000000000000815260040180806020018281038252601f8152602001807f5265656e7472616e637947756172643a207265656e7472616e742063616c6c0081525060200191505060405180910390fd5b600260008190555080600360009054906101000a900473ffffffffffffffffffffffffffffffffffffffff1673ffffffffffffffffffffffffffffffffffffffff166370a08231336040518263ffffffff1660e01b8152600401808273ffffffffffffffffffffffffffffffffffffffff1673ffffffffffffffffffffffffffffffffffffffff16815260200191505060206040518083038186803b15801561097657600080fd5b505afa15801561098a573d6000803e3d6000fd5b505050506040513d60208110156109a057600080fd5b810190808051906020019092919050505010156109bc57600080fd5b600f819080600181540180825580915050600190039060005260206000200160009091909190915055600f829080600181540180825580915050600190039060005260206000200160009091909190915055600360009054906101000a900473ffffffffffffffffffffffffffffffffffffffff1673ffffffffffffffffffffffffffffffffffffffff166323b872dd3330846040518463ffffffff1660e01b8152600401808473ffffffffffffffffffffffffffffffffffffffff1673ffffffffffffffffffffffffffffffffffffffff1681526020018373ffffffffffffffffffffffffffffffffffffffff1673ffffffffffffffffffffffffffffffffffffffff1681526020018281526020019350505050602060405180830381600087803b158015610aeb57600080fd5b505af1158015610aff573d6000803e3d6000fd5b505050506040513d6020811015610b1557600080fd5b8101908080519060200190929190505050506000818381610b3257fe5b04905060006001905060008090505b600d80549050811015611d9b57600d8181548110610b5b57fe5b906000526020600020015460078190555060066000600754815260200190815260200160002060020154600b81905550600b548311158015610b9f57506000600b54115b15611d8e57600091508460066000600754815260200190815260200160002060010154111561141b576000600660006007548152602001908152602001600020600201546006600060075481526020019081526020016000206001015481610c0357fe5b04905084811015610eef57600360009054906101000a900473ffffffffffffffffffffffffffffffffffffffff1673ffffffffffffffffffffffffffffffffffffffff1663a9059cbb60066000600754815260200190815260200160002060000160009054906101000a900473ffffffffffffffffffffffffffffffffffffffff16836040518363ffffffff1660e01b8152600401808373ffffffffffffffffffffffffffffffffffffffff1673ffffffffffffffffffffffffffffffffffffffff16815260200182815260200192505050602060405180830381600087803b158015610cef57600080fd5b505af1158015610d03573d6000803e3d6000fd5b505050506040513d6020811015610d1957600080fd5b810190808051906020019092919050505050600260009054906101000a900473ffffffffffffffffffffffffffffffffffffffff1673ffffffffffffffffffffffffffffffffffffffff1663a9059cbb33600b5484026040518363ffffffff1660e01b8152600401808373ffffffffffffffffffffffffffffffffffffffff1673ffffffffffffffffffffffffffffffffffffffff16815260200182815260200192505050602060405180830381600087803b158015610dd857600080fd5b505af1158015610dec573d6000803e3d6000fd5b505050506040513d6020811015610e0257600080fd5b810190808051906020019092919050505050600660006007548152602001908152602001600020600080820160006101000a81549073ffffffffffffffffffffffffffffffffffffffff021916905560018201600090556002820160009055505060008290505b6001600d8054905003811015610ebc57600d6001820181548110610e8957fe5b9060005260206000200154600d8281548110610ea157fe5b90600052602060002001819055508080600101915050610e69565b50600d805480610ec857fe5b60019003818190600052602060002001600090559055610eea84828703613d41565b611415565b8481111561114357600360009054906101000a900473ffffffffffffffffffffffffffffffffffffffff1673ffffffffffffffffffffffffffffffffffffffff1663a9059cbb60066000600754815260200190815260200160002060000160009054906101000a900473ffffffffffffffffffffffffffffffffffffffff16876040518363ffffffff1660e01b8152600401808373ffffffffffffffffffffffffffffffffffffffff1673ffffffffffffffffffffffffffffffffffffffff16815260200182815260200192505050602060405180830381600087803b158015610fd857600080fd5b505af1158015610fec573d6000803e3d6000fd5b505050506040513d602081101561100257600080fd5b810190808051906020019092919050505050600260009054906101000a900473ffffffffffffffffffffffffffffffffffffffff1673ffffffffffffffffffffffffffffffffffffffff1663a9059cbb33600b5488026040518363ffffffff1660e01b8152600401808373ffffffffffffffffffffffffffffffffffffffff1673ffffffffffffffffffffffffffffffffffffffff16815260200182815260200192505050602060405180830381600087803b1580156110c157600080fd5b505af11580156110d5573d6000803e3d6000fd5b505050506040513d60208110156110eb57600080fd5b8101908080519060200190929190505050506000600b54860260066000600754815260200190815260200160002060010154039050806006600060075481526020019081526020016000206001018190555050611414565b600360009054906101000a900473ffffffffffffffffffffffffffffffffffffffff1673ffffffffffffffffffffffffffffffffffffffff1663a9059cbb60066000600754815260200190815260200160002060000160009054906101000a900473ffffffffffffffffffffffffffffffffffffffff16876040518363ffffffff1660e01b8152600401808373ffffffffffffffffffffffffffffffffffffffff1673ffffffffffffffffffffffffffffffffffffffff16815260200182815260200192505050602060405180830381600087803b15801561122457600080fd5b505af1158015611238573d6000803e3d6000fd5b505050506040513d602081101561124e57600080fd5b810190808051906020019092919050505050600260009054906101000a900473ffffffffffffffffffffffffffffffffffffffff1673ffffffffffffffffffffffffffffffffffffffff1663a9059cbb33600b5488026040518363ffffffff1660e01b8152600401808373ffffffffffffffffffffffffffffffffffffffff1673ffffffffffffffffffffffffffffffffffffffff16815260200182815260200192505050602060405180830381600087803b15801561130d57600080fd5b505af1158015611321573d6000803e3d6000fd5b505050506040513d602081101561133757600080fd5b810190808051906020019092919050505050600660006007548152602001908152602001600020600080820160006101000a81549073ffffffffffffffffffffffffffffffffffffffff021916905560018201600090556002820160009055505060008290505b6001600d80549050038110156113f157600d60018201815481106113be57fe5b9060005260206000200154600d82815481106113d657fe5b9060005260206000200181905550808060010191505061139e565b50600d8054806113fd57fe5b600190038181906000526020600020016000905590555b5b50611d89565b84600660006007548152602001908152602001600020600101541415611a4257600060066000600754815260200190815260200160002060020154600660006007548152602001908152602001600020600101548161147657fe5b0490508481101561176257600360009054906101000a900473ffffffffffffffffffffffffffffffffffffffff1673ffffffffffffffffffffffffffffffffffffffff1663a9059cbb60066000600754815260200190815260200160002060000160009054906101000a900473ffffffffffffffffffffffffffffffffffffffff16836040518363ffffffff1660e01b8152600401808373ffffffffffffffffffffffffffffffffffffffff1673ffffffffffffffffffffffffffffffffffffffff16815260200182815260200192505050602060405180830381600087803b15801561156257600080fd5b505af1158015611576573d6000803e3d6000fd5b505050506040513d602081101561158c57600080fd5b810190808051906020019092919050505050600260009054906101000a900473ffffffffffffffffffffffffffffffffffffffff1673ffffffffffffffffffffffffffffffffffffffff1663a9059cbb33600b5484026040518363ffffffff1660e01b8152600401808373ffffffffffffffffffffffffffffffffffffffff1673ffffffffffffffffffffffffffffffffffffffff16815260200182815260200192505050602060405180830381600087803b15801561164b57600080fd5b505af115801561165f573d6000803e3d6000fd5b505050506040513d602081101561167557600080fd5b81019080805190602001909291905050505061169384828703613d41565b600660006007548152602001908152602001600020600080820160006101000a81549073ffffffffffffffffffffffffffffffffffffffff021916905560018201600090556002820160009055505060008290505b6001600d805490500381101561173b57600d600182018154811061170857fe5b9060005260206000200154600d828154811061172057fe5b906000526020600020018190555080806001019150506116e8565b50600d80548061174757fe5b60019003818190600052602060002001600090559055611a3c565b80851415611a3b57600360009054906101000a900473ffffffffffffffffffffffffffffffffffffffff1673ffffffffffffffffffffffffffffffffffffffff1663a9059cbb60066000600754815260200190815260200160002060000160009054906101000a900473ffffffffffffffffffffffffffffffffffffffff16876040518363ffffffff1660e01b8152600401808373ffffffffffffffffffffffffffffffffffffffff1673ffffffffffffffffffffffffffffffffffffffff16815260200182815260200192505050602060405180830381600087803b15801561184b57600080fd5b505af115801561185f573d6000803e3d6000fd5b505050506040513d602081101561187557600080fd5b810190808051906020019092919050505050600260009054906101000a900473ffffffffffffffffffffffffffffffffffffffff1673ffffffffffffffffffffffffffffffffffffffff1663a9059cbb33600b5488026040518363ffffffff1660e01b8152600401808373ffffffffffffffffffffffffffffffffffffffff1673ffffffffffffffffffffffffffffffffffffffff16815260200182815260200192505050602060405180830381600087803b15801561193457600080fd5b505af1158015611948573d6000803e3d6000fd5b505050506040513d602081101561195e57600080fd5b810190808051906020019092919050505050600660006007548152602001908152602001600020600080820160006101000a81549073ffffffffffffffffffffffffffffffffffffffff021916905560018201600090556002820160009055505060008290505b6001600d8054905003811015611a1857600d60018201815481106119e557fe5b9060005260206000200154600d82815481106119fd57fe5b906000526020600020018190555080806001019150506119c5565b50600d805480611a2457fe5b600190038181906000526020600020016000905590555b5b50611d88565b84600660006007548152602001908152602001600020600101541015611d87576000600660006007548152602001908152602001600020600201546006600060075481526020019081526020016000206001015481611a9d57fe5b04905084811015611d8557600360009054906101000a900473ffffffffffffffffffffffffffffffffffffffff1673ffffffffffffffffffffffffffffffffffffffff1663a9059cbb60066000600754815260200190815260200160002060000160009054906101000a900473ffffffffffffffffffffffffffffffffffffffff16836040518363ffffffff1660e01b8152600401808373ffffffffffffffffffffffffffffffffffffffff1673ffffffffffffffffffffffffffffffffffffffff16815260200182815260200192505050602060405180830381600087803b158015611b8957600080fd5b505af1158015611b9d573d6000803e3d6000fd5b505050506040513d6020811015611bb357600080fd5b810190808051906020019092919050505050600260009054906101000a900473ffffffffffffffffffffffffffffffffffffffff1673ffffffffffffffffffffffffffffffffffffffff1663a9059cbb33600b5484026040518363ffffffff1660e01b8152600401808373ffffffffffffffffffffffffffffffffffffffff1673ffffffffffffffffffffffffffffffffffffffff16815260200182815260200192505050602060405180830381600087803b158015611c7257600080fd5b505af1158015611c86573d6000803e3d6000fd5b505050506040513d6020811015611c9c57600080fd5b810190808051906020019092919050505050611cba84828703613d41565b600660006007548152602001908152602001600020600080820160006101000a81549073ffffffffffffffffffffffffffffffffffffffff021916905560018201600090556002820160009055505060008290505b6001600d8054905003811015611d6257600d6001820181548110611d2f57fe5b9060005260206000200154600d8281548110611d4757fe5b90600052602060002001819055508080600101915050611d0f565b50600d805480611d6e57fe5b600190038181906000526020600020016000905590555b505b5b5b611d9b565b8080600101915050610b41565b50600083118015611da95750805b15611db957611db88284613d41565b5b505060016000819055505050565b60055481565b6060600c805480602002602001604051908101604052809291908181526020018280548015611e1b57602002820191906000526020600020905b815481526020019060010190808311611e07575b5050505050905090565b600e8181548110611e3257fe5b906000526020600020016000915090505481565b600a5481565b60008090505b600d805490508110156120c0576000600d8281548110611e6e57fe5b906000526020600020015490506006600082815260200190815260200160002060000160009054906101000a900473ffffffffffffffffffffffffffffffffffffffff1673ffffffffffffffffffffffffffffffffffffffff163373ffffffffffffffffffffffffffffffffffffffff1614156120b257600260009054906101000a900473ffffffffffffffffffffffffffffffffffffffff1673ffffffffffffffffffffffffffffffffffffffff1663a9059cbb3360066000858152602001908152602001600020600101546040518363ffffffff1660e01b8152600401808373ffffffffffffffffffffffffffffffffffffffff1673ffffffffffffffffffffffffffffffffffffffff16815260200182815260200192505050602060405180830381600087803b158015611fa457600080fd5b505af1158015611fb8573d6000803e3d6000fd5b505050506040513d6020811015611fce57600080fd5b81019080805190602001909291905050505060066000828152602001908152602001600020600080820160006101000a81549073ffffffffffffffffffffffffffffffffffffffff021916905560018201600090556002820160009055505060008290505b6001600d805490500381101561208657600d600182018154811061205357fe5b9060005260206000200154600d828154811061206b57fe5b90600052602060002001819055508080600101915050612033565b50600d80548061209257fe5b600190038181906000526020600020016000905590558180600190039250505b508080600101915050611e52565b50565b60096020528060005260406000206000915090508060000160009054906101000a900473ffffffffffffffffffffffffffffffffffffffff16908060010154908060020154905083565b6060600d80548060200260200160405190810160405280929190818152602001828054801561215b57602002820191906000526020600020905b815481526020019060010190808311612147575b5050505050905090565b600f818154811061217257fe5b906000526020600020016000915090505481565b6060600067ffffffffffffffff811180156121a057600080fd5b506040519080825280602002602001820160405280156121cf5781602001602082028036833780820191505090505b50601190805190602001906121e5929190613f23565b5060008090505b600c805490508110156122e5576000600c828154811061220857fe5b906000526020600020015490506009600082815260200190815260200160002060000160009054906101000a900473ffffffffffffffffffffffffffffffffffffffff1673ffffffffffffffffffffffffffffffffffffffff168473ffffffffffffffffffffffffffffffffffffffff1614156122d7576011600960008381526020019081526020016000206002015460096000848152602001908152602001600020600101540290806001815401808255809150506001900390600052602060002001600090919091909150555b5080806001019150506121ec565b50601180548060200260200160405190810160405280929190818152602001828054801561233257602002820191906000526020600020905b81548152602001906001019080831161231e575b50505050509050919050565b600260005414156123b7576040517f08c379a000000000000000000000000000000000000000000000000000000000815260040180806020018281038252601f8152602001807f5265656e7472616e637947756172643a207265656e7472616e742063616c6c0081525060200191505060405180910390fd5b600260008190555080600260009054906101000a900473ffffffffffffffffffffffffffffffffffffffff1673ffffffffffffffffffffffffffffffffffffffff166370a08231336040518263ffffffff1660e01b8152600401808273ffffffffffffffffffffffffffffffffffffffff1673ffffffffffffffffffffffffffffffffffffffff16815260200191505060206040518083038186803b15801561245f57600080fd5b505afa158015612473573d6000803e3d6000fd5b505050506040513d602081101561248957600080fd5b810190808051906020019092919050505010156124a557600080fd5b600260009054906101000a900473ffffffffffffffffffffffffffffffffffffffff1673ffffffffffffffffffffffffffffffffffffffff166323b872dd3330846040518463ffffffff1660e01b8152600401808473ffffffffffffffffffffffffffffffffffffffff1673ffffffffffffffffffffffffffffffffffffffff1681526020018373ffffffffffffffffffffffffffffffffffffffff1673ffffffffffffffffffffffffffffffffffffffff1681526020018281526020019350505050602060405180830381600087803b15801561258257600080fd5b505af1158015612596573d6000803e3d6000fd5b505050506040513d60208110156125ac57600080fd5b81019080805190602001909291905050505060008282816125c957fe5b04905060006001905060008090505b600c8054905081101561381557600c81815481106125f257fe5b9060005260206000200154600a8190555060096000600a54815260200190815260200160002060020154600581905550600554831015801561263657506000600554115b1561380857600091508460096000600a548152602001908152602001600020600101541115612eba57600060055460096000600a548152602001908152602001600020600101540290508481101561297057600260009054906101000a900473ffffffffffffffffffffffffffffffffffffffff1673ffffffffffffffffffffffffffffffffffffffff1663a9059cbb60096000600a54815260200190815260200160002060000160009054906101000a900473ffffffffffffffffffffffffffffffffffffffff16836040518363ffffffff1660e01b8152600401808373ffffffffffffffffffffffffffffffffffffffff1673ffffffffffffffffffffffffffffffffffffffff16815260200182815260200192505050602060405180830381600087803b15801561276957600080fd5b505af115801561277d573d6000803e3d6000fd5b505050506040513d602081101561279357600080fd5b810190808051906020019092919050505050600360009054906101000a900473ffffffffffffffffffffffffffffffffffffffff1673ffffffffffffffffffffffffffffffffffffffff1663a9059cbb3360055484816127ef57fe5b046040518363ffffffff1660e01b8152600401808373ffffffffffffffffffffffffffffffffffffffff1673ffffffffffffffffffffffffffffffffffffffff16815260200182815260200192505050602060405180830381600087803b15801561285957600080fd5b505af115801561286d573d6000803e3d6000fd5b505050506040513d602081101561288357600080fd5b8101908080519060200190929190505050506128a184828703613e32565b60096000600a548152602001908152602001600020600080820160006101000a81549073ffffffffffffffffffffffffffffffffffffffff021916905560018201600090556002820160009055505060008290505b6001600c805490500381101561294957600c600182018154811061291657fe5b9060005260206000200154600c828154811061292e57fe5b906000526020600020018190555080806001019150506128f6565b50600c80548061295557fe5b60019003818190600052602060002001600090559055612eb4565b84811115612bd257600260009054906101000a900473ffffffffffffffffffffffffffffffffffffffff1673ffffffffffffffffffffffffffffffffffffffff1663a9059cbb60096000600a54815260200190815260200160002060000160009054906101000a900473ffffffffffffffffffffffffffffffffffffffff16876040518363ffffffff1660e01b8152600401808373ffffffffffffffffffffffffffffffffffffffff1673ffffffffffffffffffffffffffffffffffffffff16815260200182815260200192505050602060405180830381600087803b158015612a5957600080fd5b505af1158015612a6d573d6000803e3d6000fd5b505050506040513d6020811015612a8357600080fd5b810190808051906020019092919050505050600360009054906101000a900473ffffffffffffffffffffffffffffffffffffffff1673ffffffffffffffffffffffffffffffffffffffff1663a9059cbb336005548881612adf57fe5b046040518363ffffffff1660e01b8152600401808373ffffffffffffffffffffffffffffffffffffffff1673ffffffffffffffffffffffffffffffffffffffff16815260200182815260200192505050602060405180830381600087803b158015612b4957600080fd5b505af1158015612b5d573d6000803e3d6000fd5b505050506040513d6020811015612b7357600080fd5b81019080805190602001909291905050505060006005548681612b9257fe5b0460096000600a548152602001908152602001600020600101540390508060096000600a5481526020019081526020016000206001018190555050612eb3565b84811415612eb257600260009054906101000a900473ffffffffffffffffffffffffffffffffffffffff1673ffffffffffffffffffffffffffffffffffffffff1663a9059cbb60096000600a54815260200190815260200160002060000160009054906101000a900473ffffffffffffffffffffffffffffffffffffffff16876040518363ffffffff1660e01b8152600401808373ffffffffffffffffffffffffffffffffffffffff1673ffffffffffffffffffffffffffffffffffffffff16815260200182815260200192505050602060405180830381600087803b158015612cbb57600080fd5b505af1158015612ccf573d6000803e3d6000fd5b505050506040513d6020811015612ce557600080fd5b810190808051906020019092919050505050600360009054906101000a900473ffffffffffffffffffffffffffffffffffffffff1673ffffffffffffffffffffffffffffffffffffffff1663a9059cbb336005548881612d4157fe5b046040518363ffffffff1660e01b8152600401808373ffffffffffffffffffffffffffffffffffffffff1673ffffffffffffffffffffffffffffffffffffffff16815260200182815260200192505050602060405180830381600087803b158015612dab57600080fd5b505af1158015612dbf573d6000803e3d6000fd5b505050506040513d6020811015612dd557600080fd5b81019080805190602001909291905050505060096000600a548152602001908152602001600020600080820160006101000a81549073ffffffffffffffffffffffffffffffffffffffff021916905560018201600090556002820160009055505060008290505b6001600c8054905003811015612e8f57600c6001820181548110612e5c57fe5b9060005260206000200154600c8281548110612e7457fe5b90600052602060002001819055508080600101915050612e3c565b50600c805480612e9b57fe5b600190038181906000526020600020016000905590555b5b5b50613803565b8460096000600a5481526020019081526020016000206001015414156134d257600060055460096000600a54815260200190815260200160002060010154029050848110156131eb57600260009054906101000a900473ffffffffffffffffffffffffffffffffffffffff1673ffffffffffffffffffffffffffffffffffffffff1663a9059cbb60096000600a54815260200190815260200160002060000160009054906101000a900473ffffffffffffffffffffffffffffffffffffffff16836040518363ffffffff1660e01b8152600401808373ffffffffffffffffffffffffffffffffffffffff1673ffffffffffffffffffffffffffffffffffffffff16815260200182815260200192505050602060405180830381600087803b158015612fe457600080fd5b505af1158015612ff8573d6000803e3d6000fd5b505050506040513d602081101561300e57600080fd5b810190808051906020019092919050505050600360009054906101000a900473ffffffffffffffffffffffffffffffffffffffff1673ffffffffffffffffffffffffffffffffffffffff1663a9059cbb33600554848161306a57fe5b046040518363ffffffff1660e01b8152600401808373ffffffffffffffffffffffffffffffffffffffff1673ffffffffffffffffffffffffffffffffffffffff16815260200182815260200192505050602060405180830381600087803b1580156130d457600080fd5b505af11580156130e8573d6000803e3d6000fd5b505050506040513d60208110156130fe57600080fd5b81019080805190602001909291905050505061311c84828703613e32565b60096000600a548152602001908152602001600020600080820160006101000a81549073ffffffffffffffffffffffffffffffffffffffff021916905560018201600090556002820160009055505060008290505b6001600c80549050038110156131c457600c600182018154811061319157fe5b9060005260206000200154600c82815481106131a957fe5b90600052602060002001819055508080600101915050613171565b50600c8054806131d057fe5b600190038181906000526020600020016000905590556134cc565b848114156134cb57600260009054906101000a900473ffffffffffffffffffffffffffffffffffffffff1673ffffffffffffffffffffffffffffffffffffffff1663a9059cbb60096000600a54815260200190815260200160002060000160009054906101000a900473ffffffffffffffffffffffffffffffffffffffff16876040518363ffffffff1660e01b8152600401808373ffffffffffffffffffffffffffffffffffffffff1673ffffffffffffffffffffffffffffffffffffffff16815260200182815260200192505050602060405180830381600087803b1580156132d457600080fd5b505af11580156132e8573d6000803e3d6000fd5b505050506040513d60208110156132fe57600080fd5b810190808051906020019092919050505050600360009054906101000a900473ffffffffffffffffffffffffffffffffffffffff1673ffffffffffffffffffffffffffffffffffffffff1663a9059cbb33600554888161335a57fe5b046040518363ffffffff1660e01b8152600401808373ffffffffffffffffffffffffffffffffffffffff1673ffffffffffffffffffffffffffffffffffffffff16815260200182815260200192505050602060405180830381600087803b1580156133c457600080fd5b505af11580156133d8573d6000803e3d6000fd5b505050506040513d60208110156133ee57600080fd5b81019080805190602001909291905050505060096000600a548152602001908152602001600020600080820160006101000a81549073ffffffffffffffffffffffffffffffffffffffff021916905560018201600090556002820160009055505060008290505b6001600c80549050038110156134a857600c600182018154811061347557fe5b9060005260206000200154600c828154811061348d57fe5b90600052602060002001819055508080600101915050613455565b50600c8054806134b457fe5b600190038181906000526020600020016000905590555b5b50613802565b8460096000600a54815260200190815260200160002060010154101561380157600060055460096000600a54815260200190815260200160002060010154029050848110156137ff57600260009054906101000a900473ffffffffffffffffffffffffffffffffffffffff1673ffffffffffffffffffffffffffffffffffffffff1663a9059cbb60096000600a54815260200190815260200160002060000160009054906101000a900473ffffffffffffffffffffffffffffffffffffffff16836040518363ffffffff1660e01b8152600401808373ffffffffffffffffffffffffffffffffffffffff1673ffffffffffffffffffffffffffffffffffffffff16815260200182815260200192505050602060405180830381600087803b1580156135fc57600080fd5b505af1158015613610573d6000803e3d6000fd5b505050506040513d602081101561362657600080fd5b810190808051906020019092919050505050600360009054906101000a900473ffffffffffffffffffffffffffffffffffffffff1673ffffffffffffffffffffffffffffffffffffffff1663a9059cbb33600554848161368257fe5b046040518363ffffffff1660e01b8152600401808373ffffffffffffffffffffffffffffffffffffffff1673ffffffffffffffffffffffffffffffffffffffff16815260200182815260200192505050602060405180830381600087803b1580156136ec57600080fd5b505af1158015613700573d6000803e3d6000fd5b505050506040513d602081101561371657600080fd5b81019080805190602001909291905050505061373484828703613e32565b60096000600a548152602001908152602001600020600080820160006101000a81549073ffffffffffffffffffffffffffffffffffffffff021916905560018201600090556002820160009055505060008290505b6001600c80549050038110156137dc57600c60018201815481106137a957fe5b9060005260206000200154600c82815481106137c157fe5b90600052602060002001819055508080600101915050613789565b50600c8054806137e857fe5b600190038181906000526020600020016000905590555b505b5b5b613815565b80806001019150506125d8565b506000831180156138235750805b15613833576138328284613e32565b5b505060016000819055505050565b60045481565b60008090505b600c80549050811015613abb576000600c828154811061386957fe5b906000526020600020015490506009600082815260200190815260200160002060000160009054906101000a900473ffffffffffffffffffffffffffffffffffffffff1673ffffffffffffffffffffffffffffffffffffffff163373ffffffffffffffffffffffffffffffffffffffff161415613aad57600360009054906101000a900473ffffffffffffffffffffffffffffffffffffffff1673ffffffffffffffffffffffffffffffffffffffff1663a9059cbb3360096000858152602001908152602001600020600101546040518363ffffffff1660e01b8152600401808373ffffffffffffffffffffffffffffffffffffffff1673ffffffffffffffffffffffffffffffffffffffff16815260200182815260200192505050602060405180830381600087803b15801561399f57600080fd5b505af11580156139b3573d6000803e3d6000fd5b505050506040513d60208110156139c957600080fd5b81019080805190602001909291905050505060096000828152602001908152602001600020600080820160006101000a81549073ffffffffffffffffffffffffffffffffffffffff021916905560018201600090556002820160009055505060008290505b6001600c8054905003811015613a8157600c6001820181548110613a4e57fe5b9060005260206000200154600c8281548110613a6657fe5b90600052602060002001819055508080600101915050613a2e565b50600c805480613a8d57fe5b600190038181906000526020600020016000905590558180600190039250505b50808060010191505061384d565b50565b600260009054906101000a900473ffffffffffffffffffffffffffffffffffffffff1681565b60085481565b60066020528060005260406000206000915090508060000160009054906101000a900473ffffffffffffffffffffffffffffffffffffffff16908060010154908060020154905083565b600b5481565b60075481565b6060600067ffffffffffffffff81118015613b5a57600080fd5b50604051908082528060200260200182016040528015613b895781602001602082028036833780820191505090505b5060109080519060200190613b9f929190613f23565b5060008090505b600d80549050811015613ca6576000600d8281548110613bc257fe5b906000526020600020015490506006600082815260200190815260200160002060000160009054906101000a900473ffffffffffffffffffffffffffffffffffffffff1673ffffffffffffffffffffffffffffffffffffffff168473ffffffffffffffffffffffffffffffffffffffff161415613c985760106006600083815260200190815260200160002060020154600660008481526020019081526020016000206001015481613c7057fe5b0490806001815401808255809150506001900390600052602060002001600090919091909150555b508080600101915050613ba6565b506010805480602002602001604051908101604052809291908181526020018280548015613cf357602002820191906000526020600020905b815481526020019060010190808311613cdf575b50505050509050919050565b600d8181548110613d0c57fe5b906000526020600020016000915090505481565b600c8181548110613d2d57fe5b906000526020600020016000915090505481565b60008211613d4e57600080fd5b6001600860008282540192505081905550600c600854908060018154018082558091505060019003906000526020600020016000909190919091505560405180606001604052803373ffffffffffffffffffffffffffffffffffffffff1681526020018281526020018381525060096000600854815260200190815260200160002060008201518160000160006101000a81548173ffffffffffffffffffffffffffffffffffffffff021916908373ffffffffffffffffffffffffffffffffffffffff16021790555060208201518160010155604082015181600201559050505050565b60008211613e3f57600080fd5b6001600460008282540192505081905550600d600454908060018154018082558091505060019003906000526020600020016000909190919091505560405180606001604052803373ffffffffffffffffffffffffffffffffffffffff1681526020018281526020018381525060066000600454815260200190815260200160002060008201518160000160006101000a81548173ffffffffffffffffffffffffffffffffffffffff021916908373ffffffffffffffffffffffffffffffffffffffff16021790555060208201518160010155604082015181600201559050505050565b828054828255906000526020600020908101928215613f5f579160200282015b82811115613f5e578251825591602001919060010190613f43565b5b509050613f6c9190613f70565b5090565b613f9291905b80821115613f8e576000816000905550600101613f76565b5090565b9056fea26469706673582212201e911f08940c04f1cb109287a461aa4e0f5353ce7b51cdf33821cdcc1e9ee38664736f6c63430006080033",
  "immutableReferences": {},
  "source": "// SPDX-License-Identifier: MIT\n\npragma solidity >=0.6.8;\n\nimport \"./AToken.sol\";\nimport \"./BToken.sol\";\nimport {ITokenSwap} from \"./interfaces/ITokenSwap.sol\";\nimport {ReentrancyGuard} from \"@openzeppelin/contracts/utils/ReentrancyGuard.sol\";\nimport {SafeMath} from \"@openzeppelin/contracts/math/SafeMath.sol\";\nimport {Math} from \"@openzeppelin/contracts/math/Math.sol\";\n\ncontract TokenSwap is ITokenSwap, ReentrancyGuard {\n    using SafeMath for uint256;\n    using SafeMath for uint8;\n    using Math for uint256;\n\n    string public name = \"TokenSwap Exchange\";\n    AToken public aToken;\n    BToken public bToken;\n    constructor(AToken _aToken, BToken _bToken) public {\n        aToken = _aToken;\n        bToken = _bToken;\n    }\n\n    ///////////////////////////////////////////////////////////////////////// ORDERBOOK //////////////////////////////////////////////////////////////////////////////////////////\n\n    uint256 public buyCounter = 0;\n    uint256 public minSellRate;\n    mapping(uint256 => NewOrder) public newBuyOrderBook;\n    uint256 public idOfBuyRate;\n\n    uint256 public sellCounter = 0;\n    mapping(uint256 => NewOrder) public newSellOrderBook;\n    uint256 public idOfSellRate;\n    uint256 public maxBuyRate;\n\n    uint256[] public sellrateid;\n    uint256[] public buyrateid;\n\n    uint256[] public amountsell;\n    uint256[] public amountbuy;\n\n    uint256[] buyorderbookArray;\n    uint256[] sellorderbookArray;\n\n\n\n    function getbuyrate() public returns (uint256[] memory) {\n        return buyrateid;\n    }\n\n    function getsellrate() public returns (uint256[] memory) {\n        return sellrateid;\n    }\n\n\n\n    //buy B using A\n    function atob(uint256 b, uint256 a) external override nonReentrant {\n        require(aToken.balanceOf(msg.sender) >= a);\n\n        aToken.transferFrom(msg.sender, address(this), a);\n        // emit ATokensSent(msg.sender, address(this),a);\n        uint256 rate = a / b;\n        bool toAdd = true;\n\n        for (uint256 i = 0; i < sellrateid.length; i++) {\n            idOfSellRate = sellrateid[i];\n            minSellRate = newSellOrderBook[idOfSellRate].rate;\n\n            if (rate >= minSellRate && minSellRate > 0) {\n                //give best order\n                toAdd = false;\n                if (newSellOrderBook[idOfSellRate].amount > b) {\n                    uint256 arequired = newSellOrderBook[idOfSellRate].amount *\n                        minSellRate;\n\n                    if (arequired < a) {\n                        aToken.transfer(\n                            newSellOrderBook[idOfSellRate].maker,\n                            arequired\n                        );\n                        bToken.transfer(msg.sender, arequired / minSellRate);\n\n                        _atobBook(rate, a - arequired);\n                        delete newSellOrderBook[idOfSellRate];\n                        for (uint256 j = i; j < sellrateid.length - 1; j++) {\n                            sellrateid[j] = sellrateid[j + 1];\n                        }\n                        sellrateid.pop();\n                    } else if (arequired > a) {\n                        aToken.transfer(\n                            newSellOrderBook[idOfSellRate].maker,\n                            a\n                        );\n                        bToken.transfer(msg.sender, a / minSellRate);\n                        uint256 newAmount = newSellOrderBook[idOfSellRate]\n                            .amount - a / minSellRate;\n                        newSellOrderBook[idOfSellRate].amount = newAmount;\n                    } else if (arequired == a) {\n                        aToken.transfer(\n                            newSellOrderBook[idOfSellRate].maker,\n                            a\n                        );\n                        bToken.transfer(msg.sender, a / minSellRate);\n                        delete newSellOrderBook[idOfSellRate];\n                        for (uint256 j = i; j < sellrateid.length - 1; j++) {\n                            sellrateid[j] = sellrateid[j + 1];\n                        }\n                        sellrateid.pop();\n                    }\n                } else if (newSellOrderBook[idOfSellRate].amount == b) {\n                    uint256 arequired = newSellOrderBook[idOfSellRate].amount *\n                        minSellRate;\n                    if (arequired < a) {\n                        aToken.transfer(\n                            newSellOrderBook[idOfSellRate].maker,\n                            arequired\n                        );\n                        bToken.transfer(msg.sender, arequired / minSellRate);\n\n                        _atobBook(rate, a - arequired);\n                        delete newSellOrderBook[idOfSellRate];\n                        for (uint256 j = i; j < sellrateid.length - 1; j++) {\n                            sellrateid[j] = sellrateid[j + 1];\n                        }\n                        sellrateid.pop();\n                    } else if (arequired == a) {\n                        aToken.transfer(\n                            newSellOrderBook[idOfSellRate].maker,\n                            a\n                        );\n                        bToken.transfer(msg.sender, a / minSellRate);\n                        delete newSellOrderBook[idOfSellRate];\n                        for (uint256 j = i; j < sellrateid.length - 1; j++) {\n                            sellrateid[j] = sellrateid[j + 1];\n                        }\n                        sellrateid.pop();\n                    }\n                } else if (newSellOrderBook[idOfSellRate].amount < b) {\n                    uint256 arequired = newSellOrderBook[idOfSellRate].amount *\n                        minSellRate;\n                    if (arequired < a) {\n                        aToken.transfer(\n                            newSellOrderBook[idOfSellRate].maker,\n                            arequired\n                        );\n                        bToken.transfer(msg.sender, arequired / minSellRate);\n\n                        _atobBook(rate, a - arequired);\n                        delete newSellOrderBook[idOfSellRate];\n                        for (uint256 j = i; j < sellrateid.length - 1; j++) {\n                            sellrateid[j] = sellrateid[j + 1];\n                        }\n                        sellrateid.pop();\n                    }\n                }\n                break;\n            }\n        }\n        if (a > 0 && toAdd) {\n            _atobBook(rate, a);\n        }\n    }\n\n    function _atobBook(uint256 rate, uint256 a) internal {\n        require(rate > 0);\n        buyCounter += 1;\n        buyrateid.push(buyCounter);\n        newBuyOrderBook[buyCounter] = NewOrder(msg.sender, a, rate);\n    }\n\n\n\n    // buy A using b\n    function btoa(uint256 a, uint256 b) external override nonReentrant {\n        require(bToken.balanceOf(msg.sender) >= b);\n        amountbuy.push(b);\n        amountbuy.push(a);\n        bToken.transferFrom(msg.sender, address(this), b);\n        // emit BTokensSent(msg.sender, address(this),b);\n\n        uint256 rate = a / b;\n        bool toAdd = true;\n\n        for (uint256 i = 0; i < buyrateid.length; i++) {\n            idOfBuyRate = buyrateid[i];\n            maxBuyRate = newBuyOrderBook[idOfBuyRate].rate;\n            if (rate <= maxBuyRate && maxBuyRate > 0) {\n                toAdd = false;\n                if (newBuyOrderBook[idOfBuyRate].amount > a) {\n                    //calculate new b amount\n                    uint256 brequired = newBuyOrderBook[idOfBuyRate].amount /\n                        newBuyOrderBook[idOfBuyRate].rate;\n                    if (brequired < b) {\n                        bToken.transfer(\n                            newBuyOrderBook[idOfBuyRate].maker,\n                            brequired\n                        );\n                        aToken.transfer(msg.sender, brequired * maxBuyRate);\n                        delete newBuyOrderBook[idOfBuyRate];\n                        for (uint256 j = i; j < buyrateid.length - 1; j++) {\n                            buyrateid[j] = buyrateid[j + 1];\n                        }\n                        buyrateid.pop();\n                        _btoaBook(rate, b - brequired);\n                    } else if (brequired > b) {\n                        bToken.transfer(newBuyOrderBook[idOfBuyRate].maker, b);\n                        aToken.transfer(msg.sender, b * maxBuyRate);\n                        //calculate new a amount\n                        uint256 newAmount = newBuyOrderBook[idOfBuyRate]\n                            .amount - b * maxBuyRate;\n                        newBuyOrderBook[idOfBuyRate].amount = newAmount; //replace old amount with new\n                    } else {\n                        bToken.transfer(newBuyOrderBook[idOfBuyRate].maker, b);\n                        aToken.transfer(msg.sender, b * maxBuyRate);\n\n                        delete newBuyOrderBook[idOfBuyRate];\n                        for (uint256 j = i; j < buyrateid.length - 1; j++) {\n                            buyrateid[j] = buyrateid[j + 1];\n                        }\n                        buyrateid.pop();\n                    }\n                } else if (newBuyOrderBook[idOfBuyRate].amount == a) {\n                    uint256 brequired = newBuyOrderBook[idOfBuyRate].amount /\n                        newBuyOrderBook[idOfBuyRate].rate;\n\n                    if (brequired < b) {\n                        bToken.transfer(\n                            newBuyOrderBook[idOfBuyRate].maker,\n                            brequired\n                        );\n                        aToken.transfer(msg.sender, brequired * maxBuyRate);\n                        _btoaBook(rate, b - brequired);\n                        delete newBuyOrderBook[idOfBuyRate];\n                        for (uint256 j = i; j < buyrateid.length - 1; j++) {\n                            buyrateid[j] = buyrateid[j + 1];\n                        }\n                        buyrateid.pop();\n                    } else if (b == brequired) {\n                        bToken.transfer(newBuyOrderBook[idOfBuyRate].maker, b);\n                        aToken.transfer(msg.sender, b * maxBuyRate);\n\n                        delete newBuyOrderBook[idOfBuyRate];\n                        for (uint256 j = i; j < buyrateid.length - 1; j++) {\n                            buyrateid[j] = buyrateid[j + 1];\n                        }\n                        buyrateid.pop();\n                    }\n                } else if (newBuyOrderBook[idOfBuyRate].amount < a) {\n                    uint256 brequired = newBuyOrderBook[idOfBuyRate].amount /\n                        newBuyOrderBook[idOfBuyRate].rate;\n\n                    if (brequired < b) {\n                        bToken.transfer(\n                            newBuyOrderBook[idOfBuyRate].maker,\n                            brequired\n                        );\n                        aToken.transfer(msg.sender, brequired * maxBuyRate);\n                        _btoaBook(rate, b - brequired);\n                        delete newBuyOrderBook[idOfBuyRate];\n                        for (uint256 j = i; j < buyrateid.length - 1; j++) {\n                            buyrateid[j] = buyrateid[j + 1];\n                        }\n                        buyrateid.pop();\n                    }\n                }\n                break;\n            }\n        }\n\n        if (b > 0 && toAdd) {\n            _btoaBook(rate, b);\n        }\n    }\n\n\n    function _btoaBook(uint256 rate, uint256 b) internal {\n        require(rate > 0);\n        sellCounter += 1;\n        sellrateid.push(sellCounter);\n        newSellOrderBook[sellCounter] = NewOrder(msg.sender, b, rate);\n        // // emit DrawToSellBook(msg.sender, rate, amountSold);\n    }\n\n    ////////////////////////////////////////////////////////////////////////////////////////////// delete orders  ///////////////////////////////////////////////////////////////////////////////////////////////\n\n    function deleteBuyOrders() public {\n        for (uint256 i = 0; i < buyrateid.length; i++) {\n            uint256 key = buyrateid[i];\n            if (msg.sender == newBuyOrderBook[key].maker) {\n                aToken.transfer(msg.sender, newBuyOrderBook[key].amount);\n                delete newBuyOrderBook[key];\n                for (uint256 j = i; j < buyrateid.length - 1; j++) {\n                    buyrateid[j] = buyrateid[j + 1];\n                }\n                buyrateid.pop();\n                i--;\n            }\n        }\n\n    }\n\n    function deleteSellOrders() public {\n        for (uint256 i = 0; i < sellrateid.length; i++) {\n            uint256 key = sellrateid[i];\n            if (msg.sender == newSellOrderBook[key].maker) {\n                bToken.transfer(msg.sender, newSellOrderBook[key].amount);\n                delete newSellOrderBook[key];\n                for (uint256 j = i; j < sellrateid.length - 1; j++) {\n                    sellrateid[j] = sellrateid[j + 1];\n                }\n                sellrateid.pop();\n                i--;\n            }\n        }\n\n    }\n\n    ////////////////////////////////////////////////////////////////////////////////////////////// display orderbooks ///////////////////////////////////////////////////////////////////////////////////////////////\n    function getBuyOrderBook(address account)\n        public\n        returns (uint256[] memory)\n    {\n        buyorderbookArray = new uint256[](0);\n        for (uint256 i = 0; i < buyrateid.length; i++) {\n            uint256 key = buyrateid[i];\n            if (account == newBuyOrderBook[key].maker) {\n                buyorderbookArray.push(\n                    newBuyOrderBook[key].amount / newBuyOrderBook[key].rate\n                );\n            }\n        }\n\n \n\n        return buyorderbookArray;\n    }\n\n    function getSellOrderBook(address account)\n        public\n        returns (uint256[] memory)\n    {\n        sellorderbookArray = new uint256[](0);\n        for (uint256 i = 0; i < sellrateid.length; i++) {\n            uint256 key = sellrateid[i];\n            if (account == newSellOrderBook[key].maker) {\n                sellorderbookArray.push(\n                    newSellOrderBook[key].amount * newSellOrderBook[key].rate\n                );\n            }\n        }\n\n\n\n        return sellorderbookArray;\n    }\n}\n",
  "sourcePath": "/Users/weerenteo/Desktop/Dex/Blockchain-DEX/src/contracts/TokenSwap.sol",
  "compiler": {
    "name": "solc",
    "version": "0.6.8+commit.0bbfe453.Emscripten.clang"
  },
  "schemaVersion": "3.4.10",
  "updatedAt": "2022-11-05T17:34:25.088Z",
  "networkType": "ethereum",
  "devdoc": {
    "methods": {}
  },
  "userdoc": {
    "methods": {
      "deleteBuyOrders()": {
        "notice": "/////////////////////////////////////////////////////////////////////////////////////////// delete orders  ///////////////////////////////////////////////////////////////////////////////////////////////"
      },
      "getBuyOrderBook(address)": {
        "notice": "/////////////////////////////////////////////////////////////////////////////////////////// display orderbooks ///////////////////////////////////////////////////////////////////////////////////////////////"
      }
    }
  }
}