{
  "contractName": "TokenSwap",
  "abi": [
    {
      "inputs": [
        {
          "internalType": "contract AToken",
          "name": "_aToken",
          "type": "address"
        },
        {
          "internalType": "contract BToken",
          "name": "_bToken",
          "type": "address"
        }
      ],
      "stateMutability": "nonpayable",
      "type": "constructor"
    },
    {
      "anonymous": false,
      "inputs": [
        {
          "indexed": false,
          "internalType": "address",
          "name": "account",
          "type": "address"
        },
        {
          "indexed": false,
          "internalType": "address",
          "name": "token",
          "type": "address"
        },
        {
          "indexed": false,
          "internalType": "uint256",
          "name": "amount",
          "type": "uint256"
        },
        {
          "indexed": false,
          "internalType": "uint256",
          "name": "rate",
          "type": "uint256"
        }
      ],
      "name": "BTokensPurchased",
      "type": "event"
    },
    {
      "anonymous": false,
      "inputs": [
        {
          "indexed": false,
          "internalType": "address",
          "name": "account",
          "type": "address"
        },
        {
          "indexed": false,
          "internalType": "address",
          "name": "token",
          "type": "address"
        },
        {
          "indexed": false,
          "internalType": "uint256",
          "name": "amount",
          "type": "uint256"
        },
        {
          "indexed": false,
          "internalType": "uint256",
          "name": "rate",
          "type": "uint256"
        }
      ],
      "name": "BTokensSold",
      "type": "event"
    },
    {
      "anonymous": false,
      "inputs": [
        {
          "indexed": false,
          "internalType": "address",
          "name": "sender",
          "type": "address"
        },
        {
          "indexed": false,
          "internalType": "uint256",
          "name": "price",
          "type": "uint256"
        },
        {
          "indexed": false,
          "internalType": "uint256",
          "name": "amountOfBaseToken",
          "type": "uint256"
        }
      ],
      "name": "DrawToBuyBook",
      "type": "event"
    },
    {
      "anonymous": false,
      "inputs": [
        {
          "indexed": false,
          "internalType": "address",
          "name": "sender",
          "type": "address"
        },
        {
          "indexed": false,
          "internalType": "uint256",
          "name": "price",
          "type": "uint256"
        },
        {
          "indexed": false,
          "internalType": "uint256",
          "name": "amountOfTradeToken",
          "type": "uint256"
        }
      ],
      "name": "DrawToSellBook",
      "type": "event"
    },
    {
      "anonymous": false,
      "inputs": [
        {
          "indexed": false,
          "internalType": "address",
          "name": "sender",
          "type": "address"
        },
        {
          "indexed": false,
          "internalType": "uint256",
          "name": "price",
          "type": "uint256"
        },
        {
          "indexed": false,
          "internalType": "uint256",
          "name": "amountOfBaseToken",
          "type": "uint256"
        }
      ],
      "name": "PlaceBuyOrder",
      "type": "event"
    },
    {
      "anonymous": false,
      "inputs": [
        {
          "indexed": false,
          "internalType": "address",
          "name": "sender",
          "type": "address"
        },
        {
          "indexed": false,
          "internalType": "uint256",
          "name": "price",
          "type": "uint256"
        },
        {
          "indexed": false,
          "internalType": "uint256",
          "name": "amountOfTradeToken",
          "type": "uint256"
        }
      ],
      "name": "PlaceSellOrder",
      "type": "event"
    },
    {
      "anonymous": false,
      "inputs": [
        {
          "indexed": false,
          "internalType": "address",
          "name": "account",
          "type": "address"
        },
        {
          "indexed": false,
          "internalType": "address",
          "name": "token",
          "type": "address"
        },
        {
          "indexed": false,
          "internalType": "uint256",
          "name": "amount",
          "type": "uint256"
        },
        {
          "indexed": false,
          "internalType": "uint256",
          "name": "rate",
          "type": "uint256"
        }
      ],
      "name": "TokensPurchased",
      "type": "event"
    },
    {
      "anonymous": false,
      "inputs": [
        {
          "indexed": false,
          "internalType": "address",
          "name": "account",
          "type": "address"
        },
        {
          "indexed": false,
          "internalType": "address",
          "name": "token",
          "type": "address"
        },
        {
          "indexed": false,
          "internalType": "uint256",
          "name": "amount",
          "type": "uint256"
        },
        {
          "indexed": false,
          "internalType": "uint256",
          "name": "rate",
          "type": "uint256"
        }
      ],
      "name": "TokensSold",
      "type": "event"
    },
    {
      "inputs": [],
      "name": "aRate",
      "outputs": [
        {
          "internalType": "uint256",
          "name": "",
          "type": "uint256"
        }
      ],
      "stateMutability": "view",
      "type": "function",
      "constant": true
    },
    {
      "inputs": [],
      "name": "aToken",
      "outputs": [
        {
          "internalType": "contract AToken",
          "name": "",
          "type": "address"
        }
      ],
      "stateMutability": "view",
      "type": "function",
      "constant": true
    },
    {
      "inputs": [
        {
          "internalType": "uint256",
          "name": "",
          "type": "uint256"
        }
      ],
      "name": "amountbuy",
      "outputs": [
        {
          "internalType": "uint256",
          "name": "",
          "type": "uint256"
        }
      ],
      "stateMutability": "view",
      "type": "function",
      "constant": true
    },
    {
      "inputs": [
        {
          "internalType": "uint256",
          "name": "",
          "type": "uint256"
        }
      ],
      "name": "amountsell",
      "outputs": [
        {
          "internalType": "uint256",
          "name": "",
          "type": "uint256"
        }
      ],
      "stateMutability": "view",
      "type": "function",
      "constant": true
    },
    {
      "inputs": [],
      "name": "bRate",
      "outputs": [
        {
          "internalType": "uint256",
          "name": "",
          "type": "uint256"
        }
      ],
      "stateMutability": "view",
      "type": "function",
      "constant": true
    },
    {
      "inputs": [],
      "name": "bToken",
      "outputs": [
        {
          "internalType": "contract BToken",
          "name": "",
          "type": "address"
        }
      ],
      "stateMutability": "view",
      "type": "function",
      "constant": true
    },
    {
      "inputs": [],
      "name": "baseToken",
      "outputs": [
        {
          "internalType": "contract IERC20",
          "name": "",
          "type": "address"
        }
      ],
      "stateMutability": "view",
      "type": "function",
      "constant": true
    },
    {
      "inputs": [],
      "name": "buyCounter",
      "outputs": [
        {
          "internalType": "uint256",
          "name": "",
          "type": "uint256"
        }
      ],
      "stateMutability": "view",
      "type": "function",
      "constant": true
    },
    {
      "inputs": [
        {
          "internalType": "uint256",
          "name": "",
          "type": "uint256"
        },
        {
          "internalType": "uint8",
          "name": "",
          "type": "uint8"
        }
      ],
      "name": "buyOrdersInStep",
      "outputs": [
        {
          "internalType": "address",
          "name": "maker",
          "type": "address"
        },
        {
          "internalType": "uint256",
          "name": "amount",
          "type": "uint256"
        }
      ],
      "stateMutability": "view",
      "type": "function",
      "constant": true
    },
    {
      "inputs": [
        {
          "internalType": "uint256",
          "name": "",
          "type": "uint256"
        }
      ],
      "name": "buyOrdersInStepCounter",
      "outputs": [
        {
          "internalType": "uint8",
          "name": "",
          "type": "uint8"
        }
      ],
      "stateMutability": "view",
      "type": "function",
      "constant": true
    },
    {
      "inputs": [
        {
          "internalType": "uint256",
          "name": "",
          "type": "uint256"
        }
      ],
      "name": "buySteps",
      "outputs": [
        {
          "internalType": "uint256",
          "name": "higherPrice",
          "type": "uint256"
        },
        {
          "internalType": "uint256",
          "name": "lowerPrice",
          "type": "uint256"
        },
        {
          "internalType": "uint256",
          "name": "amount",
          "type": "uint256"
        }
      ],
      "stateMutability": "view",
      "type": "function",
      "constant": true
    },
    {
      "inputs": [
        {
          "internalType": "uint256",
          "name": "",
          "type": "uint256"
        }
      ],
      "name": "buyrateid",
      "outputs": [
        {
          "internalType": "uint256",
          "name": "",
          "type": "uint256"
        }
      ],
      "stateMutability": "view",
      "type": "function",
      "constant": true
    },
    {
      "inputs": [],
      "name": "idOfBuyRate",
      "outputs": [
        {
          "internalType": "uint256",
          "name": "",
          "type": "uint256"
        }
      ],
      "stateMutability": "view",
      "type": "function",
      "constant": true
    },
    {
      "inputs": [],
      "name": "idOfSellRate",
      "outputs": [
        {
          "internalType": "uint256",
          "name": "",
          "type": "uint256"
        }
      ],
      "stateMutability": "view",
      "type": "function",
      "constant": true
    },
    {
      "inputs": [],
      "name": "maxBuyPrice",
      "outputs": [
        {
          "internalType": "uint256",
          "name": "",
          "type": "uint256"
        }
      ],
      "stateMutability": "view",
      "type": "function",
      "constant": true
    },
    {
      "inputs": [],
      "name": "maxBuyRate",
      "outputs": [
        {
          "internalType": "uint256",
          "name": "",
          "type": "uint256"
        }
      ],
      "stateMutability": "view",
      "type": "function",
      "constant": true
    },
    {
      "inputs": [],
      "name": "minSellPrice",
      "outputs": [
        {
          "internalType": "uint256",
          "name": "",
          "type": "uint256"
        }
      ],
      "stateMutability": "view",
      "type": "function",
      "constant": true
    },
    {
      "inputs": [],
      "name": "minSellRate",
      "outputs": [
        {
          "internalType": "uint256",
          "name": "",
          "type": "uint256"
        }
      ],
      "stateMutability": "view",
      "type": "function",
      "constant": true
    },
    {
      "inputs": [],
      "name": "name",
      "outputs": [
        {
          "internalType": "string",
          "name": "",
          "type": "string"
        }
      ],
      "stateMutability": "view",
      "type": "function",
      "constant": true
    },
    {
      "inputs": [
        {
          "internalType": "uint256",
          "name": "",
          "type": "uint256"
        }
      ],
      "name": "newBuyOrderBook",
      "outputs": [
        {
          "internalType": "address",
          "name": "maker",
          "type": "address"
        },
        {
          "internalType": "uint256",
          "name": "amount",
          "type": "uint256"
        },
        {
          "internalType": "uint256",
          "name": "rate",
          "type": "uint256"
        }
      ],
      "stateMutability": "view",
      "type": "function",
      "constant": true
    },
    {
      "inputs": [
        {
          "internalType": "uint256",
          "name": "",
          "type": "uint256"
        }
      ],
      "name": "newSellOrderBook",
      "outputs": [
        {
          "internalType": "address",
          "name": "maker",
          "type": "address"
        },
        {
          "internalType": "uint256",
          "name": "amount",
          "type": "uint256"
        },
        {
          "internalType": "uint256",
          "name": "rate",
          "type": "uint256"
        }
      ],
      "stateMutability": "view",
      "type": "function",
      "constant": true
    },
    {
      "inputs": [],
      "name": "sellCounter",
      "outputs": [
        {
          "internalType": "uint256",
          "name": "",
          "type": "uint256"
        }
      ],
      "stateMutability": "view",
      "type": "function",
      "constant": true
    },
    {
      "inputs": [
        {
          "internalType": "uint256",
          "name": "",
          "type": "uint256"
        },
        {
          "internalType": "uint8",
          "name": "",
          "type": "uint8"
        }
      ],
      "name": "sellOrdersInStep",
      "outputs": [
        {
          "internalType": "address",
          "name": "maker",
          "type": "address"
        },
        {
          "internalType": "uint256",
          "name": "amount",
          "type": "uint256"
        }
      ],
      "stateMutability": "view",
      "type": "function",
      "constant": true
    },
    {
      "inputs": [
        {
          "internalType": "uint256",
          "name": "",
          "type": "uint256"
        }
      ],
      "name": "sellOrdersInStepCounter",
      "outputs": [
        {
          "internalType": "uint8",
          "name": "",
          "type": "uint8"
        }
      ],
      "stateMutability": "view",
      "type": "function",
      "constant": true
    },
    {
      "inputs": [
        {
          "internalType": "uint256",
          "name": "",
          "type": "uint256"
        }
      ],
      "name": "sellSteps",
      "outputs": [
        {
          "internalType": "uint256",
          "name": "higherPrice",
          "type": "uint256"
        },
        {
          "internalType": "uint256",
          "name": "lowerPrice",
          "type": "uint256"
        },
        {
          "internalType": "uint256",
          "name": "amount",
          "type": "uint256"
        }
      ],
      "stateMutability": "view",
      "type": "function",
      "constant": true
    },
    {
      "inputs": [
        {
          "internalType": "uint256",
          "name": "",
          "type": "uint256"
        }
      ],
      "name": "sellrateid",
      "outputs": [
        {
          "internalType": "uint256",
          "name": "",
          "type": "uint256"
        }
      ],
      "stateMutability": "view",
      "type": "function",
      "constant": true
    },
    {
      "inputs": [],
      "name": "selltx",
      "outputs": [
        {
          "internalType": "uint256",
          "name": "",
          "type": "uint256"
        }
      ],
      "stateMutability": "view",
      "type": "function",
      "constant": true
    },
    {
      "inputs": [],
      "name": "tradeToken",
      "outputs": [
        {
          "internalType": "contract IERC20",
          "name": "",
          "type": "address"
        }
      ],
      "stateMutability": "view",
      "type": "function",
      "constant": true
    },
    {
      "inputs": [],
      "name": "buyATokens",
      "outputs": [],
      "stateMutability": "payable",
      "type": "function",
      "payable": true
    },
    {
      "inputs": [
        {
          "internalType": "uint256",
          "name": "_amount",
          "type": "uint256"
        }
      ],
      "name": "sellATokens",
      "outputs": [],
      "stateMutability": "nonpayable",
      "type": "function"
    },
    {
      "inputs": [],
      "name": "buyBTokens",
      "outputs": [],
      "stateMutability": "payable",
      "type": "function",
      "payable": true
    },
    {
      "inputs": [
        {
          "internalType": "uint256",
          "name": "_amount",
          "type": "uint256"
        }
      ],
      "name": "sellBTokens",
      "outputs": [],
      "stateMutability": "nonpayable",
      "type": "function"
    },
    {
      "inputs": [],
      "name": "getbuyrate",
      "outputs": [
        {
          "internalType": "uint256[]",
          "name": "",
          "type": "uint256[]"
        }
      ],
      "stateMutability": "nonpayable",
      "type": "function"
    },
    {
      "inputs": [],
      "name": "getsellrate",
      "outputs": [
        {
          "internalType": "uint256[]",
          "name": "",
          "type": "uint256[]"
        }
      ],
      "stateMutability": "nonpayable",
      "type": "function"
    },
    {
      "inputs": [],
      "name": "getamountbuy",
      "outputs": [
        {
          "internalType": "uint256[]",
          "name": "",
          "type": "uint256[]"
        }
      ],
      "stateMutability": "nonpayable",
      "type": "function"
    },
    {
      "inputs": [
        {
          "internalType": "uint256",
          "name": "b",
          "type": "uint256"
        },
        {
          "internalType": "uint256",
          "name": "a",
          "type": "uint256"
        }
      ],
      "name": "atob",
      "outputs": [],
      "stateMutability": "nonpayable",
      "type": "function"
    },
    {
      "inputs": [
        {
          "internalType": "uint256",
          "name": "a",
          "type": "uint256"
        },
        {
          "internalType": "uint256",
          "name": "b",
          "type": "uint256"
        }
      ],
      "name": "btoa",
      "outputs": [],
      "stateMutability": "nonpayable",
      "type": "function"
    },
    {
      "inputs": [],
      "name": "deleteBuyOrders",
      "outputs": [],
      "stateMutability": "nonpayable",
      "type": "function"
    },
    {
      "inputs": [],
      "name": "deleteSellOrders",
      "outputs": [],
      "stateMutability": "nonpayable",
      "type": "function"
    }
  ],
  "bytecode": "0x60806040526040518060400160405280601a81526020017f546f6b656e5377617020496e7374616e742045786368616e676500000000000081525060039080519060200190620000519291906200014d565b506103e86005556103e86007556000601055600060145560006018553480156200007a57600080fd5b50604051620040b0380380620040b083398181016040526040811015620000a057600080fd5b810190808051906020019092919080519060200190929190505050600160008190555081600460006101000a81548173ffffffffffffffffffffffffffffffffffffffff021916908373ffffffffffffffffffffffffffffffffffffffff16021790555080600660006101000a81548173ffffffffffffffffffffffffffffffffffffffff021916908373ffffffffffffffffffffffffffffffffffffffff1602179055505050620001fc565b828054600181600116156101000203166002900490600052602060002090601f016020900481019282601f106200019057805160ff1916838001178555620001c1565b82800160010185558215620001c1579182015b82811115620001c0578251825591602001919060010190620001a3565b5b509050620001d09190620001d4565b5090565b620001f991905b80821115620001f5576000816000905550600101620001db565b5090565b90565b613ea4806200020c6000396000f3fe6080604052600436106102305760003560e01c806391ceedbf1161012e578063c86f6639116100ab578063e7e8b3821161006f578063e7e8b38214610ba8578063ec4763b614610bfd578063f22dda4114610c4c578063f36c758d14610c87578063f9193df014610cf357610230565b8063c86f663914610aa2578063cddfa2a414610acd578063ce72b86014610af8578063d83678ac14610b02578063dd7f4e4014610b5957610230565b8063a4d0047d116100f2578063a4d0047d14610962578063b2bb39ef1461098d578063b9a541eb14610a16578063c51b435014610a41578063c55dae6314610a4b57610230565b806391ceedbf146108735780639237b46c1461089e578063947cde38146108b557806399487e88146108e0578063a0c1f15e1461090b57610230565b806350e3d808116101bc5780636c0a9daa116101805780636c0a9daa1461070d5780636d952117146107485780636e94422c1461077357806376a4202e146107df5780638544a5ec1461082e57610230565b806350e3d80814610587578063540cecb3146105f35780635632993b14610642578063618346411461066d5780636bc69a241461068457610230565b80632e78cd24116102035780632e78cd241461040057806333f393ee1461045d5780633e2974e7146104a25780633edec69a146104cd578063433f88da146104f857610230565b80630446d1c61461023557806304ebe308146102c457806306fdde0314610319578063180f5842146103a9575b600080fd5b34801561024157600080fd5b5061027b6004803603604081101561025857600080fd5b8101908080359060200190929190803560ff169060200190929190505050610d50565b604051808373ffffffffffffffffffffffffffffffffffffffff1673ffffffffffffffffffffffffffffffffffffffff1681526020018281526020019250505060405180910390f35b3480156102d057600080fd5b506102fd600480360360208110156102e757600080fd5b8101908080359060200190929190505050610da1565b604051808260ff1660ff16815260200191505060405180910390f35b34801561032557600080fd5b5061032e610dc1565b6040518080602001828103825283818151815260200191508051906020019080838360005b8381101561036e578082015181840152602081019050610353565b50505050905090810190601f16801561039b5780820380516001836020036101000a031916815260200191505b509250505060405180910390f35b3480156103b557600080fd5b506103be610e5f565b604051808273ffffffffffffffffffffffffffffffffffffffff1673ffffffffffffffffffffffffffffffffffffffff16815260200191505060405180910390f35b34801561040c57600080fd5b506104396004803603602081101561042357600080fd5b8101908080359060200190929190505050610e85565b60405180848152602001838152602001828152602001935050505060405180910390f35b34801561046957600080fd5b506104a06004803603604081101561048057600080fd5b810190808035906020019092919080359060200190929190505050610eaf565b005b3480156104ae57600080fd5b506104b7611bf8565b6040518082815260200191505060405180910390f35b3480156104d957600080fd5b506104e2611bfe565b6040518082815260200191505060405180910390f35b34801561050457600080fd5b5061053e6004803603604081101561051b57600080fd5b8101908080359060200190929190803560ff169060200190929190505050611c04565b604051808373ffffffffffffffffffffffffffffffffffffffff1673ffffffffffffffffffffffffffffffffffffffff1681526020018281526020019250505060405180910390f35b34801561059357600080fd5b5061059c611c55565b6040518080602001828103825283818151815260200191508051906020019060200280838360005b838110156105df5780820151818401526020810190506105c4565b505050509050019250505060405180910390f35b3480156105ff57600080fd5b5061062c6004803603602081101561061657600080fd5b8101908080359060200190929190505050611cad565b6040518082815260200191505060405180910390f35b34801561064e57600080fd5b50610657611cce565b6040518082815260200191505060405180910390f35b34801561067957600080fd5b50610682611cd4565b005b34801561069057600080fd5b506106bd600480360360208110156106a757600080fd5b8101908080359060200190929190505050611f4b565b604051808473ffffffffffffffffffffffffffffffffffffffff1673ffffffffffffffffffffffffffffffffffffffff168152602001838152602001828152602001935050505060405180910390f35b34801561071957600080fd5b506107466004803603602081101561073057600080fd5b8101908080359060200190929190505050611f95565b005b34801561075457600080fd5b5061075d6122de565b6040518082815260200191505060405180910390f35b34801561077f57600080fd5b506107886122e4565b6040518080602001828103825283818151815260200191508051906020019060200280838360005b838110156107cb5780820151818401526020810190506107b0565b505050509050019250505060405180910390f35b3480156107eb57600080fd5b506108186004803603602081101561080257600080fd5b810190808035906020019092919050505061233c565b6040518082815260200191505060405180910390f35b34801561083a57600080fd5b506108716004803603604081101561085157600080fd5b81019080803590602001909291908035906020019092919050505061235d565b005b34801561087f57600080fd5b50610888612fbe565b6040518082815260200191505060405180910390f35b3480156108aa57600080fd5b506108b3612fc4565b005b3480156108c157600080fd5b506108ca61323b565b6040518082815260200191505060405180910390f35b3480156108ec57600080fd5b506108f5613241565b6040518082815260200191505060405180910390f35b34801561091757600080fd5b50610920613247565b604051808273ffffffffffffffffffffffffffffffffffffffff1673ffffffffffffffffffffffffffffffffffffffff16815260200191505060405180910390f35b34801561096e57600080fd5b5061097761326d565b6040518082815260200191505060405180910390f35b34801561099957600080fd5b506109c6600480360360208110156109b057600080fd5b8101908080359060200190929190505050613273565b604051808473ffffffffffffffffffffffffffffffffffffffff1673ffffffffffffffffffffffffffffffffffffffff168152602001838152602001828152602001935050505060405180910390f35b348015610a2257600080fd5b50610a2b6132bd565b6040518082815260200191505060405180910390f35b610a496132c3565b005b348015610a5757600080fd5b50610a60613565565b604051808273ffffffffffffffffffffffffffffffffffffffff1673ffffffffffffffffffffffffffffffffffffffff16815260200191505060405180910390f35b348015610aae57600080fd5b50610ab761358b565b6040518082815260200191505060405180910390f35b348015610ad957600080fd5b50610ae2613591565b6040518082815260200191505060405180910390f35b610b00613597565b005b348015610b0e57600080fd5b50610b17613839565b604051808273ffffffffffffffffffffffffffffffffffffffff1673ffffffffffffffffffffffffffffffffffffffff16815260200191505060405180910390f35b348015610b6557600080fd5b50610b9260048036036020811015610b7c57600080fd5b810190808035906020019092919050505061385f565b6040518082815260200191505060405180910390f35b348015610bb457600080fd5b50610be160048036036020811015610bcb57600080fd5b8101908080359060200190929190505050613880565b604051808260ff1660ff16815260200191505060405180910390f35b348015610c0957600080fd5b50610c3660048036036020811015610c2057600080fd5b81019080803590602001909291905050506138a0565b6040518082815260200191505060405180910390f35b348015610c5857600080fd5b50610c8560048036036020811015610c6f57600080fd5b81019080803590602001909291905050506138c1565b005b348015610c9357600080fd5b50610c9c613c0a565b6040518080602001828103825283818151815260200191508051906020019060200280838360005b83811015610cdf578082015181840152602081019050610cc4565b505050509050019250505060405180910390f35b348015610cff57600080fd5b50610d2c60048036036020811015610d1657600080fd5b8101908080359060200190929190505050613c62565b60405180848152602001838152602001828152602001935050505060405180910390f35b600c602052816000526040600020602052806000526040600020600091509150508060000160009054906101000a900473ffffffffffffffffffffffffffffffffffffffff16908060010154905082565b600a6020528060005260406000206000915054906101000a900460ff1681565b60038054600181600116156101000203166002900480601f016020809104026020016040519081016040528092919081815260200182805460018160011615610100020316600290048015610e575780601f10610e2c57610100808354040283529160200191610e57565b820191906000526020600020905b815481529060010190602001808311610e3a57829003601f168201915b505050505081565b600660009054906101000a900473ffffffffffffffffffffffffffffffffffffffff1681565b60096020528060005260406000206000915090508060000154908060010154908060020154905083565b60026000541415610f28576040517f08c379a000000000000000000000000000000000000000000000000000000000815260040180806020018281038252601f8152602001807f5265656e7472616e637947756172643a207265656e7472616e742063616c6c0081525060200191505060405180910390fd5b600260008190555080600660009054906101000a900473ffffffffffffffffffffffffffffffffffffffff1673ffffffffffffffffffffffffffffffffffffffff166370a08231336040518263ffffffff1660e01b8152600401808273ffffffffffffffffffffffffffffffffffffffff1673ffffffffffffffffffffffffffffffffffffffff16815260200191505060206040518083038186803b158015610fd057600080fd5b505afa158015610fe4573d6000803e3d6000fd5b505050506040513d6020811015610ffa57600080fd5b8101908080519060200190929190505050101561107f576040517f08c379a00000000000000000000000000000000000000000000000000000000081526004018080602001828103825260158152602001807f48656c6c6f206572726f7220686572652062746f61000000000000000000000081525060200191505060405180910390fd5b601c819080600181540180825580915050600190039060005260206000200160009091909190915055601c829080600181540180825580915050600190039060005260206000200160009091909190915055600660009054906101000a900473ffffffffffffffffffffffffffffffffffffffff1673ffffffffffffffffffffffffffffffffffffffff166323b872dd3330846040518463ffffffff1660e01b8152600401808473ffffffffffffffffffffffffffffffffffffffff1673ffffffffffffffffffffffffffffffffffffffff1681526020018373ffffffffffffffffffffffffffffffffffffffff1673ffffffffffffffffffffffffffffffffffffffff1681526020018281526020019350505050602060405180830381600087803b1580156111ae57600080fd5b505af11580156111c2573d6000803e3d6000fd5b505050506040513d60208110156111d857600080fd5b81019080805190602001909291905050505060008183816111f557fe5b04905060006001905060008090505b601a80549050811015611bcc57601a818154811061121e57fe5b906000526020600020015460138190555060126000601354815260200190815260200160002060020154601781905550601754831115801561126257506000601754115b15611bbf57600091508460126000601354815260200190815260200160002060010154111561157e57601c601260006013548152602001908152602001600020600101549080600181540180825580915050600190039060005260206000200160009091909190915055601c849080600181540180825580915050600190039060005260206000200160009091909190915055600085601260006013548152602001908152602001600020600101540390508060126000601354815260200190815260200160002060010181905550601c601260006013548152602001908152602001600020600101549080600181540180825580915050600190039060005260206000200160009091909190915055600660009054906101000a900473ffffffffffffffffffffffffffffffffffffffff1673ffffffffffffffffffffffffffffffffffffffff1663a9059cbb60126000601354815260200190815260200160002060000160009054906101000a900473ffffffffffffffffffffffffffffffffffffffff16876040518363ffffffff1660e01b8152600401808373ffffffffffffffffffffffffffffffffffffffff1673ffffffffffffffffffffffffffffffffffffffff16815260200182815260200192505050602060405180830381600087803b15801561145357600080fd5b505af1158015611467573d6000803e3d6000fd5b505050506040513d602081101561147d57600080fd5b810190808051906020019092919050505050600460009054906101000a900473ffffffffffffffffffffffffffffffffffffffff1673ffffffffffffffffffffffffffffffffffffffff1663a9059cbb3360175488026040518363ffffffff1660e01b8152600401808373ffffffffffffffffffffffffffffffffffffffff1673ffffffffffffffffffffffffffffffffffffffff16815260200182815260200192505050602060405180830381600087803b15801561153c57600080fd5b505af1158015611550573d6000803e3d6000fd5b505050506040513d602081101561156657600080fd5b81019080805190602001909291905050505050611bba565b8460126000601354815260200190815260200160002060010154141561187357600660009054906101000a900473ffffffffffffffffffffffffffffffffffffffff1673ffffffffffffffffffffffffffffffffffffffff1663a9059cbb60126000601354815260200190815260200160002060000160009054906101000a900473ffffffffffffffffffffffffffffffffffffffff16866040518363ffffffff1660e01b8152600401808373ffffffffffffffffffffffffffffffffffffffff1673ffffffffffffffffffffffffffffffffffffffff16815260200182815260200192505050602060405180830381600087803b15801561167f57600080fd5b505af1158015611693573d6000803e3d6000fd5b505050506040513d60208110156116a957600080fd5b810190808051906020019092919050505050600460009054906101000a900473ffffffffffffffffffffffffffffffffffffffff1673ffffffffffffffffffffffffffffffffffffffff1663a9059cbb3360175487026040518363ffffffff1660e01b8152600401808373ffffffffffffffffffffffffffffffffffffffff1673ffffffffffffffffffffffffffffffffffffffff16815260200182815260200192505050602060405180830381600087803b15801561176857600080fd5b505af115801561177c573d6000803e3d6000fd5b505050506040513d602081101561179257600080fd5b810190808051906020019092919050505050601260006013548152602001908152602001600020600080820160006101000a81549073ffffffffffffffffffffffffffffffffffffffff021916905560018201600090556002820160009055505060008190505b6001601a805490500381101561184c57601a600182018154811061181957fe5b9060005260206000200154601a828154811061183157fe5b906000526020600020018190555080806001019150506117f9565b50601a80548061185857fe5b60019003818190600052602060002001600090559055611bb9565b84601260006013548152602001908152602001600020600101541015611bb857600660009054906101000a900473ffffffffffffffffffffffffffffffffffffffff1673ffffffffffffffffffffffffffffffffffffffff1663a9059cbb60126000601354815260200190815260200160002060000160009054906101000a900473ffffffffffffffffffffffffffffffffffffffff16601260006013548152602001908152602001600020600101546040518363ffffffff1660e01b8152600401808373ffffffffffffffffffffffffffffffffffffffff1673ffffffffffffffffffffffffffffffffffffffff16815260200182815260200192505050602060405180830381600087803b15801561198c57600080fd5b505af11580156119a0573d6000803e3d6000fd5b505050506040513d60208110156119b657600080fd5b810190808051906020019092919050505050600460009054906101000a900473ffffffffffffffffffffffffffffffffffffffff1673ffffffffffffffffffffffffffffffffffffffff1663a9059cbb3360175460126000601354815260200190815260200160002060010154026040518363ffffffff1660e01b8152600401808373ffffffffffffffffffffffffffffffffffffffff1673ffffffffffffffffffffffffffffffffffffffff16815260200182815260200192505050602060405180830381600087803b158015611a8d57600080fd5b505af1158015611aa1573d6000803e3d6000fd5b505050506040513d6020811015611ab757600080fd5b810190808051906020019092919050505050601260006013548152602001908152602001600020600080820160006101000a81549073ffffffffffffffffffffffffffffffffffffffff021916905560018201600090556002820160009055505060008190505b6001601a8054905003811015611b7157601a6001820181548110611b3e57fe5b9060005260206000200154601a8281548110611b5657fe5b90600052602060002001819055508080600101915050611b1e565b50601a805480611b7d57fe5b60019003818190600052602060002001600090559055611bb783601260006013548152602001908152602001600020600101548603613c8c565b5b5b5b611bcc565b8080600101915050611204565b50600083118015611bda5750805b15611bea57611be98284613c8c565b5b505060016000819055505050565b60055481565b60115481565b6008602052816000526040600020602052806000526040600020600091509150508060000160009054906101000a900473ffffffffffffffffffffffffffffffffffffffff16908060010154905082565b60606019805480602002602001604051908101604052809291908181526020018280548015611ca357602002820191906000526020600020905b815481526020019060010190808311611c8f575b5050505050905090565b601b8181548110611cba57fe5b906000526020600020016000915090505481565b60165481565b60008090505b601a80549050811015611f48576000601a8281548110611cf657fe5b906000526020600020015490506012600082815260200190815260200160002060000160009054906101000a900473ffffffffffffffffffffffffffffffffffffffff1673ffffffffffffffffffffffffffffffffffffffff163373ffffffffffffffffffffffffffffffffffffffff161415611f3a57600460009054906101000a900473ffffffffffffffffffffffffffffffffffffffff1673ffffffffffffffffffffffffffffffffffffffff1663a9059cbb3360126000858152602001908152602001600020600101546040518363ffffffff1660e01b8152600401808373ffffffffffffffffffffffffffffffffffffffff1673ffffffffffffffffffffffffffffffffffffffff16815260200182815260200192505050602060405180830381600087803b158015611e2c57600080fd5b505af1158015611e40573d6000803e3d6000fd5b505050506040513d6020811015611e5657600080fd5b81019080805190602001909291905050505060126000828152602001908152602001600020600080820160006101000a81549073ffffffffffffffffffffffffffffffffffffffff021916905560018201600090556002820160009055505060008290505b6001601a8054905003811015611f0e57601a6001820181548110611edb57fe5b9060005260206000200154601a8281548110611ef357fe5b90600052602060002001819055508080600101915050611ebb565b50601a805480611f1a57fe5b600190038181906000526020600020016000905590558180600190039250505b508080600101915050611cda565b50565b60156020528060005260406000206000915090508060000160009054906101000a900473ffffffffffffffffffffffffffffffffffffffff16908060010154908060020154905083565b80600460009054906101000a900473ffffffffffffffffffffffffffffffffffffffff1673ffffffffffffffffffffffffffffffffffffffff166370a08231336040518263ffffffff1660e01b8152600401808273ffffffffffffffffffffffffffffffffffffffff1673ffffffffffffffffffffffffffffffffffffffff16815260200191505060206040518083038186803b15801561203557600080fd5b505afa158015612049573d6000803e3d6000fd5b505050506040513d602081101561205f57600080fd5b8101908080519060200190929190505050101561207b57600080fd5b6000600554828161208857fe5b049050803073ffffffffffffffffffffffffffffffffffffffff163110156120af57600080fd5b600460009054906101000a900473ffffffffffffffffffffffffffffffffffffffff1673ffffffffffffffffffffffffffffffffffffffff166323b872dd3330856040518463ffffffff1660e01b8152600401808473ffffffffffffffffffffffffffffffffffffffff1673ffffffffffffffffffffffffffffffffffffffff1681526020018373ffffffffffffffffffffffffffffffffffffffff1673ffffffffffffffffffffffffffffffffffffffff1681526020018281526020019350505050602060405180830381600087803b15801561218c57600080fd5b505af11580156121a0573d6000803e3d6000fd5b505050506040513d60208110156121b657600080fd5b8101908080519060200190929190505050503373ffffffffffffffffffffffffffffffffffffffff166108fc829081150290604051600060405180830381858888f1935050505015801561220e573d6000803e3d6000fd5b507f697c42d55a5e1fed3f464ec6f38b32546a0bd368dc8068b065c67566d73f329033600460009054906101000a900473ffffffffffffffffffffffffffffffffffffffff1684600554604051808573ffffffffffffffffffffffffffffffffffffffff1673ffffffffffffffffffffffffffffffffffffffff1681526020018473ffffffffffffffffffffffffffffffffffffffff1673ffffffffffffffffffffffffffffffffffffffff16815260200183815260200182815260200194505050505060405180910390a15050565b600b5481565b6060601a80548060200260200160405190810160405280929190818152602001828054801561233257602002820191906000526020600020905b81548152602001906001019080831161231e575b5050505050905090565b601c818154811061234957fe5b906000526020600020016000915090505481565b600260005414156123d6576040517f08c379a000000000000000000000000000000000000000000000000000000000815260040180806020018281038252601f8152602001807f5265656e7472616e637947756172643a207265656e7472616e742063616c6c0081525060200191505060405180910390fd5b600260008190555080600460009054906101000a900473ffffffffffffffffffffffffffffffffffffffff1673ffffffffffffffffffffffffffffffffffffffff166370a08231336040518263ffffffff1660e01b8152600401808273ffffffffffffffffffffffffffffffffffffffff1673ffffffffffffffffffffffffffffffffffffffff16815260200191505060206040518083038186803b15801561247e57600080fd5b505afa158015612492573d6000803e3d6000fd5b505050506040513d60208110156124a857600080fd5b8101908080519060200190929190505050101561252d576040517f08c379a00000000000000000000000000000000000000000000000000000000081526004018080602001828103825260158152602001807f68656c6c6f206572726f7220686572652061746f62000000000000000000000081525060200191505060405180910390fd5b600460009054906101000a900473ffffffffffffffffffffffffffffffffffffffff1673ffffffffffffffffffffffffffffffffffffffff166323b872dd3330846040518463ffffffff1660e01b8152600401808473ffffffffffffffffffffffffffffffffffffffff1673ffffffffffffffffffffffffffffffffffffffff1681526020018373ffffffffffffffffffffffffffffffffffffffff1673ffffffffffffffffffffffffffffffffffffffff1681526020018281526020019350505050602060405180830381600087803b15801561260a57600080fd5b505af115801561261e573d6000803e3d6000fd5b505050506040513d602081101561263457600080fd5b810190808051906020019092919050505050600082828161265157fe5b04905060006001905060008090505b601980549050811015612f92576019818154811061267a57fe5b90600052602060002001546016819055506015600060165481526020019081526020016000206002015460118190555060115483101580156126be57506000601154115b15612f8557600091508460156000601654815260200190815260200160002060010154111561293657600085601560006016548152602001908152602001600020600101540390508060156000601654815260200190815260200160002060010181905550600460009054906101000a900473ffffffffffffffffffffffffffffffffffffffff1673ffffffffffffffffffffffffffffffffffffffff1663a9059cbb60156000601654815260200190815260200160002060000160009054906101000a900473ffffffffffffffffffffffffffffffffffffffff16876040518363ffffffff1660e01b8152600401808373ffffffffffffffffffffffffffffffffffffffff1673ffffffffffffffffffffffffffffffffffffffff16815260200182815260200192505050602060405180830381600087803b15801561280457600080fd5b505af1158015612818573d6000803e3d6000fd5b505050506040513d602081101561282e57600080fd5b810190808051906020019092919050505050600660009054906101000a900473ffffffffffffffffffffffffffffffffffffffff1673ffffffffffffffffffffffffffffffffffffffff1663a9059cbb33601154888161288a57fe5b046040518363ffffffff1660e01b8152600401808373ffffffffffffffffffffffffffffffffffffffff1673ffffffffffffffffffffffffffffffffffffffff16815260200182815260200192505050602060405180830381600087803b1580156128f457600080fd5b505af1158015612908573d6000803e3d6000fd5b505050506040513d602081101561291e57600080fd5b81019080805190602001909291905050505050612f80565b84601560006016548152602001908152602001600020600101541415612c3257600460009054906101000a900473ffffffffffffffffffffffffffffffffffffffff1673ffffffffffffffffffffffffffffffffffffffff1663a9059cbb60156000601654815260200190815260200160002060000160009054906101000a900473ffffffffffffffffffffffffffffffffffffffff16866040518363ffffffff1660e01b8152600401808373ffffffffffffffffffffffffffffffffffffffff1673ffffffffffffffffffffffffffffffffffffffff16815260200182815260200192505050602060405180830381600087803b158015612a3757600080fd5b505af1158015612a4b573d6000803e3d6000fd5b505050506040513d6020811015612a6157600080fd5b810190808051906020019092919050505050600660009054906101000a900473ffffffffffffffffffffffffffffffffffffffff1673ffffffffffffffffffffffffffffffffffffffff1663a9059cbb336011548781612abd57fe5b046040518363ffffffff1660e01b8152600401808373ffffffffffffffffffffffffffffffffffffffff1673ffffffffffffffffffffffffffffffffffffffff16815260200182815260200192505050602060405180830381600087803b158015612b2757600080fd5b505af1158015612b3b573d6000803e3d6000fd5b505050506040513d6020811015612b5157600080fd5b810190808051906020019092919050505050601560006016548152602001908152602001600020600080820160006101000a81549073ffffffffffffffffffffffffffffffffffffffff021916905560018201600090556002820160009055505060008190505b600160198054905003811015612c0b5760196001820181548110612bd857fe5b906000526020600020015460198281548110612bf057fe5b90600052602060002001819055508080600101915050612bb8565b506019805480612c1757fe5b60019003818190600052602060002001600090559055612f7f565b84601560006016548152602001908152602001600020600101541015612f7e57600460009054906101000a900473ffffffffffffffffffffffffffffffffffffffff1673ffffffffffffffffffffffffffffffffffffffff1663a9059cbb60156000601654815260200190815260200160002060000160009054906101000a900473ffffffffffffffffffffffffffffffffffffffff16601560006016548152602001908152602001600020600101546040518363ffffffff1660e01b8152600401808373ffffffffffffffffffffffffffffffffffffffff1673ffffffffffffffffffffffffffffffffffffffff16815260200182815260200192505050602060405180830381600087803b158015612d4b57600080fd5b505af1158015612d5f573d6000803e3d6000fd5b505050506040513d6020811015612d7557600080fd5b810190808051906020019092919050505050600660009054906101000a900473ffffffffffffffffffffffffffffffffffffffff1673ffffffffffffffffffffffffffffffffffffffff1663a9059cbb336011546015600060165481526020019081526020016000206001015481612de957fe5b046040518363ffffffff1660e01b8152600401808373ffffffffffffffffffffffffffffffffffffffff1673ffffffffffffffffffffffffffffffffffffffff16815260200182815260200192505050602060405180830381600087803b158015612e5357600080fd5b505af1158015612e67573d6000803e3d6000fd5b505050506040513d6020811015612e7d57600080fd5b810190808051906020019092919050505050601560006016548152602001908152602001600020600080820160006101000a81549073ffffffffffffffffffffffffffffffffffffffff021916905560018201600090556002820160009055505060008190505b600160198054905003811015612f375760196001820181548110612f0457fe5b906000526020600020015460198281548110612f1c57fe5b90600052602060002001819055508080600101915050612ee4565b506019805480612f4357fe5b60019003818190600052602060002001600090559055612f7d83601560006016548152602001908152602001600020600101548603613d7d565b5b5b5b612f92565b8080600101915050612660565b50600083118015612fa05750805b15612fb057612faf8284613d7d565b5b505060016000819055505050565b60105481565b60008090505b60198054905081101561323857600060198281548110612fe657fe5b906000526020600020015490506015600082815260200190815260200160002060000160009054906101000a900473ffffffffffffffffffffffffffffffffffffffff1673ffffffffffffffffffffffffffffffffffffffff163373ffffffffffffffffffffffffffffffffffffffff16141561322a57600660009054906101000a900473ffffffffffffffffffffffffffffffffffffffff1673ffffffffffffffffffffffffffffffffffffffff1663a9059cbb3360156000858152602001908152602001600020600101546040518363ffffffff1660e01b8152600401808373ffffffffffffffffffffffffffffffffffffffff1673ffffffffffffffffffffffffffffffffffffffff16815260200182815260200192505050602060405180830381600087803b15801561311c57600080fd5b505af1158015613130573d6000803e3d6000fd5b505050506040513d602081101561314657600080fd5b81019080805190602001909291905050505060156000828152602001908152602001600020600080820160006101000a81549073ffffffffffffffffffffffffffffffffffffffff021916905560018201600090556002820160009055505060008290505b6001601980549050038110156131fe57601960018201815481106131cb57fe5b9060005260206000200154601982815481106131e357fe5b906000526020600020018190555080806001019150506131ab565b50601980548061320a57fe5b600190038181906000526020600020016000905590558180600190039250505b508080600101915050612fca565b50565b60185481565b600f5481565b600460009054906101000a900473ffffffffffffffffffffffffffffffffffffffff1681565b60145481565b60126020528060005260406000206000915090508060000160009054906101000a900473ffffffffffffffffffffffffffffffffffffffff16908060010154908060020154905083565b60075481565b60006005543402905080600460009054906101000a900473ffffffffffffffffffffffffffffffffffffffff1673ffffffffffffffffffffffffffffffffffffffff166370a08231306040518263ffffffff1660e01b8152600401808273ffffffffffffffffffffffffffffffffffffffff1673ffffffffffffffffffffffffffffffffffffffff16815260200191505060206040518083038186803b15801561336c57600080fd5b505afa158015613380573d6000803e3d6000fd5b505050506040513d602081101561339657600080fd5b810190808051906020019092919050505010156133b257600080fd5b600460009054906101000a900473ffffffffffffffffffffffffffffffffffffffff1673ffffffffffffffffffffffffffffffffffffffff1663a9059cbb33836040518363ffffffff1660e01b8152600401808373ffffffffffffffffffffffffffffffffffffffff1673ffffffffffffffffffffffffffffffffffffffff16815260200182815260200192505050602060405180830381600087803b15801561345b57600080fd5b505af115801561346f573d6000803e3d6000fd5b505050506040513d602081101561348557600080fd5b8101908080519060200190929190505050507f6faf93231a456e552dbc9961f58d9713ee4f2e69d15f1975b050ef0911053a7b33600460009054906101000a900473ffffffffffffffffffffffffffffffffffffffff1683600554604051808573ffffffffffffffffffffffffffffffffffffffff1673ffffffffffffffffffffffffffffffffffffffff1681526020018473ffffffffffffffffffffffffffffffffffffffff1673ffffffffffffffffffffffffffffffffffffffff16815260200183815260200182815260200194505050505060405180910390a150565b600260009054906101000a900473ffffffffffffffffffffffffffffffffffffffff1681565b60175481565b60135481565b60006007543402905080600660009054906101000a900473ffffffffffffffffffffffffffffffffffffffff1673ffffffffffffffffffffffffffffffffffffffff166370a08231306040518263ffffffff1660e01b8152600401808273ffffffffffffffffffffffffffffffffffffffff1673ffffffffffffffffffffffffffffffffffffffff16815260200191505060206040518083038186803b15801561364057600080fd5b505afa158015613654573d6000803e3d6000fd5b505050506040513d602081101561366a57600080fd5b8101908080519060200190929190505050101561368657600080fd5b600660009054906101000a900473ffffffffffffffffffffffffffffffffffffffff1673ffffffffffffffffffffffffffffffffffffffff1663a9059cbb33836040518363ffffffff1660e01b8152600401808373ffffffffffffffffffffffffffffffffffffffff1673ffffffffffffffffffffffffffffffffffffffff16815260200182815260200192505050602060405180830381600087803b15801561372f57600080fd5b505af1158015613743573d6000803e3d6000fd5b505050506040513d602081101561375957600080fd5b8101908080519060200190929190505050507f6faf93231a456e552dbc9961f58d9713ee4f2e69d15f1975b050ef0911053a7b33600660009054906101000a900473ffffffffffffffffffffffffffffffffffffffff1683600754604051808573ffffffffffffffffffffffffffffffffffffffff1673ffffffffffffffffffffffffffffffffffffffff1681526020018473ffffffffffffffffffffffffffffffffffffffff1673ffffffffffffffffffffffffffffffffffffffff16815260200183815260200182815260200194505050505060405180910390a150565b600160009054906101000a900473ffffffffffffffffffffffffffffffffffffffff1681565b601a818154811061386c57fe5b906000526020600020016000915090505481565b600e6020528060005260406000206000915054906101000a900460ff1681565b601981815481106138ad57fe5b906000526020600020016000915090505481565b80600660009054906101000a900473ffffffffffffffffffffffffffffffffffffffff1673ffffffffffffffffffffffffffffffffffffffff166370a08231336040518263ffffffff1660e01b8152600401808273ffffffffffffffffffffffffffffffffffffffff1673ffffffffffffffffffffffffffffffffffffffff16815260200191505060206040518083038186803b15801561396157600080fd5b505afa158015613975573d6000803e3d6000fd5b505050506040513d602081101561398b57600080fd5b810190808051906020019092919050505010156139a757600080fd5b600060075482816139b457fe5b049050803073ffffffffffffffffffffffffffffffffffffffff163110156139db57600080fd5b600660009054906101000a900473ffffffffffffffffffffffffffffffffffffffff1673ffffffffffffffffffffffffffffffffffffffff166323b872dd3330856040518463ffffffff1660e01b8152600401808473ffffffffffffffffffffffffffffffffffffffff1673ffffffffffffffffffffffffffffffffffffffff1681526020018373ffffffffffffffffffffffffffffffffffffffff1673ffffffffffffffffffffffffffffffffffffffff1681526020018281526020019350505050602060405180830381600087803b158015613ab857600080fd5b505af1158015613acc573d6000803e3d6000fd5b505050506040513d6020811015613ae257600080fd5b8101908080519060200190929190505050503373ffffffffffffffffffffffffffffffffffffffff166108fc829081150290604051600060405180830381858888f19350505050158015613b3a573d6000803e3d6000fd5b507f697c42d55a5e1fed3f464ec6f38b32546a0bd368dc8068b065c67566d73f329033600660009054906101000a900473ffffffffffffffffffffffffffffffffffffffff1684600754604051808573ffffffffffffffffffffffffffffffffffffffff1673ffffffffffffffffffffffffffffffffffffffff1681526020018473ffffffffffffffffffffffffffffffffffffffff1673ffffffffffffffffffffffffffffffffffffffff16815260200183815260200182815260200194505050505060405180910390a15050565b6060601c805480602002602001604051908101604052809291908181526020018280548015613c5857602002820191906000526020600020905b815481526020019060010190808311613c44575b5050505050905090565b600d6020528060005260406000206000915090508060000154908060010154908060020154905083565b60008211613c9957600080fd5b60016014600082825401925050819055506019601454908060018154018082558091505060019003906000526020600020016000909190919091505560405180606001604052803373ffffffffffffffffffffffffffffffffffffffff1681526020018281526020018381525060156000601454815260200190815260200160002060008201518160000160006101000a81548173ffffffffffffffffffffffffffffffffffffffff021916908373ffffffffffffffffffffffffffffffffffffffff16021790555060208201518160010155604082015181600201559050505050565b60008211613d8a57600080fd5b6001601060008282540192505081905550601a601054908060018154018082558091505060019003906000526020600020016000909190919091505560405180606001604052803373ffffffffffffffffffffffffffffffffffffffff1681526020018281526020018381525060126000601054815260200190815260200160002060008201518160000160006101000a81548173ffffffffffffffffffffffffffffffffffffffff021916908373ffffffffffffffffffffffffffffffffffffffff1602179055506020820151816001015560408201518160020155905050505056fea2646970667358221220204a4288e26d8cad7c9fb2b6c7139c5261f535fb0618efd51b48ad22bbb969db64736f6c63430006080033",
  "immutableReferences": {},
  "source": "pragma solidity >=0.6.8;\n\nimport \"./AToken.sol\";\nimport \"./BToken.sol\";\nimport {IOrderBook} from \"./interfaces/IOrderBook.sol\";\nimport {ReentrancyGuard} from \"@openzeppelin/contracts/utils/ReentrancyGuard.sol\";\nimport {SafeMath} from \"@openzeppelin/contracts/math/SafeMath.sol\";\nimport {Math} from \"@openzeppelin/contracts/math/Math.sol\";\nimport {SafeERC20} from \"@openzeppelin/contracts/token/ERC20/SafeERC20.sol\";\nimport {IERC20} from \"@openzeppelin/contracts/token/ERC20/IERC20.sol\";\n\ncontract TokenSwap is IOrderBook, ReentrancyGuard {\n    using SafeMath for uint256;\n    using SafeMath for uint8;\n    using Math for uint256;\n    using SafeERC20 for IERC20;\n    IERC20 public tradeToken;\n    IERC20 public baseToken;\n\n    string public name = \"TokenSwap Instant Exchange\";\n    AToken public aToken;\n    uint256 public aRate = 1000;\n    BToken public bToken;\n    uint256 public bRate = 1000;\n\n    ///////////////////////////\n    //mapping is a hashtable\n    mapping(uint256 => mapping(uint8 => Order)) public buyOrdersInStep;\n    mapping(uint256 => Step) public buySteps;\n    mapping(uint256 => uint8) public buyOrdersInStepCounter;\n    uint256 public maxBuyPrice;\n\n    mapping(uint256 => mapping(uint8 => Order)) public sellOrdersInStep;\n    mapping(uint256 => Step) public sellSteps;\n    mapping(uint256 => uint8) public sellOrdersInStepCounter;\n    uint256 public minSellPrice;\n    ////////////////////////////\n\n    uint256 public buyCounter = 0;\n    uint256 public minSellRate;\n    mapping(uint256 => NewOrder) public newBuyOrderBook;\n    uint256 public idOfBuyRate;\n\n    uint256 public sellCounter = 0;\n    mapping(uint256 => NewOrder) public newSellOrderBook;\n    uint256 public idOfSellRate;\n    uint256 public maxBuyRate;\n    uint256 public selltx = 0;\n    //////////////\n    event TokensPurchased(\n        address account,\n        address token,\n        uint256 amount,\n        uint256 rate\n    );\n\n    event BTokensPurchased(\n        address account,\n        address token,\n        uint256 amount,\n        uint256 rate\n    );\n\n    event TokensSold(\n        address account,\n        address token,\n        uint256 amount,\n        uint256 rate\n    );\n\n    event BTokensSold(\n        address account,\n        address token,\n        uint256 amount,\n        uint256 rate\n    );\n\n    constructor(AToken _aToken, BToken _bToken) public {\n        //pass the address of the Token in\n        aToken = _aToken;\n        bToken = _bToken;\n    }\n\n    function random() internal returns (uint256) {\n        uint256 randomnumber = uint256(\n            keccak256(\n                abi.encodePacked(block.timestamp, msg.sender, block.timestamp)\n            )\n        ) % 10;\n        randomnumber = randomnumber + 90;\n        return randomnumber;\n    }\n\n    function buyATokens() public payable {\n        // Calculate the number of tokens to buy\n        uint256 tokenAmount = msg.value * aRate; //msg.value = how much ether was sent\n\n        // Require that TokenSwap has enough tokens\n        require(aToken.balanceOf(address(this)) >= tokenAmount);\n\n        // Transfer tokens to the user\n        aToken.transfer(msg.sender, tokenAmount);\n\n        // Emit an event\n        emit TokensPurchased(msg.sender, address(aToken), tokenAmount, aRate);\n    }\n\n    function sellATokens(uint256 _amount) public {\n        // User can't sell more tokens than they have\n        require(aToken.balanceOf(msg.sender) >= _amount);\n\n        // Calculate the amount of Ether to redeem\n        uint256 etherAmount = _amount / aRate;\n\n        // Require that TokenSwap has enough Ether\n        require(address(this).balance >= etherAmount);\n\n        // Perform sale\n        aToken.transferFrom(msg.sender, address(this), _amount);\n        msg.sender.transfer(etherAmount);\n\n        // Emit an event\n        emit TokensSold(msg.sender, address(aToken), _amount, aRate);\n    }\n\n    function buyBTokens() public payable {\n        // Calculate the number of tokens to buy\n        uint256 tokenAmount = msg.value * bRate; //msg.value = how much ether was sent\n\n        // Require that TokenSwap has enough tokens\n        require(bToken.balanceOf(address(this)) >= tokenAmount);\n\n        // Transfer tokens to the user\n        bToken.transfer(msg.sender, tokenAmount);\n\n        // Emit an event\n        emit TokensPurchased(msg.sender, address(bToken), tokenAmount, bRate);\n    }\n\n    function sellBTokens(uint256 _amount) public {\n        // User can't sell more tokens than they have\n        require(bToken.balanceOf(msg.sender) >= _amount);\n\n        // Calculate the amount of Ether to redeem\n        uint256 etherAmount = _amount / bRate;\n\n        // Require that TokenSwap has enough Ether\n        require(address(this).balance >= etherAmount);\n\n        // Perform sale\n        bToken.transferFrom(msg.sender, address(this), _amount);\n        msg.sender.transfer(etherAmount);\n\n        // Emit an event\n        emit TokensSold(msg.sender, address(bToken), _amount, bRate);\n    }\n\n    ///////////////////////////////////////////////////////////////////////// ORDERBOOK //////////////////////////////////////////////////////////////////////////////////////////\n\n    uint256[] public sellrateid;\n    uint256[] public buyrateid;\n\n    uint256[] public amountsell;\n    uint256[] public amountbuy;\n\n    function getbuyrate() public returns (uint256[] memory) {\n        return buyrateid;\n    }\n\n    function getsellrate() public returns (uint256[] memory) {\n        return sellrateid;\n    }\n\n    function getamountbuy() public returns (uint256[] memory) {\n        return amountbuy;\n    }\n\n    //buy B using A\n    function atob(uint256 b, uint256 a) external override nonReentrant {\n        require(aToken.balanceOf(msg.sender) >= a, \"hello error here atob\");\n\n        aToken.transferFrom(msg.sender, address(this), a);\n        // emit PlaceBuyOrder(msg.sender, amountOfBuyToken, amountOfSellToken);\n        // b = b * 1 ether;\n        // a = a * 1 ether;\n        uint256 rate = a / b;\n        bool toAdd = true;\n\n        for (uint256 i = 0; i < sellrateid.length; i++) {\n            idOfSellRate = sellrateid[i];\n            minSellRate = newSellOrderBook[idOfSellRate].rate;\n\n            if (rate >= minSellRate && minSellRate > 0) {\n                //give best order\n                toAdd = false;\n                if (newSellOrderBook[idOfSellRate].amount > b) {\n                    uint256 newAmount = newSellOrderBook[idOfSellRate].amount -\n                        b;\n                    newSellOrderBook[idOfSellRate].amount = newAmount; //replace old amount with new\n                    // transfer\n                    aToken.transfer(newSellOrderBook[idOfSellRate].maker, a);\n                    bToken.transfer(msg.sender, a / minSellRate);\n                } else if (newSellOrderBook[idOfSellRate].amount == b) {\n                    // transfer\n                    aToken.transfer(newSellOrderBook[idOfSellRate].maker, a);\n                    bToken.transfer(msg.sender, a / minSellRate);\n                    // update the minSellRate\n                    delete newSellOrderBook[idOfSellRate];\n                    for (uint256 j = i; j < sellrateid.length - 1; j++) {\n                        sellrateid[j] = sellrateid[j + 1];\n                    }\n                    sellrateid.pop();\n                } else if (newSellOrderBook[idOfSellRate].amount < b) {\n                    aToken.transfer(\n                        newSellOrderBook[idOfSellRate].maker,\n                        newSellOrderBook[idOfSellRate].amount\n                    );\n                    bToken.transfer(\n                        msg.sender,\n                        newSellOrderBook[idOfSellRate].amount / minSellRate\n                    );\n                    delete newSellOrderBook[idOfSellRate];\n                    for (uint256 j = i; j < sellrateid.length - 1; j++) {\n                        sellrateid[j] = sellrateid[j + 1];\n                    }\n                    sellrateid.pop();\n                    _atobBook(rate, a - newSellOrderBook[idOfSellRate].amount);\n                }\n                break;\n            }\n        }\n\n        if (a > 0 && toAdd) {\n            _atobBook(rate, a);\n        }\n    }\n\n    function maxNumber(uint256 a, uint256 b) internal pure returns (uint256) {\n        return a >= b ? a : b;\n    }\n\n    function minNumber(uint256 a, uint256 b) internal pure returns (uint256) {\n        return a <= b ? a : b;\n    }\n\n    function _atobBook(uint256 rate, uint256 a) internal {\n        require(rate > 0);\n        buyCounter += 1;\n        buyrateid.push(buyCounter);\n        newBuyOrderBook[buyCounter] = NewOrder(msg.sender, a, rate);\n    }\n\n    // buy A using b\n    function btoa(uint256 a, uint256 b) external override nonReentrant {\n        require(bToken.balanceOf(msg.sender) >= b, \"Hello error here btoa\");\n        amountbuy.push(b);\n        amountbuy.push(a);\n        bToken.transferFrom(msg.sender, address(this), b);\n\n        uint256 rate = a / b;\n        bool toAdd = true;\n\n        for (uint256 i = 0; i < buyrateid.length; i++) {\n            idOfBuyRate = buyrateid[i];\n            maxBuyRate = newBuyOrderBook[idOfBuyRate].rate;\n\n            if (rate <= maxBuyRate && maxBuyRate > 0) {\n                toAdd = false;\n                if (newBuyOrderBook[idOfBuyRate].amount > a) {\n                    amountbuy.push(newBuyOrderBook[idOfBuyRate].amount);\n                    amountbuy.push(b);\n                    uint256 newAmount = newBuyOrderBook[idOfBuyRate].amount - a;\n                    newBuyOrderBook[idOfBuyRate].amount = newAmount; //replace old amount with new\n                    amountbuy.push(newBuyOrderBook[idOfBuyRate].amount);\n                    // transfer\n                    bToken.transfer(newBuyOrderBook[idOfBuyRate].maker, b);\n                    aToken.transfer(msg.sender, b * maxBuyRate);\n                } else if (newBuyOrderBook[idOfBuyRate].amount == a) {\n                    // transfer\n                    bToken.transfer(newBuyOrderBook[idOfBuyRate].maker, b);\n                    aToken.transfer(msg.sender, b * maxBuyRate);\n                    // update the minSellRate\n                    delete newBuyOrderBook[idOfBuyRate];\n                    for (uint256 j = i; j < buyrateid.length - 1; j++) {\n                        buyrateid[j] = buyrateid[j + 1];\n                    }\n                    buyrateid.pop();\n                } else if (newBuyOrderBook[idOfBuyRate].amount < a) {\n                    bToken.transfer(\n                        newBuyOrderBook[idOfBuyRate].maker,\n                        newBuyOrderBook[idOfBuyRate].amount\n                    );\n                    aToken.transfer(\n                        msg.sender,\n                        newBuyOrderBook[idOfBuyRate].amount * maxBuyRate\n                    );\n                    delete newBuyOrderBook[idOfBuyRate];\n                    for (uint256 j = i; j < buyrateid.length - 1; j++) {\n                        buyrateid[j] = buyrateid[j + 1];\n                    }\n                    buyrateid.pop();\n                    _btoaBook(rate, b - newBuyOrderBook[idOfBuyRate].amount);\n                }\n                break;\n            }\n        }\n\n        if (b > 0 && toAdd) {\n            _btoaBook(rate, b);\n        }\n    }\n\n    function _btoaBook(uint256 rate, uint256 b) internal {\n        require(rate > 0);\n        sellCounter += 1;\n        sellrateid.push(sellCounter);\n\n        newSellOrderBook[sellCounter] = NewOrder(msg.sender, b, rate);\n        // emit DrawToSellBook(msg.sender, rate, amountSold);\n    }\n\n    function deleteBuyOrders() public {\n        for (uint256 i = 0; i < buyrateid.length; i++) {\n            uint256 key = buyrateid[i];\n            if (msg.sender == newBuyOrderBook[key].maker) {\n                aToken.transfer(msg.sender, newBuyOrderBook[key].amount);\n                delete newBuyOrderBook[key];\n                for (uint256 j = i; j < buyrateid.length - 1; j++) {\n                    buyrateid[j] = buyrateid[j + 1];\n                }\n                buyrateid.pop();\n                i--;\n            }\n        }\n    }\n\n    function deleteSellOrders() public {\n        for (uint256 i = 0; i < sellrateid.length; i++) {\n            uint256 key = sellrateid[i];\n            if (msg.sender == newSellOrderBook[key].maker) {\n                bToken.transfer(msg.sender, newSellOrderBook[key].amount);\n                delete newSellOrderBook[key];\n                for (uint256 j = i; j < sellrateid.length - 1; j++) {\n                    sellrateid[j] = sellrateid[j + 1];\n                }\n                sellrateid.pop();\n                i--;\n            }\n        }\n    }\n\n    // function placeBuyOrder(\n    //     uint256 price,\n    //     uint256 amountOfBaseToken,\n    //     uint256 amount\n    // ) external override nonReentrant {\n    //     require(aToken.balanceOf(msg.sender) >= amountOfBaseToken);\n\n    //     aToken.transferFrom(msg.sender, address(this), amountOfBaseToken);\n    //     emit PlaceBuyOrder(msg.sender, price, amountOfBaseToken);\n\n    //     /**\n    //      * @notice if has order in sell book, and price >= min sell price\n    //      */\n    //     //minSellPrice\n    //     //\n    //     uint256 sellPricePointer = minSellPrice;\n    //     uint256 amountReflect = amountOfBaseToken;\n    //     if (minSellPrice > 0 && price >= minSellPrice) {\n    //         while (\n    //             amountReflect > 0 &&\n    //             sellPricePointer <= price &&\n    //             sellPricePointer != 0\n    //         ) {\n    //             uint8 i = 1;\n    //             uint256 higherPrice = sellSteps[sellPricePointer].higherPrice;\n    //             while (\n    //                 i <= sellOrdersInStepCounter[sellPricePointer] &&\n    //                 amountReflect > 0\n    //             ) {\n    //                 if (\n    //                     amountReflect >=\n    //                     sellOrdersInStep[sellPricePointer][i].amount\n    //                 ) {\n    //                     //if the last order has been matched, delete the step\n    //                     if (i == sellOrdersInStepCounter[sellPricePointer]) {\n    //                         if (higherPrice > 0)\n    //                             sellSteps[higherPrice].lowerPrice = 0;\n    //                         delete sellSteps[sellPricePointer];\n    //                         minSellPrice = higherPrice;\n    //                     }\n\n    //                     amountReflect = amountReflect.sub(\n    //                         sellOrdersInStep[sellPricePointer][i].amount\n    //                     );\n    //                     //send before delete order\n\n    //                     aToken.transfer(\n    //                         sellOrdersInStep[sellPricePointer][i].maker,\n    //                         sellOrdersInStep[sellPricePointer][i].amount\n    //                     );\n    //                     // delete order from storage\n    //                     delete sellOrdersInStep[sellPricePointer][i];\n    //                     sellOrdersInStepCounter[sellPricePointer] -= 1;\n    //                     ///////////////////////////////\n    //                     bToken.transfer(msg.sender, sellPricePointer);\n\n    //                     //token.transferFrom(ethswap to other party)\n    //                 } else {\n    //                     sellSteps[sellPricePointer].amount = sellSteps[\n    //                         sellPricePointer\n    //                     ].amount.sub(amountReflect);\n    //                     sellOrdersInStep[sellPricePointer][i]\n    //                         .amount = sellOrdersInStep[sellPricePointer][i]\n    //                         .amount\n    //                         .sub(amountReflect);\n    //                     amountReflect = 0;\n    //                 }\n    //                 i += 1;\n    //             }\n    //             sellPricePointer = higherPrice;\n    //         }\n    //     }\n    //     /**\n    //      * @notice draw to buy book the rest\n    //      */\n    //     if (amountReflect > 0) {\n    //         _drawToBuyBook(price, amountReflect);\n    //     }\n    // }\n\n    // /**\n    //  * @notice Place buy order.\n    //  */\n    // function placeSellOrder(\n    //     uint256 price,\n    //     uint256 amountOfTradeToken,\n    //     uint256 amount\n    // ) external override nonReentrant {\n    //     bToken.transferFrom(msg.sender, address(this), amountOfTradeToken);\n    //     emit PlaceSellOrder(msg.sender, price, amountOfTradeToken);\n\n    //     /**\n    //      * @notice if has order in buy book, and price <= max buy price\n    //      */\n    //     uint256 buyPricePointer = maxBuyPrice;\n    //     uint256 amountReflect = amountOfTradeToken;\n    //     if (maxBuyPrice > 0 && price <= maxBuyPrice) {\n    //         while (\n    //             amountReflect > 0 &&\n    //             buyPricePointer >= price &&\n    //             buyPricePointer != 0\n    //         ) {\n    //             uint8 i = 1;\n    //             uint256 lowerPrice = buySteps[buyPricePointer].lowerPrice;\n    //             while (\n    //                 i <= buyOrdersInStepCounter[buyPricePointer] &&\n    //                 amountReflect > 0\n    //             ) {\n    //                 if (\n    //                     amountReflect >=\n    //                     buyOrdersInStep[buyPricePointer][i].amount\n    //                 ) {\n    //                     //if the last order has been matched, delete the step\n    //                     if (i == buyOrdersInStepCounter[buyPricePointer]) {\n    //                         if (lowerPrice > 0)\n    //                             buySteps[lowerPrice].higherPrice = 0;\n    //                         delete buySteps[buyPricePointer];\n    //                         maxBuyPrice = lowerPrice;\n    //                     }\n\n    //                     amountReflect =\n    //                         amountReflect -\n    //                         (buyOrdersInStep[buyPricePointer][i].amount);\n    //                     //send before delete order\n    //                     bToken.transfer(\n    //                         buyOrdersInStep[buyPricePointer][i].maker,\n    //                         buyOrdersInStep[buyPricePointer][i].amount\n    //                     );\n    //                     // delete order from storage\n\n    //                     delete buyOrdersInStep[buyPricePointer][i];\n    //                     buyOrdersInStepCounter[buyPricePointer] -= 1;\n\n    //                     ///////\n    //                     aToken.transfer(msg.sender, buyPricePointer);\n    //                 } else {\n    //                     buySteps[buyPricePointer].amount =\n    //                         buySteps[buyPricePointer].amount -\n    //                         (amountReflect);\n    //                     buyOrdersInStep[buyPricePointer][i].amount =\n    //                         buyOrdersInStep[buyPricePointer][i].amount -\n    //                         (amountReflect);\n    //                     amountReflect = 0;\n    //                 }\n    //                 i += 1;\n    //             }\n    //             buyPricePointer = lowerPrice;\n    //         }\n    //     }\n    //     /**\n    //      * @notice draw to buy book the rest\n    //      */\n    //     if (amountReflect > 0) {\n    //         _drawToSellBook(price, amountReflect);\n    //     }\n    // }\n\n    // /**\n    //  * @notice draw buy order.\n    //  */\n    // function _drawToBuyBook(uint256 price, uint256 amount) internal {\n    //     require(price > 0, \"Can not place order with price equal 0\");\n\n    //     buyOrdersInStepCounter[price] += 1;\n    //     // order creation here\n    //     buyOrdersInStep[price][buyOrdersInStepCounter[price]] = Order(\n    //         msg.sender,\n    //         amount\n    //     );\n    //     buySteps[price].amount = buySteps[price].amount + (amount);\n    //     emit DrawToBuyBook(msg.sender, price, amount);\n\n    //     if (maxBuyPrice == 0) {\n    //         maxBuyPrice = price;\n    //         return;\n    //     }\n\n    //     if (price > maxBuyPrice) {\n    //         buySteps[maxBuyPrice].higherPrice = price;\n    //         buySteps[price].lowerPrice = maxBuyPrice;\n    //         maxBuyPrice = price;\n    //         return;\n    //     }\n\n    //     if (price == maxBuyPrice) {\n    //         return;\n    //     }\n\n    //     uint256 buyPricePointer = maxBuyPrice;\n    //     while (price <= buyPricePointer) {\n    //         buyPricePointer = buySteps[buyPricePointer].lowerPrice;\n    //     }\n\n    //     if (price < buySteps[buyPricePointer].higherPrice) {\n    //         buySteps[price].higherPrice = buySteps[buyPricePointer].higherPrice;\n    //         buySteps[price].lowerPrice = buyPricePointer;\n\n    //         buySteps[buySteps[buyPricePointer].higherPrice].lowerPrice = price;\n    //         buySteps[buyPricePointer].higherPrice = price;\n    //     }\n    // }\n\n    // /**\n    //  * @notice draw sell order.\n    //  */\n    // function _drawToSellBook(uint256 price, uint256 amount) internal {\n    //     require(price > 0, \"Can not place order with price equal 0\");\n\n    //     sellOrdersInStepCounter[price] += 1;\n    //     sellOrdersInStep[price][sellOrdersInStepCounter[price]] = Order(\n    //         msg.sender,\n    //         amount\n    //     );\n    //     sellSteps[price].amount += amount;\n    //     emit DrawToSellBook(msg.sender, price, amount);\n\n    //     if (minSellPrice == 0) {\n    //         minSellPrice = price;\n    //         return;\n    //     }\n\n    //     if (price < minSellPrice) {\n    //         sellSteps[minSellPrice].lowerPrice = price;\n    //         sellSteps[price].higherPrice = minSellPrice;\n    //         minSellPrice = price;\n    //         return;\n    //     }\n\n    //     if (price == minSellPrice) {\n    //         return;\n    //     }\n\n    //     uint256 sellPricePointer = minSellPrice;\n    //     while (\n    //         price >= sellPricePointer &&\n    //         sellSteps[sellPricePointer].higherPrice != 0\n    //     ) {\n    //         sellPricePointer = sellSteps[sellPricePointer].higherPrice;\n    //     }\n\n    //     if (sellPricePointer < price) {\n    //         sellSteps[price].lowerPrice = sellPricePointer;\n    //         sellSteps[sellPricePointer].higherPrice = price;\n    //     }\n\n    //     if (\n    //         sellPricePointer > price &&\n    //         price > sellSteps[sellPricePointer].lowerPrice\n    //     ) {\n    //         sellSteps[price].lowerPrice = sellSteps[sellPricePointer]\n    //             .lowerPrice;\n    //         sellSteps[price].higherPrice = sellPricePointer;\n\n    //         sellSteps[sellSteps[sellPricePointer].lowerPrice]\n    //             .higherPrice = price;\n    //         sellSteps[sellPricePointer].lowerPrice = price;\n    //     }\n    // }\n}\n",
  "sourcePath": "/Users/weerenteo/Desktop/foruse/Blockchain-DEX/src/contracts/TokenSwap.sol",
  "compiler": {
    "name": "solc",
    "version": "0.6.8+commit.0bbfe453.Emscripten.clang"
  },
  "schemaVersion": "3.4.10",
  "updatedAt": "2022-11-04T06:08:32.959Z",
  "networkType": "ethereum",
  "devdoc": {
    "methods": {}
  },
  "userdoc": {
    "methods": {}
  }
}