{
  "contractName": "TokenSwap",
  "abi": [
    {
      "inputs": [
        {
          "internalType": "contract AToken",
          "name": "_aToken",
          "type": "address"
        },
        {
          "internalType": "contract BToken",
          "name": "_bToken",
          "type": "address"
        }
      ],
      "stateMutability": "nonpayable",
      "type": "constructor"
    },
    {
      "anonymous": false,
      "inputs": [
        {
          "indexed": false,
          "internalType": "address",
          "name": "accountSent",
          "type": "address"
        },
        {
          "indexed": false,
          "internalType": "address",
          "name": "accountReceived",
          "type": "address"
        },
        {
          "indexed": false,
          "internalType": "uint256",
          "name": "amount",
          "type": "uint256"
        }
      ],
      "name": "ATokensSent",
      "type": "event"
    },
    {
      "anonymous": false,
      "inputs": [
        {
          "indexed": false,
          "internalType": "address",
          "name": "account",
          "type": "address"
        },
        {
          "indexed": false,
          "internalType": "address",
          "name": "token",
          "type": "address"
        },
        {
          "indexed": false,
          "internalType": "uint256",
          "name": "amount",
          "type": "uint256"
        },
        {
          "indexed": false,
          "internalType": "uint256",
          "name": "rate",
          "type": "uint256"
        }
      ],
      "name": "BTokensPurchased",
      "type": "event"
    },
    {
      "anonymous": false,
      "inputs": [
        {
          "indexed": false,
          "internalType": "address",
          "name": "accountSent",
          "type": "address"
        },
        {
          "indexed": false,
          "internalType": "address",
          "name": "accountReceived",
          "type": "address"
        },
        {
          "indexed": false,
          "internalType": "uint256",
          "name": "amount",
          "type": "uint256"
        }
      ],
      "name": "BTokensSent",
      "type": "event"
    },
    {
      "anonymous": false,
      "inputs": [
        {
          "indexed": false,
          "internalType": "address",
          "name": "account",
          "type": "address"
        },
        {
          "indexed": false,
          "internalType": "address",
          "name": "token",
          "type": "address"
        },
        {
          "indexed": false,
          "internalType": "uint256",
          "name": "amount",
          "type": "uint256"
        },
        {
          "indexed": false,
          "internalType": "uint256",
          "name": "rate",
          "type": "uint256"
        }
      ],
      "name": "BTokensSold",
      "type": "event"
    },
    {
      "anonymous": false,
      "inputs": [
        {
          "indexed": false,
          "internalType": "address",
          "name": "account",
          "type": "address"
        },
        {
          "indexed": false,
          "internalType": "address",
          "name": "token",
          "type": "address"
        },
        {
          "indexed": false,
          "internalType": "uint256",
          "name": "amount",
          "type": "uint256"
        },
        {
          "indexed": false,
          "internalType": "uint256",
          "name": "rate",
          "type": "uint256"
        }
      ],
      "name": "TokensPurchased",
      "type": "event"
    },
    {
      "anonymous": false,
      "inputs": [
        {
          "indexed": false,
          "internalType": "address",
          "name": "account",
          "type": "address"
        },
        {
          "indexed": false,
          "internalType": "address",
          "name": "token",
          "type": "address"
        },
        {
          "indexed": false,
          "internalType": "uint256",
          "name": "amount",
          "type": "uint256"
        },
        {
          "indexed": false,
          "internalType": "uint256",
          "name": "rate",
          "type": "uint256"
        }
      ],
      "name": "TokensSold",
      "type": "event"
    },
    {
      "inputs": [],
      "name": "aRate",
      "outputs": [
        {
          "internalType": "uint256",
          "name": "",
          "type": "uint256"
        }
      ],
      "stateMutability": "view",
      "type": "function",
      "constant": true
    },
    {
      "inputs": [],
      "name": "aToken",
      "outputs": [
        {
          "internalType": "contract AToken",
          "name": "",
          "type": "address"
        }
      ],
      "stateMutability": "view",
      "type": "function",
      "constant": true
    },
    {
      "inputs": [
        {
          "internalType": "uint256",
          "name": "",
          "type": "uint256"
        }
      ],
      "name": "amountbuy",
      "outputs": [
        {
          "internalType": "uint256",
          "name": "",
          "type": "uint256"
        }
      ],
      "stateMutability": "view",
      "type": "function",
      "constant": true
    },
    {
      "inputs": [
        {
          "internalType": "uint256",
          "name": "",
          "type": "uint256"
        }
      ],
      "name": "amountsell",
      "outputs": [
        {
          "internalType": "uint256",
          "name": "",
          "type": "uint256"
        }
      ],
      "stateMutability": "view",
      "type": "function",
      "constant": true
    },
    {
      "inputs": [],
      "name": "bRate",
      "outputs": [
        {
          "internalType": "uint256",
          "name": "",
          "type": "uint256"
        }
      ],
      "stateMutability": "view",
      "type": "function",
      "constant": true
    },
    {
      "inputs": [],
      "name": "bToken",
      "outputs": [
        {
          "internalType": "contract BToken",
          "name": "",
          "type": "address"
        }
      ],
      "stateMutability": "view",
      "type": "function",
      "constant": true
    },
    {
      "inputs": [],
      "name": "buyCounter",
      "outputs": [
        {
          "internalType": "uint256",
          "name": "",
          "type": "uint256"
        }
      ],
      "stateMutability": "view",
      "type": "function",
      "constant": true
    },
    {
      "inputs": [
        {
          "internalType": "uint256",
          "name": "",
          "type": "uint256"
        }
      ],
      "name": "buyrateid",
      "outputs": [
        {
          "internalType": "uint256",
          "name": "",
          "type": "uint256"
        }
      ],
      "stateMutability": "view",
      "type": "function",
      "constant": true
    },
    {
      "inputs": [],
      "name": "idOfBuyRate",
      "outputs": [
        {
          "internalType": "uint256",
          "name": "",
          "type": "uint256"
        }
      ],
      "stateMutability": "view",
      "type": "function",
      "constant": true
    },
    {
      "inputs": [],
      "name": "idOfSellRate",
      "outputs": [
        {
          "internalType": "uint256",
          "name": "",
          "type": "uint256"
        }
      ],
      "stateMutability": "view",
      "type": "function",
      "constant": true
    },
    {
      "inputs": [],
      "name": "maxBuyRate",
      "outputs": [
        {
          "internalType": "uint256",
          "name": "",
          "type": "uint256"
        }
      ],
      "stateMutability": "view",
      "type": "function",
      "constant": true
    },
    {
      "inputs": [],
      "name": "minSellRate",
      "outputs": [
        {
          "internalType": "uint256",
          "name": "",
          "type": "uint256"
        }
      ],
      "stateMutability": "view",
      "type": "function",
      "constant": true
    },
    {
      "inputs": [],
      "name": "name",
      "outputs": [
        {
          "internalType": "string",
          "name": "",
          "type": "string"
        }
      ],
      "stateMutability": "view",
      "type": "function",
      "constant": true
    },
    {
      "inputs": [
        {
          "internalType": "uint256",
          "name": "",
          "type": "uint256"
        }
      ],
      "name": "newBuyOrderBook",
      "outputs": [
        {
          "internalType": "address",
          "name": "maker",
          "type": "address"
        },
        {
          "internalType": "uint256",
          "name": "amount",
          "type": "uint256"
        },
        {
          "internalType": "uint256",
          "name": "rate",
          "type": "uint256"
        }
      ],
      "stateMutability": "view",
      "type": "function",
      "constant": true
    },
    {
      "inputs": [
        {
          "internalType": "uint256",
          "name": "",
          "type": "uint256"
        }
      ],
      "name": "newSellOrderBook",
      "outputs": [
        {
          "internalType": "address",
          "name": "maker",
          "type": "address"
        },
        {
          "internalType": "uint256",
          "name": "amount",
          "type": "uint256"
        },
        {
          "internalType": "uint256",
          "name": "rate",
          "type": "uint256"
        }
      ],
      "stateMutability": "view",
      "type": "function",
      "constant": true
    },
    {
      "inputs": [],
      "name": "sellCounter",
      "outputs": [
        {
          "internalType": "uint256",
          "name": "",
          "type": "uint256"
        }
      ],
      "stateMutability": "view",
      "type": "function",
      "constant": true
    },
    {
      "inputs": [
        {
          "internalType": "uint256",
          "name": "",
          "type": "uint256"
        }
      ],
      "name": "sellrateid",
      "outputs": [
        {
          "internalType": "uint256",
          "name": "",
          "type": "uint256"
        }
      ],
      "stateMutability": "view",
      "type": "function",
      "constant": true
    },
    {
      "inputs": [],
      "name": "buyATokens",
      "outputs": [],
      "stateMutability": "payable",
      "type": "function",
      "payable": true
    },
    {
      "inputs": [
        {
          "internalType": "uint256",
          "name": "_amount",
          "type": "uint256"
        }
      ],
      "name": "sellATokens",
      "outputs": [],
      "stateMutability": "nonpayable",
      "type": "function"
    },
    {
      "inputs": [],
      "name": "buyBTokens",
      "outputs": [],
      "stateMutability": "payable",
      "type": "function",
      "payable": true
    },
    {
      "inputs": [
        {
          "internalType": "uint256",
          "name": "_amount",
          "type": "uint256"
        }
      ],
      "name": "sellBTokens",
      "outputs": [],
      "stateMutability": "nonpayable",
      "type": "function"
    },
    {
      "inputs": [],
      "name": "getbuyrate",
      "outputs": [
        {
          "internalType": "uint256[]",
          "name": "",
          "type": "uint256[]"
        }
      ],
      "stateMutability": "nonpayable",
      "type": "function"
    },
    {
      "inputs": [],
      "name": "getsellrate",
      "outputs": [
        {
          "internalType": "uint256[]",
          "name": "",
          "type": "uint256[]"
        }
      ],
      "stateMutability": "nonpayable",
      "type": "function"
    },
    {
      "inputs": [
        {
          "internalType": "uint256",
          "name": "b",
          "type": "uint256"
        },
        {
          "internalType": "uint256",
          "name": "a",
          "type": "uint256"
        }
      ],
      "name": "atob",
      "outputs": [],
      "stateMutability": "nonpayable",
      "type": "function"
    },
    {
      "inputs": [
        {
          "internalType": "uint256",
          "name": "b",
          "type": "uint256"
        },
        {
          "internalType": "uint256",
          "name": "a",
          "type": "uint256"
        }
      ],
      "name": "atobInverseRate",
      "outputs": [],
      "stateMutability": "nonpayable",
      "type": "function"
    },
    {
      "inputs": [
        {
          "internalType": "uint256",
          "name": "a",
          "type": "uint256"
        },
        {
          "internalType": "uint256",
          "name": "b",
          "type": "uint256"
        }
      ],
      "name": "btoa",
      "outputs": [],
      "stateMutability": "nonpayable",
      "type": "function"
    },
    {
      "inputs": [
        {
          "internalType": "uint256",
          "name": "a",
          "type": "uint256"
        },
        {
          "internalType": "uint256",
          "name": "b",
          "type": "uint256"
        }
      ],
      "name": "btoaInverseRate",
      "outputs": [],
      "stateMutability": "nonpayable",
      "type": "function"
    },
    {
      "inputs": [],
      "name": "deleteBuyOrders",
      "outputs": [],
      "stateMutability": "nonpayable",
      "type": "function"
    },
    {
      "inputs": [],
      "name": "deleteSellOrders",
      "outputs": [],
      "stateMutability": "nonpayable",
      "type": "function"
    }
  ],
  "bytecode": "0x60806040526040518060400160405280601a81526020017f546f6b656e5377617020496e7374616e742045786368616e6765000000000000815250600190805190602001906200005192919062000148565b506103e86003556103e860055560006006556000600a553480156200007557600080fd5b506040516200500138038062005001833981810160405260408110156200009b57600080fd5b810190808051906020019092919080519060200190929190505050600160008190555081600260006101000a81548173ffffffffffffffffffffffffffffffffffffffff021916908373ffffffffffffffffffffffffffffffffffffffff16021790555080600460006101000a81548173ffffffffffffffffffffffffffffffffffffffff021916908373ffffffffffffffffffffffffffffffffffffffff1602179055505050620001f7565b828054600181600116156101000203166002900490600052602060002090601f016020900481019282601f106200018b57805160ff1916838001178555620001bc565b82800160010185558215620001bc579182015b82811115620001bb5782518255916020019190600101906200019e565b5b509050620001cb9190620001cf565b5090565b620001f491905b80821115620001f0576000816000905550600101620001d6565b5090565b90565b614dfa80620002076000396000f3fe6080604052600436106101c25760003560e01c80638544a5ec116100f7578063c51b435011610095578063dd7f4e4011610064578063dd7f4e4014610831578063eb09692414610880578063ec4763b6146108c5578063f22dda4114610914576101c2565b8063c51b4350146107c7578063c86f6639146107d1578063cddfa2a4146107fc578063ce72b86014610827576101c2565b8063a0c1f15e116100d1578063a0c1f15e14610691578063a4d0047d146106e8578063b2bb39ef14610713578063b9a541eb1461079c576101c2565b80638544a5ec1461060a57806391ceedbf1461064f5780639237b46c1461067a576101c2565b8063540cecb3116101645780636bc69a241161013e5780636bc69a241461048b5780636c0a9daa146105145780636e94422c1461054f57806376a4202e146105bb576101c2565b8063540cecb3146103fa5780635632993b146104495780636183464114610474576101c2565b806333f393ee116101a057806333f393ee146102f35780633e2974e7146103385780633edec69a1461036357806350e3d8081461038e576101c2565b806306fdde03146101c757806311d7e68914610257578063180f58421461029c575b600080fd5b3480156101d357600080fd5b506101dc61094f565b6040518080602001828103825283818151815260200191508051906020019080838360005b8381101561021c578082015181840152602081019050610201565b50505050905090810190601f1680156102495780820380516001836020036101000a031916815260200191505b509250505060405180910390f35b34801561026357600080fd5b5061029a6004803603604081101561027a57600080fd5b8101908080359060200190929190803590602001909291905050506109ed565b005b3480156102a857600080fd5b506102b161164e565b604051808273ffffffffffffffffffffffffffffffffffffffff1673ffffffffffffffffffffffffffffffffffffffff16815260200191505060405180910390f35b3480156102ff57600080fd5b506103366004803603604081101561031657600080fd5b810190808035906020019092919080359060200190929190505050611674565b005b34801561034457600080fd5b5061034d612354565b6040518082815260200191505060405180910390f35b34801561036f57600080fd5b5061037861235a565b6040518082815260200191505060405180910390f35b34801561039a57600080fd5b506103a3612360565b6040518080602001828103825283818151815260200191508051906020019060200280838360005b838110156103e65780820151818401526020810190506103cb565b505050509050019250505060405180910390f35b34801561040657600080fd5b506104336004803603602081101561041d57600080fd5b81019080803590602001909291905050506123b8565b6040518082815260200191505060405180910390f35b34801561045557600080fd5b5061045e6123d9565b6040518082815260200191505060405180910390f35b34801561048057600080fd5b506104896123df565b005b34801561049757600080fd5b506104c4600480360360208110156104ae57600080fd5b8101908080359060200190929190505050612656565b604051808473ffffffffffffffffffffffffffffffffffffffff1673ffffffffffffffffffffffffffffffffffffffff168152602001838152602001828152602001935050505060405180910390f35b34801561052057600080fd5b5061054d6004803603602081101561053757600080fd5b81019080803590602001909291905050506126a0565b005b34801561055b57600080fd5b5061056461291e565b6040518080602001828103825283818151815260200191508051906020019060200280838360005b838110156105a757808201518184015260208101905061058c565b505050509050019250505060405180910390f35b3480156105c757600080fd5b506105f4600480360360208110156105de57600080fd5b8101908080359060200190929190505050612976565b6040518082815260200191505060405180910390f35b34801561061657600080fd5b5061064d6004803603604081101561062d57600080fd5b810190808035906020019092919080359060200190929190505050612997565b005b34801561065b57600080fd5b5061066461358f565b6040518082815260200191505060405180910390f35b34801561068657600080fd5b5061068f613595565b005b34801561069d57600080fd5b506106a661380c565b604051808273ffffffffffffffffffffffffffffffffffffffff1673ffffffffffffffffffffffffffffffffffffffff16815260200191505060405180910390f35b3480156106f457600080fd5b506106fd613832565b6040518082815260200191505060405180910390f35b34801561071f57600080fd5b5061074c6004803603602081101561073657600080fd5b8101908080359060200190929190505050613838565b604051808473ffffffffffffffffffffffffffffffffffffffff1673ffffffffffffffffffffffffffffffffffffffff168152602001838152602001828152602001935050505060405180910390f35b3480156107a857600080fd5b506107b1613882565b6040518082815260200191505060405180910390f35b6107cf613888565b005b3480156107dd57600080fd5b506107e6613a5f565b6040518082815260200191505060405180910390f35b34801561080857600080fd5b50610811613a65565b6040518082815260200191505060405180910390f35b61082f613a6b565b005b34801561083d57600080fd5b5061086a6004803603602081101561085457600080fd5b8101908080359060200190929190505050613c42565b6040518082815260200191505060405180910390f35b34801561088c57600080fd5b506108c3600480360360408110156108a357600080fd5b810190808035906020019092919080359060200190929190505050613c63565b005b3480156108d157600080fd5b506108fe600480360360208110156108e857600080fd5b8101908080359060200190929190505050614943565b6040518082815260200191505060405180910390f35b34801561092057600080fd5b5061094d6004803603602081101561093757600080fd5b8101908080359060200190929190505050614964565b005b60018054600181600116156101000203166002900480601f0160208091040260200160405190810160405280929190818152602001828054600181600116156101000203166002900480156109e55780601f106109ba576101008083540402835291602001916109e5565b820191906000526020600020905b8154815290600101906020018083116109c857829003601f168201915b505050505081565b60026000541415610a66576040517f08c379a000000000000000000000000000000000000000000000000000000000815260040180806020018281038252601f8152602001807f5265656e7472616e637947756172643a207265656e7472616e742063616c6c0081525060200191505060405180910390fd5b600260008190555080600260009054906101000a900473ffffffffffffffffffffffffffffffffffffffff1673ffffffffffffffffffffffffffffffffffffffff166370a08231336040518263ffffffff1660e01b8152600401808273ffffffffffffffffffffffffffffffffffffffff1673ffffffffffffffffffffffffffffffffffffffff16815260200191505060206040518083038186803b158015610b0e57600080fd5b505afa158015610b22573d6000803e3d6000fd5b505050506040513d6020811015610b3857600080fd5b81019080805190602001909291905050501015610bbd576040517f08c379a00000000000000000000000000000000000000000000000000000000081526004018080602001828103825260158152602001807f68656c6c6f206572726f7220686572652061746f62000000000000000000000081525060200191505060405180910390fd5b600260009054906101000a900473ffffffffffffffffffffffffffffffffffffffff1673ffffffffffffffffffffffffffffffffffffffff166323b872dd3330846040518463ffffffff1660e01b8152600401808473ffffffffffffffffffffffffffffffffffffffff1673ffffffffffffffffffffffffffffffffffffffff1681526020018373ffffffffffffffffffffffffffffffffffffffff1673ffffffffffffffffffffffffffffffffffffffff1681526020018281526020019350505050602060405180830381600087803b158015610c9a57600080fd5b505af1158015610cae573d6000803e3d6000fd5b505050506040513d6020811015610cc457600080fd5b8101908080519060200190929190505050506000818381610ce157fe5b04905060006001905060008090505b600e8054905081101561162257600e8181548110610d0a57fe5b9060005260206000200154600c81905550600b6000600c548152602001908152602001600020600201546007819055506007548310158015610d4e57506000600754115b15611615576000915084600b6000600c548152602001908152602001600020600101541115610fc657600085600b6000600c5481526020019081526020016000206001015403905080600b6000600c54815260200190815260200160002060010181905550600260009054906101000a900473ffffffffffffffffffffffffffffffffffffffff1673ffffffffffffffffffffffffffffffffffffffff1663a9059cbb600b6000600c54815260200190815260200160002060000160009054906101000a900473ffffffffffffffffffffffffffffffffffffffff16876040518363ffffffff1660e01b8152600401808373ffffffffffffffffffffffffffffffffffffffff1673ffffffffffffffffffffffffffffffffffffffff16815260200182815260200192505050602060405180830381600087803b158015610e9457600080fd5b505af1158015610ea8573d6000803e3d6000fd5b505050506040513d6020811015610ebe57600080fd5b810190808051906020019092919050505050600460009054906101000a900473ffffffffffffffffffffffffffffffffffffffff1673ffffffffffffffffffffffffffffffffffffffff1663a9059cbb336007548881610f1a57fe5b046040518363ffffffff1660e01b8152600401808373ffffffffffffffffffffffffffffffffffffffff1673ffffffffffffffffffffffffffffffffffffffff16815260200182815260200192505050602060405180830381600087803b158015610f8457600080fd5b505af1158015610f98573d6000803e3d6000fd5b505050506040513d6020811015610fae57600080fd5b81019080805190602001909291905050505050611610565b84600b6000600c5481526020019081526020016000206001015414156112c257600260009054906101000a900473ffffffffffffffffffffffffffffffffffffffff1673ffffffffffffffffffffffffffffffffffffffff1663a9059cbb600b6000600c54815260200190815260200160002060000160009054906101000a900473ffffffffffffffffffffffffffffffffffffffff16866040518363ffffffff1660e01b8152600401808373ffffffffffffffffffffffffffffffffffffffff1673ffffffffffffffffffffffffffffffffffffffff16815260200182815260200192505050602060405180830381600087803b1580156110c757600080fd5b505af11580156110db573d6000803e3d6000fd5b505050506040513d60208110156110f157600080fd5b810190808051906020019092919050505050600460009054906101000a900473ffffffffffffffffffffffffffffffffffffffff1673ffffffffffffffffffffffffffffffffffffffff1663a9059cbb33600754878161114d57fe5b046040518363ffffffff1660e01b8152600401808373ffffffffffffffffffffffffffffffffffffffff1673ffffffffffffffffffffffffffffffffffffffff16815260200182815260200192505050602060405180830381600087803b1580156111b757600080fd5b505af11580156111cb573d6000803e3d6000fd5b505050506040513d60208110156111e157600080fd5b810190808051906020019092919050505050600b6000600c548152602001908152602001600020600080820160006101000a81549073ffffffffffffffffffffffffffffffffffffffff021916905560018201600090556002820160009055505060008190505b6001600e805490500381101561129b57600e600182018154811061126857fe5b9060005260206000200154600e828154811061128057fe5b90600052602060002001819055508080600101915050611248565b50600e8054806112a757fe5b6001900381819060005260206000200160009055905561160f565b84600b6000600c54815260200190815260200160002060010154101561160e57600260009054906101000a900473ffffffffffffffffffffffffffffffffffffffff1673ffffffffffffffffffffffffffffffffffffffff1663a9059cbb600b6000600c54815260200190815260200160002060000160009054906101000a900473ffffffffffffffffffffffffffffffffffffffff16600b6000600c548152602001908152602001600020600101546040518363ffffffff1660e01b8152600401808373ffffffffffffffffffffffffffffffffffffffff1673ffffffffffffffffffffffffffffffffffffffff16815260200182815260200192505050602060405180830381600087803b1580156113db57600080fd5b505af11580156113ef573d6000803e3d6000fd5b505050506040513d602081101561140557600080fd5b810190808051906020019092919050505050600460009054906101000a900473ffffffffffffffffffffffffffffffffffffffff1673ffffffffffffffffffffffffffffffffffffffff1663a9059cbb33600754600b6000600c548152602001908152602001600020600101548161147957fe5b046040518363ffffffff1660e01b8152600401808373ffffffffffffffffffffffffffffffffffffffff1673ffffffffffffffffffffffffffffffffffffffff16815260200182815260200192505050602060405180830381600087803b1580156114e357600080fd5b505af11580156114f7573d6000803e3d6000fd5b505050506040513d602081101561150d57600080fd5b810190808051906020019092919050505050600b6000600c548152602001908152602001600020600080820160006101000a81549073ffffffffffffffffffffffffffffffffffffffff021916905560018201600090556002820160009055505060008190505b6001600e80549050038110156115c757600e600182018154811061159457fe5b9060005260206000200154600e82815481106115ac57fe5b90600052602060002001819055508080600101915050611574565b50600e8054806115d357fe5b6001900381819060005260206000200160009055905561160d83600b6000600c548152602001908152602001600020600101548603614be2565b5b5b5b611622565b8080600101915050610cf0565b506000831180156116305750805b156116405761163f8284614be2565b5b505060016000819055505050565b600460009054906101000a900473ffffffffffffffffffffffffffffffffffffffff1681565b600260005414156116ed576040517f08c379a000000000000000000000000000000000000000000000000000000000815260040180806020018281038252601f8152602001807f5265656e7472616e637947756172643a207265656e7472616e742063616c6c0081525060200191505060405180910390fd5b600260008190555080600460009054906101000a900473ffffffffffffffffffffffffffffffffffffffff1673ffffffffffffffffffffffffffffffffffffffff166370a08231336040518263ffffffff1660e01b8152600401808273ffffffffffffffffffffffffffffffffffffffff1673ffffffffffffffffffffffffffffffffffffffff16815260200191505060206040518083038186803b15801561179557600080fd5b505afa1580156117a9573d6000803e3d6000fd5b505050506040513d60208110156117bf57600080fd5b810190808051906020019092919050505010156117db57600080fd5b60118190806001815401808255809150506001900390600052602060002001600090919091909150556011829080600181540180825580915050600190039060005260206000200160009091909190915055600460009054906101000a900473ffffffffffffffffffffffffffffffffffffffff1673ffffffffffffffffffffffffffffffffffffffff166323b872dd3330846040518463ffffffff1660e01b8152600401808473ffffffffffffffffffffffffffffffffffffffff1673ffffffffffffffffffffffffffffffffffffffff1681526020018373ffffffffffffffffffffffffffffffffffffffff1673ffffffffffffffffffffffffffffffffffffffff1681526020018281526020019350505050602060405180830381600087803b15801561190a57600080fd5b505af115801561191e573d6000803e3d6000fd5b505050506040513d602081101561193457600080fd5b810190808051906020019092919050505050600081838161195157fe5b04905060006001905060008090505b600f8054905081101561232857600f818154811061197a57fe5b906000526020600020015460098190555060086000600954815260200190815260200160002060020154600d81905550600d5483111580156119be57506000600d54115b1561231b576000915084600860006009548152602001908152602001600020600101541115611cda57601160086000600954815260200190815260200160002060010154908060018154018082558091505060019003906000526020600020016000909190919091505560118490806001815401808255809150506001900390600052602060002001600090919091909150556000856008600060095481526020019081526020016000206001015403905080600860006009548152602001908152602001600020600101819055506011600860006009548152602001908152602001600020600101549080600181540180825580915050600190039060005260206000200160009091909190915055600460009054906101000a900473ffffffffffffffffffffffffffffffffffffffff1673ffffffffffffffffffffffffffffffffffffffff1663a9059cbb60086000600954815260200190815260200160002060000160009054906101000a900473ffffffffffffffffffffffffffffffffffffffff16876040518363ffffffff1660e01b8152600401808373ffffffffffffffffffffffffffffffffffffffff1673ffffffffffffffffffffffffffffffffffffffff16815260200182815260200192505050602060405180830381600087803b158015611baf57600080fd5b505af1158015611bc3573d6000803e3d6000fd5b505050506040513d6020811015611bd957600080fd5b810190808051906020019092919050505050600260009054906101000a900473ffffffffffffffffffffffffffffffffffffffff1673ffffffffffffffffffffffffffffffffffffffff1663a9059cbb33600d5488026040518363ffffffff1660e01b8152600401808373ffffffffffffffffffffffffffffffffffffffff1673ffffffffffffffffffffffffffffffffffffffff16815260200182815260200192505050602060405180830381600087803b158015611c9857600080fd5b505af1158015611cac573d6000803e3d6000fd5b505050506040513d6020811015611cc257600080fd5b81019080805190602001909291905050505050612316565b84600860006009548152602001908152602001600020600101541415611fcf57600460009054906101000a900473ffffffffffffffffffffffffffffffffffffffff1673ffffffffffffffffffffffffffffffffffffffff1663a9059cbb60086000600954815260200190815260200160002060000160009054906101000a900473ffffffffffffffffffffffffffffffffffffffff16866040518363ffffffff1660e01b8152600401808373ffffffffffffffffffffffffffffffffffffffff1673ffffffffffffffffffffffffffffffffffffffff16815260200182815260200192505050602060405180830381600087803b158015611ddb57600080fd5b505af1158015611def573d6000803e3d6000fd5b505050506040513d6020811015611e0557600080fd5b810190808051906020019092919050505050600260009054906101000a900473ffffffffffffffffffffffffffffffffffffffff1673ffffffffffffffffffffffffffffffffffffffff1663a9059cbb33600d5487026040518363ffffffff1660e01b8152600401808373ffffffffffffffffffffffffffffffffffffffff1673ffffffffffffffffffffffffffffffffffffffff16815260200182815260200192505050602060405180830381600087803b158015611ec457600080fd5b505af1158015611ed8573d6000803e3d6000fd5b505050506040513d6020811015611eee57600080fd5b810190808051906020019092919050505050600860006009548152602001908152602001600020600080820160006101000a81549073ffffffffffffffffffffffffffffffffffffffff021916905560018201600090556002820160009055505060008190505b6001600f8054905003811015611fa857600f6001820181548110611f7557fe5b9060005260206000200154600f8281548110611f8d57fe5b90600052602060002001819055508080600101915050611f55565b50600f805480611fb457fe5b60019003818190600052602060002001600090559055612315565b8460086000600954815260200190815260200160002060010154101561231457600460009054906101000a900473ffffffffffffffffffffffffffffffffffffffff1673ffffffffffffffffffffffffffffffffffffffff1663a9059cbb60086000600954815260200190815260200160002060000160009054906101000a900473ffffffffffffffffffffffffffffffffffffffff16600860006009548152602001908152602001600020600101546040518363ffffffff1660e01b8152600401808373ffffffffffffffffffffffffffffffffffffffff1673ffffffffffffffffffffffffffffffffffffffff16815260200182815260200192505050602060405180830381600087803b1580156120e857600080fd5b505af11580156120fc573d6000803e3d6000fd5b505050506040513d602081101561211257600080fd5b810190808051906020019092919050505050600260009054906101000a900473ffffffffffffffffffffffffffffffffffffffff1673ffffffffffffffffffffffffffffffffffffffff1663a9059cbb33600d5460086000600954815260200190815260200160002060010154026040518363ffffffff1660e01b8152600401808373ffffffffffffffffffffffffffffffffffffffff1673ffffffffffffffffffffffffffffffffffffffff16815260200182815260200192505050602060405180830381600087803b1580156121e957600080fd5b505af11580156121fd573d6000803e3d6000fd5b505050506040513d602081101561221357600080fd5b810190808051906020019092919050505050600860006009548152602001908152602001600020600080820160006101000a81549073ffffffffffffffffffffffffffffffffffffffff021916905560018201600090556002820160009055505060008190505b6001600f80549050038110156122cd57600f600182018154811061229a57fe5b9060005260206000200154600f82815481106122b257fe5b9060005260206000200181905550808060010191505061227a565b50600f8054806122d957fe5b6001900381819060005260206000200160009055905561231383600860006009548152602001908152602001600020600101548603614cd3565b5b5b5b612328565b8080600101915050611960565b506000831180156123365750805b15612346576123458284614cd3565b5b505060016000819055505050565b60035481565b60075481565b6060600e8054806020026020016040519081016040528092919081815260200182805480156123ae57602002820191906000526020600020905b81548152602001906001019080831161239a575b5050505050905090565b601081815481106123c557fe5b906000526020600020016000915090505481565b600c5481565b60008090505b600f80549050811015612653576000600f828154811061240157fe5b906000526020600020015490506008600082815260200190815260200160002060000160009054906101000a900473ffffffffffffffffffffffffffffffffffffffff1673ffffffffffffffffffffffffffffffffffffffff163373ffffffffffffffffffffffffffffffffffffffff16141561264557600260009054906101000a900473ffffffffffffffffffffffffffffffffffffffff1673ffffffffffffffffffffffffffffffffffffffff1663a9059cbb3360086000858152602001908152602001600020600101546040518363ffffffff1660e01b8152600401808373ffffffffffffffffffffffffffffffffffffffff1673ffffffffffffffffffffffffffffffffffffffff16815260200182815260200192505050602060405180830381600087803b15801561253757600080fd5b505af115801561254b573d6000803e3d6000fd5b505050506040513d602081101561256157600080fd5b81019080805190602001909291905050505060086000828152602001908152602001600020600080820160006101000a81549073ffffffffffffffffffffffffffffffffffffffff021916905560018201600090556002820160009055505060008290505b6001600f805490500381101561261957600f60018201815481106125e657fe5b9060005260206000200154600f82815481106125fe57fe5b906000526020600020018190555080806001019150506125c6565b50600f80548061262557fe5b600190038181906000526020600020016000905590558180600190039250505b5080806001019150506123e5565b50565b600b6020528060005260406000206000915090508060000160009054906101000a900473ffffffffffffffffffffffffffffffffffffffff16908060010154908060020154905083565b80600260009054906101000a900473ffffffffffffffffffffffffffffffffffffffff1673ffffffffffffffffffffffffffffffffffffffff166370a08231336040518263ffffffff1660e01b8152600401808273ffffffffffffffffffffffffffffffffffffffff1673ffffffffffffffffffffffffffffffffffffffff16815260200191505060206040518083038186803b15801561274057600080fd5b505afa158015612754573d6000803e3d6000fd5b505050506040513d602081101561276a57600080fd5b8101908080519060200190929190505050101561278657600080fd5b6000600354828161279357fe5b049050803073ffffffffffffffffffffffffffffffffffffffff163110156127ba57600080fd5b600260009054906101000a900473ffffffffffffffffffffffffffffffffffffffff1673ffffffffffffffffffffffffffffffffffffffff166323b872dd3330856040518463ffffffff1660e01b8152600401808473ffffffffffffffffffffffffffffffffffffffff1673ffffffffffffffffffffffffffffffffffffffff1681526020018373ffffffffffffffffffffffffffffffffffffffff1673ffffffffffffffffffffffffffffffffffffffff1681526020018281526020019350505050602060405180830381600087803b15801561289757600080fd5b505af11580156128ab573d6000803e3d6000fd5b505050506040513d60208110156128c157600080fd5b8101908080519060200190929190505050503373ffffffffffffffffffffffffffffffffffffffff166108fc829081150290604051600060405180830381858888f19350505050158015612919573d6000803e3d6000fd5b505050565b6060600f80548060200260200160405190810160405280929190818152602001828054801561296c57602002820191906000526020600020905b815481526020019060010190808311612958575b5050505050905090565b6011818154811061298357fe5b906000526020600020016000915090505481565b60026000541415612a10576040517f08c379a000000000000000000000000000000000000000000000000000000000815260040180806020018281038252601f8152602001807f5265656e7472616e637947756172643a207265656e7472616e742063616c6c0081525060200191505060405180910390fd5b600260008190555080600260009054906101000a900473ffffffffffffffffffffffffffffffffffffffff1673ffffffffffffffffffffffffffffffffffffffff166370a08231336040518263ffffffff1660e01b8152600401808273ffffffffffffffffffffffffffffffffffffffff1673ffffffffffffffffffffffffffffffffffffffff16815260200191505060206040518083038186803b158015612ab857600080fd5b505afa158015612acc573d6000803e3d6000fd5b505050506040513d6020811015612ae257600080fd5b81019080805190602001909291905050501015612afe57600080fd5b600260009054906101000a900473ffffffffffffffffffffffffffffffffffffffff1673ffffffffffffffffffffffffffffffffffffffff166323b872dd3330846040518463ffffffff1660e01b8152600401808473ffffffffffffffffffffffffffffffffffffffff1673ffffffffffffffffffffffffffffffffffffffff1681526020018373ffffffffffffffffffffffffffffffffffffffff1673ffffffffffffffffffffffffffffffffffffffff1681526020018281526020019350505050602060405180830381600087803b158015612bdb57600080fd5b505af1158015612bef573d6000803e3d6000fd5b505050506040513d6020811015612c0557600080fd5b8101908080519060200190929190505050506000828281612c2257fe5b04905060006001905060008090505b600e8054905081101561356357600e8181548110612c4b57fe5b9060005260206000200154600c81905550600b6000600c548152602001908152602001600020600201546007819055506007548310158015612c8f57506000600754115b15613556576000915084600b6000600c548152602001908152602001600020600101541115612f0757600085600b6000600c5481526020019081526020016000206001015403905080600b6000600c54815260200190815260200160002060010181905550600260009054906101000a900473ffffffffffffffffffffffffffffffffffffffff1673ffffffffffffffffffffffffffffffffffffffff1663a9059cbb600b6000600c54815260200190815260200160002060000160009054906101000a900473ffffffffffffffffffffffffffffffffffffffff16876040518363ffffffff1660e01b8152600401808373ffffffffffffffffffffffffffffffffffffffff1673ffffffffffffffffffffffffffffffffffffffff16815260200182815260200192505050602060405180830381600087803b158015612dd557600080fd5b505af1158015612de9573d6000803e3d6000fd5b505050506040513d6020811015612dff57600080fd5b810190808051906020019092919050505050600460009054906101000a900473ffffffffffffffffffffffffffffffffffffffff1673ffffffffffffffffffffffffffffffffffffffff1663a9059cbb336007548881612e5b57fe5b046040518363ffffffff1660e01b8152600401808373ffffffffffffffffffffffffffffffffffffffff1673ffffffffffffffffffffffffffffffffffffffff16815260200182815260200192505050602060405180830381600087803b158015612ec557600080fd5b505af1158015612ed9573d6000803e3d6000fd5b505050506040513d6020811015612eef57600080fd5b81019080805190602001909291905050505050613551565b84600b6000600c54815260200190815260200160002060010154141561320357600260009054906101000a900473ffffffffffffffffffffffffffffffffffffffff1673ffffffffffffffffffffffffffffffffffffffff1663a9059cbb600b6000600c54815260200190815260200160002060000160009054906101000a900473ffffffffffffffffffffffffffffffffffffffff16866040518363ffffffff1660e01b8152600401808373ffffffffffffffffffffffffffffffffffffffff1673ffffffffffffffffffffffffffffffffffffffff16815260200182815260200192505050602060405180830381600087803b15801561300857600080fd5b505af115801561301c573d6000803e3d6000fd5b505050506040513d602081101561303257600080fd5b810190808051906020019092919050505050600460009054906101000a900473ffffffffffffffffffffffffffffffffffffffff1673ffffffffffffffffffffffffffffffffffffffff1663a9059cbb33600754878161308e57fe5b046040518363ffffffff1660e01b8152600401808373ffffffffffffffffffffffffffffffffffffffff1673ffffffffffffffffffffffffffffffffffffffff16815260200182815260200192505050602060405180830381600087803b1580156130f857600080fd5b505af115801561310c573d6000803e3d6000fd5b505050506040513d602081101561312257600080fd5b810190808051906020019092919050505050600b6000600c548152602001908152602001600020600080820160006101000a81549073ffffffffffffffffffffffffffffffffffffffff021916905560018201600090556002820160009055505060008190505b6001600e80549050038110156131dc57600e60018201815481106131a957fe5b9060005260206000200154600e82815481106131c157fe5b90600052602060002001819055508080600101915050613189565b50600e8054806131e857fe5b60019003818190600052602060002001600090559055613550565b84600b6000600c54815260200190815260200160002060010154101561354f57600260009054906101000a900473ffffffffffffffffffffffffffffffffffffffff1673ffffffffffffffffffffffffffffffffffffffff1663a9059cbb600b6000600c54815260200190815260200160002060000160009054906101000a900473ffffffffffffffffffffffffffffffffffffffff16600b6000600c548152602001908152602001600020600101546040518363ffffffff1660e01b8152600401808373ffffffffffffffffffffffffffffffffffffffff1673ffffffffffffffffffffffffffffffffffffffff16815260200182815260200192505050602060405180830381600087803b15801561331c57600080fd5b505af1158015613330573d6000803e3d6000fd5b505050506040513d602081101561334657600080fd5b810190808051906020019092919050505050600460009054906101000a900473ffffffffffffffffffffffffffffffffffffffff1673ffffffffffffffffffffffffffffffffffffffff1663a9059cbb33600754600b6000600c54815260200190815260200160002060010154816133ba57fe5b046040518363ffffffff1660e01b8152600401808373ffffffffffffffffffffffffffffffffffffffff1673ffffffffffffffffffffffffffffffffffffffff16815260200182815260200192505050602060405180830381600087803b15801561342457600080fd5b505af1158015613438573d6000803e3d6000fd5b505050506040513d602081101561344e57600080fd5b810190808051906020019092919050505050600b6000600c548152602001908152602001600020600080820160006101000a81549073ffffffffffffffffffffffffffffffffffffffff021916905560018201600090556002820160009055505060008190505b6001600e805490500381101561350857600e60018201815481106134d557fe5b9060005260206000200154600e82815481106134ed57fe5b906000526020600020018190555080806001019150506134b5565b50600e80548061351457fe5b6001900381819060005260206000200160009055905561354e83600b6000600c548152602001908152602001600020600101548603614be2565b5b5b5b613563565b8080600101915050612c31565b506000831180156135715750805b15613581576135808284614be2565b5b505060016000819055505050565b60065481565b60008090505b600e80549050811015613809576000600e82815481106135b757fe5b90600052602060002001549050600b600082815260200190815260200160002060000160009054906101000a900473ffffffffffffffffffffffffffffffffffffffff1673ffffffffffffffffffffffffffffffffffffffff163373ffffffffffffffffffffffffffffffffffffffff1614156137fb57600460009054906101000a900473ffffffffffffffffffffffffffffffffffffffff1673ffffffffffffffffffffffffffffffffffffffff1663a9059cbb33600b6000858152602001908152602001600020600101546040518363ffffffff1660e01b8152600401808373ffffffffffffffffffffffffffffffffffffffff1673ffffffffffffffffffffffffffffffffffffffff16815260200182815260200192505050602060405180830381600087803b1580156136ed57600080fd5b505af1158015613701573d6000803e3d6000fd5b505050506040513d602081101561371757600080fd5b810190808051906020019092919050505050600b6000828152602001908152602001600020600080820160006101000a81549073ffffffffffffffffffffffffffffffffffffffff021916905560018201600090556002820160009055505060008290505b6001600e80549050038110156137cf57600e600182018154811061379c57fe5b9060005260206000200154600e82815481106137b457fe5b9060005260206000200181905550808060010191505061377c565b50600e8054806137db57fe5b600190038181906000526020600020016000905590558180600190039250505b50808060010191505061359b565b50565b600260009054906101000a900473ffffffffffffffffffffffffffffffffffffffff1681565b600a5481565b60086020528060005260406000206000915090508060000160009054906101000a900473ffffffffffffffffffffffffffffffffffffffff16908060010154908060020154905083565b60055481565b60006003543402905080600260009054906101000a900473ffffffffffffffffffffffffffffffffffffffff1673ffffffffffffffffffffffffffffffffffffffff166370a08231306040518263ffffffff1660e01b8152600401808273ffffffffffffffffffffffffffffffffffffffff1673ffffffffffffffffffffffffffffffffffffffff16815260200191505060206040518083038186803b15801561393157600080fd5b505afa158015613945573d6000803e3d6000fd5b505050506040513d602081101561395b57600080fd5b8101908080519060200190929190505050101561397757600080fd5b600260009054906101000a900473ffffffffffffffffffffffffffffffffffffffff1673ffffffffffffffffffffffffffffffffffffffff1663a9059cbb33836040518363ffffffff1660e01b8152600401808373ffffffffffffffffffffffffffffffffffffffff1673ffffffffffffffffffffffffffffffffffffffff16815260200182815260200192505050602060405180830381600087803b158015613a2057600080fd5b505af1158015613a34573d6000803e3d6000fd5b505050506040513d6020811015613a4a57600080fd5b81019080805190602001909291905050505050565b600d5481565b60095481565b60006005543402905080600460009054906101000a900473ffffffffffffffffffffffffffffffffffffffff1673ffffffffffffffffffffffffffffffffffffffff166370a08231306040518263ffffffff1660e01b8152600401808273ffffffffffffffffffffffffffffffffffffffff1673ffffffffffffffffffffffffffffffffffffffff16815260200191505060206040518083038186803b158015613b1457600080fd5b505afa158015613b28573d6000803e3d6000fd5b505050506040513d6020811015613b3e57600080fd5b81019080805190602001909291905050501015613b5a57600080fd5b600460009054906101000a900473ffffffffffffffffffffffffffffffffffffffff1673ffffffffffffffffffffffffffffffffffffffff1663a9059cbb33836040518363ffffffff1660e01b8152600401808373ffffffffffffffffffffffffffffffffffffffff1673ffffffffffffffffffffffffffffffffffffffff16815260200182815260200192505050602060405180830381600087803b158015613c0357600080fd5b505af1158015613c17573d6000803e3d6000fd5b505050506040513d6020811015613c2d57600080fd5b81019080805190602001909291905050505050565b600f8181548110613c4f57fe5b906000526020600020016000915090505481565b60026000541415613cdc576040517f08c379a000000000000000000000000000000000000000000000000000000000815260040180806020018281038252601f8152602001807f5265656e7472616e637947756172643a207265656e7472616e742063616c6c0081525060200191505060405180910390fd5b600260008190555080600460009054906101000a900473ffffffffffffffffffffffffffffffffffffffff1673ffffffffffffffffffffffffffffffffffffffff166370a08231336040518263ffffffff1660e01b8152600401808273ffffffffffffffffffffffffffffffffffffffff1673ffffffffffffffffffffffffffffffffffffffff16815260200191505060206040518083038186803b158015613d8457600080fd5b505afa158015613d98573d6000803e3d6000fd5b505050506040513d6020811015613dae57600080fd5b81019080805190602001909291905050501015613dca57600080fd5b60118190806001815401808255809150506001900390600052602060002001600090919091909150556011829080600181540180825580915050600190039060005260206000200160009091909190915055600460009054906101000a900473ffffffffffffffffffffffffffffffffffffffff1673ffffffffffffffffffffffffffffffffffffffff166323b872dd3330846040518463ffffffff1660e01b8152600401808473ffffffffffffffffffffffffffffffffffffffff1673ffffffffffffffffffffffffffffffffffffffff1681526020018373ffffffffffffffffffffffffffffffffffffffff1673ffffffffffffffffffffffffffffffffffffffff1681526020018281526020019350505050602060405180830381600087803b158015613ef957600080fd5b505af1158015613f0d573d6000803e3d6000fd5b505050506040513d6020811015613f2357600080fd5b8101908080519060200190929190505050506000828281613f4057fe5b04905060006001905060008090505b600f8054905081101561491757600f8181548110613f6957fe5b906000526020600020015460098190555060086000600954815260200190815260200160002060020154600d81905550600d548311158015613fad57506000600d54115b1561490a5760009150846008600060095481526020019081526020016000206001015411156142c957601160086000600954815260200190815260200160002060010154908060018154018082558091505060019003906000526020600020016000909190919091505560118490806001815401808255809150506001900390600052602060002001600090919091909150556000856008600060095481526020019081526020016000206001015403905080600860006009548152602001908152602001600020600101819055506011600860006009548152602001908152602001600020600101549080600181540180825580915050600190039060005260206000200160009091909190915055600460009054906101000a900473ffffffffffffffffffffffffffffffffffffffff1673ffffffffffffffffffffffffffffffffffffffff1663a9059cbb60086000600954815260200190815260200160002060000160009054906101000a900473ffffffffffffffffffffffffffffffffffffffff16876040518363ffffffff1660e01b8152600401808373ffffffffffffffffffffffffffffffffffffffff1673ffffffffffffffffffffffffffffffffffffffff16815260200182815260200192505050602060405180830381600087803b15801561419e57600080fd5b505af11580156141b2573d6000803e3d6000fd5b505050506040513d60208110156141c857600080fd5b810190808051906020019092919050505050600260009054906101000a900473ffffffffffffffffffffffffffffffffffffffff1673ffffffffffffffffffffffffffffffffffffffff1663a9059cbb33600d5488026040518363ffffffff1660e01b8152600401808373ffffffffffffffffffffffffffffffffffffffff1673ffffffffffffffffffffffffffffffffffffffff16815260200182815260200192505050602060405180830381600087803b15801561428757600080fd5b505af115801561429b573d6000803e3d6000fd5b505050506040513d60208110156142b157600080fd5b81019080805190602001909291905050505050614905565b846008600060095481526020019081526020016000206001015414156145be57600460009054906101000a900473ffffffffffffffffffffffffffffffffffffffff1673ffffffffffffffffffffffffffffffffffffffff1663a9059cbb60086000600954815260200190815260200160002060000160009054906101000a900473ffffffffffffffffffffffffffffffffffffffff16866040518363ffffffff1660e01b8152600401808373ffffffffffffffffffffffffffffffffffffffff1673ffffffffffffffffffffffffffffffffffffffff16815260200182815260200192505050602060405180830381600087803b1580156143ca57600080fd5b505af11580156143de573d6000803e3d6000fd5b505050506040513d60208110156143f457600080fd5b810190808051906020019092919050505050600260009054906101000a900473ffffffffffffffffffffffffffffffffffffffff1673ffffffffffffffffffffffffffffffffffffffff1663a9059cbb33600d5487026040518363ffffffff1660e01b8152600401808373ffffffffffffffffffffffffffffffffffffffff1673ffffffffffffffffffffffffffffffffffffffff16815260200182815260200192505050602060405180830381600087803b1580156144b357600080fd5b505af11580156144c7573d6000803e3d6000fd5b505050506040513d60208110156144dd57600080fd5b810190808051906020019092919050505050600860006009548152602001908152602001600020600080820160006101000a81549073ffffffffffffffffffffffffffffffffffffffff021916905560018201600090556002820160009055505060008190505b6001600f805490500381101561459757600f600182018154811061456457fe5b9060005260206000200154600f828154811061457c57fe5b90600052602060002001819055508080600101915050614544565b50600f8054806145a357fe5b60019003818190600052602060002001600090559055614904565b8460086000600954815260200190815260200160002060010154101561490357600460009054906101000a900473ffffffffffffffffffffffffffffffffffffffff1673ffffffffffffffffffffffffffffffffffffffff1663a9059cbb60086000600954815260200190815260200160002060000160009054906101000a900473ffffffffffffffffffffffffffffffffffffffff16600860006009548152602001908152602001600020600101546040518363ffffffff1660e01b8152600401808373ffffffffffffffffffffffffffffffffffffffff1673ffffffffffffffffffffffffffffffffffffffff16815260200182815260200192505050602060405180830381600087803b1580156146d757600080fd5b505af11580156146eb573d6000803e3d6000fd5b505050506040513d602081101561470157600080fd5b810190808051906020019092919050505050600260009054906101000a900473ffffffffffffffffffffffffffffffffffffffff1673ffffffffffffffffffffffffffffffffffffffff1663a9059cbb33600d5460086000600954815260200190815260200160002060010154026040518363ffffffff1660e01b8152600401808373ffffffffffffffffffffffffffffffffffffffff1673ffffffffffffffffffffffffffffffffffffffff16815260200182815260200192505050602060405180830381600087803b1580156147d857600080fd5b505af11580156147ec573d6000803e3d6000fd5b505050506040513d602081101561480257600080fd5b810190808051906020019092919050505050600860006009548152602001908152602001600020600080820160006101000a81549073ffffffffffffffffffffffffffffffffffffffff021916905560018201600090556002820160009055505060008190505b6001600f80549050038110156148bc57600f600182018154811061488957fe5b9060005260206000200154600f82815481106148a157fe5b90600052602060002001819055508080600101915050614869565b50600f8054806148c857fe5b6001900381819060005260206000200160009055905561490283600860006009548152602001908152602001600020600101548603614cd3565b5b5b5b614917565b8080600101915050613f4f565b506000831180156149255750805b15614935576149348284614cd3565b5b505060016000819055505050565b600e818154811061495057fe5b906000526020600020016000915090505481565b80600460009054906101000a900473ffffffffffffffffffffffffffffffffffffffff1673ffffffffffffffffffffffffffffffffffffffff166370a08231336040518263ffffffff1660e01b8152600401808273ffffffffffffffffffffffffffffffffffffffff1673ffffffffffffffffffffffffffffffffffffffff16815260200191505060206040518083038186803b158015614a0457600080fd5b505afa158015614a18573d6000803e3d6000fd5b505050506040513d6020811015614a2e57600080fd5b81019080805190602001909291905050501015614a4a57600080fd5b60006005548281614a5757fe5b049050803073ffffffffffffffffffffffffffffffffffffffff16311015614a7e57600080fd5b600460009054906101000a900473ffffffffffffffffffffffffffffffffffffffff1673ffffffffffffffffffffffffffffffffffffffff166323b872dd3330856040518463ffffffff1660e01b8152600401808473ffffffffffffffffffffffffffffffffffffffff1673ffffffffffffffffffffffffffffffffffffffff1681526020018373ffffffffffffffffffffffffffffffffffffffff1673ffffffffffffffffffffffffffffffffffffffff1681526020018281526020019350505050602060405180830381600087803b158015614b5b57600080fd5b505af1158015614b6f573d6000803e3d6000fd5b505050506040513d6020811015614b8557600080fd5b8101908080519060200190929190505050503373ffffffffffffffffffffffffffffffffffffffff166108fc829081150290604051600060405180830381858888f19350505050158015614bdd573d6000803e3d6000fd5b505050565b60008211614bef57600080fd5b6001600660008282540192505081905550600f600654908060018154018082558091505060019003906000526020600020016000909190919091505560405180606001604052803373ffffffffffffffffffffffffffffffffffffffff1681526020018281526020018381525060086000600654815260200190815260200160002060008201518160000160006101000a81548173ffffffffffffffffffffffffffffffffffffffff021916908373ffffffffffffffffffffffffffffffffffffffff16021790555060208201518160010155604082015181600201559050505050565b60008211614ce057600080fd5b6001600a60008282540192505081905550600e600a54908060018154018082558091505060019003906000526020600020016000909190919091505560405180606001604052803373ffffffffffffffffffffffffffffffffffffffff16815260200182815260200183815250600b6000600a54815260200190815260200160002060008201518160000160006101000a81548173ffffffffffffffffffffffffffffffffffffffff021916908373ffffffffffffffffffffffffffffffffffffffff1602179055506020820151816001015560408201518160020155905050505056fea26469706673582212207d2b77e7d7843de8d5076a75ca0ca344d4b68ffda85db01fb3450811df1403a164736f6c63430006080033",
  "immutableReferences": {},
  "source": "pragma solidity >=0.6.8;\n\nimport \"./AToken.sol\";\nimport \"./BToken.sol\";\nimport {ITokenSwap} from \"./interfaces/ITokenSwap.sol\";\nimport {ReentrancyGuard} from \"@openzeppelin/contracts/utils/ReentrancyGuard.sol\";\nimport {SafeMath} from \"@openzeppelin/contracts/math/SafeMath.sol\";\nimport {Math} from \"@openzeppelin/contracts/math/Math.sol\";\nimport {SafeERC20} from \"@openzeppelin/contracts/token/ERC20/SafeERC20.sol\";\nimport {IERC20} from \"@openzeppelin/contracts/token/ERC20/IERC20.sol\";\n\ncontract TokenSwap is ITokenSwap, ReentrancyGuard {\n    using SafeMath for uint256;\n    using SafeMath for uint8;\n    using Math for uint256;\n\n    string public name = \"TokenSwap Instant Exchange\";\n    AToken public aToken;\n    uint256 public aRate = 1000;\n    BToken public bToken;\n    uint256 public bRate = 1000;\n\n    constructor(AToken _aToken, BToken _bToken) public {\n        //pass the address of the Token in\n        aToken = _aToken;\n        bToken = _bToken;\n    }\n\n    function buyATokens() public payable {\n        // Calculate the number of tokens to buy\n        uint256 tokenAmount = msg.value * aRate; //msg.value = how much ether was sent\n\n        // Require that TokenSwap has enough tokens\n        require(aToken.balanceOf(address(this)) >= tokenAmount);\n\n        // Transfer tokens to the user\n        aToken.transfer(msg.sender, tokenAmount);\n\n        // // emit an event\n        // emit TokensPurchased(msg.sender, address(aToken), tokenAmount, aRate);\n    }\n\n    function sellATokens(uint256 _amount) public {\n        // User can't sell more tokens than they have\n        require(aToken.balanceOf(msg.sender) >= _amount);\n\n        // Calculate the amount of Ether to redeem\n        uint256 etherAmount = _amount / aRate;\n\n        // Require that TokenSwap has enough Ether\n        require(address(this).balance >= etherAmount);\n\n        // Perform sale\n        aToken.transferFrom(msg.sender, address(this), _amount);\n        msg.sender.transfer(etherAmount);\n\n        // // emit an event\n        // emit TokensSold(msg.sender, address(aToken), _amount, aRate);\n    }\n\n    function buyBTokens() public payable {\n        // Calculate the number of tokens to buy\n        uint256 tokenAmount = msg.value * bRate; //msg.value = how much ether was sent\n\n        // Require that TokenSwap has enough tokens\n        require(bToken.balanceOf(address(this)) >= tokenAmount);\n\n        // Transfer tokens to the user\n        bToken.transfer(msg.sender, tokenAmount);\n\n        // // emit an event\n        // emit TokensPurchased(msg.sender, address(bToken), tokenAmount, bRate);\n    }\n\n    function sellBTokens(uint256 _amount) public {\n        // User can't sell more tokens than they have\n        require(bToken.balanceOf(msg.sender) >= _amount);\n\n        // Calculate the amount of Ether to redeem\n        uint256 etherAmount = _amount / bRate;\n\n        // Require that TokenSwap has enough Ether\n        require(address(this).balance >= etherAmount);\n\n        // Perform sale\n        bToken.transferFrom(msg.sender, address(this), _amount);\n        msg.sender.transfer(etherAmount);\n\n        // // emit an event\n        // emit TokensSold(msg.sender, address(bToken), _amount, bRate);\n    }\n\n    ///////////////////////////////////////////////////////////////////////// ORDERBOOK //////////////////////////////////////////////////////////////////////////////////////////\n\n    uint256 public buyCounter = 0;\n    uint256 public minSellRate;\n    mapping(uint256 => NewOrder) public newBuyOrderBook;\n    uint256 public idOfBuyRate;\n\n    uint256 public sellCounter = 0;\n    mapping(uint256 => NewOrder) public newSellOrderBook;\n    uint256 public idOfSellRate;\n    uint256 public maxBuyRate;\n\n    uint256[] public sellrateid;\n    uint256[] public buyrateid;\n\n    uint256[] public amountsell;\n    uint256[] public amountbuy;\n\n    function getbuyrate() public returns (uint256[] memory) {\n        return buyrateid;\n    }\n\n    function getsellrate() public returns (uint256[] memory) {\n        return sellrateid;\n    }\n\n\n    //buy B using A\n    function atob(uint256 b, uint256 a) external override nonReentrant {\n        require(aToken.balanceOf(msg.sender) >= a);\n\n        aToken.transferFrom(msg.sender, address(this), a);\n        // emit ATokensSent(msg.sender, address(this),a);\n        uint256 rate = a / b;\n        bool toAdd = true;\n\n        for (uint256 i = 0; i < sellrateid.length; i++) {\n            idOfSellRate = sellrateid[i];\n            minSellRate = newSellOrderBook[idOfSellRate].rate;\n\n            if (rate >= minSellRate && minSellRate > 0) {\n                //give best order\n                toAdd = false;\n                if (newSellOrderBook[idOfSellRate].amount > b) {\n                    uint256 newAmount = newSellOrderBook[idOfSellRate].amount -\n                        b;\n                    newSellOrderBook[idOfSellRate].amount = newAmount; //replace old amount with new\n                    // transfer\n                    aToken.transfer(newSellOrderBook[idOfSellRate].maker, a);\n                    bToken.transfer(msg.sender, a / minSellRate);\n                    // emit ATokensSent( address(this), newSellOrderBook[idOfSellRate].maker, a);\n                    // emit BTokensSent( address(this), msg.sender,a / minSellRate);\n                } else if (newSellOrderBook[idOfSellRate].amount == b) {\n                    // transfer\n                    aToken.transfer(newSellOrderBook[idOfSellRate].maker, a);\n                    bToken.transfer(msg.sender, a / minSellRate);\n                    // emit ATokensSent( address(this), newSellOrderBook[idOfSellRate].maker, a);\n                    // emit BTokensSent( address(this), msg.sender,a / minSellRate);                    \n                    // update the minSellRate\n                    delete newSellOrderBook[idOfSellRate];\n                    for (uint256 j = i; j < sellrateid.length - 1; j++) {\n                        sellrateid[j] = sellrateid[j + 1];\n                    }\n                    sellrateid.pop();\n                } else if (newSellOrderBook[idOfSellRate].amount < b) {\n                    aToken.transfer(\n                        newSellOrderBook[idOfSellRate].maker,\n                        newSellOrderBook[idOfSellRate].amount\n                    );\n                    bToken.transfer(\n                        msg.sender,\n                        newSellOrderBook[idOfSellRate].amount / minSellRate\n                    );\n                    // emit ATokensSent( address(this), newSellOrderBook[idOfSellRate].maker, newSellOrderBook[idOfSellRate].amount);\n                    // emit BTokensSent( address(this), msg.sender,newSellOrderBook[idOfSellRate].amount / minSellRate);\n\n                    delete newSellOrderBook[idOfSellRate];\n                    for (uint256 j = i; j < sellrateid.length - 1; j++) {\n                        sellrateid[j] = sellrateid[j + 1];\n                    }\n                    sellrateid.pop();\n                    _atobBook(rate, a - newSellOrderBook[idOfSellRate].amount);\n                }\n                break;\n            }\n        }\n\n        if (a > 0 && toAdd) {\n            _atobBook(rate, a);\n        }\n    }\n\n function atobInverseRate(uint256 b, uint256 a) external override nonReentrant {\n        require(aToken.balanceOf(msg.sender) >= a, \"hello error here atob\");\n\n        aToken.transferFrom(msg.sender, address(this), a);\n        // emit ATokensSent(msg.sender, address(this),a);\n\n        uint256 rate = b / a;\n        bool toAdd = true;\n\n        for (uint256 i = 0; i < sellrateid.length; i++) {\n            idOfSellRate = sellrateid[i];\n            minSellRate = newSellOrderBook[idOfSellRate].rate;\n\n            if (rate >= minSellRate && minSellRate > 0) {\n                //give best order\n                toAdd = false;\n                if (newSellOrderBook[idOfSellRate].amount > b) {\n                    uint256 newAmount = newSellOrderBook[idOfSellRate].amount -\n                        b;\n                    newSellOrderBook[idOfSellRate].amount = newAmount; //replace old amount with new\n                    // transfer\n                    aToken.transfer(newSellOrderBook[idOfSellRate].maker, a);\n                    bToken.transfer(msg.sender, a / minSellRate);\n                    // emit ATokensSent( address(this), newSellOrderBook[idOfSellRate].maker, a);\n                    // emit BTokensSent( address(this), msg.sender,a / minSellRate);\n                } else if (newSellOrderBook[idOfSellRate].amount == b) {\n                    // transfer\n                    aToken.transfer(newSellOrderBook[idOfSellRate].maker, a);\n                    bToken.transfer(msg.sender, a / minSellRate);\n                    // emit ATokensSent( address(this), newSellOrderBook[idOfSellRate].maker, a);\n                    // emit BTokensSent( address(this), msg.sender,a / minSellRate);\n\n                    delete newSellOrderBook[idOfSellRate];\n                    for (uint256 j = i; j < sellrateid.length - 1; j++) {\n                        sellrateid[j] = sellrateid[j + 1];\n                    }\n                    sellrateid.pop();\n                } else if (newSellOrderBook[idOfSellRate].amount < b) {\n                    aToken.transfer(\n                        newSellOrderBook[idOfSellRate].maker,\n                        newSellOrderBook[idOfSellRate].amount\n                    );\n                    bToken.transfer(\n                        msg.sender,\n                        newSellOrderBook[idOfSellRate].amount / minSellRate\n                    );\n                    // emit ATokensSent( address(this), newSellOrderBook[idOfSellRate].maker, newSellOrderBook[idOfSellRate].amount);\n                    // emit BTokensSent( address(this), msg.sender,newSellOrderBook[idOfSellRate].amount / minSellRate);\n\n                    delete newSellOrderBook[idOfSellRate];\n                    for (uint256 j = i; j < sellrateid.length - 1; j++) {\n                        sellrateid[j] = sellrateid[j + 1];\n                    }\n                    sellrateid.pop();\n                    _atobBook(rate, a - newSellOrderBook[idOfSellRate].amount);\n                }\n                break;\n            }\n        }\n\n        if (a > 0 && toAdd) {\n            _atobBook(rate, a);\n        }\n    }\n\n\n    function maxNumber(uint256 a, uint256 b) internal pure returns (uint256) {\n        return a >= b ? a : b;\n    }\n\n    function minNumber(uint256 a, uint256 b) internal pure returns (uint256) {\n        return a <= b ? a : b;\n    }\n\n    function _atobBook(uint256 rate, uint256 a) internal {\n        require(rate > 0);\n        buyCounter += 1;\n        buyrateid.push(buyCounter);\n        newBuyOrderBook[buyCounter] = NewOrder(msg.sender, a, rate);\n    }\n\n    // buy A using b\n    function btoa(uint256 a, uint256 b) external override nonReentrant {\n        require(bToken.balanceOf(msg.sender) >= b);\n        amountbuy.push(b);\n        amountbuy.push(a);\n        bToken.transferFrom(msg.sender, address(this), b);\n        // emit BTokensSent(msg.sender, address(this),b);\n\n        uint256 rate = a / b;\n        bool toAdd = true;\n\n        for (uint256 i = 0; i < buyrateid.length; i++) {\n            idOfBuyRate = buyrateid[i];\n            maxBuyRate = newBuyOrderBook[idOfBuyRate].rate;\n\n            if (rate <= maxBuyRate && maxBuyRate > 0) {\n                toAdd = false;\n                if (newBuyOrderBook[idOfBuyRate].amount > a) {\n                    amountbuy.push(newBuyOrderBook[idOfBuyRate].amount);\n                    amountbuy.push(b);\n                    uint256 newAmount = newBuyOrderBook[idOfBuyRate].amount - a;\n                    newBuyOrderBook[idOfBuyRate].amount = newAmount; //replace old amount with new\n                    amountbuy.push(newBuyOrderBook[idOfBuyRate].amount);\n                    // transfer\n                    bToken.transfer(newBuyOrderBook[idOfBuyRate].maker, b);\n                    aToken.transfer(msg.sender, b * maxBuyRate);\n                    // emit BTokensSent( address(this), newBuyOrderBook[idOfBuyRate].maker,b);\n                    // emit ATokensSent( address(this), msg.sender,b * maxBuyRate);\n\n\n                } else if (newBuyOrderBook[idOfBuyRate].amount == a) {\n                    // transfer\n                    bToken.transfer(newBuyOrderBook[idOfBuyRate].maker, b);\n                    aToken.transfer(msg.sender, b * maxBuyRate);\n                    // emit BTokensSent( address(this), newBuyOrderBook[idOfBuyRate].maker,b);\n                    // emit ATokensSent( address(this), msg.sender,b * maxBuyRate);\n                    // update the minSellRate\n                    delete newBuyOrderBook[idOfBuyRate];\n                    for (uint256 j = i; j < buyrateid.length - 1; j++) {\n                        buyrateid[j] = buyrateid[j + 1];\n                    }\n                    buyrateid.pop();\n                } else if (newBuyOrderBook[idOfBuyRate].amount < a) {\n                    bToken.transfer(\n                        newBuyOrderBook[idOfBuyRate].maker,\n                        newBuyOrderBook[idOfBuyRate].amount\n                    );\n                    aToken.transfer(\n                        msg.sender,\n                        newBuyOrderBook[idOfBuyRate].amount * maxBuyRate\n                    );\n                    // emit BTokensSent( address(this), newBuyOrderBook[idOfBuyRate].maker, newBuyOrderBook[idOfBuyRate].amount);\n                    // emit ATokensSent( address(this), msg.sender,newBuyOrderBook[idOfBuyRate].amount * maxBuyRate);\n                    delete newBuyOrderBook[idOfBuyRate];\n                    for (uint256 j = i; j < buyrateid.length - 1; j++) {\n                        buyrateid[j] = buyrateid[j + 1];\n                    }\n                    buyrateid.pop();\n                    _btoaBook(rate, b - newBuyOrderBook[idOfBuyRate].amount);\n                }\n                break;\n            }\n        }\n\n        if (b > 0 && toAdd) {\n            _btoaBook(rate, b);\n        }\n    }\n    function btoaInverseRate(uint256 a, uint256 b) external override nonReentrant {\n        require(bToken.balanceOf(msg.sender) >= b);\n        amountbuy.push(b);\n        amountbuy.push(a);\n        bToken.transferFrom(msg.sender, address(this), b);\n        // emit BTokensSent(msg.sender, address(this),b);\n\n        uint256 rate = b / a;\n        bool toAdd = true;\n\n        for (uint256 i = 0; i < buyrateid.length; i++) {\n            idOfBuyRate = buyrateid[i];\n            maxBuyRate = newBuyOrderBook[idOfBuyRate].rate;\n\n            if (rate <= maxBuyRate && maxBuyRate > 0) {\n                toAdd = false;\n                if (newBuyOrderBook[idOfBuyRate].amount > a) {\n                    amountbuy.push(newBuyOrderBook[idOfBuyRate].amount);\n                    amountbuy.push(b);\n                    uint256 newAmount = newBuyOrderBook[idOfBuyRate].amount - a;\n                    newBuyOrderBook[idOfBuyRate].amount = newAmount; //replace old amount with new\n                    amountbuy.push(newBuyOrderBook[idOfBuyRate].amount);\n                    // transfer\n                    bToken.transfer(newBuyOrderBook[idOfBuyRate].maker, b);\n                    aToken.transfer(msg.sender, b * maxBuyRate);\n\n                    // emit BTokensSent( address(this), newBuyOrderBook[idOfBuyRate].maker,b);\n                    // emit ATokensSent( address(this), msg.sender,b * maxBuyRate);\n\n                } else if (newBuyOrderBook[idOfBuyRate].amount == a) {\n                    // transfer\n                    bToken.transfer(newBuyOrderBook[idOfBuyRate].maker, b);\n                    aToken.transfer(msg.sender, b * maxBuyRate);\n\n                    // emit BTokensSent( address(this), newBuyOrderBook[idOfBuyRate].maker,b);\n                    // emit ATokensSent( address(this), msg.sender,b * maxBuyRate);\n                    // update the minSellRate\n                    delete newBuyOrderBook[idOfBuyRate];\n                    for (uint256 j = i; j < buyrateid.length - 1; j++) {\n                        buyrateid[j] = buyrateid[j + 1];\n                    }\n                    buyrateid.pop();\n                } else if (newBuyOrderBook[idOfBuyRate].amount < a) {\n                    bToken.transfer(\n                        newBuyOrderBook[idOfBuyRate].maker,\n                        newBuyOrderBook[idOfBuyRate].amount\n                    );\n                    aToken.transfer(\n                        msg.sender,\n                        newBuyOrderBook[idOfBuyRate].amount * maxBuyRate\n                    );\n                    // emit BTokensSent( address(this), newBuyOrderBook[idOfBuyRate].maker, newBuyOrderBook[idOfBuyRate].amount);\n                    // emit ATokensSent( address(this), msg.sender,newBuyOrderBook[idOfBuyRate].amount * maxBuyRate);\n\n                    delete newBuyOrderBook[idOfBuyRate];\n                    for (uint256 j = i; j < buyrateid.length - 1; j++) {\n                        buyrateid[j] = buyrateid[j + 1];\n                    }\n                    buyrateid.pop();\n                    _btoaBook(rate, b - newBuyOrderBook[idOfBuyRate].amount);\n                }\n                break;\n            }\n        }\n\n        if (b > 0 && toAdd) {\n            _btoaBook(rate, b);\n        }\n    }\n\n    function _btoaBook(uint256 rate, uint256 b) internal {\n        require(rate > 0);\n        sellCounter += 1;\n        sellrateid.push(sellCounter);\n\n        newSellOrderBook[sellCounter] = NewOrder(msg.sender, b, rate);\n        // // emit DrawToSellBook(msg.sender, rate, amountSold);\n    }\n\n    function deleteBuyOrders() public {\n        for (uint256 i = 0; i < buyrateid.length; i++) {\n            uint256 key = buyrateid[i];\n            if (msg.sender == newBuyOrderBook[key].maker) {\n                aToken.transfer(msg.sender, newBuyOrderBook[key].amount);\n                delete newBuyOrderBook[key];\n                for (uint256 j = i; j < buyrateid.length - 1; j++) {\n                    buyrateid[j] = buyrateid[j + 1];\n                }\n                buyrateid.pop();\n                i--;\n            }\n        }\n    }\n\n    function deleteSellOrders() public {\n        for (uint256 i = 0; i < sellrateid.length; i++) {\n            uint256 key = sellrateid[i];\n            if (msg.sender == newSellOrderBook[key].maker) {\n                bToken.transfer(msg.sender, newSellOrderBook[key].amount);\n                delete newSellOrderBook[key];\n                for (uint256 j = i; j < sellrateid.length - 1; j++) {\n                    sellrateid[j] = sellrateid[j + 1];\n                }\n                sellrateid.pop();\n                i--;\n            }\n        }\n    }\n\n  \n}\n",
  "sourcePath": "/Users/yiheng/Documents/NTU/Y4S2/CZ4153 Blockchain/crypto_exchange/Blockchain-DEX/src/contracts/TokenSwap.sol",
  "compiler": {
    "name": "solc",
    "version": "0.6.8+commit.0bbfe453.Emscripten.clang"
  },
  "schemaVersion": "3.4.10",
  "updatedAt": "2022-11-04T07:53:07.450Z",
  "networkType": "ethereum",
  "devdoc": {
    "methods": {}
  },
  "userdoc": {
    "methods": {}
  }
}