{
  "contractName": "TokenSwap",
  "abi": [
    {
      "inputs": [
        {
          "internalType": "contract AToken",
          "name": "_aToken",
          "type": "address"
        },
        {
          "internalType": "contract BToken",
          "name": "_bToken",
          "type": "address"
        }
      ],
      "stateMutability": "nonpayable",
      "type": "constructor"
    },
    {
      "anonymous": false,
      "inputs": [
        {
          "indexed": false,
          "internalType": "address",
          "name": "accountSent",
          "type": "address"
        },
        {
          "indexed": false,
          "internalType": "address",
          "name": "accountReceived",
          "type": "address"
        },
        {
          "indexed": false,
          "internalType": "uint256",
          "name": "amount",
          "type": "uint256"
        }
      ],
      "name": "ATokensSent",
      "type": "event"
    },
    {
      "anonymous": false,
      "inputs": [
        {
          "indexed": false,
          "internalType": "address",
          "name": "account",
          "type": "address"
        },
        {
          "indexed": false,
          "internalType": "address",
          "name": "token",
          "type": "address"
        },
        {
          "indexed": false,
          "internalType": "uint256",
          "name": "amount",
          "type": "uint256"
        },
        {
          "indexed": false,
          "internalType": "uint256",
          "name": "rate",
          "type": "uint256"
        }
      ],
      "name": "BTokensPurchased",
      "type": "event"
    },
    {
      "anonymous": false,
      "inputs": [
        {
          "indexed": false,
          "internalType": "address",
          "name": "accountSent",
          "type": "address"
        },
        {
          "indexed": false,
          "internalType": "address",
          "name": "accountReceived",
          "type": "address"
        },
        {
          "indexed": false,
          "internalType": "uint256",
          "name": "amount",
          "type": "uint256"
        }
      ],
      "name": "BTokensSent",
      "type": "event"
    },
    {
      "anonymous": false,
      "inputs": [
        {
          "indexed": false,
          "internalType": "address",
          "name": "account",
          "type": "address"
        },
        {
          "indexed": false,
          "internalType": "address",
          "name": "token",
          "type": "address"
        },
        {
          "indexed": false,
          "internalType": "uint256",
          "name": "amount",
          "type": "uint256"
        },
        {
          "indexed": false,
          "internalType": "uint256",
          "name": "rate",
          "type": "uint256"
        }
      ],
      "name": "BTokensSold",
      "type": "event"
    },
    {
      "anonymous": false,
      "inputs": [
        {
          "indexed": false,
          "internalType": "address",
          "name": "account",
          "type": "address"
        },
        {
          "indexed": false,
          "internalType": "address",
          "name": "token",
          "type": "address"
        },
        {
          "indexed": false,
          "internalType": "uint256",
          "name": "amount",
          "type": "uint256"
        },
        {
          "indexed": false,
          "internalType": "uint256",
          "name": "rate",
          "type": "uint256"
        }
      ],
      "name": "TokensPurchased",
      "type": "event"
    },
    {
      "anonymous": false,
      "inputs": [
        {
          "indexed": false,
          "internalType": "address",
          "name": "account",
          "type": "address"
        },
        {
          "indexed": false,
          "internalType": "address",
          "name": "token",
          "type": "address"
        },
        {
          "indexed": false,
          "internalType": "uint256",
          "name": "amount",
          "type": "uint256"
        },
        {
          "indexed": false,
          "internalType": "uint256",
          "name": "rate",
          "type": "uint256"
        }
      ],
      "name": "TokensSold",
      "type": "event"
    },
    {
      "inputs": [],
      "name": "aToken",
      "outputs": [
        {
          "internalType": "contract AToken",
          "name": "",
          "type": "address"
        }
      ],
      "stateMutability": "view",
      "type": "function"
    },
    {
      "inputs": [
        {
          "internalType": "uint256",
          "name": "",
          "type": "uint256"
        }
      ],
      "name": "amountbuy",
      "outputs": [
        {
          "internalType": "uint256",
          "name": "",
          "type": "uint256"
        }
      ],
      "stateMutability": "view",
      "type": "function"
    },
    {
      "inputs": [
        {
          "internalType": "uint256",
          "name": "",
          "type": "uint256"
        }
      ],
      "name": "amountsell",
      "outputs": [
        {
          "internalType": "uint256",
          "name": "",
          "type": "uint256"
        }
      ],
      "stateMutability": "view",
      "type": "function"
    },
    {
      "inputs": [],
      "name": "bToken",
      "outputs": [
        {
          "internalType": "contract BToken",
          "name": "",
          "type": "address"
        }
      ],
      "stateMutability": "view",
      "type": "function"
    },
    {
      "inputs": [],
      "name": "buyCounter",
      "outputs": [
        {
          "internalType": "uint256",
          "name": "",
          "type": "uint256"
        }
      ],
      "stateMutability": "view",
      "type": "function"
    },
    {
      "inputs": [],
      "name": "buyCounterInv",
      "outputs": [
        {
          "internalType": "uint256",
          "name": "",
          "type": "uint256"
        }
      ],
      "stateMutability": "view",
      "type": "function"
    },
    {
      "inputs": [
        {
          "internalType": "uint256",
          "name": "",
          "type": "uint256"
        }
      ],
      "name": "buyrateid",
      "outputs": [
        {
          "internalType": "uint256",
          "name": "",
          "type": "uint256"
        }
      ],
      "stateMutability": "view",
      "type": "function"
    },
    {
      "inputs": [
        {
          "internalType": "uint256",
          "name": "",
          "type": "uint256"
        }
      ],
      "name": "buyrateidInv",
      "outputs": [
        {
          "internalType": "uint256",
          "name": "",
          "type": "uint256"
        }
      ],
      "stateMutability": "view",
      "type": "function"
    },
    {
      "inputs": [],
      "name": "idOfBuyRate",
      "outputs": [
        {
          "internalType": "uint256",
          "name": "",
          "type": "uint256"
        }
      ],
      "stateMutability": "view",
      "type": "function"
    },
    {
      "inputs": [],
      "name": "idOfBuyRateInv",
      "outputs": [
        {
          "internalType": "uint256",
          "name": "",
          "type": "uint256"
        }
      ],
      "stateMutability": "view",
      "type": "function"
    },
    {
      "inputs": [],
      "name": "idOfSellRate",
      "outputs": [
        {
          "internalType": "uint256",
          "name": "",
          "type": "uint256"
        }
      ],
      "stateMutability": "view",
      "type": "function"
    },
    {
      "inputs": [],
      "name": "idOfSellRateInv",
      "outputs": [
        {
          "internalType": "uint256",
          "name": "",
          "type": "uint256"
        }
      ],
      "stateMutability": "view",
      "type": "function"
    },
    {
      "inputs": [],
      "name": "maxBuyRate",
      "outputs": [
        {
          "internalType": "uint256",
          "name": "",
          "type": "uint256"
        }
      ],
      "stateMutability": "view",
      "type": "function"
    },
    {
      "inputs": [],
      "name": "maxSellRate",
      "outputs": [
        {
          "internalType": "uint256",
          "name": "",
          "type": "uint256"
        }
      ],
      "stateMutability": "view",
      "type": "function"
    },
    {
      "inputs": [],
      "name": "minBuyRate",
      "outputs": [
        {
          "internalType": "uint256",
          "name": "",
          "type": "uint256"
        }
      ],
      "stateMutability": "view",
      "type": "function"
    },
    {
      "inputs": [],
      "name": "minSellRate",
      "outputs": [
        {
          "internalType": "uint256",
          "name": "",
          "type": "uint256"
        }
      ],
      "stateMutability": "view",
      "type": "function"
    },
    {
      "inputs": [],
      "name": "name",
      "outputs": [
        {
          "internalType": "string",
          "name": "",
          "type": "string"
        }
      ],
      "stateMutability": "view",
      "type": "function"
    },
    {
      "inputs": [
        {
          "internalType": "uint256",
          "name": "",
          "type": "uint256"
        }
      ],
      "name": "newBuyOrderBook",
      "outputs": [
        {
          "internalType": "address",
          "name": "maker",
          "type": "address"
        },
        {
          "internalType": "uint256",
          "name": "amount",
          "type": "uint256"
        },
        {
          "internalType": "uint256",
          "name": "rate",
          "type": "uint256"
        }
      ],
      "stateMutability": "view",
      "type": "function"
    },
    {
      "inputs": [
        {
          "internalType": "uint256",
          "name": "",
          "type": "uint256"
        }
      ],
      "name": "newBuyOrderBookInv",
      "outputs": [
        {
          "internalType": "address",
          "name": "maker",
          "type": "address"
        },
        {
          "internalType": "uint256",
          "name": "amount",
          "type": "uint256"
        },
        {
          "internalType": "uint256",
          "name": "rate",
          "type": "uint256"
        }
      ],
      "stateMutability": "view",
      "type": "function"
    },
    {
      "inputs": [
        {
          "internalType": "uint256",
          "name": "",
          "type": "uint256"
        }
      ],
      "name": "newSellOrderBook",
      "outputs": [
        {
          "internalType": "address",
          "name": "maker",
          "type": "address"
        },
        {
          "internalType": "uint256",
          "name": "amount",
          "type": "uint256"
        },
        {
          "internalType": "uint256",
          "name": "rate",
          "type": "uint256"
        }
      ],
      "stateMutability": "view",
      "type": "function"
    },
    {
      "inputs": [
        {
          "internalType": "uint256",
          "name": "",
          "type": "uint256"
        }
      ],
      "name": "newSellOrderBookInv",
      "outputs": [
        {
          "internalType": "address",
          "name": "maker",
          "type": "address"
        },
        {
          "internalType": "uint256",
          "name": "amount",
          "type": "uint256"
        },
        {
          "internalType": "uint256",
          "name": "rate",
          "type": "uint256"
        }
      ],
      "stateMutability": "view",
      "type": "function"
    },
    {
      "inputs": [],
      "name": "sellCounter",
      "outputs": [
        {
          "internalType": "uint256",
          "name": "",
          "type": "uint256"
        }
      ],
      "stateMutability": "view",
      "type": "function"
    },
    {
      "inputs": [],
      "name": "sellCounterInv",
      "outputs": [
        {
          "internalType": "uint256",
          "name": "",
          "type": "uint256"
        }
      ],
      "stateMutability": "view",
      "type": "function"
    },
    {
      "inputs": [
        {
          "internalType": "uint256",
          "name": "",
          "type": "uint256"
        }
      ],
      "name": "sellrateid",
      "outputs": [
        {
          "internalType": "uint256",
          "name": "",
          "type": "uint256"
        }
      ],
      "stateMutability": "view",
      "type": "function"
    },
    {
      "inputs": [
        {
          "internalType": "uint256",
          "name": "",
          "type": "uint256"
        }
      ],
      "name": "sellrateidInv",
      "outputs": [
        {
          "internalType": "uint256",
          "name": "",
          "type": "uint256"
        }
      ],
      "stateMutability": "view",
      "type": "function"
    },
    {
      "inputs": [],
      "name": "getbuyrate",
      "outputs": [
        {
          "internalType": "uint256[]",
          "name": "",
          "type": "uint256[]"
        }
      ],
      "stateMutability": "nonpayable",
      "type": "function"
    },
    {
      "inputs": [],
      "name": "getsellrate",
      "outputs": [
        {
          "internalType": "uint256[]",
          "name": "",
          "type": "uint256[]"
        }
      ],
      "stateMutability": "nonpayable",
      "type": "function"
    },
    {
      "inputs": [],
      "name": "getbuyrateInv",
      "outputs": [
        {
          "internalType": "uint256[]",
          "name": "",
          "type": "uint256[]"
        }
      ],
      "stateMutability": "nonpayable",
      "type": "function"
    },
    {
      "inputs": [],
      "name": "getsellrateInv",
      "outputs": [
        {
          "internalType": "uint256[]",
          "name": "",
          "type": "uint256[]"
        }
      ],
      "stateMutability": "nonpayable",
      "type": "function"
    },
    {
      "inputs": [
        {
          "internalType": "uint256",
          "name": "b",
          "type": "uint256"
        },
        {
          "internalType": "uint256",
          "name": "a",
          "type": "uint256"
        }
      ],
      "name": "atob",
      "outputs": [],
      "stateMutability": "nonpayable",
      "type": "function"
    },
    {
      "inputs": [
        {
          "internalType": "uint256",
          "name": "b",
          "type": "uint256"
        },
        {
          "internalType": "uint256",
          "name": "a",
          "type": "uint256"
        }
      ],
      "name": "atobb",
      "outputs": [],
      "stateMutability": "nonpayable",
      "type": "function"
    },
    {
      "inputs": [
        {
          "internalType": "uint256",
          "name": "a",
          "type": "uint256"
        },
        {
          "internalType": "uint256",
          "name": "b",
          "type": "uint256"
        }
      ],
      "name": "btoa",
      "outputs": [],
      "stateMutability": "nonpayable",
      "type": "function"
    },
    {
      "inputs": [],
      "name": "deleteBuyOrders",
      "outputs": [],
      "stateMutability": "nonpayable",
      "type": "function"
    },
    {
      "inputs": [],
      "name": "deleteSellOrders",
      "outputs": [],
      "stateMutability": "nonpayable",
      "type": "function"
    },
    {
      "inputs": [
        {
          "internalType": "address",
          "name": "account",
          "type": "address"
        }
      ],
      "name": "getBuyOrderBook",
      "outputs": [
        {
          "internalType": "uint256[]",
          "name": "",
          "type": "uint256[]"
        }
      ],
      "stateMutability": "nonpayable",
      "type": "function"
    },
    {
      "inputs": [
        {
          "internalType": "address",
          "name": "account",
          "type": "address"
        }
      ],
      "name": "getSellOrderBook",
      "outputs": [
        {
          "internalType": "uint256[]",
          "name": "",
          "type": "uint256[]"
        }
      ],
      "stateMutability": "nonpayable",
      "type": "function"
    }
  ],
  "bytecode": "0x60806040526040518060400160405280601281526020017f546f6b656e537761702045786368616e67650000000000000000000000000000815250600190805190602001906200005192919062000146565b5060006004556000600855600060165560006019553480156200007357600080fd5b506040516200636338038062006363833981810160405260408110156200009957600080fd5b810190808051906020019092919080519060200190929190505050600160008190555081600260006101000a81548173ffffffffffffffffffffffffffffffffffffffff021916908373ffffffffffffffffffffffffffffffffffffffff16021790555080600360006101000a81548173ffffffffffffffffffffffffffffffffffffffff021916908373ffffffffffffffffffffffffffffffffffffffff1602179055505050620001f5565b828054600181600116156101000203166002900490600052602060002090601f016020900481019282601f106200018957805160ff1916838001178555620001ba565b82800160010185558215620001ba579182015b82811115620001b95782518255916020019190600101906200019c565b5b509050620001c99190620001cd565b5090565b620001f291905b80821115620001ee576000816000905550600101620001d4565b5090565b90565b61615e80620002056000396000f3fe608060405234801561001057600080fd5b506004361061021c5760003560e01c80638544a5ec11610125578063cdc4ec40116100ad578063dd7f4e401161007c578063dd7f4e4014610a84578063de72158614610ac6578063df85924714610ae4578063ec4763b614610b26578063f32b137b14610b685761021c565b8063cdc4ec4014610977578063cddfa2a4146109af578063d6bd0ca6146109cd578063dcb8e106146109eb5761021c565b8063a4d0047d116100f4578063a4d0047d14610825578063b2bb39ef14610843578063c86f6639146108bf578063c907290c146108dd578063c98ceaf4146108fb5761021c565b80638544a5ec1461077b57806391ceedbf146107b35780639237b46c146107d1578063a0c1f15e146107db5761021c565b80634fb01c79116101a8578063618346411161017757806361834641146105bb5780636bc69a24146105c55780636e94422c1461064157806376a4202e146106a05780638447eee6146106e25761021c565b80634fb01c79146104de57806350e3d808146104fc578063540cecb31461055b5780635632993b1461059d5761021c565b80632373ce13116101ef5780632373ce131461036b57806323ad2248146103ca578063307a429d1461044657806333f393ee146104885780633edec69a146104c05761021c565b806306fdde031461022157806310fea546146102a457806317aabc5514610303578063180f584214610321575b600080fd5b610229610b86565b6040518080602001828103825283818151815260200191508051906020019080838360005b8381101561026957808201518184015260208101905061024e565b50505050905090810190601f1680156102965780820380516001836020036101000a031916815260200191505b509250505060405180910390f35b6102ac610c24565b6040518080602001828103825283818151815260200191508051906020019060200280838360005b838110156102ef5780820151818401526020810190506102d4565b505050509050019250505060405180910390f35b61030b610c7c565b6040518082815260200191505060405180910390f35b610329610c82565b604051808273ffffffffffffffffffffffffffffffffffffffff1673ffffffffffffffffffffffffffffffffffffffff16815260200191505060405180910390f35b610373610ca8565b6040518080602001828103825283818151815260200191508051906020019060200280838360005b838110156103b657808201518184015260208101905061039b565b505050509050019250505060405180910390f35b6103f6600480360360208110156103e057600080fd5b8101908080359060200190929190505050610d00565b604051808473ffffffffffffffffffffffffffffffffffffffff1673ffffffffffffffffffffffffffffffffffffffff168152602001838152602001828152602001935050505060405180910390f35b6104726004803603602081101561045c57600080fd5b8101908080359060200190929190505050610d4a565b6040518082815260200191505060405180910390f35b6104be6004803603604081101561049e57600080fd5b810190808035906020019092919080359060200190929190505050610d6b565b005b6104c86122dd565b6040518082815260200191505060405180910390f35b6104e66122e3565b6040518082815260200191505060405180910390f35b6105046122e9565b6040518080602001828103825283818151815260200191508051906020019060200280838360005b8381101561054757808201518184015260208101905061052c565b505050509050019250505060405180910390f35b6105876004803603602081101561057157600080fd5b8101908080359060200190929190505050612341565b6040518082815260200191505060405180910390f35b6105a5612362565b6040518082815260200191505060405180910390f35b6105c3612368565b005b6105f1600480360360208110156105db57600080fd5b8101908080359060200190929190505050612854565b604051808473ffffffffffffffffffffffffffffffffffffffff1673ffffffffffffffffffffffffffffffffffffffff168152602001838152602001828152602001935050505060405180910390f35b61064961289e565b6040518080602001828103825283818151815260200191508051906020019060200280838360005b8381101561068c578082015181840152602081019050610671565b505050509050019250505060405180910390f35b6106cc600480360360208110156106b657600080fd5b81019080803590602001909291905050506128f6565b6040518082815260200191505060405180910390f35b610724600480360360208110156106f857600080fd5b81019080803573ffffffffffffffffffffffffffffffffffffffff169060200190929190505050612917565b6040518080602001828103825283818151815260200191508051906020019060200280838360005b8381101561076757808201518184015260208101905061074c565b505050509050019250505060405180910390f35b6107b16004803603604081101561079157600080fd5b810190808035906020019092919080359060200190929190505050612bd6565b005b6107bb6140d9565b6040518082815260200191505060405180910390f35b6107d96140df565b005b6107e36145cb565b604051808273ffffffffffffffffffffffffffffffffffffffff1673ffffffffffffffffffffffffffffffffffffffff16815260200191505060405180910390f35b61082d6145f1565b6040518082815260200191505060405180910390f35b61086f6004803603602081101561085957600080fd5b81019080803590602001909291905050506145f7565b604051808473ffffffffffffffffffffffffffffffffffffffff1673ffffffffffffffffffffffffffffffffffffffff168152602001838152602001828152602001935050505060405180910390f35b6108c7614641565b6040518082815260200191505060405180910390f35b6108e5614647565b6040518082815260200191505060405180910390f35b6109276004803603602081101561091157600080fd5b810190808035906020019092919050505061464d565b604051808473ffffffffffffffffffffffffffffffffffffffff1673ffffffffffffffffffffffffffffffffffffffff168152602001838152602001828152602001935050505060405180910390f35b6109ad6004803603604081101561098d57600080fd5b810190808035906020019092919080359060200190929190505050614697565b005b6109b7615b9a565b6040518082815260200191505060405180910390f35b6109d5615ba0565b6040518082815260200191505060405180910390f35b610a2d60048036036020811015610a0157600080fd5b81019080803573ffffffffffffffffffffffffffffffffffffffff169060200190929190505050615ba6565b6040518080602001828103825283818151815260200191508051906020019060200280838360005b83811015610a70578082015181840152602081019050610a55565b505050509050019250505060405180910390f35b610ab060048036036020811015610a9a57600080fd5b8101908080359060200190929190505050615e65565b6040518082815260200191505060405180910390f35b610ace615e86565b6040518082815260200191505060405180910390f35b610b1060048036036020811015610afa57600080fd5b8101908080359060200190929190505050615e8c565b6040518082815260200191505060405180910390f35b610b5260048036036020811015610b3c57600080fd5b8101908080359060200190929190505050615ead565b6040518082815260200191505060405180910390f35b610b70615ece565b6040518082815260200191505060405180910390f35b60018054600181600116156101000203166002900480601f016020809104026020016040519081016040528092919081815260200182805460018160011615610100020316600290048015610c1c5780601f10610bf157610100808354040283529160200191610c1c565b820191906000526020600020905b815481529060010190602001808311610bff57829003601f168201915b505050505081565b60606013805480602002602001604051908101604052809291908181526020018280548015610c7257602002820191906000526020600020905b815481526020019060010190808311610c5e575b5050505050905090565b60145481565b600360009054906101000a900473ffffffffffffffffffffffffffffffffffffffff1681565b60606012805480602002602001604051908101604052809291908181526020018280548015610cf657602002820191906000526020600020905b815481526020019060010190808311610ce2575b5050505050905090565b601a6020528060005260406000206000915090508060000160009054906101000a900473ffffffffffffffffffffffffffffffffffffffff16908060010154908060020154905083565b60138181548110610d5757fe5b906000526020600020016000915090505481565b60026000541415610de4576040517f08c379a000000000000000000000000000000000000000000000000000000000815260040180806020018281038252601f8152602001807f5265656e7472616e637947756172643a207265656e7472616e742063616c6c0081525060200191505060405180910390fd5b600260008190555080600360009054906101000a900473ffffffffffffffffffffffffffffffffffffffff1673ffffffffffffffffffffffffffffffffffffffff166370a08231336040518263ffffffff1660e01b8152600401808273ffffffffffffffffffffffffffffffffffffffff1673ffffffffffffffffffffffffffffffffffffffff16815260200191505060206040518083038186803b158015610e8c57600080fd5b505afa158015610ea0573d6000803e3d6000fd5b505050506040513d6020811015610eb657600080fd5b81019080805190602001909291905050501015610ed257600080fd5b600f819080600181540180825580915050600190039060005260206000200160009091909190915055600f829080600181540180825580915050600190039060005260206000200160009091909190915055600360009054906101000a900473ffffffffffffffffffffffffffffffffffffffff1673ffffffffffffffffffffffffffffffffffffffff166323b872dd3330846040518463ffffffff1660e01b8152600401808473ffffffffffffffffffffffffffffffffffffffff1673ffffffffffffffffffffffffffffffffffffffff1681526020018373ffffffffffffffffffffffffffffffffffffffff1673ffffffffffffffffffffffffffffffffffffffff1681526020018281526020019350505050602060405180830381600087803b15801561100157600080fd5b505af1158015611015573d6000803e3d6000fd5b505050506040513d602081101561102b57600080fd5b810190808051906020019092919050505050600081838161104857fe5b04905060006001905060008090505b600d805490508110156122b157600d818154811061107157fe5b906000526020600020015460078190555060066000600754815260200190815260200160002060020154600b81905550600b5483111580156110b557506000600b54115b156122a457600091508460066000600754815260200190815260200160002060010154111561193157600060066000600754815260200190815260200160002060020154600660006007548152602001908152602001600020600101548161111957fe5b0490508481101561140557600360009054906101000a900473ffffffffffffffffffffffffffffffffffffffff1673ffffffffffffffffffffffffffffffffffffffff1663a9059cbb60066000600754815260200190815260200160002060000160009054906101000a900473ffffffffffffffffffffffffffffffffffffffff16836040518363ffffffff1660e01b8152600401808373ffffffffffffffffffffffffffffffffffffffff1673ffffffffffffffffffffffffffffffffffffffff16815260200182815260200192505050602060405180830381600087803b15801561120557600080fd5b505af1158015611219573d6000803e3d6000fd5b505050506040513d602081101561122f57600080fd5b810190808051906020019092919050505050600260009054906101000a900473ffffffffffffffffffffffffffffffffffffffff1673ffffffffffffffffffffffffffffffffffffffff1663a9059cbb33600b5484026040518363ffffffff1660e01b8152600401808373ffffffffffffffffffffffffffffffffffffffff1673ffffffffffffffffffffffffffffffffffffffff16815260200182815260200192505050602060405180830381600087803b1580156112ee57600080fd5b505af1158015611302573d6000803e3d6000fd5b505050506040513d602081101561131857600080fd5b810190808051906020019092919050505050600660006007548152602001908152602001600020600080820160006101000a81549073ffffffffffffffffffffffffffffffffffffffff021916905560018201600090556002820160009055505060008290505b6001600d80549050038110156113d257600d600182018154811061139f57fe5b9060005260206000200154600d82815481106113b757fe5b9060005260206000200181905550808060010191505061137f565b50600d8054806113de57fe5b6001900381819060005260206000200160009055905561140084828703615ed4565b61192b565b8481111561165957600360009054906101000a900473ffffffffffffffffffffffffffffffffffffffff1673ffffffffffffffffffffffffffffffffffffffff1663a9059cbb60066000600754815260200190815260200160002060000160009054906101000a900473ffffffffffffffffffffffffffffffffffffffff16876040518363ffffffff1660e01b8152600401808373ffffffffffffffffffffffffffffffffffffffff1673ffffffffffffffffffffffffffffffffffffffff16815260200182815260200192505050602060405180830381600087803b1580156114ee57600080fd5b505af1158015611502573d6000803e3d6000fd5b505050506040513d602081101561151857600080fd5b810190808051906020019092919050505050600260009054906101000a900473ffffffffffffffffffffffffffffffffffffffff1673ffffffffffffffffffffffffffffffffffffffff1663a9059cbb33600b5488026040518363ffffffff1660e01b8152600401808373ffffffffffffffffffffffffffffffffffffffff1673ffffffffffffffffffffffffffffffffffffffff16815260200182815260200192505050602060405180830381600087803b1580156115d757600080fd5b505af11580156115eb573d6000803e3d6000fd5b505050506040513d602081101561160157600080fd5b8101908080519060200190929190505050506000600b5486026006600060075481526020019081526020016000206001015403905080600660006007548152602001908152602001600020600101819055505061192a565b600360009054906101000a900473ffffffffffffffffffffffffffffffffffffffff1673ffffffffffffffffffffffffffffffffffffffff1663a9059cbb60066000600754815260200190815260200160002060000160009054906101000a900473ffffffffffffffffffffffffffffffffffffffff16876040518363ffffffff1660e01b8152600401808373ffffffffffffffffffffffffffffffffffffffff1673ffffffffffffffffffffffffffffffffffffffff16815260200182815260200192505050602060405180830381600087803b15801561173a57600080fd5b505af115801561174e573d6000803e3d6000fd5b505050506040513d602081101561176457600080fd5b810190808051906020019092919050505050600260009054906101000a900473ffffffffffffffffffffffffffffffffffffffff1673ffffffffffffffffffffffffffffffffffffffff1663a9059cbb33600b5488026040518363ffffffff1660e01b8152600401808373ffffffffffffffffffffffffffffffffffffffff1673ffffffffffffffffffffffffffffffffffffffff16815260200182815260200192505050602060405180830381600087803b15801561182357600080fd5b505af1158015611837573d6000803e3d6000fd5b505050506040513d602081101561184d57600080fd5b810190808051906020019092919050505050600660006007548152602001908152602001600020600080820160006101000a81549073ffffffffffffffffffffffffffffffffffffffff021916905560018201600090556002820160009055505060008290505b6001600d805490500381101561190757600d60018201815481106118d457fe5b9060005260206000200154600d82815481106118ec57fe5b906000526020600020018190555080806001019150506118b4565b50600d80548061191357fe5b600190038181906000526020600020016000905590555b5b5061229f565b84600660006007548152602001908152602001600020600101541415611f5857600060066000600754815260200190815260200160002060020154600660006007548152602001908152602001600020600101548161198c57fe5b04905084811015611c7857600360009054906101000a900473ffffffffffffffffffffffffffffffffffffffff1673ffffffffffffffffffffffffffffffffffffffff1663a9059cbb60066000600754815260200190815260200160002060000160009054906101000a900473ffffffffffffffffffffffffffffffffffffffff16836040518363ffffffff1660e01b8152600401808373ffffffffffffffffffffffffffffffffffffffff1673ffffffffffffffffffffffffffffffffffffffff16815260200182815260200192505050602060405180830381600087803b158015611a7857600080fd5b505af1158015611a8c573d6000803e3d6000fd5b505050506040513d6020811015611aa257600080fd5b810190808051906020019092919050505050600260009054906101000a900473ffffffffffffffffffffffffffffffffffffffff1673ffffffffffffffffffffffffffffffffffffffff1663a9059cbb33600b5484026040518363ffffffff1660e01b8152600401808373ffffffffffffffffffffffffffffffffffffffff1673ffffffffffffffffffffffffffffffffffffffff16815260200182815260200192505050602060405180830381600087803b158015611b6157600080fd5b505af1158015611b75573d6000803e3d6000fd5b505050506040513d6020811015611b8b57600080fd5b810190808051906020019092919050505050611ba984828703615ed4565b600660006007548152602001908152602001600020600080820160006101000a81549073ffffffffffffffffffffffffffffffffffffffff021916905560018201600090556002820160009055505060008290505b6001600d8054905003811015611c5157600d6001820181548110611c1e57fe5b9060005260206000200154600d8281548110611c3657fe5b90600052602060002001819055508080600101915050611bfe565b50600d805480611c5d57fe5b60019003818190600052602060002001600090559055611f52565b80851415611f5157600360009054906101000a900473ffffffffffffffffffffffffffffffffffffffff1673ffffffffffffffffffffffffffffffffffffffff1663a9059cbb60066000600754815260200190815260200160002060000160009054906101000a900473ffffffffffffffffffffffffffffffffffffffff16876040518363ffffffff1660e01b8152600401808373ffffffffffffffffffffffffffffffffffffffff1673ffffffffffffffffffffffffffffffffffffffff16815260200182815260200192505050602060405180830381600087803b158015611d6157600080fd5b505af1158015611d75573d6000803e3d6000fd5b505050506040513d6020811015611d8b57600080fd5b810190808051906020019092919050505050600260009054906101000a900473ffffffffffffffffffffffffffffffffffffffff1673ffffffffffffffffffffffffffffffffffffffff1663a9059cbb33600b5488026040518363ffffffff1660e01b8152600401808373ffffffffffffffffffffffffffffffffffffffff1673ffffffffffffffffffffffffffffffffffffffff16815260200182815260200192505050602060405180830381600087803b158015611e4a57600080fd5b505af1158015611e5e573d6000803e3d6000fd5b505050506040513d6020811015611e7457600080fd5b810190808051906020019092919050505050600660006007548152602001908152602001600020600080820160006101000a81549073ffffffffffffffffffffffffffffffffffffffff021916905560018201600090556002820160009055505060008290505b6001600d8054905003811015611f2e57600d6001820181548110611efb57fe5b9060005260206000200154600d8281548110611f1357fe5b90600052602060002001819055508080600101915050611edb565b50600d805480611f3a57fe5b600190038181906000526020600020016000905590555b5b5061229e565b8460066000600754815260200190815260200160002060010154101561229d576000600660006007548152602001908152602001600020600201546006600060075481526020019081526020016000206001015481611fb357fe5b0490508481101561229b57600360009054906101000a900473ffffffffffffffffffffffffffffffffffffffff1673ffffffffffffffffffffffffffffffffffffffff1663a9059cbb60066000600754815260200190815260200160002060000160009054906101000a900473ffffffffffffffffffffffffffffffffffffffff16836040518363ffffffff1660e01b8152600401808373ffffffffffffffffffffffffffffffffffffffff1673ffffffffffffffffffffffffffffffffffffffff16815260200182815260200192505050602060405180830381600087803b15801561209f57600080fd5b505af11580156120b3573d6000803e3d6000fd5b505050506040513d60208110156120c957600080fd5b810190808051906020019092919050505050600260009054906101000a900473ffffffffffffffffffffffffffffffffffffffff1673ffffffffffffffffffffffffffffffffffffffff1663a9059cbb33600b5484026040518363ffffffff1660e01b8152600401808373ffffffffffffffffffffffffffffffffffffffff1673ffffffffffffffffffffffffffffffffffffffff16815260200182815260200192505050602060405180830381600087803b15801561218857600080fd5b505af115801561219c573d6000803e3d6000fd5b505050506040513d60208110156121b257600080fd5b8101908080519060200190929190505050506121d084828703615ed4565b600660006007548152602001908152602001600020600080820160006101000a81549073ffffffffffffffffffffffffffffffffffffffff021916905560018201600090556002820160009055505060008290505b6001600d805490500381101561227857600d600182018154811061224557fe5b9060005260206000200154600d828154811061225d57fe5b90600052602060002001819055508080600101915050612225565b50600d80548061228457fe5b600190038181906000526020600020016000905590555b505b5b5b6122b1565b8080600101915050611057565b506000831180156122bf5750805b156122cf576122ce8284615ed4565b5b505060016000819055505050565b60055481565b60165481565b6060600c80548060200260200160405190810160405280929190818152602001828054801561233757602002820191906000526020600020905b815481526020019060010190808311612323575b5050505050905090565b600e818154811061234e57fe5b906000526020600020016000915090505481565b600a5481565b60008090505b600d805490508110156125dc576000600d828154811061238a57fe5b906000526020600020015490506006600082815260200190815260200160002060000160009054906101000a900473ffffffffffffffffffffffffffffffffffffffff1673ffffffffffffffffffffffffffffffffffffffff163373ffffffffffffffffffffffffffffffffffffffff1614156125ce57600260009054906101000a900473ffffffffffffffffffffffffffffffffffffffff1673ffffffffffffffffffffffffffffffffffffffff1663a9059cbb3360066000858152602001908152602001600020600101546040518363ffffffff1660e01b8152600401808373ffffffffffffffffffffffffffffffffffffffff1673ffffffffffffffffffffffffffffffffffffffff16815260200182815260200192505050602060405180830381600087803b1580156124c057600080fd5b505af11580156124d4573d6000803e3d6000fd5b505050506040513d60208110156124ea57600080fd5b81019080805190602001909291905050505060066000828152602001908152602001600020600080820160006101000a81549073ffffffffffffffffffffffffffffffffffffffff021916905560018201600090556002820160009055505060008290505b6001600d80549050038110156125a257600d600182018154811061256f57fe5b9060005260206000200154600d828154811061258757fe5b9060005260206000200181905550808060010191505061254f565b50600d8054806125ae57fe5b600190038181906000526020600020016000905590558180600190039250505b50808060010191505061236e565b5060008090505b601380549050811015612851576000601382815481106125ff57fe5b906000526020600020015490506018600082815260200190815260200160002060000160009054906101000a900473ffffffffffffffffffffffffffffffffffffffff1673ffffffffffffffffffffffffffffffffffffffff163373ffffffffffffffffffffffffffffffffffffffff16141561284357600260009054906101000a900473ffffffffffffffffffffffffffffffffffffffff1673ffffffffffffffffffffffffffffffffffffffff1663a9059cbb3360186000858152602001908152602001600020600101546040518363ffffffff1660e01b8152600401808373ffffffffffffffffffffffffffffffffffffffff1673ffffffffffffffffffffffffffffffffffffffff16815260200182815260200192505050602060405180830381600087803b15801561273557600080fd5b505af1158015612749573d6000803e3d6000fd5b505050506040513d602081101561275f57600080fd5b81019080805190602001909291905050505060186000828152602001908152602001600020600080820160006101000a81549073ffffffffffffffffffffffffffffffffffffffff021916905560018201600090556002820160009055505060008290505b60016013805490500381101561281757601360018201815481106127e457fe5b9060005260206000200154601382815481106127fc57fe5b906000526020600020018190555080806001019150506127c4565b50601380548061282357fe5b600190038181906000526020600020016000905590558180600190039250505b5080806001019150506125e3565b50565b60096020528060005260406000206000915090508060000160009054906101000a900473ffffffffffffffffffffffffffffffffffffffff16908060010154908060020154905083565b6060600d8054806020026020016040519081016040528092919081815260200182805480156128ec57602002820191906000526020600020905b8154815260200190600101908083116128d8575b5050505050905090565b600f818154811061290357fe5b906000526020600020016000915090505481565b6060600067ffffffffffffffff8111801561293157600080fd5b506040519080825280602002602001820160405280156129605781602001602082028036833780820191505090505b50601190805190602001906129769291906160b6565b5060008090505b600c80549050811015612a76576000600c828154811061299957fe5b906000526020600020015490506009600082815260200190815260200160002060000160009054906101000a900473ffffffffffffffffffffffffffffffffffffffff1673ffffffffffffffffffffffffffffffffffffffff168473ffffffffffffffffffffffffffffffffffffffff161415612a68576011600960008381526020019081526020016000206002015460096000848152602001908152602001600020600101540290806001815401808255809150506001900390600052602060002001600090919091909150555b50808060010191505061297d565b5060008090505b601280549050811015612b7d57600060128281548110612a9957fe5b90600052602060002001549050601a600082815260200190815260200160002060000160009054906101000a900473ffffffffffffffffffffffffffffffffffffffff1673ffffffffffffffffffffffffffffffffffffffff168473ffffffffffffffffffffffffffffffffffffffff161415612b6f576011601a600083815260200190815260200160002060020154601a60008481526020019081526020016000206001015481612b4757fe5b0490806001815401808255809150506001900390600052602060002001600090919091909150555b508080600101915050612a7d565b506011805480602002602001604051908101604052809291908181526020018280548015612bca57602002820191906000526020600020905b815481526020019060010190808311612bb6575b50505050509050919050565b60026000541415612c4f576040517f08c379a000000000000000000000000000000000000000000000000000000000815260040180806020018281038252601f8152602001807f5265656e7472616e637947756172643a207265656e7472616e742063616c6c0081525060200191505060405180910390fd5b600260008190555080600260009054906101000a900473ffffffffffffffffffffffffffffffffffffffff1673ffffffffffffffffffffffffffffffffffffffff166370a08231336040518263ffffffff1660e01b8152600401808273ffffffffffffffffffffffffffffffffffffffff1673ffffffffffffffffffffffffffffffffffffffff16815260200191505060206040518083038186803b158015612cf757600080fd5b505afa158015612d0b573d6000803e3d6000fd5b505050506040513d6020811015612d2157600080fd5b81019080805190602001909291905050501015612d3d57600080fd5b600260009054906101000a900473ffffffffffffffffffffffffffffffffffffffff1673ffffffffffffffffffffffffffffffffffffffff166323b872dd3330846040518463ffffffff1660e01b8152600401808473ffffffffffffffffffffffffffffffffffffffff1673ffffffffffffffffffffffffffffffffffffffff1681526020018373ffffffffffffffffffffffffffffffffffffffff1673ffffffffffffffffffffffffffffffffffffffff1681526020018281526020019350505050602060405180830381600087803b158015612e1a57600080fd5b505af1158015612e2e573d6000803e3d6000fd5b505050506040513d6020811015612e4457600080fd5b8101908080519060200190929190505050506000828281612e6157fe5b04905060006001905060008090505b600c805490508110156140ad57600c8181548110612e8a57fe5b9060005260206000200154600a8190555060096000600a548152602001908152602001600020600201546005819055506005548310158015612ece57506000600554115b156140a057600091508460096000600a54815260200190815260200160002060010154111561375257600060055460096000600a548152602001908152602001600020600101540290508481101561320857600260009054906101000a900473ffffffffffffffffffffffffffffffffffffffff1673ffffffffffffffffffffffffffffffffffffffff1663a9059cbb60096000600a54815260200190815260200160002060000160009054906101000a900473ffffffffffffffffffffffffffffffffffffffff16836040518363ffffffff1660e01b8152600401808373ffffffffffffffffffffffffffffffffffffffff1673ffffffffffffffffffffffffffffffffffffffff16815260200182815260200192505050602060405180830381600087803b15801561300157600080fd5b505af1158015613015573d6000803e3d6000fd5b505050506040513d602081101561302b57600080fd5b810190808051906020019092919050505050600360009054906101000a900473ffffffffffffffffffffffffffffffffffffffff1673ffffffffffffffffffffffffffffffffffffffff1663a9059cbb33600554848161308757fe5b046040518363ffffffff1660e01b8152600401808373ffffffffffffffffffffffffffffffffffffffff1673ffffffffffffffffffffffffffffffffffffffff16815260200182815260200192505050602060405180830381600087803b1580156130f157600080fd5b505af1158015613105573d6000803e3d6000fd5b505050506040513d602081101561311b57600080fd5b81019080805190602001909291905050505061313984828703615fc5565b60096000600a548152602001908152602001600020600080820160006101000a81549073ffffffffffffffffffffffffffffffffffffffff021916905560018201600090556002820160009055505060008290505b6001600c80549050038110156131e157600c60018201815481106131ae57fe5b9060005260206000200154600c82815481106131c657fe5b9060005260206000200181905550808060010191505061318e565b50600c8054806131ed57fe5b6001900381819060005260206000200160009055905561374c565b8481111561346a57600260009054906101000a900473ffffffffffffffffffffffffffffffffffffffff1673ffffffffffffffffffffffffffffffffffffffff1663a9059cbb60096000600a54815260200190815260200160002060000160009054906101000a900473ffffffffffffffffffffffffffffffffffffffff16876040518363ffffffff1660e01b8152600401808373ffffffffffffffffffffffffffffffffffffffff1673ffffffffffffffffffffffffffffffffffffffff16815260200182815260200192505050602060405180830381600087803b1580156132f157600080fd5b505af1158015613305573d6000803e3d6000fd5b505050506040513d602081101561331b57600080fd5b810190808051906020019092919050505050600360009054906101000a900473ffffffffffffffffffffffffffffffffffffffff1673ffffffffffffffffffffffffffffffffffffffff1663a9059cbb33600554888161337757fe5b046040518363ffffffff1660e01b8152600401808373ffffffffffffffffffffffffffffffffffffffff1673ffffffffffffffffffffffffffffffffffffffff16815260200182815260200192505050602060405180830381600087803b1580156133e157600080fd5b505af11580156133f5573d6000803e3d6000fd5b505050506040513d602081101561340b57600080fd5b8101908080519060200190929190505050506000600554868161342a57fe5b0460096000600a548152602001908152602001600020600101540390508060096000600a548152602001908152602001600020600101819055505061374b565b8481141561374a57600260009054906101000a900473ffffffffffffffffffffffffffffffffffffffff1673ffffffffffffffffffffffffffffffffffffffff1663a9059cbb60096000600a54815260200190815260200160002060000160009054906101000a900473ffffffffffffffffffffffffffffffffffffffff16876040518363ffffffff1660e01b8152600401808373ffffffffffffffffffffffffffffffffffffffff1673ffffffffffffffffffffffffffffffffffffffff16815260200182815260200192505050602060405180830381600087803b15801561355357600080fd5b505af1158015613567573d6000803e3d6000fd5b505050506040513d602081101561357d57600080fd5b810190808051906020019092919050505050600360009054906101000a900473ffffffffffffffffffffffffffffffffffffffff1673ffffffffffffffffffffffffffffffffffffffff1663a9059cbb3360055488816135d957fe5b046040518363ffffffff1660e01b8152600401808373ffffffffffffffffffffffffffffffffffffffff1673ffffffffffffffffffffffffffffffffffffffff16815260200182815260200192505050602060405180830381600087803b15801561364357600080fd5b505af1158015613657573d6000803e3d6000fd5b505050506040513d602081101561366d57600080fd5b81019080805190602001909291905050505060096000600a548152602001908152602001600020600080820160006101000a81549073ffffffffffffffffffffffffffffffffffffffff021916905560018201600090556002820160009055505060008290505b6001600c805490500381101561372757600c60018201815481106136f457fe5b9060005260206000200154600c828154811061370c57fe5b906000526020600020018190555080806001019150506136d4565b50600c80548061373357fe5b600190038181906000526020600020016000905590555b5b5b5061409b565b8460096000600a548152602001908152602001600020600101541415613d6a57600060055460096000600a5481526020019081526020016000206001015402905084811015613a8357600260009054906101000a900473ffffffffffffffffffffffffffffffffffffffff1673ffffffffffffffffffffffffffffffffffffffff1663a9059cbb60096000600a54815260200190815260200160002060000160009054906101000a900473ffffffffffffffffffffffffffffffffffffffff16836040518363ffffffff1660e01b8152600401808373ffffffffffffffffffffffffffffffffffffffff1673ffffffffffffffffffffffffffffffffffffffff16815260200182815260200192505050602060405180830381600087803b15801561387c57600080fd5b505af1158015613890573d6000803e3d6000fd5b505050506040513d60208110156138a657600080fd5b810190808051906020019092919050505050600360009054906101000a900473ffffffffffffffffffffffffffffffffffffffff1673ffffffffffffffffffffffffffffffffffffffff1663a9059cbb33600554848161390257fe5b046040518363ffffffff1660e01b8152600401808373ffffffffffffffffffffffffffffffffffffffff1673ffffffffffffffffffffffffffffffffffffffff16815260200182815260200192505050602060405180830381600087803b15801561396c57600080fd5b505af1158015613980573d6000803e3d6000fd5b505050506040513d602081101561399657600080fd5b8101908080519060200190929190505050506139b484828703615fc5565b60096000600a548152602001908152602001600020600080820160006101000a81549073ffffffffffffffffffffffffffffffffffffffff021916905560018201600090556002820160009055505060008290505b6001600c8054905003811015613a5c57600c6001820181548110613a2957fe5b9060005260206000200154600c8281548110613a4157fe5b90600052602060002001819055508080600101915050613a09565b50600c805480613a6857fe5b60019003818190600052602060002001600090559055613d64565b84811415613d6357600260009054906101000a900473ffffffffffffffffffffffffffffffffffffffff1673ffffffffffffffffffffffffffffffffffffffff1663a9059cbb60096000600a54815260200190815260200160002060000160009054906101000a900473ffffffffffffffffffffffffffffffffffffffff16876040518363ffffffff1660e01b8152600401808373ffffffffffffffffffffffffffffffffffffffff1673ffffffffffffffffffffffffffffffffffffffff16815260200182815260200192505050602060405180830381600087803b158015613b6c57600080fd5b505af1158015613b80573d6000803e3d6000fd5b505050506040513d6020811015613b9657600080fd5b810190808051906020019092919050505050600360009054906101000a900473ffffffffffffffffffffffffffffffffffffffff1673ffffffffffffffffffffffffffffffffffffffff1663a9059cbb336005548881613bf257fe5b046040518363ffffffff1660e01b8152600401808373ffffffffffffffffffffffffffffffffffffffff1673ffffffffffffffffffffffffffffffffffffffff16815260200182815260200192505050602060405180830381600087803b158015613c5c57600080fd5b505af1158015613c70573d6000803e3d6000fd5b505050506040513d6020811015613c8657600080fd5b81019080805190602001909291905050505060096000600a548152602001908152602001600020600080820160006101000a81549073ffffffffffffffffffffffffffffffffffffffff021916905560018201600090556002820160009055505060008290505b6001600c8054905003811015613d4057600c6001820181548110613d0d57fe5b9060005260206000200154600c8281548110613d2557fe5b90600052602060002001819055508080600101915050613ced565b50600c805480613d4c57fe5b600190038181906000526020600020016000905590555b5b5061409a565b8460096000600a54815260200190815260200160002060010154101561409957600060055460096000600a548152602001908152602001600020600101540290508481101561409757600260009054906101000a900473ffffffffffffffffffffffffffffffffffffffff1673ffffffffffffffffffffffffffffffffffffffff1663a9059cbb60096000600a54815260200190815260200160002060000160009054906101000a900473ffffffffffffffffffffffffffffffffffffffff16836040518363ffffffff1660e01b8152600401808373ffffffffffffffffffffffffffffffffffffffff1673ffffffffffffffffffffffffffffffffffffffff16815260200182815260200192505050602060405180830381600087803b158015613e9457600080fd5b505af1158015613ea8573d6000803e3d6000fd5b505050506040513d6020811015613ebe57600080fd5b810190808051906020019092919050505050600360009054906101000a900473ffffffffffffffffffffffffffffffffffffffff1673ffffffffffffffffffffffffffffffffffffffff1663a9059cbb336005548481613f1a57fe5b046040518363ffffffff1660e01b8152600401808373ffffffffffffffffffffffffffffffffffffffff1673ffffffffffffffffffffffffffffffffffffffff16815260200182815260200192505050602060405180830381600087803b158015613f8457600080fd5b505af1158015613f98573d6000803e3d6000fd5b505050506040513d6020811015613fae57600080fd5b810190808051906020019092919050505050613fcc84828703615fc5565b60096000600a548152602001908152602001600020600080820160006101000a81549073ffffffffffffffffffffffffffffffffffffffff021916905560018201600090556002820160009055505060008290505b6001600c805490500381101561407457600c600182018154811061404157fe5b9060005260206000200154600c828154811061405957fe5b90600052602060002001819055508080600101915050614021565b50600c80548061408057fe5b600190038181906000526020600020016000905590555b505b5b5b6140ad565b8080600101915050612e70565b506000831180156140bb5750805b156140cb576140ca8284615fc5565b5b505060016000819055505050565b60045481565b60008090505b600c80549050811015614353576000600c828154811061410157fe5b906000526020600020015490506009600082815260200190815260200160002060000160009054906101000a900473ffffffffffffffffffffffffffffffffffffffff1673ffffffffffffffffffffffffffffffffffffffff163373ffffffffffffffffffffffffffffffffffffffff16141561434557600360009054906101000a900473ffffffffffffffffffffffffffffffffffffffff1673ffffffffffffffffffffffffffffffffffffffff1663a9059cbb3360096000858152602001908152602001600020600101546040518363ffffffff1660e01b8152600401808373ffffffffffffffffffffffffffffffffffffffff1673ffffffffffffffffffffffffffffffffffffffff16815260200182815260200192505050602060405180830381600087803b15801561423757600080fd5b505af115801561424b573d6000803e3d6000fd5b505050506040513d602081101561426157600080fd5b81019080805190602001909291905050505060096000828152602001908152602001600020600080820160006101000a81549073ffffffffffffffffffffffffffffffffffffffff021916905560018201600090556002820160009055505060008290505b6001600c805490500381101561431957600c60018201815481106142e657fe5b9060005260206000200154600c82815481106142fe57fe5b906000526020600020018190555080806001019150506142c6565b50600c80548061432557fe5b600190038181906000526020600020016000905590558180600190039250505b5080806001019150506140e5565b5060008090505b6012805490508110156145c85760006012828154811061437657fe5b90600052602060002001549050601a600082815260200190815260200160002060000160009054906101000a900473ffffffffffffffffffffffffffffffffffffffff1673ffffffffffffffffffffffffffffffffffffffff163373ffffffffffffffffffffffffffffffffffffffff1614156145ba57600360009054906101000a900473ffffffffffffffffffffffffffffffffffffffff1673ffffffffffffffffffffffffffffffffffffffff1663a9059cbb33601a6000858152602001908152602001600020600101546040518363ffffffff1660e01b8152600401808373ffffffffffffffffffffffffffffffffffffffff1673ffffffffffffffffffffffffffffffffffffffff16815260200182815260200192505050602060405180830381600087803b1580156144ac57600080fd5b505af11580156144c0573d6000803e3d6000fd5b505050506040513d60208110156144d657600080fd5b810190808051906020019092919050505050601a6000828152602001908152602001600020600080820160006101000a81549073ffffffffffffffffffffffffffffffffffffffff021916905560018201600090556002820160009055505060008290505b60016012805490500381101561458e576012600182018154811061455b57fe5b90600052602060002001546012828154811061457357fe5b9060005260206000200181905550808060010191505061453b565b50601280548061459a57fe5b600190038181906000526020600020016000905590558180600190039250505b50808060010191505061435a565b50565b600260009054906101000a900473ffffffffffffffffffffffffffffffffffffffff1681565b60085481565b60066020528060005260406000206000915090508060000160009054906101000a900473ffffffffffffffffffffffffffffffffffffffff16908060010154908060020154905083565b600b5481565b60155481565b60186020528060005260406000206000915090508060000160009054906101000a900473ffffffffffffffffffffffffffffffffffffffff16908060010154908060020154905083565b60026000541415614710576040517f08c379a000000000000000000000000000000000000000000000000000000000815260040180806020018281038252601f8152602001807f5265656e7472616e637947756172643a207265656e7472616e742063616c6c0081525060200191505060405180910390fd5b600260008190555080600260009054906101000a900473ffffffffffffffffffffffffffffffffffffffff1673ffffffffffffffffffffffffffffffffffffffff166370a08231336040518263ffffffff1660e01b8152600401808273ffffffffffffffffffffffffffffffffffffffff1673ffffffffffffffffffffffffffffffffffffffff16815260200191505060206040518083038186803b1580156147b857600080fd5b505afa1580156147cc573d6000803e3d6000fd5b505050506040513d60208110156147e257600080fd5b810190808051906020019092919050505010156147fe57600080fd5b600260009054906101000a900473ffffffffffffffffffffffffffffffffffffffff1673ffffffffffffffffffffffffffffffffffffffff166323b872dd3330846040518463ffffffff1660e01b8152600401808473ffffffffffffffffffffffffffffffffffffffff1673ffffffffffffffffffffffffffffffffffffffff1681526020018373ffffffffffffffffffffffffffffffffffffffff1673ffffffffffffffffffffffffffffffffffffffff1681526020018281526020019350505050602060405180830381600087803b1580156148db57600080fd5b505af11580156148ef573d6000803e3d6000fd5b505050506040513d602081101561490557600080fd5b810190808051906020019092919050505050600082828161492257fe5b04905060006001905060008090505b600c80549050811015615b6e57600c818154811061494b57fe5b9060005260206000200154600a8190555060096000600a54815260200190815260200160002060020154600581905550600554831015801561498f57506000600554115b15615b6157600091508460096000600a54815260200190815260200160002060010154111561521357600060055460096000600a5481526020019081526020016000206001015402905084811015614cc957600260009054906101000a900473ffffffffffffffffffffffffffffffffffffffff1673ffffffffffffffffffffffffffffffffffffffff1663a9059cbb60096000600a54815260200190815260200160002060000160009054906101000a900473ffffffffffffffffffffffffffffffffffffffff16836040518363ffffffff1660e01b8152600401808373ffffffffffffffffffffffffffffffffffffffff1673ffffffffffffffffffffffffffffffffffffffff16815260200182815260200192505050602060405180830381600087803b158015614ac257600080fd5b505af1158015614ad6573d6000803e3d6000fd5b505050506040513d6020811015614aec57600080fd5b810190808051906020019092919050505050600360009054906101000a900473ffffffffffffffffffffffffffffffffffffffff1673ffffffffffffffffffffffffffffffffffffffff1663a9059cbb336005548481614b4857fe5b046040518363ffffffff1660e01b8152600401808373ffffffffffffffffffffffffffffffffffffffff1673ffffffffffffffffffffffffffffffffffffffff16815260200182815260200192505050602060405180830381600087803b158015614bb257600080fd5b505af1158015614bc6573d6000803e3d6000fd5b505050506040513d6020811015614bdc57600080fd5b810190808051906020019092919050505050614bfa84828703615fc5565b60096000600a548152602001908152602001600020600080820160006101000a81549073ffffffffffffffffffffffffffffffffffffffff021916905560018201600090556002820160009055505060008290505b6001600c8054905003811015614ca257600c6001820181548110614c6f57fe5b9060005260206000200154600c8281548110614c8757fe5b90600052602060002001819055508080600101915050614c4f565b50600c805480614cae57fe5b6001900381819060005260206000200160009055905561520d565b84811115614f2b57600260009054906101000a900473ffffffffffffffffffffffffffffffffffffffff1673ffffffffffffffffffffffffffffffffffffffff1663a9059cbb60096000600a54815260200190815260200160002060000160009054906101000a900473ffffffffffffffffffffffffffffffffffffffff16876040518363ffffffff1660e01b8152600401808373ffffffffffffffffffffffffffffffffffffffff1673ffffffffffffffffffffffffffffffffffffffff16815260200182815260200192505050602060405180830381600087803b158015614db257600080fd5b505af1158015614dc6573d6000803e3d6000fd5b505050506040513d6020811015614ddc57600080fd5b810190808051906020019092919050505050600360009054906101000a900473ffffffffffffffffffffffffffffffffffffffff1673ffffffffffffffffffffffffffffffffffffffff1663a9059cbb336005548881614e3857fe5b046040518363ffffffff1660e01b8152600401808373ffffffffffffffffffffffffffffffffffffffff1673ffffffffffffffffffffffffffffffffffffffff16815260200182815260200192505050602060405180830381600087803b158015614ea257600080fd5b505af1158015614eb6573d6000803e3d6000fd5b505050506040513d6020811015614ecc57600080fd5b81019080805190602001909291905050505060006005548681614eeb57fe5b0460096000600a548152602001908152602001600020600101540390508060096000600a548152602001908152602001600020600101819055505061520c565b8481141561520b57600260009054906101000a900473ffffffffffffffffffffffffffffffffffffffff1673ffffffffffffffffffffffffffffffffffffffff1663a9059cbb60096000600a54815260200190815260200160002060000160009054906101000a900473ffffffffffffffffffffffffffffffffffffffff16876040518363ffffffff1660e01b8152600401808373ffffffffffffffffffffffffffffffffffffffff1673ffffffffffffffffffffffffffffffffffffffff16815260200182815260200192505050602060405180830381600087803b15801561501457600080fd5b505af1158015615028573d6000803e3d6000fd5b505050506040513d602081101561503e57600080fd5b810190808051906020019092919050505050600360009054906101000a900473ffffffffffffffffffffffffffffffffffffffff1673ffffffffffffffffffffffffffffffffffffffff1663a9059cbb33600554888161509a57fe5b046040518363ffffffff1660e01b8152600401808373ffffffffffffffffffffffffffffffffffffffff1673ffffffffffffffffffffffffffffffffffffffff16815260200182815260200192505050602060405180830381600087803b15801561510457600080fd5b505af1158015615118573d6000803e3d6000fd5b505050506040513d602081101561512e57600080fd5b81019080805190602001909291905050505060096000600a548152602001908152602001600020600080820160006101000a81549073ffffffffffffffffffffffffffffffffffffffff021916905560018201600090556002820160009055505060008290505b6001600c80549050038110156151e857600c60018201815481106151b557fe5b9060005260206000200154600c82815481106151cd57fe5b90600052602060002001819055508080600101915050615195565b50600c8054806151f457fe5b600190038181906000526020600020016000905590555b5b5b50615b5c565b8460096000600a54815260200190815260200160002060010154141561582b57600060055460096000600a548152602001908152602001600020600101540290508481101561554457600260009054906101000a900473ffffffffffffffffffffffffffffffffffffffff1673ffffffffffffffffffffffffffffffffffffffff1663a9059cbb60096000600a54815260200190815260200160002060000160009054906101000a900473ffffffffffffffffffffffffffffffffffffffff16836040518363ffffffff1660e01b8152600401808373ffffffffffffffffffffffffffffffffffffffff1673ffffffffffffffffffffffffffffffffffffffff16815260200182815260200192505050602060405180830381600087803b15801561533d57600080fd5b505af1158015615351573d6000803e3d6000fd5b505050506040513d602081101561536757600080fd5b810190808051906020019092919050505050600360009054906101000a900473ffffffffffffffffffffffffffffffffffffffff1673ffffffffffffffffffffffffffffffffffffffff1663a9059cbb3360055484816153c357fe5b046040518363ffffffff1660e01b8152600401808373ffffffffffffffffffffffffffffffffffffffff1673ffffffffffffffffffffffffffffffffffffffff16815260200182815260200192505050602060405180830381600087803b15801561542d57600080fd5b505af1158015615441573d6000803e3d6000fd5b505050506040513d602081101561545757600080fd5b81019080805190602001909291905050505061547584828703615fc5565b60096000600a548152602001908152602001600020600080820160006101000a81549073ffffffffffffffffffffffffffffffffffffffff021916905560018201600090556002820160009055505060008290505b6001600c805490500381101561551d57600c60018201815481106154ea57fe5b9060005260206000200154600c828154811061550257fe5b906000526020600020018190555080806001019150506154ca565b50600c80548061552957fe5b60019003818190600052602060002001600090559055615825565b8481141561582457600260009054906101000a900473ffffffffffffffffffffffffffffffffffffffff1673ffffffffffffffffffffffffffffffffffffffff1663a9059cbb60096000600a54815260200190815260200160002060000160009054906101000a900473ffffffffffffffffffffffffffffffffffffffff16876040518363ffffffff1660e01b8152600401808373ffffffffffffffffffffffffffffffffffffffff1673ffffffffffffffffffffffffffffffffffffffff16815260200182815260200192505050602060405180830381600087803b15801561562d57600080fd5b505af1158015615641573d6000803e3d6000fd5b505050506040513d602081101561565757600080fd5b810190808051906020019092919050505050600360009054906101000a900473ffffffffffffffffffffffffffffffffffffffff1673ffffffffffffffffffffffffffffffffffffffff1663a9059cbb3360055488816156b357fe5b046040518363ffffffff1660e01b8152600401808373ffffffffffffffffffffffffffffffffffffffff1673ffffffffffffffffffffffffffffffffffffffff16815260200182815260200192505050602060405180830381600087803b15801561571d57600080fd5b505af1158015615731573d6000803e3d6000fd5b505050506040513d602081101561574757600080fd5b81019080805190602001909291905050505060096000600a548152602001908152602001600020600080820160006101000a81549073ffffffffffffffffffffffffffffffffffffffff021916905560018201600090556002820160009055505060008290505b6001600c805490500381101561580157600c60018201815481106157ce57fe5b9060005260206000200154600c82815481106157e657fe5b906000526020600020018190555080806001019150506157ae565b50600c80548061580d57fe5b600190038181906000526020600020016000905590555b5b50615b5b565b8460096000600a548152602001908152602001600020600101541015615b5a57600060055460096000600a5481526020019081526020016000206001015402905084811015615b5857600260009054906101000a900473ffffffffffffffffffffffffffffffffffffffff1673ffffffffffffffffffffffffffffffffffffffff1663a9059cbb60096000600a54815260200190815260200160002060000160009054906101000a900473ffffffffffffffffffffffffffffffffffffffff16836040518363ffffffff1660e01b8152600401808373ffffffffffffffffffffffffffffffffffffffff1673ffffffffffffffffffffffffffffffffffffffff16815260200182815260200192505050602060405180830381600087803b15801561595557600080fd5b505af1158015615969573d6000803e3d6000fd5b505050506040513d602081101561597f57600080fd5b810190808051906020019092919050505050600360009054906101000a900473ffffffffffffffffffffffffffffffffffffffff1673ffffffffffffffffffffffffffffffffffffffff1663a9059cbb3360055484816159db57fe5b046040518363ffffffff1660e01b8152600401808373ffffffffffffffffffffffffffffffffffffffff1673ffffffffffffffffffffffffffffffffffffffff16815260200182815260200192505050602060405180830381600087803b158015615a4557600080fd5b505af1158015615a59573d6000803e3d6000fd5b505050506040513d6020811015615a6f57600080fd5b810190808051906020019092919050505050615a8d84828703615fc5565b60096000600a548152602001908152602001600020600080820160006101000a81549073ffffffffffffffffffffffffffffffffffffffff021916905560018201600090556002820160009055505060008290505b6001600c8054905003811015615b3557600c6001820181548110615b0257fe5b9060005260206000200154600c8281548110615b1a57fe5b90600052602060002001819055508080600101915050615ae2565b50600c805480615b4157fe5b600190038181906000526020600020016000905590555b505b5b5b615b6e565b8080600101915050614931565b50600083118015615b7c5750805b15615b8c57615b8b8284615fc5565b5b505060016000819055505050565b60075481565b60175481565b6060600067ffffffffffffffff81118015615bc057600080fd5b50604051908082528060200260200182016040528015615bef5781602001602082028036833780820191505090505b5060109080519060200190615c059291906160b6565b5060008090505b600d80549050811015615d0c576000600d8281548110615c2857fe5b906000526020600020015490506006600082815260200190815260200160002060000160009054906101000a900473ffffffffffffffffffffffffffffffffffffffff1673ffffffffffffffffffffffffffffffffffffffff168473ffffffffffffffffffffffffffffffffffffffff161415615cfe5760106006600083815260200190815260200160002060020154600660008481526020019081526020016000206001015481615cd657fe5b0490806001815401808255809150506001900390600052602060002001600090919091909150555b508080600101915050615c0c565b5060008090505b601380549050811015615e0c57600060138281548110615d2f57fe5b906000526020600020015490506018600082815260200190815260200160002060000160009054906101000a900473ffffffffffffffffffffffffffffffffffffffff1673ffffffffffffffffffffffffffffffffffffffff168473ffffffffffffffffffffffffffffffffffffffff161415615dfe576010601860008381526020019081526020016000206002015460186000848152602001908152602001600020600101540290806001815401808255809150506001900390600052602060002001600090919091909150555b508080600101915050615d13565b506010805480602002602001604051908101604052809291908181526020018280548015615e5957602002820191906000526020600020905b815481526020019060010190808311615e45575b50505050509050919050565b600d8181548110615e7257fe5b906000526020600020016000915090505481565b601b5481565b60128181548110615e9957fe5b906000526020600020016000915090505481565b600c8181548110615eba57fe5b906000526020600020016000915090505481565b60195481565b60008211615ee157600080fd5b6001600860008282540192505081905550600c600854908060018154018082558091505060019003906000526020600020016000909190919091505560405180606001604052803373ffffffffffffffffffffffffffffffffffffffff1681526020018281526020018381525060096000600854815260200190815260200160002060008201518160000160006101000a81548173ffffffffffffffffffffffffffffffffffffffff021916908373ffffffffffffffffffffffffffffffffffffffff16021790555060208201518160010155604082015181600201559050505050565b60008211615fd257600080fd5b6001600460008282540192505081905550600d600454908060018154018082558091505060019003906000526020600020016000909190919091505560405180606001604052803373ffffffffffffffffffffffffffffffffffffffff1681526020018281526020018381525060066000600454815260200190815260200160002060008201518160000160006101000a81548173ffffffffffffffffffffffffffffffffffffffff021916908373ffffffffffffffffffffffffffffffffffffffff16021790555060208201518160010155604082015181600201559050505050565b8280548282559060005260206000209081019282156160f2579160200282015b828111156160f15782518255916020019190600101906160d6565b5b5090506160ff9190616103565b5090565b61612591905b80821115616121576000816000905550600101616109565b5090565b9056fea264697066735822122032a8b3376145c6ca7b128fd5dd9e1531911307c7f895ba0054fdb0266b01f48e64736f6c63430006080033",
  "immutableReferences": {},
  "source": "// SPDX-License-Identifier: MIT\n\npragma solidity >=0.6.8;\n\nimport \"./AToken.sol\";\nimport \"./BToken.sol\";\nimport {ITokenSwap} from \"./interfaces/ITokenSwap.sol\";\nimport {ReentrancyGuard} from \"@openzeppelin/contracts/utils/ReentrancyGuard.sol\";\nimport {SafeMath} from \"@openzeppelin/contracts/math/SafeMath.sol\";\nimport {Math} from \"@openzeppelin/contracts/math/Math.sol\";\n\ncontract TokenSwap is ITokenSwap, ReentrancyGuard {\n    using SafeMath for uint256;\n    using SafeMath for uint8;\n    using Math for uint256;\n\n    string public name = \"TokenSwap Exchange\";\n    AToken public aToken;\n    // uint256 public aRate = 1000;\n    BToken public bToken;\n\n    // uint256 public bRate = 1000;\n\n    constructor(AToken _aToken, BToken _bToken) public {\n        //pass the address of the Token in\n        aToken = _aToken;\n        bToken = _bToken;\n    }\n\n    // function buyATokens() public payable {\n    //     // Calculate the number of tokens to buy\n    //     uint256 tokenAmount = msg.value * aRate; //msg.value = how much ether was sent\n\n    //     // Require that TokenSwap has enough tokens\n    //     require(aToken.balanceOf(address(this)) >= tokenAmount);\n\n    //     // Transfer tokens to the user\n    //     aToken.transfer(msg.sender, tokenAmount);\n\n    //     // // emit an event\n    //     // emit TokensPurchased(msg.sender, address(aToken), tokenAmount, aRate);\n    // }\n\n    // function sellATokens(uint256 _amount) public {\n    //     // User can't sell more tokens than they have\n    //     require(aToken.balanceOf(msg.sender) >= _amount);\n\n    //     // Calculate the amount of Ether to redeem\n    //     uint256 etherAmount = _amount / aRate;\n\n    //     // Require that TokenSwap has enough Ether\n    //     require(address(this).balance >= etherAmount);\n\n    //     // Perform sale\n    //     aToken.transferFrom(msg.sender, address(this), _amount);\n    //     msg.sender.transfer(etherAmount);\n\n    //     // // emit an event\n    //     // emit TokensSold(msg.sender, address(aToken), _amount, aRate);\n    // }\n\n    // function buyBTokens() public payable {\n    //     // Calculate the number of tokens to buy\n    //     uint256 tokenAmount = msg.value * bRate; //msg.value = how much ether was sent\n\n    //     // Require that TokenSwap has enough tokens\n    //     require(bToken.balanceOf(address(this)) >= tokenAmount);\n\n    //     // Transfer tokens to the user\n    //     bToken.transfer(msg.sender, tokenAmount);\n\n    //     // // emit an event\n    //     // emit TokensPurchased(msg.sender, address(bToken), tokenAmount, bRate);\n    // }\n\n    // function sellBTokens(uint256 _amount) public {\n    //     // User can't sell more tokens than they have\n    //     require(bToken.balanceOf(msg.sender) >= _amount);\n\n    //     // Calculate the amount of Ether to redeem\n    //     uint256 etherAmount = _amount / bRate;\n\n    //     // Require that TokenSwap has enough Ether\n    //     require(address(this).balance >= etherAmount);\n\n    //     // Perform sale\n    //     bToken.transferFrom(msg.sender, address(this), _amount);\n    //     msg.sender.transfer(etherAmount);\n\n    //     // // emit an event\n    //     // emit TokensSold(msg.sender, address(bToken), _amount, bRate);\n    // }\n\n    ///////////////////////////////////////////////////////////////////////// ORDERBOOK //////////////////////////////////////////////////////////////////////////////////////////\n\n    uint256 public buyCounter = 0;\n    uint256 public minSellRate;\n    mapping(uint256 => NewOrder) public newBuyOrderBook;\n    uint256 public idOfBuyRate;\n\n    uint256 public sellCounter = 0;\n    mapping(uint256 => NewOrder) public newSellOrderBook;\n    uint256 public idOfSellRate;\n    uint256 public maxBuyRate;\n\n    uint256[] public sellrateid;\n    uint256[] public buyrateid;\n\n    uint256[] public amountsell;\n    uint256[] public amountbuy;\n\n    uint256[] buyorderbookArray;\n    uint256[] sellorderbookArray;\n\n    ////////////////////////////////////\n    uint256[] public sellrateidInv;\n    uint256[] public buyrateidInv;\n\n    uint256 public idOfBuyRateInv;\n    uint256 public idOfSellRateInv;\n\n    uint256 public buyCounterInv = 0;\n    uint256 public maxSellRate;\n    mapping(uint256 => NewOrder) public newBuyOrderBookInv;\n\n    uint256 public sellCounterInv = 0;\n    mapping(uint256 => NewOrder) public newSellOrderBookInv;\n    uint256 public minBuyRate;\n\n    ////////////////////////////////////\n\n    function getbuyrate() public returns (uint256[] memory) {\n        return buyrateid;\n    }\n\n    function getsellrate() public returns (uint256[] memory) {\n        return sellrateid;\n    }\n\n    function getbuyrateInv() public returns (uint256[] memory) {\n        return buyrateidInv;\n    }\n\n    function getsellrateInv() public returns (uint256[] memory) {\n        return sellrateidInv;\n    }\n\n    //buy B using A\n    function atob(uint256 b, uint256 a) external override nonReentrant {\n        require(aToken.balanceOf(msg.sender) >= a);\n\n        aToken.transferFrom(msg.sender, address(this), a);\n        // emit ATokensSent(msg.sender, address(this),a);\n        uint256 rate = a / b;\n        bool toAdd = true;\n\n        for (uint256 i = 0; i < sellrateid.length; i++) {\n            idOfSellRate = sellrateid[i];\n            minSellRate = newSellOrderBook[idOfSellRate].rate;\n\n            if (rate >= minSellRate && minSellRate > 0) {\n                //give best order\n                toAdd = false;\n                if (newSellOrderBook[idOfSellRate].amount > b) {\n                    uint256 arequired = newSellOrderBook[idOfSellRate].amount *\n                        minSellRate;\n\n                    if (arequired < a) {\n                        aToken.transfer(\n                            newSellOrderBook[idOfSellRate].maker,\n                            arequired\n                        );\n                        bToken.transfer(msg.sender, arequired / minSellRate);\n\n                        _atobBook(rate, a - arequired);\n                        delete newSellOrderBook[idOfSellRate];\n                        for (uint256 j = i; j < sellrateid.length - 1; j++) {\n                            sellrateid[j] = sellrateid[j + 1];\n                        }\n                        sellrateid.pop();\n                    } else if (arequired > a) {\n                        aToken.transfer(\n                            newSellOrderBook[idOfSellRate].maker,\n                            a\n                        );\n                        bToken.transfer(msg.sender, a / minSellRate);\n                        uint256 newaamount = newSellOrderBook[idOfSellRate]\n                            .amount - a / minSellRate;\n                        newSellOrderBook[idOfSellRate].amount = newaamount;\n                    } else if (arequired == a) {\n                        aToken.transfer(\n                            newSellOrderBook[idOfSellRate].maker,\n                            a\n                        );\n                        bToken.transfer(msg.sender, a / minSellRate);\n                        delete newSellOrderBook[idOfSellRate];\n                        for (uint256 j = i; j < sellrateid.length - 1; j++) {\n                            sellrateid[j] = sellrateid[j + 1];\n                        }\n                        sellrateid.pop();\n                    }\n                } else if (newSellOrderBook[idOfSellRate].amount == b) {\n                    uint256 arequired = newSellOrderBook[idOfSellRate].amount *\n                        minSellRate;\n                    if (arequired < a) {\n                        aToken.transfer(\n                            newSellOrderBook[idOfSellRate].maker,\n                            arequired\n                        );\n                        bToken.transfer(msg.sender, arequired / minSellRate);\n\n                        _atobBook(rate, a - arequired);\n                        delete newSellOrderBook[idOfSellRate];\n                        for (uint256 j = i; j < sellrateid.length - 1; j++) {\n                            sellrateid[j] = sellrateid[j + 1];\n                        }\n                        sellrateid.pop();\n                    } else if (arequired == a) {\n                        aToken.transfer(\n                            newSellOrderBook[idOfSellRate].maker,\n                            a\n                        );\n                        bToken.transfer(msg.sender, a / minSellRate);\n                        delete newSellOrderBook[idOfSellRate];\n                        for (uint256 j = i; j < sellrateid.length - 1; j++) {\n                            sellrateid[j] = sellrateid[j + 1];\n                        }\n                        sellrateid.pop();\n                    }\n                } else if (newSellOrderBook[idOfSellRate].amount < b) {\n                    uint256 arequired = newSellOrderBook[idOfSellRate].amount *\n                        minSellRate;\n                    if (arequired < a) {\n                        aToken.transfer(\n                            newSellOrderBook[idOfSellRate].maker,\n                            arequired\n                        );\n                        bToken.transfer(msg.sender, arequired / minSellRate);\n\n                        _atobBook(rate, a - arequired);\n                        delete newSellOrderBook[idOfSellRate];\n                        for (uint256 j = i; j < sellrateid.length - 1; j++) {\n                            sellrateid[j] = sellrateid[j + 1];\n                        }\n                        sellrateid.pop();\n                    }\n                }\n                break;\n            }\n        }\n        if (a > 0 && toAdd) {\n            _atobBook(rate, a);\n        }\n    }\n\n    function atobb(uint256 b, uint256 a) external nonReentrant {\n        require(aToken.balanceOf(msg.sender) >= a);\n\n        aToken.transferFrom(msg.sender, address(this), a);\n        // emit ATokensSent(msg.sender, address(this),a);\n        uint256 rate = a / b;\n        bool toAdd = true;\n\n        for (uint256 i = 0; i < sellrateid.length; i++) {\n            idOfSellRate = sellrateid[i];\n            minSellRate = newSellOrderBook[idOfSellRate].rate;\n\n            if (rate >= minSellRate && minSellRate > 0) {\n                //give best order\n                toAdd = false;\n                if (newSellOrderBook[idOfSellRate].amount > b) {\n                    uint256 arequired = newSellOrderBook[idOfSellRate].amount *\n                        minSellRate;\n\n                    if (arequired < a) {\n                        aToken.transfer(\n                            newSellOrderBook[idOfSellRate].maker,\n                            arequired\n                        );\n                        bToken.transfer(msg.sender, arequired / minSellRate);\n\n                        _atobBook(rate, a - arequired);\n                        delete newSellOrderBook[idOfSellRate];\n                        for (uint256 j = i; j < sellrateid.length - 1; j++) {\n                            sellrateid[j] = sellrateid[j + 1];\n                        }\n                        sellrateid.pop();\n                    } else if (arequired > a) {\n                        aToken.transfer(\n                            newSellOrderBook[idOfSellRate].maker,\n                            a\n                        );\n                        bToken.transfer(msg.sender, a / minSellRate);\n                        uint256 newaamount = newSellOrderBook[idOfSellRate]\n                            .amount - a / minSellRate;\n                        newSellOrderBook[idOfSellRate].amount = newaamount;\n                    } else if (arequired == a) {\n                        aToken.transfer(\n                            newSellOrderBook[idOfSellRate].maker,\n                            a\n                        );\n                        bToken.transfer(msg.sender, a / minSellRate);\n                        delete newSellOrderBook[idOfSellRate];\n                        for (uint256 j = i; j < sellrateid.length - 1; j++) {\n                            sellrateid[j] = sellrateid[j + 1];\n                        }\n                        sellrateid.pop();\n                    }\n                } else if (newSellOrderBook[idOfSellRate].amount == b) {\n                    uint256 arequired = newSellOrderBook[idOfSellRate].amount *\n                        minSellRate;\n                    if (arequired < a) {\n                        aToken.transfer(\n                            newSellOrderBook[idOfSellRate].maker,\n                            arequired\n                        );\n                        bToken.transfer(msg.sender, arequired / minSellRate);\n\n                        _atobBook(rate, a - arequired);\n                        delete newSellOrderBook[idOfSellRate];\n                        for (uint256 j = i; j < sellrateid.length - 1; j++) {\n                            sellrateid[j] = sellrateid[j + 1];\n                        }\n                        sellrateid.pop();\n                    } else if (arequired == a) {\n                        aToken.transfer(\n                            newSellOrderBook[idOfSellRate].maker,\n                            a\n                        );\n                        bToken.transfer(msg.sender, a / minSellRate);\n                        delete newSellOrderBook[idOfSellRate];\n                        for (uint256 j = i; j < sellrateid.length - 1; j++) {\n                            sellrateid[j] = sellrateid[j + 1];\n                        }\n                        sellrateid.pop();\n                    }\n                } else if (newSellOrderBook[idOfSellRate].amount < b) {\n                    uint256 arequired = newSellOrderBook[idOfSellRate].amount *\n                        minSellRate;\n                    if (arequired < a) {\n                        aToken.transfer(\n                            newSellOrderBook[idOfSellRate].maker,\n                            arequired\n                        );\n                        bToken.transfer(msg.sender, arequired / minSellRate);\n\n                        _atobBook(rate, a - arequired);\n                        delete newSellOrderBook[idOfSellRate];\n                        for (uint256 j = i; j < sellrateid.length - 1; j++) {\n                            sellrateid[j] = sellrateid[j + 1];\n                        }\n                        sellrateid.pop();\n                    }\n                }\n                break;\n            }\n        }\n        if (a > 0 && toAdd) {\n            _atobBook(rate, a);\n        }\n    }\n\n    // function atobInverseRate(uint256 b, uint256 a)\n    //     external\n    //     override\n    //     nonReentrant\n    // {\n    //     require(aToken.balanceOf(msg.sender) >= a, \"hello error here atob\");\n\n    //     aToken.transferFrom(msg.sender, address(this), a);\n    //     // emit ATokensSent(msg.sender, address(this),a);\n\n    //     uint256 rate = b / a;\n    //     bool toAdd = true;\n\n    //     for (uint256 i = 0; i < sellrateidInv.length; i++) {\n    //         idOfSellRate = sellrateidInv[i];\n    //         maxSellRate = newSellOrderBookInv[idOfSellRate].rate;\n\n    //         if (rate >= maxSellRate && maxSellRate > 0) {\n    //             //give best order\n    //             toAdd = false;\n    //             if (newSellOrderBookInv[idOfSellRate].amount > b)\n    //                 uint256 newAmount = newSellOrderBookInv[idOfSellRate]\n    //                     .amount - b;\n    //             newSellOrderBookInv[idOfSellRate].amount = newAmount; //replace old amount with new\n    //             // transfer\n    //             aToken.transfer(newSellOrderBookInv[idOfSellRate].maker, a);\n    //             bToken.transfer(msg.sender, a * maxSellRate);\n    //             // emit ATokensSent( address(this), newSellOrderBookInv[idOfSellRate].maker, a);\n    //             // emit BTokensSent( address(this), msg.sender,a / maxSellRate);\n    //         } else if (newSellOrderBookInv[idOfSellRate].amount == b) {\n    //             // transfer\n    //             aToken.transfer(newSellOrderBookInv[idOfSellRate].maker, a);\n    //             bToken.transfer(msg.sender, a * maxSellRate);\n    //             // emit ATokensSent( address(this), newSellOrderBookInv[idOfSellRate].maker, a);\n    //             // emit BTokensSent( address(this), msg.sender,a / maxSellRate);\n\n    //             delete newSellOrderBookInv[idOfSellRate];\n    //             for (uint256 j = i; j < sellrateidInv.length - 1; j++) {\n    //                 sellrateidInv[j] = sellrateidInv[j + 1];\n    //             }\n    //             sellrateidInv.pop();\n    //         } else if (newSellOrderBookInv[idOfSellRate].amount < b) {\n    //             aToken.transfer(\n    //                 newSellOrderBookInv[idOfSellRate].maker,\n    //                 newSellOrderBookInv[idOfSellRate].amount\n    //             );\n    //             bToken.transfer(\n    //                 msg.sender,\n    //                 newSellOrderBookInv[idOfSellRate].amount * maxSellRate\n    //             );\n    //             // emit ATokensSent( address(this), newSellOrderBookInv[idOfSellRate].maker, newSellOrderBookInv[idOfSellRate].amount);\n    //             // emit BTokensSent( address(this), msg.sender,newSellOrderBookInv[idOfSellRate].amount / maxSellRate);\n\n    //             delete newSellOrderBookInv[idOfSellRate];\n    //             for (uint256 j = i; j < sellrateidInv.length - 1; j++) {\n    //                 sellrateidInv[j] = sellrateidInv[j + 1];\n    //             }\n    //             sellrateidInv.pop();\n    //             _atobBookInv(\n    //                 rate,\n    //                 a - newSellOrderBookInv[idOfSellRate].amount\n    //             );\n    //         }\n    //         break;\n    //     }\n\n    //     if (a > 0 && toAdd) {\n    //         _atobBookInv(rate, a);\n    //     }\n    // }\n\n    function _atobBook(uint256 rate, uint256 a) internal {\n        require(rate > 0);\n        buyCounter += 1;\n        buyrateid.push(buyCounter);\n        newBuyOrderBook[buyCounter] = NewOrder(msg.sender, a, rate);\n    }\n\n    function _atobBookInv(uint256 rate, uint256 a) internal {\n        require(rate > 0);\n        buyCounterInv += 1;\n        buyrateidInv.push(buyCounterInv);\n        newBuyOrderBookInv[buyCounterInv] = NewOrder(msg.sender, a, rate);\n    }\n\n    // buy A using b\n    function btoa(uint256 a, uint256 b) external override nonReentrant {\n        require(bToken.balanceOf(msg.sender) >= b);\n        amountbuy.push(b);\n        amountbuy.push(a);\n        bToken.transferFrom(msg.sender, address(this), b);\n        // emit BTokensSent(msg.sender, address(this),b);\n\n        uint256 rate = a / b;\n        bool toAdd = true;\n\n        for (uint256 i = 0; i < buyrateid.length; i++) {\n            idOfBuyRate = buyrateid[i];\n            maxBuyRate = newBuyOrderBook[idOfBuyRate].rate;\n            if (rate <= maxBuyRate && maxBuyRate > 0) {\n                toAdd = false;\n                if (newBuyOrderBook[idOfBuyRate].amount > a) {\n                    //calculate new b amount\n                    uint256 brequired = newBuyOrderBook[idOfBuyRate].amount /\n                        newBuyOrderBook[idOfBuyRate].rate;\n                    if (brequired < b) {\n                        bToken.transfer(\n                            newBuyOrderBook[idOfBuyRate].maker,\n                            brequired\n                        );\n                        aToken.transfer(msg.sender, brequired * maxBuyRate);\n                        delete newBuyOrderBook[idOfBuyRate];\n                        for (uint256 j = i; j < buyrateid.length - 1; j++) {\n                            buyrateid[j] = buyrateid[j + 1];\n                        }\n                        buyrateid.pop();\n                        _btoaBook(rate, b - brequired);\n                    } else if (brequired > b) {\n                        bToken.transfer(newBuyOrderBook[idOfBuyRate].maker, b);\n                        aToken.transfer(msg.sender, b * maxBuyRate);\n                        //calculate new a amount\n                        uint256 newAmount = newBuyOrderBook[idOfBuyRate]\n                            .amount - b * maxBuyRate;\n                        newBuyOrderBook[idOfBuyRate].amount = newAmount; //replace old amount with new\n                    } else {\n                        bToken.transfer(newBuyOrderBook[idOfBuyRate].maker, b);\n                        aToken.transfer(msg.sender, b * maxBuyRate);\n\n                        delete newBuyOrderBook[idOfBuyRate];\n                        for (uint256 j = i; j < buyrateid.length - 1; j++) {\n                            buyrateid[j] = buyrateid[j + 1];\n                        }\n                        buyrateid.pop();\n                    }\n                } else if (newBuyOrderBook[idOfBuyRate].amount == a) {\n                    uint256 brequired = newBuyOrderBook[idOfBuyRate].amount /\n                        newBuyOrderBook[idOfBuyRate].rate;\n\n                    if (brequired < b) {\n                        bToken.transfer(\n                            newBuyOrderBook[idOfBuyRate].maker,\n                            brequired\n                        );\n                        aToken.transfer(msg.sender, brequired * maxBuyRate);\n                        _btoaBook(rate, b - brequired);\n                        delete newBuyOrderBook[idOfBuyRate];\n                        for (uint256 j = i; j < buyrateid.length - 1; j++) {\n                            buyrateid[j] = buyrateid[j + 1];\n                        }\n                        buyrateid.pop();\n                    } else if (b == brequired) {\n                        bToken.transfer(newBuyOrderBook[idOfBuyRate].maker, b);\n                        aToken.transfer(msg.sender, b * maxBuyRate);\n\n                        delete newBuyOrderBook[idOfBuyRate];\n                        for (uint256 j = i; j < buyrateid.length - 1; j++) {\n                            buyrateid[j] = buyrateid[j + 1];\n                        }\n                        buyrateid.pop();\n                    }\n                } else if (newBuyOrderBook[idOfBuyRate].amount < a) {\n                    uint256 brequired = newBuyOrderBook[idOfBuyRate].amount /\n                        newBuyOrderBook[idOfBuyRate].rate;\n\n                    if (brequired < b) {\n                        bToken.transfer(\n                            newBuyOrderBook[idOfBuyRate].maker,\n                            brequired\n                        );\n                        aToken.transfer(msg.sender, brequired * maxBuyRate);\n                        _btoaBook(rate, b - brequired);\n                        delete newBuyOrderBook[idOfBuyRate];\n                        for (uint256 j = i; j < buyrateid.length - 1; j++) {\n                            buyrateid[j] = buyrateid[j + 1];\n                        }\n                        buyrateid.pop();\n                    }\n                }\n                break;\n            }\n        }\n\n        if (b > 0 && toAdd) {\n            _btoaBook(rate, b);\n        }\n    }\n\n    // function btoaInverseRate(uint256 a, uint256 b)\n    //     external\n    //     override\n    //     nonReentrant\n    // {\n    //     require(bToken.balanceOf(msg.sender) >= b);\n    //     amountbuy.push(b);\n    //     amountbuy.push(a);\n    //     bToken.transferFrom(msg.sender, address(this), b);\n    //     // emit BTokensSent(msg.sender, address(this),b);\n\n    //     uint256 rate = b / a;\n    //     bool toAdd = true;\n\n    //     for (uint256 i = 0; i < buyrateidInv.length; i++) {\n    //         idOfBuyRate = buyrateidInv[i];\n    //         minBuyRate = newBuyOrderBookInv[idOfBuyRate].rate;\n\n    //         if (rate <= minBuyRate && minBuyRate > 0) {\n    //             toAdd = false;\n    //             if (newBuyOrderBookInv[idOfBuyRate].amount > a) {\n    //                 amountbuy.push(newBuyOrderBookInv[idOfBuyRate].amount);\n    //                 amountbuy.push(b);\n    //                 uint256 newAmount = newBuyOrderBookInv[idOfBuyRate].amount -\n    //                     a;\n    //                 newBuyOrderBookInv[idOfBuyRate].amount = newAmount; //replace old amount with new\n    //                 amountbuy.push(newBuyOrderBookInv[idOfBuyRate].amount);\n    //                 // transfer\n    //                 bToken.transfer(newBuyOrderBookInv[idOfBuyRate].maker, b);\n    //                 aToken.transfer(msg.sender, b / minBuyRate);\n\n    //                 // emit BTokensSent( address(this), newBuyOrderBookInv[idOfBuyRate].maker,b);\n    //                 // emit ATokensSent( address(this), msg.sender,b * maxBuyRate);\n    //             } else if (newBuyOrderBookInv[idOfBuyRate].amount == a) {\n    //                 // transfer\n    //                 bToken.transfer(newBuyOrderBookInv[idOfBuyRate].maker, b);\n    //                 aToken.transfer(msg.sender, b / minBuyRate);\n\n    //                 // emit BTokensSent( address(this), newBuyOrderBookInv[idOfBuyRate].maker,b);\n    //                 // emit ATokensSent( address(this), msg.sender,b * maxBuyRate);\n    //                 // update the minSellRate\n    //                 delete newBuyOrderBookInv[idOfBuyRate];\n    //                 for (uint256 j = i; j < buyrateidInv.length - 1; j++) {\n    //                     buyrateidInv[j] = buyrateidInv[j + 1];\n    //                 }\n    //                 buyrateidInv.pop();\n    //             } else if (newBuyOrderBookInv[idOfBuyRate].amount < a) {\n    //                 bToken.transfer(\n    //                     newBuyOrderBookInv[idOfBuyRate].maker,\n    //                     newBuyOrderBookInv[idOfBuyRate].amount\n    //                 );\n    //                 aToken.transfer(\n    //                     msg.sender,\n    //                     newBuyOrderBookInv[idOfBuyRate].amount / minBuyRate\n    //                 );\n    //                 // emit BTokensSent( address(this), newBuyOrderBookInv[idOfBuyRate].maker, newBuyOrderBookInv[idOfBuyRate].amount);\n    //                 // emit ATokensSent( address(this), msg.sender,newBuyOrderBookInv[idOfBuyRate].amount * maxBuyRate);\n\n    //                 delete newBuyOrderBookInv[idOfBuyRate];\n    //                 for (uint256 j = i; j < buyrateidInv.length - 1; j++) {\n    //                     buyrateidInv[j] = buyrateidInv[j + 1];\n    //                 }\n    //                 buyrateidInv.pop();\n    //                 _btoaBookInv(rate, b);\n    //                 (rate, b - newBuyOrderBookInv[idOfBuyRate].amount);\n    //             }\n    //             break;\n    //         }\n    //     }\n\n    //     if (b > 0 && toAdd) {\n    //         _btoaBookInv(rate, b);\n    //     }\n    // }\n\n    function _btoaBookInv(uint256 rate, uint256 b) internal {\n        require(rate > 0);\n        sellCounterInv += 1;\n        sellrateidInv.push(sellCounterInv);\n        newSellOrderBookInv[sellCounterInv] = NewOrder(msg.sender, b, rate);\n        // // emit DrawToSellBook(msg.sender, rate, amountSold);\n    }\n\n    function _btoaBook(uint256 rate, uint256 b) internal {\n        require(rate > 0);\n        sellCounter += 1;\n        sellrateid.push(sellCounter);\n        newSellOrderBook[sellCounter] = NewOrder(msg.sender, b, rate);\n        // // emit DrawToSellBook(msg.sender, rate, amountSold);\n    }\n\n    ////////////////////////////////////////////////////////////////////////////////////////////// delete orders  ///////////////////////////////////////////////////////////////////////////////////////////////\n\n    function deleteBuyOrders() public {\n        for (uint256 i = 0; i < buyrateid.length; i++) {\n            uint256 key = buyrateid[i];\n            if (msg.sender == newBuyOrderBook[key].maker) {\n                aToken.transfer(msg.sender, newBuyOrderBook[key].amount);\n                delete newBuyOrderBook[key];\n                for (uint256 j = i; j < buyrateid.length - 1; j++) {\n                    buyrateid[j] = buyrateid[j + 1];\n                }\n                buyrateid.pop();\n                i--;\n            }\n        }\n\n        for (uint256 i = 0; i < buyrateidInv.length; i++) {\n            uint256 key = buyrateidInv[i];\n            if (msg.sender == newBuyOrderBookInv[key].maker) {\n                aToken.transfer(msg.sender, newBuyOrderBookInv[key].amount);\n                delete newBuyOrderBookInv[key];\n                for (uint256 j = i; j < buyrateidInv.length - 1; j++) {\n                    buyrateidInv[j] = buyrateidInv[j + 1];\n                }\n                buyrateidInv.pop();\n                i--;\n            }\n        }\n    }\n\n    function deleteSellOrders() public {\n        for (uint256 i = 0; i < sellrateid.length; i++) {\n            uint256 key = sellrateid[i];\n            if (msg.sender == newSellOrderBook[key].maker) {\n                bToken.transfer(msg.sender, newSellOrderBook[key].amount);\n                delete newSellOrderBook[key];\n                for (uint256 j = i; j < sellrateid.length - 1; j++) {\n                    sellrateid[j] = sellrateid[j + 1];\n                }\n                sellrateid.pop();\n                i--;\n            }\n        }\n\n        for (uint256 i = 0; i < sellrateidInv.length; i++) {\n            uint256 key = sellrateidInv[i];\n            if (msg.sender == newSellOrderBookInv[key].maker) {\n                bToken.transfer(msg.sender, newSellOrderBookInv[key].amount);\n                delete newSellOrderBookInv[key];\n                for (uint256 j = i; j < sellrateidInv.length - 1; j++) {\n                    sellrateidInv[j] = sellrateidInv[j + 1];\n                }\n                sellrateidInv.pop();\n                i--;\n            }\n        }\n    }\n\n    ////////////////////////////////////////////////////////////////////////////////////////////// display orderbooks ///////////////////////////////////////////////////////////////////////////////////////////////\n    function getBuyOrderBook(address account)\n        public\n        returns (uint256[] memory)\n    {\n        buyorderbookArray = new uint256[](0);\n        for (uint256 i = 0; i < buyrateid.length; i++) {\n            uint256 key = buyrateid[i];\n            if (account == newBuyOrderBook[key].maker) {\n                buyorderbookArray.push(\n                    newBuyOrderBook[key].amount / newBuyOrderBook[key].rate\n                );\n            }\n        }\n\n        for (uint256 j = 0; j < buyrateidInv.length; j++) {\n            uint256 key = buyrateidInv[j];\n            if (account == newBuyOrderBookInv[key].maker) {\n                buyorderbookArray.push(\n                    newBuyOrderBookInv[key].amount *\n                        newBuyOrderBookInv[key].rate\n                );\n            }\n        }\n\n        return buyorderbookArray;\n    }\n\n    function getSellOrderBook(address account)\n        public\n        returns (uint256[] memory)\n    {\n        sellorderbookArray = new uint256[](0);\n        for (uint256 i = 0; i < sellrateid.length; i++) {\n            uint256 key = sellrateid[i];\n            if (account == newSellOrderBook[key].maker) {\n                sellorderbookArray.push(\n                    newSellOrderBook[key].amount * newSellOrderBook[key].rate\n                );\n            }\n        }\n\n        for (uint256 i = 0; i < sellrateidInv.length; i++) {\n            uint256 key = sellrateidInv[i];\n            if (account == newSellOrderBookInv[key].maker) {\n                sellorderbookArray.push(\n                    newSellOrderBookInv[key].amount /\n                        newSellOrderBookInv[key].rate\n                );\n            }\n        }\n\n        return sellorderbookArray;\n    }\n}\n",
  "sourcePath": "/Users/weerenteo/Desktop/Dex/Blockchain-DEX/src/contracts/TokenSwap.sol",
  "compiler": {
    "name": "solc",
    "version": "0.6.8+commit.0bbfe453.Emscripten.clang"
  },
  "schemaVersion": "3.4.10",
  "updatedAt": "2022-11-05T12:33:21.509Z",
  "devdoc": {
    "methods": {}
  },
  "userdoc": {
    "methods": {
      "deleteBuyOrders()": {
        "notice": "/////////////////////////////////////////////////////////////////////////////////////////// delete orders  ///////////////////////////////////////////////////////////////////////////////////////////////"
      },
      "getBuyOrderBook(address)": {
        "notice": "/////////////////////////////////////////////////////////////////////////////////////////// display orderbooks ///////////////////////////////////////////////////////////////////////////////////////////////"
      },
      "getbuyrate()": {
        "notice": "/////////////////////////////////"
      }
    }
  }
}