{
  "contractName": "TokenSwap",
  "abi": [
    {
      "inputs": [
        {
          "internalType": "contract AToken",
          "name": "_aToken",
          "type": "address"
        },
        {
          "internalType": "contract BToken",
          "name": "_bToken",
          "type": "address"
        }
      ],
      "stateMutability": "nonpayable",
      "type": "constructor"
    },
    {
      "anonymous": false,
      "inputs": [
        {
          "indexed": false,
          "internalType": "address",
          "name": "accountSent",
          "type": "address"
        },
        {
          "indexed": false,
          "internalType": "address",
          "name": "accountReceived",
          "type": "address"
        },
        {
          "indexed": false,
          "internalType": "uint256",
          "name": "amount",
          "type": "uint256"
        }
      ],
      "name": "ATokensSent",
      "type": "event"
    },
    {
      "anonymous": false,
      "inputs": [
        {
          "indexed": false,
          "internalType": "address",
          "name": "account",
          "type": "address"
        },
        {
          "indexed": false,
          "internalType": "address",
          "name": "token",
          "type": "address"
        },
        {
          "indexed": false,
          "internalType": "uint256",
          "name": "amount",
          "type": "uint256"
        },
        {
          "indexed": false,
          "internalType": "uint256",
          "name": "rate",
          "type": "uint256"
        }
      ],
      "name": "BTokensPurchased",
      "type": "event"
    },
    {
      "anonymous": false,
      "inputs": [
        {
          "indexed": false,
          "internalType": "address",
          "name": "accountSent",
          "type": "address"
        },
        {
          "indexed": false,
          "internalType": "address",
          "name": "accountReceived",
          "type": "address"
        },
        {
          "indexed": false,
          "internalType": "uint256",
          "name": "amount",
          "type": "uint256"
        }
      ],
      "name": "BTokensSent",
      "type": "event"
    },
    {
      "anonymous": false,
      "inputs": [
        {
          "indexed": false,
          "internalType": "address",
          "name": "account",
          "type": "address"
        },
        {
          "indexed": false,
          "internalType": "address",
          "name": "token",
          "type": "address"
        },
        {
          "indexed": false,
          "internalType": "uint256",
          "name": "amount",
          "type": "uint256"
        },
        {
          "indexed": false,
          "internalType": "uint256",
          "name": "rate",
          "type": "uint256"
        }
      ],
      "name": "BTokensSold",
      "type": "event"
    },
    {
      "anonymous": false,
      "inputs": [
        {
          "indexed": false,
          "internalType": "address",
          "name": "account",
          "type": "address"
        },
        {
          "indexed": false,
          "internalType": "address",
          "name": "token",
          "type": "address"
        },
        {
          "indexed": false,
          "internalType": "uint256",
          "name": "amount",
          "type": "uint256"
        },
        {
          "indexed": false,
          "internalType": "uint256",
          "name": "rate",
          "type": "uint256"
        }
      ],
      "name": "TokensPurchased",
      "type": "event"
    },
    {
      "anonymous": false,
      "inputs": [
        {
          "indexed": false,
          "internalType": "address",
          "name": "account",
          "type": "address"
        },
        {
          "indexed": false,
          "internalType": "address",
          "name": "token",
          "type": "address"
        },
        {
          "indexed": false,
          "internalType": "uint256",
          "name": "amount",
          "type": "uint256"
        },
        {
          "indexed": false,
          "internalType": "uint256",
          "name": "rate",
          "type": "uint256"
        }
      ],
      "name": "TokensSold",
      "type": "event"
    },
    {
      "inputs": [],
      "name": "aRate",
      "outputs": [
        {
          "internalType": "uint256",
          "name": "",
          "type": "uint256"
        }
      ],
      "stateMutability": "view",
      "type": "function",
      "constant": true
    },
    {
      "inputs": [],
      "name": "aToken",
      "outputs": [
        {
          "internalType": "contract AToken",
          "name": "",
          "type": "address"
        }
      ],
      "stateMutability": "view",
      "type": "function",
      "constant": true
    },
    {
      "inputs": [
        {
          "internalType": "uint256",
          "name": "",
          "type": "uint256"
        }
      ],
      "name": "amountbuy",
      "outputs": [
        {
          "internalType": "uint256",
          "name": "",
          "type": "uint256"
        }
      ],
      "stateMutability": "view",
      "type": "function",
      "constant": true
    },
    {
      "inputs": [
        {
          "internalType": "uint256",
          "name": "",
          "type": "uint256"
        }
      ],
      "name": "amountsell",
      "outputs": [
        {
          "internalType": "uint256",
          "name": "",
          "type": "uint256"
        }
      ],
      "stateMutability": "view",
      "type": "function",
      "constant": true
    },
    {
      "inputs": [],
      "name": "bRate",
      "outputs": [
        {
          "internalType": "uint256",
          "name": "",
          "type": "uint256"
        }
      ],
      "stateMutability": "view",
      "type": "function",
      "constant": true
    },
    {
      "inputs": [],
      "name": "bToken",
      "outputs": [
        {
          "internalType": "contract BToken",
          "name": "",
          "type": "address"
        }
      ],
      "stateMutability": "view",
      "type": "function",
      "constant": true
    },
    {
      "inputs": [],
      "name": "buyCounter",
      "outputs": [
        {
          "internalType": "uint256",
          "name": "",
          "type": "uint256"
        }
      ],
      "stateMutability": "view",
      "type": "function",
      "constant": true
    },
    {
      "inputs": [],
      "name": "buyCounterInv",
      "outputs": [
        {
          "internalType": "uint256",
          "name": "",
          "type": "uint256"
        }
      ],
      "stateMutability": "view",
      "type": "function",
      "constant": true
    },
    {
      "inputs": [
        {
          "internalType": "uint256",
          "name": "",
          "type": "uint256"
        }
      ],
      "name": "buyrateid",
      "outputs": [
        {
          "internalType": "uint256",
          "name": "",
          "type": "uint256"
        }
      ],
      "stateMutability": "view",
      "type": "function",
      "constant": true
    },
    {
      "inputs": [
        {
          "internalType": "uint256",
          "name": "",
          "type": "uint256"
        }
      ],
      "name": "buyrateidInv",
      "outputs": [
        {
          "internalType": "uint256",
          "name": "",
          "type": "uint256"
        }
      ],
      "stateMutability": "view",
      "type": "function",
      "constant": true
    },
    {
      "inputs": [],
      "name": "idOfBuyRate",
      "outputs": [
        {
          "internalType": "uint256",
          "name": "",
          "type": "uint256"
        }
      ],
      "stateMutability": "view",
      "type": "function",
      "constant": true
    },
    {
      "inputs": [],
      "name": "idOfBuyRateInv",
      "outputs": [
        {
          "internalType": "uint256",
          "name": "",
          "type": "uint256"
        }
      ],
      "stateMutability": "view",
      "type": "function",
      "constant": true
    },
    {
      "inputs": [],
      "name": "idOfSellRate",
      "outputs": [
        {
          "internalType": "uint256",
          "name": "",
          "type": "uint256"
        }
      ],
      "stateMutability": "view",
      "type": "function",
      "constant": true
    },
    {
      "inputs": [],
      "name": "idOfSellRateInv",
      "outputs": [
        {
          "internalType": "uint256",
          "name": "",
          "type": "uint256"
        }
      ],
      "stateMutability": "view",
      "type": "function",
      "constant": true
    },
    {
      "inputs": [],
      "name": "maxBuyRate",
      "outputs": [
        {
          "internalType": "uint256",
          "name": "",
          "type": "uint256"
        }
      ],
      "stateMutability": "view",
      "type": "function",
      "constant": true
    },
    {
      "inputs": [],
      "name": "maxSellRate",
      "outputs": [
        {
          "internalType": "uint256",
          "name": "",
          "type": "uint256"
        }
      ],
      "stateMutability": "view",
      "type": "function",
      "constant": true
    },
    {
      "inputs": [],
      "name": "minBuyRate",
      "outputs": [
        {
          "internalType": "uint256",
          "name": "",
          "type": "uint256"
        }
      ],
      "stateMutability": "view",
      "type": "function",
      "constant": true
    },
    {
      "inputs": [],
      "name": "minSellRate",
      "outputs": [
        {
          "internalType": "uint256",
          "name": "",
          "type": "uint256"
        }
      ],
      "stateMutability": "view",
      "type": "function",
      "constant": true
    },
    {
      "inputs": [],
      "name": "name",
      "outputs": [
        {
          "internalType": "string",
          "name": "",
          "type": "string"
        }
      ],
      "stateMutability": "view",
      "type": "function",
      "constant": true
    },
    {
      "inputs": [
        {
          "internalType": "uint256",
          "name": "",
          "type": "uint256"
        }
      ],
      "name": "newBuyOrderBook",
      "outputs": [
        {
          "internalType": "address",
          "name": "maker",
          "type": "address"
        },
        {
          "internalType": "uint256",
          "name": "amount",
          "type": "uint256"
        },
        {
          "internalType": "uint256",
          "name": "rate",
          "type": "uint256"
        }
      ],
      "stateMutability": "view",
      "type": "function",
      "constant": true
    },
    {
      "inputs": [
        {
          "internalType": "uint256",
          "name": "",
          "type": "uint256"
        }
      ],
      "name": "newBuyOrderBookInv",
      "outputs": [
        {
          "internalType": "address",
          "name": "maker",
          "type": "address"
        },
        {
          "internalType": "uint256",
          "name": "amount",
          "type": "uint256"
        },
        {
          "internalType": "uint256",
          "name": "rate",
          "type": "uint256"
        }
      ],
      "stateMutability": "view",
      "type": "function",
      "constant": true
    },
    {
      "inputs": [
        {
          "internalType": "uint256",
          "name": "",
          "type": "uint256"
        }
      ],
      "name": "newSellOrderBook",
      "outputs": [
        {
          "internalType": "address",
          "name": "maker",
          "type": "address"
        },
        {
          "internalType": "uint256",
          "name": "amount",
          "type": "uint256"
        },
        {
          "internalType": "uint256",
          "name": "rate",
          "type": "uint256"
        }
      ],
      "stateMutability": "view",
      "type": "function",
      "constant": true
    },
    {
      "inputs": [
        {
          "internalType": "uint256",
          "name": "",
          "type": "uint256"
        }
      ],
      "name": "newSellOrderBookInv",
      "outputs": [
        {
          "internalType": "address",
          "name": "maker",
          "type": "address"
        },
        {
          "internalType": "uint256",
          "name": "amount",
          "type": "uint256"
        },
        {
          "internalType": "uint256",
          "name": "rate",
          "type": "uint256"
        }
      ],
      "stateMutability": "view",
      "type": "function",
      "constant": true
    },
    {
      "inputs": [],
      "name": "sellCounter",
      "outputs": [
        {
          "internalType": "uint256",
          "name": "",
          "type": "uint256"
        }
      ],
      "stateMutability": "view",
      "type": "function",
      "constant": true
    },
    {
      "inputs": [],
      "name": "sellCounterInv",
      "outputs": [
        {
          "internalType": "uint256",
          "name": "",
          "type": "uint256"
        }
      ],
      "stateMutability": "view",
      "type": "function",
      "constant": true
    },
    {
      "inputs": [
        {
          "internalType": "uint256",
          "name": "",
          "type": "uint256"
        }
      ],
      "name": "sellrateid",
      "outputs": [
        {
          "internalType": "uint256",
          "name": "",
          "type": "uint256"
        }
      ],
      "stateMutability": "view",
      "type": "function",
      "constant": true
    },
    {
      "inputs": [
        {
          "internalType": "uint256",
          "name": "",
          "type": "uint256"
        }
      ],
      "name": "sellrateidInv",
      "outputs": [
        {
          "internalType": "uint256",
          "name": "",
          "type": "uint256"
        }
      ],
      "stateMutability": "view",
      "type": "function",
      "constant": true
    },
    {
      "inputs": [],
      "name": "buyATokens",
      "outputs": [],
      "stateMutability": "payable",
      "type": "function",
      "payable": true
    },
    {
      "inputs": [
        {
          "internalType": "uint256",
          "name": "_amount",
          "type": "uint256"
        }
      ],
      "name": "sellATokens",
      "outputs": [],
      "stateMutability": "nonpayable",
      "type": "function"
    },
    {
      "inputs": [],
      "name": "buyBTokens",
      "outputs": [],
      "stateMutability": "payable",
      "type": "function",
      "payable": true
    },
    {
      "inputs": [
        {
          "internalType": "uint256",
          "name": "_amount",
          "type": "uint256"
        }
      ],
      "name": "sellBTokens",
      "outputs": [],
      "stateMutability": "nonpayable",
      "type": "function"
    },
    {
      "inputs": [],
      "name": "getbuyrate",
      "outputs": [
        {
          "internalType": "uint256[]",
          "name": "",
          "type": "uint256[]"
        }
      ],
      "stateMutability": "nonpayable",
      "type": "function"
    },
    {
      "inputs": [],
      "name": "getsellrate",
      "outputs": [
        {
          "internalType": "uint256[]",
          "name": "",
          "type": "uint256[]"
        }
      ],
      "stateMutability": "nonpayable",
      "type": "function"
    },
    {
      "inputs": [],
      "name": "getbuyrateInv",
      "outputs": [
        {
          "internalType": "uint256[]",
          "name": "",
          "type": "uint256[]"
        }
      ],
      "stateMutability": "nonpayable",
      "type": "function"
    },
    {
      "inputs": [],
      "name": "getsellrateInv",
      "outputs": [
        {
          "internalType": "uint256[]",
          "name": "",
          "type": "uint256[]"
        }
      ],
      "stateMutability": "nonpayable",
      "type": "function"
    },
    {
      "inputs": [
        {
          "internalType": "uint256",
          "name": "b",
          "type": "uint256"
        },
        {
          "internalType": "uint256",
          "name": "a",
          "type": "uint256"
        }
      ],
      "name": "atob",
      "outputs": [],
      "stateMutability": "nonpayable",
      "type": "function"
    },
    {
      "inputs": [
        {
          "internalType": "uint256",
          "name": "b",
          "type": "uint256"
        },
        {
          "internalType": "uint256",
          "name": "a",
          "type": "uint256"
        }
      ],
      "name": "atobInverseRate",
      "outputs": [],
      "stateMutability": "nonpayable",
      "type": "function"
    },
    {
      "inputs": [
        {
          "internalType": "uint256",
          "name": "a",
          "type": "uint256"
        },
        {
          "internalType": "uint256",
          "name": "b",
          "type": "uint256"
        }
      ],
      "name": "btoa",
      "outputs": [],
      "stateMutability": "nonpayable",
      "type": "function"
    },
    {
      "inputs": [
        {
          "internalType": "uint256",
          "name": "a",
          "type": "uint256"
        },
        {
          "internalType": "uint256",
          "name": "b",
          "type": "uint256"
        }
      ],
      "name": "btoaInverseRate",
      "outputs": [],
      "stateMutability": "nonpayable",
      "type": "function"
    },
    {
      "inputs": [],
      "name": "deleteBuyOrders",
      "outputs": [],
      "stateMutability": "nonpayable",
      "type": "function"
    },
    {
      "inputs": [],
      "name": "deleteSellOrders",
      "outputs": [],
      "stateMutability": "nonpayable",
      "type": "function"
    },
    {
      "inputs": [
        {
          "internalType": "address",
          "name": "account",
          "type": "address"
        }
      ],
      "name": "getBuyOrderBook",
      "outputs": [
        {
          "internalType": "uint256[]",
          "name": "",
          "type": "uint256[]"
        }
      ],
      "stateMutability": "nonpayable",
      "type": "function"
    },
    {
      "inputs": [
        {
          "internalType": "address",
          "name": "account",
          "type": "address"
        }
      ],
      "name": "getSellOrderBook",
      "outputs": [
        {
          "internalType": "uint256[]",
          "name": "",
          "type": "uint256[]"
        }
      ],
      "stateMutability": "nonpayable",
      "type": "function"
    }
  ],
  "bytecode": "0x60806040526040518060400160405280601281526020017f546f6b656e537761702045786368616e67650000000000000000000000000000815250600190805190602001906200005192919062000152565b506103e86003556103e860055560006006556000600a5560006018556000601b553480156200007f57600080fd5b50604051620061d8380380620061d883398181016040526040811015620000a557600080fd5b810190808051906020019092919080519060200190929190505050600160008190555081600260006101000a81548173ffffffffffffffffffffffffffffffffffffffff021916908373ffffffffffffffffffffffffffffffffffffffff16021790555080600460006101000a81548173ffffffffffffffffffffffffffffffffffffffff021916908373ffffffffffffffffffffffffffffffffffffffff160217905550505062000201565b828054600181600116156101000203166002900490600052602060002090601f016020900481019282601f106200019557805160ff1916838001178555620001c6565b82800160010185558215620001c6579182015b82811115620001c5578251825591602001919060010190620001a8565b5b509050620001d59190620001d9565b5090565b620001fe91905b80821115620001fa576000816000905550600101620001e0565b5090565b90565b615fc780620002116000396000f3fe60806040526004361061025c5760003560e01c80638544a5ec11610144578063cddfa2a4116100b6578063de7215861161007a578063de72158614610d4b578063df85924714610d76578063eb09692414610dc5578063ec4763b614610e0a578063f22dda4114610e59578063f32b137b14610e945761025c565b8063cddfa2a414610bf6578063ce72b86014610c21578063d6bd0ca614610c2b578063dcb8e10614610c56578063dd7f4e4014610cfc5761025c565b8063b2bb39ef11610108578063b2bb39ef14610a59578063b9a541eb14610ae2578063c51b435014610b0d578063c86f663914610b17578063c907290c14610b42578063c98ceaf414610b6d5761025c565b80638544a5ec1461095057806391ceedbf146109955780639237b46c146109c0578063a0c1f15e146109d7578063a4d0047d14610a2e5761025c565b80633edec69a116101dd57806361834641116101a157806361834641146107145780636bc69a241461072b5780636c0a9daa146107b45780636e94422c146107ef57806376a4202e1461085b5780638447eee6146108aa5761025c565b80633edec69a146105d85780634fb01c791461060357806350e3d8081461062e578063540cecb31461069a5780635632993b146106e95761025c565b80632373ce13116102245780632373ce131461042457806323ad224814610490578063307a429d1461051957806333f393ee146105685780633e2974e7146105ad5761025c565b806306fdde031461026157806310fea546146102f157806311d7e6891461035d57806317aabc55146103a2578063180f5842146103cd575b600080fd5b34801561026d57600080fd5b50610276610ebf565b6040518080602001828103825283818151815260200191508051906020019080838360005b838110156102b657808201518184015260208101905061029b565b50505050905090810190601f1680156102e35780820380516001836020036101000a031916815260200191505b509250505060405180910390f35b3480156102fd57600080fd5b50610306610f5d565b6040518080602001828103825283818151815260200191508051906020019060200280838360005b8381101561034957808201518184015260208101905061032e565b505050509050019250505060405180910390f35b34801561036957600080fd5b506103a06004803603604081101561038057600080fd5b810190808035906020019092919080359060200190929190505050610fb5565b005b3480156103ae57600080fd5b506103b7611c01565b6040518082815260200191505060405180910390f35b3480156103d957600080fd5b506103e2611c07565b604051808273ffffffffffffffffffffffffffffffffffffffff1673ffffffffffffffffffffffffffffffffffffffff16815260200191505060405180910390f35b34801561043057600080fd5b50610439611c2d565b6040518080602001828103825283818151815260200191508051906020019060200280838360005b8381101561047c578082015181840152602081019050610461565b505050509050019250505060405180910390f35b34801561049c57600080fd5b506104c9600480360360208110156104b357600080fd5b8101908080359060200190929190505050611c85565b604051808473ffffffffffffffffffffffffffffffffffffffff1673ffffffffffffffffffffffffffffffffffffffff168152602001838152602001828152602001935050505060405180910390f35b34801561052557600080fd5b506105526004803603602081101561053c57600080fd5b8101908080359060200190929190505050611ccf565b6040518082815260200191505060405180910390f35b34801561057457600080fd5b506105ab6004803603604081101561058b57600080fd5b810190808035906020019092919080359060200190929190505050611cf0565b005b3480156105b957600080fd5b506105c26129d0565b6040518082815260200191505060405180910390f35b3480156105e457600080fd5b506105ed6129d6565b6040518082815260200191505060405180910390f35b34801561060f57600080fd5b506106186129dc565b6040518082815260200191505060405180910390f35b34801561063a57600080fd5b506106436129e2565b6040518080602001828103825283818151815260200191508051906020019060200280838360005b8381101561068657808201518184015260208101905061066b565b505050509050019250505060405180910390f35b3480156106a657600080fd5b506106d3600480360360208110156106bd57600080fd5b8101908080359060200190929190505050612a3a565b6040518082815260200191505060405180910390f35b3480156106f557600080fd5b506106fe612a5b565b6040518082815260200191505060405180910390f35b34801561072057600080fd5b50610729612a61565b005b34801561073757600080fd5b506107646004803603602081101561074e57600080fd5b8101908080359060200190929190505050612f4d565b604051808473ffffffffffffffffffffffffffffffffffffffff1673ffffffffffffffffffffffffffffffffffffffff168152602001838152602001828152602001935050505060405180910390f35b3480156107c057600080fd5b506107ed600480360360208110156107d757600080fd5b8101908080359060200190929190505050612f97565b005b3480156107fb57600080fd5b50610804613215565b6040518080602001828103825283818151815260200191508051906020019060200280838360005b8381101561084757808201518184015260208101905061082c565b505050509050019250505060405180910390f35b34801561086757600080fd5b506108946004803603602081101561087e57600080fd5b810190808035906020019092919050505061326d565b6040518082815260200191505060405180910390f35b3480156108b657600080fd5b506108f9600480360360208110156108cd57600080fd5b81019080803573ffffffffffffffffffffffffffffffffffffffff16906020019092919050505061328e565b6040518080602001828103825283818151815260200191508051906020019060200280838360005b8381101561093c578082015181840152602081019050610921565b505050509050019250505060405180910390f35b34801561095c57600080fd5b506109936004803603604081101561097357600080fd5b810190808035906020019092919080359060200190929190505050613446565b005b3480156109a157600080fd5b506109aa61403e565b6040518082815260200191505060405180910390f35b3480156109cc57600080fd5b506109d5614044565b005b3480156109e357600080fd5b506109ec614530565b604051808273ffffffffffffffffffffffffffffffffffffffff1673ffffffffffffffffffffffffffffffffffffffff16815260200191505060405180910390f35b348015610a3a57600080fd5b50610a43614556565b6040518082815260200191505060405180910390f35b348015610a6557600080fd5b50610a9260048036036020811015610a7c57600080fd5b810190808035906020019092919050505061455c565b604051808473ffffffffffffffffffffffffffffffffffffffff1673ffffffffffffffffffffffffffffffffffffffff168152602001838152602001828152602001935050505060405180910390f35b348015610aee57600080fd5b50610af76145a6565b6040518082815260200191505060405180910390f35b610b156145ac565b005b348015610b2357600080fd5b50610b2c614783565b6040518082815260200191505060405180910390f35b348015610b4e57600080fd5b50610b57614789565b6040518082815260200191505060405180910390f35b348015610b7957600080fd5b50610ba660048036036020811015610b9057600080fd5b810190808035906020019092919050505061478f565b604051808473ffffffffffffffffffffffffffffffffffffffff1673ffffffffffffffffffffffffffffffffffffffff168152602001838152602001828152602001935050505060405180910390f35b348015610c0257600080fd5b50610c0b6147d9565b6040518082815260200191505060405180910390f35b610c296147df565b005b348015610c3757600080fd5b50610c406149b6565b6040518082815260200191505060405180910390f35b348015610c6257600080fd5b50610ca560048036036020811015610c7957600080fd5b81019080803573ffffffffffffffffffffffffffffffffffffffff1690602001909291905050506149bc565b6040518080602001828103825283818151815260200191508051906020019060200280838360005b83811015610ce8578082015181840152602081019050610ccd565b505050509050019250505060405180910390f35b348015610d0857600080fd5b50610d3560048036036020811015610d1f57600080fd5b8101908080359060200190929190505050614b7b565b6040518082815260200191505060405180910390f35b348015610d5757600080fd5b50610d60614b9c565b6040518082815260200191505060405180910390f35b348015610d8257600080fd5b50610daf60048036036020811015610d9957600080fd5b8101908080359060200190929190505050614ba2565b6040518082815260200191505060405180910390f35b348015610dd157600080fd5b50610e0860048036036040811015610de857600080fd5b810190808035906020019092919080359060200190929190505050614bc3565b005b348015610e1657600080fd5b50610e4360048036036020811015610e2d57600080fd5b81019080803590602001909291905050506158b6565b6040518082815260200191505060405180910390f35b348015610e6557600080fd5b50610e9260048036036020811015610e7c57600080fd5b81019080803590602001909291905050506158d7565b005b348015610ea057600080fd5b50610ea9615b55565b6040518082815260200191505060405180910390f35b60018054600181600116156101000203166002900480601f016020809104026020016040519081016040528092919081815260200182805460018160011615610100020316600290048015610f555780601f10610f2a57610100808354040283529160200191610f55565b820191906000526020600020905b815481529060010190602001808311610f3857829003601f168201915b505050505081565b60606015805480602002602001604051908101604052809291908181526020018280548015610fab57602002820191906000526020600020905b815481526020019060010190808311610f97575b5050505050905090565b6002600054141561102e576040517f08c379a000000000000000000000000000000000000000000000000000000000815260040180806020018281038252601f8152602001807f5265656e7472616e637947756172643a207265656e7472616e742063616c6c0081525060200191505060405180910390fd5b600260008190555080600260009054906101000a900473ffffffffffffffffffffffffffffffffffffffff1673ffffffffffffffffffffffffffffffffffffffff166370a08231336040518263ffffffff1660e01b8152600401808273ffffffffffffffffffffffffffffffffffffffff1673ffffffffffffffffffffffffffffffffffffffff16815260200191505060206040518083038186803b1580156110d657600080fd5b505afa1580156110ea573d6000803e3d6000fd5b505050506040513d602081101561110057600080fd5b81019080805190602001909291905050501015611185576040517f08c379a00000000000000000000000000000000000000000000000000000000081526004018080602001828103825260158152602001807f68656c6c6f206572726f7220686572652061746f62000000000000000000000081525060200191505060405180910390fd5b600260009054906101000a900473ffffffffffffffffffffffffffffffffffffffff1673ffffffffffffffffffffffffffffffffffffffff166323b872dd3330846040518463ffffffff1660e01b8152600401808473ffffffffffffffffffffffffffffffffffffffff1673ffffffffffffffffffffffffffffffffffffffff1681526020018373ffffffffffffffffffffffffffffffffffffffff1673ffffffffffffffffffffffffffffffffffffffff1681526020018281526020019350505050602060405180830381600087803b15801561126257600080fd5b505af1158015611276573d6000803e3d6000fd5b505050506040513d602081101561128c57600080fd5b81019080805190602001909291905050505060008183816112a957fe5b04905060006001905060008090505b601480549050811015611bd557601481815481106112d257fe5b9060005260206000200154600c81905550601c6000600c54815260200190815260200160002060020154601981905550601954831015801561131657506000601954115b15611bc8576000915084601c6000600c54815260200190815260200160002060010154111561158757600085601c6000600c5481526020019081526020016000206001015403905080601c6000600c54815260200190815260200160002060010181905550600260009054906101000a900473ffffffffffffffffffffffffffffffffffffffff1673ffffffffffffffffffffffffffffffffffffffff1663a9059cbb601c6000600c54815260200190815260200160002060000160009054906101000a900473ffffffffffffffffffffffffffffffffffffffff16876040518363ffffffff1660e01b8152600401808373ffffffffffffffffffffffffffffffffffffffff1673ffffffffffffffffffffffffffffffffffffffff16815260200182815260200192505050602060405180830381600087803b15801561145c57600080fd5b505af1158015611470573d6000803e3d6000fd5b505050506040513d602081101561148657600080fd5b810190808051906020019092919050505050600460009054906101000a900473ffffffffffffffffffffffffffffffffffffffff1673ffffffffffffffffffffffffffffffffffffffff1663a9059cbb3360195488026040518363ffffffff1660e01b8152600401808373ffffffffffffffffffffffffffffffffffffffff1673ffffffffffffffffffffffffffffffffffffffff16815260200182815260200192505050602060405180830381600087803b15801561154557600080fd5b505af1158015611559573d6000803e3d6000fd5b505050506040513d602081101561156f57600080fd5b81019080805190602001909291905050505050611bc3565b84601c6000600c54815260200190815260200160002060010154141561187c57600260009054906101000a900473ffffffffffffffffffffffffffffffffffffffff1673ffffffffffffffffffffffffffffffffffffffff1663a9059cbb601c6000600c54815260200190815260200160002060000160009054906101000a900473ffffffffffffffffffffffffffffffffffffffff16866040518363ffffffff1660e01b8152600401808373ffffffffffffffffffffffffffffffffffffffff1673ffffffffffffffffffffffffffffffffffffffff16815260200182815260200192505050602060405180830381600087803b15801561168857600080fd5b505af115801561169c573d6000803e3d6000fd5b505050506040513d60208110156116b257600080fd5b810190808051906020019092919050505050600460009054906101000a900473ffffffffffffffffffffffffffffffffffffffff1673ffffffffffffffffffffffffffffffffffffffff1663a9059cbb3360195487026040518363ffffffff1660e01b8152600401808373ffffffffffffffffffffffffffffffffffffffff1673ffffffffffffffffffffffffffffffffffffffff16815260200182815260200192505050602060405180830381600087803b15801561177157600080fd5b505af1158015611785573d6000803e3d6000fd5b505050506040513d602081101561179b57600080fd5b810190808051906020019092919050505050601c6000600c548152602001908152602001600020600080820160006101000a81549073ffffffffffffffffffffffffffffffffffffffff021916905560018201600090556002820160009055505060008190505b600160148054905003811015611855576014600182018154811061182257fe5b90600052602060002001546014828154811061183a57fe5b90600052602060002001819055508080600101915050611802565b50601480548061186157fe5b60019003818190600052602060002001600090559055611bc2565b84601c6000600c548152602001908152602001600020600101541015611bc157600260009054906101000a900473ffffffffffffffffffffffffffffffffffffffff1673ffffffffffffffffffffffffffffffffffffffff1663a9059cbb601c6000600c54815260200190815260200160002060000160009054906101000a900473ffffffffffffffffffffffffffffffffffffffff16601c6000600c548152602001908152602001600020600101546040518363ffffffff1660e01b8152600401808373ffffffffffffffffffffffffffffffffffffffff1673ffffffffffffffffffffffffffffffffffffffff16815260200182815260200192505050602060405180830381600087803b15801561199557600080fd5b505af11580156119a9573d6000803e3d6000fd5b505050506040513d60208110156119bf57600080fd5b810190808051906020019092919050505050600460009054906101000a900473ffffffffffffffffffffffffffffffffffffffff1673ffffffffffffffffffffffffffffffffffffffff1663a9059cbb33601954601c6000600c54815260200190815260200160002060010154026040518363ffffffff1660e01b8152600401808373ffffffffffffffffffffffffffffffffffffffff1673ffffffffffffffffffffffffffffffffffffffff16815260200182815260200192505050602060405180830381600087803b158015611a9657600080fd5b505af1158015611aaa573d6000803e3d6000fd5b505050506040513d6020811015611ac057600080fd5b810190808051906020019092919050505050601c6000600c548152602001908152602001600020600080820160006101000a81549073ffffffffffffffffffffffffffffffffffffffff021916905560018201600090556002820160009055505060008190505b600160148054905003811015611b7a5760146001820181548110611b4757fe5b906000526020600020015460148281548110611b5f57fe5b90600052602060002001819055508080600101915050611b27565b506014805480611b8657fe5b60019003818190600052602060002001600090559055611bc083601c6000600c548152602001908152602001600020600101548603615b5b565b5b5b5b611bd5565b80806001019150506112b8565b50600083118015611be35750805b15611bf357611bf28284615b5b565b5b505060016000819055505050565b60165481565b600460009054906101000a900473ffffffffffffffffffffffffffffffffffffffff1681565b60606014805480602002602001604051908101604052809291908181526020018280548015611c7b57602002820191906000526020600020905b815481526020019060010190808311611c67575b5050505050905090565b601c6020528060005260406000206000915090508060000160009054906101000a900473ffffffffffffffffffffffffffffffffffffffff16908060010154908060020154905083565b60158181548110611cdc57fe5b906000526020600020016000915090505481565b60026000541415611d69576040517f08c379a000000000000000000000000000000000000000000000000000000000815260040180806020018281038252601f8152602001807f5265656e7472616e637947756172643a207265656e7472616e742063616c6c0081525060200191505060405180910390fd5b600260008190555080600460009054906101000a900473ffffffffffffffffffffffffffffffffffffffff1673ffffffffffffffffffffffffffffffffffffffff166370a08231336040518263ffffffff1660e01b8152600401808273ffffffffffffffffffffffffffffffffffffffff1673ffffffffffffffffffffffffffffffffffffffff16815260200191505060206040518083038186803b158015611e1157600080fd5b505afa158015611e25573d6000803e3d6000fd5b505050506040513d6020811015611e3b57600080fd5b81019080805190602001909291905050501015611e5757600080fd5b60118190806001815401808255809150506001900390600052602060002001600090919091909150556011829080600181540180825580915050600190039060005260206000200160009091909190915055600460009054906101000a900473ffffffffffffffffffffffffffffffffffffffff1673ffffffffffffffffffffffffffffffffffffffff166323b872dd3330846040518463ffffffff1660e01b8152600401808473ffffffffffffffffffffffffffffffffffffffff1673ffffffffffffffffffffffffffffffffffffffff1681526020018373ffffffffffffffffffffffffffffffffffffffff1673ffffffffffffffffffffffffffffffffffffffff1681526020018281526020019350505050602060405180830381600087803b158015611f8657600080fd5b505af1158015611f9a573d6000803e3d6000fd5b505050506040513d6020811015611fb057600080fd5b8101908080519060200190929190505050506000818381611fcd57fe5b04905060006001905060008090505b600f805490508110156129a457600f8181548110611ff657fe5b906000526020600020015460098190555060086000600954815260200190815260200160002060020154600d81905550600d54831115801561203a57506000600d54115b1561299757600091508460086000600954815260200190815260200160002060010154111561235657601160086000600954815260200190815260200160002060010154908060018154018082558091505060019003906000526020600020016000909190919091505560118490806001815401808255809150506001900390600052602060002001600090919091909150556000856008600060095481526020019081526020016000206001015403905080600860006009548152602001908152602001600020600101819055506011600860006009548152602001908152602001600020600101549080600181540180825580915050600190039060005260206000200160009091909190915055600460009054906101000a900473ffffffffffffffffffffffffffffffffffffffff1673ffffffffffffffffffffffffffffffffffffffff1663a9059cbb60086000600954815260200190815260200160002060000160009054906101000a900473ffffffffffffffffffffffffffffffffffffffff16876040518363ffffffff1660e01b8152600401808373ffffffffffffffffffffffffffffffffffffffff1673ffffffffffffffffffffffffffffffffffffffff16815260200182815260200192505050602060405180830381600087803b15801561222b57600080fd5b505af115801561223f573d6000803e3d6000fd5b505050506040513d602081101561225557600080fd5b810190808051906020019092919050505050600260009054906101000a900473ffffffffffffffffffffffffffffffffffffffff1673ffffffffffffffffffffffffffffffffffffffff1663a9059cbb33600d5488026040518363ffffffff1660e01b8152600401808373ffffffffffffffffffffffffffffffffffffffff1673ffffffffffffffffffffffffffffffffffffffff16815260200182815260200192505050602060405180830381600087803b15801561231457600080fd5b505af1158015612328573d6000803e3d6000fd5b505050506040513d602081101561233e57600080fd5b81019080805190602001909291905050505050612992565b8460086000600954815260200190815260200160002060010154141561264b57600460009054906101000a900473ffffffffffffffffffffffffffffffffffffffff1673ffffffffffffffffffffffffffffffffffffffff1663a9059cbb60086000600954815260200190815260200160002060000160009054906101000a900473ffffffffffffffffffffffffffffffffffffffff16866040518363ffffffff1660e01b8152600401808373ffffffffffffffffffffffffffffffffffffffff1673ffffffffffffffffffffffffffffffffffffffff16815260200182815260200192505050602060405180830381600087803b15801561245757600080fd5b505af115801561246b573d6000803e3d6000fd5b505050506040513d602081101561248157600080fd5b810190808051906020019092919050505050600260009054906101000a900473ffffffffffffffffffffffffffffffffffffffff1673ffffffffffffffffffffffffffffffffffffffff1663a9059cbb33600d5487026040518363ffffffff1660e01b8152600401808373ffffffffffffffffffffffffffffffffffffffff1673ffffffffffffffffffffffffffffffffffffffff16815260200182815260200192505050602060405180830381600087803b15801561254057600080fd5b505af1158015612554573d6000803e3d6000fd5b505050506040513d602081101561256a57600080fd5b810190808051906020019092919050505050600860006009548152602001908152602001600020600080820160006101000a81549073ffffffffffffffffffffffffffffffffffffffff021916905560018201600090556002820160009055505060008190505b6001600f805490500381101561262457600f60018201815481106125f157fe5b9060005260206000200154600f828154811061260957fe5b906000526020600020018190555080806001019150506125d1565b50600f80548061263057fe5b60019003818190600052602060002001600090559055612991565b8460086000600954815260200190815260200160002060010154101561299057600460009054906101000a900473ffffffffffffffffffffffffffffffffffffffff1673ffffffffffffffffffffffffffffffffffffffff1663a9059cbb60086000600954815260200190815260200160002060000160009054906101000a900473ffffffffffffffffffffffffffffffffffffffff16600860006009548152602001908152602001600020600101546040518363ffffffff1660e01b8152600401808373ffffffffffffffffffffffffffffffffffffffff1673ffffffffffffffffffffffffffffffffffffffff16815260200182815260200192505050602060405180830381600087803b15801561276457600080fd5b505af1158015612778573d6000803e3d6000fd5b505050506040513d602081101561278e57600080fd5b810190808051906020019092919050505050600260009054906101000a900473ffffffffffffffffffffffffffffffffffffffff1673ffffffffffffffffffffffffffffffffffffffff1663a9059cbb33600d5460086000600954815260200190815260200160002060010154026040518363ffffffff1660e01b8152600401808373ffffffffffffffffffffffffffffffffffffffff1673ffffffffffffffffffffffffffffffffffffffff16815260200182815260200192505050602060405180830381600087803b15801561286557600080fd5b505af1158015612879573d6000803e3d6000fd5b505050506040513d602081101561288f57600080fd5b810190808051906020019092919050505050600860006009548152602001908152602001600020600080820160006101000a81549073ffffffffffffffffffffffffffffffffffffffff021916905560018201600090556002820160009055505060008190505b6001600f805490500381101561294957600f600182018154811061291657fe5b9060005260206000200154600f828154811061292e57fe5b906000526020600020018190555080806001019150506128f6565b50600f80548061295557fe5b6001900381819060005260206000200160009055905561298f83600860006009548152602001908152602001600020600101548603615c4c565b5b5b5b6129a4565b8080600101915050611fdc565b506000831180156129b25750805b156129c2576129c18284615c4c565b5b505060016000819055505050565b60035481565b60075481565b60185481565b6060600e805480602002602001604051908101604052809291908181526020018280548015612a3057602002820191906000526020600020905b815481526020019060010190808311612a1c575b5050505050905090565b60108181548110612a4757fe5b906000526020600020016000915090505481565b600c5481565b60008090505b600f80549050811015612cd5576000600f8281548110612a8357fe5b906000526020600020015490506008600082815260200190815260200160002060000160009054906101000a900473ffffffffffffffffffffffffffffffffffffffff1673ffffffffffffffffffffffffffffffffffffffff163373ffffffffffffffffffffffffffffffffffffffff161415612cc757600260009054906101000a900473ffffffffffffffffffffffffffffffffffffffff1673ffffffffffffffffffffffffffffffffffffffff1663a9059cbb3360086000858152602001908152602001600020600101546040518363ffffffff1660e01b8152600401808373ffffffffffffffffffffffffffffffffffffffff1673ffffffffffffffffffffffffffffffffffffffff16815260200182815260200192505050602060405180830381600087803b158015612bb957600080fd5b505af1158015612bcd573d6000803e3d6000fd5b505050506040513d6020811015612be357600080fd5b81019080805190602001909291905050505060086000828152602001908152602001600020600080820160006101000a81549073ffffffffffffffffffffffffffffffffffffffff021916905560018201600090556002820160009055505060008290505b6001600f8054905003811015612c9b57600f6001820181548110612c6857fe5b9060005260206000200154600f8281548110612c8057fe5b90600052602060002001819055508080600101915050612c48565b50600f805480612ca757fe5b600190038181906000526020600020016000905590558180600190039250505b508080600101915050612a67565b5060008090505b601580549050811015612f4a57600060158281548110612cf857fe5b90600052602060002001549050601a600082815260200190815260200160002060000160009054906101000a900473ffffffffffffffffffffffffffffffffffffffff1673ffffffffffffffffffffffffffffffffffffffff163373ffffffffffffffffffffffffffffffffffffffff161415612f3c57600260009054906101000a900473ffffffffffffffffffffffffffffffffffffffff1673ffffffffffffffffffffffffffffffffffffffff1663a9059cbb33601a6000858152602001908152602001600020600101546040518363ffffffff1660e01b8152600401808373ffffffffffffffffffffffffffffffffffffffff1673ffffffffffffffffffffffffffffffffffffffff16815260200182815260200192505050602060405180830381600087803b158015612e2e57600080fd5b505af1158015612e42573d6000803e3d6000fd5b505050506040513d6020811015612e5857600080fd5b810190808051906020019092919050505050601a6000828152602001908152602001600020600080820160006101000a81549073ffffffffffffffffffffffffffffffffffffffff021916905560018201600090556002820160009055505060008290505b600160158054905003811015612f105760156001820181548110612edd57fe5b906000526020600020015460158281548110612ef557fe5b90600052602060002001819055508080600101915050612ebd565b506015805480612f1c57fe5b600190038181906000526020600020016000905590558180600190039250505b508080600101915050612cdc565b50565b600b6020528060005260406000206000915090508060000160009054906101000a900473ffffffffffffffffffffffffffffffffffffffff16908060010154908060020154905083565b80600260009054906101000a900473ffffffffffffffffffffffffffffffffffffffff1673ffffffffffffffffffffffffffffffffffffffff166370a08231336040518263ffffffff1660e01b8152600401808273ffffffffffffffffffffffffffffffffffffffff1673ffffffffffffffffffffffffffffffffffffffff16815260200191505060206040518083038186803b15801561303757600080fd5b505afa15801561304b573d6000803e3d6000fd5b505050506040513d602081101561306157600080fd5b8101908080519060200190929190505050101561307d57600080fd5b6000600354828161308a57fe5b049050803073ffffffffffffffffffffffffffffffffffffffff163110156130b157600080fd5b600260009054906101000a900473ffffffffffffffffffffffffffffffffffffffff1673ffffffffffffffffffffffffffffffffffffffff166323b872dd3330856040518463ffffffff1660e01b8152600401808473ffffffffffffffffffffffffffffffffffffffff1673ffffffffffffffffffffffffffffffffffffffff1681526020018373ffffffffffffffffffffffffffffffffffffffff1673ffffffffffffffffffffffffffffffffffffffff1681526020018281526020019350505050602060405180830381600087803b15801561318e57600080fd5b505af11580156131a2573d6000803e3d6000fd5b505050506040513d60208110156131b857600080fd5b8101908080519060200190929190505050503373ffffffffffffffffffffffffffffffffffffffff166108fc829081150290604051600060405180830381858888f19350505050158015613210573d6000803e3d6000fd5b505050565b6060600f80548060200260200160405190810160405280929190818152602001828054801561326357602002820191906000526020600020905b81548152602001906001019080831161324f575b5050505050905090565b6011818154811061327a57fe5b906000526020600020016000915090505481565b6060600067ffffffffffffffff811180156132a857600080fd5b506040519080825280602002602001820160405280156132d75781602001602082028036833780820191505090505b50601390805190602001906132ed929190615f1f565b5060008090505b600e805490508110156133ed576000600e828154811061331057fe5b90600052602060002001549050600b600082815260200190815260200160002060000160009054906101000a900473ffffffffffffffffffffffffffffffffffffffff1673ffffffffffffffffffffffffffffffffffffffff168473ffffffffffffffffffffffffffffffffffffffff1614156133df576013600b600083815260200190815260200160002060020154600b6000848152602001908152602001600020600101540290806001815401808255809150506001900390600052602060002001600090919091909150555b5080806001019150506132f4565b50601380548060200260200160405190810160405280929190818152602001828054801561343a57602002820191906000526020600020905b815481526020019060010190808311613426575b50505050509050919050565b600260005414156134bf576040517f08c379a000000000000000000000000000000000000000000000000000000000815260040180806020018281038252601f8152602001807f5265656e7472616e637947756172643a207265656e7472616e742063616c6c0081525060200191505060405180910390fd5b600260008190555080600260009054906101000a900473ffffffffffffffffffffffffffffffffffffffff1673ffffffffffffffffffffffffffffffffffffffff166370a08231336040518263ffffffff1660e01b8152600401808273ffffffffffffffffffffffffffffffffffffffff1673ffffffffffffffffffffffffffffffffffffffff16815260200191505060206040518083038186803b15801561356757600080fd5b505afa15801561357b573d6000803e3d6000fd5b505050506040513d602081101561359157600080fd5b810190808051906020019092919050505010156135ad57600080fd5b600260009054906101000a900473ffffffffffffffffffffffffffffffffffffffff1673ffffffffffffffffffffffffffffffffffffffff166323b872dd3330846040518463ffffffff1660e01b8152600401808473ffffffffffffffffffffffffffffffffffffffff1673ffffffffffffffffffffffffffffffffffffffff1681526020018373ffffffffffffffffffffffffffffffffffffffff1673ffffffffffffffffffffffffffffffffffffffff1681526020018281526020019350505050602060405180830381600087803b15801561368a57600080fd5b505af115801561369e573d6000803e3d6000fd5b505050506040513d60208110156136b457600080fd5b81019080805190602001909291905050505060008282816136d157fe5b04905060006001905060008090505b600e8054905081101561401257600e81815481106136fa57fe5b9060005260206000200154600c81905550600b6000600c54815260200190815260200160002060020154600781905550600754831015801561373e57506000600754115b15614005576000915084600b6000600c5481526020019081526020016000206001015411156139b657600085600b6000600c5481526020019081526020016000206001015403905080600b6000600c54815260200190815260200160002060010181905550600260009054906101000a900473ffffffffffffffffffffffffffffffffffffffff1673ffffffffffffffffffffffffffffffffffffffff1663a9059cbb600b6000600c54815260200190815260200160002060000160009054906101000a900473ffffffffffffffffffffffffffffffffffffffff16876040518363ffffffff1660e01b8152600401808373ffffffffffffffffffffffffffffffffffffffff1673ffffffffffffffffffffffffffffffffffffffff16815260200182815260200192505050602060405180830381600087803b15801561388457600080fd5b505af1158015613898573d6000803e3d6000fd5b505050506040513d60208110156138ae57600080fd5b810190808051906020019092919050505050600460009054906101000a900473ffffffffffffffffffffffffffffffffffffffff1673ffffffffffffffffffffffffffffffffffffffff1663a9059cbb33600754888161390a57fe5b046040518363ffffffff1660e01b8152600401808373ffffffffffffffffffffffffffffffffffffffff1673ffffffffffffffffffffffffffffffffffffffff16815260200182815260200192505050602060405180830381600087803b15801561397457600080fd5b505af1158015613988573d6000803e3d6000fd5b505050506040513d602081101561399e57600080fd5b81019080805190602001909291905050505050614000565b84600b6000600c548152602001908152602001600020600101541415613cb257600260009054906101000a900473ffffffffffffffffffffffffffffffffffffffff1673ffffffffffffffffffffffffffffffffffffffff1663a9059cbb600b6000600c54815260200190815260200160002060000160009054906101000a900473ffffffffffffffffffffffffffffffffffffffff16866040518363ffffffff1660e01b8152600401808373ffffffffffffffffffffffffffffffffffffffff1673ffffffffffffffffffffffffffffffffffffffff16815260200182815260200192505050602060405180830381600087803b158015613ab757600080fd5b505af1158015613acb573d6000803e3d6000fd5b505050506040513d6020811015613ae157600080fd5b810190808051906020019092919050505050600460009054906101000a900473ffffffffffffffffffffffffffffffffffffffff1673ffffffffffffffffffffffffffffffffffffffff1663a9059cbb336007548781613b3d57fe5b046040518363ffffffff1660e01b8152600401808373ffffffffffffffffffffffffffffffffffffffff1673ffffffffffffffffffffffffffffffffffffffff16815260200182815260200192505050602060405180830381600087803b158015613ba757600080fd5b505af1158015613bbb573d6000803e3d6000fd5b505050506040513d6020811015613bd157600080fd5b810190808051906020019092919050505050600b6000600c548152602001908152602001600020600080820160006101000a81549073ffffffffffffffffffffffffffffffffffffffff021916905560018201600090556002820160009055505060008190505b6001600e8054905003811015613c8b57600e6001820181548110613c5857fe5b9060005260206000200154600e8281548110613c7057fe5b90600052602060002001819055508080600101915050613c38565b50600e805480613c9757fe5b60019003818190600052602060002001600090559055613fff565b84600b6000600c548152602001908152602001600020600101541015613ffe57600260009054906101000a900473ffffffffffffffffffffffffffffffffffffffff1673ffffffffffffffffffffffffffffffffffffffff1663a9059cbb600b6000600c54815260200190815260200160002060000160009054906101000a900473ffffffffffffffffffffffffffffffffffffffff16600b6000600c548152602001908152602001600020600101546040518363ffffffff1660e01b8152600401808373ffffffffffffffffffffffffffffffffffffffff1673ffffffffffffffffffffffffffffffffffffffff16815260200182815260200192505050602060405180830381600087803b158015613dcb57600080fd5b505af1158015613ddf573d6000803e3d6000fd5b505050506040513d6020811015613df557600080fd5b810190808051906020019092919050505050600460009054906101000a900473ffffffffffffffffffffffffffffffffffffffff1673ffffffffffffffffffffffffffffffffffffffff1663a9059cbb33600754600b6000600c5481526020019081526020016000206001015481613e6957fe5b046040518363ffffffff1660e01b8152600401808373ffffffffffffffffffffffffffffffffffffffff1673ffffffffffffffffffffffffffffffffffffffff16815260200182815260200192505050602060405180830381600087803b158015613ed357600080fd5b505af1158015613ee7573d6000803e3d6000fd5b505050506040513d6020811015613efd57600080fd5b810190808051906020019092919050505050600b6000600c548152602001908152602001600020600080820160006101000a81549073ffffffffffffffffffffffffffffffffffffffff021916905560018201600090556002820160009055505060008190505b6001600e8054905003811015613fb757600e6001820181548110613f8457fe5b9060005260206000200154600e8281548110613f9c57fe5b90600052602060002001819055508080600101915050613f64565b50600e805480613fc357fe5b60019003818190600052602060002001600090559055613ffd83600b6000600c548152602001908152602001600020600101548603615d3d565b5b5b5b614012565b80806001019150506136e0565b506000831180156140205750805b156140305761402f8284615d3d565b5b505060016000819055505050565b60065481565b60008090505b600e805490508110156142b8576000600e828154811061406657fe5b90600052602060002001549050600b600082815260200190815260200160002060000160009054906101000a900473ffffffffffffffffffffffffffffffffffffffff1673ffffffffffffffffffffffffffffffffffffffff163373ffffffffffffffffffffffffffffffffffffffff1614156142aa57600460009054906101000a900473ffffffffffffffffffffffffffffffffffffffff1673ffffffffffffffffffffffffffffffffffffffff1663a9059cbb33600b6000858152602001908152602001600020600101546040518363ffffffff1660e01b8152600401808373ffffffffffffffffffffffffffffffffffffffff1673ffffffffffffffffffffffffffffffffffffffff16815260200182815260200192505050602060405180830381600087803b15801561419c57600080fd5b505af11580156141b0573d6000803e3d6000fd5b505050506040513d60208110156141c657600080fd5b810190808051906020019092919050505050600b6000828152602001908152602001600020600080820160006101000a81549073ffffffffffffffffffffffffffffffffffffffff021916905560018201600090556002820160009055505060008290505b6001600e805490500381101561427e57600e600182018154811061424b57fe5b9060005260206000200154600e828154811061426357fe5b9060005260206000200181905550808060010191505061422b565b50600e80548061428a57fe5b600190038181906000526020600020016000905590558180600190039250505b50808060010191505061404a565b5060008090505b60148054905081101561452d576000601482815481106142db57fe5b90600052602060002001549050601c600082815260200190815260200160002060000160009054906101000a900473ffffffffffffffffffffffffffffffffffffffff1673ffffffffffffffffffffffffffffffffffffffff163373ffffffffffffffffffffffffffffffffffffffff16141561451f57600460009054906101000a900473ffffffffffffffffffffffffffffffffffffffff1673ffffffffffffffffffffffffffffffffffffffff1663a9059cbb33601c6000858152602001908152602001600020600101546040518363ffffffff1660e01b8152600401808373ffffffffffffffffffffffffffffffffffffffff1673ffffffffffffffffffffffffffffffffffffffff16815260200182815260200192505050602060405180830381600087803b15801561441157600080fd5b505af1158015614425573d6000803e3d6000fd5b505050506040513d602081101561443b57600080fd5b810190808051906020019092919050505050601c6000828152602001908152602001600020600080820160006101000a81549073ffffffffffffffffffffffffffffffffffffffff021916905560018201600090556002820160009055505060008290505b6001601480549050038110156144f357601460018201815481106144c057fe5b9060005260206000200154601482815481106144d857fe5b906000526020600020018190555080806001019150506144a0565b5060148054806144ff57fe5b600190038181906000526020600020016000905590558180600190039250505b5080806001019150506142bf565b50565b600260009054906101000a900473ffffffffffffffffffffffffffffffffffffffff1681565b600a5481565b60086020528060005260406000206000915090508060000160009054906101000a900473ffffffffffffffffffffffffffffffffffffffff16908060010154908060020154905083565b60055481565b60006003543402905080600260009054906101000a900473ffffffffffffffffffffffffffffffffffffffff1673ffffffffffffffffffffffffffffffffffffffff166370a08231306040518263ffffffff1660e01b8152600401808273ffffffffffffffffffffffffffffffffffffffff1673ffffffffffffffffffffffffffffffffffffffff16815260200191505060206040518083038186803b15801561465557600080fd5b505afa158015614669573d6000803e3d6000fd5b505050506040513d602081101561467f57600080fd5b8101908080519060200190929190505050101561469b57600080fd5b600260009054906101000a900473ffffffffffffffffffffffffffffffffffffffff1673ffffffffffffffffffffffffffffffffffffffff1663a9059cbb33836040518363ffffffff1660e01b8152600401808373ffffffffffffffffffffffffffffffffffffffff1673ffffffffffffffffffffffffffffffffffffffff16815260200182815260200192505050602060405180830381600087803b15801561474457600080fd5b505af1158015614758573d6000803e3d6000fd5b505050506040513d602081101561476e57600080fd5b81019080805190602001909291905050505050565b600d5481565b60175481565b601a6020528060005260406000206000915090508060000160009054906101000a900473ffffffffffffffffffffffffffffffffffffffff16908060010154908060020154905083565b60095481565b60006005543402905080600460009054906101000a900473ffffffffffffffffffffffffffffffffffffffff1673ffffffffffffffffffffffffffffffffffffffff166370a08231306040518263ffffffff1660e01b8152600401808273ffffffffffffffffffffffffffffffffffffffff1673ffffffffffffffffffffffffffffffffffffffff16815260200191505060206040518083038186803b15801561488857600080fd5b505afa15801561489c573d6000803e3d6000fd5b505050506040513d60208110156148b257600080fd5b810190808051906020019092919050505010156148ce57600080fd5b600460009054906101000a900473ffffffffffffffffffffffffffffffffffffffff1673ffffffffffffffffffffffffffffffffffffffff1663a9059cbb33836040518363ffffffff1660e01b8152600401808373ffffffffffffffffffffffffffffffffffffffff1673ffffffffffffffffffffffffffffffffffffffff16815260200182815260200192505050602060405180830381600087803b15801561497757600080fd5b505af115801561498b573d6000803e3d6000fd5b505050506040513d60208110156149a157600080fd5b81019080805190602001909291905050505050565b60195481565b6060600067ffffffffffffffff811180156149d657600080fd5b50604051908082528060200260200182016040528015614a055781602001602082028036833780820191505090505b5060129080519060200190614a1b929190615f1f565b5060008090505b600f80549050811015614b22576000600f8281548110614a3e57fe5b906000526020600020015490506008600082815260200190815260200160002060000160009054906101000a900473ffffffffffffffffffffffffffffffffffffffff1673ffffffffffffffffffffffffffffffffffffffff168473ffffffffffffffffffffffffffffffffffffffff161415614b145760126008600083815260200190815260200160002060020154600860008481526020019081526020016000206001015481614aec57fe5b0490806001815401808255809150506001900390600052602060002001600090919091909150555b508080600101915050614a22565b506012805480602002602001604051908101604052809291908181526020018280548015614b6f57602002820191906000526020600020905b815481526020019060010190808311614b5b575b50505050509050919050565b600f8181548110614b8857fe5b906000526020600020016000915090505481565b601d5481565b60148181548110614baf57fe5b906000526020600020016000915090505481565b60026000541415614c3c576040517f08c379a000000000000000000000000000000000000000000000000000000000815260040180806020018281038252601f8152602001807f5265656e7472616e637947756172643a207265656e7472616e742063616c6c0081525060200191505060405180910390fd5b600260008190555080600460009054906101000a900473ffffffffffffffffffffffffffffffffffffffff1673ffffffffffffffffffffffffffffffffffffffff166370a08231336040518263ffffffff1660e01b8152600401808273ffffffffffffffffffffffffffffffffffffffff1673ffffffffffffffffffffffffffffffffffffffff16815260200191505060206040518083038186803b158015614ce457600080fd5b505afa158015614cf8573d6000803e3d6000fd5b505050506040513d6020811015614d0e57600080fd5b81019080805190602001909291905050501015614d2a57600080fd5b60118190806001815401808255809150506001900390600052602060002001600090919091909150556011829080600181540180825580915050600190039060005260206000200160009091909190915055600460009054906101000a900473ffffffffffffffffffffffffffffffffffffffff1673ffffffffffffffffffffffffffffffffffffffff166323b872dd3330846040518463ffffffff1660e01b8152600401808473ffffffffffffffffffffffffffffffffffffffff1673ffffffffffffffffffffffffffffffffffffffff1681526020018373ffffffffffffffffffffffffffffffffffffffff1673ffffffffffffffffffffffffffffffffffffffff1681526020018281526020019350505050602060405180830381600087803b158015614e5957600080fd5b505af1158015614e6d573d6000803e3d6000fd5b505050506040513d6020811015614e8357600080fd5b8101908080519060200190929190505050506000828281614ea057fe5b04905060006001905060008090505b60158054905081101561588a5760158181548110614ec957fe5b9060005260206000200154600981905550601a6000600954815260200190815260200160002060020154601d81905550601d548311158015614f0d57506000601d54115b1561587d576000915084601a60006009548152602001908152602001600020600101541115615230576011601a600060095481526020019081526020016000206001015490806001815401808255809150506001900390600052602060002001600090919091909150556011849080600181540180825580915050600190039060005260206000200160009091909190915055600085601a600060095481526020019081526020016000206001015403905080601a60006009548152602001908152602001600020600101819055506011601a60006009548152602001908152602001600020600101549080600181540180825580915050600190039060005260206000200160009091909190915055600460009054906101000a900473ffffffffffffffffffffffffffffffffffffffff1673ffffffffffffffffffffffffffffffffffffffff1663a9059cbb601a6000600954815260200190815260200160002060000160009054906101000a900473ffffffffffffffffffffffffffffffffffffffff16876040518363ffffffff1660e01b8152600401808373ffffffffffffffffffffffffffffffffffffffff1673ffffffffffffffffffffffffffffffffffffffff16815260200182815260200192505050602060405180830381600087803b1580156150fe57600080fd5b505af1158015615112573d6000803e3d6000fd5b505050506040513d602081101561512857600080fd5b810190808051906020019092919050505050600260009054906101000a900473ffffffffffffffffffffffffffffffffffffffff1673ffffffffffffffffffffffffffffffffffffffff1663a9059cbb33601d54888161518457fe5b046040518363ffffffff1660e01b8152600401808373ffffffffffffffffffffffffffffffffffffffff1673ffffffffffffffffffffffffffffffffffffffff16815260200182815260200192505050602060405180830381600087803b1580156151ee57600080fd5b505af1158015615202573d6000803e3d6000fd5b505050506040513d602081101561521857600080fd5b81019080805190602001909291905050505050615878565b84601a6000600954815260200190815260200160002060010154141561552c57600460009054906101000a900473ffffffffffffffffffffffffffffffffffffffff1673ffffffffffffffffffffffffffffffffffffffff1663a9059cbb601a6000600954815260200190815260200160002060000160009054906101000a900473ffffffffffffffffffffffffffffffffffffffff16866040518363ffffffff1660e01b8152600401808373ffffffffffffffffffffffffffffffffffffffff1673ffffffffffffffffffffffffffffffffffffffff16815260200182815260200192505050602060405180830381600087803b15801561533157600080fd5b505af1158015615345573d6000803e3d6000fd5b505050506040513d602081101561535b57600080fd5b810190808051906020019092919050505050600260009054906101000a900473ffffffffffffffffffffffffffffffffffffffff1673ffffffffffffffffffffffffffffffffffffffff1663a9059cbb33601d5487816153b757fe5b046040518363ffffffff1660e01b8152600401808373ffffffffffffffffffffffffffffffffffffffff1673ffffffffffffffffffffffffffffffffffffffff16815260200182815260200192505050602060405180830381600087803b15801561542157600080fd5b505af1158015615435573d6000803e3d6000fd5b505050506040513d602081101561544b57600080fd5b810190808051906020019092919050505050601a60006009548152602001908152602001600020600080820160006101000a81549073ffffffffffffffffffffffffffffffffffffffff021916905560018201600090556002820160009055505060008190505b60016015805490500381101561550557601560018201815481106154d257fe5b9060005260206000200154601582815481106154ea57fe5b906000526020600020018190555080806001019150506154b2565b50601580548061551157fe5b60019003818190600052602060002001600090559055615877565b84601a6000600954815260200190815260200160002060010154101561587657600460009054906101000a900473ffffffffffffffffffffffffffffffffffffffff1673ffffffffffffffffffffffffffffffffffffffff1663a9059cbb601a6000600954815260200190815260200160002060000160009054906101000a900473ffffffffffffffffffffffffffffffffffffffff16601a60006009548152602001908152602001600020600101546040518363ffffffff1660e01b8152600401808373ffffffffffffffffffffffffffffffffffffffff1673ffffffffffffffffffffffffffffffffffffffff16815260200182815260200192505050602060405180830381600087803b15801561564557600080fd5b505af1158015615659573d6000803e3d6000fd5b505050506040513d602081101561566f57600080fd5b810190808051906020019092919050505050600260009054906101000a900473ffffffffffffffffffffffffffffffffffffffff1673ffffffffffffffffffffffffffffffffffffffff1663a9059cbb33601d54601a6000600954815260200190815260200160002060010154816156e357fe5b046040518363ffffffff1660e01b8152600401808373ffffffffffffffffffffffffffffffffffffffff1673ffffffffffffffffffffffffffffffffffffffff16815260200182815260200192505050602060405180830381600087803b15801561574d57600080fd5b505af1158015615761573d6000803e3d6000fd5b505050506040513d602081101561577757600080fd5b810190808051906020019092919050505050601a60006009548152602001908152602001600020600080820160006101000a81549073ffffffffffffffffffffffffffffffffffffffff021916905560018201600090556002820160009055505060008190505b60016015805490500381101561583157601560018201815481106157fe57fe5b90600052602060002001546015828154811061581657fe5b906000526020600020018190555080806001019150506157de565b50601580548061583d57fe5b6001900381819060005260206000200160009055905561585d8385615e2e565b82601a6000600954815260200190815260200160002050505b5b5b61588a565b8080600101915050614eaf565b506000831180156158985750805b156158a8576158a78284615e2e565b5b505060016000819055505050565b600e81815481106158c357fe5b906000526020600020016000915090505481565b80600460009054906101000a900473ffffffffffffffffffffffffffffffffffffffff1673ffffffffffffffffffffffffffffffffffffffff166370a08231336040518263ffffffff1660e01b8152600401808273ffffffffffffffffffffffffffffffffffffffff1673ffffffffffffffffffffffffffffffffffffffff16815260200191505060206040518083038186803b15801561597757600080fd5b505afa15801561598b573d6000803e3d6000fd5b505050506040513d60208110156159a157600080fd5b810190808051906020019092919050505010156159bd57600080fd5b600060055482816159ca57fe5b049050803073ffffffffffffffffffffffffffffffffffffffff163110156159f157600080fd5b600460009054906101000a900473ffffffffffffffffffffffffffffffffffffffff1673ffffffffffffffffffffffffffffffffffffffff166323b872dd3330856040518463ffffffff1660e01b8152600401808473ffffffffffffffffffffffffffffffffffffffff1673ffffffffffffffffffffffffffffffffffffffff1681526020018373ffffffffffffffffffffffffffffffffffffffff1673ffffffffffffffffffffffffffffffffffffffff1681526020018281526020019350505050602060405180830381600087803b158015615ace57600080fd5b505af1158015615ae2573d6000803e3d6000fd5b505050506040513d6020811015615af857600080fd5b8101908080519060200190929190505050503373ffffffffffffffffffffffffffffffffffffffff166108fc829081150290604051600060405180830381858888f19350505050158015615b50573d6000803e3d6000fd5b505050565b601b5481565b60008211615b6857600080fd5b60016018600082825401925050819055506015601854908060018154018082558091505060019003906000526020600020016000909190919091505560405180606001604052803373ffffffffffffffffffffffffffffffffffffffff16815260200182815260200183815250601a6000601854815260200190815260200160002060008201518160000160006101000a81548173ffffffffffffffffffffffffffffffffffffffff021916908373ffffffffffffffffffffffffffffffffffffffff16021790555060208201518160010155604082015181600201559050505050565b60008211615c5957600080fd5b6001600a60008282540192505081905550600e600a54908060018154018082558091505060019003906000526020600020016000909190919091505560405180606001604052803373ffffffffffffffffffffffffffffffffffffffff16815260200182815260200183815250600b6000600a54815260200190815260200160002060008201518160000160006101000a81548173ffffffffffffffffffffffffffffffffffffffff021916908373ffffffffffffffffffffffffffffffffffffffff16021790555060208201518160010155604082015181600201559050505050565b60008211615d4a57600080fd5b6001600660008282540192505081905550600f600654908060018154018082558091505060019003906000526020600020016000909190919091505560405180606001604052803373ffffffffffffffffffffffffffffffffffffffff1681526020018281526020018381525060086000600654815260200190815260200160002060008201518160000160006101000a81548173ffffffffffffffffffffffffffffffffffffffff021916908373ffffffffffffffffffffffffffffffffffffffff16021790555060208201518160010155604082015181600201559050505050565b60008211615e3b57600080fd5b6001601b600082825401925050819055506014601b54908060018154018082558091505060019003906000526020600020016000909190919091505560405180606001604052803373ffffffffffffffffffffffffffffffffffffffff16815260200182815260200183815250601c6000601b54815260200190815260200160002060008201518160000160006101000a81548173ffffffffffffffffffffffffffffffffffffffff021916908373ffffffffffffffffffffffffffffffffffffffff16021790555060208201518160010155604082015181600201559050505050565b828054828255906000526020600020908101928215615f5b579160200282015b82811115615f5a578251825591602001919060010190615f3f565b5b509050615f689190615f6c565b5090565b615f8e91905b80821115615f8a576000816000905550600101615f72565b5090565b9056fea26469706673582212204cfd56f28e6fc839e8a3885762c8077cdcd75b7ef07c31f9fe9a0fbfb4a6fb6a64736f6c63430006080033",
  "immutableReferences": {},
  "source": "pragma solidity >=0.6.8;\n\nimport \"./AToken.sol\";\nimport \"./BToken.sol\";\nimport {ITokenSwap} from \"./interfaces/ITokenSwap.sol\";\nimport {ReentrancyGuard} from \"@openzeppelin/contracts/utils/ReentrancyGuard.sol\";\nimport {SafeMath} from \"@openzeppelin/contracts/math/SafeMath.sol\";\nimport {Math} from \"@openzeppelin/contracts/math/Math.sol\";\n\ncontract TokenSwap is ITokenSwap, ReentrancyGuard {\n    using SafeMath for uint256;\n    using SafeMath for uint8;\n    using Math for uint256;\n\n    string public name = \"TokenSwap Exchange\";\n    AToken public aToken;\n    uint256 public aRate = 1000;\n    BToken public bToken;\n    uint256 public bRate = 1000;\n\n    constructor(AToken _aToken, BToken _bToken) public {\n        //pass the address of the Token in\n        aToken = _aToken;\n        bToken = _bToken;\n    }\n\n    function buyATokens() public payable {\n        // Calculate the number of tokens to buy\n        uint256 tokenAmount = msg.value * aRate; //msg.value = how much ether was sent\n\n        // Require that TokenSwap has enough tokens\n        require(aToken.balanceOf(address(this)) >= tokenAmount);\n\n        // Transfer tokens to the user\n        aToken.transfer(msg.sender, tokenAmount);\n\n        // // emit an event\n        // emit TokensPurchased(msg.sender, address(aToken), tokenAmount, aRate);\n    }\n\n    function sellATokens(uint256 _amount) public {\n        // User can't sell more tokens than they have\n        require(aToken.balanceOf(msg.sender) >= _amount);\n\n        // Calculate the amount of Ether to redeem\n        uint256 etherAmount = _amount / aRate;\n\n        // Require that TokenSwap has enough Ether\n        require(address(this).balance >= etherAmount);\n\n        // Perform sale\n        aToken.transferFrom(msg.sender, address(this), _amount);\n        msg.sender.transfer(etherAmount);\n\n        // // emit an event\n        // emit TokensSold(msg.sender, address(aToken), _amount, aRate);\n    }\n\n    function buyBTokens() public payable {\n        // Calculate the number of tokens to buy\n        uint256 tokenAmount = msg.value * bRate; //msg.value = how much ether was sent\n\n        // Require that TokenSwap has enough tokens\n        require(bToken.balanceOf(address(this)) >= tokenAmount);\n\n        // Transfer tokens to the user\n        bToken.transfer(msg.sender, tokenAmount);\n\n        // // emit an event\n        // emit TokensPurchased(msg.sender, address(bToken), tokenAmount, bRate);\n    }\n\n    function sellBTokens(uint256 _amount) public {\n        // User can't sell more tokens than they have\n        require(bToken.balanceOf(msg.sender) >= _amount);\n\n        // Calculate the amount of Ether to redeem\n        uint256 etherAmount = _amount / bRate;\n\n        // Require that TokenSwap has enough Ether\n        require(address(this).balance >= etherAmount);\n\n        // Perform sale\n        bToken.transferFrom(msg.sender, address(this), _amount);\n        msg.sender.transfer(etherAmount);\n\n        // // emit an event\n        // emit TokensSold(msg.sender, address(bToken), _amount, bRate);\n    }\n\n    ///////////////////////////////////////////////////////////////////////// ORDERBOOK //////////////////////////////////////////////////////////////////////////////////////////\n\n    uint256 public buyCounter = 0;\n    uint256 public minSellRate;\n    mapping(uint256 => NewOrder) public newBuyOrderBook;\n    uint256 public idOfBuyRate;\n\n    uint256 public sellCounter = 0;\n    mapping(uint256 => NewOrder) public newSellOrderBook;\n    uint256 public idOfSellRate;\n    uint256 public maxBuyRate;\n\n    uint256[] public sellrateid;\n    uint256[] public buyrateid;\n\n    uint256[] public amountsell;\n    uint256[] public amountbuy;\n\n    uint256[] buyorderbookArray;\n    uint256[] sellorderbookArray;\n\n    ////////////////////////////////////\n    uint256[] public sellrateidInv;\n    uint256[] public buyrateidInv;\n\n    uint256 public idOfBuyRateInv;\n    uint256 public idOfSellRateInv;\n\n    uint256 public buyCounterInv = 0;\n    uint256 public maxSellRate;\n    mapping(uint256 => NewOrder) public newBuyOrderBookInv;\n\n    uint256 public sellCounterInv = 0;\n    mapping(uint256 => NewOrder) public newSellOrderBookInv;\n    uint256 public minBuyRate;\n\n    ////////////////////////////////////\n\n    function getbuyrate() public returns (uint256[] memory) {\n        return buyrateid;\n    }\n\n    function getsellrate() public returns (uint256[] memory) {\n        return sellrateid;\n    }\n\n    function getbuyrateInv() public returns (uint256[] memory) {\n        return buyrateidInv;\n    }\n\n    function getsellrateInv() public returns (uint256[] memory) {\n        return sellrateidInv;\n    }\n\n    //buy B using A\n    function atob(uint256 b, uint256 a) external override nonReentrant {\n        require(aToken.balanceOf(msg.sender) >= a);\n\n        aToken.transferFrom(msg.sender, address(this), a);\n        // emit ATokensSent(msg.sender, address(this),a);\n        uint256 rate = a / b;\n        bool toAdd = true;\n\n        for (uint256 i = 0; i < sellrateid.length; i++) {\n            idOfSellRate = sellrateid[i];\n            minSellRate = newSellOrderBook[idOfSellRate].rate;\n\n            if (rate >= minSellRate && minSellRate > 0) {\n                //give best order\n                toAdd = false;\n                if (newSellOrderBook[idOfSellRate].amount > b) {\n                    uint256 newAmount = newSellOrderBook[idOfSellRate].amount -\n                        b;\n                    newSellOrderBook[idOfSellRate].amount = newAmount; //replace old amount with new\n                    // transfer\n                    aToken.transfer(newSellOrderBook[idOfSellRate].maker, a);\n                    bToken.transfer(msg.sender, a / minSellRate);\n                    // emit ATokensSent( address(this), newSellOrderBook[idOfSellRate].maker, a);\n                    // emit BTokensSent( address(this), msg.sender,a / minSellRate);\n                } else if (newSellOrderBook[idOfSellRate].amount == b) {\n                    // transfer\n                    aToken.transfer(newSellOrderBook[idOfSellRate].maker, a);\n                    bToken.transfer(msg.sender, a / minSellRate);\n                    // emit ATokensSent( address(this), newSellOrderBook[idOfSellRate].maker, a);\n                    // emit BTokensSent( address(this), msg.sender,a / minSellRate);\n                    // update the minSellRate\n                    delete newSellOrderBook[idOfSellRate];\n                    for (uint256 j = i; j < sellrateid.length - 1; j++) {\n                        sellrateid[j] = sellrateid[j + 1];\n                    }\n                    sellrateid.pop();\n                } else if (newSellOrderBook[idOfSellRate].amount < b) {\n                    aToken.transfer(\n                        newSellOrderBook[idOfSellRate].maker,\n                        newSellOrderBook[idOfSellRate].amount\n                    );\n                    bToken.transfer(\n                        msg.sender,\n                        newSellOrderBook[idOfSellRate].amount / minSellRate\n                    );\n                    // emit ATokensSent( address(this), newSellOrderBook[idOfSellRate].maker, newSellOrderBook[idOfSellRate].amount);\n                    // emit BTokensSent( address(this), msg.sender,newSellOrderBook[idOfSellRate].amount / minSellRate);\n\n                    delete newSellOrderBook[idOfSellRate];\n                    for (uint256 j = i; j < sellrateid.length - 1; j++) {\n                        sellrateid[j] = sellrateid[j + 1];\n                    }\n                    sellrateid.pop();\n                    _atobBook(rate, a - newSellOrderBook[idOfSellRate].amount);\n                }\n                break;\n            }\n        }\n\n        if (a > 0 && toAdd) {\n            _atobBook(rate, a);\n        }\n    }\n\n    function atobInverseRate(uint256 b, uint256 a)\n        external\n        override\n        nonReentrant\n    {\n        require(aToken.balanceOf(msg.sender) >= a, \"hello error here atob\");\n\n        aToken.transferFrom(msg.sender, address(this), a);\n        // emit ATokensSent(msg.sender, address(this),a);\n\n        uint256 rate = b / a;\n        bool toAdd = true;\n\n        for (uint256 i = 0; i < sellrateidInv.length; i++) {\n            idOfSellRate = sellrateidInv[i];\n            maxSellRate = newSellOrderBookInv[idOfSellRate].rate;\n\n            if (rate >= maxSellRate && maxSellRate > 0) {\n                //give best order\n                toAdd = false;\n                if (newSellOrderBookInv[idOfSellRate].amount > b) {\n                    uint256 newAmount = newSellOrderBookInv[idOfSellRate]\n                        .amount - b;\n                    newSellOrderBookInv[idOfSellRate].amount = newAmount; //replace old amount with new\n                    // transfer\n                    aToken.transfer(newSellOrderBookInv[idOfSellRate].maker, a);\n                    bToken.transfer(msg.sender, a * maxSellRate);\n                    // emit ATokensSent( address(this), newSellOrderBookInv[idOfSellRate].maker, a);\n                    // emit BTokensSent( address(this), msg.sender,a / maxSellRate);\n                } else if (newSellOrderBookInv[idOfSellRate].amount == b) {\n                    // transfer\n                    aToken.transfer(newSellOrderBookInv[idOfSellRate].maker, a);\n                    bToken.transfer(msg.sender, a * maxSellRate);\n                    // emit ATokensSent( address(this), newSellOrderBookInv[idOfSellRate].maker, a);\n                    // emit BTokensSent( address(this), msg.sender,a / maxSellRate);\n\n                    delete newSellOrderBookInv[idOfSellRate];\n                    for (uint256 j = i; j < sellrateidInv.length - 1; j++) {\n                        sellrateidInv[j] = sellrateidInv[j + 1];\n                    }\n                    sellrateidInv.pop();\n                } else if (newSellOrderBookInv[idOfSellRate].amount < b) {\n                    aToken.transfer(\n                        newSellOrderBookInv[idOfSellRate].maker,\n                        newSellOrderBookInv[idOfSellRate].amount\n                    );\n                    bToken.transfer(\n                        msg.sender,\n                        newSellOrderBookInv[idOfSellRate].amount * maxSellRate\n                    );\n                    // emit ATokensSent( address(this), newSellOrderBookInv[idOfSellRate].maker, newSellOrderBookInv[idOfSellRate].amount);\n                    // emit BTokensSent( address(this), msg.sender,newSellOrderBookInv[idOfSellRate].amount / maxSellRate);\n\n                    delete newSellOrderBookInv[idOfSellRate];\n                    for (uint256 j = i; j < sellrateidInv.length - 1; j++) {\n                        sellrateidInv[j] = sellrateidInv[j + 1];\n                    }\n                    sellrateidInv.pop();\n                    _atobBookInv(\n                        rate,\n                        a - newSellOrderBookInv[idOfSellRate].amount\n                    );\n                }\n                break;\n            }\n        }\n\n        if (a > 0 && toAdd) {\n            _atobBookInv(rate, a);\n        }\n    }\n\n    function _atobBook(uint256 rate, uint256 a) internal {\n        require(rate > 0);\n        buyCounter += 1;\n        buyrateid.push(buyCounter);\n        newBuyOrderBook[buyCounter] = NewOrder(msg.sender, a, rate);\n    }\n\n    function _atobBookInv(uint256 rate, uint256 a) internal {\n        require(rate > 0);\n        buyCounterInv += 1;\n        buyrateidInv.push(buyCounterInv);\n        newBuyOrderBookInv[buyCounterInv] = NewOrder(msg.sender, a, rate);\n    }\n\n    // buy A using b\n    function btoa(uint256 a, uint256 b) external override nonReentrant {\n        require(bToken.balanceOf(msg.sender) >= b);\n        amountbuy.push(b);\n        amountbuy.push(a);\n        bToken.transferFrom(msg.sender, address(this), b);\n        // emit BTokensSent(msg.sender, address(this),b);\n\n        uint256 rate = a / b;\n        bool toAdd = true;\n\n        for (uint256 i = 0; i < buyrateid.length; i++) {\n            idOfBuyRate = buyrateid[i];\n            maxBuyRate = newBuyOrderBook[idOfBuyRate].rate;\n\n            if (rate <= maxBuyRate && maxBuyRate > 0) {\n                toAdd = false;\n                if (newBuyOrderBook[idOfBuyRate].amount > a) {\n                    amountbuy.push(newBuyOrderBook[idOfBuyRate].amount);\n                    amountbuy.push(b);\n                    uint256 newAmount = newBuyOrderBook[idOfBuyRate].amount - a;\n                    newBuyOrderBook[idOfBuyRate].amount = newAmount; //replace old amount with new\n                    amountbuy.push(newBuyOrderBook[idOfBuyRate].amount);\n                    // transfer\n                    bToken.transfer(newBuyOrderBook[idOfBuyRate].maker, b);\n                    aToken.transfer(msg.sender, b * maxBuyRate);\n                    // emit BTokensSent( address(this), newBuyOrderBook[idOfBuyRate].maker,b);\n                    // emit ATokensSent( address(this), msg.sender,b * maxBuyRate);\n                } else if (newBuyOrderBook[idOfBuyRate].amount == a) {\n                    // transfer\n                    bToken.transfer(newBuyOrderBook[idOfBuyRate].maker, b);\n                    aToken.transfer(msg.sender, b * maxBuyRate);\n                    // emit BTokensSent( address(this), newBuyOrderBook[idOfBuyRate].maker,b);\n                    // emit ATokensSent( address(this), msg.sender,b * maxBuyRate);\n                    // update the minSellRate\n                    delete newBuyOrderBook[idOfBuyRate];\n                    for (uint256 j = i; j < buyrateid.length - 1; j++) {\n                        buyrateid[j] = buyrateid[j + 1];\n                    }\n                    buyrateid.pop();\n                } else if (newBuyOrderBook[idOfBuyRate].amount < a) {\n                    bToken.transfer(\n                        newBuyOrderBook[idOfBuyRate].maker,\n                        newBuyOrderBook[idOfBuyRate].amount\n                    );\n                    aToken.transfer(\n                        msg.sender,\n                        newBuyOrderBook[idOfBuyRate].amount * maxBuyRate\n                    );\n                    // emit BTokensSent( address(this), newBuyOrderBook[idOfBuyRate].maker, newBuyOrderBook[idOfBuyRate].amount);\n                    // emit ATokensSent( address(this), msg.sender,newBuyOrderBook[idOfBuyRate].amount * maxBuyRate);\n                    delete newBuyOrderBook[idOfBuyRate];\n                    for (uint256 j = i; j < buyrateid.length - 1; j++) {\n                        buyrateid[j] = buyrateid[j + 1];\n                    }\n                    buyrateid.pop();\n                    _btoaBook(rate, b - newBuyOrderBook[idOfBuyRate].amount);\n                }\n                break;\n            }\n        }\n\n        if (b > 0 && toAdd) {\n            _btoaBook(rate, b);\n        }\n    }\n\n    function btoaInverseRate(uint256 a, uint256 b)\n        external\n        override\n        nonReentrant\n    {\n        require(bToken.balanceOf(msg.sender) >= b);\n        amountbuy.push(b);\n        amountbuy.push(a);\n        bToken.transferFrom(msg.sender, address(this), b);\n        // emit BTokensSent(msg.sender, address(this),b);\n\n        uint256 rate = b / a;\n        bool toAdd = true;\n\n        for (uint256 i = 0; i < buyrateidInv.length; i++) {\n            idOfBuyRate = buyrateidInv[i];\n            minBuyRate = newBuyOrderBookInv[idOfBuyRate].rate;\n\n            if (rate <= minBuyRate && minBuyRate > 0) {\n                toAdd = false;\n                if (newBuyOrderBookInv[idOfBuyRate].amount > a) {\n                    amountbuy.push(newBuyOrderBookInv[idOfBuyRate].amount);\n                    amountbuy.push(b);\n                    uint256 newAmount = newBuyOrderBookInv[idOfBuyRate].amount -\n                        a;\n                    newBuyOrderBookInv[idOfBuyRate].amount = newAmount; //replace old amount with new\n                    amountbuy.push(newBuyOrderBookInv[idOfBuyRate].amount);\n                    // transfer\n                    bToken.transfer(newBuyOrderBookInv[idOfBuyRate].maker, b);\n                    aToken.transfer(msg.sender, b / minBuyRate);\n\n                    // emit BTokensSent( address(this), newBuyOrderBookInv[idOfBuyRate].maker,b);\n                    // emit ATokensSent( address(this), msg.sender,b * maxBuyRate);\n                } else if (newBuyOrderBookInv[idOfBuyRate].amount == a) {\n                    // transfer\n                    bToken.transfer(newBuyOrderBookInv[idOfBuyRate].maker, b);\n                    aToken.transfer(msg.sender, b / minBuyRate);\n\n                    // emit BTokensSent( address(this), newBuyOrderBookInv[idOfBuyRate].maker,b);\n                    // emit ATokensSent( address(this), msg.sender,b * maxBuyRate);\n                    // update the minSellRate\n                    delete newBuyOrderBookInv[idOfBuyRate];\n                    for (uint256 j = i; j < buyrateidInv.length - 1; j++) {\n                        buyrateidInv[j] = buyrateidInv[j + 1];\n                    }\n                    buyrateidInv.pop();\n                } else if (newBuyOrderBookInv[idOfBuyRate].amount < a) {\n                    bToken.transfer(\n                        newBuyOrderBookInv[idOfBuyRate].maker,\n                        newBuyOrderBookInv[idOfBuyRate].amount\n                    );\n                    aToken.transfer(\n                        msg.sender,\n                        newBuyOrderBookInv[idOfBuyRate].amount / minBuyRate\n                    );\n                    // emit BTokensSent( address(this), newBuyOrderBookInv[idOfBuyRate].maker, newBuyOrderBookInv[idOfBuyRate].amount);\n                    // emit ATokensSent( address(this), msg.sender,newBuyOrderBookInv[idOfBuyRate].amount * maxBuyRate);\n\n                    delete newBuyOrderBookInv[idOfBuyRate];\n                    for (uint256 j = i; j < buyrateidInv.length - 1; j++) {\n                        buyrateidInv[j] = buyrateidInv[j + 1];\n                    }\n                    buyrateidInv.pop();\n                    _btoaBookInv(rate, b);\n                    (rate, b - newBuyOrderBookInv[idOfBuyRate].amount);\n                }\n                break;\n            }\n        }\n\n        if (b > 0 && toAdd) {\n            _btoaBookInv(rate, b);\n        }\n    }\n\n    function _btoaBookInv(uint256 rate, uint256 b) internal {\n        require(rate > 0);\n        sellCounterInv += 1;\n        sellrateidInv.push(sellCounterInv);\n        newSellOrderBookInv[sellCounterInv] = NewOrder(msg.sender, b, rate);\n        // // emit DrawToSellBook(msg.sender, rate, amountSold);\n    }\n\n    function _btoaBook(uint256 rate, uint256 b) internal {\n        require(rate > 0);\n        sellCounter += 1;\n        sellrateid.push(sellCounter);\n        newSellOrderBook[sellCounter] = NewOrder(msg.sender, b, rate);\n        // // emit DrawToSellBook(msg.sender, rate, amountSold);\n    }\n\n    ////////////////////////////////////////////////////////////////////////////////////////////// delete orders  ///////////////////////////////////////////////////////////////////////////////////////////////\n\n    function deleteBuyOrders() public {\n        for (uint256 i = 0; i < buyrateid.length; i++) {\n            uint256 key = buyrateid[i];\n            if (msg.sender == newBuyOrderBook[key].maker) {\n                aToken.transfer(msg.sender, newBuyOrderBook[key].amount);\n                delete newBuyOrderBook[key];\n                for (uint256 j = i; j < buyrateid.length - 1; j++) {\n                    buyrateid[j] = buyrateid[j + 1];\n                }\n                buyrateid.pop();\n                i--;\n            }\n        }\n\n        for (uint256 i = 0; i < buyrateidInv.length; i++) {\n            uint256 key = buyrateidInv[i];\n            if (msg.sender == newBuyOrderBookInv[key].maker) {\n                aToken.transfer(msg.sender, newBuyOrderBookInv[key].amount);\n                delete newBuyOrderBookInv[key];\n                for (uint256 j = i; j < buyrateidInv.length - 1; j++) {\n                    buyrateidInv[j] = buyrateidInv[j + 1];\n                }\n                buyrateidInv.pop();\n                i--;\n            }\n        }\n    }\n\n    function deleteSellOrders() public {\n        for (uint256 i = 0; i < sellrateid.length; i++) {\n            uint256 key = sellrateid[i];\n            if (msg.sender == newSellOrderBook[key].maker) {\n                bToken.transfer(msg.sender, newSellOrderBook[key].amount);\n                delete newSellOrderBook[key];\n                for (uint256 j = i; j < sellrateid.length - 1; j++) {\n                    sellrateid[j] = sellrateid[j + 1];\n                }\n                sellrateid.pop();\n                i--;\n            }\n        }\n\n        for (uint256 i = 0; i < sellrateidInv.length; i++) {\n            uint256 key = sellrateidInv[i];\n            if (msg.sender == newSellOrderBookInv[key].maker) {\n                bToken.transfer(msg.sender, newSellOrderBookInv[key].amount);\n                delete newSellOrderBookInv[key];\n                for (uint256 j = i; j < sellrateidInv.length - 1; j++) {\n                    sellrateidInv[j] = sellrateidInv[j + 1];\n                }\n                sellrateidInv.pop();\n                i--;\n            }\n        }\n    }\n\n    ////////////////////////////////////////////////////////////////////////////////////////////// display orderbooks ///////////////////////////////////////////////////////////////////////////////////////////////\n    function getBuyOrderBook(address account)\n        public\n        returns (uint256[] memory)\n    {\n        buyorderbookArray = new uint256[](0);\n        for (uint256 i = 0; i < buyrateid.length; i++) {\n            uint256 key = buyrateid[i];\n            if (account == newBuyOrderBook[key].maker) {\n                buyorderbookArray.push(\n                    newBuyOrderBook[key].amount / newBuyOrderBook[key].rate\n                );\n            }\n        }\n\n        // for (uint256 j = 0; j < buyrateidInv.length; j++) {\n        //     uint256 key = buyrateidInv[j];\n        //     if (account == newBuyOrderBookInv[key].maker) {\n        //         buyorderbookArray.push(\n        //             newBuyOrderBookInv[key].amount *\n        //                 newBuyOrderBookInv[key].rate\n        //         );\n        //     }\n        // }\n\n        return buyorderbookArray;\n    }\n\n    function getSellOrderBook(address account)\n        public\n        returns (uint256[] memory)\n    {\n        sellorderbookArray = new uint256[](0);\n        for (uint256 i = 0; i < sellrateid.length; i++) {\n            uint256 key = sellrateid[i];\n            if (account == newSellOrderBook[key].maker) {\n                sellorderbookArray.push(\n                    newSellOrderBook[key].amount * newSellOrderBook[key].rate\n                );\n            }\n        }\n\n        // for (uint256 i = 0; i < sellrateidInv.length; i++) {\n        //     uint256 key = sellrateidInv[i];\n        //     if (account == newSellOrderBookInv[key].maker) {\n        //         sellorderbookArray.push(\n        //             newSellOrderBookInv[key].amount /\n        //                 newSellOrderBookInv[key].rate\n        //         );\n        //     }\n        // }\n\n        return sellorderbookArray;\n    }\n}\n",
  "sourcePath": "/Users/weerenteo/Desktop/Dex/Blockchain-DEX/src/contracts/TokenSwap.sol",
  "compiler": {
    "name": "solc",
    "version": "0.6.8+commit.0bbfe453.Emscripten.clang"
  },
  "schemaVersion": "3.4.10",
  "updatedAt": "2022-11-04T14:16:22.564Z",
  "networkType": "ethereum",
  "devdoc": {
    "methods": {}
  },
  "userdoc": {
    "methods": {
      "deleteBuyOrders()": {
        "notice": "/////////////////////////////////////////////////////////////////////////////////////////// delete orders  ///////////////////////////////////////////////////////////////////////////////////////////////"
      },
      "getBuyOrderBook(address)": {
        "notice": "/////////////////////////////////////////////////////////////////////////////////////////// display orderbooks ///////////////////////////////////////////////////////////////////////////////////////////////"
      },
      "getbuyrate()": {
        "notice": "/////////////////////////////////"
      }
    }
  }
}