{
  "contractName": "TokenSwap",
  "abi": [
    {
      "inputs": [
        {
          "internalType": "contract AToken",
          "name": "_aToken",
          "type": "address"
        },
        {
          "internalType": "contract BToken",
          "name": "_bToken",
          "type": "address"
        }
      ],
      "stateMutability": "nonpayable",
      "type": "constructor"
    },
    {
      "anonymous": false,
      "inputs": [
        {
          "indexed": false,
          "internalType": "address",
          "name": "account",
          "type": "address"
        },
        {
          "indexed": false,
          "internalType": "address",
          "name": "token",
          "type": "address"
        },
        {
          "indexed": false,
          "internalType": "uint256",
          "name": "amount",
          "type": "uint256"
        },
        {
          "indexed": false,
          "internalType": "uint256",
          "name": "rate",
          "type": "uint256"
        }
      ],
      "name": "BTokensPurchased",
      "type": "event"
    },
    {
      "anonymous": false,
      "inputs": [
        {
          "indexed": false,
          "internalType": "address",
          "name": "account",
          "type": "address"
        },
        {
          "indexed": false,
          "internalType": "address",
          "name": "token",
          "type": "address"
        },
        {
          "indexed": false,
          "internalType": "uint256",
          "name": "amount",
          "type": "uint256"
        },
        {
          "indexed": false,
          "internalType": "uint256",
          "name": "rate",
          "type": "uint256"
        }
      ],
      "name": "BTokensSold",
      "type": "event"
    },
    {
      "anonymous": false,
      "inputs": [
        {
          "indexed": false,
          "internalType": "address",
          "name": "sender",
          "type": "address"
        },
        {
          "indexed": false,
          "internalType": "uint256",
          "name": "price",
          "type": "uint256"
        },
        {
          "indexed": false,
          "internalType": "uint256",
          "name": "amountOfBaseToken",
          "type": "uint256"
        }
      ],
      "name": "DrawToBuyBook",
      "type": "event"
    },
    {
      "anonymous": false,
      "inputs": [
        {
          "indexed": false,
          "internalType": "address",
          "name": "sender",
          "type": "address"
        },
        {
          "indexed": false,
          "internalType": "uint256",
          "name": "price",
          "type": "uint256"
        },
        {
          "indexed": false,
          "internalType": "uint256",
          "name": "amountOfTradeToken",
          "type": "uint256"
        }
      ],
      "name": "DrawToSellBook",
      "type": "event"
    },
    {
      "anonymous": false,
      "inputs": [
        {
          "indexed": false,
          "internalType": "address",
          "name": "sender",
          "type": "address"
        },
        {
          "indexed": false,
          "internalType": "uint256",
          "name": "price",
          "type": "uint256"
        },
        {
          "indexed": false,
          "internalType": "uint256",
          "name": "amountOfBaseToken",
          "type": "uint256"
        }
      ],
      "name": "PlaceBuyOrder",
      "type": "event"
    },
    {
      "anonymous": false,
      "inputs": [
        {
          "indexed": false,
          "internalType": "address",
          "name": "sender",
          "type": "address"
        },
        {
          "indexed": false,
          "internalType": "uint256",
          "name": "price",
          "type": "uint256"
        },
        {
          "indexed": false,
          "internalType": "uint256",
          "name": "amountOfTradeToken",
          "type": "uint256"
        }
      ],
      "name": "PlaceSellOrder",
      "type": "event"
    },
    {
      "anonymous": false,
      "inputs": [
        {
          "indexed": false,
          "internalType": "address",
          "name": "account",
          "type": "address"
        },
        {
          "indexed": false,
          "internalType": "address",
          "name": "token",
          "type": "address"
        },
        {
          "indexed": false,
          "internalType": "uint256",
          "name": "amount",
          "type": "uint256"
        },
        {
          "indexed": false,
          "internalType": "uint256",
          "name": "rate",
          "type": "uint256"
        }
      ],
      "name": "TokensPurchased",
      "type": "event"
    },
    {
      "anonymous": false,
      "inputs": [
        {
          "indexed": false,
          "internalType": "address",
          "name": "account",
          "type": "address"
        },
        {
          "indexed": false,
          "internalType": "address",
          "name": "token",
          "type": "address"
        },
        {
          "indexed": false,
          "internalType": "uint256",
          "name": "amount",
          "type": "uint256"
        },
        {
          "indexed": false,
          "internalType": "uint256",
          "name": "rate",
          "type": "uint256"
        }
      ],
      "name": "TokensSold",
      "type": "event"
    },
    {
      "inputs": [],
      "name": "aRate",
      "outputs": [
        {
          "internalType": "uint256",
          "name": "",
          "type": "uint256"
        }
      ],
      "stateMutability": "view",
      "type": "function",
      "constant": true
    },
    {
      "inputs": [],
      "name": "aToken",
      "outputs": [
        {
          "internalType": "contract AToken",
          "name": "",
          "type": "address"
        }
      ],
      "stateMutability": "view",
      "type": "function",
      "constant": true
    },
    {
      "inputs": [
        {
          "internalType": "uint256",
          "name": "",
          "type": "uint256"
        }
      ],
      "name": "amountbuy",
      "outputs": [
        {
          "internalType": "uint256",
          "name": "",
          "type": "uint256"
        }
      ],
      "stateMutability": "view",
      "type": "function",
      "constant": true
    },
    {
      "inputs": [
        {
          "internalType": "uint256",
          "name": "",
          "type": "uint256"
        }
      ],
      "name": "amountsell",
      "outputs": [
        {
          "internalType": "uint256",
          "name": "",
          "type": "uint256"
        }
      ],
      "stateMutability": "view",
      "type": "function",
      "constant": true
    },
    {
      "inputs": [],
      "name": "bRate",
      "outputs": [
        {
          "internalType": "uint256",
          "name": "",
          "type": "uint256"
        }
      ],
      "stateMutability": "view",
      "type": "function",
      "constant": true
    },
    {
      "inputs": [],
      "name": "bToken",
      "outputs": [
        {
          "internalType": "contract BToken",
          "name": "",
          "type": "address"
        }
      ],
      "stateMutability": "view",
      "type": "function",
      "constant": true
    },
    {
      "inputs": [],
      "name": "baseToken",
      "outputs": [
        {
          "internalType": "contract IERC20",
          "name": "",
          "type": "address"
        }
      ],
      "stateMutability": "view",
      "type": "function",
      "constant": true
    },
    {
      "inputs": [],
      "name": "buyCounter",
      "outputs": [
        {
          "internalType": "uint256",
          "name": "",
          "type": "uint256"
        }
      ],
      "stateMutability": "view",
      "type": "function",
      "constant": true
    },
    {
      "inputs": [
        {
          "internalType": "uint256",
          "name": "",
          "type": "uint256"
        },
        {
          "internalType": "uint8",
          "name": "",
          "type": "uint8"
        }
      ],
      "name": "buyOrdersInStep",
      "outputs": [
        {
          "internalType": "address",
          "name": "maker",
          "type": "address"
        },
        {
          "internalType": "uint256",
          "name": "amount",
          "type": "uint256"
        }
      ],
      "stateMutability": "view",
      "type": "function",
      "constant": true
    },
    {
      "inputs": [
        {
          "internalType": "uint256",
          "name": "",
          "type": "uint256"
        }
      ],
      "name": "buyOrdersInStepCounter",
      "outputs": [
        {
          "internalType": "uint8",
          "name": "",
          "type": "uint8"
        }
      ],
      "stateMutability": "view",
      "type": "function",
      "constant": true
    },
    {
      "inputs": [
        {
          "internalType": "uint256",
          "name": "",
          "type": "uint256"
        }
      ],
      "name": "buySteps",
      "outputs": [
        {
          "internalType": "uint256",
          "name": "higherPrice",
          "type": "uint256"
        },
        {
          "internalType": "uint256",
          "name": "lowerPrice",
          "type": "uint256"
        },
        {
          "internalType": "uint256",
          "name": "amount",
          "type": "uint256"
        }
      ],
      "stateMutability": "view",
      "type": "function",
      "constant": true
    },
    {
      "inputs": [
        {
          "internalType": "uint256",
          "name": "",
          "type": "uint256"
        }
      ],
      "name": "buyrateid",
      "outputs": [
        {
          "internalType": "uint256",
          "name": "",
          "type": "uint256"
        }
      ],
      "stateMutability": "view",
      "type": "function",
      "constant": true
    },
    {
      "inputs": [],
      "name": "idOfBuyRate",
      "outputs": [
        {
          "internalType": "uint256",
          "name": "",
          "type": "uint256"
        }
      ],
      "stateMutability": "view",
      "type": "function",
      "constant": true
    },
    {
      "inputs": [],
      "name": "idOfSellRate",
      "outputs": [
        {
          "internalType": "uint256",
          "name": "",
          "type": "uint256"
        }
      ],
      "stateMutability": "view",
      "type": "function",
      "constant": true
    },
    {
      "inputs": [],
      "name": "maxBuyPrice",
      "outputs": [
        {
          "internalType": "uint256",
          "name": "",
          "type": "uint256"
        }
      ],
      "stateMutability": "view",
      "type": "function",
      "constant": true
    },
    {
      "inputs": [],
      "name": "maxBuyRate",
      "outputs": [
        {
          "internalType": "uint256",
          "name": "",
          "type": "uint256"
        }
      ],
      "stateMutability": "view",
      "type": "function",
      "constant": true
    },
    {
      "inputs": [],
      "name": "minSellPrice",
      "outputs": [
        {
          "internalType": "uint256",
          "name": "",
          "type": "uint256"
        }
      ],
      "stateMutability": "view",
      "type": "function",
      "constant": true
    },
    {
      "inputs": [],
      "name": "minSellRate",
      "outputs": [
        {
          "internalType": "uint256",
          "name": "",
          "type": "uint256"
        }
      ],
      "stateMutability": "view",
      "type": "function",
      "constant": true
    },
    {
      "inputs": [],
      "name": "name",
      "outputs": [
        {
          "internalType": "string",
          "name": "",
          "type": "string"
        }
      ],
      "stateMutability": "view",
      "type": "function",
      "constant": true
    },
    {
      "inputs": [
        {
          "internalType": "uint256",
          "name": "",
          "type": "uint256"
        }
      ],
      "name": "newBuyOrderBook",
      "outputs": [
        {
          "internalType": "address",
          "name": "maker",
          "type": "address"
        },
        {
          "internalType": "uint256",
          "name": "amount",
          "type": "uint256"
        },
        {
          "internalType": "uint256",
          "name": "rate",
          "type": "uint256"
        }
      ],
      "stateMutability": "view",
      "type": "function",
      "constant": true
    },
    {
      "inputs": [
        {
          "internalType": "uint256",
          "name": "",
          "type": "uint256"
        }
      ],
      "name": "newSellOrderBook",
      "outputs": [
        {
          "internalType": "address",
          "name": "maker",
          "type": "address"
        },
        {
          "internalType": "uint256",
          "name": "amount",
          "type": "uint256"
        },
        {
          "internalType": "uint256",
          "name": "rate",
          "type": "uint256"
        }
      ],
      "stateMutability": "view",
      "type": "function",
      "constant": true
    },
    {
      "inputs": [],
      "name": "sellCounter",
      "outputs": [
        {
          "internalType": "uint256",
          "name": "",
          "type": "uint256"
        }
      ],
      "stateMutability": "view",
      "type": "function",
      "constant": true
    },
    {
      "inputs": [
        {
          "internalType": "uint256",
          "name": "",
          "type": "uint256"
        },
        {
          "internalType": "uint8",
          "name": "",
          "type": "uint8"
        }
      ],
      "name": "sellOrdersInStep",
      "outputs": [
        {
          "internalType": "address",
          "name": "maker",
          "type": "address"
        },
        {
          "internalType": "uint256",
          "name": "amount",
          "type": "uint256"
        }
      ],
      "stateMutability": "view",
      "type": "function",
      "constant": true
    },
    {
      "inputs": [
        {
          "internalType": "uint256",
          "name": "",
          "type": "uint256"
        }
      ],
      "name": "sellOrdersInStepCounter",
      "outputs": [
        {
          "internalType": "uint8",
          "name": "",
          "type": "uint8"
        }
      ],
      "stateMutability": "view",
      "type": "function",
      "constant": true
    },
    {
      "inputs": [
        {
          "internalType": "uint256",
          "name": "",
          "type": "uint256"
        }
      ],
      "name": "sellSteps",
      "outputs": [
        {
          "internalType": "uint256",
          "name": "higherPrice",
          "type": "uint256"
        },
        {
          "internalType": "uint256",
          "name": "lowerPrice",
          "type": "uint256"
        },
        {
          "internalType": "uint256",
          "name": "amount",
          "type": "uint256"
        }
      ],
      "stateMutability": "view",
      "type": "function",
      "constant": true
    },
    {
      "inputs": [
        {
          "internalType": "uint256",
          "name": "",
          "type": "uint256"
        }
      ],
      "name": "sellrateid",
      "outputs": [
        {
          "internalType": "uint256",
          "name": "",
          "type": "uint256"
        }
      ],
      "stateMutability": "view",
      "type": "function",
      "constant": true
    },
    {
      "inputs": [],
      "name": "selltx",
      "outputs": [
        {
          "internalType": "uint256",
          "name": "",
          "type": "uint256"
        }
      ],
      "stateMutability": "view",
      "type": "function",
      "constant": true
    },
    {
      "inputs": [],
      "name": "tradeToken",
      "outputs": [
        {
          "internalType": "contract IERC20",
          "name": "",
          "type": "address"
        }
      ],
      "stateMutability": "view",
      "type": "function",
      "constant": true
    },
    {
      "inputs": [],
      "name": "buyATokens",
      "outputs": [],
      "stateMutability": "payable",
      "type": "function",
      "payable": true
    },
    {
      "inputs": [
        {
          "internalType": "uint256",
          "name": "_rate",
          "type": "uint256"
        }
      ],
      "name": "limitBuyATokens",
      "outputs": [],
      "stateMutability": "payable",
      "type": "function",
      "payable": true
    },
    {
      "inputs": [
        {
          "internalType": "uint256",
          "name": "_amount",
          "type": "uint256"
        }
      ],
      "name": "sellATokens",
      "outputs": [],
      "stateMutability": "nonpayable",
      "type": "function"
    },
    {
      "inputs": [],
      "name": "buyBTokens",
      "outputs": [],
      "stateMutability": "payable",
      "type": "function",
      "payable": true
    },
    {
      "inputs": [
        {
          "internalType": "uint256",
          "name": "_amount",
          "type": "uint256"
        }
      ],
      "name": "sellBTokens",
      "outputs": [],
      "stateMutability": "nonpayable",
      "type": "function"
    },
    {
      "inputs": [],
      "name": "getbuyrate",
      "outputs": [
        {
          "internalType": "uint256[]",
          "name": "",
          "type": "uint256[]"
        }
      ],
      "stateMutability": "nonpayable",
      "type": "function"
    },
    {
      "inputs": [],
      "name": "getsellrate",
      "outputs": [
        {
          "internalType": "uint256[]",
          "name": "",
          "type": "uint256[]"
        }
      ],
      "stateMutability": "nonpayable",
      "type": "function"
    },
    {
      "inputs": [],
      "name": "getamountbuy",
      "outputs": [
        {
          "internalType": "uint256[]",
          "name": "",
          "type": "uint256[]"
        }
      ],
      "stateMutability": "nonpayable",
      "type": "function"
    },
    {
      "inputs": [
        {
          "internalType": "uint256",
          "name": "b",
          "type": "uint256"
        },
        {
          "internalType": "uint256",
          "name": "a",
          "type": "uint256"
        }
      ],
      "name": "atob",
      "outputs": [],
      "stateMutability": "nonpayable",
      "type": "function"
    },
    {
      "inputs": [
        {
          "internalType": "uint256",
          "name": "a",
          "type": "uint256"
        },
        {
          "internalType": "uint256",
          "name": "b",
          "type": "uint256"
        }
      ],
      "name": "btoa",
      "outputs": [],
      "stateMutability": "nonpayable",
      "type": "function"
    },
    {
      "inputs": [
        {
          "internalType": "uint256",
          "name": "price",
          "type": "uint256"
        },
        {
          "internalType": "uint256",
          "name": "amountOfBaseToken",
          "type": "uint256"
        },
        {
          "internalType": "uint256",
          "name": "amount",
          "type": "uint256"
        }
      ],
      "name": "placeBuyOrder",
      "outputs": [],
      "stateMutability": "nonpayable",
      "type": "function"
    },
    {
      "inputs": [
        {
          "internalType": "uint256",
          "name": "price",
          "type": "uint256"
        },
        {
          "internalType": "uint256",
          "name": "amountOfTradeToken",
          "type": "uint256"
        },
        {
          "internalType": "uint256",
          "name": "amount",
          "type": "uint256"
        }
      ],
      "name": "placeSellOrder",
      "outputs": [],
      "stateMutability": "nonpayable",
      "type": "function"
    }
  ],
  "bytecode": "0x60806040526040518060400160405280601a81526020017f546f6b656e5377617020496e7374616e742045786368616e676500000000000081525060039080519060200190620000519291906200014d565b506103e86005556103e86007556000601055600060145560006018553480156200007a57600080fd5b50604051620057af380380620057af83398181016040526040811015620000a057600080fd5b810190808051906020019092919080519060200190929190505050600160008190555081600460006101000a81548173ffffffffffffffffffffffffffffffffffffffff021916908373ffffffffffffffffffffffffffffffffffffffff16021790555080600660006101000a81548173ffffffffffffffffffffffffffffffffffffffff021916908373ffffffffffffffffffffffffffffffffffffffff1602179055505050620001fc565b828054600181600116156101000203166002900490600052602060002090601f016020900481019282601f106200019057805160ff1916838001178555620001c1565b82800160010185558215620001c1579182015b82811115620001c0578251825591602001919060010190620001a3565b5b509050620001d09190620001d4565b5090565b620001f991905b80821115620001f5576000816000905550600101620001db565b5090565b90565b6155a3806200020c6000396000f3fe60806040526004361061023b5760003560e01c806391ceedbf1161012e578063cddfa2a4116100ab578063ec4763b61161006f578063ec4763b614610c57578063f22dda4114610ca6578063f36c758d14610ce1578063f9193df014610d4d578063ff1e086c14610daa5761023b565b8063cddfa2a414610b27578063ce72b86014610b52578063d83678ac14610b5c578063dd7f4e4014610bb3578063e7e8b38214610c025761023b565b8063b2bb39ef116100f2578063b2bb39ef146109e7578063b9a541eb14610a70578063c51b435014610a9b578063c55dae6314610aa5578063c86f663914610afc5761023b565b806391ceedbf146108e4578063947cde381461090f57806399487e881461093a578063a0c1f15e14610965578063a4d0047d146109bc5761023b565b8063540cecb3116101bc5780636e63271d116101805780636e63271d146107675780636e94422c1461079557806376a4202e1461080157806383c25887146108505780638544a5ec1461089f5761023b565b8063540cecb3146105fe5780635632993b1461064d5780636bc69a24146106785780636c0a9daa146107015780636d9521171461073c5761023b565b806333f393ee1161020357806333f393ee146104685780633e2974e7146104ad5780633edec69a146104d8578063433f88da1461050357806350e3d808146105925761023b565b80630446d1c61461024057806304ebe308146102cf57806306fdde0314610324578063180f5842146103b45780632e78cd241461040b575b600080fd5b34801561024c57600080fd5b506102866004803603604081101561026357600080fd5b8101908080359060200190929190803560ff169060200190929190505050610df9565b604051808373ffffffffffffffffffffffffffffffffffffffff1673ffffffffffffffffffffffffffffffffffffffff1681526020018281526020019250505060405180910390f35b3480156102db57600080fd5b50610308600480360360208110156102f257600080fd5b8101908080359060200190929190505050610e4a565b604051808260ff1660ff16815260200191505060405180910390f35b34801561033057600080fd5b50610339610e6a565b6040518080602001828103825283818151815260200191508051906020019080838360005b8381101561037957808201518184015260208101905061035e565b50505050905090810190601f1680156103a65780820380516001836020036101000a031916815260200191505b509250505060405180910390f35b3480156103c057600080fd5b506103c9610f08565b604051808273ffffffffffffffffffffffffffffffffffffffff1673ffffffffffffffffffffffffffffffffffffffff16815260200191505060405180910390f35b34801561041757600080fd5b506104446004803603602081101561042e57600080fd5b8101908080359060200190929190505050610f2e565b60405180848152602001838152602001828152602001935050505060405180910390f35b34801561047457600080fd5b506104ab6004803603604081101561048b57600080fd5b810190808035906020019092919080359060200190929190505050610f58565b005b3480156104b957600080fd5b506104c2611ca1565b6040518082815260200191505060405180910390f35b3480156104e457600080fd5b506104ed611ca7565b6040518082815260200191505060405180910390f35b34801561050f57600080fd5b506105496004803603604081101561052657600080fd5b8101908080359060200190929190803560ff169060200190929190505050611cad565b604051808373ffffffffffffffffffffffffffffffffffffffff1673ffffffffffffffffffffffffffffffffffffffff1681526020018281526020019250505060405180910390f35b34801561059e57600080fd5b506105a7611cfe565b6040518080602001828103825283818151815260200191508051906020019060200280838360005b838110156105ea5780820151818401526020810190506105cf565b505050509050019250505060405180910390f35b34801561060a57600080fd5b506106376004803603602081101561062157600080fd5b8101908080359060200190929190505050611d56565b6040518082815260200191505060405180910390f35b34801561065957600080fd5b50610662611d77565b6040518082815260200191505060405180910390f35b34801561068457600080fd5b506106b16004803603602081101561069b57600080fd5b8101908080359060200190929190505050611d7d565b604051808473ffffffffffffffffffffffffffffffffffffffff1673ffffffffffffffffffffffffffffffffffffffff168152602001838152602001828152602001935050505060405180910390f35b34801561070d57600080fd5b5061073a6004803603602081101561072457600080fd5b8101908080359060200190929190505050611dc7565b005b34801561074857600080fd5b50610751612110565b6040518082815260200191505060405180910390f35b6107936004803603602081101561077d57600080fd5b8101908080359060200190929190505050612116565b005b3480156107a157600080fd5b506107aa612438565b6040518080602001828103825283818151815260200191508051906020019060200280838360005b838110156107ed5780820151818401526020810190506107d2565b505050509050019250505060405180910390f35b34801561080d57600080fd5b5061083a6004803603602081101561082457600080fd5b8101908080359060200190929190505050612490565b6040518082815260200191505060405180910390f35b34801561085c57600080fd5b5061089d6004803603606081101561087357600080fd5b810190808035906020019092919080359060200190929190803590602001909291905050506124b1565b005b3480156108ab57600080fd5b506108e2600480360360408110156108c257600080fd5b810190808035906020019092919080359060200190929190505050612d1f565b005b3480156108f057600080fd5b506108f9613980565b6040518082815260200191505060405180910390f35b34801561091b57600080fd5b50610924613986565b6040518082815260200191505060405180910390f35b34801561094657600080fd5b5061094f61398c565b6040518082815260200191505060405180910390f35b34801561097157600080fd5b5061097a613992565b604051808273ffffffffffffffffffffffffffffffffffffffff1673ffffffffffffffffffffffffffffffffffffffff16815260200191505060405180910390f35b3480156109c857600080fd5b506109d16139b8565b6040518082815260200191505060405180910390f35b3480156109f357600080fd5b50610a2060048036036020811015610a0a57600080fd5b81019080803590602001909291905050506139be565b604051808473ffffffffffffffffffffffffffffffffffffffff1673ffffffffffffffffffffffffffffffffffffffff168152602001838152602001828152602001935050505060405180910390f35b348015610a7c57600080fd5b50610a85613a08565b6040518082815260200191505060405180910390f35b610aa3613a0e565b005b348015610ab157600080fd5b50610aba613cb0565b604051808273ffffffffffffffffffffffffffffffffffffffff1673ffffffffffffffffffffffffffffffffffffffff16815260200191505060405180910390f35b348015610b0857600080fd5b50610b11613cd6565b6040518082815260200191505060405180910390f35b348015610b3357600080fd5b50610b3c613cdc565b6040518082815260200191505060405180910390f35b610b5a613ce2565b005b348015610b6857600080fd5b50610b71613f84565b604051808273ffffffffffffffffffffffffffffffffffffffff1673ffffffffffffffffffffffffffffffffffffffff16815260200191505060405180910390f35b348015610bbf57600080fd5b50610bec60048036036020811015610bd657600080fd5b8101908080359060200190929190505050613faa565b6040518082815260200191505060405180910390f35b348015610c0e57600080fd5b50610c3b60048036036020811015610c2557600080fd5b8101908080359060200190929190505050613fcb565b604051808260ff1660ff16815260200191505060405180910390f35b348015610c6357600080fd5b50610c9060048036036020811015610c7a57600080fd5b8101908080359060200190929190505050613feb565b6040518082815260200191505060405180910390f35b348015610cb257600080fd5b50610cdf60048036036020811015610cc957600080fd5b810190808035906020019092919050505061400c565b005b348015610ced57600080fd5b50610cf6614355565b6040518080602001828103825283818151815260200191508051906020019060200280838360005b83811015610d39578082015181840152602081019050610d1e565b505050509050019250505060405180910390f35b348015610d5957600080fd5b50610d8660048036036020811015610d7057600080fd5b81019080803590602001909291905050506143ad565b60405180848152602001838152602001828152602001935050505060405180910390f35b348015610db657600080fd5b50610df760048036036060811015610dcd57600080fd5b810190808035906020019092919080359060200190929190803590602001909291905050506143d7565b005b600c602052816000526040600020602052806000526040600020600091509150508060000160009054906101000a900473ffffffffffffffffffffffffffffffffffffffff16908060010154905082565b600a6020528060005260406000206000915054906101000a900460ff1681565b60038054600181600116156101000203166002900480601f016020809104026020016040519081016040528092919081815260200182805460018160011615610100020316600290048015610f005780601f10610ed557610100808354040283529160200191610f00565b820191906000526020600020905b815481529060010190602001808311610ee357829003601f168201915b505050505081565b600660009054906101000a900473ffffffffffffffffffffffffffffffffffffffff1681565b60096020528060005260406000206000915090508060000154908060010154908060020154905083565b60026000541415610fd1576040517f08c379a000000000000000000000000000000000000000000000000000000000815260040180806020018281038252601f8152602001807f5265656e7472616e637947756172643a207265656e7472616e742063616c6c0081525060200191505060405180910390fd5b600260008190555080600660009054906101000a900473ffffffffffffffffffffffffffffffffffffffff1673ffffffffffffffffffffffffffffffffffffffff166370a08231336040518263ffffffff1660e01b8152600401808273ffffffffffffffffffffffffffffffffffffffff1673ffffffffffffffffffffffffffffffffffffffff16815260200191505060206040518083038186803b15801561107957600080fd5b505afa15801561108d573d6000803e3d6000fd5b505050506040513d60208110156110a357600080fd5b81019080805190602001909291905050501015611128576040517f08c379a00000000000000000000000000000000000000000000000000000000081526004018080602001828103825260158152602001807f48656c6c6f206572726f7220686572652062746f61000000000000000000000081525060200191505060405180910390fd5b601c819080600181540180825580915050600190039060005260206000200160009091909190915055601c829080600181540180825580915050600190039060005260206000200160009091909190915055600660009054906101000a900473ffffffffffffffffffffffffffffffffffffffff1673ffffffffffffffffffffffffffffffffffffffff166323b872dd3330846040518463ffffffff1660e01b8152600401808473ffffffffffffffffffffffffffffffffffffffff1673ffffffffffffffffffffffffffffffffffffffff1681526020018373ffffffffffffffffffffffffffffffffffffffff1673ffffffffffffffffffffffffffffffffffffffff1681526020018281526020019350505050602060405180830381600087803b15801561125757600080fd5b505af115801561126b573d6000803e3d6000fd5b505050506040513d602081101561128157600080fd5b810190808051906020019092919050505050600081838161129e57fe5b04905060006001905060008090505b601a80549050811015611c7557601a81815481106112c757fe5b906000526020600020015460138190555060126000601354815260200190815260200160002060020154601781905550601754831115801561130b57506000601754115b15611c6857600091508460126000601354815260200190815260200160002060010154111561162757601c601260006013548152602001908152602001600020600101549080600181540180825580915050600190039060005260206000200160009091909190915055601c849080600181540180825580915050600190039060005260206000200160009091909190915055600085601260006013548152602001908152602001600020600101540390508060126000601354815260200190815260200160002060010181905550601c601260006013548152602001908152602001600020600101549080600181540180825580915050600190039060005260206000200160009091909190915055600660009054906101000a900473ffffffffffffffffffffffffffffffffffffffff1673ffffffffffffffffffffffffffffffffffffffff1663a9059cbb60126000601354815260200190815260200160002060000160009054906101000a900473ffffffffffffffffffffffffffffffffffffffff16876040518363ffffffff1660e01b8152600401808373ffffffffffffffffffffffffffffffffffffffff1673ffffffffffffffffffffffffffffffffffffffff16815260200182815260200192505050602060405180830381600087803b1580156114fc57600080fd5b505af1158015611510573d6000803e3d6000fd5b505050506040513d602081101561152657600080fd5b810190808051906020019092919050505050600460009054906101000a900473ffffffffffffffffffffffffffffffffffffffff1673ffffffffffffffffffffffffffffffffffffffff1663a9059cbb3360175488026040518363ffffffff1660e01b8152600401808373ffffffffffffffffffffffffffffffffffffffff1673ffffffffffffffffffffffffffffffffffffffff16815260200182815260200192505050602060405180830381600087803b1580156115e557600080fd5b505af11580156115f9573d6000803e3d6000fd5b505050506040513d602081101561160f57600080fd5b81019080805190602001909291905050505050611c63565b8460126000601354815260200190815260200160002060010154141561191c57600660009054906101000a900473ffffffffffffffffffffffffffffffffffffffff1673ffffffffffffffffffffffffffffffffffffffff1663a9059cbb60126000601354815260200190815260200160002060000160009054906101000a900473ffffffffffffffffffffffffffffffffffffffff16866040518363ffffffff1660e01b8152600401808373ffffffffffffffffffffffffffffffffffffffff1673ffffffffffffffffffffffffffffffffffffffff16815260200182815260200192505050602060405180830381600087803b15801561172857600080fd5b505af115801561173c573d6000803e3d6000fd5b505050506040513d602081101561175257600080fd5b810190808051906020019092919050505050600460009054906101000a900473ffffffffffffffffffffffffffffffffffffffff1673ffffffffffffffffffffffffffffffffffffffff1663a9059cbb3360175487026040518363ffffffff1660e01b8152600401808373ffffffffffffffffffffffffffffffffffffffff1673ffffffffffffffffffffffffffffffffffffffff16815260200182815260200192505050602060405180830381600087803b15801561181157600080fd5b505af1158015611825573d6000803e3d6000fd5b505050506040513d602081101561183b57600080fd5b810190808051906020019092919050505050601260006013548152602001908152602001600020600080820160006101000a81549073ffffffffffffffffffffffffffffffffffffffff021916905560018201600090556002820160009055505060008190505b6001601a80549050038110156118f557601a60018201815481106118c257fe5b9060005260206000200154601a82815481106118da57fe5b906000526020600020018190555080806001019150506118a2565b50601a80548061190157fe5b60019003818190600052602060002001600090559055611c62565b84601260006013548152602001908152602001600020600101541015611c6157600660009054906101000a900473ffffffffffffffffffffffffffffffffffffffff1673ffffffffffffffffffffffffffffffffffffffff1663a9059cbb60126000601354815260200190815260200160002060000160009054906101000a900473ffffffffffffffffffffffffffffffffffffffff16601260006013548152602001908152602001600020600101546040518363ffffffff1660e01b8152600401808373ffffffffffffffffffffffffffffffffffffffff1673ffffffffffffffffffffffffffffffffffffffff16815260200182815260200192505050602060405180830381600087803b158015611a3557600080fd5b505af1158015611a49573d6000803e3d6000fd5b505050506040513d6020811015611a5f57600080fd5b810190808051906020019092919050505050600460009054906101000a900473ffffffffffffffffffffffffffffffffffffffff1673ffffffffffffffffffffffffffffffffffffffff1663a9059cbb3360175460126000601354815260200190815260200160002060010154026040518363ffffffff1660e01b8152600401808373ffffffffffffffffffffffffffffffffffffffff1673ffffffffffffffffffffffffffffffffffffffff16815260200182815260200192505050602060405180830381600087803b158015611b3657600080fd5b505af1158015611b4a573d6000803e3d6000fd5b505050506040513d6020811015611b6057600080fd5b810190808051906020019092919050505050601260006013548152602001908152602001600020600080820160006101000a81549073ffffffffffffffffffffffffffffffffffffffff021916905560018201600090556002820160009055505060008190505b6001601a8054905003811015611c1a57601a6001820181548110611be757fe5b9060005260206000200154601a8281548110611bff57fe5b90600052602060002001819055508080600101915050611bc7565b50601a805480611c2657fe5b60019003818190600052602060002001600090559055611c6083601260006013548152602001908152602001600020600101548603614b2f565b5b5b5b611c75565b80806001019150506112ad565b50600083118015611c835750805b15611c9357611c928284614b2f565b5b505060016000819055505050565b60055481565b60115481565b6008602052816000526040600020602052806000526040600020600091509150508060000160009054906101000a900473ffffffffffffffffffffffffffffffffffffffff16908060010154905082565b60606019805480602002602001604051908101604052809291908181526020018280548015611d4c57602002820191906000526020600020905b815481526020019060010190808311611d38575b5050505050905090565b601b8181548110611d6357fe5b906000526020600020016000915090505481565b60165481565b60156020528060005260406000206000915090508060000160009054906101000a900473ffffffffffffffffffffffffffffffffffffffff16908060010154908060020154905083565b80600460009054906101000a900473ffffffffffffffffffffffffffffffffffffffff1673ffffffffffffffffffffffffffffffffffffffff166370a08231336040518263ffffffff1660e01b8152600401808273ffffffffffffffffffffffffffffffffffffffff1673ffffffffffffffffffffffffffffffffffffffff16815260200191505060206040518083038186803b158015611e6757600080fd5b505afa158015611e7b573d6000803e3d6000fd5b505050506040513d6020811015611e9157600080fd5b81019080805190602001909291905050501015611ead57600080fd5b60006005548281611eba57fe5b049050803073ffffffffffffffffffffffffffffffffffffffff16311015611ee157600080fd5b600460009054906101000a900473ffffffffffffffffffffffffffffffffffffffff1673ffffffffffffffffffffffffffffffffffffffff166323b872dd3330856040518463ffffffff1660e01b8152600401808473ffffffffffffffffffffffffffffffffffffffff1673ffffffffffffffffffffffffffffffffffffffff1681526020018373ffffffffffffffffffffffffffffffffffffffff1673ffffffffffffffffffffffffffffffffffffffff1681526020018281526020019350505050602060405180830381600087803b158015611fbe57600080fd5b505af1158015611fd2573d6000803e3d6000fd5b505050506040513d6020811015611fe857600080fd5b8101908080519060200190929190505050503373ffffffffffffffffffffffffffffffffffffffff166108fc829081150290604051600060405180830381858888f19350505050158015612040573d6000803e3d6000fd5b507f697c42d55a5e1fed3f464ec6f38b32546a0bd368dc8068b065c67566d73f329033600460009054906101000a900473ffffffffffffffffffffffffffffffffffffffff1684600554604051808573ffffffffffffffffffffffffffffffffffffffff1673ffffffffffffffffffffffffffffffffffffffff1681526020018473ffffffffffffffffffffffffffffffffffffffff1673ffffffffffffffffffffffffffffffffffffffff16815260200183815260200182815260200194505050505060405180910390a15050565b600b5481565b6000612120614c20565b905081811015612198576040517f08c379a00000000000000000000000000000000000000000000000000000000081526004018080602001828103825260048152602001807f6661696c0000000000000000000000000000000000000000000000000000000081525060200191505060405180910390fd5b6000813402905080600460009054906101000a900473ffffffffffffffffffffffffffffffffffffffff1673ffffffffffffffffffffffffffffffffffffffff166370a08231306040518263ffffffff1660e01b8152600401808273ffffffffffffffffffffffffffffffffffffffff1673ffffffffffffffffffffffffffffffffffffffff16815260200191505060206040518083038186803b15801561223f57600080fd5b505afa158015612253573d6000803e3d6000fd5b505050506040513d602081101561226957600080fd5b8101908080519060200190929190505050101561228557600080fd5b600460009054906101000a900473ffffffffffffffffffffffffffffffffffffffff1673ffffffffffffffffffffffffffffffffffffffff1663a9059cbb33836040518363ffffffff1660e01b8152600401808373ffffffffffffffffffffffffffffffffffffffff1673ffffffffffffffffffffffffffffffffffffffff16815260200182815260200192505050602060405180830381600087803b15801561232e57600080fd5b505af1158015612342573d6000803e3d6000fd5b505050506040513d602081101561235857600080fd5b8101908080519060200190929190505050507f6faf93231a456e552dbc9961f58d9713ee4f2e69d15f1975b050ef0911053a7b33600460009054906101000a900473ffffffffffffffffffffffffffffffffffffffff168385604051808573ffffffffffffffffffffffffffffffffffffffff1673ffffffffffffffffffffffffffffffffffffffff1681526020018473ffffffffffffffffffffffffffffffffffffffff1673ffffffffffffffffffffffffffffffffffffffff16815260200183815260200182815260200194505050505060405180910390a1505050565b6060601a80548060200260200160405190810160405280929190818152602001828054801561248657602002820191906000526020600020905b815481526020019060010190808311612472575b5050505050905090565b601c818154811061249d57fe5b906000526020600020016000915090505481565b6002600054141561252a576040517f08c379a000000000000000000000000000000000000000000000000000000000815260040180806020018281038252601f8152602001807f5265656e7472616e637947756172643a207265656e7472616e742063616c6c0081525060200191505060405180910390fd5b600260008190555081600460009054906101000a900473ffffffffffffffffffffffffffffffffffffffff1673ffffffffffffffffffffffffffffffffffffffff166370a08231336040518263ffffffff1660e01b8152600401808273ffffffffffffffffffffffffffffffffffffffff1673ffffffffffffffffffffffffffffffffffffffff16815260200191505060206040518083038186803b1580156125d257600080fd5b505afa1580156125e6573d6000803e3d6000fd5b505050506040513d60208110156125fc57600080fd5b8101908080519060200190929190505050101561261857600080fd5b600460009054906101000a900473ffffffffffffffffffffffffffffffffffffffff1673ffffffffffffffffffffffffffffffffffffffff166323b872dd3330856040518463ffffffff1660e01b8152600401808473ffffffffffffffffffffffffffffffffffffffff1673ffffffffffffffffffffffffffffffffffffffff1681526020018373ffffffffffffffffffffffffffffffffffffffff1673ffffffffffffffffffffffffffffffffffffffff1681526020018281526020019350505050602060405180830381600087803b1580156126f557600080fd5b505af1158015612709573d6000803e3d6000fd5b505050506040513d602081101561271f57600080fd5b8101908080519060200190929190505050507f395c1684516ae2d9902cf8f721a9ca0a0ee575e9381b5e0e11e129ba10904579338484604051808473ffffffffffffffffffffffffffffffffffffffff1673ffffffffffffffffffffffffffffffffffffffff168152602001838152602001828152602001935050505060405180910390a16000600f54905060008390506000600f541180156127c45750600f548510155b15612cfc575b6000811180156127da5750848211155b80156127e7575060008214155b15612cfb576000600190506000600d60008581526020019081526020016000206000015490505b600e600085815260200190815260200160002060009054906101000a900460ff1660ff168260ff16111580156128445750600083115b15612cf157600c600085815260200190815260200160002060008360ff1660ff168152602001908152602001600020600101548310612c2d57600e600085815260200190815260200160002060009054906101000a900460ff1660ff168260ff1614156129075760008111156128d1576000600d6000838152602001908152602001600020600101819055505b600d600085815260200190815260200160002060008082016000905560018201600090556002820160009055505080600f819055505b612947600c600086815260200190815260200160002060008460ff1660ff1681526020019081526020016000206001015484614ca590919063ffffffff16565b9250600460009054906101000a900473ffffffffffffffffffffffffffffffffffffffff1673ffffffffffffffffffffffffffffffffffffffff1663a9059cbb600c600087815260200190815260200160002060008560ff1660ff16815260200190815260200160002060000160009054906101000a900473ffffffffffffffffffffffffffffffffffffffff16600c600088815260200190815260200160002060008660ff1660ff168152602001908152602001600020600101546040518363ffffffff1660e01b8152600401808373ffffffffffffffffffffffffffffffffffffffff1673ffffffffffffffffffffffffffffffffffffffff16815260200182815260200192505050602060405180830381600087803b158015612a6c57600080fd5b505af1158015612a80573d6000803e3d6000fd5b505050506040513d6020811015612a9657600080fd5b810190808051906020019092919050505050600c600085815260200190815260200160002060008360ff1660ff168152602001908152602001600020600080820160006101000a81549073ffffffffffffffffffffffffffffffffffffffff0219169055600182016000905550506001600e600086815260200190815260200160002060008282829054906101000a900460ff160392506101000a81548160ff021916908360ff160217905550600660009054906101000a900473ffffffffffffffffffffffffffffffffffffffff1673ffffffffffffffffffffffffffffffffffffffff1663a9059cbb33866040518363ffffffff1660e01b8152600401808373ffffffffffffffffffffffffffffffffffffffff1673ffffffffffffffffffffffffffffffffffffffff16815260200182815260200192505050602060405180830381600087803b158015612bec57600080fd5b505af1158015612c00573d6000803e3d6000fd5b505050506040513d6020811015612c1657600080fd5b810190808051906020019092919050505050612ce6565b612c5683600d600087815260200190815260200160002060020154614ca590919063ffffffff16565b600d600086815260200190815260200160002060020181905550612cb083600c600087815260200190815260200160002060008560ff1660ff16815260200190815260200160002060010154614ca590919063ffffffff16565b600c600086815260200190815260200160002060008460ff1660ff16815260200190815260200160002060010181905550600092505b60018201915061280e565b80935050506127ca565b5b6000811115612d1057612d0f8582614d28565b5b50506001600081905550505050565b60026000541415612d98576040517f08c379a000000000000000000000000000000000000000000000000000000000815260040180806020018281038252601f8152602001807f5265656e7472616e637947756172643a207265656e7472616e742063616c6c0081525060200191505060405180910390fd5b600260008190555080600460009054906101000a900473ffffffffffffffffffffffffffffffffffffffff1673ffffffffffffffffffffffffffffffffffffffff166370a08231336040518263ffffffff1660e01b8152600401808273ffffffffffffffffffffffffffffffffffffffff1673ffffffffffffffffffffffffffffffffffffffff16815260200191505060206040518083038186803b158015612e4057600080fd5b505afa158015612e54573d6000803e3d6000fd5b505050506040513d6020811015612e6a57600080fd5b81019080805190602001909291905050501015612eef576040517f08c379a00000000000000000000000000000000000000000000000000000000081526004018080602001828103825260158152602001807f68656c6c6f206572726f7220686572652061746f62000000000000000000000081525060200191505060405180910390fd5b600460009054906101000a900473ffffffffffffffffffffffffffffffffffffffff1673ffffffffffffffffffffffffffffffffffffffff166323b872dd3330846040518463ffffffff1660e01b8152600401808473ffffffffffffffffffffffffffffffffffffffff1673ffffffffffffffffffffffffffffffffffffffff1681526020018373ffffffffffffffffffffffffffffffffffffffff1673ffffffffffffffffffffffffffffffffffffffff1681526020018281526020019350505050602060405180830381600087803b158015612fcc57600080fd5b505af1158015612fe0573d6000803e3d6000fd5b505050506040513d6020811015612ff657600080fd5b810190808051906020019092919050505050600082828161301357fe5b04905060006001905060008090505b601980549050811015613954576019818154811061303c57fe5b906000526020600020015460168190555060156000601654815260200190815260200160002060020154601181905550601154831015801561308057506000601154115b156139475760009150846015600060165481526020019081526020016000206001015411156132f857600085601560006016548152602001908152602001600020600101540390508060156000601654815260200190815260200160002060010181905550600460009054906101000a900473ffffffffffffffffffffffffffffffffffffffff1673ffffffffffffffffffffffffffffffffffffffff1663a9059cbb60156000601654815260200190815260200160002060000160009054906101000a900473ffffffffffffffffffffffffffffffffffffffff16876040518363ffffffff1660e01b8152600401808373ffffffffffffffffffffffffffffffffffffffff1673ffffffffffffffffffffffffffffffffffffffff16815260200182815260200192505050602060405180830381600087803b1580156131c657600080fd5b505af11580156131da573d6000803e3d6000fd5b505050506040513d60208110156131f057600080fd5b810190808051906020019092919050505050600660009054906101000a900473ffffffffffffffffffffffffffffffffffffffff1673ffffffffffffffffffffffffffffffffffffffff1663a9059cbb33601154888161324c57fe5b046040518363ffffffff1660e01b8152600401808373ffffffffffffffffffffffffffffffffffffffff1673ffffffffffffffffffffffffffffffffffffffff16815260200182815260200192505050602060405180830381600087803b1580156132b657600080fd5b505af11580156132ca573d6000803e3d6000fd5b505050506040513d60208110156132e057600080fd5b81019080805190602001909291905050505050613942565b846015600060165481526020019081526020016000206001015414156135f457600460009054906101000a900473ffffffffffffffffffffffffffffffffffffffff1673ffffffffffffffffffffffffffffffffffffffff1663a9059cbb60156000601654815260200190815260200160002060000160009054906101000a900473ffffffffffffffffffffffffffffffffffffffff16866040518363ffffffff1660e01b8152600401808373ffffffffffffffffffffffffffffffffffffffff1673ffffffffffffffffffffffffffffffffffffffff16815260200182815260200192505050602060405180830381600087803b1580156133f957600080fd5b505af115801561340d573d6000803e3d6000fd5b505050506040513d602081101561342357600080fd5b810190808051906020019092919050505050600660009054906101000a900473ffffffffffffffffffffffffffffffffffffffff1673ffffffffffffffffffffffffffffffffffffffff1663a9059cbb33601154878161347f57fe5b046040518363ffffffff1660e01b8152600401808373ffffffffffffffffffffffffffffffffffffffff1673ffffffffffffffffffffffffffffffffffffffff16815260200182815260200192505050602060405180830381600087803b1580156134e957600080fd5b505af11580156134fd573d6000803e3d6000fd5b505050506040513d602081101561351357600080fd5b810190808051906020019092919050505050601560006016548152602001908152602001600020600080820160006101000a81549073ffffffffffffffffffffffffffffffffffffffff021916905560018201600090556002820160009055505060008190505b6001601980549050038110156135cd576019600182018154811061359a57fe5b9060005260206000200154601982815481106135b257fe5b9060005260206000200181905550808060010191505061357a565b5060198054806135d957fe5b60019003818190600052602060002001600090559055613941565b8460156000601654815260200190815260200160002060010154101561394057600460009054906101000a900473ffffffffffffffffffffffffffffffffffffffff1673ffffffffffffffffffffffffffffffffffffffff1663a9059cbb60156000601654815260200190815260200160002060000160009054906101000a900473ffffffffffffffffffffffffffffffffffffffff16601560006016548152602001908152602001600020600101546040518363ffffffff1660e01b8152600401808373ffffffffffffffffffffffffffffffffffffffff1673ffffffffffffffffffffffffffffffffffffffff16815260200182815260200192505050602060405180830381600087803b15801561370d57600080fd5b505af1158015613721573d6000803e3d6000fd5b505050506040513d602081101561373757600080fd5b810190808051906020019092919050505050600660009054906101000a900473ffffffffffffffffffffffffffffffffffffffff1673ffffffffffffffffffffffffffffffffffffffff1663a9059cbb3360115460156000601654815260200190815260200160002060010154816137ab57fe5b046040518363ffffffff1660e01b8152600401808373ffffffffffffffffffffffffffffffffffffffff1673ffffffffffffffffffffffffffffffffffffffff16815260200182815260200192505050602060405180830381600087803b15801561381557600080fd5b505af1158015613829573d6000803e3d6000fd5b505050506040513d602081101561383f57600080fd5b810190808051906020019092919050505050601560006016548152602001908152602001600020600080820160006101000a81549073ffffffffffffffffffffffffffffffffffffffff021916905560018201600090556002820160009055505060008190505b6001601980549050038110156138f957601960018201815481106138c657fe5b9060005260206000200154601982815481106138de57fe5b906000526020600020018190555080806001019150506138a6565b50601980548061390557fe5b6001900381819060005260206000200160009055905561393f8360156000601654815260200190815260200160002060010154860361508f565b5b5b5b613954565b8080600101915050613022565b506000831180156139625750805b1561397257613971828461508f565b5b505060016000819055505050565b60105481565b60185481565b600f5481565b600460009054906101000a900473ffffffffffffffffffffffffffffffffffffffff1681565b60145481565b60126020528060005260406000206000915090508060000160009054906101000a900473ffffffffffffffffffffffffffffffffffffffff16908060010154908060020154905083565b60075481565b60006005543402905080600460009054906101000a900473ffffffffffffffffffffffffffffffffffffffff1673ffffffffffffffffffffffffffffffffffffffff166370a08231306040518263ffffffff1660e01b8152600401808273ffffffffffffffffffffffffffffffffffffffff1673ffffffffffffffffffffffffffffffffffffffff16815260200191505060206040518083038186803b158015613ab757600080fd5b505afa158015613acb573d6000803e3d6000fd5b505050506040513d6020811015613ae157600080fd5b81019080805190602001909291905050501015613afd57600080fd5b600460009054906101000a900473ffffffffffffffffffffffffffffffffffffffff1673ffffffffffffffffffffffffffffffffffffffff1663a9059cbb33836040518363ffffffff1660e01b8152600401808373ffffffffffffffffffffffffffffffffffffffff1673ffffffffffffffffffffffffffffffffffffffff16815260200182815260200192505050602060405180830381600087803b158015613ba657600080fd5b505af1158015613bba573d6000803e3d6000fd5b505050506040513d6020811015613bd057600080fd5b8101908080519060200190929190505050507f6faf93231a456e552dbc9961f58d9713ee4f2e69d15f1975b050ef0911053a7b33600460009054906101000a900473ffffffffffffffffffffffffffffffffffffffff1683600554604051808573ffffffffffffffffffffffffffffffffffffffff1673ffffffffffffffffffffffffffffffffffffffff1681526020018473ffffffffffffffffffffffffffffffffffffffff1673ffffffffffffffffffffffffffffffffffffffff16815260200183815260200182815260200194505050505060405180910390a150565b600260009054906101000a900473ffffffffffffffffffffffffffffffffffffffff1681565b60175481565b60135481565b60006007543402905080600660009054906101000a900473ffffffffffffffffffffffffffffffffffffffff1673ffffffffffffffffffffffffffffffffffffffff166370a08231306040518263ffffffff1660e01b8152600401808273ffffffffffffffffffffffffffffffffffffffff1673ffffffffffffffffffffffffffffffffffffffff16815260200191505060206040518083038186803b158015613d8b57600080fd5b505afa158015613d9f573d6000803e3d6000fd5b505050506040513d6020811015613db557600080fd5b81019080805190602001909291905050501015613dd157600080fd5b600660009054906101000a900473ffffffffffffffffffffffffffffffffffffffff1673ffffffffffffffffffffffffffffffffffffffff1663a9059cbb33836040518363ffffffff1660e01b8152600401808373ffffffffffffffffffffffffffffffffffffffff1673ffffffffffffffffffffffffffffffffffffffff16815260200182815260200192505050602060405180830381600087803b158015613e7a57600080fd5b505af1158015613e8e573d6000803e3d6000fd5b505050506040513d6020811015613ea457600080fd5b8101908080519060200190929190505050507f6faf93231a456e552dbc9961f58d9713ee4f2e69d15f1975b050ef0911053a7b33600660009054906101000a900473ffffffffffffffffffffffffffffffffffffffff1683600754604051808573ffffffffffffffffffffffffffffffffffffffff1673ffffffffffffffffffffffffffffffffffffffff1681526020018473ffffffffffffffffffffffffffffffffffffffff1673ffffffffffffffffffffffffffffffffffffffff16815260200183815260200182815260200194505050505060405180910390a150565b600160009054906101000a900473ffffffffffffffffffffffffffffffffffffffff1681565b601a8181548110613fb757fe5b906000526020600020016000915090505481565b600e6020528060005260406000206000915054906101000a900460ff1681565b60198181548110613ff857fe5b906000526020600020016000915090505481565b80600660009054906101000a900473ffffffffffffffffffffffffffffffffffffffff1673ffffffffffffffffffffffffffffffffffffffff166370a08231336040518263ffffffff1660e01b8152600401808273ffffffffffffffffffffffffffffffffffffffff1673ffffffffffffffffffffffffffffffffffffffff16815260200191505060206040518083038186803b1580156140ac57600080fd5b505afa1580156140c0573d6000803e3d6000fd5b505050506040513d60208110156140d657600080fd5b810190808051906020019092919050505010156140f257600080fd5b600060075482816140ff57fe5b049050803073ffffffffffffffffffffffffffffffffffffffff1631101561412657600080fd5b600660009054906101000a900473ffffffffffffffffffffffffffffffffffffffff1673ffffffffffffffffffffffffffffffffffffffff166323b872dd3330856040518463ffffffff1660e01b8152600401808473ffffffffffffffffffffffffffffffffffffffff1673ffffffffffffffffffffffffffffffffffffffff1681526020018373ffffffffffffffffffffffffffffffffffffffff1673ffffffffffffffffffffffffffffffffffffffff1681526020018281526020019350505050602060405180830381600087803b15801561420357600080fd5b505af1158015614217573d6000803e3d6000fd5b505050506040513d602081101561422d57600080fd5b8101908080519060200190929190505050503373ffffffffffffffffffffffffffffffffffffffff166108fc829081150290604051600060405180830381858888f19350505050158015614285573d6000803e3d6000fd5b507f697c42d55a5e1fed3f464ec6f38b32546a0bd368dc8068b065c67566d73f329033600660009054906101000a900473ffffffffffffffffffffffffffffffffffffffff1684600754604051808573ffffffffffffffffffffffffffffffffffffffff1673ffffffffffffffffffffffffffffffffffffffff1681526020018473ffffffffffffffffffffffffffffffffffffffff1673ffffffffffffffffffffffffffffffffffffffff16815260200183815260200182815260200194505050505060405180910390a15050565b6060601c8054806020026020016040519081016040528092919081815260200182805480156143a357602002820191906000526020600020905b81548152602001906001019080831161438f575b5050505050905090565b600d6020528060005260406000206000915090508060000154908060010154908060020154905083565b60026000541415614450576040517f08c379a000000000000000000000000000000000000000000000000000000000815260040180806020018281038252601f8152602001807f5265656e7472616e637947756172643a207265656e7472616e742063616c6c0081525060200191505060405180910390fd5b6002600081905550600660009054906101000a900473ffffffffffffffffffffffffffffffffffffffff1673ffffffffffffffffffffffffffffffffffffffff166323b872dd3330856040518463ffffffff1660e01b8152600401808473ffffffffffffffffffffffffffffffffffffffff1673ffffffffffffffffffffffffffffffffffffffff1681526020018373ffffffffffffffffffffffffffffffffffffffff1673ffffffffffffffffffffffffffffffffffffffff1681526020018281526020019350505050602060405180830381600087803b15801561453557600080fd5b505af1158015614549573d6000803e3d6000fd5b505050506040513d602081101561455f57600080fd5b8101908080519060200190929190505050507fb7dbff96891782d962607d023b4273634da23cbf026a06aeffac260cd497a88b338484604051808473ffffffffffffffffffffffffffffffffffffffff1673ffffffffffffffffffffffffffffffffffffffff168152602001838152602001828152602001935050505060405180910390a16000600b54905060008390506000600b541180156146045750600b548511155b15614b0c575b60008111801561461a5750848210155b8015614627575060008214155b15614b0b576000600190506000600960008581526020019081526020016000206001015490505b600a600085815260200190815260200160002060009054906101000a900460ff1660ff168260ff16111580156146845750600083115b15614b01576008600085815260200190815260200160002060008360ff1660ff168152602001908152602001600020600101548310614a5d57600a600085815260200190815260200160002060009054906101000a900460ff1660ff168260ff16141561474757600081111561471157600060096000838152602001908152602001600020600001819055505b6009600085815260200190815260200160002060008082016000905560018201600090556002820160009055505080600b819055505b6008600085815260200190815260200160002060008360ff1660ff1681526020019081526020016000206001015483039250600660009054906101000a900473ffffffffffffffffffffffffffffffffffffffff1673ffffffffffffffffffffffffffffffffffffffff1663a9059cbb6008600087815260200190815260200160002060008560ff1660ff16815260200190815260200160002060000160009054906101000a900473ffffffffffffffffffffffffffffffffffffffff166008600088815260200190815260200160002060008660ff1660ff168152602001908152602001600020600101546040518363ffffffff1660e01b8152600401808373ffffffffffffffffffffffffffffffffffffffff1673ffffffffffffffffffffffffffffffffffffffff16815260200182815260200192505050602060405180830381600087803b15801561489c57600080fd5b505af11580156148b0573d6000803e3d6000fd5b505050506040513d60208110156148c657600080fd5b8101908080519060200190929190505050506008600085815260200190815260200160002060008360ff1660ff168152602001908152602001600020600080820160006101000a81549073ffffffffffffffffffffffffffffffffffffffff0219169055600182016000905550506001600a600086815260200190815260200160002060008282829054906101000a900460ff160392506101000a81548160ff021916908360ff160217905550600460009054906101000a900473ffffffffffffffffffffffffffffffffffffffff1673ffffffffffffffffffffffffffffffffffffffff1663a9059cbb33866040518363ffffffff1660e01b8152600401808373ffffffffffffffffffffffffffffffffffffffff1673ffffffffffffffffffffffffffffffffffffffff16815260200182815260200192505050602060405180830381600087803b158015614a1c57600080fd5b505af1158015614a30573d6000803e3d6000fd5b505050506040513d6020811015614a4657600080fd5b810190808051906020019092919050505050614af6565b826009600086815260200190815260200160002060020154036009600086815260200190815260200160002060020181905550826008600086815260200190815260200160002060008460ff1660ff16815260200190815260200160002060010154036008600086815260200190815260200160002060008460ff1660ff16815260200190815260200160002060010181905550600092505b60018201915061464e565b809350505061460a565b5b6000811115614b2057614b1f8582615180565b5b50506001600081905550505050565b60008211614b3c57600080fd5b60016014600082825401925050819055506019601454908060018154018082558091505060019003906000526020600020016000909190919091505560405180606001604052803373ffffffffffffffffffffffffffffffffffffffff1681526020018281526020018381525060156000601454815260200190815260200160002060008201518160000160006101000a81548173ffffffffffffffffffffffffffffffffffffffff021916908373ffffffffffffffffffffffffffffffffffffffff16021790555060208201518160010155604082015181600201559050505050565b600080600a423342604051602001808481526020018373ffffffffffffffffffffffffffffffffffffffff1673ffffffffffffffffffffffffffffffffffffffff1660601b815260140182815260200193505050506040516020818303038152906040528051906020012060001c81614c9557fe5b069050605a810190508091505090565b600082821115614d1d576040517f08c379a000000000000000000000000000000000000000000000000000000000815260040180806020018281038252601e8152602001807f536166654d6174683a207375627472616374696f6e206f766572666c6f77000081525060200191505060405180910390fd5b818303905092915050565b60008211614d81576040517f08c379a00000000000000000000000000000000000000000000000000000000081526004018080602001828103825260268152602001806155486026913960400191505060405180910390fd5b6001600a600084815260200190815260200160002060008282829054906101000a900460ff160192506101000a81548160ff021916908360ff16021790555060405180604001604052803373ffffffffffffffffffffffffffffffffffffffff16815260200182815250600860008481526020019081526020016000206000600a600086815260200190815260200160002060009054906101000a900460ff1660ff1660ff16815260200190815260200160002060008201518160000160006101000a81548173ffffffffffffffffffffffffffffffffffffffff021916908373ffffffffffffffffffffffffffffffffffffffff160217905550602082015181600101559050508060096000848152602001908152602001600020600201540160096000848152602001908152602001600020600201819055507f81016ab66655ba3ad044b708d3e812b7d8d777633f2883d4bdbd346e8878edac338383604051808473ffffffffffffffffffffffffffffffffffffffff1673ffffffffffffffffffffffffffffffffffffffff168152602001838152602001828152602001935050505060405180910390a16000600b541415614f465781600b8190555061508b565b600b54821115614f96578160096000600b54815260200190815260200160002060000181905550600b54600960008481526020019081526020016000206001018190555081600b8190555061508b565b600b54821415614fa55761508b565b6000600b5490505b808311614fd25760096000828152602001908152602001600020600101549050614fad565b60096000828152602001908152602001600020600001548310156150895760096000828152602001908152602001600020600001546009600085815260200190815260200160002060000181905550806009600085815260200190815260200160002060010181905550826009600060096000858152602001908152602001600020600001548152602001908152602001600020600101819055508260096000838152602001908152602001600020600001819055505b505b5050565b6000821161509c57600080fd5b6001601060008282540192505081905550601a601054908060018154018082558091505060019003906000526020600020016000909190919091505560405180606001604052803373ffffffffffffffffffffffffffffffffffffffff1681526020018281526020018381525060126000601054815260200190815260200160002060008201518160000160006101000a81548173ffffffffffffffffffffffffffffffffffffffff021916908373ffffffffffffffffffffffffffffffffffffffff16021790555060208201518160010155604082015181600201559050505050565b600082116151d9576040517f08c379a00000000000000000000000000000000000000000000000000000000081526004018080602001828103825260268152602001806155486026913960400191505060405180910390fd5b6001600e600084815260200190815260200160002060008282829054906101000a900460ff160192506101000a81548160ff021916908360ff16021790555060405180604001604052803373ffffffffffffffffffffffffffffffffffffffff16815260200182815250600c60008481526020019081526020016000206000600e600086815260200190815260200160002060009054906101000a900460ff1660ff1660ff16815260200190815260200160002060008201518160000160006101000a81548173ffffffffffffffffffffffffffffffffffffffff021916908373ffffffffffffffffffffffffffffffffffffffff1602179055506020820151816001015590505080600d6000848152602001908152602001600020600201600082825401925050819055507f081eb72a4c7e8ff00d118fa2f8d69a19b4f33a4cfd9b77f39a92a67322c9322e338383604051808473ffffffffffffffffffffffffffffffffffffffff1673ffffffffffffffffffffffffffffffffffffffff168152602001838152602001828152602001935050505060405180910390a16000600f54141561538f5781600f81905550615543565b600f548210156153df5781600d6000600f54815260200190815260200160002060010181905550600f54600d60008481526020019081526020016000206000018190555081600f81905550615543565b600f548214156153ee57615543565b6000600f5490505b80831015801561541d57506000600d60008381526020019081526020016000206000015414155b1561544057600d60008281526020019081526020016000206000015490506153f6565b8281101561547f5780600d60008581526020019081526020016000206001018190555082600d6000838152602001908152602001600020600001819055505b82811180156154a35750600d60008281526020019081526020016000206001015483115b1561554157600d600082815260200190815260200160002060010154600d60008581526020019081526020016000206001018190555080600d60008581526020019081526020016000206000018190555082600d6000600d60008581526020019081526020016000206001015481526020019081526020016000206000018190555082600d6000838152602001908152602001600020600101819055505b505b505056fe43616e206e6f7420706c616365206f72646572207769746820707269636520657175616c2030a264697066735822122067129c094045c162fa0c4ae07788b6ebd4203116b458304f4f8380fcc2ee594464736f6c63430006080033",
  "immutableReferences": {},
  "source": "pragma solidity >=0.6.8;\n\nimport \"./AToken.sol\";\nimport \"./BToken.sol\";\nimport {IOrderBook} from \"./interfaces/IOrderBook.sol\";\nimport {ReentrancyGuard} from \"@openzeppelin/contracts/utils/ReentrancyGuard.sol\";\nimport {SafeMath} from \"@openzeppelin/contracts/math/SafeMath.sol\";\nimport {Math} from \"@openzeppelin/contracts/math/Math.sol\";\nimport {SafeERC20} from \"@openzeppelin/contracts/token/ERC20/SafeERC20.sol\";\nimport {IERC20} from \"@openzeppelin/contracts/token/ERC20/IERC20.sol\";\n\ncontract TokenSwap is IOrderBook, ReentrancyGuard {\n    using SafeMath for uint256;\n    using SafeMath for uint8;\n    using Math for uint256;\n    using SafeERC20 for IERC20;\n    IERC20 public tradeToken;\n    IERC20 public baseToken;\n\n    string public name = \"TokenSwap Instant Exchange\";\n    AToken public aToken;\n    uint256 public aRate = 1000;\n    BToken public bToken;\n    uint256 public bRate = 1000;\n\n    ///////////////////////////\n    //mapping is a hashtable\n    mapping(uint256 => mapping(uint8 => Order)) public buyOrdersInStep;\n    mapping(uint256 => Step) public buySteps;\n    mapping(uint256 => uint8) public buyOrdersInStepCounter;\n    uint256 public maxBuyPrice;\n\n    mapping(uint256 => mapping(uint8 => Order)) public sellOrdersInStep;\n    mapping(uint256 => Step) public sellSteps;\n    mapping(uint256 => uint8) public sellOrdersInStepCounter;\n    uint256 public minSellPrice;\n    ////////////////////////////\n\n    uint256 public buyCounter = 0;\n    uint256 public minSellRate;\n    mapping(uint256 => NewOrder) public newBuyOrderBook;\n    uint256 public idOfBuyRate;\n\n    uint256 public sellCounter = 0;\n    mapping(uint256 => NewOrder) public newSellOrderBook;\n    uint256 public idOfSellRate;\n    uint256 public maxBuyRate;\n    uint256 public selltx = 0;\n    //////////////\n    event TokensPurchased(\n        address account,\n        address token,\n        uint256 amount,\n        uint256 rate\n    );\n\n    event BTokensPurchased(\n        address account,\n        address token,\n        uint256 amount,\n        uint256 rate\n    );\n\n    event TokensSold(\n        address account,\n        address token,\n        uint256 amount,\n        uint256 rate\n    );\n\n    event BTokensSold(\n        address account,\n        address token,\n        uint256 amount,\n        uint256 rate\n    );\n\n    constructor(AToken _aToken, BToken _bToken) public {\n        //pass the address of the Token in\n        aToken = _aToken;\n        bToken = _bToken;\n    }\n\n    function random() internal returns (uint256) {\n        uint256 randomnumber = uint256(\n            keccak256(\n                abi.encodePacked(block.timestamp, msg.sender, block.timestamp)\n            )\n        ) % 10;\n        randomnumber = randomnumber + 90;\n        return randomnumber;\n    }\n\n    function buyATokens() public payable {\n        // Calculate the number of tokens to buy\n        uint256 tokenAmount = msg.value * aRate; //msg.value = how much ether was sent\n\n        // Require that TokenSwap has enough tokens\n        require(aToken.balanceOf(address(this)) >= tokenAmount);\n\n        // Transfer tokens to the user\n        aToken.transfer(msg.sender, tokenAmount);\n\n        // Emit an event\n        emit TokensPurchased(msg.sender, address(aToken), tokenAmount, aRate);\n    }\n\n    function limitBuyATokens(uint256 _rate) public payable {\n        uint256 testrate = random();\n\n        require(testrate >= _rate, \"fail\");\n        // Calculate the number of tokens to buy\n        uint256 tokenAmount = msg.value * testrate; //msg.value = how much ether was sent\n\n        // Require that TokenSwap has enough tokens\n        require(aToken.balanceOf(address(this)) >= tokenAmount);\n\n        // Transfer tokens to the user\n        aToken.transfer(msg.sender, tokenAmount);\n\n        // Emit an event\n        emit TokensPurchased(\n            msg.sender,\n            address(aToken),\n            tokenAmount,\n            testrate\n        );\n    }\n\n    function sellATokens(uint256 _amount) public {\n        // User can't sell more tokens than they have\n        require(aToken.balanceOf(msg.sender) >= _amount);\n\n        // Calculate the amount of Ether to redeem\n        uint256 etherAmount = _amount / aRate;\n\n        // Require that TokenSwap has enough Ether\n        require(address(this).balance >= etherAmount);\n\n        // Perform sale\n        aToken.transferFrom(msg.sender, address(this), _amount);\n        msg.sender.transfer(etherAmount);\n\n        // Emit an event\n        emit TokensSold(msg.sender, address(aToken), _amount, aRate);\n    }\n\n    // function limitSellATokens(uint256 _amount, uint256 _rate) public {\n    //     uint256 testrate = random();\n\n    //     require(testrate <= _rate, \"fail\");\n    //     // User can't sell more tokens than they have\n    //     require(aToken.balanceOf(msg.sender) >= _amount);\n\n    //     // // Calculate the amount of Ether to redeem\n    //     uint256 etherAmount = _amount / testrate;\n\n    //     // Require that TokenSwap has enough Ether\n    //     require(address(this).balance >= etherAmount);\n\n    //     // Perform sale\n    //     aToken.transferFrom(msg.sender, address(this), _amount);\n    //     msg.sender.transfer(etherAmount);\n\n    //     // // Emit an event\n    //     emit TokensSold(msg.sender, address(aToken), _amount, aRate);\n    // }\n\n    // function buyBTokensFromCool(uint256 _aAmount) public {\n    //     // Check if there is sufficient a token in buyer acc\n    //     require(aToken.balanceOf(msg.sender) >= _aAmount);\n    //     // Calculate the amount of a token to redeem\n    //     uint256 bAmount = _aAmount * bRate;\n    //     // Check that there is enough seocond Token in ethSwap\n    //     require(bToken.balanceOf(address(this)) >= bAmount);\n\n    //     // Perform sale (this 2 method might be the problem)\n    //     // bToken.transferFrom(address(this), msg.sender, bAmount);\n    //     bToken.transfer(msg.sender, bAmount);\n    //     aToken.transferFrom(msg.sender, address(this), _aAmount);\n    //     // Emit an event\n    //     emit BTokensPurchased(\n    //         msg.sender,\n    //         address(bToken),\n    //         bAmount,\n    //         bRate\n    //     );\n    // }\n\n    // function limitBuyBTokens(uint256 _aAmount, uint256 _bRate)\n    //     public\n    // {\n    //     uint256 testrate = random();\n    //     require(testrate >= _bRate, \"fail\");\n    //     // Check if there is sufficient a token in buyer acc\n    //     require(aToken.balanceOf(msg.sender) >= _aAmount);\n    //     // Calculate the amount of a token to redeem\n    //     uint256 bAmount = _aAmount * testrate;\n    //     // Check that there is enough seocond Token in ethSwap\n    //     require(bToken.balanceOf(address(this)) >= bAmount);\n\n    //     // Perform sale (this 2 method might be the problem)\n    //     // bToken.transferFrom(address(this), msg.sender, bAmount);\n    //     bToken.transfer(msg.sender, bAmount);\n    //     aToken.transferFrom(msg.sender, address(this), _aAmount);\n    //     // Emit an event\n    //     emit BTokensPurchased(\n    //         msg.sender,\n    //         address(bToken),\n    //         bAmount,\n    //         testrate\n    //     );\n    // }\n\n    // function sellBTokensFromCool(uint256 _bAmount) public {\n    //     // Calculate the amount of a token to redeem\n    //     uint256 aAmount = _bAmount / bRate;\n\n    //     // Check that there is enough a Token in ethSwap\n    //     require(aToken.balanceOf(address(this)) >= aAmount);\n\n    //     // Check if there is sufficient b token in buyer acc\n    //     require(bToken.balanceOf(msg.sender) >= _bAmount);\n\n    //     // Perform sale\n    //     bToken.transferFrom(msg.sender, address(this), _bAmount);\n    //     aToken.transfer(msg.sender, aAmount);\n\n    //     // Emit an event\n    //     emit BTokensSold(\n    //         msg.sender,\n    //         address(bToken),\n    //         _bAmount,\n    //         bRate\n    //     );\n    // }\n\n    // function limitSellBTokens(uint256 _bAmount, uint256 _bRate)\n    //     public\n    // {\n    //     uint256 testrate = random();\n    //     require(testrate <= _bRate, \"fail\");\n    //     // Calculate the amount of a token to redeem\n    //     uint256 aAmount = _bAmount / testrate;\n\n    //     // Check that there is enough a Token in ethSwap\n    //     require(aToken.balanceOf(address(this)) >= aAmount);\n\n    //     // Check if there is sufficient b token in buyer acc\n    //     require(bToken.balanceOf(msg.sender) >= _bAmount);\n\n    //     // Perform sale\n    //     bToken.transferFrom(msg.sender, address(this), _bAmount);\n    //     aToken.transfer(msg.sender, aAmount);\n\n    //     // Emit an event\n    //     emit BTokensSold(\n    //         msg.sender,\n    //         address(bToken),\n    //         _bAmount,\n    //         testrate\n    //     );\n    // }\n\n    function buyBTokens() public payable {\n        // Calculate the number of tokens to buy\n        uint256 tokenAmount = msg.value * bRate; //msg.value = how much ether was sent\n\n        // Require that TokenSwap has enough tokens\n        require(bToken.balanceOf(address(this)) >= tokenAmount);\n\n        // Transfer tokens to the user\n        bToken.transfer(msg.sender, tokenAmount);\n\n        // Emit an event\n        emit TokensPurchased(msg.sender, address(bToken), tokenAmount, bRate);\n    }\n\n    function sellBTokens(uint256 _amount) public {\n        // User can't sell more tokens than they have\n        require(bToken.balanceOf(msg.sender) >= _amount);\n\n        // Calculate the amount of Ether to redeem\n        uint256 etherAmount = _amount / bRate;\n\n        // Require that TokenSwap has enough Ether\n        require(address(this).balance >= etherAmount);\n\n        // Perform sale\n        bToken.transferFrom(msg.sender, address(this), _amount);\n        msg.sender.transfer(etherAmount);\n\n        // Emit an event\n        emit TokensSold(msg.sender, address(bToken), _amount, bRate);\n    }\n\n    ///////////////////////////////////////////////////////////////////////// ORDERBOOK //////////////////////////////////////////////////////////////////////////////////////////\n    // price = number of b u want\n    // amount of baseToken = aToken\n    // buying b using a\n\n    // dont gwei in frontend\n    // use price * 1 ether\n\n    //b = a\n    //a = b\n    uint256[] public sellrateid;\n    uint256[] public buyrateid;\n\n    uint256[] public amountsell;\n    uint256[] public amountbuy;\n\n    function getbuyrate() public returns (uint256[] memory) {\n        return buyrateid;\n    }\n\n    function getsellrate() public returns (uint256[] memory) {\n        return sellrateid;\n    }\n\n    function getamountbuy() public returns (uint256[] memory) {\n        return amountbuy;\n    }\n\n    //buy B using A\n    function atob(uint256 b, uint256 a) external override nonReentrant {\n        require(aToken.balanceOf(msg.sender) >= a, \"hello error here atob\");\n\n        aToken.transferFrom(msg.sender, address(this), a);\n        // emit PlaceBuyOrder(msg.sender, amountOfBuyToken, amountOfSellToken);\n        // b = b * 1 ether;\n        // a = a * 1 ether;\n        uint256 rate = a / b;\n        bool toAdd = true;\n\n        for (uint256 i = 0; i < sellrateid.length; i++) {\n            idOfSellRate = sellrateid[i];\n            minSellRate = newSellOrderBook[idOfSellRate].rate;\n\n            if (rate >= minSellRate && minSellRate > 0) {\n                //give best order\n                toAdd = false;\n                if (newSellOrderBook[idOfSellRate].amount > b) {\n                    uint256 newAmount = newSellOrderBook[idOfSellRate].amount -\n                        b;\n                    newSellOrderBook[idOfSellRate].amount = newAmount; //replace old amount with new\n                    // transfer\n                    aToken.transfer(newSellOrderBook[idOfSellRate].maker, a);\n                    bToken.transfer(msg.sender, a / minSellRate);\n                } else if (newSellOrderBook[idOfSellRate].amount == b) {\n                    // transfer\n                    aToken.transfer(newSellOrderBook[idOfSellRate].maker, a);\n                    bToken.transfer(msg.sender, a / minSellRate);\n                    // update the minSellRate\n                    delete newSellOrderBook[idOfSellRate];\n                    for (uint256 j = i; j < sellrateid.length - 1; j++) {\n                        sellrateid[j] = sellrateid[j + 1];\n                    }\n                    sellrateid.pop();\n                } else if (newSellOrderBook[idOfSellRate].amount < b) {\n                    aToken.transfer(\n                        newSellOrderBook[idOfSellRate].maker,\n                        newSellOrderBook[idOfSellRate].amount\n                    );\n                    bToken.transfer(\n                        msg.sender,\n                        newSellOrderBook[idOfSellRate].amount / minSellRate\n                    );\n                    delete newSellOrderBook[idOfSellRate];\n                    for (uint256 j = i; j < sellrateid.length - 1; j++) {\n                        sellrateid[j] = sellrateid[j + 1];\n                    }\n                    sellrateid.pop();\n                    _atobBook(rate, a - newSellOrderBook[idOfSellRate].amount);\n                }\n                break;\n            }\n        }\n\n        if (a > 0 && toAdd) {\n            _atobBook(rate, a);\n        }\n    }\n\n    function maxNumber(uint256 a, uint256 b) internal pure returns (uint256) {\n        return a >= b ? a : b;\n    }\n\n    function minNumber(uint256 a, uint256 b) internal pure returns (uint256) {\n        return a <= b ? a : b;\n    }\n\n    function _atobBook(uint256 rate, uint256 a) internal {\n        require(rate > 0);\n        buyCounter += 1;\n        buyrateid.push(buyCounter);\n        newBuyOrderBook[buyCounter] = NewOrder(msg.sender, a, rate);\n    }\n\n    // buy A using b\n    function btoa(uint256 a, uint256 b) external override nonReentrant {\n        require(bToken.balanceOf(msg.sender) >= b, \"Hello error here btoa\");\n        amountbuy.push(b);\n        amountbuy.push(a);\n        bToken.transferFrom(msg.sender, address(this), b);\n\n        uint256 rate = a / b;\n        bool toAdd = true;\n\n        for (uint256 i = 0; i < buyrateid.length; i++) {\n            idOfBuyRate = buyrateid[i];\n            maxBuyRate = newBuyOrderBook[idOfBuyRate].rate;\n\n            if (rate <= maxBuyRate && maxBuyRate > 0) {\n                toAdd = false;\n                if (newBuyOrderBook[idOfBuyRate].amount > a) {\n                    amountbuy.push(newBuyOrderBook[idOfBuyRate].amount);\n                    amountbuy.push(b);\n                    uint256 newAmount = newBuyOrderBook[idOfBuyRate].amount - a;\n                    newBuyOrderBook[idOfBuyRate].amount = newAmount; //replace old amount with new\n                    amountbuy.push(newBuyOrderBook[idOfBuyRate].amount);\n                    // transfer\n                    bToken.transfer(newBuyOrderBook[idOfBuyRate].maker, b);\n                    aToken.transfer(msg.sender, b * maxBuyRate);\n                } else if (newBuyOrderBook[idOfBuyRate].amount == a) {\n                    // transfer\n                    bToken.transfer(newBuyOrderBook[idOfBuyRate].maker, b);\n                    aToken.transfer(msg.sender, b * maxBuyRate);\n                    // update the minSellRate\n                    delete newBuyOrderBook[idOfBuyRate];\n                    for (uint256 j = i; j < buyrateid.length - 1; j++) {\n                        buyrateid[j] = buyrateid[j + 1];\n                    }\n                    buyrateid.pop();\n                } else if (newBuyOrderBook[idOfBuyRate].amount < a) {\n                    bToken.transfer(\n                        newBuyOrderBook[idOfBuyRate].maker,\n                        newBuyOrderBook[idOfBuyRate].amount\n                    );\n                    aToken.transfer(\n                        msg.sender,\n                        newBuyOrderBook[idOfBuyRate].amount * maxBuyRate\n                    );\n                    delete newBuyOrderBook[idOfBuyRate];\n                    for (uint256 j = i; j < buyrateid.length - 1; j++) {\n                        buyrateid[j] = buyrateid[j + 1];\n                    }\n                    buyrateid.pop();\n                    _btoaBook(rate, b - newBuyOrderBook[idOfBuyRate].amount);\n                }\n                break;\n            }\n        }\n\n        if (b > 0 && toAdd) {\n            _btoaBook(rate, b);\n        }\n    }\n\n    function _btoaBook(uint256 rate, uint256 b) internal {\n        require(rate > 0);\n        sellCounter += 1;\n        sellrateid.push(sellCounter);\n\n        newSellOrderBook[sellCounter] = NewOrder(msg.sender, b, rate);\n        // emit DrawToSellBook(msg.sender, rate, amountSold);\n    }\n\n    function placeBuyOrder(\n        uint256 price,\n        uint256 amountOfBaseToken,\n        uint256 amount\n    ) external override nonReentrant {\n        require(aToken.balanceOf(msg.sender) >= amountOfBaseToken);\n\n        aToken.transferFrom(msg.sender, address(this), amountOfBaseToken);\n        emit PlaceBuyOrder(msg.sender, price, amountOfBaseToken);\n\n        /**\n         * @notice if has order in sell book, and price >= min sell price\n         */\n        //minSellPrice\n        //\n        uint256 sellPricePointer = minSellPrice;\n        uint256 amountReflect = amountOfBaseToken;\n        if (minSellPrice > 0 && price >= minSellPrice) {\n            while (\n                amountReflect > 0 &&\n                sellPricePointer <= price &&\n                sellPricePointer != 0\n            ) {\n                uint8 i = 1;\n                uint256 higherPrice = sellSteps[sellPricePointer].higherPrice;\n                while (\n                    i <= sellOrdersInStepCounter[sellPricePointer] &&\n                    amountReflect > 0\n                ) {\n                    if (\n                        amountReflect >=\n                        sellOrdersInStep[sellPricePointer][i].amount\n                    ) {\n                        //if the last order has been matched, delete the step\n                        if (i == sellOrdersInStepCounter[sellPricePointer]) {\n                            if (higherPrice > 0)\n                                sellSteps[higherPrice].lowerPrice = 0;\n                            delete sellSteps[sellPricePointer];\n                            minSellPrice = higherPrice;\n                        }\n\n                        amountReflect = amountReflect.sub(\n                            sellOrdersInStep[sellPricePointer][i].amount\n                        );\n                        //send before delete order\n\n                        aToken.transfer(\n                            sellOrdersInStep[sellPricePointer][i].maker,\n                            sellOrdersInStep[sellPricePointer][i].amount\n                        );\n                        // delete order from storage\n                        delete sellOrdersInStep[sellPricePointer][i];\n                        sellOrdersInStepCounter[sellPricePointer] -= 1;\n                        ///////////////////////////////\n                        bToken.transfer(msg.sender, sellPricePointer);\n\n                        //token.transferFrom(ethswap to other party)\n                    } else {\n                        sellSteps[sellPricePointer].amount = sellSteps[\n                            sellPricePointer\n                        ].amount.sub(amountReflect);\n                        sellOrdersInStep[sellPricePointer][i]\n                            .amount = sellOrdersInStep[sellPricePointer][i]\n                            .amount\n                            .sub(amountReflect);\n                        amountReflect = 0;\n                    }\n                    i += 1;\n                }\n                sellPricePointer = higherPrice;\n            }\n        }\n        /**\n         * @notice draw to buy book the rest\n         */\n        if (amountReflect > 0) {\n            _drawToBuyBook(price, amountReflect);\n        }\n    }\n\n    /**\n     * @notice Place buy order.\n     */\n    function placeSellOrder(\n        uint256 price,\n        uint256 amountOfTradeToken,\n        uint256 amount\n    ) external override nonReentrant {\n        bToken.transferFrom(msg.sender, address(this), amountOfTradeToken);\n        emit PlaceSellOrder(msg.sender, price, amountOfTradeToken);\n\n        /**\n         * @notice if has order in buy book, and price <= max buy price\n         */\n        uint256 buyPricePointer = maxBuyPrice;\n        uint256 amountReflect = amountOfTradeToken;\n        if (maxBuyPrice > 0 && price <= maxBuyPrice) {\n            while (\n                amountReflect > 0 &&\n                buyPricePointer >= price &&\n                buyPricePointer != 0\n            ) {\n                uint8 i = 1;\n                uint256 lowerPrice = buySteps[buyPricePointer].lowerPrice;\n                while (\n                    i <= buyOrdersInStepCounter[buyPricePointer] &&\n                    amountReflect > 0\n                ) {\n                    if (\n                        amountReflect >=\n                        buyOrdersInStep[buyPricePointer][i].amount\n                    ) {\n                        //if the last order has been matched, delete the step\n                        if (i == buyOrdersInStepCounter[buyPricePointer]) {\n                            if (lowerPrice > 0)\n                                buySteps[lowerPrice].higherPrice = 0;\n                            delete buySteps[buyPricePointer];\n                            maxBuyPrice = lowerPrice;\n                        }\n\n                        amountReflect =\n                            amountReflect -\n                            (buyOrdersInStep[buyPricePointer][i].amount);\n                        //send before delete order\n                        bToken.transfer(\n                            buyOrdersInStep[buyPricePointer][i].maker,\n                            buyOrdersInStep[buyPricePointer][i].amount\n                        );\n                        // delete order from storage\n\n                        delete buyOrdersInStep[buyPricePointer][i];\n                        buyOrdersInStepCounter[buyPricePointer] -= 1;\n\n                        ///////\n                        aToken.transfer(msg.sender, buyPricePointer);\n                    } else {\n                        buySteps[buyPricePointer].amount =\n                            buySteps[buyPricePointer].amount -\n                            (amountReflect);\n                        buyOrdersInStep[buyPricePointer][i].amount =\n                            buyOrdersInStep[buyPricePointer][i].amount -\n                            (amountReflect);\n                        amountReflect = 0;\n                    }\n                    i += 1;\n                }\n                buyPricePointer = lowerPrice;\n            }\n        }\n        /**\n         * @notice draw to buy book the rest\n         */\n        if (amountReflect > 0) {\n            _drawToSellBook(price, amountReflect);\n        }\n    }\n\n    /**\n     * @notice draw buy order.\n     */\n    function _drawToBuyBook(uint256 price, uint256 amount) internal {\n        require(price > 0, \"Can not place order with price equal 0\");\n\n        buyOrdersInStepCounter[price] += 1;\n        // order creation here\n        buyOrdersInStep[price][buyOrdersInStepCounter[price]] = Order(\n            msg.sender,\n            amount\n        );\n        buySteps[price].amount = buySteps[price].amount + (amount);\n        emit DrawToBuyBook(msg.sender, price, amount);\n\n        if (maxBuyPrice == 0) {\n            maxBuyPrice = price;\n            return;\n        }\n\n        if (price > maxBuyPrice) {\n            buySteps[maxBuyPrice].higherPrice = price;\n            buySteps[price].lowerPrice = maxBuyPrice;\n            maxBuyPrice = price;\n            return;\n        }\n\n        if (price == maxBuyPrice) {\n            return;\n        }\n\n        uint256 buyPricePointer = maxBuyPrice;\n        while (price <= buyPricePointer) {\n            buyPricePointer = buySteps[buyPricePointer].lowerPrice;\n        }\n\n        if (price < buySteps[buyPricePointer].higherPrice) {\n            buySteps[price].higherPrice = buySteps[buyPricePointer].higherPrice;\n            buySteps[price].lowerPrice = buyPricePointer;\n\n            buySteps[buySteps[buyPricePointer].higherPrice].lowerPrice = price;\n            buySteps[buyPricePointer].higherPrice = price;\n        }\n    }\n\n    /**\n     * @notice draw sell order.\n     */\n    function _drawToSellBook(uint256 price, uint256 amount) internal {\n        require(price > 0, \"Can not place order with price equal 0\");\n\n        sellOrdersInStepCounter[price] += 1;\n        sellOrdersInStep[price][sellOrdersInStepCounter[price]] = Order(\n            msg.sender,\n            amount\n        );\n        sellSteps[price].amount += amount;\n        emit DrawToSellBook(msg.sender, price, amount);\n\n        if (minSellPrice == 0) {\n            minSellPrice = price;\n            return;\n        }\n\n        if (price < minSellPrice) {\n            sellSteps[minSellPrice].lowerPrice = price;\n            sellSteps[price].higherPrice = minSellPrice;\n            minSellPrice = price;\n            return;\n        }\n\n        if (price == minSellPrice) {\n            return;\n        }\n\n        uint256 sellPricePointer = minSellPrice;\n        while (\n            price >= sellPricePointer &&\n            sellSteps[sellPricePointer].higherPrice != 0\n        ) {\n            sellPricePointer = sellSteps[sellPricePointer].higherPrice;\n        }\n\n        if (sellPricePointer < price) {\n            sellSteps[price].lowerPrice = sellPricePointer;\n            sellSteps[sellPricePointer].higherPrice = price;\n        }\n\n        if (\n            sellPricePointer > price &&\n            price > sellSteps[sellPricePointer].lowerPrice\n        ) {\n            sellSteps[price].lowerPrice = sellSteps[sellPricePointer]\n                .lowerPrice;\n            sellSteps[price].higherPrice = sellPricePointer;\n\n            sellSteps[sellSteps[sellPricePointer].lowerPrice]\n                .higherPrice = price;\n            sellSteps[sellPricePointer].lowerPrice = price;\n        }\n    }\n}\n",
  "sourcePath": "/Users/yiheng/Documents/NTU/Y4S2/CZ4153 Blockchain/crypto_exchange/Blockchain-DEX/src/contracts/TokenSwap.sol",
  "compiler": {
    "name": "solc",
    "version": "0.6.8+commit.0bbfe453.Emscripten.clang"
  },
  "schemaVersion": "3.4.10",
  "updatedAt": "2022-11-04T03:56:57.189Z",
  "networkType": "ethereum",
  "devdoc": {
    "methods": {}
  },
  "userdoc": {
    "methods": {
      "placeSellOrder(uint256,uint256,uint256)": {
        "notice": "Place buy order."
      }
    }
  }
}