{
  "contractName": "TokenSwapInv",
  "abi": [
    {
      "inputs": [
        {
          "internalType": "contract AToken",
          "name": "_aToken",
          "type": "address"
        },
        {
          "internalType": "contract BToken",
          "name": "_bToken",
          "type": "address"
        }
      ],
      "stateMutability": "nonpayable",
      "type": "constructor"
    },
    {
      "anonymous": false,
      "inputs": [
        {
          "indexed": false,
          "internalType": "address",
          "name": "accountSent",
          "type": "address"
        },
        {
          "indexed": false,
          "internalType": "address",
          "name": "accountReceived",
          "type": "address"
        },
        {
          "indexed": false,
          "internalType": "uint256",
          "name": "amount",
          "type": "uint256"
        }
      ],
      "name": "ATokensSent",
      "type": "event"
    },
    {
      "anonymous": false,
      "inputs": [
        {
          "indexed": false,
          "internalType": "address",
          "name": "account",
          "type": "address"
        },
        {
          "indexed": false,
          "internalType": "address",
          "name": "token",
          "type": "address"
        },
        {
          "indexed": false,
          "internalType": "uint256",
          "name": "amount",
          "type": "uint256"
        },
        {
          "indexed": false,
          "internalType": "uint256",
          "name": "rate",
          "type": "uint256"
        }
      ],
      "name": "BTokensPurchased",
      "type": "event"
    },
    {
      "anonymous": false,
      "inputs": [
        {
          "indexed": false,
          "internalType": "address",
          "name": "accountSent",
          "type": "address"
        },
        {
          "indexed": false,
          "internalType": "address",
          "name": "accountReceived",
          "type": "address"
        },
        {
          "indexed": false,
          "internalType": "uint256",
          "name": "amount",
          "type": "uint256"
        }
      ],
      "name": "BTokensSent",
      "type": "event"
    },
    {
      "anonymous": false,
      "inputs": [
        {
          "indexed": false,
          "internalType": "address",
          "name": "account",
          "type": "address"
        },
        {
          "indexed": false,
          "internalType": "address",
          "name": "token",
          "type": "address"
        },
        {
          "indexed": false,
          "internalType": "uint256",
          "name": "amount",
          "type": "uint256"
        },
        {
          "indexed": false,
          "internalType": "uint256",
          "name": "rate",
          "type": "uint256"
        }
      ],
      "name": "BTokensSold",
      "type": "event"
    },
    {
      "anonymous": false,
      "inputs": [
        {
          "indexed": false,
          "internalType": "address",
          "name": "account",
          "type": "address"
        },
        {
          "indexed": false,
          "internalType": "address",
          "name": "token",
          "type": "address"
        },
        {
          "indexed": false,
          "internalType": "uint256",
          "name": "amount",
          "type": "uint256"
        },
        {
          "indexed": false,
          "internalType": "uint256",
          "name": "rate",
          "type": "uint256"
        }
      ],
      "name": "TokensPurchased",
      "type": "event"
    },
    {
      "anonymous": false,
      "inputs": [
        {
          "indexed": false,
          "internalType": "address",
          "name": "account",
          "type": "address"
        },
        {
          "indexed": false,
          "internalType": "address",
          "name": "token",
          "type": "address"
        },
        {
          "indexed": false,
          "internalType": "uint256",
          "name": "amount",
          "type": "uint256"
        },
        {
          "indexed": false,
          "internalType": "uint256",
          "name": "rate",
          "type": "uint256"
        }
      ],
      "name": "TokensSold",
      "type": "event"
    },
    {
      "inputs": [],
      "name": "aToken",
      "outputs": [
        {
          "internalType": "contract AToken",
          "name": "",
          "type": "address"
        }
      ],
      "stateMutability": "view",
      "type": "function",
      "constant": true
    },
    {
      "inputs": [],
      "name": "bToken",
      "outputs": [
        {
          "internalType": "contract BToken",
          "name": "",
          "type": "address"
        }
      ],
      "stateMutability": "view",
      "type": "function",
      "constant": true
    },
    {
      "inputs": [],
      "name": "buyCounterInv",
      "outputs": [
        {
          "internalType": "uint256",
          "name": "",
          "type": "uint256"
        }
      ],
      "stateMutability": "view",
      "type": "function",
      "constant": true
    },
    {
      "inputs": [
        {
          "internalType": "uint256",
          "name": "",
          "type": "uint256"
        }
      ],
      "name": "buyrateidInv",
      "outputs": [
        {
          "internalType": "uint256",
          "name": "",
          "type": "uint256"
        }
      ],
      "stateMutability": "view",
      "type": "function",
      "constant": true
    },
    {
      "inputs": [],
      "name": "idOfBuyRateInv",
      "outputs": [
        {
          "internalType": "uint256",
          "name": "",
          "type": "uint256"
        }
      ],
      "stateMutability": "view",
      "type": "function",
      "constant": true
    },
    {
      "inputs": [],
      "name": "idOfSellRateInv",
      "outputs": [
        {
          "internalType": "uint256",
          "name": "",
          "type": "uint256"
        }
      ],
      "stateMutability": "view",
      "type": "function",
      "constant": true
    },
    {
      "inputs": [],
      "name": "maxBuyRate",
      "outputs": [
        {
          "internalType": "uint256",
          "name": "",
          "type": "uint256"
        }
      ],
      "stateMutability": "view",
      "type": "function",
      "constant": true
    },
    {
      "inputs": [],
      "name": "minSellRate",
      "outputs": [
        {
          "internalType": "uint256",
          "name": "",
          "type": "uint256"
        }
      ],
      "stateMutability": "view",
      "type": "function",
      "constant": true
    },
    {
      "inputs": [],
      "name": "name",
      "outputs": [
        {
          "internalType": "string",
          "name": "",
          "type": "string"
        }
      ],
      "stateMutability": "view",
      "type": "function",
      "constant": true
    },
    {
      "inputs": [
        {
          "internalType": "uint256",
          "name": "",
          "type": "uint256"
        }
      ],
      "name": "newBuyOrderBookInv",
      "outputs": [
        {
          "internalType": "address",
          "name": "maker",
          "type": "address"
        },
        {
          "internalType": "uint256",
          "name": "amount",
          "type": "uint256"
        },
        {
          "internalType": "uint256",
          "name": "rate",
          "type": "uint256"
        }
      ],
      "stateMutability": "view",
      "type": "function",
      "constant": true
    },
    {
      "inputs": [
        {
          "internalType": "uint256",
          "name": "",
          "type": "uint256"
        }
      ],
      "name": "newSellOrderBookInv",
      "outputs": [
        {
          "internalType": "address",
          "name": "maker",
          "type": "address"
        },
        {
          "internalType": "uint256",
          "name": "amount",
          "type": "uint256"
        },
        {
          "internalType": "uint256",
          "name": "rate",
          "type": "uint256"
        }
      ],
      "stateMutability": "view",
      "type": "function",
      "constant": true
    },
    {
      "inputs": [],
      "name": "sellCounterInv",
      "outputs": [
        {
          "internalType": "uint256",
          "name": "",
          "type": "uint256"
        }
      ],
      "stateMutability": "view",
      "type": "function",
      "constant": true
    },
    {
      "inputs": [
        {
          "internalType": "uint256",
          "name": "",
          "type": "uint256"
        }
      ],
      "name": "sellrateidInv",
      "outputs": [
        {
          "internalType": "uint256",
          "name": "",
          "type": "uint256"
        }
      ],
      "stateMutability": "view",
      "type": "function",
      "constant": true
    },
    {
      "inputs": [],
      "name": "getbuyrateInv",
      "outputs": [
        {
          "internalType": "uint256[]",
          "name": "",
          "type": "uint256[]"
        }
      ],
      "stateMutability": "nonpayable",
      "type": "function"
    },
    {
      "inputs": [],
      "name": "getsellrateInv",
      "outputs": [
        {
          "internalType": "uint256[]",
          "name": "",
          "type": "uint256[]"
        }
      ],
      "stateMutability": "nonpayable",
      "type": "function"
    },
    {
      "inputs": [
        {
          "internalType": "uint256",
          "name": "b",
          "type": "uint256"
        },
        {
          "internalType": "uint256",
          "name": "a",
          "type": "uint256"
        }
      ],
      "name": "atobInverseRate",
      "outputs": [],
      "stateMutability": "nonpayable",
      "type": "function"
    },
    {
      "inputs": [
        {
          "internalType": "uint256",
          "name": "a",
          "type": "uint256"
        },
        {
          "internalType": "uint256",
          "name": "b",
          "type": "uint256"
        }
      ],
      "name": "btoaInverseRate",
      "outputs": [],
      "stateMutability": "nonpayable",
      "type": "function"
    },
    {
      "inputs": [],
      "name": "deleteBuyOrders",
      "outputs": [],
      "stateMutability": "nonpayable",
      "type": "function"
    },
    {
      "inputs": [],
      "name": "deleteSellOrders",
      "outputs": [],
      "stateMutability": "nonpayable",
      "type": "function"
    },
    {
      "inputs": [
        {
          "internalType": "address",
          "name": "account",
          "type": "address"
        }
      ],
      "name": "getBuyOrderBook",
      "outputs": [
        {
          "internalType": "uint256[]",
          "name": "",
          "type": "uint256[]"
        }
      ],
      "stateMutability": "nonpayable",
      "type": "function"
    },
    {
      "inputs": [
        {
          "internalType": "address",
          "name": "account",
          "type": "address"
        }
      ],
      "name": "getSellOrderBook",
      "outputs": [
        {
          "internalType": "uint256[]",
          "name": "",
          "type": "uint256[]"
        }
      ],
      "stateMutability": "nonpayable",
      "type": "function"
    }
  ],
  "bytecode": "0x60806040526040518060400160405280601581526020017f546f6b656e53776170496e762045786368616e6765000000000000000000000081525060019080519060200190620000519291906200013c565b506000600a556000600d553480156200006957600080fd5b506040516200408a3803806200408a833981810160405260408110156200008f57600080fd5b810190808051906020019092919080519060200190929190505050600160008190555081600260006101000a81548173ffffffffffffffffffffffffffffffffffffffff021916908373ffffffffffffffffffffffffffffffffffffffff16021790555080600360006101000a81548173ffffffffffffffffffffffffffffffffffffffff021916908373ffffffffffffffffffffffffffffffffffffffff1602179055505050620001eb565b828054600181600116156101000203166002900490600052602060002090601f016020900481019282601f106200017f57805160ff1916838001178555620001b0565b82800160010185558215620001b0579182015b82811115620001af57825182559160200191906001019062000192565b5b509050620001bf9190620001c3565b5090565b620001e891905b80821115620001e4576000816000905550600101620001ca565b5090565b90565b613e8f80620001fb6000396000f3fe608060405234801561001057600080fd5b50600436106101375760003560e01c806361834641116100b8578063c907290c1161007c578063c907290c1461052c578063c98ceaf41461054a578063dcb8e106146105c6578063df8592471461065f578063eb096924146106a1578063f32b137b146106d957610137565b806361834641146104175780638447eee6146104215780639237b46c146104ba578063a0c1f15e146104c4578063c86f66391461050e57610137565b80632373ce13116100ff5780632373ce13146102be57806323ad22481461031d578063307a429d146103995780633edec69a146103db5780634fb01c79146103f957610137565b806306fdde031461013c57806310fea546146101bf57806311d7e6891461021e57806317aabc5514610256578063180f584214610274575b600080fd5b6101446106f7565b6040518080602001828103825283818151815260200191508051906020019080838360005b83811015610184578082015181840152602081019050610169565b50505050905090810190601f1680156101b15780820380516001836020036101000a031916815260200191505b509250505060405180910390f35b6101c7610795565b6040518080602001828103825283818151815260200191508051906020019060200280838360005b8381101561020a5780820151818401526020810190506101ef565b505050509050019250505060405180910390f35b6102546004803603604081101561023457600080fd5b8101908080359060200190929190803590602001909291905050506107ed565b005b61025e611d0f565b6040518082815260200191505060405180910390f35b61027c611d15565b604051808273ffffffffffffffffffffffffffffffffffffffff1673ffffffffffffffffffffffffffffffffffffffff16815260200191505060405180910390f35b6102c6611d3b565b6040518080602001828103825283818151815260200191508051906020019060200280838360005b838110156103095780820151818401526020810190506102ee565b505050509050019250505060405180910390f35b6103496004803603602081101561033357600080fd5b8101908080359060200190929190505050611d93565b604051808473ffffffffffffffffffffffffffffffffffffffff1673ffffffffffffffffffffffffffffffffffffffff168152602001838152602001828152602001935050505060405180910390f35b6103c5600480360360208110156103af57600080fd5b8101908080359060200190929190505050611ddd565b6040518082815260200191505060405180910390f35b6103e3611dfe565b6040518082815260200191505060405180910390f35b610401611e04565b6040518082815260200191505060405180910390f35b61041f611e0a565b005b6104636004803603602081101561043757600080fd5b81019080803573ffffffffffffffffffffffffffffffffffffffff169060200190929190505050612081565b6040518080602001828103825283818151815260200191508051906020019060200280838360005b838110156104a657808201518184015260208101905061048b565b505050509050019250505060405180910390f35b6104c2612240565b005b6104cc6124b7565b604051808273ffffffffffffffffffffffffffffffffffffffff1673ffffffffffffffffffffffffffffffffffffffff16815260200191505060405180910390f35b6105166124dd565b6040518082815260200191505060405180910390f35b6105346124e3565b6040518082815260200191505060405180910390f35b6105766004803603602081101561056057600080fd5b81019080803590602001909291905050506124e9565b604051808473ffffffffffffffffffffffffffffffffffffffff1673ffffffffffffffffffffffffffffffffffffffff168152602001838152602001828152602001935050505060405180910390f35b610608600480360360208110156105dc57600080fd5b81019080803573ffffffffffffffffffffffffffffffffffffffff169060200190929190505050612533565b6040518080602001828103825283818151815260200191508051906020019060200280838360005b8381101561064b578082015181840152602081019050610630565b505050509050019250505060405180910390f35b61068b6004803603602081101561067557600080fd5b81019080803590602001909291905050506126eb565b6040518082815260200191505060405180910390f35b6106d7600480360360408110156106b757600080fd5b81019080803590602001909291908035906020019092919050505061270c565b005b6106e1613bff565b6040518082815260200191505060405180910390f35b60018054600181600116156101000203166002900480601f01602080910402602001604051908101604052809291908181526020018280546001816001161561010002031660029004801561078d5780601f106107625761010080835404028352916020019161078d565b820191906000526020600020905b81548152906001019060200180831161077057829003601f168201915b505050505081565b606060078054806020026020016040519081016040528092919081815260200182805480156107e357602002820191906000526020600020905b8154815260200190600101908083116107cf575b5050505050905090565b60026000541415610866576040517f08c379a000000000000000000000000000000000000000000000000000000000815260040180806020018281038252601f8152602001807f5265656e7472616e637947756172643a207265656e7472616e742063616c6c0081525060200191505060405180910390fd5b600260008190555080600260009054906101000a900473ffffffffffffffffffffffffffffffffffffffff1673ffffffffffffffffffffffffffffffffffffffff166370a08231336040518263ffffffff1660e01b8152600401808273ffffffffffffffffffffffffffffffffffffffff1673ffffffffffffffffffffffffffffffffffffffff16815260200191505060206040518083038186803b15801561090e57600080fd5b505afa158015610922573d6000803e3d6000fd5b505050506040513d602081101561093857600080fd5b8101908080519060200190929190505050101561095457600080fd5b600260009054906101000a900473ffffffffffffffffffffffffffffffffffffffff1673ffffffffffffffffffffffffffffffffffffffff166323b872dd3330846040518463ffffffff1660e01b8152600401808473ffffffffffffffffffffffffffffffffffffffff1673ffffffffffffffffffffffffffffffffffffffff1681526020018373ffffffffffffffffffffffffffffffffffffffff1673ffffffffffffffffffffffffffffffffffffffff1681526020018281526020019350505050602060405180830381600087803b158015610a3157600080fd5b505af1158015610a45573d6000803e3d6000fd5b505050506040513d6020811015610a5b57600080fd5b8101908080519060200190929190505050506000818381610a7857fe5b04905060006001905060008090505b600680549050811015611ce35760068181548110610aa157fe5b9060005260206000200154600981905550600e6000600954815260200190815260200160002060020154600b81905550600b548311158015610ae557506000600b54115b15611cd6576000915084600e6000600954815260200190815260200160002060010154111561136a576000600e6000600954815260200190815260200160002060020154600e600060095481526020019081526020016000206001015481610b4957fe5b04905084811015610e3557600260009054906101000a900473ffffffffffffffffffffffffffffffffffffffff1673ffffffffffffffffffffffffffffffffffffffff1663a9059cbb600e6000600954815260200190815260200160002060000160009054906101000a900473ffffffffffffffffffffffffffffffffffffffff16836040518363ffffffff1660e01b8152600401808373ffffffffffffffffffffffffffffffffffffffff1673ffffffffffffffffffffffffffffffffffffffff16815260200182815260200192505050602060405180830381600087803b158015610c3557600080fd5b505af1158015610c49573d6000803e3d6000fd5b505050506040513d6020811015610c5f57600080fd5b810190808051906020019092919050505050600360009054906101000a900473ffffffffffffffffffffffffffffffffffffffff1673ffffffffffffffffffffffffffffffffffffffff1663a9059cbb33600b5484026040518363ffffffff1660e01b8152600401808373ffffffffffffffffffffffffffffffffffffffff1673ffffffffffffffffffffffffffffffffffffffff16815260200182815260200192505050602060405180830381600087803b158015610d1e57600080fd5b505af1158015610d32573d6000803e3d6000fd5b505050506040513d6020811015610d4857600080fd5b810190808051906020019092919050505050610d6684828703613c05565b600e60006009548152602001908152602001600020600080820160006101000a81549073ffffffffffffffffffffffffffffffffffffffff021916905560018201600090556002820160009055505060008290505b600160068054905003811015610e0e5760066001820181548110610ddb57fe5b906000526020600020015460068281548110610df357fe5b90600052602060002001819055508080600101915050610dbb565b506006805480610e1a57fe5b60019003818190600052602060002001600090559055611364565b8481111561108957600260009054906101000a900473ffffffffffffffffffffffffffffffffffffffff1673ffffffffffffffffffffffffffffffffffffffff1663a9059cbb600e6000600954815260200190815260200160002060000160009054906101000a900473ffffffffffffffffffffffffffffffffffffffff16876040518363ffffffff1660e01b8152600401808373ffffffffffffffffffffffffffffffffffffffff1673ffffffffffffffffffffffffffffffffffffffff16815260200182815260200192505050602060405180830381600087803b158015610f1e57600080fd5b505af1158015610f32573d6000803e3d6000fd5b505050506040513d6020811015610f4857600080fd5b810190808051906020019092919050505050600360009054906101000a900473ffffffffffffffffffffffffffffffffffffffff1673ffffffffffffffffffffffffffffffffffffffff1663a9059cbb33600b5488026040518363ffffffff1660e01b8152600401808373ffffffffffffffffffffffffffffffffffffffff1673ffffffffffffffffffffffffffffffffffffffff16815260200182815260200192505050602060405180830381600087803b15801561100757600080fd5b505af115801561101b573d6000803e3d6000fd5b505050506040513d602081101561103157600080fd5b8101908080519060200190929190505050506000600b548602600e600060095481526020019081526020016000206001015403905080600e600060095481526020019081526020016000206001018190555050611363565b8481141561136257600260009054906101000a900473ffffffffffffffffffffffffffffffffffffffff1673ffffffffffffffffffffffffffffffffffffffff1663a9059cbb600e6000600954815260200190815260200160002060000160009054906101000a900473ffffffffffffffffffffffffffffffffffffffff16876040518363ffffffff1660e01b8152600401808373ffffffffffffffffffffffffffffffffffffffff1673ffffffffffffffffffffffffffffffffffffffff16815260200182815260200192505050602060405180830381600087803b15801561117257600080fd5b505af1158015611186573d6000803e3d6000fd5b505050506040513d602081101561119c57600080fd5b810190808051906020019092919050505050600360009054906101000a900473ffffffffffffffffffffffffffffffffffffffff1673ffffffffffffffffffffffffffffffffffffffff1663a9059cbb33600b5488026040518363ffffffff1660e01b8152600401808373ffffffffffffffffffffffffffffffffffffffff1673ffffffffffffffffffffffffffffffffffffffff16815260200182815260200192505050602060405180830381600087803b15801561125b57600080fd5b505af115801561126f573d6000803e3d6000fd5b505050506040513d602081101561128557600080fd5b810190808051906020019092919050505050600e60006009548152602001908152602001600020600080820160006101000a81549073ffffffffffffffffffffffffffffffffffffffff021916905560018201600090556002820160009055505060008290505b60016006805490500381101561133f576006600182018154811061130c57fe5b90600052602060002001546006828154811061132457fe5b906000526020600020018190555080806001019150506112ec565b50600680548061134b57fe5b600190038181906000526020600020016000905590555b5b5b50611cd1565b84600e60006009548152602001908152602001600020600101541415611991576000600e6000600954815260200190815260200160002060020154600e6000600954815260200190815260200160002060010154816113c557fe5b049050848110156116b157600260009054906101000a900473ffffffffffffffffffffffffffffffffffffffff1673ffffffffffffffffffffffffffffffffffffffff1663a9059cbb600e6000600954815260200190815260200160002060000160009054906101000a900473ffffffffffffffffffffffffffffffffffffffff16836040518363ffffffff1660e01b8152600401808373ffffffffffffffffffffffffffffffffffffffff1673ffffffffffffffffffffffffffffffffffffffff16815260200182815260200192505050602060405180830381600087803b1580156114b157600080fd5b505af11580156114c5573d6000803e3d6000fd5b505050506040513d60208110156114db57600080fd5b810190808051906020019092919050505050600360009054906101000a900473ffffffffffffffffffffffffffffffffffffffff1673ffffffffffffffffffffffffffffffffffffffff1663a9059cbb33600b5484026040518363ffffffff1660e01b8152600401808373ffffffffffffffffffffffffffffffffffffffff1673ffffffffffffffffffffffffffffffffffffffff16815260200182815260200192505050602060405180830381600087803b15801561159a57600080fd5b505af11580156115ae573d6000803e3d6000fd5b505050506040513d60208110156115c457600080fd5b8101908080519060200190929190505050506115e284828703613c05565b600e60006009548152602001908152602001600020600080820160006101000a81549073ffffffffffffffffffffffffffffffffffffffff021916905560018201600090556002820160009055505060008290505b60016006805490500381101561168a576006600182018154811061165757fe5b90600052602060002001546006828154811061166f57fe5b90600052602060002001819055508080600101915050611637565b50600680548061169657fe5b6001900381819060005260206000200160009055905561198b565b8481141561198a57600260009054906101000a900473ffffffffffffffffffffffffffffffffffffffff1673ffffffffffffffffffffffffffffffffffffffff1663a9059cbb600e6000600954815260200190815260200160002060000160009054906101000a900473ffffffffffffffffffffffffffffffffffffffff16876040518363ffffffff1660e01b8152600401808373ffffffffffffffffffffffffffffffffffffffff1673ffffffffffffffffffffffffffffffffffffffff16815260200182815260200192505050602060405180830381600087803b15801561179a57600080fd5b505af11580156117ae573d6000803e3d6000fd5b505050506040513d60208110156117c457600080fd5b810190808051906020019092919050505050600360009054906101000a900473ffffffffffffffffffffffffffffffffffffffff1673ffffffffffffffffffffffffffffffffffffffff1663a9059cbb33600b5488026040518363ffffffff1660e01b8152600401808373ffffffffffffffffffffffffffffffffffffffff1673ffffffffffffffffffffffffffffffffffffffff16815260200182815260200192505050602060405180830381600087803b15801561188357600080fd5b505af1158015611897573d6000803e3d6000fd5b505050506040513d60208110156118ad57600080fd5b810190808051906020019092919050505050600e60006009548152602001908152602001600020600080820160006101000a81549073ffffffffffffffffffffffffffffffffffffffff021916905560018201600090556002820160009055505060008290505b600160068054905003811015611967576006600182018154811061193457fe5b90600052602060002001546006828154811061194c57fe5b90600052602060002001819055508080600101915050611914565b50600680548061197357fe5b600190038181906000526020600020016000905590555b5b50611cd0565b84600e60006009548152602001908152602001600020600101541015611ccf576000600e6000600954815260200190815260200160002060020154600e600060095481526020019081526020016000206001015402905084811015611ccd57600260009054906101000a900473ffffffffffffffffffffffffffffffffffffffff1673ffffffffffffffffffffffffffffffffffffffff1663a9059cbb600e6000600954815260200190815260200160002060000160009054906101000a900473ffffffffffffffffffffffffffffffffffffffff16836040518363ffffffff1660e01b8152600401808373ffffffffffffffffffffffffffffffffffffffff1673ffffffffffffffffffffffffffffffffffffffff16815260200182815260200192505050602060405180830381600087803b158015611ad157600080fd5b505af1158015611ae5573d6000803e3d6000fd5b505050506040513d6020811015611afb57600080fd5b810190808051906020019092919050505050600360009054906101000a900473ffffffffffffffffffffffffffffffffffffffff1673ffffffffffffffffffffffffffffffffffffffff1663a9059cbb33600b5484026040518363ffffffff1660e01b8152600401808373ffffffffffffffffffffffffffffffffffffffff1673ffffffffffffffffffffffffffffffffffffffff16815260200182815260200192505050602060405180830381600087803b158015611bba57600080fd5b505af1158015611bce573d6000803e3d6000fd5b505050506040513d6020811015611be457600080fd5b810190808051906020019092919050505050611c0284828703613c05565b600e60006009548152602001908152602001600020600080820160006101000a81549073ffffffffffffffffffffffffffffffffffffffff021916905560018201600090556002820160009055505060008290505b600160068054905003811015611caa5760066001820181548110611c7757fe5b906000526020600020015460068281548110611c8f57fe5b90600052602060002001819055508080600101915050611c57565b506006805480611cb657fe5b600190038181906000526020600020016000905590555b505b5b5b611ce3565b8080600101915050610a87565b50600083118015611cf15750805b15611d0157611d008284613c05565b5b505060016000819055505050565b60085481565b600360009054906101000a900473ffffffffffffffffffffffffffffffffffffffff1681565b60606006805480602002602001604051908101604052809291908181526020018280548015611d8957602002820191906000526020600020905b815481526020019060010190808311611d75575b5050505050905090565b600e6020528060005260406000206000915090508060000160009054906101000a900473ffffffffffffffffffffffffffffffffffffffff16908060010154908060020154905083565b60078181548110611dea57fe5b906000526020600020016000915090505481565b600b5481565b600a5481565b60008090505b60078054905081101561207e57600060078281548110611e2c57fe5b90600052602060002001549050600c600082815260200190815260200160002060000160009054906101000a900473ffffffffffffffffffffffffffffffffffffffff1673ffffffffffffffffffffffffffffffffffffffff163373ffffffffffffffffffffffffffffffffffffffff16141561207057600260009054906101000a900473ffffffffffffffffffffffffffffffffffffffff1673ffffffffffffffffffffffffffffffffffffffff1663a9059cbb33600c6000858152602001908152602001600020600101546040518363ffffffff1660e01b8152600401808373ffffffffffffffffffffffffffffffffffffffff1673ffffffffffffffffffffffffffffffffffffffff16815260200182815260200192505050602060405180830381600087803b158015611f6257600080fd5b505af1158015611f76573d6000803e3d6000fd5b505050506040513d6020811015611f8c57600080fd5b810190808051906020019092919050505050600c6000828152602001908152602001600020600080820160006101000a81549073ffffffffffffffffffffffffffffffffffffffff021916905560018201600090556002820160009055505060008290505b600160078054905003811015612044576007600182018154811061201157fe5b90600052602060002001546007828154811061202957fe5b90600052602060002001819055508080600101915050611ff1565b50600780548061205057fe5b600190038181906000526020600020016000905590558180600190039250505b508080600101915050611e10565b50565b6060600067ffffffffffffffff8111801561209b57600080fd5b506040519080825280602002602001820160405280156120ca5781602001602082028036833780820191505090505b50600590805190602001906120e0929190613de7565b5060008090505b6006805490508110156121e75760006006828154811061210357fe5b90600052602060002001549050600e600082815260200190815260200160002060000160009054906101000a900473ffffffffffffffffffffffffffffffffffffffff1673ffffffffffffffffffffffffffffffffffffffff168473ffffffffffffffffffffffffffffffffffffffff1614156121d9576005600e600083815260200190815260200160002060020154600e600084815260200190815260200160002060010154816121b157fe5b0490806001815401808255809150506001900390600052602060002001600090919091909150555b5080806001019150506120e7565b50600580548060200260200160405190810160405280929190818152602001828054801561223457602002820191906000526020600020905b815481526020019060010190808311612220575b50505050509050919050565b60008090505b6006805490508110156124b45760006006828154811061226257fe5b90600052602060002001549050600e600082815260200190815260200160002060000160009054906101000a900473ffffffffffffffffffffffffffffffffffffffff1673ffffffffffffffffffffffffffffffffffffffff163373ffffffffffffffffffffffffffffffffffffffff1614156124a657600360009054906101000a900473ffffffffffffffffffffffffffffffffffffffff1673ffffffffffffffffffffffffffffffffffffffff1663a9059cbb33600e6000858152602001908152602001600020600101546040518363ffffffff1660e01b8152600401808373ffffffffffffffffffffffffffffffffffffffff1673ffffffffffffffffffffffffffffffffffffffff16815260200182815260200192505050602060405180830381600087803b15801561239857600080fd5b505af11580156123ac573d6000803e3d6000fd5b505050506040513d60208110156123c257600080fd5b810190808051906020019092919050505050600e6000828152602001908152602001600020600080820160006101000a81549073ffffffffffffffffffffffffffffffffffffffff021916905560018201600090556002820160009055505060008290505b60016006805490500381101561247a576006600182018154811061244757fe5b90600052602060002001546006828154811061245f57fe5b90600052602060002001819055508080600101915050612427565b50600680548061248657fe5b600190038181906000526020600020016000905590558180600190039250505b508080600101915050612246565b50565b600260009054906101000a900473ffffffffffffffffffffffffffffffffffffffff1681565b600f5481565b60095481565b600c6020528060005260406000206000915090508060000160009054906101000a900473ffffffffffffffffffffffffffffffffffffffff16908060010154908060020154905083565b6060600067ffffffffffffffff8111801561254d57600080fd5b5060405190808252806020026020018201604052801561257c5781602001602082028036833780820191505090505b5060049080519060200190612592929190613de7565b5060008090505b600780549050811015612692576000600782815481106125b557fe5b90600052602060002001549050600c600082815260200190815260200160002060000160009054906101000a900473ffffffffffffffffffffffffffffffffffffffff1673ffffffffffffffffffffffffffffffffffffffff168473ffffffffffffffffffffffffffffffffffffffff161415612684576004600c600083815260200190815260200160002060020154600c6000848152602001908152602001600020600101540290806001815401808255809150506001900390600052602060002001600090919091909150555b508080600101915050612599565b5060048054806020026020016040519081016040528092919081815260200182805480156126df57602002820191906000526020600020905b8154815260200190600101908083116126cb575b50505050509050919050565b600681815481106126f857fe5b906000526020600020016000915090505481565b60026000541415612785576040517f08c379a000000000000000000000000000000000000000000000000000000000815260040180806020018281038252601f8152602001807f5265656e7472616e637947756172643a207265656e7472616e742063616c6c0081525060200191505060405180910390fd5b600260008190555080600360009054906101000a900473ffffffffffffffffffffffffffffffffffffffff1673ffffffffffffffffffffffffffffffffffffffff166370a08231336040518263ffffffff1660e01b8152600401808273ffffffffffffffffffffffffffffffffffffffff1673ffffffffffffffffffffffffffffffffffffffff16815260200191505060206040518083038186803b15801561282d57600080fd5b505afa158015612841573d6000803e3d6000fd5b505050506040513d602081101561285757600080fd5b8101908080519060200190929190505050101561287357600080fd5b600360009054906101000a900473ffffffffffffffffffffffffffffffffffffffff1673ffffffffffffffffffffffffffffffffffffffff166323b872dd3330846040518463ffffffff1660e01b8152600401808473ffffffffffffffffffffffffffffffffffffffff1673ffffffffffffffffffffffffffffffffffffffff1681526020018373ffffffffffffffffffffffffffffffffffffffff1673ffffffffffffffffffffffffffffffffffffffff1681526020018281526020019350505050602060405180830381600087803b15801561295057600080fd5b505af1158015612964573d6000803e3d6000fd5b505050506040513d602081101561297a57600080fd5b810190808051906020019092919050505050600082828161299757fe5b04905060006001905060008090505b600780549050811015613bd357600781815481106129c057fe5b9060005260206000200154600881905550600c6000600854815260200190815260200160002060020154600f81905550600f548310158015612a0457506000600f54115b15613bc6576000915084600c60006008548152602001908152602001600020600101541115613278576000600f54600c600060085481526020019081526020016000206001015402905084811015612d3e57600360009054906101000a900473ffffffffffffffffffffffffffffffffffffffff1673ffffffffffffffffffffffffffffffffffffffff1663a9059cbb600c6000600854815260200190815260200160002060000160009054906101000a900473ffffffffffffffffffffffffffffffffffffffff16836040518363ffffffff1660e01b8152600401808373ffffffffffffffffffffffffffffffffffffffff1673ffffffffffffffffffffffffffffffffffffffff16815260200182815260200192505050602060405180830381600087803b158015612b3757600080fd5b505af1158015612b4b573d6000803e3d6000fd5b505050506040513d6020811015612b6157600080fd5b810190808051906020019092919050505050600260009054906101000a900473ffffffffffffffffffffffffffffffffffffffff1673ffffffffffffffffffffffffffffffffffffffff1663a9059cbb33600f548481612bbd57fe5b046040518363ffffffff1660e01b8152600401808373ffffffffffffffffffffffffffffffffffffffff1673ffffffffffffffffffffffffffffffffffffffff16815260200182815260200192505050602060405180830381600087803b158015612c2757600080fd5b505af1158015612c3b573d6000803e3d6000fd5b505050506040513d6020811015612c5157600080fd5b810190808051906020019092919050505050612c6f84828703613cf6565b600c60006008548152602001908152602001600020600080820160006101000a81549073ffffffffffffffffffffffffffffffffffffffff021916905560018201600090556002820160009055505060008290505b600160078054905003811015612d175760076001820181548110612ce457fe5b906000526020600020015460078281548110612cfc57fe5b90600052602060002001819055508080600101915050612cc4565b506007805480612d2357fe5b60019003818190600052602060002001600090559055613272565b84811115612f9957600360009054906101000a900473ffffffffffffffffffffffffffffffffffffffff1673ffffffffffffffffffffffffffffffffffffffff1663a9059cbb600c6000600854815260200190815260200160002060000160009054906101000a900473ffffffffffffffffffffffffffffffffffffffff16876040518363ffffffff1660e01b8152600401808373ffffffffffffffffffffffffffffffffffffffff1673ffffffffffffffffffffffffffffffffffffffff16815260200182815260200192505050602060405180830381600087803b158015612e2757600080fd5b505af1158015612e3b573d6000803e3d6000fd5b505050506040513d6020811015612e5157600080fd5b810190808051906020019092919050505050600260009054906101000a900473ffffffffffffffffffffffffffffffffffffffff1673ffffffffffffffffffffffffffffffffffffffff1663a9059cbb33600f548881612ead57fe5b046040518363ffffffff1660e01b8152600401808373ffffffffffffffffffffffffffffffffffffffff1673ffffffffffffffffffffffffffffffffffffffff16815260200182815260200192505050602060405180830381600087803b158015612f1757600080fd5b505af1158015612f2b573d6000803e3d6000fd5b505050506040513d6020811015612f4157600080fd5b8101908080519060200190929190505050506000600f548602600c600060085481526020019081526020016000206001015403905080600c600060085481526020019081526020016000206001018190555050613271565b600360009054906101000a900473ffffffffffffffffffffffffffffffffffffffff1673ffffffffffffffffffffffffffffffffffffffff1663a9059cbb600c6000600854815260200190815260200160002060000160009054906101000a900473ffffffffffffffffffffffffffffffffffffffff16876040518363ffffffff1660e01b8152600401808373ffffffffffffffffffffffffffffffffffffffff1673ffffffffffffffffffffffffffffffffffffffff16815260200182815260200192505050602060405180830381600087803b15801561307a57600080fd5b505af115801561308e573d6000803e3d6000fd5b505050506040513d60208110156130a457600080fd5b810190808051906020019092919050505050600260009054906101000a900473ffffffffffffffffffffffffffffffffffffffff1673ffffffffffffffffffffffffffffffffffffffff1663a9059cbb33600f54888161310057fe5b046040518363ffffffff1660e01b8152600401808373ffffffffffffffffffffffffffffffffffffffff1673ffffffffffffffffffffffffffffffffffffffff16815260200182815260200192505050602060405180830381600087803b15801561316a57600080fd5b505af115801561317e573d6000803e3d6000fd5b505050506040513d602081101561319457600080fd5b810190808051906020019092919050505050600c60006008548152602001908152602001600020600080820160006101000a81549073ffffffffffffffffffffffffffffffffffffffff021916905560018201600090556002820160009055505060008290505b60016007805490500381101561324e576007600182018154811061321b57fe5b90600052602060002001546007828154811061323357fe5b906000526020600020018190555080806001019150506131fb565b50600780548061325a57fe5b600190038181906000526020600020016000905590555b5b50613bc1565b84600c60006008548152602001908152602001600020600101541415613890576000600f54600c6000600854815260200190815260200160002060010154029050848110156135a957600360009054906101000a900473ffffffffffffffffffffffffffffffffffffffff1673ffffffffffffffffffffffffffffffffffffffff1663a9059cbb600c6000600854815260200190815260200160002060000160009054906101000a900473ffffffffffffffffffffffffffffffffffffffff16836040518363ffffffff1660e01b8152600401808373ffffffffffffffffffffffffffffffffffffffff1673ffffffffffffffffffffffffffffffffffffffff16815260200182815260200192505050602060405180830381600087803b1580156133a257600080fd5b505af11580156133b6573d6000803e3d6000fd5b505050506040513d60208110156133cc57600080fd5b810190808051906020019092919050505050600260009054906101000a900473ffffffffffffffffffffffffffffffffffffffff1673ffffffffffffffffffffffffffffffffffffffff1663a9059cbb33600f54848161342857fe5b046040518363ffffffff1660e01b8152600401808373ffffffffffffffffffffffffffffffffffffffff1673ffffffffffffffffffffffffffffffffffffffff16815260200182815260200192505050602060405180830381600087803b15801561349257600080fd5b505af11580156134a6573d6000803e3d6000fd5b505050506040513d60208110156134bc57600080fd5b8101908080519060200190929190505050506134da84828703613cf6565b600c60006008548152602001908152602001600020600080820160006101000a81549073ffffffffffffffffffffffffffffffffffffffff021916905560018201600090556002820160009055505060008290505b600160078054905003811015613582576007600182018154811061354f57fe5b90600052602060002001546007828154811061356757fe5b9060005260206000200181905550808060010191505061352f565b50600780548061358e57fe5b6001900381819060005260206000200160009055905561388a565b8085141561388957600360009054906101000a900473ffffffffffffffffffffffffffffffffffffffff1673ffffffffffffffffffffffffffffffffffffffff1663a9059cbb600c6000600854815260200190815260200160002060000160009054906101000a900473ffffffffffffffffffffffffffffffffffffffff16876040518363ffffffff1660e01b8152600401808373ffffffffffffffffffffffffffffffffffffffff1673ffffffffffffffffffffffffffffffffffffffff16815260200182815260200192505050602060405180830381600087803b15801561369257600080fd5b505af11580156136a6573d6000803e3d6000fd5b505050506040513d60208110156136bc57600080fd5b810190808051906020019092919050505050600260009054906101000a900473ffffffffffffffffffffffffffffffffffffffff1673ffffffffffffffffffffffffffffffffffffffff1663a9059cbb33600f54888161371857fe5b046040518363ffffffff1660e01b8152600401808373ffffffffffffffffffffffffffffffffffffffff1673ffffffffffffffffffffffffffffffffffffffff16815260200182815260200192505050602060405180830381600087803b15801561378257600080fd5b505af1158015613796573d6000803e3d6000fd5b505050506040513d60208110156137ac57600080fd5b810190808051906020019092919050505050600c60006008548152602001908152602001600020600080820160006101000a81549073ffffffffffffffffffffffffffffffffffffffff021916905560018201600090556002820160009055505060008290505b600160078054905003811015613866576007600182018154811061383357fe5b90600052602060002001546007828154811061384b57fe5b90600052602060002001819055508080600101915050613813565b50600780548061387257fe5b600190038181906000526020600020016000905590555b5b50613bc0565b84600c60006008548152602001908152602001600020600101541015613bbf576000600f54600c600060085481526020019081526020016000206001015402905084811015613bbd57600360009054906101000a900473ffffffffffffffffffffffffffffffffffffffff1673ffffffffffffffffffffffffffffffffffffffff1663a9059cbb600c6000600854815260200190815260200160002060000160009054906101000a900473ffffffffffffffffffffffffffffffffffffffff16836040518363ffffffff1660e01b8152600401808373ffffffffffffffffffffffffffffffffffffffff1673ffffffffffffffffffffffffffffffffffffffff16815260200182815260200192505050602060405180830381600087803b1580156139ba57600080fd5b505af11580156139ce573d6000803e3d6000fd5b505050506040513d60208110156139e457600080fd5b810190808051906020019092919050505050600260009054906101000a900473ffffffffffffffffffffffffffffffffffffffff1673ffffffffffffffffffffffffffffffffffffffff1663a9059cbb33600f548481613a4057fe5b046040518363ffffffff1660e01b8152600401808373ffffffffffffffffffffffffffffffffffffffff1673ffffffffffffffffffffffffffffffffffffffff16815260200182815260200192505050602060405180830381600087803b158015613aaa57600080fd5b505af1158015613abe573d6000803e3d6000fd5b505050506040513d6020811015613ad457600080fd5b810190808051906020019092919050505050613af284828703613cf6565b600c60006008548152602001908152602001600020600080820160006101000a81549073ffffffffffffffffffffffffffffffffffffffff021916905560018201600090556002820160009055505060008290505b600160078054905003811015613b9a5760076001820181548110613b6757fe5b906000526020600020015460078281548110613b7f57fe5b90600052602060002001819055508080600101915050613b47565b506007805480613ba657fe5b600190038181906000526020600020016000905590555b505b5b5b613bd3565b80806001019150506129a6565b50600083118015613be15750805b15613bf157613bf08284613cf6565b5b505060016000819055505050565b600d5481565b60008211613c1257600080fd5b6001600a600082825401925050819055506007600a54908060018154018082558091505060019003906000526020600020016000909190919091505560405180606001604052803373ffffffffffffffffffffffffffffffffffffffff16815260200182815260200183815250600c6000600a54815260200190815260200160002060008201518160000160006101000a81548173ffffffffffffffffffffffffffffffffffffffff021916908373ffffffffffffffffffffffffffffffffffffffff16021790555060208201518160010155604082015181600201559050505050565b60008211613d0357600080fd5b6001600d600082825401925050819055506006600d54908060018154018082558091505060019003906000526020600020016000909190919091505560405180606001604052803373ffffffffffffffffffffffffffffffffffffffff16815260200182815260200183815250600e6000600d54815260200190815260200160002060008201518160000160006101000a81548173ffffffffffffffffffffffffffffffffffffffff021916908373ffffffffffffffffffffffffffffffffffffffff16021790555060208201518160010155604082015181600201559050505050565b828054828255906000526020600020908101928215613e23579160200282015b82811115613e22578251825591602001919060010190613e07565b5b509050613e309190613e34565b5090565b613e5691905b80821115613e52576000816000905550600101613e3a565b5090565b9056fea26469706673582212200046dcb8f2bd6a77cb7cb7e40a33097540f94cfd5451763fa00e639f1caae0ca64736f6c63430006080033",
  "immutableReferences": {},
  "source": "// SPDX-License-Identifier: MIT\n\npragma solidity >=0.6.8;\n\nimport \"./AToken.sol\";\nimport \"./BToken.sol\";\nimport {ITokenSwapInv} from \"./interfaces/ITokenSwapInv.sol\";\nimport {ReentrancyGuard} from \"@openzeppelin/contracts/utils/ReentrancyGuard.sol\";\nimport {SafeMath} from \"@openzeppelin/contracts/math/SafeMath.sol\";\nimport {Math} from \"@openzeppelin/contracts/math/Math.sol\";\n\ncontract TokenSwapInv is ITokenSwapInv, ReentrancyGuard {\n    using SafeMath for uint256;\n    using SafeMath for uint8;\n    using Math for uint256;\n\n    string public name = \"TokenSwapInv Exchange\";\n    AToken public aToken;\n    // uint256 public aRate = 1000;\n    BToken public bToken;\n\n    // uint256 public bRate = 1000;\n\n    constructor(AToken _aToken, BToken _bToken) public {\n        //pass the address of the Token in\n        aToken = _aToken;\n        bToken = _bToken;\n    }\n    uint256[] buyorderbookArray;\n    uint256[] sellorderbookArray;\n\n    uint256[] public sellrateidInv;\n    uint256[] public buyrateidInv;\n\n    uint256 public idOfBuyRateInv;\n    uint256 public idOfSellRateInv;\n\n    uint256 public buyCounterInv = 0;\n    uint256 public minSellRate;\n    mapping(uint256 => NewOrder) public newBuyOrderBookInv;\n\n    uint256 public sellCounterInv = 0;\n    mapping(uint256 => NewOrder) public newSellOrderBookInv;\n    uint256 public maxBuyRate;\n\n    function getbuyrateInv() public returns (uint256[] memory) {\n        return buyrateidInv;\n    }\n\n    function getsellrateInv() public returns (uint256[] memory) {\n        return sellrateidInv;\n    }\n\n    function _atobBookInv(uint256 rate, uint256 a) internal {\n        require(rate > 0);\n        buyCounterInv += 1;\n        buyrateidInv.push(buyCounterInv);\n        newBuyOrderBookInv[buyCounterInv] = NewOrder(msg.sender, a, rate);\n    }\n    function atobInverseRate(uint256 b, uint256 a) external override nonReentrant {\n        require(aToken.balanceOf(msg.sender) >= a);\n\n        aToken.transferFrom(msg.sender, address(this), a);\n        // emit ATokensSent(msg.sender, address(this),a);\n        uint256 rate = b / a;\n        bool toAdd = true;\n\n        for (uint256 i = 0; i < sellrateidInv.length; i++) {\n            idOfSellRateInv = sellrateidInv[i];\n            minSellRate = newSellOrderBookInv[idOfSellRateInv].rate;\n\n            if (rate <= minSellRate && minSellRate > 0) {\n                //give best order\n                toAdd = false;\n                if (newSellOrderBookInv[idOfSellRateInv].amount > b) {\n                    uint256 arequired = newSellOrderBookInv[idOfSellRateInv].amount /\n                        newSellOrderBookInv[idOfSellRateInv].rate;\n\n                    if (arequired < a) {\n                        aToken.transfer(\n                            newSellOrderBookInv[idOfSellRateInv].maker,\n                            arequired\n                        );\n                        bToken.transfer(msg.sender, arequired * minSellRate);\n\n                        _atobBookInv(rate, a - arequired);\n                        delete newSellOrderBookInv[idOfSellRateInv];\n                        for (uint256 j = i; j < sellrateidInv.length - 1; j++) {\n                            sellrateidInv[j] = sellrateidInv[j + 1];\n                        }\n                        sellrateidInv.pop();\n                    } else if (arequired > a) {\n                        aToken.transfer(\n                            newSellOrderBookInv[idOfSellRateInv].maker,\n                            a\n                        );\n                        bToken.transfer(msg.sender, a * minSellRate);\n                        uint256 newAmount = newSellOrderBookInv[idOfSellRateInv]\n                            .amount - a * minSellRate;\n                        newSellOrderBookInv[idOfSellRateInv].amount = newAmount;\n                    } else if (arequired == a) {\n                        aToken.transfer(\n                            newSellOrderBookInv[idOfSellRateInv].maker,\n                            a\n                        );\n                        bToken.transfer(msg.sender, a * minSellRate);\n                        delete newSellOrderBookInv[idOfSellRateInv];\n                        for (uint256 j = i; j < sellrateidInv.length - 1; j++) {\n                            sellrateidInv[j] = sellrateidInv[j + 1];\n                        }\n                        sellrateidInv.pop();\n                    }\n                } else if (newSellOrderBookInv[idOfSellRateInv].amount == b) {\n                    uint256 arequired = newSellOrderBookInv[idOfSellRateInv].amount /\n                        newSellOrderBookInv[idOfSellRateInv].rate;\n                    if (arequired < a) {\n                        aToken.transfer(\n                            newSellOrderBookInv[idOfSellRateInv].maker,\n                            arequired\n                        );\n                        bToken.transfer(msg.sender, arequired * minSellRate);\n\n                        _atobBookInv(rate, a - arequired);\n                        delete newSellOrderBookInv[idOfSellRateInv];\n                        for (uint256 j = i; j < sellrateidInv.length - 1; j++) {\n                            sellrateidInv[j] = sellrateidInv[j + 1];\n                        }\n                        sellrateidInv.pop();\n                    } else if (arequired == a) {\n                        aToken.transfer(\n                            newSellOrderBookInv[idOfSellRateInv].maker,\n                            a\n                        );\n                        bToken.transfer(msg.sender, a * minSellRate);\n                        delete newSellOrderBookInv[idOfSellRateInv];\n                        for (uint256 j = i; j < sellrateidInv.length - 1; j++) {\n                            sellrateidInv[j] = sellrateidInv[j + 1];\n                        }\n                        sellrateidInv.pop();\n                    }\n                } else if (newSellOrderBookInv[idOfSellRateInv].amount < b) {\n                    uint256 arequired = newSellOrderBookInv[idOfSellRateInv].amount *\n                        newSellOrderBookInv[idOfSellRateInv].rate;\n                    if (arequired < a) {\n                        aToken.transfer(\n                            newSellOrderBookInv[idOfSellRateInv].maker,\n                            arequired\n                        );\n                        bToken.transfer(msg.sender, arequired * minSellRate);\n\n                        _atobBookInv(rate, a - arequired);\n                        delete newSellOrderBookInv[idOfSellRateInv];\n                        for (uint256 j = i; j < sellrateidInv.length - 1; j++) {\n                            sellrateidInv[j] = sellrateidInv[j + 1];\n                        }\n                        sellrateidInv.pop();\n                    }\n                }\n                break;\n            }\n        }\n        if (a > 0 && toAdd) {\n            _atobBookInv(rate, a);\n        }\n    }\n    function _btoaBookInv(uint256 rate, uint256 b) internal {\n        require(rate > 0);\n        sellCounterInv += 1;\n        sellrateidInv.push(sellCounterInv);\n        newSellOrderBookInv[sellCounterInv] = NewOrder(msg.sender, b, rate);\n        // // emit DrawToSellBook(msg.sender, rate, amountSold);\n    }\n\n    function btoaInverseRate(uint256 a, uint256 b) external override nonReentrant {\n        require(bToken.balanceOf(msg.sender) >= b);\n        bToken.transferFrom(msg.sender, address(this), b);\n        // emit BTokensSent(msg.sender, address(this),b);\n\n        uint256 rate = b / a;\n        bool toAdd = true;\n\n        for (uint256 i = 0; i < buyrateidInv.length; i++) {\n            idOfBuyRateInv = buyrateidInv[i];\n            maxBuyRate = newBuyOrderBookInv[idOfBuyRateInv].rate;\n            if (rate >= maxBuyRate && maxBuyRate > 0) {\n                toAdd = false;\n                if (newBuyOrderBookInv[idOfBuyRateInv].amount > a) {\n                    //calculate new b amount\n                    uint256 brequired = newBuyOrderBookInv[idOfBuyRateInv].amount *\n                        maxBuyRate;\n                    if (brequired < b) {\n                        bToken.transfer(\n                            newBuyOrderBookInv[idOfBuyRateInv].maker,\n                            brequired\n                        );\n                        aToken.transfer(msg.sender, brequired / maxBuyRate);\n\n                        _btoaBookInv(rate, b - brequired);\n                        delete newBuyOrderBookInv[idOfBuyRateInv];\n                        for (uint256 j = i; j < buyrateidInv.length - 1; j++) {\n                            buyrateidInv[j] = buyrateidInv[j + 1];\n                        }\n                        buyrateidInv.pop();\n                    } else if (brequired > b) {\n                        bToken.transfer(newBuyOrderBookInv[idOfBuyRateInv].maker, b);\n                        aToken.transfer(msg.sender, b / maxBuyRate);\n                        //calculate new a amount\n                        uint256 newAmount = newBuyOrderBookInv[idOfBuyRateInv]\n                            .amount - b * maxBuyRate;\n                        newBuyOrderBookInv[idOfBuyRateInv].amount = newAmount; //replace old amount with new\n                    } else {\n                        bToken.transfer(newBuyOrderBookInv[idOfBuyRateInv].maker, b);\n                        aToken.transfer(msg.sender, b / maxBuyRate);\n\n                        delete newBuyOrderBookInv[idOfBuyRateInv];\n                        for (uint256 j = i; j < buyrateidInv.length - 1; j++) {\n                            buyrateidInv[j] = buyrateidInv[j + 1];\n                        }\n                        buyrateidInv.pop();\n                    }\n                } else if (newBuyOrderBookInv[idOfBuyRateInv].amount == a) {\n                    uint256 brequired = newBuyOrderBookInv[idOfBuyRateInv].amount *\n                        maxBuyRate;\n\n                    if (brequired < b) {\n                        bToken.transfer(\n                            newBuyOrderBookInv[idOfBuyRateInv].maker,\n                            brequired\n                        );\n                        aToken.transfer(msg.sender, brequired / maxBuyRate);\n                        _btoaBookInv(rate, b - brequired);\n                        delete newBuyOrderBookInv[idOfBuyRateInv];\n                        for (uint256 j = i; j < buyrateidInv.length - 1; j++) {\n                            buyrateidInv[j] = buyrateidInv[j + 1];\n                        }\n                        buyrateidInv.pop();\n                    } else if (b == brequired) {\n                        bToken.transfer(newBuyOrderBookInv[idOfBuyRateInv].maker, b);\n                        aToken.transfer(msg.sender, b / maxBuyRate);\n\n                        delete newBuyOrderBookInv[idOfBuyRateInv];\n                        for (uint256 j = i; j < buyrateidInv.length - 1; j++) {\n                            buyrateidInv[j] = buyrateidInv[j + 1];\n                        }\n                        buyrateidInv.pop();\n                    }\n                } else if (newBuyOrderBookInv[idOfBuyRateInv].amount < a) {\n                    uint256 brequired = newBuyOrderBookInv[idOfBuyRateInv].amount *\n                        maxBuyRate;\n\n                    if (brequired < b) {\n                        bToken.transfer(\n                            newBuyOrderBookInv[idOfBuyRateInv].maker,\n                            brequired\n                        );\n                        aToken.transfer(msg.sender, brequired / maxBuyRate);\n                        _btoaBookInv(rate, b - brequired);\n                        delete newBuyOrderBookInv[idOfBuyRateInv];\n                        for (uint256 j = i; j < buyrateidInv.length - 1; j++) {\n                            buyrateidInv[j] = buyrateidInv[j + 1];\n                        }\n                        buyrateidInv.pop();\n                    }\n                }\n                break;\n            }\n        }\n\n        if (b > 0 && toAdd) {\n            _btoaBookInv(rate, b);\n        }\n    }\n////////////////////////////////////////////////////////////////////////////////////////////// delete orders  ///////////////////////////////////////////////////////////////////////////////////////////////\n\n    function deleteBuyOrders() public {\n\n        for (uint256 i = 0; i < buyrateidInv.length; i++) {\n            uint256 key = buyrateidInv[i];\n            if (msg.sender == newBuyOrderBookInv[key].maker) {\n                aToken.transfer(msg.sender, newBuyOrderBookInv[key].amount);\n                delete newBuyOrderBookInv[key];\n                for (uint256 j = i; j < buyrateidInv.length - 1; j++) {\n                    buyrateidInv[j] = buyrateidInv[j + 1];\n                }\n                buyrateidInv.pop();\n                i--;\n            }\n        }\n    }\n\n    function deleteSellOrders() public {\n \n\n        for (uint256 i = 0; i < sellrateidInv.length; i++) {\n            uint256 key = sellrateidInv[i];\n            if (msg.sender == newSellOrderBookInv[key].maker) {\n                bToken.transfer(msg.sender, newSellOrderBookInv[key].amount);\n                delete newSellOrderBookInv[key];\n                for (uint256 j = i; j < sellrateidInv.length - 1; j++) {\n                    sellrateidInv[j] = sellrateidInv[j + 1];\n                }\n                sellrateidInv.pop();\n                i--;\n            }\n        }\n    }\n\n////////////////////////////////////////////////////////////////////////////////////////////// display orderbooks ///////////////////////////////////////////////////////////////////////////////////////////////\n    \n    function getBuyOrderBook(address account)\n        public\n        returns (uint256[] memory)\n    {\n\n        buyorderbookArray = new uint256[](0);\n\n        for (uint256 j = 0; j < buyrateidInv.length; j++) {\n            uint256 key = buyrateidInv[j];\n            if (account == newBuyOrderBookInv[key].maker) {\n                buyorderbookArray.push(\n                    newBuyOrderBookInv[key].amount *\n                        newBuyOrderBookInv[key].rate\n                );\n            }\n        }\n\n        return buyorderbookArray;\n    }\n\n    function getSellOrderBook(address account)\n        public\n        returns (uint256[] memory)\n    {\n        sellorderbookArray = new uint256[](0);\n\n\n        for (uint256 i = 0; i < sellrateidInv.length; i++) {\n            uint256 key = sellrateidInv[i];\n            if (account == newSellOrderBookInv[key].maker) {\n                sellorderbookArray.push(\n                    newSellOrderBookInv[key].amount /\n                        newSellOrderBookInv[key].rate\n                );\n            }\n        }\n\n        return sellorderbookArray;\n    }\n\n}",
  "sourcePath": "/Users/yiheng/Documents/NTU/Y4S2/CZ4153 Blockchain/crypto_exchange/Blockchain-DEX/src/contracts/TokenSwapInv.sol",
  "compiler": {
    "name": "solc",
    "version": "0.6.8+commit.0bbfe453.Emscripten.clang"
  },
  "schemaVersion": "3.4.10",
  "updatedAt": "2022-11-05T16:18:04.947Z",
  "networkType": "ethereum",
  "devdoc": {
    "methods": {}
  },
  "userdoc": {
    "methods": {
      "deleteBuyOrders()": {
        "notice": "/////////////////////////////////////////////////////////////////////////////////////////// delete orders  ///////////////////////////////////////////////////////////////////////////////////////////////"
      },
      "getBuyOrderBook(address)": {
        "notice": "/////////////////////////////////////////////////////////////////////////////////////////// display orderbooks ///////////////////////////////////////////////////////////////////////////////////////////////"
      }
    }
  }
}